{
	"swap/UniswapV2Router02.sol": {
		"UniswapV2Router02": {
			"abi": [
				{
					"inputs": [
						{
							"internalType": "address",
							"name": "_factory",
							"type": "address"
						},
						{
							"internalType": "address",
							"name": "_WETH",
							"type": "address"
						}
					],
					"stateMutability": "nonpayable",
					"type": "constructor"
				},
				{
					"inputs": [],
					"name": "WETH",
					"outputs": [
						{
							"internalType": "address",
							"name": "",
							"type": "address"
						}
					],
					"stateMutability": "view",
					"type": "function"
				},
				{
					"inputs": [
						{
							"internalType": "address",
							"name": "tokenA",
							"type": "address"
						},
						{
							"internalType": "address",
							"name": "tokenB",
							"type": "address"
						},
						{
							"internalType": "uint256",
							"name": "amountADesired",
							"type": "uint256"
						},
						{
							"internalType": "uint256",
							"name": "amountBDesired",
							"type": "uint256"
						},
						{
							"internalType": "uint256",
							"name": "amountAMin",
							"type": "uint256"
						},
						{
							"internalType": "uint256",
							"name": "amountBMin",
							"type": "uint256"
						},
						{
							"internalType": "address",
							"name": "to",
							"type": "address"
						},
						{
							"internalType": "uint256",
							"name": "deadline",
							"type": "uint256"
						}
					],
					"name": "addLiquidity",
					"outputs": [
						{
							"internalType": "uint256",
							"name": "amountA",
							"type": "uint256"
						},
						{
							"internalType": "uint256",
							"name": "amountB",
							"type": "uint256"
						},
						{
							"internalType": "uint256",
							"name": "liquidity",
							"type": "uint256"
						}
					],
					"stateMutability": "nonpayable",
					"type": "function"
				},
				{
					"inputs": [
						{
							"internalType": "address",
							"name": "token",
							"type": "address"
						},
						{
							"internalType": "uint256",
							"name": "amountTokenDesired",
							"type": "uint256"
						},
						{
							"internalType": "uint256",
							"name": "amountTokenMin",
							"type": "uint256"
						},
						{
							"internalType": "uint256",
							"name": "amountETHMin",
							"type": "uint256"
						},
						{
							"internalType": "address",
							"name": "to",
							"type": "address"
						},
						{
							"internalType": "uint256",
							"name": "deadline",
							"type": "uint256"
						}
					],
					"name": "addLiquidityETH",
					"outputs": [
						{
							"internalType": "uint256",
							"name": "amountToken",
							"type": "uint256"
						},
						{
							"internalType": "uint256",
							"name": "amountETH",
							"type": "uint256"
						},
						{
							"internalType": "uint256",
							"name": "liquidity",
							"type": "uint256"
						}
					],
					"stateMutability": "payable",
					"type": "function"
				},
				{
					"inputs": [],
					"name": "factory",
					"outputs": [
						{
							"internalType": "address",
							"name": "",
							"type": "address"
						}
					],
					"stateMutability": "view",
					"type": "function"
				},
				{
					"inputs": [
						{
							"internalType": "uint256",
							"name": "amountOut",
							"type": "uint256"
						},
						{
							"internalType": "uint256",
							"name": "reserveIn",
							"type": "uint256"
						},
						{
							"internalType": "uint256",
							"name": "reserveOut",
							"type": "uint256"
						}
					],
					"name": "getAmountIn",
					"outputs": [
						{
							"internalType": "uint256",
							"name": "amountIn",
							"type": "uint256"
						}
					],
					"stateMutability": "pure",
					"type": "function"
				},
				{
					"inputs": [
						{
							"internalType": "uint256",
							"name": "amountIn",
							"type": "uint256"
						},
						{
							"internalType": "uint256",
							"name": "reserveIn",
							"type": "uint256"
						},
						{
							"internalType": "uint256",
							"name": "reserveOut",
							"type": "uint256"
						}
					],
					"name": "getAmountOut",
					"outputs": [
						{
							"internalType": "uint256",
							"name": "amountOut",
							"type": "uint256"
						}
					],
					"stateMutability": "pure",
					"type": "function"
				},
				{
					"inputs": [
						{
							"internalType": "uint256",
							"name": "amountOut",
							"type": "uint256"
						},
						{
							"internalType": "address[]",
							"name": "path",
							"type": "address[]"
						}
					],
					"name": "getAmountsIn",
					"outputs": [
						{
							"internalType": "uint256[]",
							"name": "amounts",
							"type": "uint256[]"
						}
					],
					"stateMutability": "view",
					"type": "function"
				},
				{
					"inputs": [
						{
							"internalType": "uint256",
							"name": "amountIn",
							"type": "uint256"
						},
						{
							"internalType": "address[]",
							"name": "path",
							"type": "address[]"
						}
					],
					"name": "getAmountsOut",
					"outputs": [
						{
							"internalType": "uint256[]",
							"name": "amounts",
							"type": "uint256[]"
						}
					],
					"stateMutability": "view",
					"type": "function"
				},
				{
					"inputs": [
						{
							"internalType": "uint256",
							"name": "amountA",
							"type": "uint256"
						},
						{
							"internalType": "uint256",
							"name": "reserveA",
							"type": "uint256"
						},
						{
							"internalType": "uint256",
							"name": "reserveB",
							"type": "uint256"
						}
					],
					"name": "quote",
					"outputs": [
						{
							"internalType": "uint256",
							"name": "amountB",
							"type": "uint256"
						}
					],
					"stateMutability": "pure",
					"type": "function"
				},
				{
					"inputs": [
						{
							"internalType": "address",
							"name": "tokenA",
							"type": "address"
						},
						{
							"internalType": "address",
							"name": "tokenB",
							"type": "address"
						},
						{
							"internalType": "uint256",
							"name": "liquidity",
							"type": "uint256"
						},
						{
							"internalType": "uint256",
							"name": "amountAMin",
							"type": "uint256"
						},
						{
							"internalType": "uint256",
							"name": "amountBMin",
							"type": "uint256"
						},
						{
							"internalType": "address",
							"name": "to",
							"type": "address"
						},
						{
							"internalType": "uint256",
							"name": "deadline",
							"type": "uint256"
						}
					],
					"name": "removeLiquidity",
					"outputs": [
						{
							"internalType": "uint256",
							"name": "amountA",
							"type": "uint256"
						},
						{
							"internalType": "uint256",
							"name": "amountB",
							"type": "uint256"
						}
					],
					"stateMutability": "nonpayable",
					"type": "function"
				},
				{
					"inputs": [
						{
							"internalType": "address",
							"name": "token",
							"type": "address"
						},
						{
							"internalType": "uint256",
							"name": "liquidity",
							"type": "uint256"
						},
						{
							"internalType": "uint256",
							"name": "amountTokenMin",
							"type": "uint256"
						},
						{
							"internalType": "uint256",
							"name": "amountETHMin",
							"type": "uint256"
						},
						{
							"internalType": "address",
							"name": "to",
							"type": "address"
						},
						{
							"internalType": "uint256",
							"name": "deadline",
							"type": "uint256"
						}
					],
					"name": "removeLiquidityETH",
					"outputs": [
						{
							"internalType": "uint256",
							"name": "amountToken",
							"type": "uint256"
						},
						{
							"internalType": "uint256",
							"name": "amountETH",
							"type": "uint256"
						}
					],
					"stateMutability": "nonpayable",
					"type": "function"
				},
				{
					"inputs": [
						{
							"internalType": "address",
							"name": "token",
							"type": "address"
						},
						{
							"internalType": "uint256",
							"name": "liquidity",
							"type": "uint256"
						},
						{
							"internalType": "uint256",
							"name": "amountTokenMin",
							"type": "uint256"
						},
						{
							"internalType": "uint256",
							"name": "amountETHMin",
							"type": "uint256"
						},
						{
							"internalType": "address",
							"name": "to",
							"type": "address"
						},
						{
							"internalType": "uint256",
							"name": "deadline",
							"type": "uint256"
						}
					],
					"name": "removeLiquidityETHSupportingFeeOnTransferTokens",
					"outputs": [
						{
							"internalType": "uint256",
							"name": "amountETH",
							"type": "uint256"
						}
					],
					"stateMutability": "nonpayable",
					"type": "function"
				},
				{
					"inputs": [
						{
							"internalType": "address",
							"name": "token",
							"type": "address"
						},
						{
							"internalType": "uint256",
							"name": "liquidity",
							"type": "uint256"
						},
						{
							"internalType": "uint256",
							"name": "amountTokenMin",
							"type": "uint256"
						},
						{
							"internalType": "uint256",
							"name": "amountETHMin",
							"type": "uint256"
						},
						{
							"internalType": "address",
							"name": "to",
							"type": "address"
						},
						{
							"internalType": "uint256",
							"name": "deadline",
							"type": "uint256"
						},
						{
							"internalType": "bool",
							"name": "approveMax",
							"type": "bool"
						},
						{
							"internalType": "uint8",
							"name": "v",
							"type": "uint8"
						},
						{
							"internalType": "bytes32",
							"name": "r",
							"type": "bytes32"
						},
						{
							"internalType": "bytes32",
							"name": "s",
							"type": "bytes32"
						}
					],
					"name": "removeLiquidityETHWithPermit",
					"outputs": [
						{
							"internalType": "uint256",
							"name": "amountToken",
							"type": "uint256"
						},
						{
							"internalType": "uint256",
							"name": "amountETH",
							"type": "uint256"
						}
					],
					"stateMutability": "nonpayable",
					"type": "function"
				},
				{
					"inputs": [
						{
							"internalType": "address",
							"name": "token",
							"type": "address"
						},
						{
							"internalType": "uint256",
							"name": "liquidity",
							"type": "uint256"
						},
						{
							"internalType": "uint256",
							"name": "amountTokenMin",
							"type": "uint256"
						},
						{
							"internalType": "uint256",
							"name": "amountETHMin",
							"type": "uint256"
						},
						{
							"internalType": "address",
							"name": "to",
							"type": "address"
						},
						{
							"internalType": "uint256",
							"name": "deadline",
							"type": "uint256"
						},
						{
							"internalType": "bool",
							"name": "approveMax",
							"type": "bool"
						},
						{
							"internalType": "uint8",
							"name": "v",
							"type": "uint8"
						},
						{
							"internalType": "bytes32",
							"name": "r",
							"type": "bytes32"
						},
						{
							"internalType": "bytes32",
							"name": "s",
							"type": "bytes32"
						}
					],
					"name": "removeLiquidityETHWithPermitSupportingFeeOnTransferTokens",
					"outputs": [
						{
							"internalType": "uint256",
							"name": "amountETH",
							"type": "uint256"
						}
					],
					"stateMutability": "nonpayable",
					"type": "function"
				},
				{
					"inputs": [
						{
							"internalType": "address",
							"name": "tokenA",
							"type": "address"
						},
						{
							"internalType": "address",
							"name": "tokenB",
							"type": "address"
						},
						{
							"internalType": "uint256",
							"name": "liquidity",
							"type": "uint256"
						},
						{
							"internalType": "uint256",
							"name": "amountAMin",
							"type": "uint256"
						},
						{
							"internalType": "uint256",
							"name": "amountBMin",
							"type": "uint256"
						},
						{
							"internalType": "address",
							"name": "to",
							"type": "address"
						},
						{
							"internalType": "uint256",
							"name": "deadline",
							"type": "uint256"
						},
						{
							"internalType": "bool",
							"name": "approveMax",
							"type": "bool"
						},
						{
							"internalType": "uint8",
							"name": "v",
							"type": "uint8"
						},
						{
							"internalType": "bytes32",
							"name": "r",
							"type": "bytes32"
						},
						{
							"internalType": "bytes32",
							"name": "s",
							"type": "bytes32"
						}
					],
					"name": "removeLiquidityWithPermit",
					"outputs": [
						{
							"internalType": "uint256",
							"name": "amountA",
							"type": "uint256"
						},
						{
							"internalType": "uint256",
							"name": "amountB",
							"type": "uint256"
						}
					],
					"stateMutability": "nonpayable",
					"type": "function"
				},
				{
					"inputs": [
						{
							"internalType": "uint256",
							"name": "amountOut",
							"type": "uint256"
						},
						{
							"internalType": "address[]",
							"name": "path",
							"type": "address[]"
						},
						{
							"internalType": "address",
							"name": "to",
							"type": "address"
						},
						{
							"internalType": "uint256",
							"name": "deadline",
							"type": "uint256"
						}
					],
					"name": "swapETHForExactTokens",
					"outputs": [
						{
							"internalType": "uint256[]",
							"name": "amounts",
							"type": "uint256[]"
						}
					],
					"stateMutability": "payable",
					"type": "function"
				},
				{
					"inputs": [
						{
							"internalType": "uint256",
							"name": "amountOutMin",
							"type": "uint256"
						},
						{
							"internalType": "address[]",
							"name": "path",
							"type": "address[]"
						},
						{
							"internalType": "address",
							"name": "to",
							"type": "address"
						},
						{
							"internalType": "uint256",
							"name": "deadline",
							"type": "uint256"
						}
					],
					"name": "swapExactETHForTokens",
					"outputs": [
						{
							"internalType": "uint256[]",
							"name": "amounts",
							"type": "uint256[]"
						}
					],
					"stateMutability": "payable",
					"type": "function"
				},
				{
					"inputs": [
						{
							"internalType": "uint256",
							"name": "amountOutMin",
							"type": "uint256"
						},
						{
							"internalType": "address[]",
							"name": "path",
							"type": "address[]"
						},
						{
							"internalType": "address",
							"name": "to",
							"type": "address"
						},
						{
							"internalType": "uint256",
							"name": "deadline",
							"type": "uint256"
						}
					],
					"name": "swapExactETHForTokensSupportingFeeOnTransferTokens",
					"outputs": [],
					"stateMutability": "payable",
					"type": "function"
				},
				{
					"inputs": [
						{
							"internalType": "uint256",
							"name": "amountIn",
							"type": "uint256"
						},
						{
							"internalType": "uint256",
							"name": "amountOutMin",
							"type": "uint256"
						},
						{
							"internalType": "address[]",
							"name": "path",
							"type": "address[]"
						},
						{
							"internalType": "address",
							"name": "to",
							"type": "address"
						},
						{
							"internalType": "uint256",
							"name": "deadline",
							"type": "uint256"
						}
					],
					"name": "swapExactTokensForETH",
					"outputs": [
						{
							"internalType": "uint256[]",
							"name": "amounts",
							"type": "uint256[]"
						}
					],
					"stateMutability": "nonpayable",
					"type": "function"
				},
				{
					"inputs": [
						{
							"internalType": "uint256",
							"name": "amountIn",
							"type": "uint256"
						},
						{
							"internalType": "uint256",
							"name": "amountOutMin",
							"type": "uint256"
						},
						{
							"internalType": "address[]",
							"name": "path",
							"type": "address[]"
						},
						{
							"internalType": "address",
							"name": "to",
							"type": "address"
						},
						{
							"internalType": "uint256",
							"name": "deadline",
							"type": "uint256"
						}
					],
					"name": "swapExactTokensForETHSupportingFeeOnTransferTokens",
					"outputs": [],
					"stateMutability": "nonpayable",
					"type": "function"
				},
				{
					"inputs": [
						{
							"internalType": "uint256",
							"name": "amountIn",
							"type": "uint256"
						},
						{
							"internalType": "uint256",
							"name": "amountOutMin",
							"type": "uint256"
						},
						{
							"internalType": "address[]",
							"name": "path",
							"type": "address[]"
						},
						{
							"internalType": "address",
							"name": "to",
							"type": "address"
						},
						{
							"internalType": "uint256",
							"name": "deadline",
							"type": "uint256"
						}
					],
					"name": "swapExactTokensForTokens",
					"outputs": [
						{
							"internalType": "uint256[]",
							"name": "amounts",
							"type": "uint256[]"
						}
					],
					"stateMutability": "nonpayable",
					"type": "function"
				},
				{
					"inputs": [
						{
							"internalType": "uint256",
							"name": "amountIn",
							"type": "uint256"
						},
						{
							"internalType": "uint256",
							"name": "amountOutMin",
							"type": "uint256"
						},
						{
							"internalType": "address[]",
							"name": "path",
							"type": "address[]"
						},
						{
							"internalType": "address",
							"name": "to",
							"type": "address"
						},
						{
							"internalType": "uint256",
							"name": "deadline",
							"type": "uint256"
						}
					],
					"name": "swapExactTokensForTokensSupportingFeeOnTransferTokens",
					"outputs": [],
					"stateMutability": "nonpayable",
					"type": "function"
				},
				{
					"inputs": [
						{
							"internalType": "uint256",
							"name": "amountOut",
							"type": "uint256"
						},
						{
							"internalType": "uint256",
							"name": "amountInMax",
							"type": "uint256"
						},
						{
							"internalType": "address[]",
							"name": "path",
							"type": "address[]"
						},
						{
							"internalType": "address",
							"name": "to",
							"type": "address"
						},
						{
							"internalType": "uint256",
							"name": "deadline",
							"type": "uint256"
						}
					],
					"name": "swapTokensForExactETH",
					"outputs": [
						{
							"internalType": "uint256[]",
							"name": "amounts",
							"type": "uint256[]"
						}
					],
					"stateMutability": "nonpayable",
					"type": "function"
				},
				{
					"inputs": [
						{
							"internalType": "uint256",
							"name": "amountOut",
							"type": "uint256"
						},
						{
							"internalType": "uint256",
							"name": "amountInMax",
							"type": "uint256"
						},
						{
							"internalType": "address[]",
							"name": "path",
							"type": "address[]"
						},
						{
							"internalType": "address",
							"name": "to",
							"type": "address"
						},
						{
							"internalType": "uint256",
							"name": "deadline",
							"type": "uint256"
						}
					],
					"name": "swapTokensForExactTokens",
					"outputs": [
						{
							"internalType": "uint256[]",
							"name": "amounts",
							"type": "uint256[]"
						}
					],
					"stateMutability": "nonpayable",
					"type": "function"
				},
				{
					"stateMutability": "payable",
					"type": "receive"
				}
			],
			"devdoc": {
				"kind": "dev",
				"methods": {},
				"version": 1
			},
			"evm": {
				"assembly": "    /* \"swap/UniswapV2Router02.sol\":353:18958  contract UniswapV2Router02 is IUniswapV2Router02 {\r... */\n  mstore(0x40, 0xc0)\n    /* \"swap/UniswapV2Router02.sol\":677:789  constructor(address _factory, address _WETH) public {\r... */\n  callvalue\n  dup1\n  iszero\n  tag_1\n  jumpi\n  0x00\n  dup1\n  revert\ntag_1:\n  pop\n  mload(0x40)\n  sub(codesize, bytecodeSize)\n  dup1\n  bytecodeSize\n  dup4\n  codecopy\n  dup2\n  dup2\n  add\n  0x40\n  mstore\n  0x40\n  dup2\n  lt\n  iszero\n  tag_2\n  jumpi\n  0x00\n  dup1\n  revert\ntag_2:\n  pop\n  dup1\n  mload\n  0x20\n  swap1\n  swap2\n  add\n  mload\n  not(sub(shl(0x60, 0x01), 0x01))\n    /* \"swap/UniswapV2Router02.sol\":740:758  factory = _factory */\n  0x60\n  swap3\n  dup4\n  shl\n  dup2\n  and\n  0x80\n  mstore\n    /* \"swap/UniswapV2Router02.sol\":769:781  WETH = _WETH */\n  swap2\n  shl\n  and\n  0xa0\n  mstore\n    /* \"swap/UniswapV2Router02.sol\":353:18958  contract UniswapV2Router02 is IUniswapV2Router02 {\r... */\n  shr(0x60, mload(0x80))\n  shr(0x60, mload(0xa0))\n  codecopy(0x00, dataOffset(sub_0), dataSize(sub_0))\n  assignImmutable(\"0x939eb54753ed0cc7e2272bfb34cbe098308c93936ed54d79078f76ade0b2e789\")\n  assignImmutable(\"0x277ab82e5a4641341820a4a2933a62c1de997e42e92548657ae21b3728d580fe\")\n  return(0x00, dataSize(sub_0))\nstop\n\nsub_0: assembly {\n        /* \"swap/UniswapV2Router02.sol\":353:18958  contract UniswapV2Router02 is IUniswapV2Router02 {\r... */\n      mstore(0x40, 0x80)\n      jumpi(tag_1, lt(calldatasize, 0x04))\n      shr(0xe0, calldataload(0x00))\n      dup1\n      0x8803dbee\n      gt\n      tag_27\n      jumpi\n      dup1\n      0xc45a0155\n      gt\n      tag_28\n      jumpi\n      dup1\n      0xc45a0155\n      eq\n      tag_21\n      jumpi\n      dup1\n      0xd06ca61f\n      eq\n      tag_22\n      jumpi\n      dup1\n      0xded9382a\n      eq\n      tag_23\n      jumpi\n      dup1\n      0xe8e33700\n      eq\n      tag_24\n      jumpi\n      dup1\n      0xf305d719\n      eq\n      tag_25\n      jumpi\n      dup1\n      0xfb3bdb41\n      eq\n      tag_26\n      jumpi\n      jump(tag_2)\n    tag_28:\n      dup1\n      0x8803dbee\n      eq\n      tag_15\n      jumpi\n      dup1\n      0xad5c4648\n      eq\n      tag_16\n      jumpi\n      dup1\n      0xad615dec\n      eq\n      tag_17\n      jumpi\n      dup1\n      0xaf2979eb\n      eq\n      tag_18\n      jumpi\n      dup1\n      0xb6f9de95\n      eq\n      tag_19\n      jumpi\n      dup1\n      0xbaa2abde\n      eq\n      tag_20\n      jumpi\n      jump(tag_2)\n    tag_27:\n      dup1\n      0x4a25d94a\n      gt\n      tag_29\n      jumpi\n      dup1\n      0x4a25d94a\n      eq\n      tag_9\n      jumpi\n      dup1\n      0x5b0d5984\n      eq\n      tag_10\n      jumpi\n      dup1\n      0x5c11d795\n      eq\n      tag_11\n      jumpi\n      dup1\n      0x791ac947\n      eq\n      tag_12\n      jumpi\n      dup1\n      0x7ff36ab5\n      eq\n      tag_13\n      jumpi\n      dup1\n      0x85f8c259\n      eq\n      tag_14\n      jumpi\n      jump(tag_2)\n    tag_29:\n      dup1\n      0x02751cec\n      eq\n      tag_3\n      jumpi\n      dup1\n      0x054d50d4\n      eq\n      tag_4\n      jumpi\n      dup1\n      0x18cbafe5\n      eq\n      tag_5\n      jumpi\n      dup1\n      0x1f00ca74\n      eq\n      tag_6\n      jumpi\n      dup1\n      0x2195995c\n      eq\n      tag_7\n      jumpi\n      dup1\n      0x38ed1739\n      eq\n      tag_8\n      jumpi\n      jump(tag_2)\n    tag_1:\n      jumpi(tag_2, calldatasize)\n        /* \"swap/UniswapV2Router02.sol\":842:852  msg.sender */\n      caller\n      sub(shl(0xa0, 0x01), 0x01)\n        /* \"swap/UniswapV2Router02.sol\":856:860  WETH */\n      immutable(\"0x939eb54753ed0cc7e2272bfb34cbe098308c93936ed54d79078f76ade0b2e789\")\n        /* \"swap/UniswapV2Router02.sol\":842:860  msg.sender == WETH */\n      and\n      eq\n        /* \"swap/UniswapV2Router02.sol\":835:861  assert(msg.sender == WETH) */\n      tag_32\n      jumpi\n      invalid\n    tag_32:\n        /* \"swap/UniswapV2Router02.sol\":353:18958  contract UniswapV2Router02 is IUniswapV2Router02 {\r... */\n      stop\n    tag_2:\n      0x00\n      dup1\n      revert\n        /* \"swap/UniswapV2Router02.sol\":4992:5665  function removeLiquidityETH(\r... */\n    tag_3:\n      callvalue\n      dup1\n      iszero\n      tag_33\n      jumpi\n      0x00\n      dup1\n      revert\n    tag_33:\n      pop\n      tag_34\n      0x04\n      dup1\n      calldatasize\n      sub\n      0xc0\n      dup2\n      lt\n      iszero\n      tag_35\n      jumpi\n      0x00\n      dup1\n      revert\n    tag_35:\n      pop\n      sub(shl(0xa0, 0x01), 0x01)\n      dup2\n      calldataload\n      dup2\n      and\n      swap2\n      0x20\n      dup2\n      add\n      calldataload\n      swap2\n      0x40\n      dup3\n      add\n      calldataload\n      swap2\n      0x60\n      dup2\n      add\n      calldataload\n      swap2\n      0x80\n      dup3\n      add\n      calldataload\n      and\n      swap1\n      0xa0\n      add\n      calldataload\n      tag_36\n      jump\t// in\n    tag_34:\n      0x40\n      dup1\n      mload\n      swap3\n      dup4\n      mstore\n      0x20\n      dup4\n      add\n      swap2\n      swap1\n      swap2\n      mstore\n      dup1\n      mload\n      swap2\n      dup3\n      swap1\n      sub\n      add\n      swap1\n      return\n        /* \"swap/UniswapV2Router02.sol\":17902:18164  function getAmountOut(uint amountIn, uint reserveIn, uint reserveOut)\r... */\n    tag_4:\n      callvalue\n      dup1\n      iszero\n      tag_37\n      jumpi\n      0x00\n      dup1\n      revert\n    tag_37:\n      pop\n      tag_38\n      0x04\n      dup1\n      calldatasize\n      sub\n      0x60\n      dup2\n      lt\n      iszero\n      tag_39\n      jumpi\n      0x00\n      dup1\n      revert\n    tag_39:\n      pop\n      dup1\n      calldataload\n      swap1\n      0x20\n      dup2\n      add\n      calldataload\n      swap1\n      0x40\n      add\n      calldataload\n      tag_40\n      jump\t// in\n    tag_38:\n      0x40\n      dup1\n      mload\n      swap2\n      dup3\n      mstore\n      mload\n      swap1\n      dup2\n      swap1\n      sub\n      0x20\n      add\n      swap1\n      return\n        /* \"swap/UniswapV2Router02.sol\":12168:13018  function swapExactTokensForETH(uint amountIn, uint amountOutMin, address[] calldata path, address to, uint deadline)\r... */\n    tag_5:\n      callvalue\n      dup1\n      iszero\n      tag_41\n      jumpi\n      0x00\n      dup1\n      revert\n    tag_41:\n      pop\n      tag_42\n      0x04\n      dup1\n      calldatasize\n      sub\n      0xa0\n      dup2\n      lt\n      iszero\n      tag_43\n      jumpi\n      0x00\n      dup1\n      revert\n    tag_43:\n      dup2\n      calldataload\n      swap2\n      0x20\n      dup2\n      add\n      calldataload\n      swap2\n      dup2\n      add\n      swap1\n      0x60\n      dup2\n      add\n      0x40\n      dup3\n      add\n      calldataload\n      shl(0x20, 0x01)\n      dup2\n      gt\n      iszero\n      tag_44\n      jumpi\n      0x00\n      dup1\n      revert\n    tag_44:\n      dup3\n      add\n      dup4\n      0x20\n      dup3\n      add\n      gt\n      iszero\n      tag_45\n      jumpi\n      0x00\n      dup1\n      revert\n    tag_45:\n      dup1\n      calldataload\n      swap1\n      0x20\n      add\n      swap2\n      dup5\n      0x20\n      dup4\n      mul\n      dup5\n      add\n      gt\n      shl(0x20, 0x01)\n      dup4\n      gt\n      or\n      iszero\n      tag_46\n      jumpi\n      0x00\n      dup1\n      revert\n    tag_46:\n      swap2\n      swap4\n      pop\n      swap2\n      pop\n      sub(shl(0xa0, 0x01), 0x01)\n      dup2\n      calldataload\n      and\n      swap1\n      0x20\n      add\n      calldataload\n      tag_47\n      jump\t// in\n    tag_42:\n      0x40\n      dup1\n      mload\n      0x20\n      dup1\n      dup3\n      mstore\n      dup4\n      mload\n      dup2\n      dup4\n      add\n      mstore\n      dup4\n      mload\n      swap2\n      swap3\n      dup4\n      swap3\n      swap1\n      dup4\n      add\n      swap2\n      dup6\n      dup2\n      add\n      swap2\n      mul\n      dup1\n      dup4\n      dup4\n      0x00\n    tag_48:\n      dup4\n      dup2\n      lt\n      iszero\n      tag_50\n      jumpi\n      dup2\n      dup2\n      add\n      mload\n      dup4\n      dup3\n      add\n      mstore\n      0x20\n      add\n      jump(tag_48)\n    tag_50:\n      pop\n      pop\n      pop\n      pop\n      swap1\n      pop\n      add\n      swap3\n      pop\n      pop\n      pop\n      mload(0x40)\n      dup1\n      swap2\n      sub\n      swap1\n      return\n        /* \"swap/UniswapV2Router02.sol\":18702:18955  function getAmountsIn(uint amountOut, address[] memory path)\r... */\n    tag_6:\n      callvalue\n      dup1\n      iszero\n      tag_51\n      jumpi\n      0x00\n      dup1\n      revert\n    tag_51:\n      pop\n      tag_42\n      0x04\n      dup1\n      calldatasize\n      sub\n      0x40\n      dup2\n      lt\n      iszero\n      tag_53\n      jumpi\n      0x00\n      dup1\n      revert\n    tag_53:\n      dup2\n      calldataload\n      swap2\n      swap1\n      dup2\n      add\n      swap1\n      0x40\n      dup2\n      add\n      0x20\n      dup3\n      add\n      calldataload\n      shl(0x20, 0x01)\n      dup2\n      gt\n      iszero\n      tag_54\n      jumpi\n      0x00\n      dup1\n      revert\n    tag_54:\n      dup3\n      add\n      dup4\n      0x20\n      dup3\n      add\n      gt\n      iszero\n      tag_55\n      jumpi\n      0x00\n      dup1\n      revert\n    tag_55:\n      dup1\n      calldataload\n      swap1\n      0x20\n      add\n      swap2\n      dup5\n      0x20\n      dup4\n      mul\n      dup5\n      add\n      gt\n      shl(0x20, 0x01)\n      dup4\n      gt\n      or\n      iszero\n      tag_56\n      jumpi\n      0x00\n      dup1\n      revert\n    tag_56:\n      swap2\n      swap1\n      dup1\n      dup1\n      0x20\n      mul\n      0x20\n      add\n      mload(0x40)\n      swap1\n      dup2\n      add\n      0x40\n      mstore\n      dup1\n      swap4\n      swap3\n      swap2\n      swap1\n      dup2\n      dup2\n      mstore\n      0x20\n      add\n      dup4\n      dup4\n      0x20\n      mul\n      dup1\n      dup3\n      dup5\n      calldatacopy\n      0x00\n      swap3\n      add\n      swap2\n      swap1\n      swap2\n      mstore\n      pop\n      swap3\n      swap6\n      pop\n      tag_57\n      swap5\n      pop\n      pop\n      pop\n      pop\n      pop\n      jump\t// in\n        /* \"swap/UniswapV2Router02.sol\":5671:6348  function removeLiquidityWithPermit(\r... */\n    tag_7:\n      callvalue\n      dup1\n      iszero\n      tag_61\n      jumpi\n      0x00\n      dup1\n      revert\n    tag_61:\n      pop\n      tag_34\n      0x04\n      dup1\n      calldatasize\n      sub\n      0x0160\n      dup2\n      lt\n      iszero\n      tag_63\n      jumpi\n      0x00\n      dup1\n      revert\n    tag_63:\n      pop\n      sub(shl(0xa0, 0x01), 0x01)\n      dup2\n      calldataload\n      dup2\n      and\n      swap2\n      0x20\n      dup2\n      add\n      calldataload\n      dup3\n      and\n      swap2\n      0x40\n      dup3\n      add\n      calldataload\n      swap2\n      0x60\n      dup2\n      add\n      calldataload\n      swap2\n      0x80\n      dup3\n      add\n      calldataload\n      swap2\n      0xa0\n      dup2\n      add\n      calldataload\n      swap1\n      swap2\n      and\n      swap1\n      0xc0\n      dup2\n      add\n      calldataload\n      swap1\n      0xe0\n      dup2\n      add\n      calldataload\n      iszero\n      iszero\n      swap1\n      0xff\n      0x0100\n      dup3\n      add\n      calldataload\n      and\n      swap1\n      0x0120\n      dup2\n      add\n      calldataload\n      swap1\n      0x0140\n      add\n      calldataload\n      tag_64\n      jump\t// in\n        /* \"swap/UniswapV2Router02.sol\":9385:10013  function swapExactTokensForTokens(\r... */\n    tag_8:\n      callvalue\n      dup1\n      iszero\n      tag_65\n      jumpi\n      0x00\n      dup1\n      revert\n    tag_65:\n      pop\n      tag_42\n      0x04\n      dup1\n      calldatasize\n      sub\n      0xa0\n      dup2\n      lt\n      iszero\n      tag_67\n      jumpi\n      0x00\n      dup1\n      revert\n    tag_67:\n      dup2\n      calldataload\n      swap2\n      0x20\n      dup2\n      add\n      calldataload\n      swap2\n      dup2\n      add\n      swap1\n      0x60\n      dup2\n      add\n      0x40\n      dup3\n      add\n      calldataload\n      shl(0x20, 0x01)\n      dup2\n      gt\n      iszero\n      tag_68\n      jumpi\n      0x00\n      dup1\n      revert\n    tag_68:\n      dup3\n      add\n      dup4\n      0x20\n      dup3\n      add\n      gt\n      iszero\n      tag_69\n      jumpi\n      0x00\n      dup1\n      revert\n    tag_69:\n      dup1\n      calldataload\n      swap1\n      0x20\n      add\n      swap2\n      dup5\n      0x20\n      dup4\n      mul\n      dup5\n      add\n      gt\n      shl(0x20, 0x01)\n      dup4\n      gt\n      or\n      iszero\n      tag_70\n      jumpi\n      0x00\n      dup1\n      revert\n    tag_70:\n      swap2\n      swap4\n      pop\n      swap2\n      pop\n      sub(shl(0xa0, 0x01), 0x01)\n      dup2\n      calldataload\n      and\n      swap1\n      0x20\n      add\n      calldataload\n      tag_71\n      jump\t// in\n        /* \"swap/UniswapV2Router02.sol\":11334:12162  function swapTokensForExactETH(uint amountOut, uint amountInMax, address[] calldata path, address to, uint deadline)\r... */\n    tag_9:\n      callvalue\n      dup1\n      iszero\n      tag_75\n      jumpi\n      0x00\n      dup1\n      revert\n    tag_75:\n      pop\n      tag_42\n      0x04\n      dup1\n      calldatasize\n      sub\n      0xa0\n      dup2\n      lt\n      iszero\n      tag_77\n      jumpi\n      0x00\n      dup1\n      revert\n    tag_77:\n      dup2\n      calldataload\n      swap2\n      0x20\n      dup2\n      add\n      calldataload\n      swap2\n      dup2\n      add\n      swap1\n      0x60\n      dup2\n      add\n      0x40\n      dup3\n      add\n      calldataload\n      shl(0x20, 0x01)\n      dup2\n      gt\n      iszero\n      tag_78\n      jumpi\n      0x00\n      dup1\n      revert\n    tag_78:\n      dup3\n      add\n      dup4\n      0x20\n      dup3\n      add\n      gt\n      iszero\n      tag_79\n      jumpi\n      0x00\n      dup1\n      revert\n    tag_79:\n      dup1\n      calldataload\n      swap1\n      0x20\n      add\n      swap2\n      dup5\n      0x20\n      dup4\n      mul\n      dup5\n      add\n      gt\n      shl(0x20, 0x01)\n      dup4\n      gt\n      or\n      iszero\n      tag_80\n      jumpi\n      0x00\n      dup1\n      revert\n    tag_80:\n      swap2\n      swap4\n      pop\n      swap2\n      pop\n      sub(shl(0xa0, 0x01), 0x01)\n      dup2\n      calldataload\n      and\n      swap1\n      0x20\n      add\n      calldataload\n      tag_81\n      jump\t// in\n        /* \"swap/UniswapV2Router02.sol\":7815:8533  function removeLiquidityETHWithPermitSupportingFeeOnTransferTokens(\r... */\n    tag_10:\n      callvalue\n      dup1\n      iszero\n      tag_85\n      jumpi\n      0x00\n      dup1\n      revert\n    tag_85:\n      pop\n      tag_38\n      0x04\n      dup1\n      calldatasize\n      sub\n      0x0140\n      dup2\n      lt\n      iszero\n      tag_87\n      jumpi\n      0x00\n      dup1\n      revert\n    tag_87:\n      pop\n      sub(shl(0xa0, 0x01), 0x01)\n      dup2\n      calldataload\n      dup2\n      and\n      swap2\n      0x20\n      dup2\n      add\n      calldataload\n      swap2\n      0x40\n      dup3\n      add\n      calldataload\n      swap2\n      0x60\n      dup2\n      add\n      calldataload\n      swap2\n      0x80\n      dup3\n      add\n      calldataload\n      and\n      swap1\n      0xa0\n      dup2\n      add\n      calldataload\n      swap1\n      0xc0\n      dup2\n      add\n      calldataload\n      iszero\n      iszero\n      swap1\n      0xff\n      0xe0\n      dup3\n      add\n      calldataload\n      and\n      swap1\n      0x0100\n      dup2\n      add\n      calldataload\n      swap1\n      0x0120\n      add\n      calldataload\n      tag_88\n      jump\t// in\n        /* \"swap/UniswapV2Router02.sol\":15208:15936  function swapExactTokensForTokensSupportingFeeOnTransferTokens(\r... */\n    tag_11:\n      callvalue\n      dup1\n      iszero\n      tag_89\n      jumpi\n      0x00\n      dup1\n      revert\n    tag_89:\n      pop\n      tag_32\n      0x04\n      dup1\n      calldatasize\n      sub\n      0xa0\n      dup2\n      lt\n      iszero\n      tag_91\n      jumpi\n      0x00\n      dup1\n      revert\n    tag_91:\n      dup2\n      calldataload\n      swap2\n      0x20\n      dup2\n      add\n      calldataload\n      swap2\n      dup2\n      add\n      swap1\n      0x60\n      dup2\n      add\n      0x40\n      dup3\n      add\n      calldataload\n      shl(0x20, 0x01)\n      dup2\n      gt\n      iszero\n      tag_92\n      jumpi\n      0x00\n      dup1\n      revert\n    tag_92:\n      dup3\n      add\n      dup4\n      0x20\n      dup3\n      add\n      gt\n      iszero\n      tag_93\n      jumpi\n      0x00\n      dup1\n      revert\n    tag_93:\n      dup1\n      calldataload\n      swap1\n      0x20\n      add\n      swap2\n      dup5\n      0x20\n      dup4\n      mul\n      dup5\n      add\n      gt\n      shl(0x20, 0x01)\n      dup4\n      gt\n      or\n      iszero\n      tag_94\n      jumpi\n      0x00\n      dup1\n      revert\n    tag_94:\n      swap2\n      swap4\n      pop\n      swap2\n      pop\n      sub(shl(0xa0, 0x01), 0x01)\n      dup2\n      calldataload\n      and\n      swap1\n      0x20\n      add\n      calldataload\n      tag_95\n      jump\t// in\n        /* \"swap/UniswapV2Router02.sol\":16812:17662  function swapExactTokensForETHSupportingFeeOnTransferTokens(\r... */\n    tag_12:\n      callvalue\n      dup1\n      iszero\n      tag_96\n      jumpi\n      0x00\n      dup1\n      revert\n    tag_96:\n      pop\n      tag_32\n      0x04\n      dup1\n      calldatasize\n      sub\n      0xa0\n      dup2\n      lt\n      iszero\n      tag_98\n      jumpi\n      0x00\n      dup1\n      revert\n    tag_98:\n      dup2\n      calldataload\n      swap2\n      0x20\n      dup2\n      add\n      calldataload\n      swap2\n      dup2\n      add\n      swap1\n      0x60\n      dup2\n      add\n      0x40\n      dup3\n      add\n      calldataload\n      shl(0x20, 0x01)\n      dup2\n      gt\n      iszero\n      tag_99\n      jumpi\n      0x00\n      dup1\n      revert\n    tag_99:\n      dup3\n      add\n      dup4\n      0x20\n      dup3\n      add\n      gt\n      iszero\n      tag_100\n      jumpi\n      0x00\n      dup1\n      revert\n    tag_100:\n      dup1\n      calldataload\n      swap1\n      0x20\n      add\n      swap2\n      dup5\n      0x20\n      dup4\n      mul\n      dup5\n      add\n      gt\n      shl(0x20, 0x01)\n      dup4\n      gt\n      or\n      iszero\n      tag_101\n      jumpi\n      0x00\n      dup1\n      revert\n    tag_101:\n      swap2\n      swap4\n      pop\n      swap2\n      pop\n      sub(shl(0xa0, 0x01), 0x01)\n      dup2\n      calldataload\n      and\n      swap1\n      0x20\n      add\n      calldataload\n      tag_102\n      jump\t// in\n        /* \"swap/UniswapV2Router02.sol\":10631:11328  function swapExactETHForTokens(uint amountOutMin, address[] calldata path, address to, uint deadline)\r... */\n    tag_13:\n      tag_42\n      0x04\n      dup1\n      calldatasize\n      sub\n      0x80\n      dup2\n      lt\n      iszero\n      tag_104\n      jumpi\n      0x00\n      dup1\n      revert\n    tag_104:\n      dup2\n      calldataload\n      swap2\n      swap1\n      dup2\n      add\n      swap1\n      0x40\n      dup2\n      add\n      0x20\n      dup3\n      add\n      calldataload\n      shl(0x20, 0x01)\n      dup2\n      gt\n      iszero\n      tag_105\n      jumpi\n      0x00\n      dup1\n      revert\n    tag_105:\n      dup3\n      add\n      dup4\n      0x20\n      dup3\n      add\n      gt\n      iszero\n      tag_106\n      jumpi\n      0x00\n      dup1\n      revert\n    tag_106:\n      dup1\n      calldataload\n      swap1\n      0x20\n      add\n      swap2\n      dup5\n      0x20\n      dup4\n      mul\n      dup5\n      add\n      gt\n      shl(0x20, 0x01)\n      dup4\n      gt\n      or\n      iszero\n      tag_107\n      jumpi\n      0x00\n      dup1\n      revert\n    tag_107:\n      swap2\n      swap4\n      pop\n      swap2\n      pop\n      sub(shl(0xa0, 0x01), 0x01)\n      dup2\n      calldataload\n      and\n      swap1\n      0x20\n      add\n      calldataload\n      tag_108\n      jump\t// in\n        /* \"swap/UniswapV2Router02.sol\":18172:18433  function getAmountIn(uint amountOut, uint reserveIn, uint reserveOut)\r... */\n    tag_14:\n      callvalue\n      dup1\n      iszero\n      tag_112\n      jumpi\n      0x00\n      dup1\n      revert\n    tag_112:\n      pop\n      tag_38\n      0x04\n      dup1\n      calldatasize\n      sub\n      0x60\n      dup2\n      lt\n      iszero\n      tag_114\n      jumpi\n      0x00\n      dup1\n      revert\n    tag_114:\n      pop\n      dup1\n      calldataload\n      swap1\n      0x20\n      dup2\n      add\n      calldataload\n      swap1\n      0x40\n      add\n      calldataload\n      tag_115\n      jump\t// in\n        /* \"swap/UniswapV2Router02.sol\":10019:10625  function swapTokensForExactTokens(\r... */\n    tag_15:\n      callvalue\n      dup1\n      iszero\n      tag_116\n      jumpi\n      0x00\n      dup1\n      revert\n    tag_116:\n      pop\n      tag_42\n      0x04\n      dup1\n      calldatasize\n      sub\n      0xa0\n      dup2\n      lt\n      iszero\n      tag_118\n      jumpi\n      0x00\n      dup1\n      revert\n    tag_118:\n      dup2\n      calldataload\n      swap2\n      0x20\n      dup2\n      add\n      calldataload\n      swap2\n      dup2\n      add\n      swap1\n      0x60\n      dup2\n      add\n      0x40\n      dup3\n      add\n      calldataload\n      shl(0x20, 0x01)\n      dup2\n      gt\n      iszero\n      tag_119\n      jumpi\n      0x00\n      dup1\n      revert\n    tag_119:\n      dup3\n      add\n      dup4\n      0x20\n      dup3\n      add\n      gt\n      iszero\n      tag_120\n      jumpi\n      0x00\n      dup1\n      revert\n    tag_120:\n      dup1\n      calldataload\n      swap1\n      0x20\n      add\n      swap2\n      dup5\n      0x20\n      dup4\n      mul\n      dup5\n      add\n      gt\n      shl(0x20, 0x01)\n      dup4\n      gt\n      or\n      iszero\n      tag_121\n      jumpi\n      0x00\n      dup1\n      revert\n    tag_121:\n      swap2\n      swap4\n      pop\n      swap2\n      pop\n      sub(shl(0xa0, 0x01), 0x01)\n      dup2\n      calldataload\n      and\n      swap1\n      0x20\n      add\n      calldataload\n      tag_122\n      jump\t// in\n        /* \"swap/UniswapV2Router02.sol\":496:534  address public immutable override WETH */\n    tag_16:\n      callvalue\n      dup1\n      iszero\n      tag_126\n      jumpi\n      0x00\n      dup1\n      revert\n    tag_126:\n      pop\n      tag_127\n      tag_128\n      jump\t// in\n    tag_127:\n      0x40\n      dup1\n      mload\n      sub(shl(0xa0, 0x01), 0x01)\n      swap1\n      swap3\n      and\n      dup3\n      mstore\n      mload\n      swap1\n      dup2\n      swap1\n      sub\n      0x20\n      add\n      swap1\n      return\n        /* \"swap/UniswapV2Router02.sol\":17706:17894  function quote(uint amountA, uint reserveA, uint reserveB) public pure virtual override returns (uint amountB) {\r... */\n    tag_17:\n      callvalue\n      dup1\n      iszero\n      tag_129\n      jumpi\n      0x00\n      dup1\n      revert\n    tag_129:\n      pop\n      tag_38\n      0x04\n      dup1\n      calldatasize\n      sub\n      0x60\n      dup2\n      lt\n      iszero\n      tag_131\n      jumpi\n      0x00\n      dup1\n      revert\n    tag_131:\n      pop\n      dup1\n      calldataload\n      swap1\n      0x20\n      dup2\n      add\n      calldataload\n      swap1\n      0x40\n      add\n      calldataload\n      tag_132\n      jump\t// in\n        /* \"swap/UniswapV2Router02.sol\":7102:7809  function removeLiquidityETHSupportingFeeOnTransferTokens(\r... */\n    tag_18:\n      callvalue\n      dup1\n      iszero\n      tag_133\n      jumpi\n      0x00\n      dup1\n      revert\n    tag_133:\n      pop\n      tag_38\n      0x04\n      dup1\n      calldatasize\n      sub\n      0xc0\n      dup2\n      lt\n      iszero\n      tag_135\n      jumpi\n      0x00\n      dup1\n      revert\n    tag_135:\n      pop\n      sub(shl(0xa0, 0x01), 0x01)\n      dup2\n      calldataload\n      dup2\n      and\n      swap2\n      0x20\n      dup2\n      add\n      calldataload\n      swap2\n      0x40\n      dup3\n      add\n      calldataload\n      swap2\n      0x60\n      dup2\n      add\n      calldataload\n      swap2\n      0x80\n      dup3\n      add\n      calldataload\n      and\n      swap1\n      0xa0\n      add\n      calldataload\n      tag_136\n      jump\t// in\n        /* \"swap/UniswapV2Router02.sol\":15942:16806  function swapExactETHForTokensSupportingFeeOnTransferTokens(\r... */\n    tag_19:\n      tag_32\n      0x04\n      dup1\n      calldatasize\n      sub\n      0x80\n      dup2\n      lt\n      iszero\n      tag_138\n      jumpi\n      0x00\n      dup1\n      revert\n    tag_138:\n      dup2\n      calldataload\n      swap2\n      swap1\n      dup2\n      add\n      swap1\n      0x40\n      dup2\n      add\n      0x20\n      dup3\n      add\n      calldataload\n      shl(0x20, 0x01)\n      dup2\n      gt\n      iszero\n      tag_139\n      jumpi\n      0x00\n      dup1\n      revert\n    tag_139:\n      dup3\n      add\n      dup4\n      0x20\n      dup3\n      add\n      gt\n      iszero\n      tag_140\n      jumpi\n      0x00\n      dup1\n      revert\n    tag_140:\n      dup1\n      calldataload\n      swap1\n      0x20\n      add\n      swap2\n      dup5\n      0x20\n      dup4\n      mul\n      dup5\n      add\n      gt\n      shl(0x20, 0x01)\n      dup4\n      gt\n      or\n      iszero\n      tag_141\n      jumpi\n      0x00\n      dup1\n      revert\n    tag_141:\n      swap2\n      swap4\n      pop\n      swap2\n      pop\n      sub(shl(0xa0, 0x01), 0x01)\n      dup2\n      calldataload\n      and\n      swap1\n      0x20\n      add\n      calldataload\n      tag_142\n      jump\t// in\n        /* \"swap/UniswapV2Router02.sol\":4121:4986  function removeLiquidity(\r... */\n    tag_20:\n      callvalue\n      dup1\n      iszero\n      tag_143\n      jumpi\n      0x00\n      dup1\n      revert\n    tag_143:\n      pop\n      tag_34\n      0x04\n      dup1\n      calldatasize\n      sub\n      0xe0\n      dup2\n      lt\n      iszero\n      tag_145\n      jumpi\n      0x00\n      dup1\n      revert\n    tag_145:\n      pop\n      sub(shl(0xa0, 0x01), 0x01)\n      dup2\n      calldataload\n      dup2\n      and\n      swap2\n      0x20\n      dup2\n      add\n      calldataload\n      dup3\n      and\n      swap2\n      0x40\n      dup3\n      add\n      calldataload\n      swap2\n      0x60\n      dup2\n      add\n      calldataload\n      swap2\n      0x80\n      dup3\n      add\n      calldataload\n      swap2\n      0xa0\n      dup2\n      add\n      calldataload\n      swap1\n      swap2\n      and\n      swap1\n      0xc0\n      add\n      calldataload\n      tag_146\n      jump\t// in\n        /* \"swap/UniswapV2Router02.sol\":448:489  address public immutable override factory */\n    tag_21:\n      callvalue\n      dup1\n      iszero\n      tag_147\n      jumpi\n      0x00\n      dup1\n      revert\n    tag_147:\n      pop\n      tag_127\n      tag_149\n      jump\t// in\n        /* \"swap/UniswapV2Router02.sol\":18441:18694  function getAmountsOut(uint amountIn, address[] memory path)\r... */\n    tag_22:\n      callvalue\n      dup1\n      iszero\n      tag_150\n      jumpi\n      0x00\n      dup1\n      revert\n    tag_150:\n      pop\n      tag_42\n      0x04\n      dup1\n      calldatasize\n      sub\n      0x40\n      dup2\n      lt\n      iszero\n      tag_152\n      jumpi\n      0x00\n      dup1\n      revert\n    tag_152:\n      dup2\n      calldataload\n      swap2\n      swap1\n      dup2\n      add\n      swap1\n      0x40\n      dup2\n      add\n      0x20\n      dup3\n      add\n      calldataload\n      shl(0x20, 0x01)\n      dup2\n      gt\n      iszero\n      tag_153\n      jumpi\n      0x00\n      dup1\n      revert\n    tag_153:\n      dup3\n      add\n      dup4\n      0x20\n      dup3\n      add\n      gt\n      iszero\n      tag_154\n      jumpi\n      0x00\n      dup1\n      revert\n    tag_154:\n      dup1\n      calldataload\n      swap1\n      0x20\n      add\n      swap2\n      dup5\n      0x20\n      dup4\n      mul\n      dup5\n      add\n      gt\n      shl(0x20, 0x01)\n      dup4\n      gt\n      or\n      iszero\n      tag_155\n      jumpi\n      0x00\n      dup1\n      revert\n    tag_155:\n      swap2\n      swap1\n      dup1\n      dup1\n      0x20\n      mul\n      0x20\n      add\n      mload(0x40)\n      swap1\n      dup2\n      add\n      0x40\n      mstore\n      dup1\n      swap4\n      swap3\n      swap2\n      swap1\n      dup2\n      dup2\n      mstore\n      0x20\n      add\n      dup4\n      dup4\n      0x20\n      mul\n      dup1\n      dup3\n      dup5\n      calldatacopy\n      0x00\n      swap3\n      add\n      swap2\n      swap1\n      swap2\n      mstore\n      pop\n      swap3\n      swap6\n      pop\n      tag_156\n      swap5\n      pop\n      pop\n      pop\n      pop\n      pop\n      jump\t// in\n        /* \"swap/UniswapV2Router02.sol\":6354:7023  function removeLiquidityETHWithPermit(\r... */\n    tag_23:\n      callvalue\n      dup1\n      iszero\n      tag_160\n      jumpi\n      0x00\n      dup1\n      revert\n    tag_160:\n      pop\n      tag_34\n      0x04\n      dup1\n      calldatasize\n      sub\n      0x0140\n      dup2\n      lt\n      iszero\n      tag_162\n      jumpi\n      0x00\n      dup1\n      revert\n    tag_162:\n      pop\n      sub(shl(0xa0, 0x01), 0x01)\n      dup2\n      calldataload\n      dup2\n      and\n      swap2\n      0x20\n      dup2\n      add\n      calldataload\n      swap2\n      0x40\n      dup3\n      add\n      calldataload\n      swap2\n      0x60\n      dup2\n      add\n      calldataload\n      swap2\n      0x80\n      dup3\n      add\n      calldataload\n      and\n      swap1\n      0xa0\n      dup2\n      add\n      calldataload\n      swap1\n      0xc0\n      dup2\n      add\n      calldataload\n      iszero\n      iszero\n      swap1\n      0xff\n      0xe0\n      dup3\n      add\n      calldataload\n      and\n      swap1\n      0x0100\n      dup2\n      add\n      calldataload\n      swap1\n      0x0120\n      add\n      calldataload\n      tag_163\n      jump\t// in\n        /* \"swap/UniswapV2Router02.sol\":2360:3098  function addLiquidity(\r... */\n    tag_24:\n      callvalue\n      dup1\n      iszero\n      tag_164\n      jumpi\n      0x00\n      dup1\n      revert\n    tag_164:\n      pop\n      tag_165\n      0x04\n      dup1\n      calldatasize\n      sub\n      0x0100\n      dup2\n      lt\n      iszero\n      tag_166\n      jumpi\n      0x00\n      dup1\n      revert\n    tag_166:\n      pop\n      sub(shl(0xa0, 0x01), 0x01)\n      dup2\n      calldataload\n      dup2\n      and\n      swap2\n      0x20\n      dup2\n      add\n      calldataload\n      dup3\n      and\n      swap2\n      0x40\n      dup3\n      add\n      calldataload\n      swap2\n      0x60\n      dup2\n      add\n      calldataload\n      swap2\n      0x80\n      dup3\n      add\n      calldataload\n      swap2\n      0xa0\n      dup2\n      add\n      calldataload\n      swap2\n      0xc0\n      dup3\n      add\n      calldataload\n      and\n      swap1\n      0xe0\n      add\n      calldataload\n      tag_167\n      jump\t// in\n    tag_165:\n      0x40\n      dup1\n      mload\n      swap4\n      dup5\n      mstore\n      0x20\n      dup5\n      add\n      swap3\n      swap1\n      swap3\n      mstore\n      dup3\n      dup3\n      add\n      mstore\n      mload\n      swap1\n      dup2\n      swap1\n      sub\n      0x60\n      add\n      swap1\n      return\n        /* \"swap/UniswapV2Router02.sol\":3104:4078  function addLiquidityETH(\r... */\n    tag_25:\n      tag_165\n      0x04\n      dup1\n      calldatasize\n      sub\n      0xc0\n      dup2\n      lt\n      iszero\n      tag_169\n      jumpi\n      0x00\n      dup1\n      revert\n    tag_169:\n      pop\n      sub(shl(0xa0, 0x01), 0x01)\n      dup2\n      calldataload\n      dup2\n      and\n      swap2\n      0x20\n      dup2\n      add\n      calldataload\n      swap2\n      0x40\n      dup3\n      add\n      calldataload\n      swap2\n      0x60\n      dup2\n      add\n      calldataload\n      swap2\n      0x80\n      dup3\n      add\n      calldataload\n      and\n      swap1\n      0xa0\n      add\n      calldataload\n      tag_170\n      jump\t// in\n        /* \"swap/UniswapV2Router02.sol\":13024:13834  function swapETHForExactTokens(uint amountOut, address[] calldata path, address to, uint deadline)\r... */\n    tag_26:\n      tag_42\n      0x04\n      dup1\n      calldatasize\n      sub\n      0x80\n      dup2\n      lt\n      iszero\n      tag_172\n      jumpi\n      0x00\n      dup1\n      revert\n    tag_172:\n      dup2\n      calldataload\n      swap2\n      swap1\n      dup2\n      add\n      swap1\n      0x40\n      dup2\n      add\n      0x20\n      dup3\n      add\n      calldataload\n      shl(0x20, 0x01)\n      dup2\n      gt\n      iszero\n      tag_173\n      jumpi\n      0x00\n      dup1\n      revert\n    tag_173:\n      dup3\n      add\n      dup4\n      0x20\n      dup3\n      add\n      gt\n      iszero\n      tag_174\n      jumpi\n      0x00\n      dup1\n      revert\n    tag_174:\n      dup1\n      calldataload\n      swap1\n      0x20\n      add\n      swap2\n      dup5\n      0x20\n      dup4\n      mul\n      dup5\n      add\n      gt\n      shl(0x20, 0x01)\n      dup4\n      gt\n      or\n      iszero\n      tag_175\n      jumpi\n      0x00\n      dup1\n      revert\n    tag_175:\n      swap2\n      swap4\n      pop\n      swap2\n      pop\n      sub(shl(0xa0, 0x01), 0x01)\n      dup2\n      calldataload\n      and\n      swap1\n      0x20\n      add\n      calldataload\n      tag_176\n      jump\t// in\n        /* \"swap/UniswapV2Router02.sol\":4992:5665  function removeLiquidityETH(\r... */\n    tag_36:\n        /* \"swap/UniswapV2Router02.sol\":5229:5245  uint amountToken */\n      0x00\n        /* \"swap/UniswapV2Router02.sol\":5247:5261  uint amountETH */\n      dup1\n        /* \"swap/UniswapV2Router02.sol\":5210:5218  deadline */\n      dup3\n        /* \"swap/UniswapV2Router02.sol\":605:620  block.timestamp */\n      timestamp\n        /* \"swap/UniswapV2Router02.sol\":593:601  deadline */\n      dup2\n        /* \"swap/UniswapV2Router02.sol\":593:620  deadline >= block.timestamp */\n      lt\n      iszero\n        /* \"swap/UniswapV2Router02.sol\":585:649  require(deadline >= block.timestamp, 'UniswapV2Router: EXPIRED') */\n      tag_181\n      jumpi\n      0x40\n      dup1\n      mload\n      shl(0xe5, 0x461bcd)\n      dup2\n      mstore\n      0x20\n      0x04\n      dup3\n      add\n      mstore\n      0x18\n      0x24\n      dup3\n      add\n      mstore\n      0x00\n      dup1\n      mload\n      0x20\n      data_ee5734acb032ffb1bbaf889d52ccf9fbd1ce0f1ae12bee2c46068d51b910e2c5\n      dup4\n      codecopy\n      dup2\n      mload\n      swap2\n      mstore\n      0x44\n      dup3\n      add\n      mstore\n      swap1\n      mload\n      swap1\n      dup2\n      swap1\n      sub\n      0x64\n      add\n      swap1\n      revert\n    tag_181:\n        /* \"swap/UniswapV2Router02.sol\":5301:5497  removeLiquidity(\r... */\n      tag_183\n        /* \"swap/UniswapV2Router02.sol\":5331:5336  token */\n      dup10\n        /* \"swap/UniswapV2Router02.sol\":5351:5355  WETH */\n      immutable(\"0x939eb54753ed0cc7e2272bfb34cbe098308c93936ed54d79078f76ade0b2e789\")\n        /* \"swap/UniswapV2Router02.sol\":5370:5379  liquidity */\n      dup11\n        /* \"swap/UniswapV2Router02.sol\":5394:5408  amountTokenMin */\n      dup11\n        /* \"swap/UniswapV2Router02.sol\":5423:5435  amountETHMin */\n      dup11\n        /* \"swap/UniswapV2Router02.sol\":5458:5462  this */\n      address\n        /* \"swap/UniswapV2Router02.sol\":5478:5486  deadline */\n      dup11\n        /* \"swap/UniswapV2Router02.sol\":5301:5316  removeLiquidity */\n      tag_146\n        /* \"swap/UniswapV2Router02.sol\":5301:5497  removeLiquidity(\r... */\n      jump\t// in\n    tag_183:\n        /* \"swap/UniswapV2Router02.sol\":5274:5497  (amountToken, amountETH) = removeLiquidity(\r... */\n      swap1\n      swap4\n      pop\n      swap2\n      pop\n        /* \"swap/UniswapV2Router02.sol\":5508:5559  TransferHelper.safeTransfer(token, to, amountToken) */\n      tag_184\n        /* \"swap/UniswapV2Router02.sol\":5536:5541  token */\n      dup10\n        /* \"swap/UniswapV2Router02.sol\":5543:5545  to */\n      dup7\n        /* \"swap/UniswapV2Router02.sol\":5274:5497  (amountToken, amountETH) = removeLiquidity(\r... */\n      dup6\n        /* \"swap/UniswapV2Router02.sol\":5508:5535  TransferHelper.safeTransfer */\n      tag_185\n        /* \"swap/UniswapV2Router02.sol\":5508:5559  TransferHelper.safeTransfer(token, to, amountToken) */\n      jump\t// in\n    tag_184:\n        /* \"swap/UniswapV2Router02.sol\":5576:5580  WETH */\n      immutable(\"0x939eb54753ed0cc7e2272bfb34cbe098308c93936ed54d79078f76ade0b2e789\")\n      sub(shl(0xa0, 0x01), 0x01)\n        /* \"swap/UniswapV2Router02.sol\":5570:5590  IWETH(WETH).withdraw */\n      and\n      0x2e1a7d4d\n        /* \"swap/UniswapV2Router02.sol\":5591:5600  amountETH */\n      dup4\n        /* \"swap/UniswapV2Router02.sol\":5570:5601  IWETH(WETH).withdraw(amountETH) */\n      mload(0x40)\n      dup3\n      0xffffffff\n      and\n      0xe0\n      shl\n      dup2\n      mstore\n      0x04\n      add\n      dup1\n      dup3\n      dup2\n      mstore\n      0x20\n      add\n      swap2\n      pop\n      pop\n      0x00\n      mload(0x40)\n      dup1\n      dup4\n      sub\n      dup2\n      0x00\n      dup8\n      dup1\n      extcodesize\n      iszero\n      dup1\n      iszero\n      tag_186\n      jumpi\n      0x00\n      dup1\n      revert\n    tag_186:\n      pop\n      gas\n      call\n      iszero\n      dup1\n      iszero\n      tag_188\n      jumpi\n      returndatasize\n      0x00\n      dup1\n      returndatacopy\n      revert(0x00, returndatasize)\n    tag_188:\n      pop\n      pop\n      pop\n      pop\n        /* \"swap/UniswapV2Router02.sol\":5612:5657  TransferHelper.safeTransferETH(to, amountETH) */\n      tag_189\n        /* \"swap/UniswapV2Router02.sol\":5643:5645  to */\n      dup6\n        /* \"swap/UniswapV2Router02.sol\":5647:5656  amountETH */\n      dup4\n        /* \"swap/UniswapV2Router02.sol\":5612:5642  TransferHelper.safeTransferETH */\n      tag_190\n        /* \"swap/UniswapV2Router02.sol\":5612:5657  TransferHelper.safeTransferETH(to, amountETH) */\n      jump\t// in\n    tag_189:\n        /* \"swap/UniswapV2Router02.sol\":4992:5665  function removeLiquidityETH(\r... */\n      pop\n      swap7\n      pop\n      swap7\n      swap5\n      pop\n      pop\n      pop\n      pop\n      pop\n      jump\t// out\n        /* \"swap/UniswapV2Router02.sol\":17902:18164  function getAmountOut(uint amountIn, uint reserveIn, uint reserveOut)\r... */\n    tag_40:\n        /* \"swap/UniswapV2Router02.sol\":18055:18069  uint amountOut */\n      0x00\n        /* \"swap/UniswapV2Router02.sol\":18094:18156  UniswapV2Library.getAmountOut(amountIn, reserveIn, reserveOut) */\n      tag_192\n        /* \"swap/UniswapV2Router02.sol\":18124:18132  amountIn */\n      dup5\n        /* \"swap/UniswapV2Router02.sol\":18134:18143  reserveIn */\n      dup5\n        /* \"swap/UniswapV2Router02.sol\":18145:18155  reserveOut */\n      dup5\n        /* \"swap/UniswapV2Router02.sol\":18094:18123  UniswapV2Library.getAmountOut */\n      tag_193\n        /* \"swap/UniswapV2Router02.sol\":18094:18156  UniswapV2Library.getAmountOut(amountIn, reserveIn, reserveOut) */\n      jump\t// in\n    tag_192:\n        /* \"swap/UniswapV2Router02.sol\":18087:18156  return UniswapV2Library.getAmountOut(amountIn, reserveIn, reserveOut) */\n      swap5\n        /* \"swap/UniswapV2Router02.sol\":17902:18164  function getAmountOut(uint amountIn, uint reserveIn, uint reserveOut)\r... */\n      swap4\n      pop\n      pop\n      pop\n      pop\n      jump\t// out\n        /* \"swap/UniswapV2Router02.sol\":12168:13018  function swapExactTokensForETH(uint amountIn, uint amountOutMin, address[] calldata path, address to, uint deadline)\r... */\n    tag_47:\n        /* \"swap/UniswapV2Router02.sol\":12382:12403  uint[] memory amounts */\n      0x60\n        /* \"swap/UniswapV2Router02.sol\":12354:12362  deadline */\n      dup2\n        /* \"swap/UniswapV2Router02.sol\":605:620  block.timestamp */\n      timestamp\n        /* \"swap/UniswapV2Router02.sol\":593:601  deadline */\n      dup2\n        /* \"swap/UniswapV2Router02.sol\":593:620  deadline >= block.timestamp */\n      lt\n      iszero\n        /* \"swap/UniswapV2Router02.sol\":585:649  require(deadline >= block.timestamp, 'UniswapV2Router: EXPIRED') */\n      tag_195\n      jumpi\n      0x40\n      dup1\n      mload\n      shl(0xe5, 0x461bcd)\n      dup2\n      mstore\n      0x20\n      0x04\n      dup3\n      add\n      mstore\n      0x18\n      0x24\n      dup3\n      add\n      mstore\n      0x00\n      dup1\n      mload\n      0x20\n      data_ee5734acb032ffb1bbaf889d52ccf9fbd1ce0f1ae12bee2c46068d51b910e2c5\n      dup4\n      codecopy\n      dup2\n      mload\n      swap2\n      mstore\n      0x44\n      dup3\n      add\n      mstore\n      swap1\n      mload\n      swap1\n      dup2\n      swap1\n      sub\n      0x64\n      add\n      swap1\n      revert\n    tag_195:\n      sub(shl(0xa0, 0x01), 0x01)\n        /* \"swap/UniswapV2Router02.sol\":12454:12458  WETH */\n      immutable(\"0x939eb54753ed0cc7e2272bfb34cbe098308c93936ed54d79078f76ade0b2e789\")\n        /* \"swap/UniswapV2Router02.sol\":12429:12458  path[path.length - 1] == WETH */\n      and\n        /* \"swap/UniswapV2Router02.sol\":12429:12433  path */\n      dup7\n      dup7\n      not(0x00)\n        /* \"swap/UniswapV2Router02.sol\":12434:12449  path.length - 1 */\n      dup2\n      add\n        /* \"swap/UniswapV2Router02.sol\":12429:12450  path[path.length - 1] */\n      dup2\n      dup2\n      lt\n      tag_197\n      jumpi\n      invalid\n    tag_197:\n      swap1\n      pop\n      0x20\n      mul\n      add\n      calldataload\n      sub(shl(0xa0, 0x01), 0x01)\n      and\n      sub(shl(0xa0, 0x01), 0x01)\n        /* \"swap/UniswapV2Router02.sol\":12429:12458  path[path.length - 1] == WETH */\n      and\n      eq\n        /* \"swap/UniswapV2Router02.sol\":12421:12492  require(path[path.length - 1] == WETH, 'UniswapV2Router: INVALID_PATH') */\n      tag_198\n      jumpi\n      0x40\n      dup1\n      mload\n      shl(0xe5, 0x461bcd)\n      dup2\n      mstore\n      0x20\n      0x04\n      dup3\n      add\n      mstore\n      0x1d\n      0x24\n      dup3\n      add\n      mstore\n      0x00\n      dup1\n      mload\n      0x20\n      data_c80e789ddaeb930b746bbbcb3afe8331d926679fd96f65d8c7468b735c0a14f2\n      dup4\n      codecopy\n      dup2\n      mload\n      swap2\n      mstore\n      0x44\n      dup3\n      add\n      mstore\n      swap1\n      mload\n      swap1\n      dup2\n      swap1\n      sub\n      0x64\n      add\n      swap1\n      revert\n    tag_198:\n        /* \"swap/UniswapV2Router02.sol\":12513:12568  UniswapV2Library.getAmountsOut(factory, amountIn, path) */\n      tag_199\n        /* \"swap/UniswapV2Router02.sol\":12544:12551  factory */\n      immutable(\"0x277ab82e5a4641341820a4a2933a62c1de997e42e92548657ae21b3728d580fe\")\n        /* \"swap/UniswapV2Router02.sol\":12553:12561  amountIn */\n      dup10\n        /* \"swap/UniswapV2Router02.sol\":12563:12567  path */\n      dup9\n      dup9\n        /* \"swap/UniswapV2Router02.sol\":12513:12568  UniswapV2Library.getAmountsOut(factory, amountIn, path) */\n      dup1\n      dup1\n      0x20\n      mul\n      0x20\n      add\n      mload(0x40)\n      swap1\n      dup2\n      add\n      0x40\n      mstore\n      dup1\n      swap4\n      swap3\n      swap2\n      swap1\n      dup2\n      dup2\n      mstore\n      0x20\n      add\n      dup4\n      dup4\n      0x20\n      mul\n      dup1\n      dup3\n      dup5\n      calldatacopy\n      0x00\n      swap3\n      add\n      swap2\n      swap1\n      swap2\n      mstore\n      pop\n        /* \"swap/UniswapV2Router02.sol\":12513:12543  UniswapV2Library.getAmountsOut */\n      tag_200\n      swap3\n      pop\n      pop\n      pop\n        /* \"swap/UniswapV2Router02.sol\":12513:12568  UniswapV2Library.getAmountsOut(factory, amountIn, path) */\n      jump\t// in\n    tag_199:\n        /* \"swap/UniswapV2Router02.sol\":12503:12568  amounts = UniswapV2Library.getAmountsOut(factory, amountIn, path) */\n      swap2\n      pop\n        /* \"swap/UniswapV2Router02.sol\":12618:12630  amountOutMin */\n      dup7\n        /* \"swap/UniswapV2Router02.sol\":12587:12594  amounts */\n      dup3\n        /* \"swap/UniswapV2Router02.sol\":12612:12613  1 */\n      0x01\n        /* \"swap/UniswapV2Router02.sol\":12595:12602  amounts */\n      dup5\n        /* \"swap/UniswapV2Router02.sol\":12595:12609  amounts.length */\n      mload\n        /* \"swap/UniswapV2Router02.sol\":12595:12613  amounts.length - 1 */\n      sub\n        /* \"swap/UniswapV2Router02.sol\":12587:12614  amounts[amounts.length - 1] */\n      dup2\n      mload\n      dup2\n      lt\n      tag_201\n      jumpi\n      invalid\n    tag_201:\n      0x20\n      mul\n      0x20\n      add\n      add\n      mload\n        /* \"swap/UniswapV2Router02.sol\":12587:12630  amounts[amounts.length - 1] >= amountOutMin */\n      lt\n      iszero\n        /* \"swap/UniswapV2Router02.sol\":12579:12678  require(amounts[amounts.length - 1] >= amountOutMin, 'UniswapV2Router: INSUFFICIENT_OUTPUT_AMOUNT') */\n      tag_202\n      jumpi\n      mload(0x40)\n      shl(0xe5, 0x461bcd)\n      dup2\n      mstore\n      0x04\n      add\n      dup1\n      dup1\n      0x20\n      add\n      dup3\n      dup2\n      sub\n      dup3\n      mstore\n      0x2b\n      dup2\n      mstore\n      0x20\n      add\n      dup1\n      data_d4ea67bea551891ab36be726b8e631181246034dffcfd5c0bbfad1e9d1729432\n      0x2b\n      swap2\n      codecopy\n      0x40\n      add\n      swap2\n      pop\n      pop\n      mload(0x40)\n      dup1\n      swap2\n      sub\n      swap1\n      revert\n    tag_202:\n        /* \"swap/UniswapV2Router02.sol\":12689:12830  TransferHelper.safeTransferFrom(\r... */\n      tag_203\n        /* \"swap/UniswapV2Router02.sol\":12735:12739  path */\n      dup7\n      dup7\n        /* \"swap/UniswapV2Router02.sol\":12740:12741  0 */\n      0x00\n        /* \"swap/UniswapV2Router02.sol\":12735:12742  path[0] */\n      dup2\n      dup2\n      lt\n      tag_204\n      jumpi\n      invalid\n    tag_204:\n      swap1\n      pop\n      0x20\n      mul\n      add\n      calldataload\n      sub(shl(0xa0, 0x01), 0x01)\n      and\n        /* \"swap/UniswapV2Router02.sol\":12744:12754  msg.sender */\n      caller\n        /* \"swap/UniswapV2Router02.sol\":12756:12807  UniswapV2Library.pairFor(factory, path[0], path[1]) */\n      tag_205\n        /* \"swap/UniswapV2Router02.sol\":12781:12788  factory */\n      immutable(\"0x277ab82e5a4641341820a4a2933a62c1de997e42e92548657ae21b3728d580fe\")\n        /* \"swap/UniswapV2Router02.sol\":12790:12794  path */\n      dup11\n      dup11\n        /* \"swap/UniswapV2Router02.sol\":12795:12796  0 */\n      0x00\n        /* \"swap/UniswapV2Router02.sol\":12790:12797  path[0] */\n      dup2\n      dup2\n      lt\n      tag_206\n      jumpi\n      invalid\n    tag_206:\n      swap1\n      pop\n      0x20\n      mul\n      add\n      calldataload\n      sub(shl(0xa0, 0x01), 0x01)\n      and\n        /* \"swap/UniswapV2Router02.sol\":12799:12803  path */\n      dup12\n      dup12\n        /* \"swap/UniswapV2Router02.sol\":12804:12805  1 */\n      0x01\n        /* \"swap/UniswapV2Router02.sol\":12799:12806  path[1] */\n      dup2\n      dup2\n      lt\n      tag_207\n      jumpi\n      invalid\n    tag_207:\n      swap1\n      pop\n      0x20\n      mul\n      add\n      calldataload\n      sub(shl(0xa0, 0x01), 0x01)\n      and\n        /* \"swap/UniswapV2Router02.sol\":12756:12780  UniswapV2Library.pairFor */\n      tag_208\n        /* \"swap/UniswapV2Router02.sol\":12756:12807  UniswapV2Library.pairFor(factory, path[0], path[1]) */\n      jump\t// in\n    tag_205:\n        /* \"swap/UniswapV2Router02.sol\":12809:12816  amounts */\n      dup6\n        /* \"swap/UniswapV2Router02.sol\":12817:12818  0 */\n      0x00\n        /* \"swap/UniswapV2Router02.sol\":12809:12819  amounts[0] */\n      dup2\n      mload\n      dup2\n      lt\n      tag_209\n      jumpi\n      invalid\n    tag_209:\n      0x20\n      mul\n      0x20\n      add\n      add\n      mload\n        /* \"swap/UniswapV2Router02.sol\":12689:12720  TransferHelper.safeTransferFrom */\n      tag_210\n        /* \"swap/UniswapV2Router02.sol\":12689:12830  TransferHelper.safeTransferFrom(\r... */\n      jump\t// in\n    tag_203:\n        /* \"swap/UniswapV2Router02.sol\":12841:12876  _swap(amounts, path, address(this)) */\n      tag_211\n        /* \"swap/UniswapV2Router02.sol\":12847:12854  amounts */\n      dup3\n        /* \"swap/UniswapV2Router02.sol\":12856:12860  path */\n      dup8\n      dup8\n        /* \"swap/UniswapV2Router02.sol\":12841:12876  _swap(amounts, path, address(this)) */\n      dup1\n      dup1\n      0x20\n      mul\n      0x20\n      add\n      mload(0x40)\n      swap1\n      dup2\n      add\n      0x40\n      mstore\n      dup1\n      swap4\n      swap3\n      swap2\n      swap1\n      dup2\n      dup2\n      mstore\n      0x20\n      add\n      dup4\n      dup4\n      0x20\n      mul\n      dup1\n      dup3\n      dup5\n      calldatacopy\n      0x00\n      swap3\n      add\n      swap2\n      swap1\n      swap2\n      mstore\n      pop\n        /* \"swap/UniswapV2Router02.sol\":12870:12874  this */\n      address\n      swap3\n      pop\n        /* \"swap/UniswapV2Router02.sol\":12841:12846  _swap */\n      tag_212\n      swap2\n      pop\n      pop\n        /* \"swap/UniswapV2Router02.sol\":12841:12876  _swap(amounts, path, address(this)) */\n      jump\t// in\n    tag_211:\n        /* \"swap/UniswapV2Router02.sol\":12893:12897  WETH */\n      immutable(\"0x939eb54753ed0cc7e2272bfb34cbe098308c93936ed54d79078f76ade0b2e789\")\n      sub(shl(0xa0, 0x01), 0x01)\n        /* \"swap/UniswapV2Router02.sol\":12887:12907  IWETH(WETH).withdraw */\n      and\n      0x2e1a7d4d\n        /* \"swap/UniswapV2Router02.sol\":12908:12915  amounts */\n      dup4\n        /* \"swap/UniswapV2Router02.sol\":12933:12934  1 */\n      0x01\n        /* \"swap/UniswapV2Router02.sol\":12916:12923  amounts */\n      dup6\n        /* \"swap/UniswapV2Router02.sol\":12916:12930  amounts.length */\n      mload\n        /* \"swap/UniswapV2Router02.sol\":12916:12934  amounts.length - 1 */\n      sub\n        /* \"swap/UniswapV2Router02.sol\":12908:12935  amounts[amounts.length - 1] */\n      dup2\n      mload\n      dup2\n      lt\n      tag_213\n      jumpi\n      invalid\n    tag_213:\n      0x20\n      mul\n      0x20\n      add\n      add\n      mload\n        /* \"swap/UniswapV2Router02.sol\":12887:12936  IWETH(WETH).withdraw(amounts[amounts.length - 1]) */\n      mload(0x40)\n      dup3\n      0xffffffff\n      and\n      0xe0\n      shl\n      dup2\n      mstore\n      0x04\n      add\n      dup1\n      dup3\n      dup2\n      mstore\n      0x20\n      add\n      swap2\n      pop\n      pop\n      0x00\n      mload(0x40)\n      dup1\n      dup4\n      sub\n      dup2\n      0x00\n      dup8\n      dup1\n      extcodesize\n      iszero\n      dup1\n      iszero\n      tag_214\n      jumpi\n      0x00\n      dup1\n      revert\n    tag_214:\n      pop\n      gas\n      call\n      iszero\n      dup1\n      iszero\n      tag_216\n      jumpi\n      returndatasize\n      0x00\n      dup1\n      returndatacopy\n      revert(0x00, returndatasize)\n    tag_216:\n      pop\n      pop\n      pop\n      pop\n        /* \"swap/UniswapV2Router02.sol\":12947:13010  TransferHelper.safeTransferETH(to, amounts[amounts.length - 1]) */\n      tag_217\n        /* \"swap/UniswapV2Router02.sol\":12978:12980  to */\n      dup5\n        /* \"swap/UniswapV2Router02.sol\":12982:12989  amounts */\n      dup4\n        /* \"swap/UniswapV2Router02.sol\":13007:13008  1 */\n      0x01\n        /* \"swap/UniswapV2Router02.sol\":12990:12997  amounts */\n      dup6\n        /* \"swap/UniswapV2Router02.sol\":12990:13004  amounts.length */\n      mload\n        /* \"swap/UniswapV2Router02.sol\":12990:13008  amounts.length - 1 */\n      sub\n        /* \"swap/UniswapV2Router02.sol\":12982:13009  amounts[amounts.length - 1] */\n      dup2\n      mload\n      dup2\n      lt\n      tag_218\n      jumpi\n      invalid\n    tag_218:\n      0x20\n      mul\n      0x20\n      add\n      add\n      mload\n        /* \"swap/UniswapV2Router02.sol\":12947:12977  TransferHelper.safeTransferETH */\n      tag_190\n        /* \"swap/UniswapV2Router02.sol\":12947:13010  TransferHelper.safeTransferETH(to, amounts[amounts.length - 1]) */\n      jump\t// in\n    tag_217:\n        /* \"swap/UniswapV2Router02.sol\":12168:13018  function swapExactTokensForETH(uint amountIn, uint amountOutMin, address[] calldata path, address to, uint deadline)\r... */\n      pop\n      swap7\n      swap6\n      pop\n      pop\n      pop\n      pop\n      pop\n      pop\n      jump\t// out\n        /* \"swap/UniswapV2Router02.sol\":18702:18955  function getAmountsIn(uint amountOut, address[] memory path)\r... */\n    tag_57:\n        /* \"swap/UniswapV2Router02.sol\":18846:18867  uint[] memory amounts */\n      0x60\n        /* \"swap/UniswapV2Router02.sol\":18892:18947  UniswapV2Library.getAmountsIn(factory, amountOut, path) */\n      tag_220\n        /* \"swap/UniswapV2Router02.sol\":18922:18929  factory */\n      immutable(\"0x277ab82e5a4641341820a4a2933a62c1de997e42e92548657ae21b3728d580fe\")\n        /* \"swap/UniswapV2Router02.sol\":18931:18940  amountOut */\n      dup5\n        /* \"swap/UniswapV2Router02.sol\":18942:18946  path */\n      dup5\n        /* \"swap/UniswapV2Router02.sol\":18892:18921  UniswapV2Library.getAmountsIn */\n      tag_221\n        /* \"swap/UniswapV2Router02.sol\":18892:18947  UniswapV2Library.getAmountsIn(factory, amountOut, path) */\n      jump\t// in\n    tag_220:\n        /* \"swap/UniswapV2Router02.sol\":18885:18947  return UniswapV2Library.getAmountsIn(factory, amountOut, path) */\n      swap1\n      pop\n        /* \"swap/UniswapV2Router02.sol\":18702:18955  function getAmountsIn(uint amountOut, address[] memory path)\r... */\n    tag_219:\n      swap3\n      swap2\n      pop\n      pop\n      jump\t// out\n        /* \"swap/UniswapV2Router02.sol\":5671:6348  function removeLiquidityWithPermit(\r... */\n    tag_64:\n        /* \"swap/UniswapV2Router02.sol\":5977:5989  uint amountA */\n      0x00\n        /* \"swap/UniswapV2Router02.sol\":5991:6003  uint amountB */\n      dup1\n        /* \"swap/UniswapV2Router02.sol\":6016:6028  address pair */\n      0x00\n        /* \"swap/UniswapV2Router02.sol\":6031:6080  UniswapV2Library.pairFor(factory, tokenA, tokenB) */\n      tag_223\n        /* \"swap/UniswapV2Router02.sol\":6056:6063  factory */\n      immutable(\"0x277ab82e5a4641341820a4a2933a62c1de997e42e92548657ae21b3728d580fe\")\n        /* \"swap/UniswapV2Router02.sol\":6065:6071  tokenA */\n      dup16\n        /* \"swap/UniswapV2Router02.sol\":6073:6079  tokenB */\n      dup16\n        /* \"swap/UniswapV2Router02.sol\":6031:6055  UniswapV2Library.pairFor */\n      tag_208\n        /* \"swap/UniswapV2Router02.sol\":6031:6080  UniswapV2Library.pairFor(factory, tokenA, tokenB) */\n      jump\t// in\n    tag_223:\n        /* \"swap/UniswapV2Router02.sol\":6016:6080  address pair = UniswapV2Library.pairFor(factory, tokenA, tokenB) */\n      swap1\n      pop\n        /* \"swap/UniswapV2Router02.sol\":6091:6101  uint value */\n      0x00\n        /* \"swap/UniswapV2Router02.sol\":6104:6114  approveMax */\n      dup8\n        /* \"swap/UniswapV2Router02.sol\":6104:6137  approveMax ? uint(-1) : liquidity */\n      tag_224\n      jumpi\n        /* \"swap/UniswapV2Router02.sol\":6128:6137  liquidity */\n      dup13\n        /* \"swap/UniswapV2Router02.sol\":6104:6137  approveMax ? uint(-1) : liquidity */\n      jump(tag_225)\n    tag_224:\n      not(0x00)\n    tag_225:\n        /* \"swap/UniswapV2Router02.sol\":6148:6228  IUniswapV2Pair(pair).permit(msg.sender, address(this), value, deadline, v, r, s) */\n      0x40\n      dup1\n      mload\n      shl(0xe0, 0xd505accf)\n      dup2\n      mstore\n        /* \"swap/UniswapV2Router02.sol\":6176:6186  msg.sender */\n      caller\n        /* \"swap/UniswapV2Router02.sol\":6148:6228  IUniswapV2Pair(pair).permit(msg.sender, address(this), value, deadline, v, r, s) */\n      0x04\n      dup3\n      add\n      mstore\n        /* \"swap/UniswapV2Router02.sol\":6196:6200  this */\n      address\n        /* \"swap/UniswapV2Router02.sol\":6148:6228  IUniswapV2Pair(pair).permit(msg.sender, address(this), value, deadline, v, r, s) */\n      0x24\n      dup3\n      add\n      mstore\n      0x44\n      dup2\n      add\n      dup4\n      swap1\n      mstore\n      0x64\n      dup2\n      add\n      dup13\n      swap1\n      mstore\n      0xff\n      dup11\n      and\n      0x84\n      dup3\n      add\n      mstore\n      0xa4\n      dup2\n      add\n      dup10\n      swap1\n      mstore\n      0xc4\n      dup2\n      add\n      dup9\n      swap1\n      mstore\n      swap1\n      mload\n        /* \"swap/UniswapV2Router02.sol\":6091:6137  uint value = approveMax ? uint(-1) : liquidity */\n      swap2\n      swap3\n      pop\n      sub(shl(0xa0, 0x01), 0x01)\n        /* \"swap/UniswapV2Router02.sol\":6148:6175  IUniswapV2Pair(pair).permit */\n      dup5\n      and\n      swap2\n      0xd505accf\n      swap2\n        /* \"swap/UniswapV2Router02.sol\":6148:6228  IUniswapV2Pair(pair).permit(msg.sender, address(this), value, deadline, v, r, s) */\n      0xe4\n      dup1\n      dup3\n      add\n      swap3\n      0x00\n      swap3\n      swap1\n      swap2\n      swap1\n      dup3\n      swap1\n      sub\n      add\n      dup2\n      dup4\n        /* \"swap/UniswapV2Router02.sol\":6148:6175  IUniswapV2Pair(pair).permit */\n      dup8\n        /* \"swap/UniswapV2Router02.sol\":6148:6228  IUniswapV2Pair(pair).permit(msg.sender, address(this), value, deadline, v, r, s) */\n      dup1\n      extcodesize\n      iszero\n      dup1\n      iszero\n      tag_226\n      jumpi\n      0x00\n      dup1\n      revert\n    tag_226:\n      pop\n      gas\n      call\n      iszero\n      dup1\n      iszero\n      tag_228\n      jumpi\n      returndatasize\n      0x00\n      dup1\n      returndatacopy\n      revert(0x00, returndatasize)\n    tag_228:\n      pop\n      pop\n      pop\n      pop\n        /* \"swap/UniswapV2Router02.sol\":6260:6340  removeLiquidity(tokenA, tokenB, liquidity, amountAMin, amountBMin, to, deadline) */\n      tag_229\n        /* \"swap/UniswapV2Router02.sol\":6276:6282  tokenA */\n      dup16\n        /* \"swap/UniswapV2Router02.sol\":6284:6290  tokenB */\n      dup16\n        /* \"swap/UniswapV2Router02.sol\":6292:6301  liquidity */\n      dup16\n        /* \"swap/UniswapV2Router02.sol\":6303:6313  amountAMin */\n      dup16\n        /* \"swap/UniswapV2Router02.sol\":6315:6325  amountBMin */\n      dup16\n        /* \"swap/UniswapV2Router02.sol\":6327:6329  to */\n      dup16\n        /* \"swap/UniswapV2Router02.sol\":6331:6339  deadline */\n      dup16\n        /* \"swap/UniswapV2Router02.sol\":6260:6275  removeLiquidity */\n      tag_146\n        /* \"swap/UniswapV2Router02.sol\":6260:6340  removeLiquidity(tokenA, tokenB, liquidity, amountAMin, amountBMin, to, deadline) */\n      jump\t// in\n    tag_229:\n        /* \"swap/UniswapV2Router02.sol\":6239:6340  (amountA, amountB) = removeLiquidity(tokenA, tokenB, liquidity, amountAMin, amountBMin, to, deadline) */\n      dup1\n      swap5\n      pop\n      dup2\n      swap6\n      pop\n      pop\n      pop\n        /* \"swap/UniswapV2Router02.sol\":5671:6348  function removeLiquidityWithPermit(\r... */\n      pop\n      pop\n      swap12\n      pop\n      swap12\n      swap10\n      pop\n      pop\n      pop\n      pop\n      pop\n      pop\n      pop\n      pop\n      pop\n      pop\n      jump\t// out\n        /* \"swap/UniswapV2Router02.sol\":9385:10013  function swapExactTokensForTokens(\r... */\n    tag_71:\n        /* \"swap/UniswapV2Router02.sol\":9609:9630  uint[] memory amounts */\n      0x60\n        /* \"swap/UniswapV2Router02.sol\":9590:9598  deadline */\n      dup2\n        /* \"swap/UniswapV2Router02.sol\":605:620  block.timestamp */\n      timestamp\n        /* \"swap/UniswapV2Router02.sol\":593:601  deadline */\n      dup2\n        /* \"swap/UniswapV2Router02.sol\":593:620  deadline >= block.timestamp */\n      lt\n      iszero\n        /* \"swap/UniswapV2Router02.sol\":585:649  require(deadline >= block.timestamp, 'UniswapV2Router: EXPIRED') */\n      tag_231\n      jumpi\n      0x40\n      dup1\n      mload\n      shl(0xe5, 0x461bcd)\n      dup2\n      mstore\n      0x20\n      0x04\n      dup3\n      add\n      mstore\n      0x18\n      0x24\n      dup3\n      add\n      mstore\n      0x00\n      dup1\n      mload\n      0x20\n      data_ee5734acb032ffb1bbaf889d52ccf9fbd1ce0f1ae12bee2c46068d51b910e2c5\n      dup4\n      codecopy\n      dup2\n      mload\n      swap2\n      mstore\n      0x44\n      dup3\n      add\n      mstore\n      swap1\n      mload\n      swap1\n      dup2\n      swap1\n      sub\n      0x64\n      add\n      swap1\n      revert\n    tag_231:\n        /* \"swap/UniswapV2Router02.sol\":9653:9708  UniswapV2Library.getAmountsOut(factory, amountIn, path) */\n      tag_233\n        /* \"swap/UniswapV2Router02.sol\":9684:9691  factory */\n      immutable(\"0x277ab82e5a4641341820a4a2933a62c1de997e42e92548657ae21b3728d580fe\")\n        /* \"swap/UniswapV2Router02.sol\":9693:9701  amountIn */\n      dup10\n        /* \"swap/UniswapV2Router02.sol\":9703:9707  path */\n      dup9\n      dup9\n        /* \"swap/UniswapV2Router02.sol\":9653:9708  UniswapV2Library.getAmountsOut(factory, amountIn, path) */\n      dup1\n      dup1\n      0x20\n      mul\n      0x20\n      add\n      mload(0x40)\n      swap1\n      dup2\n      add\n      0x40\n      mstore\n      dup1\n      swap4\n      swap3\n      swap2\n      swap1\n      dup2\n      dup2\n      mstore\n      0x20\n      add\n      dup4\n      dup4\n      0x20\n      mul\n      dup1\n      dup3\n      dup5\n      calldatacopy\n      0x00\n      swap3\n      add\n      swap2\n      swap1\n      swap2\n      mstore\n      pop\n        /* \"swap/UniswapV2Router02.sol\":9653:9683  UniswapV2Library.getAmountsOut */\n      tag_200\n      swap3\n      pop\n      pop\n      pop\n        /* \"swap/UniswapV2Router02.sol\":9653:9708  UniswapV2Library.getAmountsOut(factory, amountIn, path) */\n      jump\t// in\n    tag_233:\n        /* \"swap/UniswapV2Router02.sol\":9643:9708  amounts = UniswapV2Library.getAmountsOut(factory, amountIn, path) */\n      swap2\n      pop\n        /* \"swap/UniswapV2Router02.sol\":9758:9770  amountOutMin */\n      dup7\n        /* \"swap/UniswapV2Router02.sol\":9727:9734  amounts */\n      dup3\n        /* \"swap/UniswapV2Router02.sol\":9752:9753  1 */\n      0x01\n        /* \"swap/UniswapV2Router02.sol\":9735:9742  amounts */\n      dup5\n        /* \"swap/UniswapV2Router02.sol\":9735:9749  amounts.length */\n      mload\n        /* \"swap/UniswapV2Router02.sol\":9735:9753  amounts.length - 1 */\n      sub\n        /* \"swap/UniswapV2Router02.sol\":9727:9754  amounts[amounts.length - 1] */\n      dup2\n      mload\n      dup2\n      lt\n      tag_234\n      jumpi\n      invalid\n    tag_234:\n      0x20\n      mul\n      0x20\n      add\n      add\n      mload\n        /* \"swap/UniswapV2Router02.sol\":9727:9770  amounts[amounts.length - 1] >= amountOutMin */\n      lt\n      iszero\n        /* \"swap/UniswapV2Router02.sol\":9719:9818  require(amounts[amounts.length - 1] >= amountOutMin, 'UniswapV2Router: INSUFFICIENT_OUTPUT_AMOUNT') */\n      tag_235\n      jumpi\n      mload(0x40)\n      shl(0xe5, 0x461bcd)\n      dup2\n      mstore\n      0x04\n      add\n      dup1\n      dup1\n      0x20\n      add\n      dup3\n      dup2\n      sub\n      dup3\n      mstore\n      0x2b\n      dup2\n      mstore\n      0x20\n      add\n      dup1\n      data_d4ea67bea551891ab36be726b8e631181246034dffcfd5c0bbfad1e9d1729432\n      0x2b\n      swap2\n      codecopy\n      0x40\n      add\n      swap2\n      pop\n      pop\n      mload(0x40)\n      dup1\n      swap2\n      sub\n      swap1\n      revert\n    tag_235:\n        /* \"swap/UniswapV2Router02.sol\":9829:9970  TransferHelper.safeTransferFrom(\r... */\n      tag_236\n        /* \"swap/UniswapV2Router02.sol\":9875:9879  path */\n      dup7\n      dup7\n        /* \"swap/UniswapV2Router02.sol\":9880:9881  0 */\n      0x00\n        /* \"swap/UniswapV2Router02.sol\":9875:9882  path[0] */\n      dup2\n      dup2\n      lt\n      tag_204\n      jumpi\n      invalid\n        /* \"swap/UniswapV2Router02.sol\":9829:9970  TransferHelper.safeTransferFrom(\r... */\n    tag_236:\n        /* \"swap/UniswapV2Router02.sol\":9981:10005  _swap(amounts, path, to) */\n      tag_217\n        /* \"swap/UniswapV2Router02.sol\":9987:9994  amounts */\n      dup3\n        /* \"swap/UniswapV2Router02.sol\":9996:10000  path */\n      dup8\n      dup8\n        /* \"swap/UniswapV2Router02.sol\":9981:10005  _swap(amounts, path, to) */\n      dup1\n      dup1\n      0x20\n      mul\n      0x20\n      add\n      mload(0x40)\n      swap1\n      dup2\n      add\n      0x40\n      mstore\n      dup1\n      swap4\n      swap3\n      swap2\n      swap1\n      dup2\n      dup2\n      mstore\n      0x20\n      add\n      dup4\n      dup4\n      0x20\n      mul\n      dup1\n      dup3\n      dup5\n      calldatacopy\n      0x00\n      swap3\n      add\n      swap2\n      swap1\n      swap2\n      mstore\n      pop\n        /* \"swap/UniswapV2Router02.sol\":10002:10004  to */\n      dup10\n      swap3\n      pop\n        /* \"swap/UniswapV2Router02.sol\":9981:9986  _swap */\n      tag_212\n      swap2\n      pop\n      pop\n        /* \"swap/UniswapV2Router02.sol\":9981:10005  _swap(amounts, path, to) */\n      jump\t// in\n        /* \"swap/UniswapV2Router02.sol\":11334:12162  function swapTokensForExactETH(uint amountOut, uint amountInMax, address[] calldata path, address to, uint deadline)\r... */\n    tag_81:\n        /* \"swap/UniswapV2Router02.sol\":11548:11569  uint[] memory amounts */\n      0x60\n        /* \"swap/UniswapV2Router02.sol\":11520:11528  deadline */\n      dup2\n        /* \"swap/UniswapV2Router02.sol\":605:620  block.timestamp */\n      timestamp\n        /* \"swap/UniswapV2Router02.sol\":593:601  deadline */\n      dup2\n        /* \"swap/UniswapV2Router02.sol\":593:620  deadline >= block.timestamp */\n      lt\n      iszero\n        /* \"swap/UniswapV2Router02.sol\":585:649  require(deadline >= block.timestamp, 'UniswapV2Router: EXPIRED') */\n      tag_244\n      jumpi\n      0x40\n      dup1\n      mload\n      shl(0xe5, 0x461bcd)\n      dup2\n      mstore\n      0x20\n      0x04\n      dup3\n      add\n      mstore\n      0x18\n      0x24\n      dup3\n      add\n      mstore\n      0x00\n      dup1\n      mload\n      0x20\n      data_ee5734acb032ffb1bbaf889d52ccf9fbd1ce0f1ae12bee2c46068d51b910e2c5\n      dup4\n      codecopy\n      dup2\n      mload\n      swap2\n      mstore\n      0x44\n      dup3\n      add\n      mstore\n      swap1\n      mload\n      swap1\n      dup2\n      swap1\n      sub\n      0x64\n      add\n      swap1\n      revert\n    tag_244:\n      sub(shl(0xa0, 0x01), 0x01)\n        /* \"swap/UniswapV2Router02.sol\":11620:11624  WETH */\n      immutable(\"0x939eb54753ed0cc7e2272bfb34cbe098308c93936ed54d79078f76ade0b2e789\")\n        /* \"swap/UniswapV2Router02.sol\":11595:11624  path[path.length - 1] == WETH */\n      and\n        /* \"swap/UniswapV2Router02.sol\":11595:11599  path */\n      dup7\n      dup7\n      not(0x00)\n        /* \"swap/UniswapV2Router02.sol\":11600:11615  path.length - 1 */\n      dup2\n      add\n        /* \"swap/UniswapV2Router02.sol\":11595:11616  path[path.length - 1] */\n      dup2\n      dup2\n      lt\n      tag_246\n      jumpi\n      invalid\n    tag_246:\n      swap1\n      pop\n      0x20\n      mul\n      add\n      calldataload\n      sub(shl(0xa0, 0x01), 0x01)\n      and\n      sub(shl(0xa0, 0x01), 0x01)\n        /* \"swap/UniswapV2Router02.sol\":11595:11624  path[path.length - 1] == WETH */\n      and\n      eq\n        /* \"swap/UniswapV2Router02.sol\":11587:11658  require(path[path.length - 1] == WETH, 'UniswapV2Router: INVALID_PATH') */\n      tag_247\n      jumpi\n      0x40\n      dup1\n      mload\n      shl(0xe5, 0x461bcd)\n      dup2\n      mstore\n      0x20\n      0x04\n      dup3\n      add\n      mstore\n      0x1d\n      0x24\n      dup3\n      add\n      mstore\n      0x00\n      dup1\n      mload\n      0x20\n      data_c80e789ddaeb930b746bbbcb3afe8331d926679fd96f65d8c7468b735c0a14f2\n      dup4\n      codecopy\n      dup2\n      mload\n      swap2\n      mstore\n      0x44\n      dup3\n      add\n      mstore\n      swap1\n      mload\n      swap1\n      dup2\n      swap1\n      sub\n      0x64\n      add\n      swap1\n      revert\n    tag_247:\n        /* \"swap/UniswapV2Router02.sol\":11679:11734  UniswapV2Library.getAmountsIn(factory, amountOut, path) */\n      tag_248\n        /* \"swap/UniswapV2Router02.sol\":11709:11716  factory */\n      immutable(\"0x277ab82e5a4641341820a4a2933a62c1de997e42e92548657ae21b3728d580fe\")\n        /* \"swap/UniswapV2Router02.sol\":11718:11727  amountOut */\n      dup10\n        /* \"swap/UniswapV2Router02.sol\":11729:11733  path */\n      dup9\n      dup9\n        /* \"swap/UniswapV2Router02.sol\":11679:11734  UniswapV2Library.getAmountsIn(factory, amountOut, path) */\n      dup1\n      dup1\n      0x20\n      mul\n      0x20\n      add\n      mload(0x40)\n      swap1\n      dup2\n      add\n      0x40\n      mstore\n      dup1\n      swap4\n      swap3\n      swap2\n      swap1\n      dup2\n      dup2\n      mstore\n      0x20\n      add\n      dup4\n      dup4\n      0x20\n      mul\n      dup1\n      dup3\n      dup5\n      calldatacopy\n      0x00\n      swap3\n      add\n      swap2\n      swap1\n      swap2\n      mstore\n      pop\n        /* \"swap/UniswapV2Router02.sol\":11679:11708  UniswapV2Library.getAmountsIn */\n      tag_221\n      swap3\n      pop\n      pop\n      pop\n        /* \"swap/UniswapV2Router02.sol\":11679:11734  UniswapV2Library.getAmountsIn(factory, amountOut, path) */\n      jump\t// in\n    tag_248:\n        /* \"swap/UniswapV2Router02.sol\":11669:11734  amounts = UniswapV2Library.getAmountsIn(factory, amountOut, path) */\n      swap2\n      pop\n        /* \"swap/UniswapV2Router02.sol\":11767:11778  amountInMax */\n      dup7\n        /* \"swap/UniswapV2Router02.sol\":11753:11760  amounts */\n      dup3\n        /* \"swap/UniswapV2Router02.sol\":11761:11762  0 */\n      0x00\n        /* \"swap/UniswapV2Router02.sol\":11753:11763  amounts[0] */\n      dup2\n      mload\n      dup2\n      lt\n      tag_249\n      jumpi\n      invalid\n    tag_249:\n      0x20\n      mul\n      0x20\n      add\n      add\n      mload\n        /* \"swap/UniswapV2Router02.sol\":11753:11778  amounts[0] <= amountInMax */\n      gt\n      iszero\n        /* \"swap/UniswapV2Router02.sol\":11745:11822  require(amounts[0] <= amountInMax, 'UniswapV2Router: EXCESSIVE_INPUT_AMOUNT') */\n      tag_202\n      jumpi\n      mload(0x40)\n      shl(0xe5, 0x461bcd)\n      dup2\n      mstore\n      0x04\n      add\n      dup1\n      dup1\n      0x20\n      add\n      dup3\n      dup2\n      sub\n      dup3\n      mstore\n      0x27\n      dup2\n      mstore\n      0x20\n      add\n      dup1\n      data_bb18004cd22eaad7ea393d184ea6ac1df1428db36bb6fbff8af486232d68ae2c\n      0x27\n      swap2\n      codecopy\n      0x40\n      add\n      swap2\n      pop\n      pop\n      mload(0x40)\n      dup1\n      swap2\n      sub\n      swap1\n      revert\n        /* \"swap/UniswapV2Router02.sol\":7815:8533  function removeLiquidityETHWithPermitSupportingFeeOnTransferTokens(\r... */\n    tag_88:\n        /* \"swap/UniswapV2Router02.sol\":8133:8147  uint amountETH */\n      0x00\n        /* \"swap/UniswapV2Router02.sol\":8160:8172  address pair */\n      dup1\n        /* \"swap/UniswapV2Router02.sol\":8175:8221  UniswapV2Library.pairFor(factory, token, WETH) */\n      tag_265\n        /* \"swap/UniswapV2Router02.sol\":8200:8207  factory */\n      immutable(\"0x277ab82e5a4641341820a4a2933a62c1de997e42e92548657ae21b3728d580fe\")\n        /* \"swap/UniswapV2Router02.sol\":8209:8214  token */\n      dup14\n        /* \"swap/UniswapV2Router02.sol\":8216:8220  WETH */\n      immutable(\"0x939eb54753ed0cc7e2272bfb34cbe098308c93936ed54d79078f76ade0b2e789\")\n        /* \"swap/UniswapV2Router02.sol\":8175:8199  UniswapV2Library.pairFor */\n      tag_208\n        /* \"swap/UniswapV2Router02.sol\":8175:8221  UniswapV2Library.pairFor(factory, token, WETH) */\n      jump\t// in\n    tag_265:\n        /* \"swap/UniswapV2Router02.sol\":8160:8221  address pair = UniswapV2Library.pairFor(factory, token, WETH) */\n      swap1\n      pop\n        /* \"swap/UniswapV2Router02.sol\":8232:8242  uint value */\n      0x00\n        /* \"swap/UniswapV2Router02.sol\":8245:8255  approveMax */\n      dup7\n        /* \"swap/UniswapV2Router02.sol\":8245:8278  approveMax ? uint(-1) : liquidity */\n      tag_266\n      jumpi\n        /* \"swap/UniswapV2Router02.sol\":8269:8278  liquidity */\n      dup12\n        /* \"swap/UniswapV2Router02.sol\":8245:8278  approveMax ? uint(-1) : liquidity */\n      jump(tag_267)\n    tag_266:\n      not(0x00)\n    tag_267:\n        /* \"swap/UniswapV2Router02.sol\":8289:8369  IUniswapV2Pair(pair).permit(msg.sender, address(this), value, deadline, v, r, s) */\n      0x40\n      dup1\n      mload\n      shl(0xe0, 0xd505accf)\n      dup2\n      mstore\n        /* \"swap/UniswapV2Router02.sol\":8317:8327  msg.sender */\n      caller\n        /* \"swap/UniswapV2Router02.sol\":8289:8369  IUniswapV2Pair(pair).permit(msg.sender, address(this), value, deadline, v, r, s) */\n      0x04\n      dup3\n      add\n      mstore\n        /* \"swap/UniswapV2Router02.sol\":8337:8341  this */\n      address\n        /* \"swap/UniswapV2Router02.sol\":8289:8369  IUniswapV2Pair(pair).permit(msg.sender, address(this), value, deadline, v, r, s) */\n      0x24\n      dup3\n      add\n      mstore\n      0x44\n      dup2\n      add\n      dup4\n      swap1\n      mstore\n      0x64\n      dup2\n      add\n      dup12\n      swap1\n      mstore\n      0xff\n      dup10\n      and\n      0x84\n      dup3\n      add\n      mstore\n      0xa4\n      dup2\n      add\n      dup9\n      swap1\n      mstore\n      0xc4\n      dup2\n      add\n      dup8\n      swap1\n      mstore\n      swap1\n      mload\n        /* \"swap/UniswapV2Router02.sol\":8232:8278  uint value = approveMax ? uint(-1) : liquidity */\n      swap2\n      swap3\n      pop\n      sub(shl(0xa0, 0x01), 0x01)\n        /* \"swap/UniswapV2Router02.sol\":8289:8316  IUniswapV2Pair(pair).permit */\n      dup5\n      and\n      swap2\n      0xd505accf\n      swap2\n        /* \"swap/UniswapV2Router02.sol\":8289:8369  IUniswapV2Pair(pair).permit(msg.sender, address(this), value, deadline, v, r, s) */\n      0xe4\n      dup1\n      dup3\n      add\n      swap3\n      0x00\n      swap3\n      swap1\n      swap2\n      swap1\n      dup3\n      swap1\n      sub\n      add\n      dup2\n      dup4\n        /* \"swap/UniswapV2Router02.sol\":8289:8316  IUniswapV2Pair(pair).permit */\n      dup8\n        /* \"swap/UniswapV2Router02.sol\":8289:8369  IUniswapV2Pair(pair).permit(msg.sender, address(this), value, deadline, v, r, s) */\n      dup1\n      extcodesize\n      iszero\n      dup1\n      iszero\n      tag_268\n      jumpi\n      0x00\n      dup1\n      revert\n    tag_268:\n      pop\n      gas\n      call\n      iszero\n      dup1\n      iszero\n      tag_270\n      jumpi\n      returndatasize\n      0x00\n      dup1\n      returndatacopy\n      revert(0x00, returndatasize)\n    tag_270:\n      pop\n      pop\n      pop\n      pop\n        /* \"swap/UniswapV2Router02.sol\":8392:8525  removeLiquidityETHSupportingFeeOnTransferTokens(\r... */\n      tag_271\n        /* \"swap/UniswapV2Router02.sol\":8454:8459  token */\n      dup14\n        /* \"swap/UniswapV2Router02.sol\":8461:8470  liquidity */\n      dup14\n        /* \"swap/UniswapV2Router02.sol\":8472:8486  amountTokenMin */\n      dup14\n        /* \"swap/UniswapV2Router02.sol\":8488:8500  amountETHMin */\n      dup14\n        /* \"swap/UniswapV2Router02.sol\":8502:8504  to */\n      dup14\n        /* \"swap/UniswapV2Router02.sol\":8506:8514  deadline */\n      dup14\n        /* \"swap/UniswapV2Router02.sol\":8392:8439  removeLiquidityETHSupportingFeeOnTransferTokens */\n      tag_136\n        /* \"swap/UniswapV2Router02.sol\":8392:8525  removeLiquidityETHSupportingFeeOnTransferTokens(\r... */\n      jump\t// in\n    tag_271:\n        /* \"swap/UniswapV2Router02.sol\":8380:8525  amountETH = removeLiquidityETHSupportingFeeOnTransferTokens(\r... */\n      swap14\n        /* \"swap/UniswapV2Router02.sol\":7815:8533  function removeLiquidityETHWithPermitSupportingFeeOnTransferTokens(\r... */\n      swap13\n      pop\n      pop\n      pop\n      pop\n      pop\n      pop\n      pop\n      pop\n      pop\n      pop\n      pop\n      pop\n      pop\n      jump\t// out\n        /* \"swap/UniswapV2Router02.sol\":15208:15936  function swapExactTokensForTokensSupportingFeeOnTransferTokens(\r... */\n    tag_95:\n        /* \"swap/UniswapV2Router02.sol\":15442:15450  deadline */\n      dup1\n        /* \"swap/UniswapV2Router02.sol\":605:620  block.timestamp */\n      timestamp\n        /* \"swap/UniswapV2Router02.sol\":593:601  deadline */\n      dup2\n        /* \"swap/UniswapV2Router02.sol\":593:620  deadline >= block.timestamp */\n      lt\n      iszero\n        /* \"swap/UniswapV2Router02.sol\":585:649  require(deadline >= block.timestamp, 'UniswapV2Router: EXPIRED') */\n      tag_273\n      jumpi\n      0x40\n      dup1\n      mload\n      shl(0xe5, 0x461bcd)\n      dup2\n      mstore\n      0x20\n      0x04\n      dup3\n      add\n      mstore\n      0x18\n      0x24\n      dup3\n      add\n      mstore\n      0x00\n      dup1\n      mload\n      0x20\n      data_ee5734acb032ffb1bbaf889d52ccf9fbd1ce0f1ae12bee2c46068d51b910e2c5\n      dup4\n      codecopy\n      dup2\n      mload\n      swap2\n      mstore\n      0x44\n      dup3\n      add\n      mstore\n      swap1\n      mload\n      swap1\n      dup2\n      swap1\n      sub\n      0x64\n      add\n      swap1\n      revert\n    tag_273:\n        /* \"swap/UniswapV2Router02.sol\":15463:15602  TransferHelper.safeTransferFrom(\r... */\n      tag_275\n        /* \"swap/UniswapV2Router02.sol\":15509:15513  path */\n      dup6\n      dup6\n        /* \"swap/UniswapV2Router02.sol\":15514:15515  0 */\n      0x00\n        /* \"swap/UniswapV2Router02.sol\":15509:15516  path[0] */\n      dup2\n      dup2\n      lt\n      tag_276\n      jumpi\n      invalid\n    tag_276:\n      swap1\n      pop\n      0x20\n      mul\n      add\n      calldataload\n      sub(shl(0xa0, 0x01), 0x01)\n      and\n        /* \"swap/UniswapV2Router02.sol\":15518:15528  msg.sender */\n      caller\n        /* \"swap/UniswapV2Router02.sol\":15530:15581  UniswapV2Library.pairFor(factory, path[0], path[1]) */\n      tag_277\n        /* \"swap/UniswapV2Router02.sol\":15555:15562  factory */\n      immutable(\"0x277ab82e5a4641341820a4a2933a62c1de997e42e92548657ae21b3728d580fe\")\n        /* \"swap/UniswapV2Router02.sol\":15564:15568  path */\n      dup10\n      dup10\n        /* \"swap/UniswapV2Router02.sol\":15569:15570  0 */\n      0x00\n        /* \"swap/UniswapV2Router02.sol\":15564:15571  path[0] */\n      dup2\n      dup2\n      lt\n      tag_278\n      jumpi\n      invalid\n    tag_278:\n      swap1\n      pop\n      0x20\n      mul\n      add\n      calldataload\n      sub(shl(0xa0, 0x01), 0x01)\n      and\n        /* \"swap/UniswapV2Router02.sol\":15573:15577  path */\n      dup11\n      dup11\n        /* \"swap/UniswapV2Router02.sol\":15578:15579  1 */\n      0x01\n        /* \"swap/UniswapV2Router02.sol\":15573:15580  path[1] */\n      dup2\n      dup2\n      lt\n      tag_207\n      jumpi\n      invalid\n        /* \"swap/UniswapV2Router02.sol\":15530:15581  UniswapV2Library.pairFor(factory, path[0], path[1]) */\n    tag_277:\n        /* \"swap/UniswapV2Router02.sol\":15583:15591  amountIn */\n      dup11\n        /* \"swap/UniswapV2Router02.sol\":15463:15494  TransferHelper.safeTransferFrom */\n      tag_210\n        /* \"swap/UniswapV2Router02.sol\":15463:15602  TransferHelper.safeTransferFrom(\r... */\n      jump\t// in\n    tag_275:\n        /* \"swap/UniswapV2Router02.sol\":15613:15631  uint balanceBefore */\n      0x00\n        /* \"swap/UniswapV2Router02.sol\":15648:15652  path */\n      dup6\n      dup6\n      not(0x00)\n        /* \"swap/UniswapV2Router02.sol\":15653:15668  path.length - 1 */\n      dup2\n      add\n        /* \"swap/UniswapV2Router02.sol\":15648:15669  path[path.length - 1] */\n      dup2\n      dup2\n      lt\n      tag_280\n      jumpi\n      invalid\n    tag_280:\n      swap1\n      pop\n      0x20\n      mul\n      add\n      calldataload\n      sub(shl(0xa0, 0x01), 0x01)\n      and\n      sub(shl(0xa0, 0x01), 0x01)\n        /* \"swap/UniswapV2Router02.sol\":15634:15680  IERC20Uniswap(path[path.length - 1]).balanceOf */\n      and\n      0x70a08231\n        /* \"swap/UniswapV2Router02.sol\":15681:15683  to */\n      dup6\n        /* \"swap/UniswapV2Router02.sol\":15634:15684  IERC20Uniswap(path[path.length - 1]).balanceOf(to) */\n      mload(0x40)\n      dup3\n      0xffffffff\n      and\n      0xe0\n      shl\n      dup2\n      mstore\n      0x04\n      add\n      dup1\n      dup3\n      sub(shl(0xa0, 0x01), 0x01)\n      and\n      dup2\n      mstore\n      0x20\n      add\n      swap2\n      pop\n      pop\n      0x20\n      mload(0x40)\n      dup1\n      dup4\n      sub\n      dup2\n      dup7\n      dup1\n      extcodesize\n      iszero\n      dup1\n      iszero\n      tag_281\n      jumpi\n      0x00\n      dup1\n      revert\n    tag_281:\n      pop\n      gas\n      staticcall\n      iszero\n      dup1\n      iszero\n      tag_283\n      jumpi\n      returndatasize\n      0x00\n      dup1\n      returndatacopy\n      revert(0x00, returndatasize)\n    tag_283:\n      pop\n      pop\n      pop\n      pop\n      mload(0x40)\n      returndatasize\n      0x20\n      dup2\n      lt\n      iszero\n      tag_284\n      jumpi\n      0x00\n      dup1\n      revert\n    tag_284:\n      pop\n      mload\n        /* \"swap/UniswapV2Router02.sol\":15695:15739  _swapSupportingFeeOnTransferTokens(path, to) */\n      0x40\n      dup1\n      mload\n        /* \"swap/UniswapV2Router02.sol\":15634:15684  IERC20Uniswap(path[path.length - 1]).balanceOf(to) */\n      0x20\n        /* \"swap/UniswapV2Router02.sol\":15695:15739  _swapSupportingFeeOnTransferTokens(path, to) */\n      dup9\n      dup2\n      mul\n      dup3\n      dup2\n      add\n      dup3\n      add\n      swap1\n      swap4\n      mstore\n      dup9\n      dup3\n      mstore\n        /* \"swap/UniswapV2Router02.sol\":15634:15684  IERC20Uniswap(path[path.length - 1]).balanceOf(to) */\n      swap3\n      swap4\n      pop\n        /* \"swap/UniswapV2Router02.sol\":15695:15739  _swapSupportingFeeOnTransferTokens(path, to) */\n      tag_285\n      swap3\n      swap1\n      swap2\n        /* \"swap/UniswapV2Router02.sol\":15730:15734  path */\n      dup10\n      swap2\n      dup10\n      swap2\n      dup3\n      swap2\n        /* \"swap/UniswapV2Router02.sol\":15695:15739  _swapSupportingFeeOnTransferTokens(path, to) */\n      dup6\n      add\n      swap1\n        /* \"swap/UniswapV2Router02.sol\":15730:15734  path */\n      dup5\n      swap1\n        /* \"swap/UniswapV2Router02.sol\":15695:15739  _swapSupportingFeeOnTransferTokens(path, to) */\n      dup1\n        /* \"swap/UniswapV2Router02.sol\":15730:15734  path */\n      dup3\n        /* \"swap/UniswapV2Router02.sol\":15695:15739  _swapSupportingFeeOnTransferTokens(path, to) */\n      dup5\n      calldatacopy\n      0x00\n      swap3\n      add\n      swap2\n      swap1\n      swap2\n      mstore\n      pop\n        /* \"swap/UniswapV2Router02.sol\":15736:15738  to */\n      dup9\n      swap3\n      pop\n        /* \"swap/UniswapV2Router02.sol\":15695:15729  _swapSupportingFeeOnTransferTokens */\n      tag_286\n      swap2\n      pop\n      pop\n        /* \"swap/UniswapV2Router02.sol\":15695:15739  _swapSupportingFeeOnTransferTokens(path, to) */\n      jump\t// in\n    tag_285:\n        /* \"swap/UniswapV2Router02.sol\":15845:15857  amountOutMin */\n      dup7\n        /* \"swap/UniswapV2Router02.sol\":15772:15841  IERC20Uniswap(path[path.length - 1]).balanceOf(to).sub(balanceBefore) */\n      tag_287\n        /* \"swap/UniswapV2Router02.sol\":15827:15840  balanceBefore */\n      dup3\n        /* \"swap/UniswapV2Router02.sol\":15786:15790  path */\n      dup9\n      dup9\n      not(0x00)\n        /* \"swap/UniswapV2Router02.sol\":15791:15806  path.length - 1 */\n      dup2\n      add\n        /* \"swap/UniswapV2Router02.sol\":15786:15807  path[path.length - 1] */\n      dup2\n      dup2\n      lt\n      tag_288\n      jumpi\n      invalid\n    tag_288:\n      swap1\n      pop\n      0x20\n      mul\n      add\n      calldataload\n      sub(shl(0xa0, 0x01), 0x01)\n      and\n      sub(shl(0xa0, 0x01), 0x01)\n        /* \"swap/UniswapV2Router02.sol\":15772:15818  IERC20Uniswap(path[path.length - 1]).balanceOf */\n      and\n      0x70a08231\n        /* \"swap/UniswapV2Router02.sol\":15819:15821  to */\n      dup9\n        /* \"swap/UniswapV2Router02.sol\":15772:15822  IERC20Uniswap(path[path.length - 1]).balanceOf(to) */\n      mload(0x40)\n      dup3\n      0xffffffff\n      and\n      0xe0\n      shl\n      dup2\n      mstore\n      0x04\n      add\n      dup1\n      dup3\n      sub(shl(0xa0, 0x01), 0x01)\n      and\n      dup2\n      mstore\n      0x20\n      add\n      swap2\n      pop\n      pop\n      0x20\n      mload(0x40)\n      dup1\n      dup4\n      sub\n      dup2\n      dup7\n      dup1\n      extcodesize\n      iszero\n      dup1\n      iszero\n      tag_289\n      jumpi\n      0x00\n      dup1\n      revert\n    tag_289:\n      pop\n      gas\n      staticcall\n      iszero\n      dup1\n      iszero\n      tag_291\n      jumpi\n      returndatasize\n      0x00\n      dup1\n      returndatacopy\n      revert(0x00, returndatasize)\n    tag_291:\n      pop\n      pop\n      pop\n      pop\n      mload(0x40)\n      returndatasize\n      0x20\n      dup2\n      lt\n      iszero\n      tag_292\n      jumpi\n      0x00\n      dup1\n      revert\n    tag_292:\n      pop\n      mload\n      swap1\n        /* \"swap/UniswapV2Router02.sol\":15772:15826  IERC20Uniswap(path[path.length - 1]).balanceOf(to).sub */\n      tag_293\n        /* \"swap/UniswapV2Router02.sol\":15772:15841  IERC20Uniswap(path[path.length - 1]).balanceOf(to).sub(balanceBefore) */\n      jump\t// in\n    tag_287:\n        /* \"swap/UniswapV2Router02.sol\":15772:15857  IERC20Uniswap(path[path.length - 1]).balanceOf(to).sub(balanceBefore) >= amountOutMin */\n      lt\n      iszero\n        /* \"swap/UniswapV2Router02.sol\":15750:15928  require(\r... */\n      tag_294\n      jumpi\n      mload(0x40)\n      shl(0xe5, 0x461bcd)\n      dup2\n      mstore\n      0x04\n      add\n      dup1\n      dup1\n      0x20\n      add\n      dup3\n      dup2\n      sub\n      dup3\n      mstore\n      0x2b\n      dup2\n      mstore\n      0x20\n      add\n      dup1\n      data_d4ea67bea551891ab36be726b8e631181246034dffcfd5c0bbfad1e9d1729432\n      0x2b\n      swap2\n      codecopy\n      0x40\n      add\n      swap2\n      pop\n      pop\n      mload(0x40)\n      dup1\n      swap2\n      sub\n      swap1\n      revert\n    tag_294:\n        /* \"swap/UniswapV2Router02.sol\":660:661  _ */\n      pop\n        /* \"swap/UniswapV2Router02.sol\":15208:15936  function swapExactTokensForTokensSupportingFeeOnTransferTokens(\r... */\n      pop\n      pop\n      pop\n      pop\n      pop\n      pop\n      pop\n      jump\t// out\n        /* \"swap/UniswapV2Router02.sol\":16812:17662  function swapExactTokensForETHSupportingFeeOnTransferTokens(\r... */\n    tag_102:\n        /* \"swap/UniswapV2Router02.sol\":17079:17087  deadline */\n      dup1\n        /* \"swap/UniswapV2Router02.sol\":605:620  block.timestamp */\n      timestamp\n        /* \"swap/UniswapV2Router02.sol\":593:601  deadline */\n      dup2\n        /* \"swap/UniswapV2Router02.sol\":593:620  deadline >= block.timestamp */\n      lt\n      iszero\n        /* \"swap/UniswapV2Router02.sol\":585:649  require(deadline >= block.timestamp, 'UniswapV2Router: EXPIRED') */\n      tag_296\n      jumpi\n      0x40\n      dup1\n      mload\n      shl(0xe5, 0x461bcd)\n      dup2\n      mstore\n      0x20\n      0x04\n      dup3\n      add\n      mstore\n      0x18\n      0x24\n      dup3\n      add\n      mstore\n      0x00\n      dup1\n      mload\n      0x20\n      data_ee5734acb032ffb1bbaf889d52ccf9fbd1ce0f1ae12bee2c46068d51b910e2c5\n      dup4\n      codecopy\n      dup2\n      mload\n      swap2\n      mstore\n      0x44\n      dup3\n      add\n      mstore\n      swap1\n      mload\n      swap1\n      dup2\n      swap1\n      sub\n      0x64\n      add\n      swap1\n      revert\n    tag_296:\n      sub(shl(0xa0, 0x01), 0x01)\n        /* \"swap/UniswapV2Router02.sol\":17138:17142  WETH */\n      immutable(\"0x939eb54753ed0cc7e2272bfb34cbe098308c93936ed54d79078f76ade0b2e789\")\n        /* \"swap/UniswapV2Router02.sol\":17113:17142  path[path.length - 1] == WETH */\n      and\n        /* \"swap/UniswapV2Router02.sol\":17113:17117  path */\n      dup6\n      dup6\n      not(0x00)\n        /* \"swap/UniswapV2Router02.sol\":17118:17133  path.length - 1 */\n      dup2\n      add\n        /* \"swap/UniswapV2Router02.sol\":17113:17134  path[path.length - 1] */\n      dup2\n      dup2\n      lt\n      tag_298\n      jumpi\n      invalid\n    tag_298:\n      swap1\n      pop\n      0x20\n      mul\n      add\n      calldataload\n      sub(shl(0xa0, 0x01), 0x01)\n      and\n      sub(shl(0xa0, 0x01), 0x01)\n        /* \"swap/UniswapV2Router02.sol\":17113:17142  path[path.length - 1] == WETH */\n      and\n      eq\n        /* \"swap/UniswapV2Router02.sol\":17105:17176  require(path[path.length - 1] == WETH, 'UniswapV2Router: INVALID_PATH') */\n      tag_299\n      jumpi\n      0x40\n      dup1\n      mload\n      shl(0xe5, 0x461bcd)\n      dup2\n      mstore\n      0x20\n      0x04\n      dup3\n      add\n      mstore\n      0x1d\n      0x24\n      dup3\n      add\n      mstore\n      0x00\n      dup1\n      mload\n      0x20\n      data_c80e789ddaeb930b746bbbcb3afe8331d926679fd96f65d8c7468b735c0a14f2\n      dup4\n      codecopy\n      dup2\n      mload\n      swap2\n      mstore\n      0x44\n      dup3\n      add\n      mstore\n      swap1\n      mload\n      swap1\n      dup2\n      swap1\n      sub\n      0x64\n      add\n      swap1\n      revert\n    tag_299:\n        /* \"swap/UniswapV2Router02.sol\":17187:17326  TransferHelper.safeTransferFrom(\r... */\n      tag_300\n        /* \"swap/UniswapV2Router02.sol\":17233:17237  path */\n      dup6\n      dup6\n        /* \"swap/UniswapV2Router02.sol\":17238:17239  0 */\n      0x00\n        /* \"swap/UniswapV2Router02.sol\":17233:17240  path[0] */\n      dup2\n      dup2\n      lt\n      tag_276\n      jumpi\n      invalid\n        /* \"swap/UniswapV2Router02.sol\":17187:17326  TransferHelper.safeTransferFrom(\r... */\n    tag_300:\n        /* \"swap/UniswapV2Router02.sol\":17337:17392  _swapSupportingFeeOnTransferTokens(path, address(this)) */\n      tag_305\n        /* \"swap/UniswapV2Router02.sol\":17372:17376  path */\n      dup6\n      dup6\n        /* \"swap/UniswapV2Router02.sol\":17337:17392  _swapSupportingFeeOnTransferTokens(path, address(this)) */\n      dup1\n      dup1\n      0x20\n      mul\n      0x20\n      add\n      mload(0x40)\n      swap1\n      dup2\n      add\n      0x40\n      mstore\n      dup1\n      swap4\n      swap3\n      swap2\n      swap1\n      dup2\n      dup2\n      mstore\n      0x20\n      add\n      dup4\n      dup4\n      0x20\n      mul\n      dup1\n      dup3\n      dup5\n      calldatacopy\n      0x00\n      swap3\n      add\n      swap2\n      swap1\n      swap2\n      mstore\n      pop\n        /* \"swap/UniswapV2Router02.sol\":17386:17390  this */\n      address\n      swap3\n      pop\n        /* \"swap/UniswapV2Router02.sol\":17337:17371  _swapSupportingFeeOnTransferTokens */\n      tag_286\n      swap2\n      pop\n      pop\n        /* \"swap/UniswapV2Router02.sol\":17337:17392  _swapSupportingFeeOnTransferTokens(path, address(this)) */\n      jump\t// in\n    tag_305:\n        /* \"swap/UniswapV2Router02.sol\":17403:17417  uint amountOut */\n      0x00\n        /* \"swap/UniswapV2Router02.sol\":17434:17438  WETH */\n      immutable(\"0x939eb54753ed0cc7e2272bfb34cbe098308c93936ed54d79078f76ade0b2e789\")\n      sub(shl(0xa0, 0x01), 0x01)\n        /* \"swap/UniswapV2Router02.sol\":17420:17449  IERC20Uniswap(WETH).balanceOf */\n      and\n      0x70a08231\n        /* \"swap/UniswapV2Router02.sol\":17458:17462  this */\n      address\n        /* \"swap/UniswapV2Router02.sol\":17420:17464  IERC20Uniswap(WETH).balanceOf(address(this)) */\n      mload(0x40)\n      dup3\n      0xffffffff\n      and\n      0xe0\n      shl\n      dup2\n      mstore\n      0x04\n      add\n      dup1\n      dup3\n      sub(shl(0xa0, 0x01), 0x01)\n      and\n      dup2\n      mstore\n      0x20\n      add\n      swap2\n      pop\n      pop\n      0x20\n      mload(0x40)\n      dup1\n      dup4\n      sub\n      dup2\n      dup7\n      dup1\n      extcodesize\n      iszero\n      dup1\n      iszero\n      tag_306\n      jumpi\n      0x00\n      dup1\n      revert\n    tag_306:\n      pop\n      gas\n      staticcall\n      iszero\n      dup1\n      iszero\n      tag_308\n      jumpi\n      returndatasize\n      0x00\n      dup1\n      returndatacopy\n      revert(0x00, returndatasize)\n    tag_308:\n      pop\n      pop\n      pop\n      pop\n      mload(0x40)\n      returndatasize\n      0x20\n      dup2\n      lt\n      iszero\n      tag_309\n      jumpi\n      0x00\n      dup1\n      revert\n    tag_309:\n      pop\n      mload\n      swap1\n      pop\n        /* \"swap/UniswapV2Router02.sol\":17483:17508  amountOut >= amountOutMin */\n      dup7\n      dup2\n      lt\n      iszero\n        /* \"swap/UniswapV2Router02.sol\":17475:17556  require(amountOut >= amountOutMin, 'UniswapV2Router: INSUFFICIENT_OUTPUT_AMOUNT') */\n      tag_310\n      jumpi\n      mload(0x40)\n      shl(0xe5, 0x461bcd)\n      dup2\n      mstore\n      0x04\n      add\n      dup1\n      dup1\n      0x20\n      add\n      dup3\n      dup2\n      sub\n      dup3\n      mstore\n      0x2b\n      dup2\n      mstore\n      0x20\n      add\n      dup1\n      data_d4ea67bea551891ab36be726b8e631181246034dffcfd5c0bbfad1e9d1729432\n      0x2b\n      swap2\n      codecopy\n      0x40\n      add\n      swap2\n      pop\n      pop\n      mload(0x40)\n      dup1\n      swap2\n      sub\n      swap1\n      revert\n    tag_310:\n        /* \"swap/UniswapV2Router02.sol\":17573:17577  WETH */\n      immutable(\"0x939eb54753ed0cc7e2272bfb34cbe098308c93936ed54d79078f76ade0b2e789\")\n      sub(shl(0xa0, 0x01), 0x01)\n        /* \"swap/UniswapV2Router02.sol\":17567:17587  IWETH(WETH).withdraw */\n      and\n      0x2e1a7d4d\n        /* \"swap/UniswapV2Router02.sol\":17588:17597  amountOut */\n      dup3\n        /* \"swap/UniswapV2Router02.sol\":17567:17598  IWETH(WETH).withdraw(amountOut) */\n      mload(0x40)\n      dup3\n      0xffffffff\n      and\n      0xe0\n      shl\n      dup2\n      mstore\n      0x04\n      add\n      dup1\n      dup3\n      dup2\n      mstore\n      0x20\n      add\n      swap2\n      pop\n      pop\n      0x00\n      mload(0x40)\n      dup1\n      dup4\n      sub\n      dup2\n      0x00\n      dup8\n      dup1\n      extcodesize\n      iszero\n      dup1\n      iszero\n      tag_311\n      jumpi\n      0x00\n      dup1\n      revert\n    tag_311:\n      pop\n      gas\n      call\n      iszero\n      dup1\n      iszero\n      tag_313\n      jumpi\n      returndatasize\n      0x00\n      dup1\n      returndatacopy\n      revert(0x00, returndatasize)\n    tag_313:\n      pop\n      pop\n      pop\n      pop\n        /* \"swap/UniswapV2Router02.sol\":17609:17654  TransferHelper.safeTransferETH(to, amountOut) */\n      tag_294\n        /* \"swap/UniswapV2Router02.sol\":17640:17642  to */\n      dup5\n        /* \"swap/UniswapV2Router02.sol\":17644:17653  amountOut */\n      dup3\n        /* \"swap/UniswapV2Router02.sol\":17609:17639  TransferHelper.safeTransferETH */\n      tag_190\n        /* \"swap/UniswapV2Router02.sol\":17609:17654  TransferHelper.safeTransferETH(to, amountOut) */\n      jump\t// in\n        /* \"swap/UniswapV2Router02.sol\":10631:11328  function swapExactETHForTokens(uint amountOutMin, address[] calldata path, address to, uint deadline)\r... */\n    tag_108:\n        /* \"swap/UniswapV2Router02.sol\":10847:10868  uint[] memory amounts */\n      0x60\n        /* \"swap/UniswapV2Router02.sol\":10819:10827  deadline */\n      dup2\n        /* \"swap/UniswapV2Router02.sol\":605:620  block.timestamp */\n      timestamp\n        /* \"swap/UniswapV2Router02.sol\":593:601  deadline */\n      dup2\n        /* \"swap/UniswapV2Router02.sol\":593:620  deadline >= block.timestamp */\n      lt\n      iszero\n        /* \"swap/UniswapV2Router02.sol\":585:649  require(deadline >= block.timestamp, 'UniswapV2Router: EXPIRED') */\n      tag_316\n      jumpi\n      0x40\n      dup1\n      mload\n      shl(0xe5, 0x461bcd)\n      dup2\n      mstore\n      0x20\n      0x04\n      dup3\n      add\n      mstore\n      0x18\n      0x24\n      dup3\n      add\n      mstore\n      0x00\n      dup1\n      mload\n      0x20\n      data_ee5734acb032ffb1bbaf889d52ccf9fbd1ce0f1ae12bee2c46068d51b910e2c5\n      dup4\n      codecopy\n      dup2\n      mload\n      swap2\n      mstore\n      0x44\n      dup3\n      add\n      mstore\n      swap1\n      mload\n      swap1\n      dup2\n      swap1\n      sub\n      0x64\n      add\n      swap1\n      revert\n    tag_316:\n        /* \"swap/UniswapV2Router02.sol\":10905:10909  WETH */\n      immutable(\"0x939eb54753ed0cc7e2272bfb34cbe098308c93936ed54d79078f76ade0b2e789\")\n      sub(shl(0xa0, 0x01), 0x01)\n        /* \"swap/UniswapV2Router02.sol\":10894:10909  path[0] == WETH */\n      and\n        /* \"swap/UniswapV2Router02.sol\":10894:10898  path */\n      dup7\n      dup7\n        /* \"swap/UniswapV2Router02.sol\":10899:10900  0 */\n      0x00\n        /* \"swap/UniswapV2Router02.sol\":10894:10901  path[0] */\n      dup2\n      dup2\n      lt\n      tag_318\n      jumpi\n      invalid\n    tag_318:\n      swap1\n      pop\n      0x20\n      mul\n      add\n      calldataload\n      sub(shl(0xa0, 0x01), 0x01)\n      and\n      sub(shl(0xa0, 0x01), 0x01)\n        /* \"swap/UniswapV2Router02.sol\":10894:10909  path[0] == WETH */\n      and\n      eq\n        /* \"swap/UniswapV2Router02.sol\":10886:10943  require(path[0] == WETH, 'UniswapV2Router: INVALID_PATH') */\n      tag_319\n      jumpi\n      0x40\n      dup1\n      mload\n      shl(0xe5, 0x461bcd)\n      dup2\n      mstore\n      0x20\n      0x04\n      dup3\n      add\n      mstore\n      0x1d\n      0x24\n      dup3\n      add\n      mstore\n      0x00\n      dup1\n      mload\n      0x20\n      data_c80e789ddaeb930b746bbbcb3afe8331d926679fd96f65d8c7468b735c0a14f2\n      dup4\n      codecopy\n      dup2\n      mload\n      swap2\n      mstore\n      0x44\n      dup3\n      add\n      mstore\n      swap1\n      mload\n      swap1\n      dup2\n      swap1\n      sub\n      0x64\n      add\n      swap1\n      revert\n    tag_319:\n        /* \"swap/UniswapV2Router02.sol\":10964:11020  UniswapV2Library.getAmountsOut(factory, msg.value, path) */\n      tag_320\n        /* \"swap/UniswapV2Router02.sol\":10995:11002  factory */\n      immutable(\"0x277ab82e5a4641341820a4a2933a62c1de997e42e92548657ae21b3728d580fe\")\n        /* \"swap/UniswapV2Router02.sol\":11004:11013  msg.value */\n      callvalue\n        /* \"swap/UniswapV2Router02.sol\":11015:11019  path */\n      dup9\n      dup9\n        /* \"swap/UniswapV2Router02.sol\":10964:11020  UniswapV2Library.getAmountsOut(factory, msg.value, path) */\n      dup1\n      dup1\n      0x20\n      mul\n      0x20\n      add\n      mload(0x40)\n      swap1\n      dup2\n      add\n      0x40\n      mstore\n      dup1\n      swap4\n      swap3\n      swap2\n      swap1\n      dup2\n      dup2\n      mstore\n      0x20\n      add\n      dup4\n      dup4\n      0x20\n      mul\n      dup1\n      dup3\n      dup5\n      calldatacopy\n      0x00\n      swap3\n      add\n      swap2\n      swap1\n      swap2\n      mstore\n      pop\n        /* \"swap/UniswapV2Router02.sol\":10964:10994  UniswapV2Library.getAmountsOut */\n      tag_200\n      swap3\n      pop\n      pop\n      pop\n        /* \"swap/UniswapV2Router02.sol\":10964:11020  UniswapV2Library.getAmountsOut(factory, msg.value, path) */\n      jump\t// in\n    tag_320:\n        /* \"swap/UniswapV2Router02.sol\":10954:11020  amounts = UniswapV2Library.getAmountsOut(factory, msg.value, path) */\n      swap2\n      pop\n        /* \"swap/UniswapV2Router02.sol\":11070:11082  amountOutMin */\n      dup7\n        /* \"swap/UniswapV2Router02.sol\":11039:11046  amounts */\n      dup3\n        /* \"swap/UniswapV2Router02.sol\":11064:11065  1 */\n      0x01\n        /* \"swap/UniswapV2Router02.sol\":11047:11054  amounts */\n      dup5\n        /* \"swap/UniswapV2Router02.sol\":11047:11061  amounts.length */\n      mload\n        /* \"swap/UniswapV2Router02.sol\":11047:11065  amounts.length - 1 */\n      sub\n        /* \"swap/UniswapV2Router02.sol\":11039:11066  amounts[amounts.length - 1] */\n      dup2\n      mload\n      dup2\n      lt\n      tag_321\n      jumpi\n      invalid\n    tag_321:\n      0x20\n      mul\n      0x20\n      add\n      add\n      mload\n        /* \"swap/UniswapV2Router02.sol\":11039:11082  amounts[amounts.length - 1] >= amountOutMin */\n      lt\n      iszero\n        /* \"swap/UniswapV2Router02.sol\":11031:11130  require(amounts[amounts.length - 1] >= amountOutMin, 'UniswapV2Router: INSUFFICIENT_OUTPUT_AMOUNT') */\n      tag_322\n      jumpi\n      mload(0x40)\n      shl(0xe5, 0x461bcd)\n      dup2\n      mstore\n      0x04\n      add\n      dup1\n      dup1\n      0x20\n      add\n      dup3\n      dup2\n      sub\n      dup3\n      mstore\n      0x2b\n      dup2\n      mstore\n      0x20\n      add\n      dup1\n      data_d4ea67bea551891ab36be726b8e631181246034dffcfd5c0bbfad1e9d1729432\n      0x2b\n      swap2\n      codecopy\n      0x40\n      add\n      swap2\n      pop\n      pop\n      mload(0x40)\n      dup1\n      swap2\n      sub\n      swap1\n      revert\n    tag_322:\n        /* \"swap/UniswapV2Router02.sol\":11147:11151  WETH */\n      immutable(\"0x939eb54753ed0cc7e2272bfb34cbe098308c93936ed54d79078f76ade0b2e789\")\n      sub(shl(0xa0, 0x01), 0x01)\n        /* \"swap/UniswapV2Router02.sol\":11141:11160  IWETH(WETH).deposit */\n      and\n      0xd0e30db0\n        /* \"swap/UniswapV2Router02.sol\":11168:11175  amounts */\n      dup4\n        /* \"swap/UniswapV2Router02.sol\":11176:11177  0 */\n      0x00\n        /* \"swap/UniswapV2Router02.sol\":11168:11178  amounts[0] */\n      dup2\n      mload\n      dup2\n      lt\n      tag_323\n      jumpi\n      invalid\n    tag_323:\n      0x20\n      mul\n      0x20\n      add\n      add\n      mload\n        /* \"swap/UniswapV2Router02.sol\":11141:11181  IWETH(WETH).deposit{value: amounts[0]}() */\n      mload(0x40)\n      dup3\n      0xffffffff\n      and\n      0xe0\n      shl\n      dup2\n      mstore\n      0x04\n      add\n      0x00\n      mload(0x40)\n      dup1\n      dup4\n      sub\n      dup2\n      dup6\n      dup9\n      dup1\n      extcodesize\n      iszero\n      dup1\n      iszero\n      tag_324\n      jumpi\n      0x00\n      dup1\n      revert\n    tag_324:\n      pop\n      gas\n      call\n      iszero\n      dup1\n      iszero\n      tag_326\n      jumpi\n      returndatasize\n      0x00\n      dup1\n      returndatacopy\n      revert(0x00, returndatasize)\n    tag_326:\n      pop\n      pop\n      pop\n      pop\n      pop\n        /* \"swap/UniswapV2Router02.sol\":11205:11209  WETH */\n      immutable(\"0x939eb54753ed0cc7e2272bfb34cbe098308c93936ed54d79078f76ade0b2e789\")\n      sub(shl(0xa0, 0x01), 0x01)\n        /* \"swap/UniswapV2Router02.sol\":11199:11219  IWETH(WETH).transfer */\n      and\n      0xa9059cbb\n        /* \"swap/UniswapV2Router02.sol\":11220:11271  UniswapV2Library.pairFor(factory, path[0], path[1]) */\n      tag_327\n        /* \"swap/UniswapV2Router02.sol\":11245:11252  factory */\n      immutable(\"0x277ab82e5a4641341820a4a2933a62c1de997e42e92548657ae21b3728d580fe\")\n        /* \"swap/UniswapV2Router02.sol\":11254:11258  path */\n      dup10\n      dup10\n        /* \"swap/UniswapV2Router02.sol\":11259:11260  0 */\n      0x00\n        /* \"swap/UniswapV2Router02.sol\":11254:11261  path[0] */\n      dup2\n      dup2\n      lt\n      tag_278\n      jumpi\n      invalid\n        /* \"swap/UniswapV2Router02.sol\":11220:11271  UniswapV2Library.pairFor(factory, path[0], path[1]) */\n    tag_327:\n        /* \"swap/UniswapV2Router02.sol\":11273:11280  amounts */\n      dup5\n        /* \"swap/UniswapV2Router02.sol\":11281:11282  0 */\n      0x00\n        /* \"swap/UniswapV2Router02.sol\":11273:11283  amounts[0] */\n      dup2\n      mload\n      dup2\n      lt\n      tag_330\n      jumpi\n      invalid\n    tag_330:\n      0x20\n      mul\n      0x20\n      add\n      add\n      mload\n        /* \"swap/UniswapV2Router02.sol\":11199:11284  IWETH(WETH).transfer(UniswapV2Library.pairFor(factory, path[0], path[1]), amounts[0]) */\n      mload(0x40)\n      dup4\n      0xffffffff\n      and\n      0xe0\n      shl\n      dup2\n      mstore\n      0x04\n      add\n      dup1\n      dup4\n      sub(shl(0xa0, 0x01), 0x01)\n      and\n      dup2\n      mstore\n      0x20\n      add\n      dup3\n      dup2\n      mstore\n      0x20\n      add\n      swap3\n      pop\n      pop\n      pop\n      0x20\n      mload(0x40)\n      dup1\n      dup4\n      sub\n      dup2\n      0x00\n      dup8\n      dup1\n      extcodesize\n      iszero\n      dup1\n      iszero\n      tag_331\n      jumpi\n      0x00\n      dup1\n      revert\n    tag_331:\n      pop\n      gas\n      call\n      iszero\n      dup1\n      iszero\n      tag_333\n      jumpi\n      returndatasize\n      0x00\n      dup1\n      returndatacopy\n      revert(0x00, returndatasize)\n    tag_333:\n      pop\n      pop\n      pop\n      pop\n      mload(0x40)\n      returndatasize\n      0x20\n      dup2\n      lt\n      iszero\n      tag_334\n      jumpi\n      0x00\n      dup1\n      revert\n    tag_334:\n      pop\n      mload\n        /* \"swap/UniswapV2Router02.sol\":11192:11285  assert(IWETH(WETH).transfer(UniswapV2Library.pairFor(factory, path[0], path[1]), amounts[0])) */\n      tag_335\n      jumpi\n      invalid\n    tag_335:\n        /* \"swap/UniswapV2Router02.sol\":11296:11320  _swap(amounts, path, to) */\n      tag_336\n        /* \"swap/UniswapV2Router02.sol\":11302:11309  amounts */\n      dup3\n        /* \"swap/UniswapV2Router02.sol\":11311:11315  path */\n      dup8\n      dup8\n        /* \"swap/UniswapV2Router02.sol\":11296:11320  _swap(amounts, path, to) */\n      dup1\n      dup1\n      0x20\n      mul\n      0x20\n      add\n      mload(0x40)\n      swap1\n      dup2\n      add\n      0x40\n      mstore\n      dup1\n      swap4\n      swap3\n      swap2\n      swap1\n      dup2\n      dup2\n      mstore\n      0x20\n      add\n      dup4\n      dup4\n      0x20\n      mul\n      dup1\n      dup3\n      dup5\n      calldatacopy\n      0x00\n      swap3\n      add\n      swap2\n      swap1\n      swap2\n      mstore\n      pop\n        /* \"swap/UniswapV2Router02.sol\":11317:11319  to */\n      dup10\n      swap3\n      pop\n        /* \"swap/UniswapV2Router02.sol\":11296:11301  _swap */\n      tag_212\n      swap2\n      pop\n      pop\n        /* \"swap/UniswapV2Router02.sol\":11296:11320  _swap(amounts, path, to) */\n      jump\t// in\n    tag_336:\n        /* \"swap/UniswapV2Router02.sol\":10631:11328  function swapExactETHForTokens(uint amountOutMin, address[] calldata path, address to, uint deadline)\r... */\n      pop\n      swap6\n      swap5\n      pop\n      pop\n      pop\n      pop\n      pop\n      jump\t// out\n        /* \"swap/UniswapV2Router02.sol\":18172:18433  function getAmountIn(uint amountOut, uint reserveIn, uint reserveOut)\r... */\n    tag_115:\n        /* \"swap/UniswapV2Router02.sol\":18325:18338  uint amountIn */\n      0x00\n        /* \"swap/UniswapV2Router02.sol\":18363:18425  UniswapV2Library.getAmountIn(amountOut, reserveIn, reserveOut) */\n      tag_192\n        /* \"swap/UniswapV2Router02.sol\":18392:18401  amountOut */\n      dup5\n        /* \"swap/UniswapV2Router02.sol\":18403:18412  reserveIn */\n      dup5\n        /* \"swap/UniswapV2Router02.sol\":18414:18424  reserveOut */\n      dup5\n        /* \"swap/UniswapV2Router02.sol\":18363:18391  UniswapV2Library.getAmountIn */\n      tag_339\n        /* \"swap/UniswapV2Router02.sol\":18363:18425  UniswapV2Library.getAmountIn(amountOut, reserveIn, reserveOut) */\n      jump\t// in\n        /* \"swap/UniswapV2Router02.sol\":10019:10625  function swapTokensForExactTokens(\r... */\n    tag_122:\n        /* \"swap/UniswapV2Router02.sol\":10243:10264  uint[] memory amounts */\n      0x60\n        /* \"swap/UniswapV2Router02.sol\":10224:10232  deadline */\n      dup2\n        /* \"swap/UniswapV2Router02.sol\":605:620  block.timestamp */\n      timestamp\n        /* \"swap/UniswapV2Router02.sol\":593:601  deadline */\n      dup2\n        /* \"swap/UniswapV2Router02.sol\":593:620  deadline >= block.timestamp */\n      lt\n      iszero\n        /* \"swap/UniswapV2Router02.sol\":585:649  require(deadline >= block.timestamp, 'UniswapV2Router: EXPIRED') */\n      tag_341\n      jumpi\n      0x40\n      dup1\n      mload\n      shl(0xe5, 0x461bcd)\n      dup2\n      mstore\n      0x20\n      0x04\n      dup3\n      add\n      mstore\n      0x18\n      0x24\n      dup3\n      add\n      mstore\n      0x00\n      dup1\n      mload\n      0x20\n      data_ee5734acb032ffb1bbaf889d52ccf9fbd1ce0f1ae12bee2c46068d51b910e2c5\n      dup4\n      codecopy\n      dup2\n      mload\n      swap2\n      mstore\n      0x44\n      dup3\n      add\n      mstore\n      swap1\n      mload\n      swap1\n      dup2\n      swap1\n      sub\n      0x64\n      add\n      swap1\n      revert\n    tag_341:\n        /* \"swap/UniswapV2Router02.sol\":10287:10342  UniswapV2Library.getAmountsIn(factory, amountOut, path) */\n      tag_343\n        /* \"swap/UniswapV2Router02.sol\":10317:10324  factory */\n      immutable(\"0x277ab82e5a4641341820a4a2933a62c1de997e42e92548657ae21b3728d580fe\")\n        /* \"swap/UniswapV2Router02.sol\":10326:10335  amountOut */\n      dup10\n        /* \"swap/UniswapV2Router02.sol\":10337:10341  path */\n      dup9\n      dup9\n        /* \"swap/UniswapV2Router02.sol\":10287:10342  UniswapV2Library.getAmountsIn(factory, amountOut, path) */\n      dup1\n      dup1\n      0x20\n      mul\n      0x20\n      add\n      mload(0x40)\n      swap1\n      dup2\n      add\n      0x40\n      mstore\n      dup1\n      swap4\n      swap3\n      swap2\n      swap1\n      dup2\n      dup2\n      mstore\n      0x20\n      add\n      dup4\n      dup4\n      0x20\n      mul\n      dup1\n      dup3\n      dup5\n      calldatacopy\n      0x00\n      swap3\n      add\n      swap2\n      swap1\n      swap2\n      mstore\n      pop\n        /* \"swap/UniswapV2Router02.sol\":10287:10316  UniswapV2Library.getAmountsIn */\n      tag_221\n      swap3\n      pop\n      pop\n      pop\n        /* \"swap/UniswapV2Router02.sol\":10287:10342  UniswapV2Library.getAmountsIn(factory, amountOut, path) */\n      jump\t// in\n    tag_343:\n        /* \"swap/UniswapV2Router02.sol\":10277:10342  amounts = UniswapV2Library.getAmountsIn(factory, amountOut, path) */\n      swap2\n      pop\n        /* \"swap/UniswapV2Router02.sol\":10375:10386  amountInMax */\n      dup7\n        /* \"swap/UniswapV2Router02.sol\":10361:10368  amounts */\n      dup3\n        /* \"swap/UniswapV2Router02.sol\":10369:10370  0 */\n      0x00\n        /* \"swap/UniswapV2Router02.sol\":10361:10371  amounts[0] */\n      dup2\n      mload\n      dup2\n      lt\n      tag_344\n      jumpi\n      invalid\n    tag_344:\n      0x20\n      mul\n      0x20\n      add\n      add\n      mload\n        /* \"swap/UniswapV2Router02.sol\":10361:10386  amounts[0] <= amountInMax */\n      gt\n      iszero\n        /* \"swap/UniswapV2Router02.sol\":10353:10430  require(amounts[0] <= amountInMax, 'UniswapV2Router: EXCESSIVE_INPUT_AMOUNT') */\n      tag_235\n      jumpi\n      mload(0x40)\n      shl(0xe5, 0x461bcd)\n      dup2\n      mstore\n      0x04\n      add\n      dup1\n      dup1\n      0x20\n      add\n      dup3\n      dup2\n      sub\n      dup3\n      mstore\n      0x27\n      dup2\n      mstore\n      0x20\n      add\n      dup1\n      data_bb18004cd22eaad7ea393d184ea6ac1df1428db36bb6fbff8af486232d68ae2c\n      0x27\n      swap2\n      codecopy\n      0x40\n      add\n      swap2\n      pop\n      pop\n      mload(0x40)\n      dup1\n      swap2\n      sub\n      swap1\n      revert\n        /* \"swap/UniswapV2Router02.sol\":496:534  address public immutable override WETH */\n    tag_128:\n      immutable(\"0x939eb54753ed0cc7e2272bfb34cbe098308c93936ed54d79078f76ade0b2e789\")\n      dup2\n      jump\t// out\n        /* \"swap/UniswapV2Router02.sol\":17706:17894  function quote(uint amountA, uint reserveA, uint reserveB) public pure virtual override returns (uint amountB) {\r... */\n    tag_132:\n        /* \"swap/UniswapV2Router02.sol\":17803:17815  uint amountB */\n      0x00\n        /* \"swap/UniswapV2Router02.sol\":17835:17886  UniswapV2Library.quote(amountA, reserveA, reserveB) */\n      tag_192\n        /* \"swap/UniswapV2Router02.sol\":17858:17865  amountA */\n      dup5\n        /* \"swap/UniswapV2Router02.sol\":17867:17875  reserveA */\n      dup5\n        /* \"swap/UniswapV2Router02.sol\":17877:17885  reserveB */\n      dup5\n        /* \"swap/UniswapV2Router02.sol\":17835:17857  UniswapV2Library.quote */\n      tag_355\n        /* \"swap/UniswapV2Router02.sol\":17835:17886  UniswapV2Library.quote(amountA, reserveA, reserveB) */\n      jump\t// in\n        /* \"swap/UniswapV2Router02.sol\":7102:7809  function removeLiquidityETHSupportingFeeOnTransferTokens(\r... */\n    tag_136:\n        /* \"swap/UniswapV2Router02.sol\":7368:7382  uint amountETH */\n      0x00\n        /* \"swap/UniswapV2Router02.sol\":7349:7357  deadline */\n      dup2\n        /* \"swap/UniswapV2Router02.sol\":605:620  block.timestamp */\n      timestamp\n        /* \"swap/UniswapV2Router02.sol\":593:601  deadline */\n      dup2\n        /* \"swap/UniswapV2Router02.sol\":593:620  deadline >= block.timestamp */\n      lt\n      iszero\n        /* \"swap/UniswapV2Router02.sol\":585:649  require(deadline >= block.timestamp, 'UniswapV2Router: EXPIRED') */\n      tag_357\n      jumpi\n      0x40\n      dup1\n      mload\n      shl(0xe5, 0x461bcd)\n      dup2\n      mstore\n      0x20\n      0x04\n      dup3\n      add\n      mstore\n      0x18\n      0x24\n      dup3\n      add\n      mstore\n      0x00\n      dup1\n      mload\n      0x20\n      data_ee5734acb032ffb1bbaf889d52ccf9fbd1ce0f1ae12bee2c46068d51b910e2c5\n      dup4\n      codecopy\n      dup2\n      mload\n      swap2\n      mstore\n      0x44\n      dup3\n      add\n      mstore\n      swap1\n      mload\n      swap1\n      dup2\n      swap1\n      sub\n      0x64\n      add\n      swap1\n      revert\n    tag_357:\n        /* \"swap/UniswapV2Router02.sol\":7411:7607  removeLiquidity(\r... */\n      tag_359\n        /* \"swap/UniswapV2Router02.sol\":7441:7446  token */\n      dup9\n        /* \"swap/UniswapV2Router02.sol\":7461:7465  WETH */\n      immutable(\"0x939eb54753ed0cc7e2272bfb34cbe098308c93936ed54d79078f76ade0b2e789\")\n        /* \"swap/UniswapV2Router02.sol\":7480:7489  liquidity */\n      dup10\n        /* \"swap/UniswapV2Router02.sol\":7504:7518  amountTokenMin */\n      dup10\n        /* \"swap/UniswapV2Router02.sol\":7533:7545  amountETHMin */\n      dup10\n        /* \"swap/UniswapV2Router02.sol\":7568:7572  this */\n      address\n        /* \"swap/UniswapV2Router02.sol\":7588:7596  deadline */\n      dup10\n        /* \"swap/UniswapV2Router02.sol\":7411:7426  removeLiquidity */\n      tag_146\n        /* \"swap/UniswapV2Router02.sol\":7411:7607  removeLiquidity(\r... */\n      jump\t// in\n    tag_359:\n        /* \"swap/UniswapV2Router02.sol\":7395:7607  (, amountETH) = removeLiquidity(\r... */\n      swap1\n      pop\n      dup1\n      swap3\n      pop\n      pop\n        /* \"swap/UniswapV2Router02.sol\":7618:7703  TransferHelper.safeTransfer(token, to, IERC20Uniswap(token).balanceOf(address(this))) */\n      tag_360\n        /* \"swap/UniswapV2Router02.sol\":7646:7651  token */\n      dup9\n        /* \"swap/UniswapV2Router02.sol\":7653:7655  to */\n      dup6\n        /* \"swap/UniswapV2Router02.sol\":7671:7676  token */\n      dup11\n      sub(shl(0xa0, 0x01), 0x01)\n        /* \"swap/UniswapV2Router02.sol\":7657:7687  IERC20Uniswap(token).balanceOf */\n      and\n      0x70a08231\n        /* \"swap/UniswapV2Router02.sol\":7696:7700  this */\n      address\n        /* \"swap/UniswapV2Router02.sol\":7657:7702  IERC20Uniswap(token).balanceOf(address(this)) */\n      mload(0x40)\n      dup3\n      0xffffffff\n      and\n      0xe0\n      shl\n      dup2\n      mstore\n      0x04\n      add\n      dup1\n      dup3\n      sub(shl(0xa0, 0x01), 0x01)\n      and\n      dup2\n      mstore\n      0x20\n      add\n      swap2\n      pop\n      pop\n      0x20\n      mload(0x40)\n      dup1\n      dup4\n      sub\n      dup2\n      dup7\n      dup1\n      extcodesize\n      iszero\n      dup1\n      iszero\n      tag_361\n      jumpi\n      0x00\n      dup1\n      revert\n    tag_361:\n      pop\n      gas\n      staticcall\n      iszero\n      dup1\n      iszero\n      tag_363\n      jumpi\n      returndatasize\n      0x00\n      dup1\n      returndatacopy\n      revert(0x00, returndatasize)\n    tag_363:\n      pop\n      pop\n      pop\n      pop\n      mload(0x40)\n      returndatasize\n      0x20\n      dup2\n      lt\n      iszero\n      tag_364\n      jumpi\n      0x00\n      dup1\n      revert\n    tag_364:\n      pop\n      mload\n        /* \"swap/UniswapV2Router02.sol\":7618:7645  TransferHelper.safeTransfer */\n      tag_185\n        /* \"swap/UniswapV2Router02.sol\":7618:7703  TransferHelper.safeTransfer(token, to, IERC20Uniswap(token).balanceOf(address(this))) */\n      jump\t// in\n    tag_360:\n        /* \"swap/UniswapV2Router02.sol\":7720:7724  WETH */\n      immutable(\"0x939eb54753ed0cc7e2272bfb34cbe098308c93936ed54d79078f76ade0b2e789\")\n      sub(shl(0xa0, 0x01), 0x01)\n        /* \"swap/UniswapV2Router02.sol\":7714:7734  IWETH(WETH).withdraw */\n      and\n      0x2e1a7d4d\n        /* \"swap/UniswapV2Router02.sol\":7735:7744  amountETH */\n      dup4\n        /* \"swap/UniswapV2Router02.sol\":7714:7745  IWETH(WETH).withdraw(amountETH) */\n      mload(0x40)\n      dup3\n      0xffffffff\n      and\n      0xe0\n      shl\n      dup2\n      mstore\n      0x04\n      add\n      dup1\n      dup3\n      dup2\n      mstore\n      0x20\n      add\n      swap2\n      pop\n      pop\n      0x00\n      mload(0x40)\n      dup1\n      dup4\n      sub\n      dup2\n      0x00\n      dup8\n      dup1\n      extcodesize\n      iszero\n      dup1\n      iszero\n      tag_365\n      jumpi\n      0x00\n      dup1\n      revert\n    tag_365:\n      pop\n      gas\n      call\n      iszero\n      dup1\n      iszero\n      tag_367\n      jumpi\n      returndatasize\n      0x00\n      dup1\n      returndatacopy\n      revert(0x00, returndatasize)\n    tag_367:\n      pop\n      pop\n      pop\n      pop\n        /* \"swap/UniswapV2Router02.sol\":7756:7801  TransferHelper.safeTransferETH(to, amountETH) */\n      tag_217\n        /* \"swap/UniswapV2Router02.sol\":7787:7789  to */\n      dup5\n        /* \"swap/UniswapV2Router02.sol\":7791:7800  amountETH */\n      dup4\n        /* \"swap/UniswapV2Router02.sol\":7756:7786  TransferHelper.safeTransferETH */\n      tag_190\n        /* \"swap/UniswapV2Router02.sol\":7756:7801  TransferHelper.safeTransferETH(to, amountETH) */\n      jump\t// in\n        /* \"swap/UniswapV2Router02.sol\":15942:16806  function swapExactETHForTokensSupportingFeeOnTransferTokens(\r... */\n    tag_142:\n        /* \"swap/UniswapV2Router02.sol\":16202:16210  deadline */\n      dup1\n        /* \"swap/UniswapV2Router02.sol\":605:620  block.timestamp */\n      timestamp\n        /* \"swap/UniswapV2Router02.sol\":593:601  deadline */\n      dup2\n        /* \"swap/UniswapV2Router02.sol\":593:620  deadline >= block.timestamp */\n      lt\n      iszero\n        /* \"swap/UniswapV2Router02.sol\":585:649  require(deadline >= block.timestamp, 'UniswapV2Router: EXPIRED') */\n      tag_370\n      jumpi\n      0x40\n      dup1\n      mload\n      shl(0xe5, 0x461bcd)\n      dup2\n      mstore\n      0x20\n      0x04\n      dup3\n      add\n      mstore\n      0x18\n      0x24\n      dup3\n      add\n      mstore\n      0x00\n      dup1\n      mload\n      0x20\n      data_ee5734acb032ffb1bbaf889d52ccf9fbd1ce0f1ae12bee2c46068d51b910e2c5\n      dup4\n      codecopy\n      dup2\n      mload\n      swap2\n      mstore\n      0x44\n      dup3\n      add\n      mstore\n      swap1\n      mload\n      swap1\n      dup2\n      swap1\n      sub\n      0x64\n      add\n      swap1\n      revert\n    tag_370:\n        /* \"swap/UniswapV2Router02.sol\":16247:16251  WETH */\n      immutable(\"0x939eb54753ed0cc7e2272bfb34cbe098308c93936ed54d79078f76ade0b2e789\")\n      sub(shl(0xa0, 0x01), 0x01)\n        /* \"swap/UniswapV2Router02.sol\":16236:16251  path[0] == WETH */\n      and\n        /* \"swap/UniswapV2Router02.sol\":16236:16240  path */\n      dup6\n      dup6\n        /* \"swap/UniswapV2Router02.sol\":16241:16242  0 */\n      0x00\n        /* \"swap/UniswapV2Router02.sol\":16236:16243  path[0] */\n      dup2\n      dup2\n      lt\n      tag_372\n      jumpi\n      invalid\n    tag_372:\n      swap1\n      pop\n      0x20\n      mul\n      add\n      calldataload\n      sub(shl(0xa0, 0x01), 0x01)\n      and\n      sub(shl(0xa0, 0x01), 0x01)\n        /* \"swap/UniswapV2Router02.sol\":16236:16251  path[0] == WETH */\n      and\n      eq\n        /* \"swap/UniswapV2Router02.sol\":16228:16285  require(path[0] == WETH, 'UniswapV2Router: INVALID_PATH') */\n      tag_373\n      jumpi\n      0x40\n      dup1\n      mload\n      shl(0xe5, 0x461bcd)\n      dup2\n      mstore\n      0x20\n      0x04\n      dup3\n      add\n      mstore\n      0x1d\n      0x24\n      dup3\n      add\n      mstore\n      0x00\n      dup1\n      mload\n      0x20\n      data_c80e789ddaeb930b746bbbcb3afe8331d926679fd96f65d8c7468b735c0a14f2\n      dup4\n      codecopy\n      dup2\n      mload\n      swap2\n      mstore\n      0x44\n      dup3\n      add\n      mstore\n      swap1\n      mload\n      swap1\n      dup2\n      swap1\n      sub\n      0x64\n      add\n      swap1\n      revert\n    tag_373:\n        /* \"swap/UniswapV2Router02.sol\":16296:16309  uint amountIn */\n      0x00\n        /* \"swap/UniswapV2Router02.sol\":16312:16321  msg.value */\n      callvalue\n        /* \"swap/UniswapV2Router02.sol\":16296:16321  uint amountIn = msg.value */\n      swap1\n      pop\n        /* \"swap/UniswapV2Router02.sol\":16338:16342  WETH */\n      immutable(\"0x939eb54753ed0cc7e2272bfb34cbe098308c93936ed54d79078f76ade0b2e789\")\n      sub(shl(0xa0, 0x01), 0x01)\n        /* \"swap/UniswapV2Router02.sol\":16332:16351  IWETH(WETH).deposit */\n      and\n      0xd0e30db0\n        /* \"swap/UniswapV2Router02.sol\":16359:16367  amountIn */\n      dup3\n        /* \"swap/UniswapV2Router02.sol\":16332:16370  IWETH(WETH).deposit{value: amountIn}() */\n      mload(0x40)\n      dup3\n      0xffffffff\n      and\n      0xe0\n      shl\n      dup2\n      mstore\n      0x04\n      add\n      0x00\n      mload(0x40)\n      dup1\n      dup4\n      sub\n      dup2\n      dup6\n      dup9\n      dup1\n      extcodesize\n      iszero\n      dup1\n      iszero\n      tag_374\n      jumpi\n      0x00\n      dup1\n      revert\n    tag_374:\n      pop\n      gas\n      call\n      iszero\n      dup1\n      iszero\n      tag_376\n      jumpi\n      returndatasize\n      0x00\n      dup1\n      returndatacopy\n      revert(0x00, returndatasize)\n    tag_376:\n      pop\n      pop\n      pop\n      pop\n      pop\n        /* \"swap/UniswapV2Router02.sol\":16394:16398  WETH */\n      immutable(\"0x939eb54753ed0cc7e2272bfb34cbe098308c93936ed54d79078f76ade0b2e789\")\n      sub(shl(0xa0, 0x01), 0x01)\n        /* \"swap/UniswapV2Router02.sol\":16388:16408  IWETH(WETH).transfer */\n      and\n      0xa9059cbb\n        /* \"swap/UniswapV2Router02.sol\":16409:16460  UniswapV2Library.pairFor(factory, path[0], path[1]) */\n      tag_377\n        /* \"swap/UniswapV2Router02.sol\":16434:16441  factory */\n      immutable(\"0x277ab82e5a4641341820a4a2933a62c1de997e42e92548657ae21b3728d580fe\")\n        /* \"swap/UniswapV2Router02.sol\":16443:16447  path */\n      dup10\n      dup10\n        /* \"swap/UniswapV2Router02.sol\":16448:16449  0 */\n      0x00\n        /* \"swap/UniswapV2Router02.sol\":16443:16450  path[0] */\n      dup2\n      dup2\n      lt\n      tag_278\n      jumpi\n      invalid\n        /* \"swap/UniswapV2Router02.sol\":16409:16460  UniswapV2Library.pairFor(factory, path[0], path[1]) */\n    tag_377:\n        /* \"swap/UniswapV2Router02.sol\":16462:16470  amountIn */\n      dup4\n        /* \"swap/UniswapV2Router02.sol\":16388:16471  IWETH(WETH).transfer(UniswapV2Library.pairFor(factory, path[0], path[1]), amountIn) */\n      mload(0x40)\n      dup4\n      0xffffffff\n      and\n      0xe0\n      shl\n      dup2\n      mstore\n      0x04\n      add\n      dup1\n      dup4\n      sub(shl(0xa0, 0x01), 0x01)\n      and\n      dup2\n      mstore\n      0x20\n      add\n      dup3\n      dup2\n      mstore\n      0x20\n      add\n      swap3\n      pop\n      pop\n      pop\n      0x20\n      mload(0x40)\n      dup1\n      dup4\n      sub\n      dup2\n      0x00\n      dup8\n      dup1\n      extcodesize\n      iszero\n      dup1\n      iszero\n      tag_380\n      jumpi\n      0x00\n      dup1\n      revert\n    tag_380:\n      pop\n      gas\n      call\n      iszero\n      dup1\n      iszero\n      tag_382\n      jumpi\n      returndatasize\n      0x00\n      dup1\n      returndatacopy\n      revert(0x00, returndatasize)\n    tag_382:\n      pop\n      pop\n      pop\n      pop\n      mload(0x40)\n      returndatasize\n      0x20\n      dup2\n      lt\n      iszero\n      tag_383\n      jumpi\n      0x00\n      dup1\n      revert\n    tag_383:\n      pop\n      mload\n        /* \"swap/UniswapV2Router02.sol\":16381:16472  assert(IWETH(WETH).transfer(UniswapV2Library.pairFor(factory, path[0], path[1]), amountIn)) */\n      tag_384\n      jumpi\n      invalid\n    tag_384:\n        /* \"swap/UniswapV2Router02.sol\":16483:16501  uint balanceBefore */\n      0x00\n        /* \"swap/UniswapV2Router02.sol\":16518:16522  path */\n      dup7\n      dup7\n      not(0x00)\n        /* \"swap/UniswapV2Router02.sol\":16523:16538  path.length - 1 */\n      dup2\n      add\n        /* \"swap/UniswapV2Router02.sol\":16518:16539  path[path.length - 1] */\n      dup2\n      dup2\n      lt\n      tag_385\n      jumpi\n      invalid\n    tag_385:\n      swap1\n      pop\n      0x20\n      mul\n      add\n      calldataload\n      sub(shl(0xa0, 0x01), 0x01)\n      and\n      sub(shl(0xa0, 0x01), 0x01)\n        /* \"swap/UniswapV2Router02.sol\":16504:16550  IERC20Uniswap(path[path.length - 1]).balanceOf */\n      and\n      0x70a08231\n        /* \"swap/UniswapV2Router02.sol\":16551:16553  to */\n      dup7\n        /* \"swap/UniswapV2Router02.sol\":16504:16554  IERC20Uniswap(path[path.length - 1]).balanceOf(to) */\n      mload(0x40)\n      dup3\n      0xffffffff\n      and\n      0xe0\n      shl\n      dup2\n      mstore\n      0x04\n      add\n      dup1\n      dup3\n      sub(shl(0xa0, 0x01), 0x01)\n      and\n      dup2\n      mstore\n      0x20\n      add\n      swap2\n      pop\n      pop\n      0x20\n      mload(0x40)\n      dup1\n      dup4\n      sub\n      dup2\n      dup7\n      dup1\n      extcodesize\n      iszero\n      dup1\n      iszero\n      tag_386\n      jumpi\n      0x00\n      dup1\n      revert\n    tag_386:\n      pop\n      gas\n      staticcall\n      iszero\n      dup1\n      iszero\n      tag_388\n      jumpi\n      returndatasize\n      0x00\n      dup1\n      returndatacopy\n      revert(0x00, returndatasize)\n    tag_388:\n      pop\n      pop\n      pop\n      pop\n      mload(0x40)\n      returndatasize\n      0x20\n      dup2\n      lt\n      iszero\n      tag_389\n      jumpi\n      0x00\n      dup1\n      revert\n    tag_389:\n      pop\n      mload\n        /* \"swap/UniswapV2Router02.sol\":16565:16609  _swapSupportingFeeOnTransferTokens(path, to) */\n      0x40\n      dup1\n      mload\n        /* \"swap/UniswapV2Router02.sol\":16504:16554  IERC20Uniswap(path[path.length - 1]).balanceOf(to) */\n      0x20\n        /* \"swap/UniswapV2Router02.sol\":16565:16609  _swapSupportingFeeOnTransferTokens(path, to) */\n      dup10\n      dup2\n      mul\n      dup3\n      dup2\n      add\n      dup3\n      add\n      swap1\n      swap4\n      mstore\n      dup10\n      dup3\n      mstore\n        /* \"swap/UniswapV2Router02.sol\":16504:16554  IERC20Uniswap(path[path.length - 1]).balanceOf(to) */\n      swap3\n      swap4\n      pop\n        /* \"swap/UniswapV2Router02.sol\":16565:16609  _swapSupportingFeeOnTransferTokens(path, to) */\n      tag_390\n      swap3\n      swap1\n      swap2\n        /* \"swap/UniswapV2Router02.sol\":16600:16604  path */\n      dup11\n      swap2\n      dup11\n      swap2\n      dup3\n      swap2\n        /* \"swap/UniswapV2Router02.sol\":16565:16609  _swapSupportingFeeOnTransferTokens(path, to) */\n      dup6\n      add\n      swap1\n        /* \"swap/UniswapV2Router02.sol\":16600:16604  path */\n      dup5\n      swap1\n        /* \"swap/UniswapV2Router02.sol\":16565:16609  _swapSupportingFeeOnTransferTokens(path, to) */\n      dup1\n        /* \"swap/UniswapV2Router02.sol\":16600:16604  path */\n      dup3\n        /* \"swap/UniswapV2Router02.sol\":16565:16609  _swapSupportingFeeOnTransferTokens(path, to) */\n      dup5\n      calldatacopy\n      0x00\n      swap3\n      add\n      swap2\n      swap1\n      swap2\n      mstore\n      pop\n        /* \"swap/UniswapV2Router02.sol\":16606:16608  to */\n      dup10\n      swap3\n      pop\n        /* \"swap/UniswapV2Router02.sol\":16565:16599  _swapSupportingFeeOnTransferTokens */\n      tag_286\n      swap2\n      pop\n      pop\n        /* \"swap/UniswapV2Router02.sol\":16565:16609  _swapSupportingFeeOnTransferTokens(path, to) */\n      jump\t// in\n    tag_390:\n        /* \"swap/UniswapV2Router02.sol\":16715:16727  amountOutMin */\n      dup8\n        /* \"swap/UniswapV2Router02.sol\":16642:16711  IERC20Uniswap(path[path.length - 1]).balanceOf(to).sub(balanceBefore) */\n      tag_287\n        /* \"swap/UniswapV2Router02.sol\":16697:16710  balanceBefore */\n      dup3\n        /* \"swap/UniswapV2Router02.sol\":16656:16660  path */\n      dup10\n      dup10\n      not(0x00)\n        /* \"swap/UniswapV2Router02.sol\":16661:16676  path.length - 1 */\n      dup2\n      add\n        /* \"swap/UniswapV2Router02.sol\":16656:16677  path[path.length - 1] */\n      dup2\n      dup2\n      lt\n      tag_392\n      jumpi\n      invalid\n    tag_392:\n      swap1\n      pop\n      0x20\n      mul\n      add\n      calldataload\n      sub(shl(0xa0, 0x01), 0x01)\n      and\n      sub(shl(0xa0, 0x01), 0x01)\n        /* \"swap/UniswapV2Router02.sol\":16642:16688  IERC20Uniswap(path[path.length - 1]).balanceOf */\n      and\n      0x70a08231\n        /* \"swap/UniswapV2Router02.sol\":16689:16691  to */\n      dup10\n        /* \"swap/UniswapV2Router02.sol\":16642:16692  IERC20Uniswap(path[path.length - 1]).balanceOf(to) */\n      mload(0x40)\n      dup3\n      0xffffffff\n      and\n      0xe0\n      shl\n      dup2\n      mstore\n      0x04\n      add\n      dup1\n      dup3\n      sub(shl(0xa0, 0x01), 0x01)\n      and\n      dup2\n      mstore\n      0x20\n      add\n      swap2\n      pop\n      pop\n      0x20\n      mload(0x40)\n      dup1\n      dup4\n      sub\n      dup2\n      dup7\n      dup1\n      extcodesize\n      iszero\n      dup1\n      iszero\n      tag_289\n      jumpi\n      0x00\n      dup1\n      revert\n        /* \"swap/UniswapV2Router02.sol\":4121:4986  function removeLiquidity(\r... */\n    tag_146:\n        /* \"swap/UniswapV2Router02.sol\":4375:4387  uint amountA */\n      0x00\n        /* \"swap/UniswapV2Router02.sol\":4389:4401  uint amountB */\n      dup1\n        /* \"swap/UniswapV2Router02.sol\":4356:4364  deadline */\n      dup3\n        /* \"swap/UniswapV2Router02.sol\":605:620  block.timestamp */\n      timestamp\n        /* \"swap/UniswapV2Router02.sol\":593:601  deadline */\n      dup2\n        /* \"swap/UniswapV2Router02.sol\":593:620  deadline >= block.timestamp */\n      lt\n      iszero\n        /* \"swap/UniswapV2Router02.sol\":585:649  require(deadline >= block.timestamp, 'UniswapV2Router: EXPIRED') */\n      tag_399\n      jumpi\n      0x40\n      dup1\n      mload\n      shl(0xe5, 0x461bcd)\n      dup2\n      mstore\n      0x20\n      0x04\n      dup3\n      add\n      mstore\n      0x18\n      0x24\n      dup3\n      add\n      mstore\n      0x00\n      dup1\n      mload\n      0x20\n      data_ee5734acb032ffb1bbaf889d52ccf9fbd1ce0f1ae12bee2c46068d51b910e2c5\n      dup4\n      codecopy\n      dup2\n      mload\n      swap2\n      mstore\n      0x44\n      dup3\n      add\n      mstore\n      swap1\n      mload\n      swap1\n      dup2\n      swap1\n      sub\n      0x64\n      add\n      swap1\n      revert\n    tag_399:\n        /* \"swap/UniswapV2Router02.sol\":4414:4426  address pair */\n      0x00\n        /* \"swap/UniswapV2Router02.sol\":4429:4478  UniswapV2Library.pairFor(factory, tokenA, tokenB) */\n      tag_401\n        /* \"swap/UniswapV2Router02.sol\":4454:4461  factory */\n      immutable(\"0x277ab82e5a4641341820a4a2933a62c1de997e42e92548657ae21b3728d580fe\")\n        /* \"swap/UniswapV2Router02.sol\":4463:4469  tokenA */\n      dup13\n        /* \"swap/UniswapV2Router02.sol\":4471:4477  tokenB */\n      dup13\n        /* \"swap/UniswapV2Router02.sol\":4429:4453  UniswapV2Library.pairFor */\n      tag_208\n        /* \"swap/UniswapV2Router02.sol\":4429:4478  UniswapV2Library.pairFor(factory, tokenA, tokenB) */\n      jump\t// in\n    tag_401:\n        /* \"swap/UniswapV2Router02.sol\":4489:4551  IUniswapV2Pair(pair).transferFrom(msg.sender, pair, liquidity) */\n      0x40\n      dup1\n      mload\n      shl(0xe0, 0x23b872dd)\n      dup2\n      mstore\n        /* \"swap/UniswapV2Router02.sol\":4523:4533  msg.sender */\n      caller\n        /* \"swap/UniswapV2Router02.sol\":4489:4551  IUniswapV2Pair(pair).transferFrom(msg.sender, pair, liquidity) */\n      0x04\n      dup3\n      add\n      mstore\n      sub(shl(0xa0, 0x01), 0x01)\n        /* \"swap/UniswapV2Router02.sol\":4489:4522  IUniswapV2Pair(pair).transferFrom */\n      dup4\n      and\n        /* \"swap/UniswapV2Router02.sol\":4489:4551  IUniswapV2Pair(pair).transferFrom(msg.sender, pair, liquidity) */\n      0x24\n      dup3\n      add\n      dup2\n      swap1\n      mstore\n      0x44\n      dup3\n      add\n      dup14\n      swap1\n      mstore\n      swap2\n      mload\n        /* \"swap/UniswapV2Router02.sol\":4414:4478  address pair = UniswapV2Library.pairFor(factory, tokenA, tokenB) */\n      swap3\n      swap4\n      pop\n        /* \"swap/UniswapV2Router02.sol\":4489:4522  IUniswapV2Pair(pair).transferFrom */\n      swap1\n      swap2\n      0x23b872dd\n      swap2\n        /* \"swap/UniswapV2Router02.sol\":4489:4551  IUniswapV2Pair(pair).transferFrom(msg.sender, pair, liquidity) */\n      0x64\n      dup1\n      dup3\n      add\n      swap3\n      0x20\n      swap3\n      swap1\n      swap2\n      swap1\n      dup3\n      swap1\n      sub\n      add\n      dup2\n      0x00\n        /* \"swap/UniswapV2Router02.sol\":4489:4522  IUniswapV2Pair(pair).transferFrom */\n      dup8\n        /* \"swap/UniswapV2Router02.sol\":4489:4551  IUniswapV2Pair(pair).transferFrom(msg.sender, pair, liquidity) */\n      dup1\n      extcodesize\n      iszero\n      dup1\n      iszero\n      tag_402\n      jumpi\n      0x00\n      dup1\n      revert\n    tag_402:\n      pop\n      gas\n      call\n      iszero\n      dup1\n      iszero\n      tag_404\n      jumpi\n      returndatasize\n      0x00\n      dup1\n      returndatacopy\n      revert(0x00, returndatasize)\n    tag_404:\n      pop\n      pop\n      pop\n      pop\n      mload(0x40)\n      returndatasize\n      0x20\n      dup2\n      lt\n      iszero\n      tag_405\n      jumpi\n      0x00\n      dup1\n      revert\n    tag_405:\n      pop\n      pop\n        /* \"swap/UniswapV2Router02.sol\":4619:4648  IUniswapV2Pair(pair).burn(to) */\n      0x40\n      dup1\n      mload\n      shl(0xe2, 0x226bf2d1)\n      dup2\n      mstore\n      sub(shl(0xa0, 0x01), 0x01)\n      dup9\n      dup2\n      and\n      0x04\n      dup4\n      add\n      mstore\n      dup3\n      mload\n        /* \"swap/UniswapV2Router02.sol\":4589:4601  uint amount0 */\n      0x00\n      swap4\n      dup5\n      swap4\n        /* \"swap/UniswapV2Router02.sol\":4619:4644  IUniswapV2Pair(pair).burn */\n      swap3\n      dup7\n      and\n      swap3\n      0x89afcb44\n      swap3\n        /* \"swap/UniswapV2Router02.sol\":4619:4648  IUniswapV2Pair(pair).burn(to) */\n      0x24\n      dup1\n      dup4\n      add\n      swap4\n      swap3\n      dup3\n      swap1\n      sub\n      add\n      dup2\n        /* \"swap/UniswapV2Router02.sol\":4589:4601  uint amount0 */\n      dup8\n        /* \"swap/UniswapV2Router02.sol\":4619:4644  IUniswapV2Pair(pair).burn */\n      dup8\n        /* \"swap/UniswapV2Router02.sol\":4619:4648  IUniswapV2Pair(pair).burn(to) */\n      dup1\n      extcodesize\n      iszero\n      dup1\n      iszero\n      tag_406\n      jumpi\n      0x00\n      dup1\n      revert\n    tag_406:\n      pop\n      gas\n      call\n      iszero\n      dup1\n      iszero\n      tag_408\n      jumpi\n      returndatasize\n      0x00\n      dup1\n      returndatacopy\n      revert(0x00, returndatasize)\n    tag_408:\n      pop\n      pop\n      pop\n      pop\n      mload(0x40)\n      returndatasize\n      0x40\n      dup2\n      lt\n      iszero\n      tag_409\n      jumpi\n      0x00\n      dup1\n      revert\n    tag_409:\n      pop\n      dup1\n      mload\n      0x20\n      swap1\n      swap2\n      add\n      mload\n      swap1\n      swap3\n      pop\n      swap1\n      pop\n        /* \"swap/UniswapV2Router02.sol\":4660:4674  address token0 */\n      0x00\n        /* \"swap/UniswapV2Router02.sol\":4679:4722  UniswapV2Library.sortTokens(tokenA, tokenB) */\n      tag_410\n        /* \"swap/UniswapV2Router02.sol\":4707:4713  tokenA */\n      dup15\n        /* \"swap/UniswapV2Router02.sol\":4715:4721  tokenB */\n      dup15\n        /* \"swap/UniswapV2Router02.sol\":4679:4706  UniswapV2Library.sortTokens */\n      tag_411\n        /* \"swap/UniswapV2Router02.sol\":4679:4722  UniswapV2Library.sortTokens(tokenA, tokenB) */\n      jump\t// in\n    tag_410:\n        /* \"swap/UniswapV2Router02.sol\":4659:4722  (address token0,) = UniswapV2Library.sortTokens(tokenA, tokenB) */\n      pop\n      swap1\n      pop\n        /* \"swap/UniswapV2Router02.sol\":4764:4770  token0 */\n      dup1\n      sub(shl(0xa0, 0x01), 0x01)\n        /* \"swap/UniswapV2Router02.sol\":4754:4770  tokenA == token0 */\n      and\n        /* \"swap/UniswapV2Router02.sol\":4754:4760  tokenA */\n      dup15\n      sub(shl(0xa0, 0x01), 0x01)\n        /* \"swap/UniswapV2Router02.sol\":4754:4770  tokenA == token0 */\n      and\n      eq\n        /* \"swap/UniswapV2Router02.sol\":4754:4812  tokenA == token0 ? (amount0, amount1) : (amount1, amount0) */\n      tag_412\n      jumpi\n        /* \"swap/UniswapV2Router02.sol\":4795:4802  amount1 */\n      dup2\n        /* \"swap/UniswapV2Router02.sol\":4804:4811  amount0 */\n      dup4\n        /* \"swap/UniswapV2Router02.sol\":4754:4812  tokenA == token0 ? (amount0, amount1) : (amount1, amount0) */\n      jump(tag_413)\n    tag_412:\n        /* \"swap/UniswapV2Router02.sol\":4774:4781  amount0 */\n      dup3\n        /* \"swap/UniswapV2Router02.sol\":4783:4790  amount1 */\n      dup3\n        /* \"swap/UniswapV2Router02.sol\":4754:4812  tokenA == token0 ? (amount0, amount1) : (amount1, amount0) */\n    tag_413:\n        /* \"swap/UniswapV2Router02.sol\":4733:4812  (amountA, amountB) = tokenA == token0 ? (amount0, amount1) : (amount1, amount0) */\n      swap1\n      swap8\n      pop\n      swap6\n      pop\n        /* \"swap/UniswapV2Router02.sol\":4831:4852  amountA >= amountAMin */\n      dup11\n      dup8\n      lt\n      iszero\n        /* \"swap/UniswapV2Router02.sol\":4823:4895  require(amountA >= amountAMin, 'UniswapV2Router: INSUFFICIENT_A_AMOUNT') */\n      tag_414\n      jumpi\n      mload(0x40)\n      shl(0xe5, 0x461bcd)\n      dup2\n      mstore\n      0x04\n      add\n      dup1\n      dup1\n      0x20\n      add\n      dup3\n      dup2\n      sub\n      dup3\n      mstore\n      0x26\n      dup2\n      mstore\n      0x20\n      add\n      dup1\n      data_d1d32edc232bc1da2150d590567c5d6321ade8a80edcd2485e6068d018c7fd67\n      0x26\n      swap2\n      codecopy\n      0x40\n      add\n      swap2\n      pop\n      pop\n      mload(0x40)\n      dup1\n      swap2\n      sub\n      swap1\n      revert\n    tag_414:\n        /* \"swap/UniswapV2Router02.sol\":4925:4935  amountBMin */\n      dup10\n        /* \"swap/UniswapV2Router02.sol\":4914:4921  amountB */\n      dup7\n        /* \"swap/UniswapV2Router02.sol\":4914:4935  amountB >= amountBMin */\n      lt\n      iszero\n        /* \"swap/UniswapV2Router02.sol\":4906:4978  require(amountB >= amountBMin, 'UniswapV2Router: INSUFFICIENT_B_AMOUNT') */\n      tag_415\n      jumpi\n      mload(0x40)\n      shl(0xe5, 0x461bcd)\n      dup2\n      mstore\n      0x04\n      add\n      dup1\n      dup1\n      0x20\n      add\n      dup3\n      dup2\n      sub\n      dup3\n      mstore\n      0x26\n      dup2\n      mstore\n      0x20\n      add\n      dup1\n      data_508673fa99dd55571c7741114b40754785309d1a2171022cd7c5caaae38fc7b6\n      0x26\n      swap2\n      codecopy\n      0x40\n      add\n      swap2\n      pop\n      pop\n      mload(0x40)\n      dup1\n      swap2\n      sub\n      swap1\n      revert\n    tag_415:\n        /* \"swap/UniswapV2Router02.sol\":660:661  _ */\n      pop\n      pop\n      pop\n      pop\n        /* \"swap/UniswapV2Router02.sol\":4121:4986  function removeLiquidity(\r... */\n      pop\n      swap8\n      pop\n      swap8\n      swap6\n      pop\n      pop\n      pop\n      pop\n      pop\n      pop\n      jump\t// out\n        /* \"swap/UniswapV2Router02.sol\":448:489  address public immutable override factory */\n    tag_149:\n      immutable(\"0x277ab82e5a4641341820a4a2933a62c1de997e42e92548657ae21b3728d580fe\")\n      dup2\n      jump\t// out\n        /* \"swap/UniswapV2Router02.sol\":18441:18694  function getAmountsOut(uint amountIn, address[] memory path)\r... */\n    tag_156:\n        /* \"swap/UniswapV2Router02.sol\":18585:18606  uint[] memory amounts */\n      0x60\n        /* \"swap/UniswapV2Router02.sol\":18631:18686  UniswapV2Library.getAmountsOut(factory, amountIn, path) */\n      tag_220\n        /* \"swap/UniswapV2Router02.sol\":18662:18669  factory */\n      immutable(\"0x277ab82e5a4641341820a4a2933a62c1de997e42e92548657ae21b3728d580fe\")\n        /* \"swap/UniswapV2Router02.sol\":18671:18679  amountIn */\n      dup5\n        /* \"swap/UniswapV2Router02.sol\":18681:18685  path */\n      dup5\n        /* \"swap/UniswapV2Router02.sol\":18631:18661  UniswapV2Library.getAmountsOut */\n      tag_200\n        /* \"swap/UniswapV2Router02.sol\":18631:18686  UniswapV2Library.getAmountsOut(factory, amountIn, path) */\n      jump\t// in\n        /* \"swap/UniswapV2Router02.sol\":6354:7023  function removeLiquidityETHWithPermit(\r... */\n    tag_163:\n        /* \"swap/UniswapV2Router02.sol\":6643:6659  uint amountToken */\n      0x00\n        /* \"swap/UniswapV2Router02.sol\":6661:6675  uint amountETH */\n      dup1\n        /* \"swap/UniswapV2Router02.sol\":6688:6700  address pair */\n      0x00\n        /* \"swap/UniswapV2Router02.sol\":6703:6749  UniswapV2Library.pairFor(factory, token, WETH) */\n      tag_419\n        /* \"swap/UniswapV2Router02.sol\":6728:6735  factory */\n      immutable(\"0x277ab82e5a4641341820a4a2933a62c1de997e42e92548657ae21b3728d580fe\")\n        /* \"swap/UniswapV2Router02.sol\":6737:6742  token */\n      dup15\n        /* \"swap/UniswapV2Router02.sol\":6744:6748  WETH */\n      immutable(\"0x939eb54753ed0cc7e2272bfb34cbe098308c93936ed54d79078f76ade0b2e789\")\n        /* \"swap/UniswapV2Router02.sol\":6703:6727  UniswapV2Library.pairFor */\n      tag_208\n        /* \"swap/UniswapV2Router02.sol\":6703:6749  UniswapV2Library.pairFor(factory, token, WETH) */\n      jump\t// in\n    tag_419:\n        /* \"swap/UniswapV2Router02.sol\":6688:6749  address pair = UniswapV2Library.pairFor(factory, token, WETH) */\n      swap1\n      pop\n        /* \"swap/UniswapV2Router02.sol\":6760:6770  uint value */\n      0x00\n        /* \"swap/UniswapV2Router02.sol\":6773:6783  approveMax */\n      dup8\n        /* \"swap/UniswapV2Router02.sol\":6773:6806  approveMax ? uint(-1) : liquidity */\n      tag_420\n      jumpi\n        /* \"swap/UniswapV2Router02.sol\":6797:6806  liquidity */\n      dup13\n        /* \"swap/UniswapV2Router02.sol\":6773:6806  approveMax ? uint(-1) : liquidity */\n      jump(tag_421)\n    tag_420:\n      not(0x00)\n    tag_421:\n        /* \"swap/UniswapV2Router02.sol\":6817:6897  IUniswapV2Pair(pair).permit(msg.sender, address(this), value, deadline, v, r, s) */\n      0x40\n      dup1\n      mload\n      shl(0xe0, 0xd505accf)\n      dup2\n      mstore\n        /* \"swap/UniswapV2Router02.sol\":6845:6855  msg.sender */\n      caller\n        /* \"swap/UniswapV2Router02.sol\":6817:6897  IUniswapV2Pair(pair).permit(msg.sender, address(this), value, deadline, v, r, s) */\n      0x04\n      dup3\n      add\n      mstore\n        /* \"swap/UniswapV2Router02.sol\":6865:6869  this */\n      address\n        /* \"swap/UniswapV2Router02.sol\":6817:6897  IUniswapV2Pair(pair).permit(msg.sender, address(this), value, deadline, v, r, s) */\n      0x24\n      dup3\n      add\n      mstore\n      0x44\n      dup2\n      add\n      dup4\n      swap1\n      mstore\n      0x64\n      dup2\n      add\n      dup13\n      swap1\n      mstore\n      0xff\n      dup11\n      and\n      0x84\n      dup3\n      add\n      mstore\n      0xa4\n      dup2\n      add\n      dup10\n      swap1\n      mstore\n      0xc4\n      dup2\n      add\n      dup9\n      swap1\n      mstore\n      swap1\n      mload\n        /* \"swap/UniswapV2Router02.sol\":6760:6806  uint value = approveMax ? uint(-1) : liquidity */\n      swap2\n      swap3\n      pop\n      sub(shl(0xa0, 0x01), 0x01)\n        /* \"swap/UniswapV2Router02.sol\":6817:6844  IUniswapV2Pair(pair).permit */\n      dup5\n      and\n      swap2\n      0xd505accf\n      swap2\n        /* \"swap/UniswapV2Router02.sol\":6817:6897  IUniswapV2Pair(pair).permit(msg.sender, address(this), value, deadline, v, r, s) */\n      0xe4\n      dup1\n      dup3\n      add\n      swap3\n      0x00\n      swap3\n      swap1\n      swap2\n      swap1\n      dup3\n      swap1\n      sub\n      add\n      dup2\n      dup4\n        /* \"swap/UniswapV2Router02.sol\":6817:6844  IUniswapV2Pair(pair).permit */\n      dup8\n        /* \"swap/UniswapV2Router02.sol\":6817:6897  IUniswapV2Pair(pair).permit(msg.sender, address(this), value, deadline, v, r, s) */\n      dup1\n      extcodesize\n      iszero\n      dup1\n      iszero\n      tag_422\n      jumpi\n      0x00\n      dup1\n      revert\n    tag_422:\n      pop\n      gas\n      call\n      iszero\n      dup1\n      iszero\n      tag_424\n      jumpi\n      returndatasize\n      0x00\n      dup1\n      returndatacopy\n      revert(0x00, returndatasize)\n    tag_424:\n      pop\n      pop\n      pop\n      pop\n        /* \"swap/UniswapV2Router02.sol\":6935:7015  removeLiquidityETH(token, liquidity, amountTokenMin, amountETHMin, to, deadline) */\n      tag_425\n        /* \"swap/UniswapV2Router02.sol\":6954:6959  token */\n      dup15\n        /* \"swap/UniswapV2Router02.sol\":6961:6970  liquidity */\n      dup15\n        /* \"swap/UniswapV2Router02.sol\":6972:6986  amountTokenMin */\n      dup15\n        /* \"swap/UniswapV2Router02.sol\":6988:7000  amountETHMin */\n      dup15\n        /* \"swap/UniswapV2Router02.sol\":7002:7004  to */\n      dup15\n        /* \"swap/UniswapV2Router02.sol\":7006:7014  deadline */\n      dup15\n        /* \"swap/UniswapV2Router02.sol\":6935:6953  removeLiquidityETH */\n      tag_36\n        /* \"swap/UniswapV2Router02.sol\":6935:7015  removeLiquidityETH(token, liquidity, amountTokenMin, amountETHMin, to, deadline) */\n      jump\t// in\n    tag_425:\n        /* \"swap/UniswapV2Router02.sol\":6908:7015  (amountToken, amountETH) = removeLiquidityETH(token, liquidity, amountTokenMin, amountETHMin, to, deadline) */\n      swap1\n      swap16\n      swap1\n      swap15\n      pop\n        /* \"swap/UniswapV2Router02.sol\":6354:7023  function removeLiquidityETHWithPermit(\r... */\n      swap13\n      pop\n      pop\n      pop\n      pop\n      pop\n      pop\n      pop\n      pop\n      pop\n      pop\n      pop\n      pop\n      pop\n      jump\t// out\n        /* \"swap/UniswapV2Router02.sol\":2360:3098  function addLiquidity(\r... */\n    tag_167:\n        /* \"swap/UniswapV2Router02.sol\":2648:2660  uint amountA */\n      0x00\n        /* \"swap/UniswapV2Router02.sol\":2662:2674  uint amountB */\n      dup1\n        /* \"swap/UniswapV2Router02.sol\":2676:2690  uint liquidity */\n      0x00\n        /* \"swap/UniswapV2Router02.sol\":2629:2637  deadline */\n      dup4\n        /* \"swap/UniswapV2Router02.sol\":605:620  block.timestamp */\n      timestamp\n        /* \"swap/UniswapV2Router02.sol\":593:601  deadline */\n      dup2\n        /* \"swap/UniswapV2Router02.sol\":593:620  deadline >= block.timestamp */\n      lt\n      iszero\n        /* \"swap/UniswapV2Router02.sol\":585:649  require(deadline >= block.timestamp, 'UniswapV2Router: EXPIRED') */\n      tag_427\n      jumpi\n      0x40\n      dup1\n      mload\n      shl(0xe5, 0x461bcd)\n      dup2\n      mstore\n      0x20\n      0x04\n      dup3\n      add\n      mstore\n      0x18\n      0x24\n      dup3\n      add\n      mstore\n      0x00\n      dup1\n      mload\n      0x20\n      data_ee5734acb032ffb1bbaf889d52ccf9fbd1ce0f1ae12bee2c46068d51b910e2c5\n      dup4\n      codecopy\n      dup2\n      mload\n      swap2\n      mstore\n      0x44\n      dup3\n      add\n      mstore\n      swap1\n      mload\n      swap1\n      dup2\n      swap1\n      sub\n      0x64\n      add\n      swap1\n      revert\n    tag_427:\n        /* \"swap/UniswapV2Router02.sol\":2724:2809  _addLiquidity(tokenA, tokenB, amountADesired, amountBDesired, amountAMin, amountBMin) */\n      tag_429\n        /* \"swap/UniswapV2Router02.sol\":2738:2744  tokenA */\n      dup13\n        /* \"swap/UniswapV2Router02.sol\":2746:2752  tokenB */\n      dup13\n        /* \"swap/UniswapV2Router02.sol\":2754:2768  amountADesired */\n      dup13\n        /* \"swap/UniswapV2Router02.sol\":2770:2784  amountBDesired */\n      dup13\n        /* \"swap/UniswapV2Router02.sol\":2786:2796  amountAMin */\n      dup13\n        /* \"swap/UniswapV2Router02.sol\":2798:2808  amountBMin */\n      dup13\n        /* \"swap/UniswapV2Router02.sol\":2724:2737  _addLiquidity */\n      tag_430\n        /* \"swap/UniswapV2Router02.sol\":2724:2809  _addLiquidity(tokenA, tokenB, amountADesired, amountBDesired, amountAMin, amountBMin) */\n      jump\t// in\n    tag_429:\n        /* \"swap/UniswapV2Router02.sol\":2703:2809  (amountA, amountB) = _addLiquidity(tokenA, tokenB, amountADesired, amountBDesired, amountAMin, amountBMin) */\n      swap1\n      swap5\n      pop\n      swap3\n      pop\n        /* \"swap/UniswapV2Router02.sol\":2820:2832  address pair */\n      0x00\n        /* \"swap/UniswapV2Router02.sol\":2835:2884  UniswapV2Library.pairFor(factory, tokenA, tokenB) */\n      tag_431\n        /* \"swap/UniswapV2Router02.sol\":2860:2867  factory */\n      immutable(\"0x277ab82e5a4641341820a4a2933a62c1de997e42e92548657ae21b3728d580fe\")\n        /* \"swap/UniswapV2Router02.sol\":2869:2875  tokenA */\n      dup15\n        /* \"swap/UniswapV2Router02.sol\":2877:2883  tokenB */\n      dup15\n        /* \"swap/UniswapV2Router02.sol\":2835:2859  UniswapV2Library.pairFor */\n      tag_208\n        /* \"swap/UniswapV2Router02.sol\":2835:2884  UniswapV2Library.pairFor(factory, tokenA, tokenB) */\n      jump\t// in\n    tag_431:\n        /* \"swap/UniswapV2Router02.sol\":2820:2884  address pair = UniswapV2Library.pairFor(factory, tokenA, tokenB) */\n      swap1\n      pop\n        /* \"swap/UniswapV2Router02.sol\":2895:2961  TransferHelper.safeTransferFrom(tokenA, msg.sender, pair, amountA) */\n      tag_432\n        /* \"swap/UniswapV2Router02.sol\":2927:2933  tokenA */\n      dup14\n        /* \"swap/UniswapV2Router02.sol\":2935:2945  msg.sender */\n      caller\n        /* \"swap/UniswapV2Router02.sol\":2947:2951  pair */\n      dup4\n        /* \"swap/UniswapV2Router02.sol\":2953:2960  amountA */\n      dup9\n        /* \"swap/UniswapV2Router02.sol\":2895:2926  TransferHelper.safeTransferFrom */\n      tag_210\n        /* \"swap/UniswapV2Router02.sol\":2895:2961  TransferHelper.safeTransferFrom(tokenA, msg.sender, pair, amountA) */\n      jump\t// in\n    tag_432:\n        /* \"swap/UniswapV2Router02.sol\":2972:3038  TransferHelper.safeTransferFrom(tokenB, msg.sender, pair, amountB) */\n      tag_433\n        /* \"swap/UniswapV2Router02.sol\":3004:3010  tokenB */\n      dup13\n        /* \"swap/UniswapV2Router02.sol\":3012:3022  msg.sender */\n      caller\n        /* \"swap/UniswapV2Router02.sol\":3024:3028  pair */\n      dup4\n        /* \"swap/UniswapV2Router02.sol\":3030:3037  amountB */\n      dup8\n        /* \"swap/UniswapV2Router02.sol\":2972:3003  TransferHelper.safeTransferFrom */\n      tag_210\n        /* \"swap/UniswapV2Router02.sol\":2972:3038  TransferHelper.safeTransferFrom(tokenB, msg.sender, pair, amountB) */\n      jump\t// in\n    tag_433:\n        /* \"swap/UniswapV2Router02.sol\":3076:3080  pair */\n      dup1\n      sub(shl(0xa0, 0x01), 0x01)\n        /* \"swap/UniswapV2Router02.sol\":3061:3086  IUniswapV2Pair(pair).mint */\n      and\n      0x6a627842\n        /* \"swap/UniswapV2Router02.sol\":3087:3089  to */\n      dup9\n        /* \"swap/UniswapV2Router02.sol\":3061:3090  IUniswapV2Pair(pair).mint(to) */\n      mload(0x40)\n      dup3\n      0xffffffff\n      and\n      0xe0\n      shl\n      dup2\n      mstore\n      0x04\n      add\n      dup1\n      dup3\n      sub(shl(0xa0, 0x01), 0x01)\n      and\n      dup2\n      mstore\n      0x20\n      add\n      swap2\n      pop\n      pop\n      0x20\n      mload(0x40)\n      dup1\n      dup4\n      sub\n      dup2\n      0x00\n      dup8\n      dup1\n      extcodesize\n      iszero\n      dup1\n      iszero\n      tag_434\n      jumpi\n      0x00\n      dup1\n      revert\n    tag_434:\n      pop\n      gas\n      call\n      iszero\n      dup1\n      iszero\n      tag_436\n      jumpi\n      returndatasize\n      0x00\n      dup1\n      returndatacopy\n      revert(0x00, returndatasize)\n    tag_436:\n      pop\n      pop\n      pop\n      pop\n      mload(0x40)\n      returndatasize\n      0x20\n      dup2\n      lt\n      iszero\n      tag_437\n      jumpi\n      0x00\n      dup1\n      revert\n    tag_437:\n      pop\n      mload\n        /* \"swap/UniswapV2Router02.sol\":2360:3098  function addLiquidity(\r... */\n      swap5\n      swap14\n      swap4\n      swap13\n      pop\n        /* \"swap/UniswapV2Router02.sol\":3061:3090  IUniswapV2Pair(pair).mint(to) */\n      swap4\n      swap11\n      pop\n        /* \"swap/UniswapV2Router02.sol\":2360:3098  function addLiquidity(\r... */\n      swap2\n      swap9\n      pop\n      pop\n      pop\n      pop\n      pop\n      pop\n      pop\n      pop\n      pop\n      jump\t// out\n        /* \"swap/UniswapV2Router02.sol\":3104:4078  function addLiquidityETH(\r... */\n    tag_170:\n        /* \"swap/UniswapV2Router02.sol\":3357:3373  uint amountToken */\n      0x00\n        /* \"swap/UniswapV2Router02.sol\":3375:3389  uint amountETH */\n      dup1\n        /* \"swap/UniswapV2Router02.sol\":3391:3405  uint liquidity */\n      0x00\n        /* \"swap/UniswapV2Router02.sol\":3338:3346  deadline */\n      dup4\n        /* \"swap/UniswapV2Router02.sol\":605:620  block.timestamp */\n      timestamp\n        /* \"swap/UniswapV2Router02.sol\":593:601  deadline */\n      dup2\n        /* \"swap/UniswapV2Router02.sol\":593:620  deadline >= block.timestamp */\n      lt\n      iszero\n        /* \"swap/UniswapV2Router02.sol\":585:649  require(deadline >= block.timestamp, 'UniswapV2Router: EXPIRED') */\n      tag_439\n      jumpi\n      0x40\n      dup1\n      mload\n      shl(0xe5, 0x461bcd)\n      dup2\n      mstore\n      0x20\n      0x04\n      dup3\n      add\n      mstore\n      0x18\n      0x24\n      dup3\n      add\n      mstore\n      0x00\n      dup1\n      mload\n      0x20\n      data_ee5734acb032ffb1bbaf889d52ccf9fbd1ce0f1ae12bee2c46068d51b910e2c5\n      dup4\n      codecopy\n      dup2\n      mload\n      swap2\n      mstore\n      0x44\n      dup3\n      add\n      mstore\n      swap1\n      mload\n      swap1\n      dup2\n      swap1\n      sub\n      0x64\n      add\n      swap1\n      revert\n    tag_439:\n        /* \"swap/UniswapV2Router02.sol\":3445:3621  _addLiquidity(\r... */\n      tag_441\n        /* \"swap/UniswapV2Router02.sol\":3473:3478  token */\n      dup11\n        /* \"swap/UniswapV2Router02.sol\":3493:3497  WETH */\n      immutable(\"0x939eb54753ed0cc7e2272bfb34cbe098308c93936ed54d79078f76ade0b2e789\")\n        /* \"swap/UniswapV2Router02.sol\":3512:3530  amountTokenDesired */\n      dup12\n        /* \"swap/UniswapV2Router02.sol\":3545:3554  msg.value */\n      callvalue\n        /* \"swap/UniswapV2Router02.sol\":3569:3583  amountTokenMin */\n      dup13\n        /* \"swap/UniswapV2Router02.sol\":3598:3610  amountETHMin */\n      dup13\n        /* \"swap/UniswapV2Router02.sol\":3445:3458  _addLiquidity */\n      tag_430\n        /* \"swap/UniswapV2Router02.sol\":3445:3621  _addLiquidity(\r... */\n      jump\t// in\n    tag_441:\n        /* \"swap/UniswapV2Router02.sol\":3418:3621  (amountToken, amountETH) = _addLiquidity(\r... */\n      swap1\n      swap5\n      pop\n      swap3\n      pop\n        /* \"swap/UniswapV2Router02.sol\":3632:3644  address pair */\n      0x00\n        /* \"swap/UniswapV2Router02.sol\":3647:3693  UniswapV2Library.pairFor(factory, token, WETH) */\n      tag_442\n        /* \"swap/UniswapV2Router02.sol\":3672:3679  factory */\n      immutable(\"0x277ab82e5a4641341820a4a2933a62c1de997e42e92548657ae21b3728d580fe\")\n        /* \"swap/UniswapV2Router02.sol\":3681:3686  token */\n      dup13\n        /* \"swap/UniswapV2Router02.sol\":3688:3692  WETH */\n      immutable(\"0x939eb54753ed0cc7e2272bfb34cbe098308c93936ed54d79078f76ade0b2e789\")\n        /* \"swap/UniswapV2Router02.sol\":3647:3671  UniswapV2Library.pairFor */\n      tag_208\n        /* \"swap/UniswapV2Router02.sol\":3647:3693  UniswapV2Library.pairFor(factory, token, WETH) */\n      jump\t// in\n    tag_442:\n        /* \"swap/UniswapV2Router02.sol\":3632:3693  address pair = UniswapV2Library.pairFor(factory, token, WETH) */\n      swap1\n      pop\n        /* \"swap/UniswapV2Router02.sol\":3704:3773  TransferHelper.safeTransferFrom(token, msg.sender, pair, amountToken) */\n      tag_443\n        /* \"swap/UniswapV2Router02.sol\":3736:3741  token */\n      dup12\n        /* \"swap/UniswapV2Router02.sol\":3743:3753  msg.sender */\n      caller\n        /* \"swap/UniswapV2Router02.sol\":3755:3759  pair */\n      dup4\n        /* \"swap/UniswapV2Router02.sol\":3761:3772  amountToken */\n      dup9\n        /* \"swap/UniswapV2Router02.sol\":3704:3735  TransferHelper.safeTransferFrom */\n      tag_210\n        /* \"swap/UniswapV2Router02.sol\":3704:3773  TransferHelper.safeTransferFrom(token, msg.sender, pair, amountToken) */\n      jump\t// in\n    tag_443:\n        /* \"swap/UniswapV2Router02.sol\":3790:3794  WETH */\n      immutable(\"0x939eb54753ed0cc7e2272bfb34cbe098308c93936ed54d79078f76ade0b2e789\")\n      sub(shl(0xa0, 0x01), 0x01)\n        /* \"swap/UniswapV2Router02.sol\":3784:3803  IWETH(WETH).deposit */\n      and\n      0xd0e30db0\n        /* \"swap/UniswapV2Router02.sol\":3811:3820  amountETH */\n      dup6\n        /* \"swap/UniswapV2Router02.sol\":3784:3823  IWETH(WETH).deposit{value: amountETH}() */\n      mload(0x40)\n      dup3\n      0xffffffff\n      and\n      0xe0\n      shl\n      dup2\n      mstore\n      0x04\n      add\n      0x00\n      mload(0x40)\n      dup1\n      dup4\n      sub\n      dup2\n      dup6\n      dup9\n      dup1\n      extcodesize\n      iszero\n      dup1\n      iszero\n      tag_444\n      jumpi\n      0x00\n      dup1\n      revert\n    tag_444:\n      pop\n      gas\n      call\n      iszero\n      dup1\n      iszero\n      tag_446\n      jumpi\n      returndatasize\n      0x00\n      dup1\n      returndatacopy\n      revert(0x00, returndatasize)\n    tag_446:\n      pop\n      pop\n      pop\n      pop\n      pop\n        /* \"swap/UniswapV2Router02.sol\":3847:3851  WETH */\n      immutable(\"0x939eb54753ed0cc7e2272bfb34cbe098308c93936ed54d79078f76ade0b2e789\")\n      sub(shl(0xa0, 0x01), 0x01)\n        /* \"swap/UniswapV2Router02.sol\":3841:3861  IWETH(WETH).transfer */\n      and\n      0xa9059cbb\n        /* \"swap/UniswapV2Router02.sol\":3862:3866  pair */\n      dup3\n        /* \"swap/UniswapV2Router02.sol\":3868:3877  amountETH */\n      dup7\n        /* \"swap/UniswapV2Router02.sol\":3841:3878  IWETH(WETH).transfer(pair, amountETH) */\n      mload(0x40)\n      dup4\n      0xffffffff\n      and\n      0xe0\n      shl\n      dup2\n      mstore\n      0x04\n      add\n      dup1\n      dup4\n      sub(shl(0xa0, 0x01), 0x01)\n      and\n      dup2\n      mstore\n      0x20\n      add\n      dup3\n      dup2\n      mstore\n      0x20\n      add\n      swap3\n      pop\n      pop\n      pop\n      0x20\n      mload(0x40)\n      dup1\n      dup4\n      sub\n      dup2\n      0x00\n      dup8\n      dup1\n      extcodesize\n      iszero\n      dup1\n      iszero\n      tag_447\n      jumpi\n      0x00\n      dup1\n      revert\n    tag_447:\n      pop\n      gas\n      call\n      iszero\n      dup1\n      iszero\n      tag_449\n      jumpi\n      returndatasize\n      0x00\n      dup1\n      returndatacopy\n      revert(0x00, returndatasize)\n    tag_449:\n      pop\n      pop\n      pop\n      pop\n      mload(0x40)\n      returndatasize\n      0x20\n      dup2\n      lt\n      iszero\n      tag_450\n      jumpi\n      0x00\n      dup1\n      revert\n    tag_450:\n      pop\n      mload\n        /* \"swap/UniswapV2Router02.sol\":3834:3879  assert(IWETH(WETH).transfer(pair, amountETH)) */\n      tag_451\n      jumpi\n      invalid\n    tag_451:\n        /* \"swap/UniswapV2Router02.sol\":3917:3921  pair */\n      dup1\n      sub(shl(0xa0, 0x01), 0x01)\n        /* \"swap/UniswapV2Router02.sol\":3902:3927  IUniswapV2Pair(pair).mint */\n      and\n      0x6a627842\n        /* \"swap/UniswapV2Router02.sol\":3928:3930  to */\n      dup9\n        /* \"swap/UniswapV2Router02.sol\":3902:3931  IUniswapV2Pair(pair).mint(to) */\n      mload(0x40)\n      dup3\n      0xffffffff\n      and\n      0xe0\n      shl\n      dup2\n      mstore\n      0x04\n      add\n      dup1\n      dup3\n      sub(shl(0xa0, 0x01), 0x01)\n      and\n      dup2\n      mstore\n      0x20\n      add\n      swap2\n      pop\n      pop\n      0x20\n      mload(0x40)\n      dup1\n      dup4\n      sub\n      dup2\n      0x00\n      dup8\n      dup1\n      extcodesize\n      iszero\n      dup1\n      iszero\n      tag_452\n      jumpi\n      0x00\n      dup1\n      revert\n    tag_452:\n      pop\n      gas\n      call\n      iszero\n      dup1\n      iszero\n      tag_454\n      jumpi\n      returndatasize\n      0x00\n      dup1\n      returndatacopy\n      revert(0x00, returndatasize)\n    tag_454:\n      pop\n      pop\n      pop\n      pop\n      mload(0x40)\n      returndatasize\n      0x20\n      dup2\n      lt\n      iszero\n      tag_455\n      jumpi\n      0x00\n      dup1\n      revert\n    tag_455:\n      pop\n      mload\n      swap3\n      pop\n        /* \"swap/UniswapV2Router02.sol\":3982:3991  msg.value */\n      callvalue\n        /* \"swap/UniswapV2Router02.sol\":3982:4003  msg.value > amountETH */\n      dup5\n      lt\n        /* \"swap/UniswapV2Router02.sol\":3978:4070  if (msg.value > amountETH) TransferHelper.safeTransferETH(msg.sender, msg.value - amountETH) */\n      iszero\n      tag_457\n      jumpi\n        /* \"swap/UniswapV2Router02.sol\":4005:4070  TransferHelper.safeTransferETH(msg.sender, msg.value - amountETH) */\n      tag_457\n        /* \"swap/UniswapV2Router02.sol\":4036:4046  msg.sender */\n      caller\n        /* \"swap/UniswapV2Router02.sol\":4060:4069  amountETH */\n      dup6\n        /* \"swap/UniswapV2Router02.sol\":4048:4057  msg.value */\n      callvalue\n        /* \"swap/UniswapV2Router02.sol\":4048:4069  msg.value - amountETH */\n      sub\n        /* \"swap/UniswapV2Router02.sol\":4005:4035  TransferHelper.safeTransferETH */\n      tag_190\n        /* \"swap/UniswapV2Router02.sol\":4005:4070  TransferHelper.safeTransferETH(msg.sender, msg.value - amountETH) */\n      jump\t// in\n    tag_457:\n        /* \"swap/UniswapV2Router02.sol\":660:661  _ */\n      pop\n        /* \"swap/UniswapV2Router02.sol\":3104:4078  function addLiquidityETH(\r... */\n      pop\n      swap7\n      pop\n      swap7\n      pop\n      swap7\n      swap4\n      pop\n      pop\n      pop\n      pop\n      jump\t// out\n        /* \"swap/UniswapV2Router02.sol\":13024:13834  function swapETHForExactTokens(uint amountOut, address[] calldata path, address to, uint deadline)\r... */\n    tag_176:\n        /* \"swap/UniswapV2Router02.sol\":13237:13258  uint[] memory amounts */\n      0x60\n        /* \"swap/UniswapV2Router02.sol\":13209:13217  deadline */\n      dup2\n        /* \"swap/UniswapV2Router02.sol\":605:620  block.timestamp */\n      timestamp\n        /* \"swap/UniswapV2Router02.sol\":593:601  deadline */\n      dup2\n        /* \"swap/UniswapV2Router02.sol\":593:620  deadline >= block.timestamp */\n      lt\n      iszero\n        /* \"swap/UniswapV2Router02.sol\":585:649  require(deadline >= block.timestamp, 'UniswapV2Router: EXPIRED') */\n      tag_459\n      jumpi\n      0x40\n      dup1\n      mload\n      shl(0xe5, 0x461bcd)\n      dup2\n      mstore\n      0x20\n      0x04\n      dup3\n      add\n      mstore\n      0x18\n      0x24\n      dup3\n      add\n      mstore\n      0x00\n      dup1\n      mload\n      0x20\n      data_ee5734acb032ffb1bbaf889d52ccf9fbd1ce0f1ae12bee2c46068d51b910e2c5\n      dup4\n      codecopy\n      dup2\n      mload\n      swap2\n      mstore\n      0x44\n      dup3\n      add\n      mstore\n      swap1\n      mload\n      swap1\n      dup2\n      swap1\n      sub\n      0x64\n      add\n      swap1\n      revert\n    tag_459:\n        /* \"swap/UniswapV2Router02.sol\":13295:13299  WETH */\n      immutable(\"0x939eb54753ed0cc7e2272bfb34cbe098308c93936ed54d79078f76ade0b2e789\")\n      sub(shl(0xa0, 0x01), 0x01)\n        /* \"swap/UniswapV2Router02.sol\":13284:13299  path[0] == WETH */\n      and\n        /* \"swap/UniswapV2Router02.sol\":13284:13288  path */\n      dup7\n      dup7\n        /* \"swap/UniswapV2Router02.sol\":13289:13290  0 */\n      0x00\n        /* \"swap/UniswapV2Router02.sol\":13284:13291  path[0] */\n      dup2\n      dup2\n      lt\n      tag_461\n      jumpi\n      invalid\n    tag_461:\n      swap1\n      pop\n      0x20\n      mul\n      add\n      calldataload\n      sub(shl(0xa0, 0x01), 0x01)\n      and\n      sub(shl(0xa0, 0x01), 0x01)\n        /* \"swap/UniswapV2Router02.sol\":13284:13299  path[0] == WETH */\n      and\n      eq\n        /* \"swap/UniswapV2Router02.sol\":13276:13333  require(path[0] == WETH, 'UniswapV2Router: INVALID_PATH') */\n      tag_462\n      jumpi\n      0x40\n      dup1\n      mload\n      shl(0xe5, 0x461bcd)\n      dup2\n      mstore\n      0x20\n      0x04\n      dup3\n      add\n      mstore\n      0x1d\n      0x24\n      dup3\n      add\n      mstore\n      0x00\n      dup1\n      mload\n      0x20\n      data_c80e789ddaeb930b746bbbcb3afe8331d926679fd96f65d8c7468b735c0a14f2\n      dup4\n      codecopy\n      dup2\n      mload\n      swap2\n      mstore\n      0x44\n      dup3\n      add\n      mstore\n      swap1\n      mload\n      swap1\n      dup2\n      swap1\n      sub\n      0x64\n      add\n      swap1\n      revert\n    tag_462:\n        /* \"swap/UniswapV2Router02.sol\":13354:13409  UniswapV2Library.getAmountsIn(factory, amountOut, path) */\n      tag_463\n        /* \"swap/UniswapV2Router02.sol\":13384:13391  factory */\n      immutable(\"0x277ab82e5a4641341820a4a2933a62c1de997e42e92548657ae21b3728d580fe\")\n        /* \"swap/UniswapV2Router02.sol\":13393:13402  amountOut */\n      dup9\n        /* \"swap/UniswapV2Router02.sol\":13404:13408  path */\n      dup9\n      dup9\n        /* \"swap/UniswapV2Router02.sol\":13354:13409  UniswapV2Library.getAmountsIn(factory, amountOut, path) */\n      dup1\n      dup1\n      0x20\n      mul\n      0x20\n      add\n      mload(0x40)\n      swap1\n      dup2\n      add\n      0x40\n      mstore\n      dup1\n      swap4\n      swap3\n      swap2\n      swap1\n      dup2\n      dup2\n      mstore\n      0x20\n      add\n      dup4\n      dup4\n      0x20\n      mul\n      dup1\n      dup3\n      dup5\n      calldatacopy\n      0x00\n      swap3\n      add\n      swap2\n      swap1\n      swap2\n      mstore\n      pop\n        /* \"swap/UniswapV2Router02.sol\":13354:13383  UniswapV2Library.getAmountsIn */\n      tag_221\n      swap3\n      pop\n      pop\n      pop\n        /* \"swap/UniswapV2Router02.sol\":13354:13409  UniswapV2Library.getAmountsIn(factory, amountOut, path) */\n      jump\t// in\n    tag_463:\n        /* \"swap/UniswapV2Router02.sol\":13344:13409  amounts = UniswapV2Library.getAmountsIn(factory, amountOut, path) */\n      swap2\n      pop\n        /* \"swap/UniswapV2Router02.sol\":13442:13451  msg.value */\n      callvalue\n        /* \"swap/UniswapV2Router02.sol\":13428:13435  amounts */\n      dup3\n        /* \"swap/UniswapV2Router02.sol\":13436:13437  0 */\n      0x00\n        /* \"swap/UniswapV2Router02.sol\":13428:13438  amounts[0] */\n      dup2\n      mload\n      dup2\n      lt\n      tag_464\n      jumpi\n      invalid\n    tag_464:\n      0x20\n      mul\n      0x20\n      add\n      add\n      mload\n        /* \"swap/UniswapV2Router02.sol\":13428:13451  amounts[0] <= msg.value */\n      gt\n      iszero\n        /* \"swap/UniswapV2Router02.sol\":13420:13495  require(amounts[0] <= msg.value, 'UniswapV2Router: EXCESSIVE_INPUT_AMOUNT') */\n      tag_465\n      jumpi\n      mload(0x40)\n      shl(0xe5, 0x461bcd)\n      dup2\n      mstore\n      0x04\n      add\n      dup1\n      dup1\n      0x20\n      add\n      dup3\n      dup2\n      sub\n      dup3\n      mstore\n      0x27\n      dup2\n      mstore\n      0x20\n      add\n      dup1\n      data_bb18004cd22eaad7ea393d184ea6ac1df1428db36bb6fbff8af486232d68ae2c\n      0x27\n      swap2\n      codecopy\n      0x40\n      add\n      swap2\n      pop\n      pop\n      mload(0x40)\n      dup1\n      swap2\n      sub\n      swap1\n      revert\n    tag_465:\n        /* \"swap/UniswapV2Router02.sol\":13512:13516  WETH */\n      immutable(\"0x939eb54753ed0cc7e2272bfb34cbe098308c93936ed54d79078f76ade0b2e789\")\n      sub(shl(0xa0, 0x01), 0x01)\n        /* \"swap/UniswapV2Router02.sol\":13506:13525  IWETH(WETH).deposit */\n      and\n      0xd0e30db0\n        /* \"swap/UniswapV2Router02.sol\":13533:13540  amounts */\n      dup4\n        /* \"swap/UniswapV2Router02.sol\":13541:13542  0 */\n      0x00\n        /* \"swap/UniswapV2Router02.sol\":13533:13543  amounts[0] */\n      dup2\n      mload\n      dup2\n      lt\n      tag_466\n      jumpi\n      invalid\n    tag_466:\n      0x20\n      mul\n      0x20\n      add\n      add\n      mload\n        /* \"swap/UniswapV2Router02.sol\":13506:13546  IWETH(WETH).deposit{value: amounts[0]}() */\n      mload(0x40)\n      dup3\n      0xffffffff\n      and\n      0xe0\n      shl\n      dup2\n      mstore\n      0x04\n      add\n      0x00\n      mload(0x40)\n      dup1\n      dup4\n      sub\n      dup2\n      dup6\n      dup9\n      dup1\n      extcodesize\n      iszero\n      dup1\n      iszero\n      tag_467\n      jumpi\n      0x00\n      dup1\n      revert\n    tag_467:\n      pop\n      gas\n      call\n      iszero\n      dup1\n      iszero\n      tag_469\n      jumpi\n      returndatasize\n      0x00\n      dup1\n      returndatacopy\n      revert(0x00, returndatasize)\n    tag_469:\n      pop\n      pop\n      pop\n      pop\n      pop\n        /* \"swap/UniswapV2Router02.sol\":13570:13574  WETH */\n      immutable(\"0x939eb54753ed0cc7e2272bfb34cbe098308c93936ed54d79078f76ade0b2e789\")\n      sub(shl(0xa0, 0x01), 0x01)\n        /* \"swap/UniswapV2Router02.sol\":13564:13584  IWETH(WETH).transfer */\n      and\n      0xa9059cbb\n        /* \"swap/UniswapV2Router02.sol\":13585:13636  UniswapV2Library.pairFor(factory, path[0], path[1]) */\n      tag_470\n        /* \"swap/UniswapV2Router02.sol\":13610:13617  factory */\n      immutable(\"0x277ab82e5a4641341820a4a2933a62c1de997e42e92548657ae21b3728d580fe\")\n        /* \"swap/UniswapV2Router02.sol\":13619:13623  path */\n      dup10\n      dup10\n        /* \"swap/UniswapV2Router02.sol\":13624:13625  0 */\n      0x00\n        /* \"swap/UniswapV2Router02.sol\":13619:13626  path[0] */\n      dup2\n      dup2\n      lt\n      tag_278\n      jumpi\n      invalid\n        /* \"swap/UniswapV2Router02.sol\":13585:13636  UniswapV2Library.pairFor(factory, path[0], path[1]) */\n    tag_470:\n        /* \"swap/UniswapV2Router02.sol\":13638:13645  amounts */\n      dup5\n        /* \"swap/UniswapV2Router02.sol\":13646:13647  0 */\n      0x00\n        /* \"swap/UniswapV2Router02.sol\":13638:13648  amounts[0] */\n      dup2\n      mload\n      dup2\n      lt\n      tag_473\n      jumpi\n      invalid\n    tag_473:\n      0x20\n      mul\n      0x20\n      add\n      add\n      mload\n        /* \"swap/UniswapV2Router02.sol\":13564:13649  IWETH(WETH).transfer(UniswapV2Library.pairFor(factory, path[0], path[1]), amounts[0]) */\n      mload(0x40)\n      dup4\n      0xffffffff\n      and\n      0xe0\n      shl\n      dup2\n      mstore\n      0x04\n      add\n      dup1\n      dup4\n      sub(shl(0xa0, 0x01), 0x01)\n      and\n      dup2\n      mstore\n      0x20\n      add\n      dup3\n      dup2\n      mstore\n      0x20\n      add\n      swap3\n      pop\n      pop\n      pop\n      0x20\n      mload(0x40)\n      dup1\n      dup4\n      sub\n      dup2\n      0x00\n      dup8\n      dup1\n      extcodesize\n      iszero\n      dup1\n      iszero\n      tag_474\n      jumpi\n      0x00\n      dup1\n      revert\n    tag_474:\n      pop\n      gas\n      call\n      iszero\n      dup1\n      iszero\n      tag_476\n      jumpi\n      returndatasize\n      0x00\n      dup1\n      returndatacopy\n      revert(0x00, returndatasize)\n    tag_476:\n      pop\n      pop\n      pop\n      pop\n      mload(0x40)\n      returndatasize\n      0x20\n      dup2\n      lt\n      iszero\n      tag_477\n      jumpi\n      0x00\n      dup1\n      revert\n    tag_477:\n      pop\n      mload\n        /* \"swap/UniswapV2Router02.sol\":13557:13650  assert(IWETH(WETH).transfer(UniswapV2Library.pairFor(factory, path[0], path[1]), amounts[0])) */\n      tag_478\n      jumpi\n      invalid\n    tag_478:\n        /* \"swap/UniswapV2Router02.sol\":13661:13685  _swap(amounts, path, to) */\n      tag_479\n        /* \"swap/UniswapV2Router02.sol\":13667:13674  amounts */\n      dup3\n        /* \"swap/UniswapV2Router02.sol\":13676:13680  path */\n      dup8\n      dup8\n        /* \"swap/UniswapV2Router02.sol\":13661:13685  _swap(amounts, path, to) */\n      dup1\n      dup1\n      0x20\n      mul\n      0x20\n      add\n      mload(0x40)\n      swap1\n      dup2\n      add\n      0x40\n      mstore\n      dup1\n      swap4\n      swap3\n      swap2\n      swap1\n      dup2\n      dup2\n      mstore\n      0x20\n      add\n      dup4\n      dup4\n      0x20\n      mul\n      dup1\n      dup3\n      dup5\n      calldatacopy\n      0x00\n      swap3\n      add\n      swap2\n      swap1\n      swap2\n      mstore\n      pop\n        /* \"swap/UniswapV2Router02.sol\":13682:13684  to */\n      dup10\n      swap3\n      pop\n        /* \"swap/UniswapV2Router02.sol\":13661:13666  _swap */\n      tag_212\n      swap2\n      pop\n      pop\n        /* \"swap/UniswapV2Router02.sol\":13661:13685  _swap(amounts, path, to) */\n      jump\t// in\n    tag_479:\n        /* \"swap/UniswapV2Router02.sol\":13748:13755  amounts */\n      dup2\n        /* \"swap/UniswapV2Router02.sol\":13756:13757  0 */\n      0x00\n        /* \"swap/UniswapV2Router02.sol\":13748:13758  amounts[0] */\n      dup2\n      mload\n      dup2\n      lt\n      tag_480\n      jumpi\n      invalid\n    tag_480:\n      0x20\n      mul\n      0x20\n      add\n      add\n      mload\n        /* \"swap/UniswapV2Router02.sol\":13736:13745  msg.value */\n      callvalue\n        /* \"swap/UniswapV2Router02.sol\":13736:13758  msg.value > amounts[0] */\n      gt\n        /* \"swap/UniswapV2Router02.sol\":13732:13826  if (msg.value > amounts[0]) TransferHelper.safeTransferETH(msg.sender, msg.value - amounts[0]) */\n      iszero\n      tag_336\n      jumpi\n        /* \"swap/UniswapV2Router02.sol\":13760:13826  TransferHelper.safeTransferETH(msg.sender, msg.value - amounts[0]) */\n      tag_336\n        /* \"swap/UniswapV2Router02.sol\":13791:13801  msg.sender */\n      caller\n        /* \"swap/UniswapV2Router02.sol\":13815:13822  amounts */\n      dup4\n        /* \"swap/UniswapV2Router02.sol\":13823:13824  0 */\n      0x00\n        /* \"swap/UniswapV2Router02.sol\":13815:13825  amounts[0] */\n      dup2\n      mload\n      dup2\n      lt\n      tag_483\n      jumpi\n      invalid\n    tag_483:\n      0x20\n      mul\n      0x20\n      add\n      add\n      mload\n        /* \"swap/UniswapV2Router02.sol\":13803:13812  msg.value */\n      callvalue\n        /* \"swap/UniswapV2Router02.sol\":13803:13825  msg.value - amounts[0] */\n      sub\n        /* \"swap/UniswapV2Router02.sol\":13760:13790  TransferHelper.safeTransferETH */\n      tag_190\n        /* \"swap/UniswapV2Router02.sol\":13760:13826  TransferHelper.safeTransferETH(msg.sender, msg.value - amounts[0]) */\n      jump\t// in\n        /* \"swap/libraries/TransferHelper.sol\":575:936  function safeTransfer(address token, address to, uint value) internal {\r... */\n    tag_185:\n        /* \"swap/libraries/TransferHelper.sol\":770:815  abi.encodeWithSelector(0xa9059cbb, to, value) */\n      0x40\n      dup1\n      mload\n      sub(shl(0xa0, 0x01), 0x01)\n      dup5\n      dup2\n      and\n      0x24\n      dup4\n      add\n      mstore\n      0x44\n      dup1\n      dup4\n      add\n      dup6\n      swap1\n      mstore\n      dup4\n      mload\n      dup1\n      dup5\n      sub\n      swap1\n      swap2\n      add\n      dup2\n      mstore\n      0x64\n      swap1\n      swap3\n      add\n      dup4\n      mstore\n      0x20\n      dup3\n      add\n      dup1\n      mload\n      sub(shl(0xe0, 0x01), 0x01)\n      and\n      shl(0xe0, 0xa9059cbb)\n      or\n      dup2\n      mstore\n        /* \"swap/libraries/TransferHelper.sol\":759:816  token.call(abi.encodeWithSelector(0xa9059cbb, to, value)) */\n      swap3\n      mload\n      dup3\n      mload\n        /* \"swap/libraries/TransferHelper.sol\":724:736  bool success */\n      0x00\n      swap5\n        /* \"swap/libraries/TransferHelper.sol\":738:755  bytes memory data */\n      0x60\n      swap5\n        /* \"swap/libraries/TransferHelper.sol\":759:769  token.call */\n      swap4\n      dup10\n      and\n      swap4\n        /* \"swap/libraries/TransferHelper.sol\":770:815  abi.encodeWithSelector(0xa9059cbb, to, value) */\n      swap3\n        /* \"swap/libraries/TransferHelper.sol\":759:816  token.call(abi.encodeWithSelector(0xa9059cbb, to, value)) */\n      swap2\n      dup3\n      swap2\n        /* \"swap/libraries/TransferHelper.sol\":770:815  abi.encodeWithSelector(0xa9059cbb, to, value) */\n      swap1\n        /* \"swap/libraries/TransferHelper.sol\":759:816  token.call(abi.encodeWithSelector(0xa9059cbb, to, value)) */\n      dup1\n      dup4\n        /* \"swap/libraries/TransferHelper.sol\":770:815  abi.encodeWithSelector(0xa9059cbb, to, value) */\n      dup4\n        /* \"swap/libraries/TransferHelper.sol\":759:816  token.call(abi.encodeWithSelector(0xa9059cbb, to, value)) */\n    tag_485:\n      0x20\n      dup4\n      lt\n      tag_487\n      jumpi\n      dup1\n      mload\n      dup3\n      mstore\n      not(0x1f)\n      swap1\n      swap3\n      add\n      swap2\n      0x20\n      swap2\n      dup3\n      add\n      swap2\n      add\n      jump(tag_485)\n    tag_487:\n      0x01\n      dup4\n      0x20\n      sub\n      0x0100\n      exp\n      sub\n      dup1\n      not\n      dup3\n      mload\n      and\n      dup2\n      dup5\n      mload\n      and\n      dup1\n      dup3\n      or\n      dup6\n      mstore\n      pop\n      pop\n      pop\n      pop\n      pop\n      pop\n      swap1\n      pop\n      add\n      swap2\n      pop\n      pop\n      0x00\n      mload(0x40)\n      dup1\n      dup4\n      sub\n      dup2\n      0x00\n      dup7\n      gas\n      call\n      swap2\n      pop\n      pop\n      returndatasize\n      dup1\n      0x00\n      dup2\n      eq\n      tag_490\n      jumpi\n      mload(0x40)\n      swap2\n      pop\n      and(add(returndatasize, 0x3f), not(0x1f))\n      dup3\n      add\n      0x40\n      mstore\n      returndatasize\n      dup3\n      mstore\n      returndatasize\n      0x00\n      0x20\n      dup5\n      add\n      returndatacopy\n      jump(tag_489)\n    tag_490:\n      0x60\n      swap2\n      pop\n    tag_489:\n      pop\n        /* \"swap/libraries/TransferHelper.sol\":723:816  (bool success, bytes memory data) = token.call(abi.encodeWithSelector(0xa9059cbb, to, value)) */\n      swap2\n      pop\n      swap2\n      pop\n        /* \"swap/libraries/TransferHelper.sol\":835:842  success */\n      dup2\n        /* \"swap/libraries/TransferHelper.sol\":835:892  success && (data.length == 0 || abi.decode(data, (bool))) */\n      dup1\n      iszero\n      tag_492\n      jumpi\n      pop\n        /* \"swap/libraries/TransferHelper.sol\":847:858  data.length */\n      dup1\n      mload\n        /* \"swap/libraries/TransferHelper.sol\":847:863  data.length == 0 */\n      iszero\n      dup1\n        /* \"swap/libraries/TransferHelper.sol\":847:891  data.length == 0 || abi.decode(data, (bool)) */\n      tag_492\n      jumpi\n      pop\n        /* \"swap/libraries/TransferHelper.sol\":878:882  data */\n      dup1\n        /* \"swap/libraries/TransferHelper.sol\":867:891  abi.decode(data, (bool)) */\n      dup1\n      0x20\n      add\n      swap1\n      mload\n      0x20\n      dup2\n      lt\n      iszero\n      tag_493\n      jumpi\n      0x00\n      dup1\n      revert\n    tag_493:\n      pop\n      mload\n        /* \"swap/libraries/TransferHelper.sol\":847:891  data.length == 0 || abi.decode(data, (bool)) */\n    tag_492:\n        /* \"swap/libraries/TransferHelper.sol\":827:928  require(success && (data.length == 0 || abi.decode(data, (bool))), 'TransferHelper: TRANSFER_FAILED') */\n      tag_494\n      jumpi\n      0x40\n      dup1\n      mload\n      shl(0xe5, 0x461bcd)\n      dup2\n      mstore\n      0x20\n      0x04\n      dup3\n      add\n      mstore\n      0x1f\n      0x24\n      dup3\n      add\n      mstore\n      0x5472616e7366657248656c7065723a205452414e534645525f4641494c454400\n      0x44\n      dup3\n      add\n      mstore\n      swap1\n      mload\n      swap1\n      dup2\n      swap1\n      sub\n      0x64\n      add\n      swap1\n      revert\n    tag_494:\n        /* \"swap/libraries/TransferHelper.sol\":575:936  function safeTransfer(address token, address to, uint value) internal {\r... */\n      pop\n      pop\n      pop\n      pop\n      pop\n      jump\t// out\n        /* \"swap/libraries/TransferHelper.sol\":1354:1549  function safeTransferETH(address to, uint value) internal {\r... */\n    tag_190:\n        /* \"swap/libraries/TransferHelper.sol\":1462:1474  new bytes(0) */\n      0x40\n      dup1\n      mload\n        /* \"swap/libraries/TransferHelper.sol\":1424:1436  bool success */\n      0x00\n        /* \"swap/libraries/TransferHelper.sol\":1462:1474  new bytes(0) */\n      dup1\n      dup3\n      mstore\n      0x20\n      dup3\n      add\n      swap1\n      swap3\n      mstore\n      sub(shl(0xa0, 0x01), 0x01)\n        /* \"swap/libraries/TransferHelper.sol\":1441:1448  to.call */\n      dup5\n      and\n      swap1\n        /* \"swap/libraries/TransferHelper.sol\":1455:1460  value */\n      dup4\n      swap1\n        /* \"swap/libraries/TransferHelper.sol\":1441:1475  to.call{value:value}(new bytes(0)) */\n      mload(0x40)\n      dup1\n      dup3\n      dup1\n      mload\n      swap1\n      0x20\n      add\n      swap1\n      dup1\n      dup4\n      dup4\n    tag_498:\n      0x20\n      dup4\n      lt\n      tag_500\n      jumpi\n      dup1\n      mload\n      dup3\n      mstore\n      not(0x1f)\n      swap1\n      swap3\n      add\n      swap2\n      0x20\n      swap2\n      dup3\n      add\n      swap2\n      add\n      jump(tag_498)\n    tag_500:\n      0x01\n      dup4\n      0x20\n      sub\n      0x0100\n      exp\n      sub\n      dup1\n      not\n      dup3\n      mload\n      and\n      dup2\n      dup5\n      mload\n      and\n      dup1\n      dup3\n      or\n      dup6\n      mstore\n      pop\n      pop\n      pop\n      pop\n      pop\n      pop\n      swap1\n      pop\n      add\n      swap2\n      pop\n      pop\n      0x00\n      mload(0x40)\n      dup1\n      dup4\n      sub\n      dup2\n      dup6\n      dup8\n      gas\n      call\n      swap3\n      pop\n      pop\n      pop\n      returndatasize\n      dup1\n      0x00\n      dup2\n      eq\n      tag_503\n      jumpi\n      mload(0x40)\n      swap2\n      pop\n      and(add(returndatasize, 0x3f), not(0x1f))\n      dup3\n      add\n      0x40\n      mstore\n      returndatasize\n      dup3\n      mstore\n      returndatasize\n      0x00\n      0x20\n      dup5\n      add\n      returndatacopy\n      jump(tag_502)\n    tag_503:\n      0x60\n      swap2\n      pop\n    tag_502:\n      pop\n        /* \"swap/libraries/TransferHelper.sol\":1423:1475  (bool success,) = to.call{value:value}(new bytes(0)) */\n      pop\n      swap1\n      pop\n        /* \"swap/libraries/TransferHelper.sol\":1494:1501  success */\n      dup1\n        /* \"swap/libraries/TransferHelper.sol\":1486:1541  require(success, 'TransferHelper: ETH_TRANSFER_FAILED') */\n      tag_504\n      jumpi\n      mload(0x40)\n      shl(0xe5, 0x461bcd)\n      dup2\n      mstore\n      0x04\n      add\n      dup1\n      dup1\n      0x20\n      add\n      dup3\n      dup2\n      sub\n      dup3\n      mstore\n      0x23\n      dup2\n      mstore\n      0x20\n      add\n      dup1\n      data_d290720a9b119bbeaf8124eb771e119cbea85a2f430cbb39a8fead2398528881\n      0x23\n      swap2\n      codecopy\n      0x40\n      add\n      swap2\n      pop\n      pop\n      mload(0x40)\n      dup1\n      swap2\n      sub\n      swap1\n      revert\n    tag_504:\n        /* \"swap/libraries/TransferHelper.sol\":1354:1549  function safeTransferETH(address to, uint value) internal {\r... */\n      pop\n      pop\n      pop\n      jump\t// out\n        /* \"swap/libraries/UniswapV2Library.sol\":2237:2754  function getAmountOut(uint amountIn, uint reserveIn, uint reserveOut) internal pure returns (uint amountOut) {\r... */\n    tag_193:\n        /* \"swap/libraries/UniswapV2Library.sol\":2330:2344  uint amountOut */\n      0x00\n        /* \"swap/libraries/UniswapV2Library.sol\":2376:2377  0 */\n      dup1\n        /* \"swap/libraries/UniswapV2Library.sol\":2365:2373  amountIn */\n      dup5\n        /* \"swap/libraries/UniswapV2Library.sol\":2365:2377  amountIn > 0 */\n      gt\n        /* \"swap/libraries/UniswapV2Library.sol\":2357:2425  require(amountIn > 0, 'UniswapV2Library: INSUFFICIENT_INPUT_AMOUNT') */\n      tag_506\n      jumpi\n      mload(0x40)\n      shl(0xe5, 0x461bcd)\n      dup2\n      mstore\n      0x04\n      add\n      dup1\n      dup1\n      0x20\n      add\n      dup3\n      dup2\n      sub\n      dup3\n      mstore\n      0x2b\n      dup2\n      mstore\n      0x20\n      add\n      dup1\n      data_ec21b006eb37ef20d0f4abcabd34de6854fa68af48294244e0263dc05c1dbbae\n      0x2b\n      swap2\n      codecopy\n      0x40\n      add\n      swap2\n      pop\n      pop\n      mload(0x40)\n      dup1\n      swap2\n      sub\n      swap1\n      revert\n    tag_506:\n        /* \"swap/libraries/UniswapV2Library.sol\":2456:2457  0 */\n      0x00\n        /* \"swap/libraries/UniswapV2Library.sol\":2444:2453  reserveIn */\n      dup4\n        /* \"swap/libraries/UniswapV2Library.sol\":2444:2457  reserveIn > 0 */\n      gt\n        /* \"swap/libraries/UniswapV2Library.sol\":2444:2475  reserveIn > 0 && reserveOut > 0 */\n      dup1\n      iszero\n      tag_507\n      jumpi\n      pop\n        /* \"swap/libraries/UniswapV2Library.sol\":2474:2475  0 */\n      0x00\n        /* \"swap/libraries/UniswapV2Library.sol\":2461:2471  reserveOut */\n      dup3\n        /* \"swap/libraries/UniswapV2Library.sol\":2461:2475  reserveOut > 0 */\n      gt\n        /* \"swap/libraries/UniswapV2Library.sol\":2444:2475  reserveIn > 0 && reserveOut > 0 */\n    tag_507:\n        /* \"swap/libraries/UniswapV2Library.sol\":2436:2520  require(reserveIn > 0 && reserveOut > 0, 'UniswapV2Library: INSUFFICIENT_LIQUIDITY') */\n      tag_508\n      jumpi\n      mload(0x40)\n      shl(0xe5, 0x461bcd)\n      dup2\n      mstore\n      0x04\n      add\n      dup1\n      dup1\n      0x20\n      add\n      dup3\n      dup2\n      sub\n      dup3\n      mstore\n      0x28\n      dup2\n      mstore\n      0x20\n      add\n      dup1\n      data_7e8d6b265173dbbd87b3b9e2bf4238bea6caf2b2bbeb63f859a738aec9e761c8\n      0x28\n      swap2\n      codecopy\n      0x40\n      add\n      swap2\n      pop\n      pop\n      mload(0x40)\n      dup1\n      swap2\n      sub\n      swap1\n      revert\n    tag_508:\n        /* \"swap/libraries/UniswapV2Library.sol\":2531:2551  uint amountInWithFee */\n      0x00\n        /* \"swap/libraries/UniswapV2Library.sol\":2554:2571  amountIn.mul(997) */\n      tag_509\n        /* \"swap/libraries/UniswapV2Library.sol\":2554:2562  amountIn */\n      dup6\n        /* \"swap/libraries/UniswapV2Library.sol\":2567:2570  997 */\n      0x03e5\n        /* \"swap/libraries/UniswapV2Library.sol\":2554:2566  amountIn.mul */\n      tag_510\n        /* \"swap/libraries/UniswapV2Library.sol\":2554:2571  amountIn.mul(997) */\n      jump\t// in\n    tag_509:\n        /* \"swap/libraries/UniswapV2Library.sol\":2531:2571  uint amountInWithFee = amountIn.mul(997) */\n      swap1\n      pop\n        /* \"swap/libraries/UniswapV2Library.sol\":2582:2596  uint numerator */\n      0x00\n        /* \"swap/libraries/UniswapV2Library.sol\":2599:2630  amountInWithFee.mul(reserveOut) */\n      tag_511\n        /* \"swap/libraries/UniswapV2Library.sol\":2531:2571  uint amountInWithFee = amountIn.mul(997) */\n      dup3\n        /* \"swap/libraries/UniswapV2Library.sol\":2619:2629  reserveOut */\n      dup6\n        /* \"swap/libraries/UniswapV2Library.sol\":2599:2618  amountInWithFee.mul */\n      tag_510\n        /* \"swap/libraries/UniswapV2Library.sol\":2599:2630  amountInWithFee.mul(reserveOut) */\n      jump\t// in\n    tag_511:\n        /* \"swap/libraries/UniswapV2Library.sol\":2582:2630  uint numerator = amountInWithFee.mul(reserveOut) */\n      swap1\n      pop\n        /* \"swap/libraries/UniswapV2Library.sol\":2641:2657  uint denominator */\n      0x00\n        /* \"swap/libraries/UniswapV2Library.sol\":2660:2700  reserveIn.mul(1000).add(amountInWithFee) */\n      tag_512\n        /* \"swap/libraries/UniswapV2Library.sol\":2684:2699  amountInWithFee */\n      dup4\n        /* \"swap/libraries/UniswapV2Library.sol\":2660:2679  reserveIn.mul(1000) */\n      tag_513\n        /* \"swap/libraries/UniswapV2Library.sol\":2660:2669  reserveIn */\n      dup9\n        /* \"swap/libraries/UniswapV2Library.sol\":2674:2678  1000 */\n      0x03e8\n        /* \"swap/libraries/UniswapV2Library.sol\":2660:2673  reserveIn.mul */\n      tag_510\n        /* \"swap/libraries/UniswapV2Library.sol\":2660:2679  reserveIn.mul(1000) */\n      jump\t// in\n    tag_513:\n        /* \"swap/libraries/UniswapV2Library.sol\":2660:2683  reserveIn.mul(1000).add */\n      swap1\n      tag_514\n        /* \"swap/libraries/UniswapV2Library.sol\":2660:2700  reserveIn.mul(1000).add(amountInWithFee) */\n      jump\t// in\n    tag_512:\n        /* \"swap/libraries/UniswapV2Library.sol\":2641:2700  uint denominator = reserveIn.mul(1000).add(amountInWithFee) */\n      swap1\n      pop\n        /* \"swap/libraries/UniswapV2Library.sol\":2735:2746  denominator */\n      dup1\n        /* \"swap/libraries/UniswapV2Library.sol\":2723:2732  numerator */\n      dup3\n        /* \"swap/libraries/UniswapV2Library.sol\":2723:2746  numerator / denominator */\n      dup2\n      tag_515\n      jumpi\n      invalid\n    tag_515:\n      div\n      swap8\n        /* \"swap/libraries/UniswapV2Library.sol\":2237:2754  function getAmountOut(uint amountIn, uint reserveIn, uint reserveOut) internal pure returns (uint amountOut) {\r... */\n      swap7\n      pop\n      pop\n      pop\n      pop\n      pop\n      pop\n      pop\n      jump\t// out\n        /* \"swap/libraries/UniswapV2Library.sol\":3429:3940  function getAmountsOut(address factory, uint amountIn, address[] memory path) internal view returns (uint[] memory amounts) {\r... */\n    tag_200:\n        /* \"swap/libraries/UniswapV2Library.sol\":3530:3551  uint[] memory amounts */\n      0x60\n        /* \"swap/libraries/UniswapV2Library.sol\":3587:3588  2 */\n      0x02\n        /* \"swap/libraries/UniswapV2Library.sol\":3572:3576  path */\n      dup3\n        /* \"swap/libraries/UniswapV2Library.sol\":3572:3583  path.length */\n      mload\n        /* \"swap/libraries/UniswapV2Library.sol\":3572:3588  path.length >= 2 */\n      lt\n      iszero\n        /* \"swap/libraries/UniswapV2Library.sol\":3564:3623  require(path.length >= 2, 'UniswapV2Library: INVALID_PATH') */\n      tag_517\n      jumpi\n      0x40\n      dup1\n      mload\n      shl(0xe5, 0x461bcd)\n      dup2\n      mstore\n      0x20\n      0x04\n      dup3\n      add\n      mstore\n      0x1e\n      0x24\n      dup3\n      add\n      mstore\n      0x556e697377617056324c6962726172793a20494e56414c49445f504154480000\n      0x44\n      dup3\n      add\n      mstore\n      swap1\n      mload\n      swap1\n      dup2\n      swap1\n      sub\n      0x64\n      add\n      swap1\n      revert\n    tag_517:\n        /* \"swap/libraries/UniswapV2Library.sol\":3655:3659  path */\n      dup2\n        /* \"swap/libraries/UniswapV2Library.sol\":3655:3666  path.length */\n      mload\n        /* \"swap/libraries/UniswapV2Library.sol\":3644:3667  new uint[](path.length) */\n      0xffffffffffffffff\n      dup2\n      gt\n      dup1\n      iszero\n      tag_518\n      jumpi\n      0x00\n      dup1\n      revert\n    tag_518:\n      pop\n      mload(0x40)\n      swap1\n      dup1\n      dup3\n      mstore\n      dup1\n      0x20\n      mul\n      0x20\n      add\n      dup3\n      add\n      0x40\n      mstore\n      dup1\n      iszero\n      tag_519\n      jumpi\n      dup2\n      0x20\n      add\n      0x20\n      dup3\n      mul\n      dup1\n      calldatasize\n      dup4\n      calldatacopy\n      add\n      swap1\n      pop\n    tag_519:\n      pop\n        /* \"swap/libraries/UniswapV2Library.sol\":3634:3667  amounts = new uint[](path.length) */\n      swap1\n      pop\n        /* \"swap/libraries/UniswapV2Library.sol\":3691:3699  amountIn */\n      dup3\n        /* \"swap/libraries/UniswapV2Library.sol\":3678:3685  amounts */\n      dup2\n        /* \"swap/libraries/UniswapV2Library.sol\":3686:3687  0 */\n      0x00\n        /* \"swap/libraries/UniswapV2Library.sol\":3678:3688  amounts[0] */\n      dup2\n      mload\n      dup2\n      lt\n      tag_520\n      jumpi\n      invalid\n    tag_520:\n      0x20\n      mul\n      0x20\n      add\n      add\n        /* \"swap/libraries/UniswapV2Library.sol\":3678:3699  amounts[0] = amountIn */\n      dup2\n      dup2\n      mstore\n      pop\n      pop\n        /* \"swap/libraries/UniswapV2Library.sol\":3715:3721  uint i */\n      0x00\n        /* \"swap/libraries/UniswapV2Library.sol\":3710:3933  for (uint i; i < path.length - 1; i++) {\r... */\n    tag_521:\n        /* \"swap/libraries/UniswapV2Library.sol\":3741:3742  1 */\n      0x01\n        /* \"swap/libraries/UniswapV2Library.sol\":3727:3731  path */\n      dup4\n        /* \"swap/libraries/UniswapV2Library.sol\":3727:3738  path.length */\n      mload\n        /* \"swap/libraries/UniswapV2Library.sol\":3727:3742  path.length - 1 */\n      sub\n        /* \"swap/libraries/UniswapV2Library.sol\":3723:3724  i */\n      dup2\n        /* \"swap/libraries/UniswapV2Library.sol\":3723:3742  i < path.length - 1 */\n      lt\n        /* \"swap/libraries/UniswapV2Library.sol\":3710:3933  for (uint i; i < path.length - 1; i++) {\r... */\n      iszero\n      tag_522\n      jumpi\n        /* \"swap/libraries/UniswapV2Library.sol\":3765:3779  uint reserveIn */\n      0x00\n        /* \"swap/libraries/UniswapV2Library.sol\":3781:3796  uint reserveOut */\n      dup1\n        /* \"swap/libraries/UniswapV2Library.sol\":3800:3842  getReserves(factory, path[i], path[i + 1]) */\n      tag_524\n        /* \"swap/libraries/UniswapV2Library.sol\":3812:3819  factory */\n      dup8\n        /* \"swap/libraries/UniswapV2Library.sol\":3821:3825  path */\n      dup7\n        /* \"swap/libraries/UniswapV2Library.sol\":3826:3827  i */\n      dup6\n        /* \"swap/libraries/UniswapV2Library.sol\":3821:3828  path[i] */\n      dup2\n      mload\n      dup2\n      lt\n      tag_525\n      jumpi\n      invalid\n    tag_525:\n      0x20\n      mul\n      0x20\n      add\n      add\n      mload\n        /* \"swap/libraries/UniswapV2Library.sol\":3830:3834  path */\n      dup8\n        /* \"swap/libraries/UniswapV2Library.sol\":3835:3836  i */\n      dup7\n        /* \"swap/libraries/UniswapV2Library.sol\":3839:3840  1 */\n      0x01\n        /* \"swap/libraries/UniswapV2Library.sol\":3835:3840  i + 1 */\n      add\n        /* \"swap/libraries/UniswapV2Library.sol\":3830:3841  path[i + 1] */\n      dup2\n      mload\n      dup2\n      lt\n      tag_526\n      jumpi\n      invalid\n    tag_526:\n      0x20\n      mul\n      0x20\n      add\n      add\n      mload\n        /* \"swap/libraries/UniswapV2Library.sol\":3800:3811  getReserves */\n      tag_527\n        /* \"swap/libraries/UniswapV2Library.sol\":3800:3842  getReserves(factory, path[i], path[i + 1]) */\n      jump\t// in\n    tag_524:\n        /* \"swap/libraries/UniswapV2Library.sol\":3764:3842  (uint reserveIn, uint reserveOut) = getReserves(factory, path[i], path[i + 1]) */\n      swap2\n      pop\n      swap2\n      pop\n        /* \"swap/libraries/UniswapV2Library.sol\":3874:3921  getAmountOut(amounts[i], reserveIn, reserveOut) */\n      tag_528\n        /* \"swap/libraries/UniswapV2Library.sol\":3887:3894  amounts */\n      dup5\n        /* \"swap/libraries/UniswapV2Library.sol\":3895:3896  i */\n      dup5\n        /* \"swap/libraries/UniswapV2Library.sol\":3887:3897  amounts[i] */\n      dup2\n      mload\n      dup2\n      lt\n      tag_529\n      jumpi\n      invalid\n    tag_529:\n      0x20\n      mul\n      0x20\n      add\n      add\n      mload\n        /* \"swap/libraries/UniswapV2Library.sol\":3899:3908  reserveIn */\n      dup4\n        /* \"swap/libraries/UniswapV2Library.sol\":3910:3920  reserveOut */\n      dup4\n        /* \"swap/libraries/UniswapV2Library.sol\":3874:3886  getAmountOut */\n      tag_193\n        /* \"swap/libraries/UniswapV2Library.sol\":3874:3921  getAmountOut(amounts[i], reserveIn, reserveOut) */\n      jump\t// in\n    tag_528:\n        /* \"swap/libraries/UniswapV2Library.sol\":3857:3864  amounts */\n      dup5\n        /* \"swap/libraries/UniswapV2Library.sol\":3865:3866  i */\n      dup5\n        /* \"swap/libraries/UniswapV2Library.sol\":3869:3870  1 */\n      0x01\n        /* \"swap/libraries/UniswapV2Library.sol\":3865:3870  i + 1 */\n      add\n        /* \"swap/libraries/UniswapV2Library.sol\":3857:3871  amounts[i + 1] */\n      dup2\n      mload\n      dup2\n      lt\n      tag_530\n      jumpi\n      invalid\n    tag_530:\n      0x20\n      swap1\n      dup2\n      mul\n      swap2\n      swap1\n      swap2\n      add\n      add\n        /* \"swap/libraries/UniswapV2Library.sol\":3857:3921  amounts[i + 1] = getAmountOut(amounts[i], reserveIn, reserveOut) */\n      mstore\n      pop\n      pop\n        /* \"swap/libraries/UniswapV2Library.sol\":3744:3747  i++ */\n      0x01\n      add\n        /* \"swap/libraries/UniswapV2Library.sol\":3710:3933  for (uint i; i < path.length - 1; i++) {\r... */\n      jump(tag_521)\n    tag_522:\n      pop\n        /* \"swap/libraries/UniswapV2Library.sol\":3429:3940  function getAmountsOut(address factory, uint amountIn, address[] memory path) internal view returns (uint[] memory amounts) {\r... */\n      swap4\n      swap3\n      pop\n      pop\n      pop\n      jump\t// out\n        /* \"swap/libraries/UniswapV2Library.sol\":754:1232  function pairFor(address factory, address tokenA, address tokenB) internal pure returns (address pair) {\r... */\n    tag_208:\n        /* \"swap/libraries/UniswapV2Library.sol\":843:855  address pair */\n      0x00\n        /* \"swap/libraries/UniswapV2Library.sol\":869:883  address token0 */\n      dup1\n        /* \"swap/libraries/UniswapV2Library.sol\":885:899  address token1 */\n      0x00\n        /* \"swap/libraries/UniswapV2Library.sol\":903:929  sortTokens(tokenA, tokenB) */\n      tag_532\n        /* \"swap/libraries/UniswapV2Library.sol\":914:920  tokenA */\n      dup6\n        /* \"swap/libraries/UniswapV2Library.sol\":922:928  tokenB */\n      dup6\n        /* \"swap/libraries/UniswapV2Library.sol\":903:913  sortTokens */\n      tag_411\n        /* \"swap/libraries/UniswapV2Library.sol\":903:929  sortTokens(tokenA, tokenB) */\n      jump\t// in\n    tag_532:\n        /* \"swap/libraries/UniswapV2Library.sol\":1067:1099  abi.encodePacked(token0, token1) */\n      0x40\n      dup1\n      mload\n      not(0xffffffffffffffffffffffff)\n      0x60\n      swap5\n      dup6\n      shl\n      dup2\n      and\n      0x20\n      dup1\n      dup5\n      add\n      swap2\n      swap1\n      swap2\n      mstore\n      swap4\n      dup6\n      shl\n      dup2\n      and\n      0x34\n      dup4\n      add\n      mstore\n      dup3\n      mload\n      0x28\n      dup2\n      dup5\n      sub\n      add\n      dup2\n      mstore\n      0x48\n      dup4\n      add\n      dup5\n      mstore\n        /* \"swap/libraries/UniswapV2Library.sol\":1057:1100  keccak256(abi.encodePacked(token0, token1)) */\n      dup1\n      mload\n      swap1\n      dup6\n      add\n      keccak256\n      not(sub(shl(0xf8, 0x01), 0x01))\n        /* \"swap/libraries/UniswapV2Library.sol\":970:1221  abi.encodePacked(\r... */\n      0x68\n      dup5\n      add\n      mstore\n      swap11\n      swap1\n      swap5\n      shl\n      swap1\n      swap4\n      and\n      0x69\n      dup5\n      add\n      mstore\n      0x7d\n      dup4\n      add\n      swap9\n      swap1\n      swap9\n      mstore\n      0xbd84901879e0fcac8760da6c2cd60f3650843a1c7a14d07dad27e14e0868feb2\n      0x9d\n      dup1\n      dup5\n      add\n      swap2\n      swap1\n      swap2\n      mstore\n      dup9\n      mload\n      dup1\n      dup5\n      sub\n      swap1\n      swap2\n      add\n      dup2\n      mstore\n      0xbd\n      swap1\n      swap3\n      add\n      swap1\n      swap8\n      mstore\n        /* \"swap/libraries/UniswapV2Library.sol\":960:1222  keccak256(abi.encodePacked(\r... */\n      dup1\n      mload\n      swap7\n      add\n      swap6\n      swap1\n      swap6\n      keccak256\n      swap6\n        /* \"swap/libraries/UniswapV2Library.sol\":754:1232  function pairFor(address factory, address tokenA, address tokenB) internal pure returns (address pair) {\r... */\n      swap5\n      pop\n      pop\n      pop\n      pop\n      pop\n      jump\t// out\n        /* \"swap/libraries/TransferHelper.sol\":944:1346  function safeTransferFrom(address token, address from, address to, uint value) internal {\r... */\n    tag_210:\n        /* \"swap/libraries/TransferHelper.sol\":1169:1220  abi.encodeWithSelector(0x23b872dd, from, to, value) */\n      0x40\n      dup1\n      mload\n      sub(shl(0xa0, 0x01), 0x01)\n      dup6\n      dup2\n      and\n      0x24\n      dup4\n      add\n      mstore\n      dup5\n      dup2\n      and\n      0x44\n      dup4\n      add\n      mstore\n      0x64\n      dup1\n      dup4\n      add\n      dup6\n      swap1\n      mstore\n      dup4\n      mload\n      dup1\n      dup5\n      sub\n      swap1\n      swap2\n      add\n      dup2\n      mstore\n      0x84\n      swap1\n      swap3\n      add\n      dup4\n      mstore\n      0x20\n      dup3\n      add\n      dup1\n      mload\n      sub(shl(0xe0, 0x01), 0x01)\n      and\n      shl(0xe0, 0x23b872dd)\n      or\n      dup2\n      mstore\n        /* \"swap/libraries/TransferHelper.sol\":1158:1221  token.call(abi.encodeWithSelector(0x23b872dd, from, to, value)) */\n      swap3\n      mload\n      dup3\n      mload\n        /* \"swap/libraries/TransferHelper.sol\":1123:1135  bool success */\n      0x00\n      swap5\n        /* \"swap/libraries/TransferHelper.sol\":1137:1154  bytes memory data */\n      0x60\n      swap5\n        /* \"swap/libraries/TransferHelper.sol\":1158:1168  token.call */\n      swap4\n      dup11\n      and\n      swap4\n        /* \"swap/libraries/TransferHelper.sol\":1169:1220  abi.encodeWithSelector(0x23b872dd, from, to, value) */\n      swap3\n        /* \"swap/libraries/TransferHelper.sol\":1158:1221  token.call(abi.encodeWithSelector(0x23b872dd, from, to, value)) */\n      swap2\n      dup3\n      swap2\n        /* \"swap/libraries/TransferHelper.sol\":1169:1220  abi.encodeWithSelector(0x23b872dd, from, to, value) */\n      swap1\n        /* \"swap/libraries/TransferHelper.sol\":1158:1221  token.call(abi.encodeWithSelector(0x23b872dd, from, to, value)) */\n      dup1\n      dup4\n        /* \"swap/libraries/TransferHelper.sol\":1169:1220  abi.encodeWithSelector(0x23b872dd, from, to, value) */\n      dup4\n        /* \"swap/libraries/TransferHelper.sol\":1158:1221  token.call(abi.encodeWithSelector(0x23b872dd, from, to, value)) */\n    tag_534:\n      0x20\n      dup4\n      lt\n      tag_536\n      jumpi\n      dup1\n      mload\n      dup3\n      mstore\n      not(0x1f)\n      swap1\n      swap3\n      add\n      swap2\n      0x20\n      swap2\n      dup3\n      add\n      swap2\n      add\n      jump(tag_534)\n    tag_536:\n      0x01\n      dup4\n      0x20\n      sub\n      0x0100\n      exp\n      sub\n      dup1\n      not\n      dup3\n      mload\n      and\n      dup2\n      dup5\n      mload\n      and\n      dup1\n      dup3\n      or\n      dup6\n      mstore\n      pop\n      pop\n      pop\n      pop\n      pop\n      pop\n      swap1\n      pop\n      add\n      swap2\n      pop\n      pop\n      0x00\n      mload(0x40)\n      dup1\n      dup4\n      sub\n      dup2\n      0x00\n      dup7\n      gas\n      call\n      swap2\n      pop\n      pop\n      returndatasize\n      dup1\n      0x00\n      dup2\n      eq\n      tag_539\n      jumpi\n      mload(0x40)\n      swap2\n      pop\n      and(add(returndatasize, 0x3f), not(0x1f))\n      dup3\n      add\n      0x40\n      mstore\n      returndatasize\n      dup3\n      mstore\n      returndatasize\n      0x00\n      0x20\n      dup5\n      add\n      returndatacopy\n      jump(tag_538)\n    tag_539:\n      0x60\n      swap2\n      pop\n    tag_538:\n      pop\n        /* \"swap/libraries/TransferHelper.sol\":1122:1221  (bool success, bytes memory data) = token.call(abi.encodeWithSelector(0x23b872dd, from, to, value)) */\n      swap2\n      pop\n      swap2\n      pop\n        /* \"swap/libraries/TransferHelper.sol\":1240:1247  success */\n      dup2\n        /* \"swap/libraries/TransferHelper.sol\":1240:1297  success && (data.length == 0 || abi.decode(data, (bool))) */\n      dup1\n      iszero\n      tag_541\n      jumpi\n      pop\n        /* \"swap/libraries/TransferHelper.sol\":1252:1263  data.length */\n      dup1\n      mload\n        /* \"swap/libraries/TransferHelper.sol\":1252:1268  data.length == 0 */\n      iszero\n      dup1\n        /* \"swap/libraries/TransferHelper.sol\":1252:1296  data.length == 0 || abi.decode(data, (bool)) */\n      tag_541\n      jumpi\n      pop\n        /* \"swap/libraries/TransferHelper.sol\":1283:1287  data */\n      dup1\n        /* \"swap/libraries/TransferHelper.sol\":1272:1296  abi.decode(data, (bool)) */\n      dup1\n      0x20\n      add\n      swap1\n      mload\n      0x20\n      dup2\n      lt\n      iszero\n      tag_542\n      jumpi\n      0x00\n      dup1\n      revert\n    tag_542:\n      pop\n      mload\n        /* \"swap/libraries/TransferHelper.sol\":1252:1296  data.length == 0 || abi.decode(data, (bool)) */\n    tag_541:\n        /* \"swap/libraries/TransferHelper.sol\":1232:1338  require(success && (data.length == 0 || abi.decode(data, (bool))), 'TransferHelper: TRANSFER_FROM_FAILED') */\n      tag_543\n      jumpi\n      mload(0x40)\n      shl(0xe5, 0x461bcd)\n      dup2\n      mstore\n      0x04\n      add\n      dup1\n      dup1\n      0x20\n      add\n      dup3\n      dup2\n      sub\n      dup3\n      mstore\n      0x24\n      dup2\n      mstore\n      0x20\n      add\n      dup1\n      data_eb2904bf3c0c9ae693b53eb0188a703c388998a9c405b7965ca678cef9a51d18\n      0x24\n      swap2\n      codecopy\n      0x40\n      add\n      swap2\n      pop\n      pop\n      mload(0x40)\n      dup1\n      swap2\n      sub\n      swap1\n      revert\n    tag_543:\n        /* \"swap/libraries/TransferHelper.sol\":944:1346  function safeTransferFrom(address token, address from, address to, uint value) internal {\r... */\n      pop\n      pop\n      pop\n      pop\n      pop\n      pop\n      jump\t// out\n        /* \"swap/UniswapV2Router02.sol\":8644:9379  function _swap(uint[] memory amounts, address[] memory path, address _to) internal virtual {\r... */\n    tag_212:\n        /* \"swap/UniswapV2Router02.sol\":8751:8757  uint i */\n      0x00\n        /* \"swap/UniswapV2Router02.sol\":8746:9372  for (uint i; i < path.length - 1; i++) {\r... */\n    tag_545:\n        /* \"swap/UniswapV2Router02.sol\":8777:8778  1 */\n      0x01\n        /* \"swap/UniswapV2Router02.sol\":8763:8767  path */\n      dup4\n        /* \"swap/UniswapV2Router02.sol\":8763:8774  path.length */\n      mload\n        /* \"swap/UniswapV2Router02.sol\":8763:8778  path.length - 1 */\n      sub\n        /* \"swap/UniswapV2Router02.sol\":8759:8760  i */\n      dup2\n        /* \"swap/UniswapV2Router02.sol\":8759:8778  i < path.length - 1 */\n      lt\n        /* \"swap/UniswapV2Router02.sol\":8746:9372  for (uint i; i < path.length - 1; i++) {\r... */\n      iszero\n      tag_546\n      jumpi\n        /* \"swap/UniswapV2Router02.sol\":8801:8814  address input */\n      0x00\n        /* \"swap/UniswapV2Router02.sol\":8816:8830  address output */\n      dup1\n        /* \"swap/UniswapV2Router02.sol\":8835:8839  path */\n      dup5\n        /* \"swap/UniswapV2Router02.sol\":8840:8841  i */\n      dup4\n        /* \"swap/UniswapV2Router02.sol\":8835:8842  path[i] */\n      dup2\n      mload\n      dup2\n      lt\n      tag_548\n      jumpi\n      invalid\n    tag_548:\n      0x20\n      mul\n      0x20\n      add\n      add\n      mload\n        /* \"swap/UniswapV2Router02.sol\":8844:8848  path */\n      dup6\n        /* \"swap/UniswapV2Router02.sol\":8849:8850  i */\n      dup5\n        /* \"swap/UniswapV2Router02.sol\":8853:8854  1 */\n      0x01\n        /* \"swap/UniswapV2Router02.sol\":8849:8854  i + 1 */\n      add\n        /* \"swap/UniswapV2Router02.sol\":8844:8855  path[i + 1] */\n      dup2\n      mload\n      dup2\n      lt\n      tag_549\n      jumpi\n      invalid\n    tag_549:\n      0x20\n      mul\n      0x20\n      add\n      add\n      mload\n        /* \"swap/UniswapV2Router02.sol\":8800:8856  (address input, address output) = (path[i], path[i + 1]) */\n      swap2\n      pop\n      swap2\n      pop\n        /* \"swap/UniswapV2Router02.sol\":8872:8886  address token0 */\n      0x00\n        /* \"swap/UniswapV2Router02.sol\":8891:8933  UniswapV2Library.sortTokens(input, output) */\n      tag_550\n        /* \"swap/UniswapV2Router02.sol\":8919:8924  input */\n      dup4\n        /* \"swap/UniswapV2Router02.sol\":8926:8932  output */\n      dup4\n        /* \"swap/UniswapV2Router02.sol\":8891:8918  UniswapV2Library.sortTokens */\n      tag_411\n        /* \"swap/UniswapV2Router02.sol\":8891:8933  UniswapV2Library.sortTokens(input, output) */\n      jump\t// in\n    tag_550:\n        /* \"swap/UniswapV2Router02.sol\":8871:8933  (address token0,) = UniswapV2Library.sortTokens(input, output) */\n      pop\n      swap1\n      pop\n        /* \"swap/UniswapV2Router02.sol\":8948:8962  uint amountOut */\n      0x00\n        /* \"swap/UniswapV2Router02.sol\":8965:8972  amounts */\n      dup8\n        /* \"swap/UniswapV2Router02.sol\":8973:8974  i */\n      dup6\n        /* \"swap/UniswapV2Router02.sol\":8977:8978  1 */\n      0x01\n        /* \"swap/UniswapV2Router02.sol\":8973:8978  i + 1 */\n      add\n        /* \"swap/UniswapV2Router02.sol\":8965:8979  amounts[i + 1] */\n      dup2\n      mload\n      dup2\n      lt\n      tag_551\n      jumpi\n      invalid\n    tag_551:\n      0x20\n      mul\n      0x20\n      add\n      add\n      mload\n        /* \"swap/UniswapV2Router02.sol\":8948:8979  uint amountOut = amounts[i + 1] */\n      swap1\n      pop\n        /* \"swap/UniswapV2Router02.sol\":8995:9010  uint amount0Out */\n      0x00\n        /* \"swap/UniswapV2Router02.sol\":9012:9027  uint amount1Out */\n      dup1\n        /* \"swap/UniswapV2Router02.sol\":9040:9046  token0 */\n      dup4\n      sub(shl(0xa0, 0x01), 0x01)\n        /* \"swap/UniswapV2Router02.sol\":9031:9046  input == token0 */\n      and\n        /* \"swap/UniswapV2Router02.sol\":9031:9036  input */\n      dup7\n      sub(shl(0xa0, 0x01), 0x01)\n        /* \"swap/UniswapV2Router02.sol\":9031:9046  input == token0 */\n      and\n      eq\n        /* \"swap/UniswapV2Router02.sol\":9031:9092  input == token0 ? (uint(0), amountOut) : (amountOut, uint(0)) */\n      tag_552\n      jumpi\n        /* \"swap/UniswapV2Router02.sol\":9073:9082  amountOut */\n      dup3\n        /* \"swap/UniswapV2Router02.sol\":9089:9090  0 */\n      0x00\n        /* \"swap/UniswapV2Router02.sol\":9031:9092  input == token0 ? (uint(0), amountOut) : (amountOut, uint(0)) */\n      jump(tag_553)\n    tag_552:\n        /* \"swap/UniswapV2Router02.sol\":9055:9056  0 */\n      0x00\n        /* \"swap/UniswapV2Router02.sol\":9059:9068  amountOut */\n      dup4\n        /* \"swap/UniswapV2Router02.sol\":9031:9092  input == token0 ? (uint(0), amountOut) : (amountOut, uint(0)) */\n    tag_553:\n        /* \"swap/UniswapV2Router02.sol\":8994:9092  (uint amount0Out, uint amount1Out) = input == token0 ? (uint(0), amountOut) : (amountOut, uint(0)) */\n      swap2\n      pop\n      swap2\n      pop\n        /* \"swap/UniswapV2Router02.sol\":9107:9117  address to */\n      0x00\n        /* \"swap/UniswapV2Router02.sol\":9138:9139  2 */\n      0x02\n        /* \"swap/UniswapV2Router02.sol\":9124:9128  path */\n      dup11\n        /* \"swap/UniswapV2Router02.sol\":9124:9135  path.length */\n      mload\n        /* \"swap/UniswapV2Router02.sol\":9124:9139  path.length - 2 */\n      sub\n        /* \"swap/UniswapV2Router02.sol\":9120:9121  i */\n      dup9\n        /* \"swap/UniswapV2Router02.sol\":9120:9139  i < path.length - 2 */\n      lt\n        /* \"swap/UniswapV2Router02.sol\":9120:9202  i < path.length - 2 ? UniswapV2Library.pairFor(factory, output, path[i + 2]) : _to */\n      tag_554\n      jumpi\n        /* \"swap/UniswapV2Router02.sol\":9199:9202  _to */\n      dup9\n        /* \"swap/UniswapV2Router02.sol\":9120:9202  i < path.length - 2 ? UniswapV2Library.pairFor(factory, output, path[i + 2]) : _to */\n      jump(tag_556)\n    tag_554:\n        /* \"swap/UniswapV2Router02.sol\":9142:9196  UniswapV2Library.pairFor(factory, output, path[i + 2]) */\n      tag_556\n        /* \"swap/UniswapV2Router02.sol\":9167:9174  factory */\n      immutable(\"0x277ab82e5a4641341820a4a2933a62c1de997e42e92548657ae21b3728d580fe\")\n        /* \"swap/UniswapV2Router02.sol\":9176:9182  output */\n      dup8\n        /* \"swap/UniswapV2Router02.sol\":9184:9188  path */\n      dup13\n        /* \"swap/UniswapV2Router02.sol\":9189:9190  i */\n      dup12\n        /* \"swap/UniswapV2Router02.sol\":9193:9194  2 */\n      0x02\n        /* \"swap/UniswapV2Router02.sol\":9189:9194  i + 2 */\n      add\n        /* \"swap/UniswapV2Router02.sol\":9184:9195  path[i + 2] */\n      dup2\n      mload\n      dup2\n      lt\n      tag_557\n      jumpi\n      invalid\n    tag_557:\n      0x20\n      mul\n      0x20\n      add\n      add\n      mload\n        /* \"swap/UniswapV2Router02.sol\":9142:9166  UniswapV2Library.pairFor */\n      tag_208\n        /* \"swap/UniswapV2Router02.sol\":9142:9196  UniswapV2Library.pairFor(factory, output, path[i + 2]) */\n      jump\t// in\n    tag_556:\n        /* \"swap/UniswapV2Router02.sol\":9107:9202  address to = i < path.length - 2 ? UniswapV2Library.pairFor(factory, output, path[i + 2]) : _to */\n      swap1\n      pop\n        /* \"swap/UniswapV2Router02.sol\":9232:9280  UniswapV2Library.pairFor(factory, input, output) */\n      tag_558\n        /* \"swap/UniswapV2Router02.sol\":9257:9264  factory */\n      immutable(\"0x277ab82e5a4641341820a4a2933a62c1de997e42e92548657ae21b3728d580fe\")\n        /* \"swap/UniswapV2Router02.sol\":9266:9271  input */\n      dup9\n        /* \"swap/UniswapV2Router02.sol\":9273:9279  output */\n      dup9\n        /* \"swap/UniswapV2Router02.sol\":9232:9256  UniswapV2Library.pairFor */\n      tag_208\n        /* \"swap/UniswapV2Router02.sol\":9232:9280  UniswapV2Library.pairFor(factory, input, output) */\n      jump\t// in\n    tag_558:\n      sub(shl(0xa0, 0x01), 0x01)\n        /* \"swap/UniswapV2Router02.sol\":9217:9286  IUniswapV2Pair(UniswapV2Library.pairFor(factory, input, output)).swap */\n      and\n      0x022c0d9f\n        /* \"swap/UniswapV2Router02.sol\":9305:9315  amount0Out */\n      dup5\n        /* \"swap/UniswapV2Router02.sol\":9317:9327  amount1Out */\n      dup5\n        /* \"swap/UniswapV2Router02.sol\":9329:9331  to */\n      dup5\n        /* \"swap/UniswapV2Router02.sol\":9343:9344  0 */\n      0x00\n        /* \"swap/UniswapV2Router02.sol\":9333:9345  new bytes(0) */\n      mload(0x40)\n      swap1\n      dup1\n      dup3\n      mstore\n      dup1\n      0x1f\n      add\n      not(0x1f)\n      and\n      0x20\n      add\n      dup3\n      add\n      0x40\n      mstore\n      dup1\n      iszero\n      tag_560\n      jumpi\n      0x20\n      dup3\n      add\n      dup2\n      dup1\n      calldatasize\n      dup4\n      calldatacopy\n      add\n      swap1\n      pop\n    tag_560:\n      pop\n        /* \"swap/UniswapV2Router02.sol\":9217:9360  IUniswapV2Pair(UniswapV2Library.pairFor(factory, input, output)).swap(\r... */\n      mload(0x40)\n      dup6\n      0xffffffff\n      and\n      0xe0\n      shl\n      dup2\n      mstore\n      0x04\n      add\n      dup1\n      dup6\n      dup2\n      mstore\n      0x20\n      add\n      dup5\n      dup2\n      mstore\n      0x20\n      add\n      dup4\n      sub(shl(0xa0, 0x01), 0x01)\n      and\n      dup2\n      mstore\n      0x20\n      add\n      dup1\n      0x20\n      add\n      dup3\n      dup2\n      sub\n      dup3\n      mstore\n      dup4\n      dup2\n      dup2\n      mload\n      dup2\n      mstore\n      0x20\n      add\n      swap2\n      pop\n      dup1\n      mload\n      swap1\n      0x20\n      add\n      swap1\n      dup1\n      dup4\n      dup4\n      0x00\n    tag_561:\n      dup4\n      dup2\n      lt\n      iszero\n      tag_563\n      jumpi\n      dup2\n      dup2\n      add\n      mload\n      dup4\n      dup3\n      add\n      mstore\n      0x20\n      add\n      jump(tag_561)\n    tag_563:\n      pop\n      pop\n      pop\n      pop\n      swap1\n      pop\n      swap1\n      dup2\n      add\n      swap1\n      0x1f\n      and\n      dup1\n      iszero\n      tag_564\n      jumpi\n      dup1\n      dup3\n      sub\n      dup1\n      mload\n      0x01\n      dup4\n      0x20\n      sub\n      0x0100\n      exp\n      sub\n      not\n      and\n      dup2\n      mstore\n      0x20\n      add\n      swap2\n      pop\n    tag_564:\n      pop\n      swap6\n      pop\n      pop\n      pop\n      pop\n      pop\n      pop\n      0x00\n      mload(0x40)\n      dup1\n      dup4\n      sub\n      dup2\n      0x00\n      dup8\n      dup1\n      extcodesize\n      iszero\n      dup1\n      iszero\n      tag_565\n      jumpi\n      0x00\n      dup1\n      revert\n    tag_565:\n      pop\n      gas\n      call\n      iszero\n      dup1\n      iszero\n      tag_567\n      jumpi\n      returndatasize\n      0x00\n      dup1\n      returndatacopy\n      revert(0x00, returndatasize)\n    tag_567:\n      pop\n      pop\n        /* \"swap/UniswapV2Router02.sol\":8780:8783  i++ */\n      0x01\n      swap1\n      swap10\n      add\n      swap9\n      pop\n        /* \"swap/UniswapV2Router02.sol\":8746:9372  for (uint i; i < path.length - 1; i++) {\r... */\n      tag_545\n      swap8\n      pop\n      pop\n      pop\n      pop\n      pop\n      pop\n      pop\n      pop\n      jump\n    tag_546:\n      pop\n        /* \"swap/UniswapV2Router02.sol\":8644:9379  function _swap(uint[] memory amounts, address[] memory path, address _to) internal virtual {\r... */\n      pop\n      pop\n      pop\n      jump\t// out\n        /* \"swap/libraries/UniswapV2Library.sol\":4021:4553  function getAmountsIn(address factory, uint amountOut, address[] memory path) internal view returns (uint[] memory amounts) {\r... */\n    tag_221:\n        /* \"swap/libraries/UniswapV2Library.sol\":4122:4143  uint[] memory amounts */\n      0x60\n        /* \"swap/libraries/UniswapV2Library.sol\":4179:4180  2 */\n      0x02\n        /* \"swap/libraries/UniswapV2Library.sol\":4164:4168  path */\n      dup3\n        /* \"swap/libraries/UniswapV2Library.sol\":4164:4175  path.length */\n      mload\n        /* \"swap/libraries/UniswapV2Library.sol\":4164:4180  path.length >= 2 */\n      lt\n      iszero\n        /* \"swap/libraries/UniswapV2Library.sol\":4156:4215  require(path.length >= 2, 'UniswapV2Library: INVALID_PATH') */\n      tag_569\n      jumpi\n      0x40\n      dup1\n      mload\n      shl(0xe5, 0x461bcd)\n      dup2\n      mstore\n      0x20\n      0x04\n      dup3\n      add\n      mstore\n      0x1e\n      0x24\n      dup3\n      add\n      mstore\n      0x556e697377617056324c6962726172793a20494e56414c49445f504154480000\n      0x44\n      dup3\n      add\n      mstore\n      swap1\n      mload\n      swap1\n      dup2\n      swap1\n      sub\n      0x64\n      add\n      swap1\n      revert\n    tag_569:\n        /* \"swap/libraries/UniswapV2Library.sol\":4247:4251  path */\n      dup2\n        /* \"swap/libraries/UniswapV2Library.sol\":4247:4258  path.length */\n      mload\n        /* \"swap/libraries/UniswapV2Library.sol\":4236:4259  new uint[](path.length) */\n      0xffffffffffffffff\n      dup2\n      gt\n      dup1\n      iszero\n      tag_570\n      jumpi\n      0x00\n      dup1\n      revert\n    tag_570:\n      pop\n      mload(0x40)\n      swap1\n      dup1\n      dup3\n      mstore\n      dup1\n      0x20\n      mul\n      0x20\n      add\n      dup3\n      add\n      0x40\n      mstore\n      dup1\n      iszero\n      tag_571\n      jumpi\n      dup2\n      0x20\n      add\n      0x20\n      dup3\n      mul\n      dup1\n      calldatasize\n      dup4\n      calldatacopy\n      add\n      swap1\n      pop\n    tag_571:\n      pop\n        /* \"swap/libraries/UniswapV2Library.sol\":4226:4259  amounts = new uint[](path.length) */\n      swap1\n      pop\n        /* \"swap/libraries/UniswapV2Library.sol\":4300:4309  amountOut */\n      dup3\n        /* \"swap/libraries/UniswapV2Library.sol\":4270:4277  amounts */\n      dup2\n        /* \"swap/libraries/UniswapV2Library.sol\":4295:4296  1 */\n      0x01\n        /* \"swap/libraries/UniswapV2Library.sol\":4278:4285  amounts */\n      dup4\n        /* \"swap/libraries/UniswapV2Library.sol\":4278:4292  amounts.length */\n      mload\n        /* \"swap/libraries/UniswapV2Library.sol\":4278:4296  amounts.length - 1 */\n      sub\n        /* \"swap/libraries/UniswapV2Library.sol\":4270:4297  amounts[amounts.length - 1] */\n      dup2\n      mload\n      dup2\n      lt\n      tag_572\n      jumpi\n      invalid\n    tag_572:\n      0x20\n      swap1\n      dup2\n      mul\n      swap2\n      swap1\n      swap2\n      add\n      add\n        /* \"swap/libraries/UniswapV2Library.sol\":4270:4309  amounts[amounts.length - 1] = amountOut */\n      mstore\n        /* \"swap/libraries/UniswapV2Library.sol\":4334:4345  path.length */\n      dup2\n      mload\n      not(0x00)\n        /* \"swap/libraries/UniswapV2Library.sol\":4334:4349  path.length - 1 */\n      add\n        /* \"swap/libraries/UniswapV2Library.sol\":4320:4546  for (uint i = path.length - 1; i > 0; i--) {\r... */\n    tag_573:\n        /* \"swap/libraries/UniswapV2Library.sol\":4351:4356  i > 0 */\n      dup1\n      iszero\n        /* \"swap/libraries/UniswapV2Library.sol\":4320:4546  for (uint i = path.length - 1; i > 0; i--) {\r... */\n      tag_522\n      jumpi\n        /* \"swap/libraries/UniswapV2Library.sol\":4379:4393  uint reserveIn */\n      0x00\n        /* \"swap/libraries/UniswapV2Library.sol\":4395:4410  uint reserveOut */\n      dup1\n        /* \"swap/libraries/UniswapV2Library.sol\":4414:4456  getReserves(factory, path[i - 1], path[i]) */\n      tag_576\n        /* \"swap/libraries/UniswapV2Library.sol\":4426:4433  factory */\n      dup8\n        /* \"swap/libraries/UniswapV2Library.sol\":4435:4439  path */\n      dup7\n        /* \"swap/libraries/UniswapV2Library.sol\":4444:4445  1 */\n      0x01\n        /* \"swap/libraries/UniswapV2Library.sol\":4440:4441  i */\n      dup7\n        /* \"swap/libraries/UniswapV2Library.sol\":4440:4445  i - 1 */\n      sub\n        /* \"swap/libraries/UniswapV2Library.sol\":4435:4446  path[i - 1] */\n      dup2\n      mload\n      dup2\n      lt\n      tag_577\n      jumpi\n      invalid\n    tag_577:\n      0x20\n      mul\n      0x20\n      add\n      add\n      mload\n        /* \"swap/libraries/UniswapV2Library.sol\":4448:4452  path */\n      dup8\n        /* \"swap/libraries/UniswapV2Library.sol\":4453:4454  i */\n      dup7\n        /* \"swap/libraries/UniswapV2Library.sol\":4448:4455  path[i] */\n      dup2\n      mload\n      dup2\n      lt\n      tag_526\n      jumpi\n      invalid\n        /* \"swap/libraries/UniswapV2Library.sol\":4414:4456  getReserves(factory, path[i - 1], path[i]) */\n    tag_576:\n        /* \"swap/libraries/UniswapV2Library.sol\":4378:4456  (uint reserveIn, uint reserveOut) = getReserves(factory, path[i - 1], path[i]) */\n      swap2\n      pop\n      swap2\n      pop\n        /* \"swap/libraries/UniswapV2Library.sol\":4488:4534  getAmountIn(amounts[i], reserveIn, reserveOut) */\n      tag_579\n        /* \"swap/libraries/UniswapV2Library.sol\":4500:4507  amounts */\n      dup5\n        /* \"swap/libraries/UniswapV2Library.sol\":4508:4509  i */\n      dup5\n        /* \"swap/libraries/UniswapV2Library.sol\":4500:4510  amounts[i] */\n      dup2\n      mload\n      dup2\n      lt\n      tag_580\n      jumpi\n      invalid\n    tag_580:\n      0x20\n      mul\n      0x20\n      add\n      add\n      mload\n        /* \"swap/libraries/UniswapV2Library.sol\":4512:4521  reserveIn */\n      dup4\n        /* \"swap/libraries/UniswapV2Library.sol\":4523:4533  reserveOut */\n      dup4\n        /* \"swap/libraries/UniswapV2Library.sol\":4488:4499  getAmountIn */\n      tag_339\n        /* \"swap/libraries/UniswapV2Library.sol\":4488:4534  getAmountIn(amounts[i], reserveIn, reserveOut) */\n      jump\t// in\n    tag_579:\n        /* \"swap/libraries/UniswapV2Library.sol\":4471:4478  amounts */\n      dup5\n        /* \"swap/libraries/UniswapV2Library.sol\":4483:4484  1 */\n      0x01\n        /* \"swap/libraries/UniswapV2Library.sol\":4479:4480  i */\n      dup6\n        /* \"swap/libraries/UniswapV2Library.sol\":4479:4484  i - 1 */\n      sub\n        /* \"swap/libraries/UniswapV2Library.sol\":4471:4485  amounts[i - 1] */\n      dup2\n      mload\n      dup2\n      lt\n      tag_581\n      jumpi\n      invalid\n    tag_581:\n      0x20\n      swap1\n      dup2\n      mul\n      swap2\n      swap1\n      swap2\n      add\n      add\n        /* \"swap/libraries/UniswapV2Library.sol\":4471:4534  amounts[i - 1] = getAmountIn(amounts[i], reserveIn, reserveOut) */\n      mstore\n      pop\n      pop\n      not(0x00)\n        /* \"swap/libraries/UniswapV2Library.sol\":4358:4361  i-- */\n      add\n        /* \"swap/libraries/UniswapV2Library.sol\":4320:4546  for (uint i = path.length - 1; i > 0; i--) {\r... */\n      jump(tag_573)\n        /* \"swap/UniswapV2Router02.sol\":13981:15202  function _swapSupportingFeeOnTransferTokens(address[] memory path, address _to) internal virtual {\r... */\n    tag_286:\n        /* \"swap/UniswapV2Router02.sol\":14094:14100  uint i */\n      0x00\n        /* \"swap/UniswapV2Router02.sol\":14089:15195  for (uint i; i < path.length - 1; i++) {\r... */\n    tag_583:\n        /* \"swap/UniswapV2Router02.sol\":14120:14121  1 */\n      0x01\n        /* \"swap/UniswapV2Router02.sol\":14106:14110  path */\n      dup4\n        /* \"swap/UniswapV2Router02.sol\":14106:14117  path.length */\n      mload\n        /* \"swap/UniswapV2Router02.sol\":14106:14121  path.length - 1 */\n      sub\n        /* \"swap/UniswapV2Router02.sol\":14102:14103  i */\n      dup2\n        /* \"swap/UniswapV2Router02.sol\":14102:14121  i < path.length - 1 */\n      lt\n        /* \"swap/UniswapV2Router02.sol\":14089:15195  for (uint i; i < path.length - 1; i++) {\r... */\n      iszero\n      tag_504\n      jumpi\n        /* \"swap/UniswapV2Router02.sol\":14144:14157  address input */\n      0x00\n        /* \"swap/UniswapV2Router02.sol\":14159:14173  address output */\n      dup1\n        /* \"swap/UniswapV2Router02.sol\":14178:14182  path */\n      dup5\n        /* \"swap/UniswapV2Router02.sol\":14183:14184  i */\n      dup4\n        /* \"swap/UniswapV2Router02.sol\":14178:14185  path[i] */\n      dup2\n      mload\n      dup2\n      lt\n      tag_586\n      jumpi\n      invalid\n    tag_586:\n      0x20\n      mul\n      0x20\n      add\n      add\n      mload\n        /* \"swap/UniswapV2Router02.sol\":14187:14191  path */\n      dup6\n        /* \"swap/UniswapV2Router02.sol\":14192:14193  i */\n      dup5\n        /* \"swap/UniswapV2Router02.sol\":14196:14197  1 */\n      0x01\n        /* \"swap/UniswapV2Router02.sol\":14192:14197  i + 1 */\n      add\n        /* \"swap/UniswapV2Router02.sol\":14187:14198  path[i + 1] */\n      dup2\n      mload\n      dup2\n      lt\n      tag_587\n      jumpi\n      invalid\n    tag_587:\n      0x20\n      mul\n      0x20\n      add\n      add\n      mload\n        /* \"swap/UniswapV2Router02.sol\":14143:14199  (address input, address output) = (path[i], path[i + 1]) */\n      swap2\n      pop\n      swap2\n      pop\n        /* \"swap/UniswapV2Router02.sol\":14215:14229  address token0 */\n      0x00\n        /* \"swap/UniswapV2Router02.sol\":14234:14276  UniswapV2Library.sortTokens(input, output) */\n      tag_588\n        /* \"swap/UniswapV2Router02.sol\":14262:14267  input */\n      dup4\n        /* \"swap/UniswapV2Router02.sol\":14269:14275  output */\n      dup4\n        /* \"swap/UniswapV2Router02.sol\":14234:14261  UniswapV2Library.sortTokens */\n      tag_411\n        /* \"swap/UniswapV2Router02.sol\":14234:14276  UniswapV2Library.sortTokens(input, output) */\n      jump\t// in\n    tag_588:\n        /* \"swap/UniswapV2Router02.sol\":14214:14276  (address token0,) = UniswapV2Library.sortTokens(input, output) */\n      pop\n      swap1\n      pop\n        /* \"swap/UniswapV2Router02.sol\":14291:14310  IUniswapV2Pair pair */\n      0x00\n        /* \"swap/UniswapV2Router02.sol\":14328:14376  UniswapV2Library.pairFor(factory, input, output) */\n      tag_589\n        /* \"swap/UniswapV2Router02.sol\":14353:14360  factory */\n      immutable(\"0x277ab82e5a4641341820a4a2933a62c1de997e42e92548657ae21b3728d580fe\")\n        /* \"swap/UniswapV2Router02.sol\":14362:14367  input */\n      dup6\n        /* \"swap/UniswapV2Router02.sol\":14369:14375  output */\n      dup6\n        /* \"swap/UniswapV2Router02.sol\":14328:14352  UniswapV2Library.pairFor */\n      tag_208\n        /* \"swap/UniswapV2Router02.sol\":14328:14376  UniswapV2Library.pairFor(factory, input, output) */\n      jump\t// in\n    tag_589:\n        /* \"swap/UniswapV2Router02.sol\":14291:14377  IUniswapV2Pair pair = IUniswapV2Pair(UniswapV2Library.pairFor(factory, input, output)) */\n      swap1\n      pop\n        /* \"swap/UniswapV2Router02.sol\":14392:14408  uint amountInput */\n      0x00\n        /* \"swap/UniswapV2Router02.sol\":14423:14440  uint amountOutput */\n      dup1\n        /* \"swap/UniswapV2Router02.sol\":14511:14524  uint reserve0 */\n      0x00\n        /* \"swap/UniswapV2Router02.sol\":14526:14539  uint reserve1 */\n      dup1\n        /* \"swap/UniswapV2Router02.sol\":14544:14548  pair */\n      dup5\n      sub(shl(0xa0, 0x01), 0x01)\n        /* \"swap/UniswapV2Router02.sol\":14544:14560  pair.getReserves */\n      and\n      0x0902f1ac\n        /* \"swap/UniswapV2Router02.sol\":14544:14562  pair.getReserves() */\n      mload(0x40)\n      dup2\n      0xffffffff\n      and\n      0xe0\n      shl\n      dup2\n      mstore\n      0x04\n      add\n      0x60\n      mload(0x40)\n      dup1\n      dup4\n      sub\n      dup2\n      dup7\n      dup1\n      extcodesize\n      iszero\n      dup1\n      iszero\n      tag_590\n      jumpi\n      0x00\n      dup1\n      revert\n    tag_590:\n      pop\n      gas\n      staticcall\n      iszero\n      dup1\n      iszero\n      tag_592\n      jumpi\n      returndatasize\n      0x00\n      dup1\n      returndatacopy\n      revert(0x00, returndatasize)\n    tag_592:\n      pop\n      pop\n      pop\n      pop\n      mload(0x40)\n      returndatasize\n      0x60\n      dup2\n      lt\n      iszero\n      tag_593\n      jumpi\n      0x00\n      dup1\n      revert\n    tag_593:\n      pop\n      dup1\n      mload\n      0x20\n      swap1\n      swap2\n      add\n      mload\n      sub(shl(0x70, 0x01), 0x01)\n        /* \"swap/UniswapV2Router02.sol\":14510:14562  (uint reserve0, uint reserve1,) = pair.getReserves() */\n      swap2\n      dup3\n      and\n      swap4\n      pop\n      and\n      swap1\n      pop\n        /* \"swap/UniswapV2Router02.sol\":14578:14595  uint reserveInput */\n      0x00\n      dup1\n      sub(shl(0xa0, 0x01), 0x01)\n        /* \"swap/UniswapV2Router02.sol\":14619:14634  input == token0 */\n      dup11\n      dup2\n      and\n      swap1\n      dup10\n      and\n      eq\n        /* \"swap/UniswapV2Router02.sol\":14619:14680  input == token0 ? (reserve0, reserve1) : (reserve1, reserve0) */\n      tag_594\n      jumpi\n        /* \"swap/UniswapV2Router02.sol\":14661:14669  reserve1 */\n      dup3\n        /* \"swap/UniswapV2Router02.sol\":14671:14679  reserve0 */\n      dup5\n        /* \"swap/UniswapV2Router02.sol\":14619:14680  input == token0 ? (reserve0, reserve1) : (reserve1, reserve0) */\n      jump(tag_595)\n    tag_594:\n        /* \"swap/UniswapV2Router02.sol\":14638:14646  reserve0 */\n      dup4\n        /* \"swap/UniswapV2Router02.sol\":14648:14656  reserve1 */\n      dup4\n        /* \"swap/UniswapV2Router02.sol\":14619:14680  input == token0 ? (reserve0, reserve1) : (reserve1, reserve0) */\n    tag_595:\n        /* \"swap/UniswapV2Router02.sol\":14577:14680  (uint reserveInput, uint reserveOutput) = input == token0 ? (reserve0, reserve1) : (reserve1, reserve0) */\n      swap2\n      pop\n      swap2\n      pop\n        /* \"swap/UniswapV2Router02.sol\":14709:14772  IERC20Uniswap(input).balanceOf(address(pair)).sub(reserveInput) */\n      tag_596\n        /* \"swap/UniswapV2Router02.sol\":14759:14771  reserveInput */\n      dup3\n        /* \"swap/UniswapV2Router02.sol\":14723:14728  input */\n      dup12\n      sub(shl(0xa0, 0x01), 0x01)\n        /* \"swap/UniswapV2Router02.sol\":14709:14739  IERC20Uniswap(input).balanceOf */\n      and\n      0x70a08231\n        /* \"swap/UniswapV2Router02.sol\":14748:14752  pair */\n      dup11\n        /* \"swap/UniswapV2Router02.sol\":14709:14754  IERC20Uniswap(input).balanceOf(address(pair)) */\n      mload(0x40)\n      dup3\n      0xffffffff\n      and\n      0xe0\n      shl\n      dup2\n      mstore\n      0x04\n      add\n      dup1\n      dup3\n      sub(shl(0xa0, 0x01), 0x01)\n      and\n      dup2\n      mstore\n      0x20\n      add\n      swap2\n      pop\n      pop\n      0x20\n      mload(0x40)\n      dup1\n      dup4\n      sub\n      dup2\n      dup7\n      dup1\n      extcodesize\n      iszero\n      dup1\n      iszero\n      tag_289\n      jumpi\n      0x00\n      dup1\n      revert\n        /* \"swap/UniswapV2Router02.sol\":14709:14772  IERC20Uniswap(input).balanceOf(address(pair)).sub(reserveInput) */\n    tag_596:\n        /* \"swap/UniswapV2Router02.sol\":14695:14772  amountInput = IERC20Uniswap(input).balanceOf(address(pair)).sub(reserveInput) */\n      swap6\n      pop\n        /* \"swap/UniswapV2Router02.sol\":14802:14873  UniswapV2Library.getAmountOut(amountInput, reserveInput, reserveOutput) */\n      tag_601\n        /* \"swap/UniswapV2Router02.sol\":14832:14843  amountInput */\n      dup7\n        /* \"swap/UniswapV2Router02.sol\":14845:14857  reserveInput */\n      dup4\n        /* \"swap/UniswapV2Router02.sol\":14859:14872  reserveOutput */\n      dup4\n        /* \"swap/UniswapV2Router02.sol\":14802:14831  UniswapV2Library.getAmountOut */\n      tag_193\n        /* \"swap/UniswapV2Router02.sol\":14802:14873  UniswapV2Library.getAmountOut(amountInput, reserveInput, reserveOutput) */\n      jump\t// in\n    tag_601:\n        /* \"swap/UniswapV2Router02.sol\":14787:14873  amountOutput = UniswapV2Library.getAmountOut(amountInput, reserveInput, reserveOutput) */\n      swap5\n      pop\n        /* \"swap/UniswapV2Router02.sol\":14089:15195  for (uint i; i < path.length - 1; i++) {\r... */\n      pop\n      pop\n      pop\n      pop\n        /* \"swap/UniswapV2Router02.sol\":14904:14919  uint amount0Out */\n      0x00\n        /* \"swap/UniswapV2Router02.sol\":14921:14936  uint amount1Out */\n      dup1\n        /* \"swap/UniswapV2Router02.sol\":14949:14955  token0 */\n      dup6\n      sub(shl(0xa0, 0x01), 0x01)\n        /* \"swap/UniswapV2Router02.sol\":14940:14955  input == token0 */\n      and\n        /* \"swap/UniswapV2Router02.sol\":14940:14945  input */\n      dup9\n      sub(shl(0xa0, 0x01), 0x01)\n        /* \"swap/UniswapV2Router02.sol\":14940:14955  input == token0 */\n      and\n      eq\n        /* \"swap/UniswapV2Router02.sol\":14940:15007  input == token0 ? (uint(0), amountOutput) : (amountOutput, uint(0)) */\n      tag_602\n      jumpi\n        /* \"swap/UniswapV2Router02.sol\":14985:14997  amountOutput */\n      dup3\n        /* \"swap/UniswapV2Router02.sol\":15004:15005  0 */\n      0x00\n        /* \"swap/UniswapV2Router02.sol\":14940:15007  input == token0 ? (uint(0), amountOutput) : (amountOutput, uint(0)) */\n      jump(tag_603)\n    tag_602:\n        /* \"swap/UniswapV2Router02.sol\":14964:14965  0 */\n      0x00\n        /* \"swap/UniswapV2Router02.sol\":14968:14980  amountOutput */\n      dup4\n        /* \"swap/UniswapV2Router02.sol\":14940:15007  input == token0 ? (uint(0), amountOutput) : (amountOutput, uint(0)) */\n    tag_603:\n        /* \"swap/UniswapV2Router02.sol\":14903:15007  (uint amount0Out, uint amount1Out) = input == token0 ? (uint(0), amountOutput) : (amountOutput, uint(0)) */\n      swap2\n      pop\n      swap2\n      pop\n        /* \"swap/UniswapV2Router02.sol\":15022:15032  address to */\n      0x00\n        /* \"swap/UniswapV2Router02.sol\":15053:15054  2 */\n      0x02\n        /* \"swap/UniswapV2Router02.sol\":15039:15043  path */\n      dup13\n        /* \"swap/UniswapV2Router02.sol\":15039:15050  path.length */\n      mload\n        /* \"swap/UniswapV2Router02.sol\":15039:15054  path.length - 2 */\n      sub\n        /* \"swap/UniswapV2Router02.sol\":15035:15036  i */\n      dup11\n        /* \"swap/UniswapV2Router02.sol\":15035:15054  i < path.length - 2 */\n      lt\n        /* \"swap/UniswapV2Router02.sol\":15035:15117  i < path.length - 2 ? UniswapV2Library.pairFor(factory, output, path[i + 2]) : _to */\n      tag_604\n      jumpi\n        /* \"swap/UniswapV2Router02.sol\":15114:15117  _to */\n      dup11\n        /* \"swap/UniswapV2Router02.sol\":15035:15117  i < path.length - 2 ? UniswapV2Library.pairFor(factory, output, path[i + 2]) : _to */\n      jump(tag_606)\n    tag_604:\n        /* \"swap/UniswapV2Router02.sol\":15057:15111  UniswapV2Library.pairFor(factory, output, path[i + 2]) */\n      tag_606\n        /* \"swap/UniswapV2Router02.sol\":15082:15089  factory */\n      immutable(\"0x277ab82e5a4641341820a4a2933a62c1de997e42e92548657ae21b3728d580fe\")\n        /* \"swap/UniswapV2Router02.sol\":15091:15097  output */\n      dup10\n        /* \"swap/UniswapV2Router02.sol\":15099:15103  path */\n      dup15\n        /* \"swap/UniswapV2Router02.sol\":15104:15105  i */\n      dup14\n        /* \"swap/UniswapV2Router02.sol\":15108:15109  2 */\n      0x02\n        /* \"swap/UniswapV2Router02.sol\":15104:15109  i + 2 */\n      add\n        /* \"swap/UniswapV2Router02.sol\":15099:15110  path[i + 2] */\n      dup2\n      mload\n      dup2\n      lt\n      tag_557\n      jumpi\n      invalid\n        /* \"swap/UniswapV2Router02.sol\":15057:15111  UniswapV2Library.pairFor(factory, output, path[i + 2]) */\n    tag_606:\n        /* \"swap/UniswapV2Router02.sol\":15170:15182  new bytes(0) */\n      0x40\n      dup1\n      mload\n        /* \"swap/UniswapV2Router02.sol\":15180:15181  0 */\n      0x00\n        /* \"swap/UniswapV2Router02.sol\":15170:15182  new bytes(0) */\n      dup1\n      dup3\n      mstore\n      0x20\n      dup3\n      add\n      swap3\n      dup4\n      swap1\n      mstore\n      shl(0xe0, 0x022c0d9f)\n        /* \"swap/UniswapV2Router02.sol\":15132:15183  pair.swap(amount0Out, amount1Out, to, new bytes(0)) */\n      dup4\n      mstore\n      0x24\n      dup3\n      add\n      dup8\n      dup2\n      mstore\n      0x44\n      dup4\n      add\n      dup8\n      swap1\n      mstore\n      sub(shl(0xa0, 0x01), 0x01)\n      dup1\n      dup7\n      and\n      0x64\n      dup6\n      add\n      mstore\n      0x80\n      0x84\n      dup6\n      add\n      swap1\n      dup2\n      mstore\n      dup5\n      mload\n      0xa4\n      dup7\n      add\n      dup2\n      swap1\n      mstore\n        /* \"swap/UniswapV2Router02.sol\":15022:15117  address to = i < path.length - 2 ? UniswapV2Library.pairFor(factory, output, path[i + 2]) : _to */\n      swap7\n      swap8\n      pop\n        /* \"swap/UniswapV2Router02.sol\":15132:15141  pair.swap */\n      swap1\n      dup13\n      and\n      swap6\n      0x022c0d9f\n      swap6\n        /* \"swap/UniswapV2Router02.sol\":15142:15152  amount0Out */\n      dup11\n      swap6\n        /* \"swap/UniswapV2Router02.sol\":15154:15164  amount1Out */\n      dup11\n      swap6\n        /* \"swap/UniswapV2Router02.sol\":15022:15117  address to = i < path.length - 2 ? UniswapV2Library.pairFor(factory, output, path[i + 2]) : _to */\n      dup11\n      swap6\n        /* \"swap/UniswapV2Router02.sol\":15170:15182  new bytes(0) */\n      swap2\n      swap5\n        /* \"swap/UniswapV2Router02.sol\":15132:15183  pair.swap(amount0Out, amount1Out, to, new bytes(0)) */\n      swap2\n      swap4\n      swap2\n      swap3\n      0xc4\n      dup7\n      add\n      swap3\n        /* \"swap/UniswapV2Router02.sol\":15170:15182  new bytes(0) */\n      swap1\n      swap2\n        /* \"swap/UniswapV2Router02.sol\":15132:15183  pair.swap(amount0Out, amount1Out, to, new bytes(0)) */\n      dup2\n      swap1\n      dup5\n      swap1\n        /* \"swap/UniswapV2Router02.sol\":15170:15182  new bytes(0) */\n      dup5\n      swap1\n        /* \"swap/UniswapV2Router02.sol\":15132:15183  pair.swap(amount0Out, amount1Out, to, new bytes(0)) */\n    tag_610:\n      dup4\n      dup2\n      lt\n      iszero\n      tag_612\n      jumpi\n      dup2\n      dup2\n      add\n      mload\n      dup4\n      dup3\n      add\n      mstore\n      0x20\n      add\n      jump(tag_610)\n    tag_612:\n      pop\n      pop\n      pop\n      pop\n      swap1\n      pop\n      swap1\n      dup2\n      add\n      swap1\n      0x1f\n      and\n      dup1\n      iszero\n      tag_613\n      jumpi\n      dup1\n      dup3\n      sub\n      dup1\n      mload\n      0x01\n      dup4\n      0x20\n      sub\n      0x0100\n      exp\n      sub\n      not\n      and\n      dup2\n      mstore\n      0x20\n      add\n      swap2\n      pop\n    tag_613:\n      pop\n      swap6\n      pop\n      pop\n      pop\n      pop\n      pop\n      pop\n      0x00\n      mload(0x40)\n      dup1\n      dup4\n      sub\n      dup2\n      0x00\n      dup8\n      dup1\n      extcodesize\n      iszero\n      dup1\n      iszero\n      tag_614\n      jumpi\n      0x00\n      dup1\n      revert\n    tag_614:\n      pop\n      gas\n      call\n      iszero\n      dup1\n      iszero\n      tag_616\n      jumpi\n      returndatasize\n      0x00\n      dup1\n      returndatacopy\n      revert(0x00, returndatasize)\n    tag_616:\n      pop\n      pop\n        /* \"swap/UniswapV2Router02.sol\":14123:14126  i++ */\n      0x01\n      swap1\n      swap12\n      add\n      swap11\n      pop\n        /* \"swap/UniswapV2Router02.sol\":14089:15195  for (uint i; i < path.length - 1; i++) {\r... */\n      tag_583\n      swap10\n      pop\n      pop\n      pop\n      pop\n      pop\n      pop\n      pop\n      pop\n      pop\n      pop\n      jump\n        /* \"swap/libraries/SafeMath.sol\":342:471  function sub(uint x, uint y) internal pure returns (uint z) {\r... */\n    tag_293:\n        /* \"swap/libraries/SafeMath.sol\":426:431  x - y */\n      dup1\n      dup3\n      sub\n        /* \"swap/libraries/SafeMath.sol\":421:437  (z = x - y) <= x */\n      dup3\n      dup2\n      gt\n      iszero\n        /* \"swap/libraries/SafeMath.sol\":413:463  require((z = x - y) <= x, 'ds-math-sub-underflow') */\n      tag_219\n      jumpi\n      0x40\n      dup1\n      mload\n      shl(0xe5, 0x461bcd)\n      dup2\n      mstore\n      0x20\n      0x04\n      dup3\n      add\n      mstore\n      0x15\n      0x24\n      dup3\n      add\n      mstore\n      shl(0x58, 0x64732d6d6174682d7375622d756e646572666c6f77)\n      0x44\n      dup3\n      add\n      mstore\n      swap1\n      mload\n      swap1\n      dup2\n      swap1\n      sub\n      0x64\n      add\n      swap1\n      revert\n        /* \"swap/libraries/UniswapV2Library.sol\":2875:3347  function getAmountIn(uint amountOut, uint reserveIn, uint reserveOut) internal pure returns (uint amountIn) {\r... */\n    tag_339:\n        /* \"swap/libraries/UniswapV2Library.sol\":2968:2981  uint amountIn */\n      0x00\n        /* \"swap/libraries/UniswapV2Library.sol\":3014:3015  0 */\n      dup1\n        /* \"swap/libraries/UniswapV2Library.sol\":3002:3011  amountOut */\n      dup5\n        /* \"swap/libraries/UniswapV2Library.sol\":3002:3015  amountOut > 0 */\n      gt\n        /* \"swap/libraries/UniswapV2Library.sol\":2994:3064  require(amountOut > 0, 'UniswapV2Library: INSUFFICIENT_OUTPUT_AMOUNT') */\n      tag_620\n      jumpi\n      mload(0x40)\n      shl(0xe5, 0x461bcd)\n      dup2\n      mstore\n      0x04\n      add\n      dup1\n      dup1\n      0x20\n      add\n      dup3\n      dup2\n      sub\n      dup3\n      mstore\n      0x2c\n      dup2\n      mstore\n      0x20\n      add\n      dup1\n      data_35fb781059090c30aacad20e29b2e40e67f217617fc46f86031ed4eb14923a82\n      0x2c\n      swap2\n      codecopy\n      0x40\n      add\n      swap2\n      pop\n      pop\n      mload(0x40)\n      dup1\n      swap2\n      sub\n      swap1\n      revert\n    tag_620:\n        /* \"swap/libraries/UniswapV2Library.sol\":3095:3096  0 */\n      0x00\n        /* \"swap/libraries/UniswapV2Library.sol\":3083:3092  reserveIn */\n      dup4\n        /* \"swap/libraries/UniswapV2Library.sol\":3083:3096  reserveIn > 0 */\n      gt\n        /* \"swap/libraries/UniswapV2Library.sol\":3083:3114  reserveIn > 0 && reserveOut > 0 */\n      dup1\n      iszero\n      tag_621\n      jumpi\n      pop\n        /* \"swap/libraries/UniswapV2Library.sol\":3113:3114  0 */\n      0x00\n        /* \"swap/libraries/UniswapV2Library.sol\":3100:3110  reserveOut */\n      dup3\n        /* \"swap/libraries/UniswapV2Library.sol\":3100:3114  reserveOut > 0 */\n      gt\n        /* \"swap/libraries/UniswapV2Library.sol\":3083:3114  reserveIn > 0 && reserveOut > 0 */\n    tag_621:\n        /* \"swap/libraries/UniswapV2Library.sol\":3075:3159  require(reserveIn > 0 && reserveOut > 0, 'UniswapV2Library: INSUFFICIENT_LIQUIDITY') */\n      tag_622\n      jumpi\n      mload(0x40)\n      shl(0xe5, 0x461bcd)\n      dup2\n      mstore\n      0x04\n      add\n      dup1\n      dup1\n      0x20\n      add\n      dup3\n      dup2\n      sub\n      dup3\n      mstore\n      0x28\n      dup2\n      mstore\n      0x20\n      add\n      dup1\n      data_7e8d6b265173dbbd87b3b9e2bf4238bea6caf2b2bbeb63f859a738aec9e761c8\n      0x28\n      swap2\n      codecopy\n      0x40\n      add\n      swap2\n      pop\n      pop\n      mload(0x40)\n      dup1\n      swap2\n      sub\n      swap1\n      revert\n    tag_622:\n        /* \"swap/libraries/UniswapV2Library.sol\":3170:3184  uint numerator */\n      0x00\n        /* \"swap/libraries/UniswapV2Library.sol\":3187:3221  reserveIn.mul(amountOut).mul(1000) */\n      tag_623\n        /* \"swap/libraries/UniswapV2Library.sol\":3216:3220  1000 */\n      0x03e8\n        /* \"swap/libraries/UniswapV2Library.sol\":3187:3211  reserveIn.mul(amountOut) */\n      tag_624\n        /* \"swap/libraries/UniswapV2Library.sol\":3187:3196  reserveIn */\n      dup7\n        /* \"swap/libraries/UniswapV2Library.sol\":3201:3210  amountOut */\n      dup9\n        /* \"swap/libraries/UniswapV2Library.sol\":3187:3200  reserveIn.mul */\n      tag_510\n        /* \"swap/libraries/UniswapV2Library.sol\":3187:3211  reserveIn.mul(amountOut) */\n      jump\t// in\n    tag_624:\n        /* \"swap/libraries/UniswapV2Library.sol\":3187:3215  reserveIn.mul(amountOut).mul */\n      swap1\n      tag_510\n        /* \"swap/libraries/UniswapV2Library.sol\":3187:3221  reserveIn.mul(amountOut).mul(1000) */\n      jump\t// in\n    tag_623:\n        /* \"swap/libraries/UniswapV2Library.sol\":3170:3221  uint numerator = reserveIn.mul(amountOut).mul(1000) */\n      swap1\n      pop\n        /* \"swap/libraries/UniswapV2Library.sol\":3232:3248  uint denominator */\n      0x00\n        /* \"swap/libraries/UniswapV2Library.sol\":3251:3285  reserveOut.sub(amountOut).mul(997) */\n      tag_625\n        /* \"swap/libraries/UniswapV2Library.sol\":3281:3284  997 */\n      0x03e5\n        /* \"swap/libraries/UniswapV2Library.sol\":3251:3276  reserveOut.sub(amountOut) */\n      tag_624\n        /* \"swap/libraries/UniswapV2Library.sol\":3251:3261  reserveOut */\n      dup7\n        /* \"swap/libraries/UniswapV2Library.sol\":3266:3275  amountOut */\n      dup10\n        /* \"swap/libraries/UniswapV2Library.sol\":3251:3265  reserveOut.sub */\n      tag_293\n        /* \"swap/libraries/UniswapV2Library.sol\":3251:3276  reserveOut.sub(amountOut) */\n      jump\t// in\n        /* \"swap/libraries/UniswapV2Library.sol\":3251:3285  reserveOut.sub(amountOut).mul(997) */\n    tag_625:\n        /* \"swap/libraries/UniswapV2Library.sol\":3232:3285  uint denominator = reserveOut.sub(amountOut).mul(997) */\n      swap1\n      pop\n        /* \"swap/libraries/UniswapV2Library.sol\":3307:3339  (numerator / denominator).add(1) */\n      tag_627\n        /* \"swap/libraries/UniswapV2Library.sol\":3337:3338  1 */\n      0x01\n        /* \"swap/libraries/UniswapV2Library.sol\":3320:3331  denominator */\n      dup3\n        /* \"swap/libraries/UniswapV2Library.sol\":3308:3317  numerator */\n      dup5\n        /* \"swap/libraries/UniswapV2Library.sol\":3308:3331  numerator / denominator */\n      dup2\n      tag_628\n      jumpi\n      invalid\n    tag_628:\n      div\n      swap1\n        /* \"swap/libraries/UniswapV2Library.sol\":3307:3336  (numerator / denominator).add */\n      tag_514\n        /* \"swap/libraries/UniswapV2Library.sol\":3307:3339  (numerator / denominator).add(1) */\n      jump\t// in\n    tag_627:\n        /* \"swap/libraries/UniswapV2Library.sol\":3296:3339  amountIn = (numerator / denominator).add(1) */\n      swap7\n        /* \"swap/libraries/UniswapV2Library.sol\":2875:3347  function getAmountIn(uint amountOut, uint reserveIn, uint reserveOut) internal pure returns (uint amountIn) {\r... */\n      swap6\n      pop\n      pop\n      pop\n      pop\n      pop\n      pop\n      jump\t// out\n        /* \"swap/libraries/UniswapV2Library.sol\":1794:2115  function quote(uint amountA, uint reserveA, uint reserveB) internal pure returns (uint amountB) {\r... */\n    tag_355:\n        /* \"swap/libraries/UniswapV2Library.sol\":1876:1888  uint amountB */\n      0x00\n        /* \"swap/libraries/UniswapV2Library.sol\":1919:1920  0 */\n      dup1\n        /* \"swap/libraries/UniswapV2Library.sol\":1909:1916  amountA */\n      dup5\n        /* \"swap/libraries/UniswapV2Library.sol\":1909:1920  amountA > 0 */\n      gt\n        /* \"swap/libraries/UniswapV2Library.sol\":1901:1962  require(amountA > 0, 'UniswapV2Library: INSUFFICIENT_AMOUNT') */\n      tag_630\n      jumpi\n      mload(0x40)\n      shl(0xe5, 0x461bcd)\n      dup2\n      mstore\n      0x04\n      add\n      dup1\n      dup1\n      0x20\n      add\n      dup3\n      dup2\n      sub\n      dup3\n      mstore\n      0x25\n      dup2\n      mstore\n      0x20\n      add\n      dup1\n      data_b3ea0cd729028efbc737ad3cde1d4d854e6f2c136b354fbaea9389d68bc3a146\n      0x25\n      swap2\n      codecopy\n      0x40\n      add\n      swap2\n      pop\n      pop\n      mload(0x40)\n      dup1\n      swap2\n      sub\n      swap1\n      revert\n    tag_630:\n        /* \"swap/libraries/UniswapV2Library.sol\":1992:1993  0 */\n      0x00\n        /* \"swap/libraries/UniswapV2Library.sol\":1981:1989  reserveA */\n      dup4\n        /* \"swap/libraries/UniswapV2Library.sol\":1981:1993  reserveA > 0 */\n      gt\n        /* \"swap/libraries/UniswapV2Library.sol\":1981:2009  reserveA > 0 && reserveB > 0 */\n      dup1\n      iszero\n      tag_631\n      jumpi\n      pop\n        /* \"swap/libraries/UniswapV2Library.sol\":2008:2009  0 */\n      0x00\n        /* \"swap/libraries/UniswapV2Library.sol\":1997:2005  reserveB */\n      dup3\n        /* \"swap/libraries/UniswapV2Library.sol\":1997:2009  reserveB > 0 */\n      gt\n        /* \"swap/libraries/UniswapV2Library.sol\":1981:2009  reserveA > 0 && reserveB > 0 */\n    tag_631:\n        /* \"swap/libraries/UniswapV2Library.sol\":1973:2054  require(reserveA > 0 && reserveB > 0, 'UniswapV2Library: INSUFFICIENT_LIQUIDITY') */\n      tag_632\n      jumpi\n      mload(0x40)\n      shl(0xe5, 0x461bcd)\n      dup2\n      mstore\n      0x04\n      add\n      dup1\n      dup1\n      0x20\n      add\n      dup3\n      dup2\n      sub\n      dup3\n      mstore\n      0x28\n      dup2\n      mstore\n      0x20\n      add\n      dup1\n      data_7e8d6b265173dbbd87b3b9e2bf4238bea6caf2b2bbeb63f859a738aec9e761c8\n      0x28\n      swap2\n      codecopy\n      0x40\n      add\n      swap2\n      pop\n      pop\n      mload(0x40)\n      dup1\n      swap2\n      sub\n      swap1\n      revert\n    tag_632:\n        /* \"swap/libraries/UniswapV2Library.sol\":2099:2107  reserveA */\n      dup3\n        /* \"swap/libraries/UniswapV2Library.sol\":2075:2096  amountA.mul(reserveB) */\n      tag_633\n        /* \"swap/libraries/UniswapV2Library.sol\":2075:2082  amountA */\n      dup6\n        /* \"swap/libraries/UniswapV2Library.sol\":2087:2095  reserveB */\n      dup5\n        /* \"swap/libraries/UniswapV2Library.sol\":2075:2086  amountA.mul */\n      tag_510\n        /* \"swap/libraries/UniswapV2Library.sol\":2075:2096  amountA.mul(reserveB) */\n      jump\t// in\n    tag_633:\n        /* \"swap/libraries/UniswapV2Library.sol\":2075:2107  amountA.mul(reserveB) / reserveA */\n      dup2\n      tag_634\n      jumpi\n      invalid\n    tag_634:\n      div\n      swap5\n        /* \"swap/libraries/UniswapV2Library.sol\":1794:2115  function quote(uint amountA, uint reserveA, uint reserveB) internal pure returns (uint amountB) {\r... */\n      swap4\n      pop\n      pop\n      pop\n      pop\n      jump\t// out\n        /* \"swap/libraries/UniswapV2Library.sol\":313:662  function sortTokens(address tokenA, address tokenB) internal pure returns (address token0, address token1) {\r... */\n    tag_411:\n        /* \"swap/libraries/UniswapV2Library.sol\":388:402  address token0 */\n      0x00\n        /* \"swap/libraries/UniswapV2Library.sol\":404:418  address token1 */\n      dup1\n        /* \"swap/libraries/UniswapV2Library.sol\":449:455  tokenB */\n      dup3\n      sub(shl(0xa0, 0x01), 0x01)\n        /* \"swap/libraries/UniswapV2Library.sol\":439:455  tokenA != tokenB */\n      and\n        /* \"swap/libraries/UniswapV2Library.sol\":439:445  tokenA */\n      dup5\n      sub(shl(0xa0, 0x01), 0x01)\n        /* \"swap/libraries/UniswapV2Library.sol\":439:455  tokenA != tokenB */\n      and\n      eq\n      iszero\n        /* \"swap/libraries/UniswapV2Library.sol\":431:497  require(tokenA != tokenB, 'UniswapV2Library: IDENTICAL_ADDRESSES') */\n      tag_636\n      jumpi\n      mload(0x40)\n      shl(0xe5, 0x461bcd)\n      dup2\n      mstore\n      0x04\n      add\n      dup1\n      dup1\n      0x20\n      add\n      dup3\n      dup2\n      sub\n      dup3\n      mstore\n      0x25\n      dup2\n      mstore\n      0x20\n      add\n      dup1\n      data_4ddc3ca35a8b7ccaa016ab70252fdf3396ded4f4fd8375f95b1e9d99790fcdca\n      0x25\n      swap2\n      codecopy\n      0x40\n      add\n      swap2\n      pop\n      pop\n      mload(0x40)\n      dup1\n      swap2\n      sub\n      swap1\n      revert\n    tag_636:\n        /* \"swap/libraries/UniswapV2Library.sol\":536:542  tokenB */\n      dup3\n      sub(shl(0xa0, 0x01), 0x01)\n        /* \"swap/libraries/UniswapV2Library.sol\":527:542  tokenA < tokenB */\n      and\n        /* \"swap/libraries/UniswapV2Library.sol\":527:533  tokenA */\n      dup5\n      sub(shl(0xa0, 0x01), 0x01)\n        /* \"swap/libraries/UniswapV2Library.sol\":527:542  tokenA < tokenB */\n      and\n      lt\n        /* \"swap/libraries/UniswapV2Library.sol\":527:580  tokenA < tokenB ? (tokenA, tokenB) : (tokenB, tokenA) */\n      tag_637\n      jumpi\n        /* \"swap/libraries/UniswapV2Library.sol\":565:571  tokenB */\n      dup3\n        /* \"swap/libraries/UniswapV2Library.sol\":573:579  tokenA */\n      dup5\n        /* \"swap/libraries/UniswapV2Library.sol\":527:580  tokenA < tokenB ? (tokenA, tokenB) : (tokenB, tokenA) */\n      jump(tag_638)\n    tag_637:\n        /* \"swap/libraries/UniswapV2Library.sol\":546:552  tokenA */\n      dup4\n        /* \"swap/libraries/UniswapV2Library.sol\":554:560  tokenB */\n      dup4\n        /* \"swap/libraries/UniswapV2Library.sol\":527:580  tokenA < tokenB ? (tokenA, tokenB) : (tokenB, tokenA) */\n    tag_638:\n        /* \"swap/libraries/UniswapV2Library.sol\":508:580  (token0, token1) = tokenA < tokenB ? (tokenA, tokenB) : (tokenB, tokenA) */\n      swap1\n      swap3\n      pop\n      swap1\n      pop\n      sub(shl(0xa0, 0x01), 0x01)\n        /* \"swap/libraries/UniswapV2Library.sol\":599:619  token0 != address(0) */\n      dup3\n      and\n        /* \"swap/libraries/UniswapV2Library.sol\":591:654  require(token0 != address(0), 'UniswapV2Library: ZERO_ADDRESS') */\n      tag_639\n      jumpi\n      0x40\n      dup1\n      mload\n      shl(0xe5, 0x461bcd)\n      dup2\n      mstore\n      0x20\n      0x04\n      dup3\n      add\n      mstore\n      0x1e\n      0x24\n      dup3\n      add\n      mstore\n      0x556e697377617056324c6962726172793a205a45524f5f414444524553530000\n      0x44\n      dup3\n      add\n      mstore\n      swap1\n      mload\n      swap1\n      dup2\n      swap1\n      sub\n      0x64\n      add\n      swap1\n      revert\n    tag_639:\n        /* \"swap/libraries/UniswapV2Library.sol\":313:662  function sortTokens(address tokenA, address tokenB) internal pure returns (address token0, address token1) {\r... */\n      swap3\n      pop\n      swap3\n      swap1\n      pop\n      jump\t// out\n        /* \"swap/UniswapV2Router02.sol\":964:2354  function _addLiquidity(\r... */\n    tag_430:\n        /* \"swap/UniswapV2Router02.sol\":1182:1194  uint amountA */\n      0x00\n        /* \"swap/UniswapV2Router02.sol\":1196:1208  uint amountB */\n      dup1\n        /* \"swap/UniswapV2Router02.sol\":1339:1340  0 */\n      0x00\n      sub(shl(0xa0, 0x01), 0x01)\n        /* \"swap/UniswapV2Router02.sol\":1277:1341  IUniswapV2Factory(factory).getPair(tokenA, tokenB) == address(0) */\n      and\n        /* \"swap/UniswapV2Router02.sol\":1295:1302  factory */\n      immutable(\"0x277ab82e5a4641341820a4a2933a62c1de997e42e92548657ae21b3728d580fe\")\n      sub(shl(0xa0, 0x01), 0x01)\n        /* \"swap/UniswapV2Router02.sol\":1277:1311  IUniswapV2Factory(factory).getPair */\n      and\n      0xe6a43905\n        /* \"swap/UniswapV2Router02.sol\":1312:1318  tokenA */\n      dup11\n        /* \"swap/UniswapV2Router02.sol\":1320:1326  tokenB */\n      dup11\n        /* \"swap/UniswapV2Router02.sol\":1277:1327  IUniswapV2Factory(factory).getPair(tokenA, tokenB) */\n      mload(0x40)\n      dup4\n      0xffffffff\n      and\n      0xe0\n      shl\n      dup2\n      mstore\n      0x04\n      add\n      dup1\n      dup4\n      sub(shl(0xa0, 0x01), 0x01)\n      and\n      dup2\n      mstore\n      0x20\n      add\n      dup3\n      sub(shl(0xa0, 0x01), 0x01)\n      and\n      dup2\n      mstore\n      0x20\n      add\n      swap3\n      pop\n      pop\n      pop\n      0x20\n      mload(0x40)\n      dup1\n      dup4\n      sub\n      dup2\n      dup7\n      dup1\n      extcodesize\n      iszero\n      dup1\n      iszero\n      tag_641\n      jumpi\n      0x00\n      dup1\n      revert\n    tag_641:\n      pop\n      gas\n      staticcall\n      iszero\n      dup1\n      iszero\n      tag_643\n      jumpi\n      returndatasize\n      0x00\n      dup1\n      returndatacopy\n      revert(0x00, returndatasize)\n    tag_643:\n      pop\n      pop\n      pop\n      pop\n      mload(0x40)\n      returndatasize\n      0x20\n      dup2\n      lt\n      iszero\n      tag_644\n      jumpi\n      0x00\n      dup1\n      revert\n    tag_644:\n      pop\n      mload\n      sub(shl(0xa0, 0x01), 0x01)\n        /* \"swap/UniswapV2Router02.sol\":1277:1341  IUniswapV2Factory(factory).getPair(tokenA, tokenB) == address(0) */\n      and\n      eq\n        /* \"swap/UniswapV2Router02.sol\":1273:1423  if (IUniswapV2Factory(factory).getPair(tokenA, tokenB) == address(0)) {\r... */\n      iszero\n      tag_645\n      jumpi\n        /* \"swap/UniswapV2Router02.sol\":1376:1383  factory */\n      immutable(\"0x277ab82e5a4641341820a4a2933a62c1de997e42e92548657ae21b3728d580fe\")\n      sub(shl(0xa0, 0x01), 0x01)\n        /* \"swap/UniswapV2Router02.sol\":1358:1395  IUniswapV2Factory(factory).createPair */\n      and\n      0xc9c65396\n        /* \"swap/UniswapV2Router02.sol\":1396:1402  tokenA */\n      dup10\n        /* \"swap/UniswapV2Router02.sol\":1404:1410  tokenB */\n      dup10\n        /* \"swap/UniswapV2Router02.sol\":1358:1411  IUniswapV2Factory(factory).createPair(tokenA, tokenB) */\n      mload(0x40)\n      dup4\n      0xffffffff\n      and\n      0xe0\n      shl\n      dup2\n      mstore\n      0x04\n      add\n      dup1\n      dup4\n      sub(shl(0xa0, 0x01), 0x01)\n      and\n      dup2\n      mstore\n      0x20\n      add\n      dup3\n      sub(shl(0xa0, 0x01), 0x01)\n      and\n      dup2\n      mstore\n      0x20\n      add\n      swap3\n      pop\n      pop\n      pop\n      0x20\n      mload(0x40)\n      dup1\n      dup4\n      sub\n      dup2\n      0x00\n      dup8\n      dup1\n      extcodesize\n      iszero\n      dup1\n      iszero\n      tag_646\n      jumpi\n      0x00\n      dup1\n      revert\n    tag_646:\n      pop\n      gas\n      call\n      iszero\n      dup1\n      iszero\n      tag_648\n      jumpi\n      returndatasize\n      0x00\n      dup1\n      returndatacopy\n      revert(0x00, returndatasize)\n    tag_648:\n      pop\n      pop\n      pop\n      pop\n      mload(0x40)\n      returndatasize\n      0x20\n      dup2\n      lt\n      iszero\n      tag_649\n      jumpi\n      0x00\n      dup1\n      revert\n    tag_649:\n      pop\n      pop\n        /* \"swap/UniswapV2Router02.sol\":1273:1423  if (IUniswapV2Factory(factory).getPair(tokenA, tokenB) == address(0)) {\r... */\n    tag_645:\n        /* \"swap/UniswapV2Router02.sol\":1434:1447  uint reserveA */\n      0x00\n        /* \"swap/UniswapV2Router02.sol\":1449:1462  uint reserveB */\n      dup1\n        /* \"swap/UniswapV2Router02.sol\":1466:1519  UniswapV2Library.getReserves(factory, tokenA, tokenB) */\n      tag_650\n        /* \"swap/UniswapV2Router02.sol\":1495:1502  factory */\n      immutable(\"0x277ab82e5a4641341820a4a2933a62c1de997e42e92548657ae21b3728d580fe\")\n        /* \"swap/UniswapV2Router02.sol\":1504:1510  tokenA */\n      dup12\n        /* \"swap/UniswapV2Router02.sol\":1512:1518  tokenB */\n      dup12\n        /* \"swap/UniswapV2Router02.sol\":1466:1494  UniswapV2Library.getReserves */\n      tag_527\n        /* \"swap/UniswapV2Router02.sol\":1466:1519  UniswapV2Library.getReserves(factory, tokenA, tokenB) */\n      jump\t// in\n    tag_650:\n        /* \"swap/UniswapV2Router02.sol\":1433:1519  (uint reserveA, uint reserveB) = UniswapV2Library.getReserves(factory, tokenA, tokenB) */\n      swap2\n      pop\n      swap2\n      pop\n        /* \"swap/UniswapV2Router02.sol\":1534:1542  reserveA */\n      dup2\n        /* \"swap/UniswapV2Router02.sol\":1546:1547  0 */\n      0x00\n        /* \"swap/UniswapV2Router02.sol\":1534:1547  reserveA == 0 */\n      eq\n        /* \"swap/UniswapV2Router02.sol\":1534:1564  reserveA == 0 && reserveB == 0 */\n      dup1\n      iszero\n      tag_651\n      jumpi\n      pop\n        /* \"swap/UniswapV2Router02.sol\":1551:1564  reserveB == 0 */\n      dup1\n      iszero\n        /* \"swap/UniswapV2Router02.sol\":1534:1564  reserveA == 0 && reserveB == 0 */\n    tag_651:\n        /* \"swap/UniswapV2Router02.sol\":1530:2347  if (reserveA == 0 && reserveB == 0) {\r... */\n      iszero\n      tag_652\n      jumpi\n        /* \"swap/UniswapV2Router02.sol\":1603:1617  amountADesired */\n      dup8\n      swap4\n      pop\n        /* \"swap/UniswapV2Router02.sol\":1619:1633  amountBDesired */\n      dup7\n      swap3\n      pop\n        /* \"swap/UniswapV2Router02.sol\":1530:2347  if (reserveA == 0 && reserveB == 0) {\r... */\n      jump(tag_653)\n    tag_652:\n        /* \"swap/UniswapV2Router02.sol\":1667:1686  uint amountBOptimal */\n      0x00\n        /* \"swap/UniswapV2Router02.sol\":1689:1747  UniswapV2Library.quote(amountADesired, reserveA, reserveB) */\n      tag_654\n        /* \"swap/UniswapV2Router02.sol\":1712:1726  amountADesired */\n      dup10\n        /* \"swap/UniswapV2Router02.sol\":1728:1736  reserveA */\n      dup5\n        /* \"swap/UniswapV2Router02.sol\":1738:1746  reserveB */\n      dup5\n        /* \"swap/UniswapV2Router02.sol\":1689:1711  UniswapV2Library.quote */\n      tag_355\n        /* \"swap/UniswapV2Router02.sol\":1689:1747  UniswapV2Library.quote(amountADesired, reserveA, reserveB) */\n      jump\t// in\n    tag_654:\n        /* \"swap/UniswapV2Router02.sol\":1667:1747  uint amountBOptimal = UniswapV2Library.quote(amountADesired, reserveA, reserveB) */\n      swap1\n      pop\n        /* \"swap/UniswapV2Router02.sol\":1784:1798  amountBDesired */\n      dup8\n        /* \"swap/UniswapV2Router02.sol\":1766:1780  amountBOptimal */\n      dup2\n        /* \"swap/UniswapV2Router02.sol\":1766:1798  amountBOptimal <= amountBDesired */\n      gt\n        /* \"swap/UniswapV2Router02.sol\":1762:2336  if (amountBOptimal <= amountBDesired) {\r... */\n      tag_655\n      jumpi\n        /* \"swap/UniswapV2Router02.sol\":1845:1855  amountBMin */\n      dup6\n        /* \"swap/UniswapV2Router02.sol\":1827:1841  amountBOptimal */\n      dup2\n        /* \"swap/UniswapV2Router02.sol\":1827:1855  amountBOptimal >= amountBMin */\n      lt\n      iszero\n        /* \"swap/UniswapV2Router02.sol\":1819:1898  require(amountBOptimal >= amountBMin, 'UniswapV2Router: INSUFFICIENT_B_AMOUNT') */\n      tag_656\n      jumpi\n      mload(0x40)\n      shl(0xe5, 0x461bcd)\n      dup2\n      mstore\n      0x04\n      add\n      dup1\n      dup1\n      0x20\n      add\n      dup3\n      dup2\n      sub\n      dup3\n      mstore\n      0x26\n      dup2\n      mstore\n      0x20\n      add\n      dup1\n      data_508673fa99dd55571c7741114b40754785309d1a2171022cd7c5caaae38fc7b6\n      0x26\n      swap2\n      codecopy\n      0x40\n      add\n      swap2\n      pop\n      pop\n      mload(0x40)\n      dup1\n      swap2\n      sub\n      swap1\n      revert\n    tag_656:\n        /* \"swap/UniswapV2Router02.sol\":1939:1953  amountADesired */\n      dup9\n      swap5\n      pop\n        /* \"swap/UniswapV2Router02.sol\":1955:1969  amountBOptimal */\n      swap3\n      pop\n      dup3\n        /* \"swap/UniswapV2Router02.sol\":1762:2336  if (amountBOptimal <= amountBDesired) {\r... */\n      jump(tag_657)\n    tag_655:\n        /* \"swap/UniswapV2Router02.sol\":2011:2030  uint amountAOptimal */\n      0x00\n        /* \"swap/UniswapV2Router02.sol\":2033:2091  UniswapV2Library.quote(amountBDesired, reserveB, reserveA) */\n      tag_658\n        /* \"swap/UniswapV2Router02.sol\":2056:2070  amountBDesired */\n      dup10\n        /* \"swap/UniswapV2Router02.sol\":2072:2080  reserveB */\n      dup5\n        /* \"swap/UniswapV2Router02.sol\":2082:2090  reserveA */\n      dup7\n        /* \"swap/UniswapV2Router02.sol\":2033:2055  UniswapV2Library.quote */\n      tag_355\n        /* \"swap/UniswapV2Router02.sol\":2033:2091  UniswapV2Library.quote(amountBDesired, reserveB, reserveA) */\n      jump\t// in\n    tag_658:\n        /* \"swap/UniswapV2Router02.sol\":2011:2091  uint amountAOptimal = UniswapV2Library.quote(amountBDesired, reserveB, reserveA) */\n      swap1\n      pop\n        /* \"swap/UniswapV2Router02.sol\":2135:2149  amountADesired */\n      dup10\n        /* \"swap/UniswapV2Router02.sol\":2117:2131  amountAOptimal */\n      dup2\n        /* \"swap/UniswapV2Router02.sol\":2117:2149  amountAOptimal <= amountADesired */\n      gt\n      iszero\n        /* \"swap/UniswapV2Router02.sol\":2110:2150  assert(amountAOptimal <= amountADesired) */\n      tag_659\n      jumpi\n      invalid\n    tag_659:\n        /* \"swap/UniswapV2Router02.sol\":2195:2205  amountAMin */\n      dup8\n        /* \"swap/UniswapV2Router02.sol\":2177:2191  amountAOptimal */\n      dup2\n        /* \"swap/UniswapV2Router02.sol\":2177:2205  amountAOptimal >= amountAMin */\n      lt\n      iszero\n        /* \"swap/UniswapV2Router02.sol\":2169:2248  require(amountAOptimal >= amountAMin, 'UniswapV2Router: INSUFFICIENT_A_AMOUNT') */\n      tag_660\n      jumpi\n      mload(0x40)\n      shl(0xe5, 0x461bcd)\n      dup2\n      mstore\n      0x04\n      add\n      dup1\n      dup1\n      0x20\n      add\n      dup3\n      dup2\n      sub\n      dup3\n      mstore\n      0x26\n      dup2\n      mstore\n      0x20\n      add\n      dup1\n      data_d1d32edc232bc1da2150d590567c5d6321ade8a80edcd2485e6068d018c7fd67\n      0x26\n      swap2\n      codecopy\n      0x40\n      add\n      swap2\n      pop\n      pop\n      mload(0x40)\n      dup1\n      swap2\n      sub\n      swap1\n      revert\n    tag_660:\n        /* \"swap/UniswapV2Router02.sol\":2289:2303  amountAOptimal */\n      swap5\n      pop\n        /* \"swap/UniswapV2Router02.sol\":2305:2319  amountBDesired */\n      dup8\n      swap4\n      pop\n        /* \"swap/UniswapV2Router02.sol\":1762:2336  if (amountBOptimal <= amountBDesired) {\r... */\n    tag_657:\n        /* \"swap/UniswapV2Router02.sol\":1530:2347  if (reserveA == 0 && reserveB == 0) {\r... */\n      pop\n    tag_653:\n        /* \"swap/UniswapV2Router02.sol\":964:2354  function _addLiquidity(\r... */\n      pop\n      pop\n      swap7\n      pop\n      swap7\n      swap5\n      pop\n      pop\n      pop\n      pop\n      pop\n      jump\t// out\n        /* \"swap/libraries/SafeMath.sol\":479:621  function mul(uint x, uint y) internal pure returns (uint z) {\r... */\n    tag_510:\n        /* \"swap/libraries/SafeMath.sol\":531:537  uint z */\n      0x00\n        /* \"swap/libraries/SafeMath.sol\":558:564  y == 0 */\n      dup2\n      iszero\n      dup1\n        /* \"swap/libraries/SafeMath.sol\":558:588  y == 0 || (z = x * y) / y == x */\n      tag_662\n      jumpi\n      pop\n      pop\n        /* \"swap/libraries/SafeMath.sol\":573:578  x * y */\n      dup1\n      dup3\n      mul\n        /* \"swap/libraries/SafeMath.sol\":587:588  x */\n      dup3\n        /* \"swap/libraries/SafeMath.sol\":582:583  y */\n      dup3\n        /* \"swap/libraries/SafeMath.sol\":573:578  x * y */\n      dup3\n        /* \"swap/libraries/SafeMath.sol\":582:583  y */\n      dup2\n        /* \"swap/libraries/SafeMath.sol\":568:583  (z = x * y) / y */\n      tag_663\n      jumpi\n      invalid\n    tag_663:\n      div\n        /* \"swap/libraries/SafeMath.sol\":568:588  (z = x * y) / y == x */\n      eq\n        /* \"swap/libraries/SafeMath.sol\":558:588  y == 0 || (z = x * y) / y == x */\n    tag_662:\n        /* \"swap/libraries/SafeMath.sol\":550:613  require(y == 0 || (z = x * y) / y == x, 'ds-math-mul-overflow') */\n      tag_219\n      jumpi\n      0x40\n      dup1\n      mload\n      shl(0xe5, 0x461bcd)\n      dup2\n      mstore\n      0x20\n      0x04\n      dup3\n      add\n      mstore\n      0x14\n      0x24\n      dup3\n      add\n      mstore\n      shl(0x60, 0x64732d6d6174682d6d756c2d6f766572666c6f77)\n      0x44\n      dup3\n      add\n      mstore\n      swap1\n      mload\n      swap1\n      dup2\n      swap1\n      sub\n      0x64\n      add\n      swap1\n      revert\n        /* \"swap/libraries/SafeMath.sol\":206:334  function add(uint x, uint y) internal pure returns (uint z) {\r... */\n    tag_514:\n        /* \"swap/libraries/SafeMath.sol\":290:295  x + y */\n      dup1\n      dup3\n      add\n        /* \"swap/libraries/SafeMath.sol\":285:301  (z = x + y) >= x */\n      dup3\n      dup2\n      lt\n      iszero\n        /* \"swap/libraries/SafeMath.sol\":277:326  require((z = x + y) >= x, 'ds-math-add-overflow') */\n      tag_219\n      jumpi\n      0x40\n      dup1\n      mload\n      shl(0xe5, 0x461bcd)\n      dup2\n      mstore\n      0x20\n      0x04\n      dup3\n      add\n      mstore\n      0x14\n      0x24\n      dup3\n      add\n      mstore\n      shl(0x60, 0x64732d6d6174682d6164642d6f766572666c6f77)\n      0x44\n      dup3\n      add\n      mstore\n      swap1\n      mload\n      swap1\n      dup2\n      swap1\n      sub\n      0x64\n      add\n      swap1\n      revert\n        /* \"swap/libraries/UniswapV2Library.sol\":1290:1681  function getReserves(address factory, address tokenA, address tokenB) internal view returns (uint reserveA, uint reserveB) {\r... */\n    tag_527:\n        /* \"swap/libraries/UniswapV2Library.sol\":1383:1396  uint reserveA */\n      0x00\n        /* \"swap/libraries/UniswapV2Library.sol\":1398:1411  uint reserveB */\n      dup1\n        /* \"swap/libraries/UniswapV2Library.sol\":1425:1439  address token0 */\n      0x00\n        /* \"swap/libraries/UniswapV2Library.sol\":1444:1470  sortTokens(tokenA, tokenB) */\n      tag_668\n        /* \"swap/libraries/UniswapV2Library.sol\":1455:1461  tokenA */\n      dup6\n        /* \"swap/libraries/UniswapV2Library.sol\":1463:1469  tokenB */\n      dup6\n        /* \"swap/libraries/UniswapV2Library.sol\":1444:1454  sortTokens */\n      tag_411\n        /* \"swap/libraries/UniswapV2Library.sol\":1444:1470  sortTokens(tokenA, tokenB) */\n      jump\t// in\n    tag_668:\n        /* \"swap/libraries/UniswapV2Library.sol\":1424:1470  (address token0,) = sortTokens(tokenA, tokenB) */\n      pop\n      swap1\n      pop\n        /* \"swap/libraries/UniswapV2Library.sol\":1482:1495  uint reserve0 */\n      0x00\n        /* \"swap/libraries/UniswapV2Library.sol\":1497:1510  uint reserve1 */\n      dup1\n        /* \"swap/libraries/UniswapV2Library.sol\":1530:1562  pairFor(factory, tokenA, tokenB) */\n      tag_669\n        /* \"swap/libraries/UniswapV2Library.sol\":1538:1545  factory */\n      dup9\n        /* \"swap/libraries/UniswapV2Library.sol\":1547:1553  tokenA */\n      dup9\n        /* \"swap/libraries/UniswapV2Library.sol\":1555:1561  tokenB */\n      dup9\n        /* \"swap/libraries/UniswapV2Library.sol\":1530:1537  pairFor */\n      tag_208\n        /* \"swap/libraries/UniswapV2Library.sol\":1530:1562  pairFor(factory, tokenA, tokenB) */\n      jump\t// in\n    tag_669:\n      sub(shl(0xa0, 0x01), 0x01)\n        /* \"swap/libraries/UniswapV2Library.sol\":1515:1575  IUniswapV2Pair(pairFor(factory, tokenA, tokenB)).getReserves */\n      and\n      0x0902f1ac\n        /* \"swap/libraries/UniswapV2Library.sol\":1515:1577  IUniswapV2Pair(pairFor(factory, tokenA, tokenB)).getReserves() */\n      mload(0x40)\n      dup2\n      0xffffffff\n      and\n      0xe0\n      shl\n      dup2\n      mstore\n      0x04\n      add\n      0x60\n      mload(0x40)\n      dup1\n      dup4\n      sub\n      dup2\n      dup7\n      dup1\n      extcodesize\n      iszero\n      dup1\n      iszero\n      tag_670\n      jumpi\n      0x00\n      dup1\n      revert\n    tag_670:\n      pop\n      gas\n      staticcall\n      iszero\n      dup1\n      iszero\n      tag_672\n      jumpi\n      returndatasize\n      0x00\n      dup1\n      returndatacopy\n      revert(0x00, returndatasize)\n    tag_672:\n      pop\n      pop\n      pop\n      pop\n      mload(0x40)\n      returndatasize\n      0x60\n      dup2\n      lt\n      iszero\n      tag_673\n      jumpi\n      0x00\n      dup1\n      revert\n    tag_673:\n      pop\n      dup1\n      mload\n      0x20\n      swap1\n      swap2\n      add\n      mload\n      sub(shl(0x70, 0x01), 0x01)\n        /* \"swap/libraries/UniswapV2Library.sol\":1481:1577  (uint reserve0, uint reserve1,) = IUniswapV2Pair(pairFor(factory, tokenA, tokenB)).getReserves() */\n      swap2\n      dup3\n      and\n      swap4\n      pop\n      and\n      swap1\n      pop\n      sub(shl(0xa0, 0x01), 0x01)\n        /* \"swap/libraries/UniswapV2Library.sol\":1611:1627  tokenA == token0 */\n      dup8\n      dup2\n      and\n      swap1\n      dup5\n      and\n      eq\n        /* \"swap/libraries/UniswapV2Library.sol\":1611:1673  tokenA == token0 ? (reserve0, reserve1) : (reserve1, reserve0) */\n      tag_674\n      jumpi\n        /* \"swap/libraries/UniswapV2Library.sol\":1654:1662  reserve1 */\n      dup1\n        /* \"swap/libraries/UniswapV2Library.sol\":1664:1672  reserve0 */\n      dup3\n        /* \"swap/libraries/UniswapV2Library.sol\":1611:1673  tokenA == token0 ? (reserve0, reserve1) : (reserve1, reserve0) */\n      jump(tag_675)\n    tag_674:\n        /* \"swap/libraries/UniswapV2Library.sol\":1631:1639  reserve0 */\n      dup2\n        /* \"swap/libraries/UniswapV2Library.sol\":1641:1649  reserve1 */\n      dup2\n        /* \"swap/libraries/UniswapV2Library.sol\":1611:1673  tokenA == token0 ? (reserve0, reserve1) : (reserve1, reserve0) */\n    tag_675:\n        /* \"swap/libraries/UniswapV2Library.sol\":1588:1673  (reserveA, reserveB) = tokenA == token0 ? (reserve0, reserve1) : (reserve1, reserve0) */\n      swap1\n      swap10\n      swap1\n      swap9\n      pop\n        /* \"swap/libraries/UniswapV2Library.sol\":1290:1681  function getReserves(address factory, address tokenA, address tokenB) internal view returns (uint reserveA, uint reserveB) {\r... */\n      swap7\n      pop\n      pop\n      pop\n      pop\n      pop\n      pop\n      pop\n      jump\t// out\n    stop\n    data_35fb781059090c30aacad20e29b2e40e67f217617fc46f86031ed4eb14923a82 556e697377617056324c6962726172793a20494e53554646494349454e545f4f55545055545f414d4f554e54\n    data_4ddc3ca35a8b7ccaa016ab70252fdf3396ded4f4fd8375f95b1e9d99790fcdca 556e697377617056324c6962726172793a204944454e544943414c5f414444524553534553\n    data_508673fa99dd55571c7741114b40754785309d1a2171022cd7c5caaae38fc7b6 556e69737761705632526f757465723a20494e53554646494349454e545f425f414d4f554e54\n    data_7e8d6b265173dbbd87b3b9e2bf4238bea6caf2b2bbeb63f859a738aec9e761c8 556e697377617056324c6962726172793a20494e53554646494349454e545f4c4951554944495459\n    data_b3ea0cd729028efbc737ad3cde1d4d854e6f2c136b354fbaea9389d68bc3a146 556e697377617056324c6962726172793a20494e53554646494349454e545f414d4f554e54\n    data_bb18004cd22eaad7ea393d184ea6ac1df1428db36bb6fbff8af486232d68ae2c 556e69737761705632526f757465723a204558434553534956455f494e5055545f414d4f554e54\n    data_c80e789ddaeb930b746bbbcb3afe8331d926679fd96f65d8c7468b735c0a14f2 556e69737761705632526f757465723a20494e56414c49445f50415448000000\n    data_d1d32edc232bc1da2150d590567c5d6321ade8a80edcd2485e6068d018c7fd67 556e69737761705632526f757465723a20494e53554646494349454e545f415f414d4f554e54\n    data_d290720a9b119bbeaf8124eb771e119cbea85a2f430cbb39a8fead2398528881 5472616e7366657248656c7065723a204554485f5452414e534645525f4641494c4544\n    data_d4ea67bea551891ab36be726b8e631181246034dffcfd5c0bbfad1e9d1729432 556e69737761705632526f757465723a20494e53554646494349454e545f4f55545055545f414d4f554e54\n    data_eb2904bf3c0c9ae693b53eb0188a703c388998a9c405b7965ca678cef9a51d18 5472616e7366657248656c7065723a205452414e534645525f46524f4d5f4641494c4544\n    data_ec21b006eb37ef20d0f4abcabd34de6854fa68af48294244e0263dc05c1dbbae 556e697377617056324c6962726172793a20494e53554646494349454e545f494e5055545f414d4f554e54\n    data_ee5734acb032ffb1bbaf889d52ccf9fbd1ce0f1ae12bee2c46068d51b910e2c5 556e69737761705632526f757465723a20455850495245440000000000000000\n\n    auxdata: 0xa2646970667358221220a46e6e0ed77a711f31a9b6443fc94dfb883544c6efb28cfa9c2e315b5db93f9a64736f6c634300060c0033\n}\n",
				"bytecode": {
					"linkReferences": {},
					"object": "60c060405234801561001057600080fd5b50604051620046e7380380620046e78339818101604052604081101561003557600080fd5b5080516020909101516001600160601b0319606092831b8116608052911b1660a05260805160601c60a05160601c614562620001856000398061015f5280610ce45280610d1f5280610e16528061103452806113be528061152452806118d352806119ae5280611a885280611b565280611c9c5280611d245280611f605280611fdb528061208f528061215b52806121f05280612264528061274752806129b15280612a075280612a3b5280612aaf5280612c3d5280612d805280612e08525080610ea45280610f7b52806110fa5280611133528061126e528061144c528061150252806116725280611be95280611d565280611eb0528061229652806124d452806126cc52806126f55280612725528061289252806129e55280612cd05280612e3a52806136c0528061370352806139dd5280613b535280613f445280613ffd52806140b052506145626000f3fe60806040526004361061014f5760003560e01c80638803dbee116100b6578063c45a01551161006f578063c45a015514610a10578063d06ca61f14610a25578063ded9382a14610ada578063e8e3370014610b4d578063f305d71914610bcd578063fb3bdb4114610c1357610188565b80638803dbee146107df578063ad5c464814610875578063ad615dec146108a6578063af2979eb146108dc578063b6f9de951461092f578063baa2abde146109b357610188565b80634a25d94a116101085780634a25d94a146104f05780635b0d5984146105865780635c11d795146105f9578063791ac9471461068f5780637ff36ab51461072557806385f8c259146107a957610188565b806302751cec1461018d578063054d50d4146101f957806318cbafe5146102415780631f00ca74146103275780632195995c146103dc57806338ed17391461045a57610188565b3661018857336001600160a01b037f0000000000000000000000000000000000000000000000000000000000000000161461018657fe5b005b600080fd5b34801561019957600080fd5b506101e0600480360360c08110156101b057600080fd5b506001600160a01b0381358116916020810135916040820135916060810135916080820135169060a00135610c97565b6040805192835260208301919091528051918290030190f35b34801561020557600080fd5b5061022f6004803603606081101561021c57600080fd5b5080359060208101359060400135610db1565b60408051918252519081900360200190f35b34801561024d57600080fd5b506102d7600480360360a081101561026457600080fd5b813591602081013591810190606081016040820135600160201b81111561028a57600080fd5b82018360208201111561029c57600080fd5b803590602001918460208302840111600160201b831117156102bd57600080fd5b91935091506001600160a01b038135169060200135610dc6565b60408051602080825283518183015283519192839290830191858101910280838360005b838110156103135781810151838201526020016102fb565b505050509050019250505060405180910390f35b34801561033357600080fd5b506102d76004803603604081101561034a57600080fd5b81359190810190604081016020820135600160201b81111561036b57600080fd5b82018360208201111561037d57600080fd5b803590602001918460208302840111600160201b8311171561039e57600080fd5b9190808060200260200160405190810160405280939291908181526020018383602002808284376000920191909152509295506110f3945050505050565b3480156103e857600080fd5b506101e0600480360361016081101561040057600080fd5b506001600160a01b038135811691602081013582169160408201359160608101359160808201359160a08101359091169060c08101359060e081013515159060ff6101008201351690610120810135906101400135611129565b34801561046657600080fd5b506102d7600480360360a081101561047d57600080fd5b813591602081013591810190606081016040820135600160201b8111156104a357600080fd5b8201836020820111156104b557600080fd5b803590602001918460208302840111600160201b831117156104d657600080fd5b91935091506001600160a01b038135169060200135611223565b3480156104fc57600080fd5b506102d7600480360360a081101561051357600080fd5b813591602081013591810190606081016040820135600160201b81111561053957600080fd5b82018360208201111561054b57600080fd5b803590602001918460208302840111600160201b8311171561056c57600080fd5b91935091506001600160a01b03813516906020013561136e565b34801561059257600080fd5b5061022f60048036036101408110156105aa57600080fd5b506001600160a01b0381358116916020810135916040820135916060810135916080820135169060a08101359060c081013515159060ff60e082013516906101008101359061012001356114fa565b34801561060557600080fd5b50610186600480360360a081101561061c57600080fd5b813591602081013591810190606081016040820135600160201b81111561064257600080fd5b82018360208201111561065457600080fd5b803590602001918460208302840111600160201b8311171561067557600080fd5b91935091506001600160a01b038135169060200135611608565b34801561069b57600080fd5b50610186600480360360a08110156106b257600080fd5b813591602081013591810190606081016040820135600160201b8111156106d857600080fd5b8201836020820111156106ea57600080fd5b803590602001918460208302840111600160201b8311171561070b57600080fd5b91935091506001600160a01b038135169060200135611885565b6102d76004803603608081101561073b57600080fd5b81359190810190604081016020820135600160201b81111561075c57600080fd5b82018360208201111561076e57600080fd5b803590602001918460208302840111600160201b8311171561078f57600080fd5b91935091506001600160a01b038135169060200135611b0e565b3480156107b557600080fd5b5061022f600480360360608110156107cc57600080fd5b5080359060208101359060400135611e58565b3480156107eb57600080fd5b506102d7600480360360a081101561080257600080fd5b813591602081013591810190606081016040820135600160201b81111561082857600080fd5b82018360208201111561083a57600080fd5b803590602001918460208302840111600160201b8311171561085b57600080fd5b91935091506001600160a01b038135169060200135611e65565b34801561088157600080fd5b5061088a611f5e565b604080516001600160a01b039092168252519081900360200190f35b3480156108b257600080fd5b5061022f600480360360608110156108c957600080fd5b5080359060208101359060400135611f82565b3480156108e857600080fd5b5061022f600480360360c08110156108ff57600080fd5b506001600160a01b0381358116916020810135916040820135916060810135916080820135169060a00135611f8f565b6101866004803603608081101561094557600080fd5b81359190810190604081016020820135600160201b81111561096657600080fd5b82018360208201111561097857600080fd5b803590602001918460208302840111600160201b8311171561099957600080fd5b91935091506001600160a01b038135169060200135612115565b3480156109bf57600080fd5b506101e0600480360360e08110156109d657600080fd5b506001600160a01b038135811691602081013582169160408201359160608101359160808201359160a08101359091169060c00135612486565b348015610a1c57600080fd5b5061088a6126ca565b348015610a3157600080fd5b506102d760048036036040811015610a4857600080fd5b81359190810190604081016020820135600160201b811115610a6957600080fd5b820183602082011115610a7b57600080fd5b803590602001918460208302840111600160201b83111715610a9c57600080fd5b9190808060200260200160405190810160405280939291908181526020018383602002808284376000920191909152509295506126ee945050505050565b348015610ae657600080fd5b506101e06004803603610140811015610afe57600080fd5b506001600160a01b0381358116916020810135916040820135916060810135916080820135169060a08101359060c081013515159060ff60e0820135169061010081013590610120013561271b565b348015610b5957600080fd5b50610baf6004803603610100811015610b7157600080fd5b506001600160a01b038135811691602081013582169160408201359160608101359160808201359160a08101359160c0820135169060e0013561282f565b60408051938452602084019290925282820152519081900360600190f35b610baf600480360360c0811015610be357600080fd5b506001600160a01b0381358116916020810135916040820135916060810135916080820135169060a00135612962565b6102d760048036036080811015610c2957600080fd5b81359190810190604081016020820135600160201b811115610c4a57600080fd5b820183602082011115610c5c57600080fd5b803590602001918460208302840111600160201b83111715610c7d57600080fd5b91935091506001600160a01b038135169060200135612bf5565b6000808242811015610cde576040805162461bcd60e51b8152602060048201526018602482015260008051602061450d833981519152604482015290519081900360640190fd5b610d0d897f00000000000000000000000000000000000000000000000000000000000000008a8a8a308a612486565b9093509150610d1d898685612f6e565b7f00000000000000000000000000000000000000000000000000000000000000006001600160a01b0316632e1a7d4d836040518263ffffffff1660e01b815260040180828152602001915050600060405180830381600087803b158015610d8357600080fd5b505af1158015610d97573d6000803e3d6000fd5b50505050610da585836130d8565b50965096945050505050565b6000610dbe8484846131d0565b949350505050565b60608142811015610e0c576040805162461bcd60e51b8152602060048201526018602482015260008051602061450d833981519152604482015290519081900360640190fd5b6001600160a01b037f00000000000000000000000000000000000000000000000000000000000000001686866000198101818110610e4657fe5b905060200201356001600160a01b03166001600160a01b031614610e9f576040805162461bcd60e51b815260206004820152601d602482015260008051602061442a833981519152604482015290519081900360640190fd5b610efd7f0000000000000000000000000000000000000000000000000000000000000000898888808060200260200160405190810160405280939291908181526020018383602002808284376000920191909152506132a892505050565b91508682600184510381518110610f1057fe5b60200260200101511015610f555760405162461bcd60e51b815260040180806020018281038252602b815260200180614493602b913960400191505060405180910390fd5b610ff386866000818110610f6557fe5b905060200201356001600160a01b031633610fd97f00000000000000000000000000000000000000000000000000000000000000008a8a6000818110610fa757fe5b905060200201356001600160a01b03168b8b6001818110610fc457fe5b905060200201356001600160a01b03166133f4565b85600081518110610fe657fe5b60200260200101516134b4565b61103282878780806020026020016040519081016040528093929190818152602001838360200280828437600092019190915250309250613611915050565b7f00000000000000000000000000000000000000000000000000000000000000006001600160a01b0316632e1a7d4d8360018551038151811061107157fe5b60200260200101516040518263ffffffff1660e01b815260040180828152602001915050600060405180830381600087803b1580156110af57600080fd5b505af11580156110c3573d6000803e3d6000fd5b505050506110e884836001855103815181106110db57fe5b60200260200101516130d8565b509695505050505050565b60606111207f0000000000000000000000000000000000000000000000000000000000000000848461384e565b90505b92915050565b60008060006111597f00000000000000000000000000000000000000000000000000000000000000008f8f6133f4565b9050600087611168578c61116c565b6000195b6040805163d505accf60e01b815233600482015230602482015260448101839052606481018c905260ff8a16608482015260a4810189905260c4810188905290519192506001600160a01b0384169163d505accf9160e48082019260009290919082900301818387803b1580156111e257600080fd5b505af11580156111f6573d6000803e3d6000fd5b505050506112098f8f8f8f8f8f8f612486565b809450819550505050509b509b9950505050505050505050565b60608142811015611269576040805162461bcd60e51b8152602060048201526018602482015260008051602061450d833981519152604482015290519081900360640190fd5b6112c77f0000000000000000000000000000000000000000000000000000000000000000898888808060200260200160405190810160405280939291908181526020018383602002808284376000920191909152506132a892505050565b915086826001845103815181106112da57fe5b6020026020010151101561131f5760405162461bcd60e51b815260040180806020018281038252602b815260200180614493602b913960400191505060405180910390fd5b61132f86866000818110610f6557fe5b6110e882878780806020026020016040519081016040528093929190818152602001838360200280828437600092019190915250899250613611915050565b606081428110156113b4576040805162461bcd60e51b8152602060048201526018602482015260008051602061450d833981519152604482015290519081900360640190fd5b6001600160a01b037f000000000000000000000000000000000000000000000000000000000000000016868660001981018181106113ee57fe5b905060200201356001600160a01b03166001600160a01b031614611447576040805162461bcd60e51b815260206004820152601d602482015260008051602061442a833981519152604482015290519081900360640190fd5b6114a57f00000000000000000000000000000000000000000000000000000000000000008988888080602002602001604051908101604052809392919081815260200183836020028082843760009201919091525061384e92505050565b915086826000815181106114b557fe5b60200260200101511115610f555760405162461bcd60e51b81526004018080602001828103825260278152602001806144036027913960400191505060405180910390fd5b6000806115487f00000000000000000000000000000000000000000000000000000000000000008d7f00000000000000000000000000000000000000000000000000000000000000006133f4565b9050600086611557578b61155b565b6000195b6040805163d505accf60e01b815233600482015230602482015260448101839052606481018b905260ff8916608482015260a4810188905260c4810187905290519192506001600160a01b0384169163d505accf9160e48082019260009290919082900301818387803b1580156115d157600080fd5b505af11580156115e5573d6000803e3d6000fd5b505050506115f78d8d8d8d8d8d611f8f565b9d9c50505050505050505050505050565b804281101561164c576040805162461bcd60e51b8152602060048201526018602482015260008051602061450d833981519152604482015290519081900360640190fd5b6116c18585600081811061165c57fe5b905060200201356001600160a01b0316336116bb7f00000000000000000000000000000000000000000000000000000000000000008989600081811061169e57fe5b905060200201356001600160a01b03168a8a6001818110610fc457fe5b8a6134b4565b6000858560001981018181106116d357fe5b905060200201356001600160a01b03166001600160a01b03166370a08231856040518263ffffffff1660e01b815260040180826001600160a01b0316815260200191505060206040518083038186803b15801561172f57600080fd5b505afa158015611743573d6000803e3d6000fd5b505050506040513d602081101561175957600080fd5b5051604080516020888102828101820190935288825292935061179b929091899189918291850190849080828437600092019190915250889250613986915050565b8661183e82888860001981018181106117b057fe5b905060200201356001600160a01b03166001600160a01b03166370a08231886040518263ffffffff1660e01b815260040180826001600160a01b0316815260200191505060206040518083038186803b15801561180c57600080fd5b505afa158015611820573d6000803e3d6000fd5b505050506040513d602081101561183657600080fd5b505190613c88565b101561187b5760405162461bcd60e51b815260040180806020018281038252602b815260200180614493602b913960400191505060405180910390fd5b5050505050505050565b80428110156118c9576040805162461bcd60e51b8152602060048201526018602482015260008051602061450d833981519152604482015290519081900360640190fd5b6001600160a01b037f0000000000000000000000000000000000000000000000000000000000000000168585600019810181811061190357fe5b905060200201356001600160a01b03166001600160a01b03161461195c576040805162461bcd60e51b815260206004820152601d602482015260008051602061442a833981519152604482015290519081900360640190fd5b61196c8585600081811061165c57fe5b6119aa858580806020026020016040519081016040528093929190818152602001838360200280828437600092019190915250309250613986915050565b60007f00000000000000000000000000000000000000000000000000000000000000006001600160a01b03166370a08231306040518263ffffffff1660e01b815260040180826001600160a01b0316815260200191505060206040518083038186803b158015611a1957600080fd5b505afa158015611a2d573d6000803e3d6000fd5b505050506040513d6020811015611a4357600080fd5b5051905086811015611a865760405162461bcd60e51b815260040180806020018281038252602b815260200180614493602b913960400191505060405180910390fd5b7f00000000000000000000000000000000000000000000000000000000000000006001600160a01b0316632e1a7d4d826040518263ffffffff1660e01b815260040180828152602001915050600060405180830381600087803b158015611aec57600080fd5b505af1158015611b00573d6000803e3d6000fd5b5050505061187b84826130d8565b60608142811015611b54576040805162461bcd60e51b8152602060048201526018602482015260008051602061450d833981519152604482015290519081900360640190fd5b7f00000000000000000000000000000000000000000000000000000000000000006001600160a01b031686866000818110611b8b57fe5b905060200201356001600160a01b03166001600160a01b031614611be4576040805162461bcd60e51b815260206004820152601d602482015260008051602061442a833981519152604482015290519081900360640190fd5b611c427f0000000000000000000000000000000000000000000000000000000000000000348888808060200260200160405190810160405280939291908181526020018383602002808284376000920191909152506132a892505050565b91508682600184510381518110611c5557fe5b60200260200101511015611c9a5760405162461bcd60e51b815260040180806020018281038252602b815260200180614493602b913960400191505060405180910390fd5b7f00000000000000000000000000000000000000000000000000000000000000006001600160a01b031663d0e30db083600081518110611cd657fe5b60200260200101516040518263ffffffff1660e01b81526004016000604051808303818588803b158015611d0957600080fd5b505af1158015611d1d573d6000803e3d6000fd5b50505050507f00000000000000000000000000000000000000000000000000000000000000006001600160a01b031663a9059cbb611d827f00000000000000000000000000000000000000000000000000000000000000008989600081811061169e57fe5b84600081518110611d8f57fe5b60200260200101516040518363ffffffff1660e01b815260040180836001600160a01b0316815260200182815260200192505050602060405180830381600087803b158015611ddd57600080fd5b505af1158015611df1573d6000803e3d6000fd5b505050506040513d6020811015611e0757600080fd5b5051611e0f57fe5b611e4e82878780806020026020016040519081016040528093929190818152602001838360200280828437600092019190915250899250613611915050565b5095945050505050565b6000610dbe848484613cd8565b60608142811015611eab576040805162461bcd60e51b8152602060048201526018602482015260008051602061450d833981519152604482015290519081900360640190fd5b611f097f00000000000000000000000000000000000000000000000000000000000000008988888080602002602001604051908101604052809392919081815260200183836020028082843760009201919091525061384e92505050565b91508682600081518110611f1957fe5b6020026020010151111561131f5760405162461bcd60e51b81526004018080602001828103825260278152602001806144036027913960400191505060405180910390fd5b7f000000000000000000000000000000000000000000000000000000000000000081565b6000610dbe848484613db0565b60008142811015611fd5576040805162461bcd60e51b8152602060048201526018602482015260008051602061450d833981519152604482015290519081900360640190fd5b612004887f00000000000000000000000000000000000000000000000000000000000000008989893089612486565b90508092505061208d88858a6001600160a01b03166370a08231306040518263ffffffff1660e01b815260040180826001600160a01b0316815260200191505060206040518083038186803b15801561205c57600080fd5b505afa158015612070573d6000803e3d6000fd5b505050506040513d602081101561208657600080fd5b5051612f6e565b7f00000000000000000000000000000000000000000000000000000000000000006001600160a01b0316632e1a7d4d836040518263ffffffff1660e01b815260040180828152602001915050600060405180830381600087803b1580156120f357600080fd5b505af1158015612107573d6000803e3d6000fd5b505050506110e884836130d8565b8042811015612159576040805162461bcd60e51b8152602060048201526018602482015260008051602061450d833981519152604482015290519081900360640190fd5b7f00000000000000000000000000000000000000000000000000000000000000006001600160a01b03168585600081811061219057fe5b905060200201356001600160a01b03166001600160a01b0316146121e9576040805162461bcd60e51b815260206004820152601d602482015260008051602061442a833981519152604482015290519081900360640190fd5b60003490507f00000000000000000000000000000000000000000000000000000000000000006001600160a01b031663d0e30db0826040518263ffffffff1660e01b81526004016000604051808303818588803b15801561224957600080fd5b505af115801561225d573d6000803e3d6000fd5b50505050507f00000000000000000000000000000000000000000000000000000000000000006001600160a01b031663a9059cbb6122c27f00000000000000000000000000000000000000000000000000000000000000008989600081811061169e57fe5b836040518363ffffffff1660e01b815260040180836001600160a01b0316815260200182815260200192505050602060405180830381600087803b15801561230957600080fd5b505af115801561231d573d6000803e3d6000fd5b505050506040513d602081101561233357600080fd5b505161233b57fe5b60008686600019810181811061234d57fe5b905060200201356001600160a01b03166001600160a01b03166370a08231866040518263ffffffff1660e01b815260040180826001600160a01b0316815260200191505060206040518083038186803b1580156123a957600080fd5b505afa1580156123bd573d6000803e3d6000fd5b505050506040513d60208110156123d357600080fd5b505160408051602089810282810182019093528982529293506124159290918a918a918291850190849080828437600092019190915250899250613986915050565b8761183e828989600019810181811061242a57fe5b905060200201356001600160a01b03166001600160a01b03166370a08231896040518263ffffffff1660e01b815260040180826001600160a01b0316815260200191505060206040518083038186803b15801561180c57600080fd5b60008082428110156124cd576040805162461bcd60e51b8152602060048201526018602482015260008051602061450d833981519152604482015290519081900360640190fd5b60006124fa7f00000000000000000000000000000000000000000000000000000000000000008c8c6133f4565b604080516323b872dd60e01b81523360048201526001600160a01b03831660248201819052604482018d9052915192935090916323b872dd916064808201926020929091908290030181600087803b15801561255557600080fd5b505af1158015612569573d6000803e3d6000fd5b505050506040513d602081101561257f57600080fd5b50506040805163226bf2d160e21b81526001600160a01b03888116600483015282516000938493928616926389afcb44926024808301939282900301818787803b1580156125cc57600080fd5b505af11580156125e0573d6000803e3d6000fd5b505050506040513d60408110156125f657600080fd5b508051602090910151909250905060006126108e8e613e56565b509050806001600160a01b03168e6001600160a01b031614612633578183612636565b82825b90975095508a87101561267a5760405162461bcd60e51b815260040180806020018281038252602681526020018061444a6026913960400191505060405180910390fd5b898610156126b95760405162461bcd60e51b81526004018080602001828103825260268152602001806143906026913960400191505060405180910390fd5b505050505097509795505050505050565b7f000000000000000000000000000000000000000000000000000000000000000081565b60606111207f000000000000000000000000000000000000000000000000000000000000000084846132a8565b600080600061276b7f00000000000000000000000000000000000000000000000000000000000000008e7f00000000000000000000000000000000000000000000000000000000000000006133f4565b905060008761277a578c61277e565b6000195b6040805163d505accf60e01b815233600482015230602482015260448101839052606481018c905260ff8a16608482015260a4810189905260c4810188905290519192506001600160a01b0384169163d505accf9160e48082019260009290919082900301818387803b1580156127f457600080fd5b505af1158015612808573d6000803e3d6000fd5b5050505061281a8e8e8e8e8e8e610c97565b909f909e509c50505050505050505050505050565b60008060008342811015612878576040805162461bcd60e51b8152602060048201526018602482015260008051602061450d833981519152604482015290519081900360640190fd5b6128868c8c8c8c8c8c613f34565b909450925060006128b87f00000000000000000000000000000000000000000000000000000000000000008e8e6133f4565b90506128c68d3383886134b4565b6128d28c3383876134b4565b806001600160a01b0316636a627842886040518263ffffffff1660e01b815260040180826001600160a01b03168152602001915050602060405180830381600087803b15801561292157600080fd5b505af1158015612935573d6000803e3d6000fd5b505050506040513d602081101561294b57600080fd5b5051949d939c50939a509198505050505050505050565b600080600083428110156129ab576040805162461bcd60e51b8152602060048201526018602482015260008051602061450d833981519152604482015290519081900360640190fd5b6129d98a7f00000000000000000000000000000000000000000000000000000000000000008b348c8c613f34565b90945092506000612a2b7f00000000000000000000000000000000000000000000000000000000000000008c7f00000000000000000000000000000000000000000000000000000000000000006133f4565b9050612a398b3383886134b4565b7f00000000000000000000000000000000000000000000000000000000000000006001600160a01b031663d0e30db0856040518263ffffffff1660e01b81526004016000604051808303818588803b158015612a9457600080fd5b505af1158015612aa8573d6000803e3d6000fd5b50505050507f00000000000000000000000000000000000000000000000000000000000000006001600160a01b031663a9059cbb82866040518363ffffffff1660e01b815260040180836001600160a01b0316815260200182815260200192505050602060405180830381600087803b158015612b2457600080fd5b505af1158015612b38573d6000803e3d6000fd5b505050506040513d6020811015612b4e57600080fd5b5051612b5657fe5b806001600160a01b0316636a627842886040518263ffffffff1660e01b815260040180826001600160a01b03168152602001915050602060405180830381600087803b158015612ba557600080fd5b505af1158015612bb9573d6000803e3d6000fd5b505050506040513d6020811015612bcf57600080fd5b5051925034841015612be757612be7338534036130d8565b505096509650969350505050565b60608142811015612c3b576040805162461bcd60e51b8152602060048201526018602482015260008051602061450d833981519152604482015290519081900360640190fd5b7f00000000000000000000000000000000000000000000000000000000000000006001600160a01b031686866000818110612c7257fe5b905060200201356001600160a01b03166001600160a01b031614612ccb576040805162461bcd60e51b815260206004820152601d602482015260008051602061442a833981519152604482015290519081900360640190fd5b612d297f00000000000000000000000000000000000000000000000000000000000000008888888080602002602001604051908101604052809392919081815260200183836020028082843760009201919091525061384e92505050565b91503482600081518110612d3957fe5b60200260200101511115612d7e5760405162461bcd60e51b81526004018080602001828103825260278152602001806144036027913960400191505060405180910390fd5b7f00000000000000000000000000000000000000000000000000000000000000006001600160a01b031663d0e30db083600081518110612dba57fe5b60200260200101516040518263ffffffff1660e01b81526004016000604051808303818588803b158015612ded57600080fd5b505af1158015612e01573d6000803e3d6000fd5b50505050507f00000000000000000000000000000000000000000000000000000000000000006001600160a01b031663a9059cbb612e667f00000000000000000000000000000000000000000000000000000000000000008989600081811061169e57fe5b84600081518110612e7357fe5b60200260200101516040518363ffffffff1660e01b815260040180836001600160a01b0316815260200182815260200192505050602060405180830381600087803b158015612ec157600080fd5b505af1158015612ed5573d6000803e3d6000fd5b505050506040513d6020811015612eeb57600080fd5b5051612ef357fe5b612f3282878780806020026020016040519081016040528093929190818152602001838360200280828437600092019190915250899250613611915050565b81600081518110612f3f57fe5b6020026020010151341115611e4e57611e4e3383600081518110612f5f57fe5b602002602001015134036130d8565b604080516001600160a01b038481166024830152604480830185905283518084039091018152606490920183526020820180516001600160e01b031663a9059cbb60e01b178152925182516000946060949389169392918291908083835b60208310612feb5780518252601f199092019160209182019101612fcc565b6001836020036101000a0380198251168184511680821785525050505050509050019150506000604051808303816000865af19150503d806000811461304d576040519150601f19603f3d011682016040523d82523d6000602084013e613052565b606091505b5091509150818015613080575080511580613080575080806020019051602081101561307d57600080fd5b50515b6130d1576040805162461bcd60e51b815260206004820152601f60248201527f5472616e7366657248656c7065723a205452414e534645525f4641494c454400604482015290519081900360640190fd5b5050505050565b604080516000808252602082019092526001600160a01b0384169083906040518082805190602001908083835b602083106131245780518252601f199092019160209182019101613105565b6001836020036101000a03801982511681845116808217855250505050505090500191505060006040518083038185875af1925050503d8060008114613186576040519150601f19603f3d011682016040523d82523d6000602084013e61318b565b606091505b50509050806131cb5760405162461bcd60e51b81526004018080602001828103825260238152602001806144706023913960400191505060405180910390fd5b505050565b60008084116132105760405162461bcd60e51b815260040180806020018281038252602b8152602001806144e2602b913960400191505060405180910390fd5b6000831180156132205750600082115b61325b5760405162461bcd60e51b81526004018080602001828103825260288152602001806143b66028913960400191505060405180910390fd5b6000613269856103e56141c5565b9050600061327782856141c5565b905060006132918361328b886103e86141c5565b90614228565b905080828161329c57fe5b04979650505050505050565b6060600282511015613301576040805162461bcd60e51b815260206004820152601e60248201527f556e697377617056324c6962726172793a20494e56414c49445f504154480000604482015290519081900360640190fd5b815167ffffffffffffffff8111801561331957600080fd5b50604051908082528060200260200182016040528015613343578160200160208202803683370190505b509050828160008151811061335457fe5b60200260200101818152505060005b60018351038110156133ec576000806133a68786858151811061338257fe5b602002602001015187866001018151811061339957fe5b6020026020010151614277565b915091506133c88484815181106133b957fe5b602002602001015183836131d0565b8484600101815181106133d757fe5b60209081029190910101525050600101613363565b509392505050565b60008060006134038585613e56565b604080516bffffffffffffffffffffffff19606094851b811660208084019190915293851b81166034830152825160288184030181526048830184528051908501206001600160f81b031960688401529a90941b9093166069840152607d8301989098527fbd84901879e0fcac8760da6c2cd60f3650843a1c7a14d07dad27e14e0868feb2609d808401919091528851808403909101815260bd909201909752805196019590952095945050505050565b604080516001600160a01b0385811660248301528481166044830152606480830185905283518084039091018152608490920183526020820180516001600160e01b03166323b872dd60e01b17815292518251600094606094938a169392918291908083835b602083106135395780518252601f19909201916020918201910161351a565b6001836020036101000a0380198251168184511680821785525050505050509050019150506000604051808303816000865af19150503d806000811461359b576040519150601f19603f3d011682016040523d82523d6000602084013e6135a0565b606091505b50915091508180156135ce5750805115806135ce57508080602001905160208110156135cb57600080fd5b50515b6136095760405162461bcd60e51b81526004018080602001828103825260248152602001806144be6024913960400191505060405180910390fd5b505050505050565b60005b60018351038110156138485760008084838151811061362f57fe5b602002602001015185846001018151811061364657fe5b602002602001015191509150600061365e8383613e56565b509050600087856001018151811061367257fe5b60200260200101519050600080836001600160a01b0316866001600160a01b0316146136a0578260006136a4565b6000835b91509150600060028a510388106136bb57886136fc565b6136fc7f0000000000000000000000000000000000000000000000000000000000000000878c8b600201815181106136ef57fe5b60200260200101516133f4565b90506137297f000000000000000000000000000000000000000000000000000000000000000088886133f4565b6001600160a01b031663022c0d9f84848460006040519080825280601f01601f191660200182016040528015613766576020820181803683370190505b506040518563ffffffff1660e01b815260040180858152602001848152602001836001600160a01b0316815260200180602001828103825283818151815260200191508051906020019080838360005b838110156137ce5781810151838201526020016137b6565b50505050905090810190601f1680156137fb5780820380516001836020036101000a031916815260200191505b5095505050505050600060405180830381600087803b15801561381d57600080fd5b505af1158015613831573d6000803e3d6000fd5b505060019099019850613614975050505050505050565b50505050565b60606002825110156138a7576040805162461bcd60e51b815260206004820152601e60248201527f556e697377617056324c6962726172793a20494e56414c49445f504154480000604482015290519081900360640190fd5b815167ffffffffffffffff811180156138bf57600080fd5b506040519080825280602002602001820160405280156138e9578160200160208202803683370190505b50905082816001835103815181106138fd57fe5b60209081029190910101528151600019015b80156133ec5760008061393f8786600186038151811061392b57fe5b602002602001015187868151811061339957fe5b9150915061396184848151811061395257fe5b60200260200101518383613cd8565b84600185038151811061397057fe5b602090810291909101015250506000190161390f565b60005b60018351038110156131cb576000808483815181106139a457fe5b60200260200101518584600101815181106139bb57fe5b60200260200101519150915060006139d38383613e56565b5090506000613a037f000000000000000000000000000000000000000000000000000000000000000085856133f4565b9050600080600080846001600160a01b0316630902f1ac6040518163ffffffff1660e01b815260040160606040518083038186803b158015613a4457600080fd5b505afa158015613a58573d6000803e3d6000fd5b505050506040513d6060811015613a6e57600080fd5b5080516020909101516001600160701b0391821693501690506000806001600160a01b038a811690891614613aa4578284613aa7565b83835b91509150613afc828b6001600160a01b03166370a082318a6040518263ffffffff1660e01b815260040180826001600160a01b0316815260200191505060206040518083038186803b15801561180c57600080fd5b9550613b098683836131d0565b945050505050600080856001600160a01b0316886001600160a01b031614613b3357826000613b37565b6000835b91509150600060028c51038a10613b4e578a613b82565b613b827f0000000000000000000000000000000000000000000000000000000000000000898e8d600201815181106136ef57fe5b604080516000808252602082019283905263022c0d9f60e01b835260248201878152604483018790526001600160a01b038086166064850152608060848501908152845160a48601819052969750908c169563022c0d9f958a958a958a9591949193919260c486019290918190849084905b83811015613c0c578181015183820152602001613bf4565b50505050905090810190601f168015613c395780820380516001836020036101000a031916815260200191505b5095505050505050600060405180830381600087803b158015613c5b57600080fd5b505af1158015613c6f573d6000803e3d6000fd5b50506001909b019a506139899950505050505050505050565b80820382811115611123576040805162461bcd60e51b815260206004820152601560248201527464732d6d6174682d7375622d756e646572666c6f7760581b604482015290519081900360640190fd5b6000808411613d185760405162461bcd60e51b815260040180806020018281038252602c81526020018061433f602c913960400191505060405180910390fd5b600083118015613d285750600082115b613d635760405162461bcd60e51b81526004018080602001828103825260288152602001806143b66028913960400191505060405180910390fd5b6000613d7b6103e8613d7586886141c5565b906141c5565b90506000613d8f6103e5613d758689613c88565b9050613da66001828481613d9f57fe5b0490614228565b9695505050505050565b6000808411613df05760405162461bcd60e51b81526004018080602001828103825260258152602001806143de6025913960400191505060405180910390fd5b600083118015613e005750600082115b613e3b5760405162461bcd60e51b81526004018080602001828103825260288152602001806143b66028913960400191505060405180910390fd5b82613e4685846141c5565b81613e4d57fe5b04949350505050565b600080826001600160a01b0316846001600160a01b03161415613eaa5760405162461bcd60e51b815260040180806020018281038252602581526020018061436b6025913960400191505060405180910390fd5b826001600160a01b0316846001600160a01b031610613eca578284613ecd565b83835b90925090506001600160a01b038216613f2d576040805162461bcd60e51b815260206004820152601e60248201527f556e697377617056324c6962726172793a205a45524f5f414444524553530000604482015290519081900360640190fd5b9250929050565b60008060006001600160a01b03167f00000000000000000000000000000000000000000000000000000000000000006001600160a01b031663e6a439058a8a6040518363ffffffff1660e01b815260040180836001600160a01b03168152602001826001600160a01b031681526020019250505060206040518083038186803b158015613fc057600080fd5b505afa158015613fd4573d6000803e3d6000fd5b505050506040513d6020811015613fea57600080fd5b50516001600160a01b031614156140a8577f00000000000000000000000000000000000000000000000000000000000000006001600160a01b031663c9c6539689896040518363ffffffff1660e01b815260040180836001600160a01b03168152602001826001600160a01b0316815260200192505050602060405180830381600087803b15801561407b57600080fd5b505af115801561408f573d6000803e3d6000fd5b505050506040513d60208110156140a557600080fd5b50505b6000806140d67f00000000000000000000000000000000000000000000000000000000000000008b8b614277565b915091508160001480156140e8575080155b156140f8578793508692506141b8565b6000614105898484613db0565b9050878111614158578581101561414d5760405162461bcd60e51b81526004018080602001828103825260268152602001806143906026913960400191505060405180910390fd5b8894509250826141b6565b6000614165898486613db0565b90508981111561417157fe5b878110156141b05760405162461bcd60e51b815260040180806020018281038252602681526020018061444a6026913960400191505060405180910390fd5b94508793505b505b5050965096945050505050565b60008115806141e0575050808202828282816141dd57fe5b04145b611123576040805162461bcd60e51b815260206004820152601460248201527364732d6d6174682d6d756c2d6f766572666c6f7760601b604482015290519081900360640190fd5b80820182811015611123576040805162461bcd60e51b815260206004820152601460248201527364732d6d6174682d6164642d6f766572666c6f7760601b604482015290519081900360640190fd5b60008060006142868585613e56565b5090506000806142978888886133f4565b6001600160a01b0316630902f1ac6040518163ffffffff1660e01b815260040160606040518083038186803b1580156142cf57600080fd5b505afa1580156142e3573d6000803e3d6000fd5b505050506040513d60608110156142f957600080fd5b5080516020909101516001600160701b0391821693501690506001600160a01b038781169084161461432c57808261432f565b81815b9099909850965050505050505056fe556e697377617056324c6962726172793a20494e53554646494349454e545f4f55545055545f414d4f554e54556e697377617056324c6962726172793a204944454e544943414c5f414444524553534553556e69737761705632526f757465723a20494e53554646494349454e545f425f414d4f554e54556e697377617056324c6962726172793a20494e53554646494349454e545f4c4951554944495459556e697377617056324c6962726172793a20494e53554646494349454e545f414d4f554e54556e69737761705632526f757465723a204558434553534956455f494e5055545f414d4f554e54556e69737761705632526f757465723a20494e56414c49445f50415448000000556e69737761705632526f757465723a20494e53554646494349454e545f415f414d4f554e545472616e7366657248656c7065723a204554485f5452414e534645525f4641494c4544556e69737761705632526f757465723a20494e53554646494349454e545f4f55545055545f414d4f554e545472616e7366657248656c7065723a205452414e534645525f46524f4d5f4641494c4544556e697377617056324c6962726172793a20494e53554646494349454e545f494e5055545f414d4f554e54556e69737761705632526f757465723a20455850495245440000000000000000a2646970667358221220a46e6e0ed77a711f31a9b6443fc94dfb883544c6efb28cfa9c2e315b5db93f9a64736f6c634300060c0033",
					"opcodes": "PUSH1 0xC0 PUSH1 0x40 MSTORE CALLVALUE DUP1 ISZERO PUSH2 0x10 JUMPI PUSH1 0x0 DUP1 REVERT JUMPDEST POP PUSH1 0x40 MLOAD PUSH3 0x46E7 CODESIZE SUB DUP1 PUSH3 0x46E7 DUP4 CODECOPY DUP2 DUP2 ADD PUSH1 0x40 MSTORE PUSH1 0x40 DUP2 LT ISZERO PUSH2 0x35 JUMPI PUSH1 0x0 DUP1 REVERT JUMPDEST POP DUP1 MLOAD PUSH1 0x20 SWAP1 SWAP2 ADD MLOAD PUSH1 0x1 PUSH1 0x1 PUSH1 0x60 SHL SUB NOT PUSH1 0x60 SWAP3 DUP4 SHL DUP2 AND PUSH1 0x80 MSTORE SWAP2 SHL AND PUSH1 0xA0 MSTORE PUSH1 0x80 MLOAD PUSH1 0x60 SHR PUSH1 0xA0 MLOAD PUSH1 0x60 SHR PUSH2 0x4562 PUSH3 0x185 PUSH1 0x0 CODECOPY DUP1 PUSH2 0x15F MSTORE DUP1 PUSH2 0xCE4 MSTORE DUP1 PUSH2 0xD1F MSTORE DUP1 PUSH2 0xE16 MSTORE DUP1 PUSH2 0x1034 MSTORE DUP1 PUSH2 0x13BE MSTORE DUP1 PUSH2 0x1524 MSTORE DUP1 PUSH2 0x18D3 MSTORE DUP1 PUSH2 0x19AE MSTORE DUP1 PUSH2 0x1A88 MSTORE DUP1 PUSH2 0x1B56 MSTORE DUP1 PUSH2 0x1C9C MSTORE DUP1 PUSH2 0x1D24 MSTORE DUP1 PUSH2 0x1F60 MSTORE DUP1 PUSH2 0x1FDB MSTORE DUP1 PUSH2 0x208F MSTORE DUP1 PUSH2 0x215B MSTORE DUP1 PUSH2 0x21F0 MSTORE DUP1 PUSH2 0x2264 MSTORE DUP1 PUSH2 0x2747 MSTORE DUP1 PUSH2 0x29B1 MSTORE DUP1 PUSH2 0x2A07 MSTORE DUP1 PUSH2 0x2A3B MSTORE DUP1 PUSH2 0x2AAF MSTORE DUP1 PUSH2 0x2C3D MSTORE DUP1 PUSH2 0x2D80 MSTORE DUP1 PUSH2 0x2E08 MSTORE POP DUP1 PUSH2 0xEA4 MSTORE DUP1 PUSH2 0xF7B MSTORE DUP1 PUSH2 0x10FA MSTORE DUP1 PUSH2 0x1133 MSTORE DUP1 PUSH2 0x126E MSTORE DUP1 PUSH2 0x144C MSTORE DUP1 PUSH2 0x1502 MSTORE DUP1 PUSH2 0x1672 MSTORE DUP1 PUSH2 0x1BE9 MSTORE DUP1 PUSH2 0x1D56 MSTORE DUP1 PUSH2 0x1EB0 MSTORE DUP1 PUSH2 0x2296 MSTORE DUP1 PUSH2 0x24D4 MSTORE DUP1 PUSH2 0x26CC MSTORE DUP1 PUSH2 0x26F5 MSTORE DUP1 PUSH2 0x2725 MSTORE DUP1 PUSH2 0x2892 MSTORE DUP1 PUSH2 0x29E5 MSTORE DUP1 PUSH2 0x2CD0 MSTORE DUP1 PUSH2 0x2E3A MSTORE DUP1 PUSH2 0x36C0 MSTORE DUP1 PUSH2 0x3703 MSTORE DUP1 PUSH2 0x39DD MSTORE DUP1 PUSH2 0x3B53 MSTORE DUP1 PUSH2 0x3F44 MSTORE DUP1 PUSH2 0x3FFD MSTORE DUP1 PUSH2 0x40B0 MSTORE POP PUSH2 0x4562 PUSH1 0x0 RETURN INVALID PUSH1 0x80 PUSH1 0x40 MSTORE PUSH1 0x4 CALLDATASIZE LT PUSH2 0x14F JUMPI PUSH1 0x0 CALLDATALOAD PUSH1 0xE0 SHR DUP1 PUSH4 0x8803DBEE GT PUSH2 0xB6 JUMPI DUP1 PUSH4 0xC45A0155 GT PUSH2 0x6F JUMPI DUP1 PUSH4 0xC45A0155 EQ PUSH2 0xA10 JUMPI DUP1 PUSH4 0xD06CA61F EQ PUSH2 0xA25 JUMPI DUP1 PUSH4 0xDED9382A EQ PUSH2 0xADA JUMPI DUP1 PUSH4 0xE8E33700 EQ PUSH2 0xB4D JUMPI DUP1 PUSH4 0xF305D719 EQ PUSH2 0xBCD JUMPI DUP1 PUSH4 0xFB3BDB41 EQ PUSH2 0xC13 JUMPI PUSH2 0x188 JUMP JUMPDEST DUP1 PUSH4 0x8803DBEE EQ PUSH2 0x7DF JUMPI DUP1 PUSH4 0xAD5C4648 EQ PUSH2 0x875 JUMPI DUP1 PUSH4 0xAD615DEC EQ PUSH2 0x8A6 JUMPI DUP1 PUSH4 0xAF2979EB EQ PUSH2 0x8DC JUMPI DUP1 PUSH4 0xB6F9DE95 EQ PUSH2 0x92F JUMPI DUP1 PUSH4 0xBAA2ABDE EQ PUSH2 0x9B3 JUMPI PUSH2 0x188 JUMP JUMPDEST DUP1 PUSH4 0x4A25D94A GT PUSH2 0x108 JUMPI DUP1 PUSH4 0x4A25D94A EQ PUSH2 0x4F0 JUMPI DUP1 PUSH4 0x5B0D5984 EQ PUSH2 0x586 JUMPI DUP1 PUSH4 0x5C11D795 EQ PUSH2 0x5F9 JUMPI DUP1 PUSH4 0x791AC947 EQ PUSH2 0x68F JUMPI DUP1 PUSH4 0x7FF36AB5 EQ PUSH2 0x725 JUMPI DUP1 PUSH4 0x85F8C259 EQ PUSH2 0x7A9 JUMPI PUSH2 0x188 JUMP JUMPDEST DUP1 PUSH4 0x2751CEC EQ PUSH2 0x18D JUMPI DUP1 PUSH4 0x54D50D4 EQ PUSH2 0x1F9 JUMPI DUP1 PUSH4 0x18CBAFE5 EQ PUSH2 0x241 JUMPI DUP1 PUSH4 0x1F00CA74 EQ PUSH2 0x327 JUMPI DUP1 PUSH4 0x2195995C EQ PUSH2 0x3DC JUMPI DUP1 PUSH4 0x38ED1739 EQ PUSH2 0x45A JUMPI PUSH2 0x188 JUMP JUMPDEST CALLDATASIZE PUSH2 0x188 JUMPI CALLER PUSH1 0x1 PUSH1 0x1 PUSH1 0xA0 SHL SUB PUSH32 0x0 AND EQ PUSH2 0x186 JUMPI INVALID JUMPDEST STOP JUMPDEST PUSH1 0x0 DUP1 REVERT JUMPDEST CALLVALUE DUP1 ISZERO PUSH2 0x199 JUMPI PUSH1 0x0 DUP1 REVERT JUMPDEST POP PUSH2 0x1E0 PUSH1 0x4 DUP1 CALLDATASIZE SUB PUSH1 0xC0 DUP2 LT ISZERO PUSH2 0x1B0 JUMPI PUSH1 0x0 DUP1 REVERT JUMPDEST POP PUSH1 0x1 PUSH1 0x1 PUSH1 0xA0 SHL SUB DUP2 CALLDATALOAD DUP2 AND SWAP2 PUSH1 0x20 DUP2 ADD CALLDATALOAD SWAP2 PUSH1 0x40 DUP3 ADD CALLDATALOAD SWAP2 PUSH1 0x60 DUP2 ADD CALLDATALOAD SWAP2 PUSH1 0x80 DUP3 ADD CALLDATALOAD AND SWAP1 PUSH1 0xA0 ADD CALLDATALOAD PUSH2 0xC97 JUMP JUMPDEST PUSH1 0x40 DUP1 MLOAD SWAP3 DUP4 MSTORE PUSH1 0x20 DUP4 ADD SWAP2 SWAP1 SWAP2 MSTORE DUP1 MLOAD SWAP2 DUP3 SWAP1 SUB ADD SWAP1 RETURN JUMPDEST CALLVALUE DUP1 ISZERO PUSH2 0x205 JUMPI PUSH1 0x0 DUP1 REVERT JUMPDEST POP PUSH2 0x22F PUSH1 0x4 DUP1 CALLDATASIZE SUB PUSH1 0x60 DUP2 LT ISZERO PUSH2 0x21C JUMPI PUSH1 0x0 DUP1 REVERT JUMPDEST POP DUP1 CALLDATALOAD SWAP1 PUSH1 0x20 DUP2 ADD CALLDATALOAD SWAP1 PUSH1 0x40 ADD CALLDATALOAD PUSH2 0xDB1 JUMP JUMPDEST PUSH1 0x40 DUP1 MLOAD SWAP2 DUP3 MSTORE MLOAD SWAP1 DUP2 SWAP1 SUB PUSH1 0x20 ADD SWAP1 RETURN JUMPDEST CALLVALUE DUP1 ISZERO PUSH2 0x24D JUMPI PUSH1 0x0 DUP1 REVERT JUMPDEST POP PUSH2 0x2D7 PUSH1 0x4 DUP1 CALLDATASIZE SUB PUSH1 0xA0 DUP2 LT ISZERO PUSH2 0x264 JUMPI PUSH1 0x0 DUP1 REVERT JUMPDEST DUP2 CALLDATALOAD SWAP2 PUSH1 0x20 DUP2 ADD CALLDATALOAD SWAP2 DUP2 ADD SWAP1 PUSH1 0x60 DUP2 ADD PUSH1 0x40 DUP3 ADD CALLDATALOAD PUSH1 0x1 PUSH1 0x20 SHL DUP2 GT ISZERO PUSH2 0x28A JUMPI PUSH1 0x0 DUP1 REVERT JUMPDEST DUP3 ADD DUP4 PUSH1 0x20 DUP3 ADD GT ISZERO PUSH2 0x29C JUMPI PUSH1 0x0 DUP1 REVERT JUMPDEST DUP1 CALLDATALOAD SWAP1 PUSH1 0x20 ADD SWAP2 DUP5 PUSH1 0x20 DUP4 MUL DUP5 ADD GT PUSH1 0x1 PUSH1 0x20 SHL DUP4 GT OR ISZERO PUSH2 0x2BD JUMPI PUSH1 0x0 DUP1 REVERT JUMPDEST SWAP2 SWAP4 POP SWAP2 POP PUSH1 0x1 PUSH1 0x1 PUSH1 0xA0 SHL SUB DUP2 CALLDATALOAD AND SWAP1 PUSH1 0x20 ADD CALLDATALOAD PUSH2 0xDC6 JUMP JUMPDEST PUSH1 0x40 DUP1 MLOAD PUSH1 0x20 DUP1 DUP3 MSTORE DUP4 MLOAD DUP2 DUP4 ADD MSTORE DUP4 MLOAD SWAP2 SWAP3 DUP4 SWAP3 SWAP1 DUP4 ADD SWAP2 DUP6 DUP2 ADD SWAP2 MUL DUP1 DUP4 DUP4 PUSH1 0x0 JUMPDEST DUP4 DUP2 LT ISZERO PUSH2 0x313 JUMPI DUP2 DUP2 ADD MLOAD DUP4 DUP3 ADD MSTORE PUSH1 0x20 ADD PUSH2 0x2FB JUMP JUMPDEST POP POP POP POP SWAP1 POP ADD SWAP3 POP POP POP PUSH1 0x40 MLOAD DUP1 SWAP2 SUB SWAP1 RETURN JUMPDEST CALLVALUE DUP1 ISZERO PUSH2 0x333 JUMPI PUSH1 0x0 DUP1 REVERT JUMPDEST POP PUSH2 0x2D7 PUSH1 0x4 DUP1 CALLDATASIZE SUB PUSH1 0x40 DUP2 LT ISZERO PUSH2 0x34A JUMPI PUSH1 0x0 DUP1 REVERT JUMPDEST DUP2 CALLDATALOAD SWAP2 SWAP1 DUP2 ADD SWAP1 PUSH1 0x40 DUP2 ADD PUSH1 0x20 DUP3 ADD CALLDATALOAD PUSH1 0x1 PUSH1 0x20 SHL DUP2 GT ISZERO PUSH2 0x36B JUMPI PUSH1 0x0 DUP1 REVERT JUMPDEST DUP3 ADD DUP4 PUSH1 0x20 DUP3 ADD GT ISZERO PUSH2 0x37D JUMPI PUSH1 0x0 DUP1 REVERT JUMPDEST DUP1 CALLDATALOAD SWAP1 PUSH1 0x20 ADD SWAP2 DUP5 PUSH1 0x20 DUP4 MUL DUP5 ADD GT PUSH1 0x1 PUSH1 0x20 SHL DUP4 GT OR ISZERO PUSH2 0x39E JUMPI PUSH1 0x0 DUP1 REVERT JUMPDEST SWAP2 SWAP1 DUP1 DUP1 PUSH1 0x20 MUL PUSH1 0x20 ADD PUSH1 0x40 MLOAD SWAP1 DUP2 ADD PUSH1 0x40 MSTORE DUP1 SWAP4 SWAP3 SWAP2 SWAP1 DUP2 DUP2 MSTORE PUSH1 0x20 ADD DUP4 DUP4 PUSH1 0x20 MUL DUP1 DUP3 DUP5 CALLDATACOPY PUSH1 0x0 SWAP3 ADD SWAP2 SWAP1 SWAP2 MSTORE POP SWAP3 SWAP6 POP PUSH2 0x10F3 SWAP5 POP POP POP POP POP JUMP JUMPDEST CALLVALUE DUP1 ISZERO PUSH2 0x3E8 JUMPI PUSH1 0x0 DUP1 REVERT JUMPDEST POP PUSH2 0x1E0 PUSH1 0x4 DUP1 CALLDATASIZE SUB PUSH2 0x160 DUP2 LT ISZERO PUSH2 0x400 JUMPI PUSH1 0x0 DUP1 REVERT JUMPDEST POP PUSH1 0x1 PUSH1 0x1 PUSH1 0xA0 SHL SUB DUP2 CALLDATALOAD DUP2 AND SWAP2 PUSH1 0x20 DUP2 ADD CALLDATALOAD DUP3 AND SWAP2 PUSH1 0x40 DUP3 ADD CALLDATALOAD SWAP2 PUSH1 0x60 DUP2 ADD CALLDATALOAD SWAP2 PUSH1 0x80 DUP3 ADD CALLDATALOAD SWAP2 PUSH1 0xA0 DUP2 ADD CALLDATALOAD SWAP1 SWAP2 AND SWAP1 PUSH1 0xC0 DUP2 ADD CALLDATALOAD SWAP1 PUSH1 0xE0 DUP2 ADD CALLDATALOAD ISZERO ISZERO SWAP1 PUSH1 0xFF PUSH2 0x100 DUP3 ADD CALLDATALOAD AND SWAP1 PUSH2 0x120 DUP2 ADD CALLDATALOAD SWAP1 PUSH2 0x140 ADD CALLDATALOAD PUSH2 0x1129 JUMP JUMPDEST CALLVALUE DUP1 ISZERO PUSH2 0x466 JUMPI PUSH1 0x0 DUP1 REVERT JUMPDEST POP PUSH2 0x2D7 PUSH1 0x4 DUP1 CALLDATASIZE SUB PUSH1 0xA0 DUP2 LT ISZERO PUSH2 0x47D JUMPI PUSH1 0x0 DUP1 REVERT JUMPDEST DUP2 CALLDATALOAD SWAP2 PUSH1 0x20 DUP2 ADD CALLDATALOAD SWAP2 DUP2 ADD SWAP1 PUSH1 0x60 DUP2 ADD PUSH1 0x40 DUP3 ADD CALLDATALOAD PUSH1 0x1 PUSH1 0x20 SHL DUP2 GT ISZERO PUSH2 0x4A3 JUMPI PUSH1 0x0 DUP1 REVERT JUMPDEST DUP3 ADD DUP4 PUSH1 0x20 DUP3 ADD GT ISZERO PUSH2 0x4B5 JUMPI PUSH1 0x0 DUP1 REVERT JUMPDEST DUP1 CALLDATALOAD SWAP1 PUSH1 0x20 ADD SWAP2 DUP5 PUSH1 0x20 DUP4 MUL DUP5 ADD GT PUSH1 0x1 PUSH1 0x20 SHL DUP4 GT OR ISZERO PUSH2 0x4D6 JUMPI PUSH1 0x0 DUP1 REVERT JUMPDEST SWAP2 SWAP4 POP SWAP2 POP PUSH1 0x1 PUSH1 0x1 PUSH1 0xA0 SHL SUB DUP2 CALLDATALOAD AND SWAP1 PUSH1 0x20 ADD CALLDATALOAD PUSH2 0x1223 JUMP JUMPDEST CALLVALUE DUP1 ISZERO PUSH2 0x4FC JUMPI PUSH1 0x0 DUP1 REVERT JUMPDEST POP PUSH2 0x2D7 PUSH1 0x4 DUP1 CALLDATASIZE SUB PUSH1 0xA0 DUP2 LT ISZERO PUSH2 0x513 JUMPI PUSH1 0x0 DUP1 REVERT JUMPDEST DUP2 CALLDATALOAD SWAP2 PUSH1 0x20 DUP2 ADD CALLDATALOAD SWAP2 DUP2 ADD SWAP1 PUSH1 0x60 DUP2 ADD PUSH1 0x40 DUP3 ADD CALLDATALOAD PUSH1 0x1 PUSH1 0x20 SHL DUP2 GT ISZERO PUSH2 0x539 JUMPI PUSH1 0x0 DUP1 REVERT JUMPDEST DUP3 ADD DUP4 PUSH1 0x20 DUP3 ADD GT ISZERO PUSH2 0x54B JUMPI PUSH1 0x0 DUP1 REVERT JUMPDEST DUP1 CALLDATALOAD SWAP1 PUSH1 0x20 ADD SWAP2 DUP5 PUSH1 0x20 DUP4 MUL DUP5 ADD GT PUSH1 0x1 PUSH1 0x20 SHL DUP4 GT OR ISZERO PUSH2 0x56C JUMPI PUSH1 0x0 DUP1 REVERT JUMPDEST SWAP2 SWAP4 POP SWAP2 POP PUSH1 0x1 PUSH1 0x1 PUSH1 0xA0 SHL SUB DUP2 CALLDATALOAD AND SWAP1 PUSH1 0x20 ADD CALLDATALOAD PUSH2 0x136E JUMP JUMPDEST CALLVALUE DUP1 ISZERO PUSH2 0x592 JUMPI PUSH1 0x0 DUP1 REVERT JUMPDEST POP PUSH2 0x22F PUSH1 0x4 DUP1 CALLDATASIZE SUB PUSH2 0x140 DUP2 LT ISZERO PUSH2 0x5AA JUMPI PUSH1 0x0 DUP1 REVERT JUMPDEST POP PUSH1 0x1 PUSH1 0x1 PUSH1 0xA0 SHL SUB DUP2 CALLDATALOAD DUP2 AND SWAP2 PUSH1 0x20 DUP2 ADD CALLDATALOAD SWAP2 PUSH1 0x40 DUP3 ADD CALLDATALOAD SWAP2 PUSH1 0x60 DUP2 ADD CALLDATALOAD SWAP2 PUSH1 0x80 DUP3 ADD CALLDATALOAD AND SWAP1 PUSH1 0xA0 DUP2 ADD CALLDATALOAD SWAP1 PUSH1 0xC0 DUP2 ADD CALLDATALOAD ISZERO ISZERO SWAP1 PUSH1 0xFF PUSH1 0xE0 DUP3 ADD CALLDATALOAD AND SWAP1 PUSH2 0x100 DUP2 ADD CALLDATALOAD SWAP1 PUSH2 0x120 ADD CALLDATALOAD PUSH2 0x14FA JUMP JUMPDEST CALLVALUE DUP1 ISZERO PUSH2 0x605 JUMPI PUSH1 0x0 DUP1 REVERT JUMPDEST POP PUSH2 0x186 PUSH1 0x4 DUP1 CALLDATASIZE SUB PUSH1 0xA0 DUP2 LT ISZERO PUSH2 0x61C JUMPI PUSH1 0x0 DUP1 REVERT JUMPDEST DUP2 CALLDATALOAD SWAP2 PUSH1 0x20 DUP2 ADD CALLDATALOAD SWAP2 DUP2 ADD SWAP1 PUSH1 0x60 DUP2 ADD PUSH1 0x40 DUP3 ADD CALLDATALOAD PUSH1 0x1 PUSH1 0x20 SHL DUP2 GT ISZERO PUSH2 0x642 JUMPI PUSH1 0x0 DUP1 REVERT JUMPDEST DUP3 ADD DUP4 PUSH1 0x20 DUP3 ADD GT ISZERO PUSH2 0x654 JUMPI PUSH1 0x0 DUP1 REVERT JUMPDEST DUP1 CALLDATALOAD SWAP1 PUSH1 0x20 ADD SWAP2 DUP5 PUSH1 0x20 DUP4 MUL DUP5 ADD GT PUSH1 0x1 PUSH1 0x20 SHL DUP4 GT OR ISZERO PUSH2 0x675 JUMPI PUSH1 0x0 DUP1 REVERT JUMPDEST SWAP2 SWAP4 POP SWAP2 POP PUSH1 0x1 PUSH1 0x1 PUSH1 0xA0 SHL SUB DUP2 CALLDATALOAD AND SWAP1 PUSH1 0x20 ADD CALLDATALOAD PUSH2 0x1608 JUMP JUMPDEST CALLVALUE DUP1 ISZERO PUSH2 0x69B JUMPI PUSH1 0x0 DUP1 REVERT JUMPDEST POP PUSH2 0x186 PUSH1 0x4 DUP1 CALLDATASIZE SUB PUSH1 0xA0 DUP2 LT ISZERO PUSH2 0x6B2 JUMPI PUSH1 0x0 DUP1 REVERT JUMPDEST DUP2 CALLDATALOAD SWAP2 PUSH1 0x20 DUP2 ADD CALLDATALOAD SWAP2 DUP2 ADD SWAP1 PUSH1 0x60 DUP2 ADD PUSH1 0x40 DUP3 ADD CALLDATALOAD PUSH1 0x1 PUSH1 0x20 SHL DUP2 GT ISZERO PUSH2 0x6D8 JUMPI PUSH1 0x0 DUP1 REVERT JUMPDEST DUP3 ADD DUP4 PUSH1 0x20 DUP3 ADD GT ISZERO PUSH2 0x6EA JUMPI PUSH1 0x0 DUP1 REVERT JUMPDEST DUP1 CALLDATALOAD SWAP1 PUSH1 0x20 ADD SWAP2 DUP5 PUSH1 0x20 DUP4 MUL DUP5 ADD GT PUSH1 0x1 PUSH1 0x20 SHL DUP4 GT OR ISZERO PUSH2 0x70B JUMPI PUSH1 0x0 DUP1 REVERT JUMPDEST SWAP2 SWAP4 POP SWAP2 POP PUSH1 0x1 PUSH1 0x1 PUSH1 0xA0 SHL SUB DUP2 CALLDATALOAD AND SWAP1 PUSH1 0x20 ADD CALLDATALOAD PUSH2 0x1885 JUMP JUMPDEST PUSH2 0x2D7 PUSH1 0x4 DUP1 CALLDATASIZE SUB PUSH1 0x80 DUP2 LT ISZERO PUSH2 0x73B JUMPI PUSH1 0x0 DUP1 REVERT JUMPDEST DUP2 CALLDATALOAD SWAP2 SWAP1 DUP2 ADD SWAP1 PUSH1 0x40 DUP2 ADD PUSH1 0x20 DUP3 ADD CALLDATALOAD PUSH1 0x1 PUSH1 0x20 SHL DUP2 GT ISZERO PUSH2 0x75C JUMPI PUSH1 0x0 DUP1 REVERT JUMPDEST DUP3 ADD DUP4 PUSH1 0x20 DUP3 ADD GT ISZERO PUSH2 0x76E JUMPI PUSH1 0x0 DUP1 REVERT JUMPDEST DUP1 CALLDATALOAD SWAP1 PUSH1 0x20 ADD SWAP2 DUP5 PUSH1 0x20 DUP4 MUL DUP5 ADD GT PUSH1 0x1 PUSH1 0x20 SHL DUP4 GT OR ISZERO PUSH2 0x78F JUMPI PUSH1 0x0 DUP1 REVERT JUMPDEST SWAP2 SWAP4 POP SWAP2 POP PUSH1 0x1 PUSH1 0x1 PUSH1 0xA0 SHL SUB DUP2 CALLDATALOAD AND SWAP1 PUSH1 0x20 ADD CALLDATALOAD PUSH2 0x1B0E JUMP JUMPDEST CALLVALUE DUP1 ISZERO PUSH2 0x7B5 JUMPI PUSH1 0x0 DUP1 REVERT JUMPDEST POP PUSH2 0x22F PUSH1 0x4 DUP1 CALLDATASIZE SUB PUSH1 0x60 DUP2 LT ISZERO PUSH2 0x7CC JUMPI PUSH1 0x0 DUP1 REVERT JUMPDEST POP DUP1 CALLDATALOAD SWAP1 PUSH1 0x20 DUP2 ADD CALLDATALOAD SWAP1 PUSH1 0x40 ADD CALLDATALOAD PUSH2 0x1E58 JUMP JUMPDEST CALLVALUE DUP1 ISZERO PUSH2 0x7EB JUMPI PUSH1 0x0 DUP1 REVERT JUMPDEST POP PUSH2 0x2D7 PUSH1 0x4 DUP1 CALLDATASIZE SUB PUSH1 0xA0 DUP2 LT ISZERO PUSH2 0x802 JUMPI PUSH1 0x0 DUP1 REVERT JUMPDEST DUP2 CALLDATALOAD SWAP2 PUSH1 0x20 DUP2 ADD CALLDATALOAD SWAP2 DUP2 ADD SWAP1 PUSH1 0x60 DUP2 ADD PUSH1 0x40 DUP3 ADD CALLDATALOAD PUSH1 0x1 PUSH1 0x20 SHL DUP2 GT ISZERO PUSH2 0x828 JUMPI PUSH1 0x0 DUP1 REVERT JUMPDEST DUP3 ADD DUP4 PUSH1 0x20 DUP3 ADD GT ISZERO PUSH2 0x83A JUMPI PUSH1 0x0 DUP1 REVERT JUMPDEST DUP1 CALLDATALOAD SWAP1 PUSH1 0x20 ADD SWAP2 DUP5 PUSH1 0x20 DUP4 MUL DUP5 ADD GT PUSH1 0x1 PUSH1 0x20 SHL DUP4 GT OR ISZERO PUSH2 0x85B JUMPI PUSH1 0x0 DUP1 REVERT JUMPDEST SWAP2 SWAP4 POP SWAP2 POP PUSH1 0x1 PUSH1 0x1 PUSH1 0xA0 SHL SUB DUP2 CALLDATALOAD AND SWAP1 PUSH1 0x20 ADD CALLDATALOAD PUSH2 0x1E65 JUMP JUMPDEST CALLVALUE DUP1 ISZERO PUSH2 0x881 JUMPI PUSH1 0x0 DUP1 REVERT JUMPDEST POP PUSH2 0x88A PUSH2 0x1F5E JUMP JUMPDEST PUSH1 0x40 DUP1 MLOAD PUSH1 0x1 PUSH1 0x1 PUSH1 0xA0 SHL SUB SWAP1 SWAP3 AND DUP3 MSTORE MLOAD SWAP1 DUP2 SWAP1 SUB PUSH1 0x20 ADD SWAP1 RETURN JUMPDEST CALLVALUE DUP1 ISZERO PUSH2 0x8B2 JUMPI PUSH1 0x0 DUP1 REVERT JUMPDEST POP PUSH2 0x22F PUSH1 0x4 DUP1 CALLDATASIZE SUB PUSH1 0x60 DUP2 LT ISZERO PUSH2 0x8C9 JUMPI PUSH1 0x0 DUP1 REVERT JUMPDEST POP DUP1 CALLDATALOAD SWAP1 PUSH1 0x20 DUP2 ADD CALLDATALOAD SWAP1 PUSH1 0x40 ADD CALLDATALOAD PUSH2 0x1F82 JUMP JUMPDEST CALLVALUE DUP1 ISZERO PUSH2 0x8E8 JUMPI PUSH1 0x0 DUP1 REVERT JUMPDEST POP PUSH2 0x22F PUSH1 0x4 DUP1 CALLDATASIZE SUB PUSH1 0xC0 DUP2 LT ISZERO PUSH2 0x8FF JUMPI PUSH1 0x0 DUP1 REVERT JUMPDEST POP PUSH1 0x1 PUSH1 0x1 PUSH1 0xA0 SHL SUB DUP2 CALLDATALOAD DUP2 AND SWAP2 PUSH1 0x20 DUP2 ADD CALLDATALOAD SWAP2 PUSH1 0x40 DUP3 ADD CALLDATALOAD SWAP2 PUSH1 0x60 DUP2 ADD CALLDATALOAD SWAP2 PUSH1 0x80 DUP3 ADD CALLDATALOAD AND SWAP1 PUSH1 0xA0 ADD CALLDATALOAD PUSH2 0x1F8F JUMP JUMPDEST PUSH2 0x186 PUSH1 0x4 DUP1 CALLDATASIZE SUB PUSH1 0x80 DUP2 LT ISZERO PUSH2 0x945 JUMPI PUSH1 0x0 DUP1 REVERT JUMPDEST DUP2 CALLDATALOAD SWAP2 SWAP1 DUP2 ADD SWAP1 PUSH1 0x40 DUP2 ADD PUSH1 0x20 DUP3 ADD CALLDATALOAD PUSH1 0x1 PUSH1 0x20 SHL DUP2 GT ISZERO PUSH2 0x966 JUMPI PUSH1 0x0 DUP1 REVERT JUMPDEST DUP3 ADD DUP4 PUSH1 0x20 DUP3 ADD GT ISZERO PUSH2 0x978 JUMPI PUSH1 0x0 DUP1 REVERT JUMPDEST DUP1 CALLDATALOAD SWAP1 PUSH1 0x20 ADD SWAP2 DUP5 PUSH1 0x20 DUP4 MUL DUP5 ADD GT PUSH1 0x1 PUSH1 0x20 SHL DUP4 GT OR ISZERO PUSH2 0x999 JUMPI PUSH1 0x0 DUP1 REVERT JUMPDEST SWAP2 SWAP4 POP SWAP2 POP PUSH1 0x1 PUSH1 0x1 PUSH1 0xA0 SHL SUB DUP2 CALLDATALOAD AND SWAP1 PUSH1 0x20 ADD CALLDATALOAD PUSH2 0x2115 JUMP JUMPDEST CALLVALUE DUP1 ISZERO PUSH2 0x9BF JUMPI PUSH1 0x0 DUP1 REVERT JUMPDEST POP PUSH2 0x1E0 PUSH1 0x4 DUP1 CALLDATASIZE SUB PUSH1 0xE0 DUP2 LT ISZERO PUSH2 0x9D6 JUMPI PUSH1 0x0 DUP1 REVERT JUMPDEST POP PUSH1 0x1 PUSH1 0x1 PUSH1 0xA0 SHL SUB DUP2 CALLDATALOAD DUP2 AND SWAP2 PUSH1 0x20 DUP2 ADD CALLDATALOAD DUP3 AND SWAP2 PUSH1 0x40 DUP3 ADD CALLDATALOAD SWAP2 PUSH1 0x60 DUP2 ADD CALLDATALOAD SWAP2 PUSH1 0x80 DUP3 ADD CALLDATALOAD SWAP2 PUSH1 0xA0 DUP2 ADD CALLDATALOAD SWAP1 SWAP2 AND SWAP1 PUSH1 0xC0 ADD CALLDATALOAD PUSH2 0x2486 JUMP JUMPDEST CALLVALUE DUP1 ISZERO PUSH2 0xA1C JUMPI PUSH1 0x0 DUP1 REVERT JUMPDEST POP PUSH2 0x88A PUSH2 0x26CA JUMP JUMPDEST CALLVALUE DUP1 ISZERO PUSH2 0xA31 JUMPI PUSH1 0x0 DUP1 REVERT JUMPDEST POP PUSH2 0x2D7 PUSH1 0x4 DUP1 CALLDATASIZE SUB PUSH1 0x40 DUP2 LT ISZERO PUSH2 0xA48 JUMPI PUSH1 0x0 DUP1 REVERT JUMPDEST DUP2 CALLDATALOAD SWAP2 SWAP1 DUP2 ADD SWAP1 PUSH1 0x40 DUP2 ADD PUSH1 0x20 DUP3 ADD CALLDATALOAD PUSH1 0x1 PUSH1 0x20 SHL DUP2 GT ISZERO PUSH2 0xA69 JUMPI PUSH1 0x0 DUP1 REVERT JUMPDEST DUP3 ADD DUP4 PUSH1 0x20 DUP3 ADD GT ISZERO PUSH2 0xA7B JUMPI PUSH1 0x0 DUP1 REVERT JUMPDEST DUP1 CALLDATALOAD SWAP1 PUSH1 0x20 ADD SWAP2 DUP5 PUSH1 0x20 DUP4 MUL DUP5 ADD GT PUSH1 0x1 PUSH1 0x20 SHL DUP4 GT OR ISZERO PUSH2 0xA9C JUMPI PUSH1 0x0 DUP1 REVERT JUMPDEST SWAP2 SWAP1 DUP1 DUP1 PUSH1 0x20 MUL PUSH1 0x20 ADD PUSH1 0x40 MLOAD SWAP1 DUP2 ADD PUSH1 0x40 MSTORE DUP1 SWAP4 SWAP3 SWAP2 SWAP1 DUP2 DUP2 MSTORE PUSH1 0x20 ADD DUP4 DUP4 PUSH1 0x20 MUL DUP1 DUP3 DUP5 CALLDATACOPY PUSH1 0x0 SWAP3 ADD SWAP2 SWAP1 SWAP2 MSTORE POP SWAP3 SWAP6 POP PUSH2 0x26EE SWAP5 POP POP POP POP POP JUMP JUMPDEST CALLVALUE DUP1 ISZERO PUSH2 0xAE6 JUMPI PUSH1 0x0 DUP1 REVERT JUMPDEST POP PUSH2 0x1E0 PUSH1 0x4 DUP1 CALLDATASIZE SUB PUSH2 0x140 DUP2 LT ISZERO PUSH2 0xAFE JUMPI PUSH1 0x0 DUP1 REVERT JUMPDEST POP PUSH1 0x1 PUSH1 0x1 PUSH1 0xA0 SHL SUB DUP2 CALLDATALOAD DUP2 AND SWAP2 PUSH1 0x20 DUP2 ADD CALLDATALOAD SWAP2 PUSH1 0x40 DUP3 ADD CALLDATALOAD SWAP2 PUSH1 0x60 DUP2 ADD CALLDATALOAD SWAP2 PUSH1 0x80 DUP3 ADD CALLDATALOAD AND SWAP1 PUSH1 0xA0 DUP2 ADD CALLDATALOAD SWAP1 PUSH1 0xC0 DUP2 ADD CALLDATALOAD ISZERO ISZERO SWAP1 PUSH1 0xFF PUSH1 0xE0 DUP3 ADD CALLDATALOAD AND SWAP1 PUSH2 0x100 DUP2 ADD CALLDATALOAD SWAP1 PUSH2 0x120 ADD CALLDATALOAD PUSH2 0x271B JUMP JUMPDEST CALLVALUE DUP1 ISZERO PUSH2 0xB59 JUMPI PUSH1 0x0 DUP1 REVERT JUMPDEST POP PUSH2 0xBAF PUSH1 0x4 DUP1 CALLDATASIZE SUB PUSH2 0x100 DUP2 LT ISZERO PUSH2 0xB71 JUMPI PUSH1 0x0 DUP1 REVERT JUMPDEST POP PUSH1 0x1 PUSH1 0x1 PUSH1 0xA0 SHL SUB DUP2 CALLDATALOAD DUP2 AND SWAP2 PUSH1 0x20 DUP2 ADD CALLDATALOAD DUP3 AND SWAP2 PUSH1 0x40 DUP3 ADD CALLDATALOAD SWAP2 PUSH1 0x60 DUP2 ADD CALLDATALOAD SWAP2 PUSH1 0x80 DUP3 ADD CALLDATALOAD SWAP2 PUSH1 0xA0 DUP2 ADD CALLDATALOAD SWAP2 PUSH1 0xC0 DUP3 ADD CALLDATALOAD AND SWAP1 PUSH1 0xE0 ADD CALLDATALOAD PUSH2 0x282F JUMP JUMPDEST PUSH1 0x40 DUP1 MLOAD SWAP4 DUP5 MSTORE PUSH1 0x20 DUP5 ADD SWAP3 SWAP1 SWAP3 MSTORE DUP3 DUP3 ADD MSTORE MLOAD SWAP1 DUP2 SWAP1 SUB PUSH1 0x60 ADD SWAP1 RETURN JUMPDEST PUSH2 0xBAF PUSH1 0x4 DUP1 CALLDATASIZE SUB PUSH1 0xC0 DUP2 LT ISZERO PUSH2 0xBE3 JUMPI PUSH1 0x0 DUP1 REVERT JUMPDEST POP PUSH1 0x1 PUSH1 0x1 PUSH1 0xA0 SHL SUB DUP2 CALLDATALOAD DUP2 AND SWAP2 PUSH1 0x20 DUP2 ADD CALLDATALOAD SWAP2 PUSH1 0x40 DUP3 ADD CALLDATALOAD SWAP2 PUSH1 0x60 DUP2 ADD CALLDATALOAD SWAP2 PUSH1 0x80 DUP3 ADD CALLDATALOAD AND SWAP1 PUSH1 0xA0 ADD CALLDATALOAD PUSH2 0x2962 JUMP JUMPDEST PUSH2 0x2D7 PUSH1 0x4 DUP1 CALLDATASIZE SUB PUSH1 0x80 DUP2 LT ISZERO PUSH2 0xC29 JUMPI PUSH1 0x0 DUP1 REVERT JUMPDEST DUP2 CALLDATALOAD SWAP2 SWAP1 DUP2 ADD SWAP1 PUSH1 0x40 DUP2 ADD PUSH1 0x20 DUP3 ADD CALLDATALOAD PUSH1 0x1 PUSH1 0x20 SHL DUP2 GT ISZERO PUSH2 0xC4A JUMPI PUSH1 0x0 DUP1 REVERT JUMPDEST DUP3 ADD DUP4 PUSH1 0x20 DUP3 ADD GT ISZERO PUSH2 0xC5C JUMPI PUSH1 0x0 DUP1 REVERT JUMPDEST DUP1 CALLDATALOAD SWAP1 PUSH1 0x20 ADD SWAP2 DUP5 PUSH1 0x20 DUP4 MUL DUP5 ADD GT PUSH1 0x1 PUSH1 0x20 SHL DUP4 GT OR ISZERO PUSH2 0xC7D JUMPI PUSH1 0x0 DUP1 REVERT JUMPDEST SWAP2 SWAP4 POP SWAP2 POP PUSH1 0x1 PUSH1 0x1 PUSH1 0xA0 SHL SUB DUP2 CALLDATALOAD AND SWAP1 PUSH1 0x20 ADD CALLDATALOAD PUSH2 0x2BF5 JUMP JUMPDEST PUSH1 0x0 DUP1 DUP3 TIMESTAMP DUP2 LT ISZERO PUSH2 0xCDE JUMPI PUSH1 0x40 DUP1 MLOAD PUSH3 0x461BCD PUSH1 0xE5 SHL DUP2 MSTORE PUSH1 0x20 PUSH1 0x4 DUP3 ADD MSTORE PUSH1 0x18 PUSH1 0x24 DUP3 ADD MSTORE PUSH1 0x0 DUP1 MLOAD PUSH1 0x20 PUSH2 0x450D DUP4 CODECOPY DUP2 MLOAD SWAP2 MSTORE PUSH1 0x44 DUP3 ADD MSTORE SWAP1 MLOAD SWAP1 DUP2 SWAP1 SUB PUSH1 0x64 ADD SWAP1 REVERT JUMPDEST PUSH2 0xD0D DUP10 PUSH32 0x0 DUP11 DUP11 DUP11 ADDRESS DUP11 PUSH2 0x2486 JUMP JUMPDEST SWAP1 SWAP4 POP SWAP2 POP PUSH2 0xD1D DUP10 DUP7 DUP6 PUSH2 0x2F6E JUMP JUMPDEST PUSH32 0x0 PUSH1 0x1 PUSH1 0x1 PUSH1 0xA0 SHL SUB AND PUSH4 0x2E1A7D4D DUP4 PUSH1 0x40 MLOAD DUP3 PUSH4 0xFFFFFFFF AND PUSH1 0xE0 SHL DUP2 MSTORE PUSH1 0x4 ADD DUP1 DUP3 DUP2 MSTORE PUSH1 0x20 ADD SWAP2 POP POP PUSH1 0x0 PUSH1 0x40 MLOAD DUP1 DUP4 SUB DUP2 PUSH1 0x0 DUP8 DUP1 EXTCODESIZE ISZERO DUP1 ISZERO PUSH2 0xD83 JUMPI PUSH1 0x0 DUP1 REVERT JUMPDEST POP GAS CALL ISZERO DUP1 ISZERO PUSH2 0xD97 JUMPI RETURNDATASIZE PUSH1 0x0 DUP1 RETURNDATACOPY RETURNDATASIZE PUSH1 0x0 REVERT JUMPDEST POP POP POP POP PUSH2 0xDA5 DUP6 DUP4 PUSH2 0x30D8 JUMP JUMPDEST POP SWAP7 POP SWAP7 SWAP5 POP POP POP POP POP JUMP JUMPDEST PUSH1 0x0 PUSH2 0xDBE DUP5 DUP5 DUP5 PUSH2 0x31D0 JUMP JUMPDEST SWAP5 SWAP4 POP POP POP POP JUMP JUMPDEST PUSH1 0x60 DUP2 TIMESTAMP DUP2 LT ISZERO PUSH2 0xE0C JUMPI PUSH1 0x40 DUP1 MLOAD PUSH3 0x461BCD PUSH1 0xE5 SHL DUP2 MSTORE PUSH1 0x20 PUSH1 0x4 DUP3 ADD MSTORE PUSH1 0x18 PUSH1 0x24 DUP3 ADD MSTORE PUSH1 0x0 DUP1 MLOAD PUSH1 0x20 PUSH2 0x450D DUP4 CODECOPY DUP2 MLOAD SWAP2 MSTORE PUSH1 0x44 DUP3 ADD MSTORE SWAP1 MLOAD SWAP1 DUP2 SWAP1 SUB PUSH1 0x64 ADD SWAP1 REVERT JUMPDEST PUSH1 0x1 PUSH1 0x1 PUSH1 0xA0 SHL SUB PUSH32 0x0 AND DUP7 DUP7 PUSH1 0x0 NOT DUP2 ADD DUP2 DUP2 LT PUSH2 0xE46 JUMPI INVALID JUMPDEST SWAP1 POP PUSH1 0x20 MUL ADD CALLDATALOAD PUSH1 0x1 PUSH1 0x1 PUSH1 0xA0 SHL SUB AND PUSH1 0x1 PUSH1 0x1 PUSH1 0xA0 SHL SUB AND EQ PUSH2 0xE9F JUMPI PUSH1 0x40 DUP1 MLOAD PUSH3 0x461BCD PUSH1 0xE5 SHL DUP2 MSTORE PUSH1 0x20 PUSH1 0x4 DUP3 ADD MSTORE PUSH1 0x1D PUSH1 0x24 DUP3 ADD MSTORE PUSH1 0x0 DUP1 MLOAD PUSH1 0x20 PUSH2 0x442A DUP4 CODECOPY DUP2 MLOAD SWAP2 MSTORE PUSH1 0x44 DUP3 ADD MSTORE SWAP1 MLOAD SWAP1 DUP2 SWAP1 SUB PUSH1 0x64 ADD SWAP1 REVERT JUMPDEST PUSH2 0xEFD PUSH32 0x0 DUP10 DUP9 DUP9 DUP1 DUP1 PUSH1 0x20 MUL PUSH1 0x20 ADD PUSH1 0x40 MLOAD SWAP1 DUP2 ADD PUSH1 0x40 MSTORE DUP1 SWAP4 SWAP3 SWAP2 SWAP1 DUP2 DUP2 MSTORE PUSH1 0x20 ADD DUP4 DUP4 PUSH1 0x20 MUL DUP1 DUP3 DUP5 CALLDATACOPY PUSH1 0x0 SWAP3 ADD SWAP2 SWAP1 SWAP2 MSTORE POP PUSH2 0x32A8 SWAP3 POP POP POP JUMP JUMPDEST SWAP2 POP DUP7 DUP3 PUSH1 0x1 DUP5 MLOAD SUB DUP2 MLOAD DUP2 LT PUSH2 0xF10 JUMPI INVALID JUMPDEST PUSH1 0x20 MUL PUSH1 0x20 ADD ADD MLOAD LT ISZERO PUSH2 0xF55 JUMPI PUSH1 0x40 MLOAD PUSH3 0x461BCD PUSH1 0xE5 SHL DUP2 MSTORE PUSH1 0x4 ADD DUP1 DUP1 PUSH1 0x20 ADD DUP3 DUP2 SUB DUP3 MSTORE PUSH1 0x2B DUP2 MSTORE PUSH1 0x20 ADD DUP1 PUSH2 0x4493 PUSH1 0x2B SWAP2 CODECOPY PUSH1 0x40 ADD SWAP2 POP POP PUSH1 0x40 MLOAD DUP1 SWAP2 SUB SWAP1 REVERT JUMPDEST PUSH2 0xFF3 DUP7 DUP7 PUSH1 0x0 DUP2 DUP2 LT PUSH2 0xF65 JUMPI INVALID JUMPDEST SWAP1 POP PUSH1 0x20 MUL ADD CALLDATALOAD PUSH1 0x1 PUSH1 0x1 PUSH1 0xA0 SHL SUB AND CALLER PUSH2 0xFD9 PUSH32 0x0 DUP11 DUP11 PUSH1 0x0 DUP2 DUP2 LT PUSH2 0xFA7 JUMPI INVALID JUMPDEST SWAP1 POP PUSH1 0x20 MUL ADD CALLDATALOAD PUSH1 0x1 PUSH1 0x1 PUSH1 0xA0 SHL SUB AND DUP12 DUP12 PUSH1 0x1 DUP2 DUP2 LT PUSH2 0xFC4 JUMPI INVALID JUMPDEST SWAP1 POP PUSH1 0x20 MUL ADD CALLDATALOAD PUSH1 0x1 PUSH1 0x1 PUSH1 0xA0 SHL SUB AND PUSH2 0x33F4 JUMP JUMPDEST DUP6 PUSH1 0x0 DUP2 MLOAD DUP2 LT PUSH2 0xFE6 JUMPI INVALID JUMPDEST PUSH1 0x20 MUL PUSH1 0x20 ADD ADD MLOAD PUSH2 0x34B4 JUMP JUMPDEST PUSH2 0x1032 DUP3 DUP8 DUP8 DUP1 DUP1 PUSH1 0x20 MUL PUSH1 0x20 ADD PUSH1 0x40 MLOAD SWAP1 DUP2 ADD PUSH1 0x40 MSTORE DUP1 SWAP4 SWAP3 SWAP2 SWAP1 DUP2 DUP2 MSTORE PUSH1 0x20 ADD DUP4 DUP4 PUSH1 0x20 MUL DUP1 DUP3 DUP5 CALLDATACOPY PUSH1 0x0 SWAP3 ADD SWAP2 SWAP1 SWAP2 MSTORE POP ADDRESS SWAP3 POP PUSH2 0x3611 SWAP2 POP POP JUMP JUMPDEST PUSH32 0x0 PUSH1 0x1 PUSH1 0x1 PUSH1 0xA0 SHL SUB AND PUSH4 0x2E1A7D4D DUP4 PUSH1 0x1 DUP6 MLOAD SUB DUP2 MLOAD DUP2 LT PUSH2 0x1071 JUMPI INVALID JUMPDEST PUSH1 0x20 MUL PUSH1 0x20 ADD ADD MLOAD PUSH1 0x40 MLOAD DUP3 PUSH4 0xFFFFFFFF AND PUSH1 0xE0 SHL DUP2 MSTORE PUSH1 0x4 ADD DUP1 DUP3 DUP2 MSTORE PUSH1 0x20 ADD SWAP2 POP POP PUSH1 0x0 PUSH1 0x40 MLOAD DUP1 DUP4 SUB DUP2 PUSH1 0x0 DUP8 DUP1 EXTCODESIZE ISZERO DUP1 ISZERO PUSH2 0x10AF JUMPI PUSH1 0x0 DUP1 REVERT JUMPDEST POP GAS CALL ISZERO DUP1 ISZERO PUSH2 0x10C3 JUMPI RETURNDATASIZE PUSH1 0x0 DUP1 RETURNDATACOPY RETURNDATASIZE PUSH1 0x0 REVERT JUMPDEST POP POP POP POP PUSH2 0x10E8 DUP5 DUP4 PUSH1 0x1 DUP6 MLOAD SUB DUP2 MLOAD DUP2 LT PUSH2 0x10DB JUMPI INVALID JUMPDEST PUSH1 0x20 MUL PUSH1 0x20 ADD ADD MLOAD PUSH2 0x30D8 JUMP JUMPDEST POP SWAP7 SWAP6 POP POP POP POP POP POP JUMP JUMPDEST PUSH1 0x60 PUSH2 0x1120 PUSH32 0x0 DUP5 DUP5 PUSH2 0x384E JUMP JUMPDEST SWAP1 POP JUMPDEST SWAP3 SWAP2 POP POP JUMP JUMPDEST PUSH1 0x0 DUP1 PUSH1 0x0 PUSH2 0x1159 PUSH32 0x0 DUP16 DUP16 PUSH2 0x33F4 JUMP JUMPDEST SWAP1 POP PUSH1 0x0 DUP8 PUSH2 0x1168 JUMPI DUP13 PUSH2 0x116C JUMP JUMPDEST PUSH1 0x0 NOT JUMPDEST PUSH1 0x40 DUP1 MLOAD PUSH4 0xD505ACCF PUSH1 0xE0 SHL DUP2 MSTORE CALLER PUSH1 0x4 DUP3 ADD MSTORE ADDRESS PUSH1 0x24 DUP3 ADD MSTORE PUSH1 0x44 DUP2 ADD DUP4 SWAP1 MSTORE PUSH1 0x64 DUP2 ADD DUP13 SWAP1 MSTORE PUSH1 0xFF DUP11 AND PUSH1 0x84 DUP3 ADD MSTORE PUSH1 0xA4 DUP2 ADD DUP10 SWAP1 MSTORE PUSH1 0xC4 DUP2 ADD DUP9 SWAP1 MSTORE SWAP1 MLOAD SWAP2 SWAP3 POP PUSH1 0x1 PUSH1 0x1 PUSH1 0xA0 SHL SUB DUP5 AND SWAP2 PUSH4 0xD505ACCF SWAP2 PUSH1 0xE4 DUP1 DUP3 ADD SWAP3 PUSH1 0x0 SWAP3 SWAP1 SWAP2 SWAP1 DUP3 SWAP1 SUB ADD DUP2 DUP4 DUP8 DUP1 EXTCODESIZE ISZERO DUP1 ISZERO PUSH2 0x11E2 JUMPI PUSH1 0x0 DUP1 REVERT JUMPDEST POP GAS CALL ISZERO DUP1 ISZERO PUSH2 0x11F6 JUMPI RETURNDATASIZE PUSH1 0x0 DUP1 RETURNDATACOPY RETURNDATASIZE PUSH1 0x0 REVERT JUMPDEST POP POP POP POP PUSH2 0x1209 DUP16 DUP16 DUP16 DUP16 DUP16 DUP16 DUP16 PUSH2 0x2486 JUMP JUMPDEST DUP1 SWAP5 POP DUP2 SWAP6 POP POP POP POP POP SWAP12 POP SWAP12 SWAP10 POP POP POP POP POP POP POP POP POP POP JUMP JUMPDEST PUSH1 0x60 DUP2 TIMESTAMP DUP2 LT ISZERO PUSH2 0x1269 JUMPI PUSH1 0x40 DUP1 MLOAD PUSH3 0x461BCD PUSH1 0xE5 SHL DUP2 MSTORE PUSH1 0x20 PUSH1 0x4 DUP3 ADD MSTORE PUSH1 0x18 PUSH1 0x24 DUP3 ADD MSTORE PUSH1 0x0 DUP1 MLOAD PUSH1 0x20 PUSH2 0x450D DUP4 CODECOPY DUP2 MLOAD SWAP2 MSTORE PUSH1 0x44 DUP3 ADD MSTORE SWAP1 MLOAD SWAP1 DUP2 SWAP1 SUB PUSH1 0x64 ADD SWAP1 REVERT JUMPDEST PUSH2 0x12C7 PUSH32 0x0 DUP10 DUP9 DUP9 DUP1 DUP1 PUSH1 0x20 MUL PUSH1 0x20 ADD PUSH1 0x40 MLOAD SWAP1 DUP2 ADD PUSH1 0x40 MSTORE DUP1 SWAP4 SWAP3 SWAP2 SWAP1 DUP2 DUP2 MSTORE PUSH1 0x20 ADD DUP4 DUP4 PUSH1 0x20 MUL DUP1 DUP3 DUP5 CALLDATACOPY PUSH1 0x0 SWAP3 ADD SWAP2 SWAP1 SWAP2 MSTORE POP PUSH2 0x32A8 SWAP3 POP POP POP JUMP JUMPDEST SWAP2 POP DUP7 DUP3 PUSH1 0x1 DUP5 MLOAD SUB DUP2 MLOAD DUP2 LT PUSH2 0x12DA JUMPI INVALID JUMPDEST PUSH1 0x20 MUL PUSH1 0x20 ADD ADD MLOAD LT ISZERO PUSH2 0x131F JUMPI PUSH1 0x40 MLOAD PUSH3 0x461BCD PUSH1 0xE5 SHL DUP2 MSTORE PUSH1 0x4 ADD DUP1 DUP1 PUSH1 0x20 ADD DUP3 DUP2 SUB DUP3 MSTORE PUSH1 0x2B DUP2 MSTORE PUSH1 0x20 ADD DUP1 PUSH2 0x4493 PUSH1 0x2B SWAP2 CODECOPY PUSH1 0x40 ADD SWAP2 POP POP PUSH1 0x40 MLOAD DUP1 SWAP2 SUB SWAP1 REVERT JUMPDEST PUSH2 0x132F DUP7 DUP7 PUSH1 0x0 DUP2 DUP2 LT PUSH2 0xF65 JUMPI INVALID JUMPDEST PUSH2 0x10E8 DUP3 DUP8 DUP8 DUP1 DUP1 PUSH1 0x20 MUL PUSH1 0x20 ADD PUSH1 0x40 MLOAD SWAP1 DUP2 ADD PUSH1 0x40 MSTORE DUP1 SWAP4 SWAP3 SWAP2 SWAP1 DUP2 DUP2 MSTORE PUSH1 0x20 ADD DUP4 DUP4 PUSH1 0x20 MUL DUP1 DUP3 DUP5 CALLDATACOPY PUSH1 0x0 SWAP3 ADD SWAP2 SWAP1 SWAP2 MSTORE POP DUP10 SWAP3 POP PUSH2 0x3611 SWAP2 POP POP JUMP JUMPDEST PUSH1 0x60 DUP2 TIMESTAMP DUP2 LT ISZERO PUSH2 0x13B4 JUMPI PUSH1 0x40 DUP1 MLOAD PUSH3 0x461BCD PUSH1 0xE5 SHL DUP2 MSTORE PUSH1 0x20 PUSH1 0x4 DUP3 ADD MSTORE PUSH1 0x18 PUSH1 0x24 DUP3 ADD MSTORE PUSH1 0x0 DUP1 MLOAD PUSH1 0x20 PUSH2 0x450D DUP4 CODECOPY DUP2 MLOAD SWAP2 MSTORE PUSH1 0x44 DUP3 ADD MSTORE SWAP1 MLOAD SWAP1 DUP2 SWAP1 SUB PUSH1 0x64 ADD SWAP1 REVERT JUMPDEST PUSH1 0x1 PUSH1 0x1 PUSH1 0xA0 SHL SUB PUSH32 0x0 AND DUP7 DUP7 PUSH1 0x0 NOT DUP2 ADD DUP2 DUP2 LT PUSH2 0x13EE JUMPI INVALID JUMPDEST SWAP1 POP PUSH1 0x20 MUL ADD CALLDATALOAD PUSH1 0x1 PUSH1 0x1 PUSH1 0xA0 SHL SUB AND PUSH1 0x1 PUSH1 0x1 PUSH1 0xA0 SHL SUB AND EQ PUSH2 0x1447 JUMPI PUSH1 0x40 DUP1 MLOAD PUSH3 0x461BCD PUSH1 0xE5 SHL DUP2 MSTORE PUSH1 0x20 PUSH1 0x4 DUP3 ADD MSTORE PUSH1 0x1D PUSH1 0x24 DUP3 ADD MSTORE PUSH1 0x0 DUP1 MLOAD PUSH1 0x20 PUSH2 0x442A DUP4 CODECOPY DUP2 MLOAD SWAP2 MSTORE PUSH1 0x44 DUP3 ADD MSTORE SWAP1 MLOAD SWAP1 DUP2 SWAP1 SUB PUSH1 0x64 ADD SWAP1 REVERT JUMPDEST PUSH2 0x14A5 PUSH32 0x0 DUP10 DUP9 DUP9 DUP1 DUP1 PUSH1 0x20 MUL PUSH1 0x20 ADD PUSH1 0x40 MLOAD SWAP1 DUP2 ADD PUSH1 0x40 MSTORE DUP1 SWAP4 SWAP3 SWAP2 SWAP1 DUP2 DUP2 MSTORE PUSH1 0x20 ADD DUP4 DUP4 PUSH1 0x20 MUL DUP1 DUP3 DUP5 CALLDATACOPY PUSH1 0x0 SWAP3 ADD SWAP2 SWAP1 SWAP2 MSTORE POP PUSH2 0x384E SWAP3 POP POP POP JUMP JUMPDEST SWAP2 POP DUP7 DUP3 PUSH1 0x0 DUP2 MLOAD DUP2 LT PUSH2 0x14B5 JUMPI INVALID JUMPDEST PUSH1 0x20 MUL PUSH1 0x20 ADD ADD MLOAD GT ISZERO PUSH2 0xF55 JUMPI PUSH1 0x40 MLOAD PUSH3 0x461BCD PUSH1 0xE5 SHL DUP2 MSTORE PUSH1 0x4 ADD DUP1 DUP1 PUSH1 0x20 ADD DUP3 DUP2 SUB DUP3 MSTORE PUSH1 0x27 DUP2 MSTORE PUSH1 0x20 ADD DUP1 PUSH2 0x4403 PUSH1 0x27 SWAP2 CODECOPY PUSH1 0x40 ADD SWAP2 POP POP PUSH1 0x40 MLOAD DUP1 SWAP2 SUB SWAP1 REVERT JUMPDEST PUSH1 0x0 DUP1 PUSH2 0x1548 PUSH32 0x0 DUP14 PUSH32 0x0 PUSH2 0x33F4 JUMP JUMPDEST SWAP1 POP PUSH1 0x0 DUP7 PUSH2 0x1557 JUMPI DUP12 PUSH2 0x155B JUMP JUMPDEST PUSH1 0x0 NOT JUMPDEST PUSH1 0x40 DUP1 MLOAD PUSH4 0xD505ACCF PUSH1 0xE0 SHL DUP2 MSTORE CALLER PUSH1 0x4 DUP3 ADD MSTORE ADDRESS PUSH1 0x24 DUP3 ADD MSTORE PUSH1 0x44 DUP2 ADD DUP4 SWAP1 MSTORE PUSH1 0x64 DUP2 ADD DUP12 SWAP1 MSTORE PUSH1 0xFF DUP10 AND PUSH1 0x84 DUP3 ADD MSTORE PUSH1 0xA4 DUP2 ADD DUP9 SWAP1 MSTORE PUSH1 0xC4 DUP2 ADD DUP8 SWAP1 MSTORE SWAP1 MLOAD SWAP2 SWAP3 POP PUSH1 0x1 PUSH1 0x1 PUSH1 0xA0 SHL SUB DUP5 AND SWAP2 PUSH4 0xD505ACCF SWAP2 PUSH1 0xE4 DUP1 DUP3 ADD SWAP3 PUSH1 0x0 SWAP3 SWAP1 SWAP2 SWAP1 DUP3 SWAP1 SUB ADD DUP2 DUP4 DUP8 DUP1 EXTCODESIZE ISZERO DUP1 ISZERO PUSH2 0x15D1 JUMPI PUSH1 0x0 DUP1 REVERT JUMPDEST POP GAS CALL ISZERO DUP1 ISZERO PUSH2 0x15E5 JUMPI RETURNDATASIZE PUSH1 0x0 DUP1 RETURNDATACOPY RETURNDATASIZE PUSH1 0x0 REVERT JUMPDEST POP POP POP POP PUSH2 0x15F7 DUP14 DUP14 DUP14 DUP14 DUP14 DUP14 PUSH2 0x1F8F JUMP JUMPDEST SWAP14 SWAP13 POP POP POP POP POP POP POP POP POP POP POP POP POP JUMP JUMPDEST DUP1 TIMESTAMP DUP2 LT ISZERO PUSH2 0x164C JUMPI PUSH1 0x40 DUP1 MLOAD PUSH3 0x461BCD PUSH1 0xE5 SHL DUP2 MSTORE PUSH1 0x20 PUSH1 0x4 DUP3 ADD MSTORE PUSH1 0x18 PUSH1 0x24 DUP3 ADD MSTORE PUSH1 0x0 DUP1 MLOAD PUSH1 0x20 PUSH2 0x450D DUP4 CODECOPY DUP2 MLOAD SWAP2 MSTORE PUSH1 0x44 DUP3 ADD MSTORE SWAP1 MLOAD SWAP1 DUP2 SWAP1 SUB PUSH1 0x64 ADD SWAP1 REVERT JUMPDEST PUSH2 0x16C1 DUP6 DUP6 PUSH1 0x0 DUP2 DUP2 LT PUSH2 0x165C JUMPI INVALID JUMPDEST SWAP1 POP PUSH1 0x20 MUL ADD CALLDATALOAD PUSH1 0x1 PUSH1 0x1 PUSH1 0xA0 SHL SUB AND CALLER PUSH2 0x16BB PUSH32 0x0 DUP10 DUP10 PUSH1 0x0 DUP2 DUP2 LT PUSH2 0x169E JUMPI INVALID JUMPDEST SWAP1 POP PUSH1 0x20 MUL ADD CALLDATALOAD PUSH1 0x1 PUSH1 0x1 PUSH1 0xA0 SHL SUB AND DUP11 DUP11 PUSH1 0x1 DUP2 DUP2 LT PUSH2 0xFC4 JUMPI INVALID JUMPDEST DUP11 PUSH2 0x34B4 JUMP JUMPDEST PUSH1 0x0 DUP6 DUP6 PUSH1 0x0 NOT DUP2 ADD DUP2 DUP2 LT PUSH2 0x16D3 JUMPI INVALID JUMPDEST SWAP1 POP PUSH1 0x20 MUL ADD CALLDATALOAD PUSH1 0x1 PUSH1 0x1 PUSH1 0xA0 SHL SUB AND PUSH1 0x1 PUSH1 0x1 PUSH1 0xA0 SHL SUB AND PUSH4 0x70A08231 DUP6 PUSH1 0x40 MLOAD DUP3 PUSH4 0xFFFFFFFF AND PUSH1 0xE0 SHL DUP2 MSTORE PUSH1 0x4 ADD DUP1 DUP3 PUSH1 0x1 PUSH1 0x1 PUSH1 0xA0 SHL SUB AND DUP2 MSTORE PUSH1 0x20 ADD SWAP2 POP POP PUSH1 0x20 PUSH1 0x40 MLOAD DUP1 DUP4 SUB DUP2 DUP7 DUP1 EXTCODESIZE ISZERO DUP1 ISZERO PUSH2 0x172F JUMPI PUSH1 0x0 DUP1 REVERT JUMPDEST POP GAS STATICCALL ISZERO DUP1 ISZERO PUSH2 0x1743 JUMPI RETURNDATASIZE PUSH1 0x0 DUP1 RETURNDATACOPY RETURNDATASIZE PUSH1 0x0 REVERT JUMPDEST POP POP POP POP PUSH1 0x40 MLOAD RETURNDATASIZE PUSH1 0x20 DUP2 LT ISZERO PUSH2 0x1759 JUMPI PUSH1 0x0 DUP1 REVERT JUMPDEST POP MLOAD PUSH1 0x40 DUP1 MLOAD PUSH1 0x20 DUP9 DUP2 MUL DUP3 DUP2 ADD DUP3 ADD SWAP1 SWAP4 MSTORE DUP9 DUP3 MSTORE SWAP3 SWAP4 POP PUSH2 0x179B SWAP3 SWAP1 SWAP2 DUP10 SWAP2 DUP10 SWAP2 DUP3 SWAP2 DUP6 ADD SWAP1 DUP5 SWAP1 DUP1 DUP3 DUP5 CALLDATACOPY PUSH1 0x0 SWAP3 ADD SWAP2 SWAP1 SWAP2 MSTORE POP DUP9 SWAP3 POP PUSH2 0x3986 SWAP2 POP POP JUMP JUMPDEST DUP7 PUSH2 0x183E DUP3 DUP9 DUP9 PUSH1 0x0 NOT DUP2 ADD DUP2 DUP2 LT PUSH2 0x17B0 JUMPI INVALID JUMPDEST SWAP1 POP PUSH1 0x20 MUL ADD CALLDATALOAD PUSH1 0x1 PUSH1 0x1 PUSH1 0xA0 SHL SUB AND PUSH1 0x1 PUSH1 0x1 PUSH1 0xA0 SHL SUB AND PUSH4 0x70A08231 DUP9 PUSH1 0x40 MLOAD DUP3 PUSH4 0xFFFFFFFF AND PUSH1 0xE0 SHL DUP2 MSTORE PUSH1 0x4 ADD DUP1 DUP3 PUSH1 0x1 PUSH1 0x1 PUSH1 0xA0 SHL SUB AND DUP2 MSTORE PUSH1 0x20 ADD SWAP2 POP POP PUSH1 0x20 PUSH1 0x40 MLOAD DUP1 DUP4 SUB DUP2 DUP7 DUP1 EXTCODESIZE ISZERO DUP1 ISZERO PUSH2 0x180C JUMPI PUSH1 0x0 DUP1 REVERT JUMPDEST POP GAS STATICCALL ISZERO DUP1 ISZERO PUSH2 0x1820 JUMPI RETURNDATASIZE PUSH1 0x0 DUP1 RETURNDATACOPY RETURNDATASIZE PUSH1 0x0 REVERT JUMPDEST POP POP POP POP PUSH1 0x40 MLOAD RETURNDATASIZE PUSH1 0x20 DUP2 LT ISZERO PUSH2 0x1836 JUMPI PUSH1 0x0 DUP1 REVERT JUMPDEST POP MLOAD SWAP1 PUSH2 0x3C88 JUMP JUMPDEST LT ISZERO PUSH2 0x187B JUMPI PUSH1 0x40 MLOAD PUSH3 0x461BCD PUSH1 0xE5 SHL DUP2 MSTORE PUSH1 0x4 ADD DUP1 DUP1 PUSH1 0x20 ADD DUP3 DUP2 SUB DUP3 MSTORE PUSH1 0x2B DUP2 MSTORE PUSH1 0x20 ADD DUP1 PUSH2 0x4493 PUSH1 0x2B SWAP2 CODECOPY PUSH1 0x40 ADD SWAP2 POP POP PUSH1 0x40 MLOAD DUP1 SWAP2 SUB SWAP1 REVERT JUMPDEST POP POP POP POP POP POP POP POP JUMP JUMPDEST DUP1 TIMESTAMP DUP2 LT ISZERO PUSH2 0x18C9 JUMPI PUSH1 0x40 DUP1 MLOAD PUSH3 0x461BCD PUSH1 0xE5 SHL DUP2 MSTORE PUSH1 0x20 PUSH1 0x4 DUP3 ADD MSTORE PUSH1 0x18 PUSH1 0x24 DUP3 ADD MSTORE PUSH1 0x0 DUP1 MLOAD PUSH1 0x20 PUSH2 0x450D DUP4 CODECOPY DUP2 MLOAD SWAP2 MSTORE PUSH1 0x44 DUP3 ADD MSTORE SWAP1 MLOAD SWAP1 DUP2 SWAP1 SUB PUSH1 0x64 ADD SWAP1 REVERT JUMPDEST PUSH1 0x1 PUSH1 0x1 PUSH1 0xA0 SHL SUB PUSH32 0x0 AND DUP6 DUP6 PUSH1 0x0 NOT DUP2 ADD DUP2 DUP2 LT PUSH2 0x1903 JUMPI INVALID JUMPDEST SWAP1 POP PUSH1 0x20 MUL ADD CALLDATALOAD PUSH1 0x1 PUSH1 0x1 PUSH1 0xA0 SHL SUB AND PUSH1 0x1 PUSH1 0x1 PUSH1 0xA0 SHL SUB AND EQ PUSH2 0x195C JUMPI PUSH1 0x40 DUP1 MLOAD PUSH3 0x461BCD PUSH1 0xE5 SHL DUP2 MSTORE PUSH1 0x20 PUSH1 0x4 DUP3 ADD MSTORE PUSH1 0x1D PUSH1 0x24 DUP3 ADD MSTORE PUSH1 0x0 DUP1 MLOAD PUSH1 0x20 PUSH2 0x442A DUP4 CODECOPY DUP2 MLOAD SWAP2 MSTORE PUSH1 0x44 DUP3 ADD MSTORE SWAP1 MLOAD SWAP1 DUP2 SWAP1 SUB PUSH1 0x64 ADD SWAP1 REVERT JUMPDEST PUSH2 0x196C DUP6 DUP6 PUSH1 0x0 DUP2 DUP2 LT PUSH2 0x165C JUMPI INVALID JUMPDEST PUSH2 0x19AA DUP6 DUP6 DUP1 DUP1 PUSH1 0x20 MUL PUSH1 0x20 ADD PUSH1 0x40 MLOAD SWAP1 DUP2 ADD PUSH1 0x40 MSTORE DUP1 SWAP4 SWAP3 SWAP2 SWAP1 DUP2 DUP2 MSTORE PUSH1 0x20 ADD DUP4 DUP4 PUSH1 0x20 MUL DUP1 DUP3 DUP5 CALLDATACOPY PUSH1 0x0 SWAP3 ADD SWAP2 SWAP1 SWAP2 MSTORE POP ADDRESS SWAP3 POP PUSH2 0x3986 SWAP2 POP POP JUMP JUMPDEST PUSH1 0x0 PUSH32 0x0 PUSH1 0x1 PUSH1 0x1 PUSH1 0xA0 SHL SUB AND PUSH4 0x70A08231 ADDRESS PUSH1 0x40 MLOAD DUP3 PUSH4 0xFFFFFFFF AND PUSH1 0xE0 SHL DUP2 MSTORE PUSH1 0x4 ADD DUP1 DUP3 PUSH1 0x1 PUSH1 0x1 PUSH1 0xA0 SHL SUB AND DUP2 MSTORE PUSH1 0x20 ADD SWAP2 POP POP PUSH1 0x20 PUSH1 0x40 MLOAD DUP1 DUP4 SUB DUP2 DUP7 DUP1 EXTCODESIZE ISZERO DUP1 ISZERO PUSH2 0x1A19 JUMPI PUSH1 0x0 DUP1 REVERT JUMPDEST POP GAS STATICCALL ISZERO DUP1 ISZERO PUSH2 0x1A2D JUMPI RETURNDATASIZE PUSH1 0x0 DUP1 RETURNDATACOPY RETURNDATASIZE PUSH1 0x0 REVERT JUMPDEST POP POP POP POP PUSH1 0x40 MLOAD RETURNDATASIZE PUSH1 0x20 DUP2 LT ISZERO PUSH2 0x1A43 JUMPI PUSH1 0x0 DUP1 REVERT JUMPDEST POP MLOAD SWAP1 POP DUP7 DUP2 LT ISZERO PUSH2 0x1A86 JUMPI PUSH1 0x40 MLOAD PUSH3 0x461BCD PUSH1 0xE5 SHL DUP2 MSTORE PUSH1 0x4 ADD DUP1 DUP1 PUSH1 0x20 ADD DUP3 DUP2 SUB DUP3 MSTORE PUSH1 0x2B DUP2 MSTORE PUSH1 0x20 ADD DUP1 PUSH2 0x4493 PUSH1 0x2B SWAP2 CODECOPY PUSH1 0x40 ADD SWAP2 POP POP PUSH1 0x40 MLOAD DUP1 SWAP2 SUB SWAP1 REVERT JUMPDEST PUSH32 0x0 PUSH1 0x1 PUSH1 0x1 PUSH1 0xA0 SHL SUB AND PUSH4 0x2E1A7D4D DUP3 PUSH1 0x40 MLOAD DUP3 PUSH4 0xFFFFFFFF AND PUSH1 0xE0 SHL DUP2 MSTORE PUSH1 0x4 ADD DUP1 DUP3 DUP2 MSTORE PUSH1 0x20 ADD SWAP2 POP POP PUSH1 0x0 PUSH1 0x40 MLOAD DUP1 DUP4 SUB DUP2 PUSH1 0x0 DUP8 DUP1 EXTCODESIZE ISZERO DUP1 ISZERO PUSH2 0x1AEC JUMPI PUSH1 0x0 DUP1 REVERT JUMPDEST POP GAS CALL ISZERO DUP1 ISZERO PUSH2 0x1B00 JUMPI RETURNDATASIZE PUSH1 0x0 DUP1 RETURNDATACOPY RETURNDATASIZE PUSH1 0x0 REVERT JUMPDEST POP POP POP POP PUSH2 0x187B DUP5 DUP3 PUSH2 0x30D8 JUMP JUMPDEST PUSH1 0x60 DUP2 TIMESTAMP DUP2 LT ISZERO PUSH2 0x1B54 JUMPI PUSH1 0x40 DUP1 MLOAD PUSH3 0x461BCD PUSH1 0xE5 SHL DUP2 MSTORE PUSH1 0x20 PUSH1 0x4 DUP3 ADD MSTORE PUSH1 0x18 PUSH1 0x24 DUP3 ADD MSTORE PUSH1 0x0 DUP1 MLOAD PUSH1 0x20 PUSH2 0x450D DUP4 CODECOPY DUP2 MLOAD SWAP2 MSTORE PUSH1 0x44 DUP3 ADD MSTORE SWAP1 MLOAD SWAP1 DUP2 SWAP1 SUB PUSH1 0x64 ADD SWAP1 REVERT JUMPDEST PUSH32 0x0 PUSH1 0x1 PUSH1 0x1 PUSH1 0xA0 SHL SUB AND DUP7 DUP7 PUSH1 0x0 DUP2 DUP2 LT PUSH2 0x1B8B JUMPI INVALID JUMPDEST SWAP1 POP PUSH1 0x20 MUL ADD CALLDATALOAD PUSH1 0x1 PUSH1 0x1 PUSH1 0xA0 SHL SUB AND PUSH1 0x1 PUSH1 0x1 PUSH1 0xA0 SHL SUB AND EQ PUSH2 0x1BE4 JUMPI PUSH1 0x40 DUP1 MLOAD PUSH3 0x461BCD PUSH1 0xE5 SHL DUP2 MSTORE PUSH1 0x20 PUSH1 0x4 DUP3 ADD MSTORE PUSH1 0x1D PUSH1 0x24 DUP3 ADD MSTORE PUSH1 0x0 DUP1 MLOAD PUSH1 0x20 PUSH2 0x442A DUP4 CODECOPY DUP2 MLOAD SWAP2 MSTORE PUSH1 0x44 DUP3 ADD MSTORE SWAP1 MLOAD SWAP1 DUP2 SWAP1 SUB PUSH1 0x64 ADD SWAP1 REVERT JUMPDEST PUSH2 0x1C42 PUSH32 0x0 CALLVALUE DUP9 DUP9 DUP1 DUP1 PUSH1 0x20 MUL PUSH1 0x20 ADD PUSH1 0x40 MLOAD SWAP1 DUP2 ADD PUSH1 0x40 MSTORE DUP1 SWAP4 SWAP3 SWAP2 SWAP1 DUP2 DUP2 MSTORE PUSH1 0x20 ADD DUP4 DUP4 PUSH1 0x20 MUL DUP1 DUP3 DUP5 CALLDATACOPY PUSH1 0x0 SWAP3 ADD SWAP2 SWAP1 SWAP2 MSTORE POP PUSH2 0x32A8 SWAP3 POP POP POP JUMP JUMPDEST SWAP2 POP DUP7 DUP3 PUSH1 0x1 DUP5 MLOAD SUB DUP2 MLOAD DUP2 LT PUSH2 0x1C55 JUMPI INVALID JUMPDEST PUSH1 0x20 MUL PUSH1 0x20 ADD ADD MLOAD LT ISZERO PUSH2 0x1C9A JUMPI PUSH1 0x40 MLOAD PUSH3 0x461BCD PUSH1 0xE5 SHL DUP2 MSTORE PUSH1 0x4 ADD DUP1 DUP1 PUSH1 0x20 ADD DUP3 DUP2 SUB DUP3 MSTORE PUSH1 0x2B DUP2 MSTORE PUSH1 0x20 ADD DUP1 PUSH2 0x4493 PUSH1 0x2B SWAP2 CODECOPY PUSH1 0x40 ADD SWAP2 POP POP PUSH1 0x40 MLOAD DUP1 SWAP2 SUB SWAP1 REVERT JUMPDEST PUSH32 0x0 PUSH1 0x1 PUSH1 0x1 PUSH1 0xA0 SHL SUB AND PUSH4 0xD0E30DB0 DUP4 PUSH1 0x0 DUP2 MLOAD DUP2 LT PUSH2 0x1CD6 JUMPI INVALID JUMPDEST PUSH1 0x20 MUL PUSH1 0x20 ADD ADD MLOAD PUSH1 0x40 MLOAD DUP3 PUSH4 0xFFFFFFFF AND PUSH1 0xE0 SHL DUP2 MSTORE PUSH1 0x4 ADD PUSH1 0x0 PUSH1 0x40 MLOAD DUP1 DUP4 SUB DUP2 DUP6 DUP9 DUP1 EXTCODESIZE ISZERO DUP1 ISZERO PUSH2 0x1D09 JUMPI PUSH1 0x0 DUP1 REVERT JUMPDEST POP GAS CALL ISZERO DUP1 ISZERO PUSH2 0x1D1D JUMPI RETURNDATASIZE PUSH1 0x0 DUP1 RETURNDATACOPY RETURNDATASIZE PUSH1 0x0 REVERT JUMPDEST POP POP POP POP POP PUSH32 0x0 PUSH1 0x1 PUSH1 0x1 PUSH1 0xA0 SHL SUB AND PUSH4 0xA9059CBB PUSH2 0x1D82 PUSH32 0x0 DUP10 DUP10 PUSH1 0x0 DUP2 DUP2 LT PUSH2 0x169E JUMPI INVALID JUMPDEST DUP5 PUSH1 0x0 DUP2 MLOAD DUP2 LT PUSH2 0x1D8F JUMPI INVALID JUMPDEST PUSH1 0x20 MUL PUSH1 0x20 ADD ADD MLOAD PUSH1 0x40 MLOAD DUP4 PUSH4 0xFFFFFFFF AND PUSH1 0xE0 SHL DUP2 MSTORE PUSH1 0x4 ADD DUP1 DUP4 PUSH1 0x1 PUSH1 0x1 PUSH1 0xA0 SHL SUB AND DUP2 MSTORE PUSH1 0x20 ADD DUP3 DUP2 MSTORE PUSH1 0x20 ADD SWAP3 POP POP POP PUSH1 0x20 PUSH1 0x40 MLOAD DUP1 DUP4 SUB DUP2 PUSH1 0x0 DUP8 DUP1 EXTCODESIZE ISZERO DUP1 ISZERO PUSH2 0x1DDD JUMPI PUSH1 0x0 DUP1 REVERT JUMPDEST POP GAS CALL ISZERO DUP1 ISZERO PUSH2 0x1DF1 JUMPI RETURNDATASIZE PUSH1 0x0 DUP1 RETURNDATACOPY RETURNDATASIZE PUSH1 0x0 REVERT JUMPDEST POP POP POP POP PUSH1 0x40 MLOAD RETURNDATASIZE PUSH1 0x20 DUP2 LT ISZERO PUSH2 0x1E07 JUMPI PUSH1 0x0 DUP1 REVERT JUMPDEST POP MLOAD PUSH2 0x1E0F JUMPI INVALID JUMPDEST PUSH2 0x1E4E DUP3 DUP8 DUP8 DUP1 DUP1 PUSH1 0x20 MUL PUSH1 0x20 ADD PUSH1 0x40 MLOAD SWAP1 DUP2 ADD PUSH1 0x40 MSTORE DUP1 SWAP4 SWAP3 SWAP2 SWAP1 DUP2 DUP2 MSTORE PUSH1 0x20 ADD DUP4 DUP4 PUSH1 0x20 MUL DUP1 DUP3 DUP5 CALLDATACOPY PUSH1 0x0 SWAP3 ADD SWAP2 SWAP1 SWAP2 MSTORE POP DUP10 SWAP3 POP PUSH2 0x3611 SWAP2 POP POP JUMP JUMPDEST POP SWAP6 SWAP5 POP POP POP POP POP JUMP JUMPDEST PUSH1 0x0 PUSH2 0xDBE DUP5 DUP5 DUP5 PUSH2 0x3CD8 JUMP JUMPDEST PUSH1 0x60 DUP2 TIMESTAMP DUP2 LT ISZERO PUSH2 0x1EAB JUMPI PUSH1 0x40 DUP1 MLOAD PUSH3 0x461BCD PUSH1 0xE5 SHL DUP2 MSTORE PUSH1 0x20 PUSH1 0x4 DUP3 ADD MSTORE PUSH1 0x18 PUSH1 0x24 DUP3 ADD MSTORE PUSH1 0x0 DUP1 MLOAD PUSH1 0x20 PUSH2 0x450D DUP4 CODECOPY DUP2 MLOAD SWAP2 MSTORE PUSH1 0x44 DUP3 ADD MSTORE SWAP1 MLOAD SWAP1 DUP2 SWAP1 SUB PUSH1 0x64 ADD SWAP1 REVERT JUMPDEST PUSH2 0x1F09 PUSH32 0x0 DUP10 DUP9 DUP9 DUP1 DUP1 PUSH1 0x20 MUL PUSH1 0x20 ADD PUSH1 0x40 MLOAD SWAP1 DUP2 ADD PUSH1 0x40 MSTORE DUP1 SWAP4 SWAP3 SWAP2 SWAP1 DUP2 DUP2 MSTORE PUSH1 0x20 ADD DUP4 DUP4 PUSH1 0x20 MUL DUP1 DUP3 DUP5 CALLDATACOPY PUSH1 0x0 SWAP3 ADD SWAP2 SWAP1 SWAP2 MSTORE POP PUSH2 0x384E SWAP3 POP POP POP JUMP JUMPDEST SWAP2 POP DUP7 DUP3 PUSH1 0x0 DUP2 MLOAD DUP2 LT PUSH2 0x1F19 JUMPI INVALID JUMPDEST PUSH1 0x20 MUL PUSH1 0x20 ADD ADD MLOAD GT ISZERO PUSH2 0x131F JUMPI PUSH1 0x40 MLOAD PUSH3 0x461BCD PUSH1 0xE5 SHL DUP2 MSTORE PUSH1 0x4 ADD DUP1 DUP1 PUSH1 0x20 ADD DUP3 DUP2 SUB DUP3 MSTORE PUSH1 0x27 DUP2 MSTORE PUSH1 0x20 ADD DUP1 PUSH2 0x4403 PUSH1 0x27 SWAP2 CODECOPY PUSH1 0x40 ADD SWAP2 POP POP PUSH1 0x40 MLOAD DUP1 SWAP2 SUB SWAP1 REVERT JUMPDEST PUSH32 0x0 DUP2 JUMP JUMPDEST PUSH1 0x0 PUSH2 0xDBE DUP5 DUP5 DUP5 PUSH2 0x3DB0 JUMP JUMPDEST PUSH1 0x0 DUP2 TIMESTAMP DUP2 LT ISZERO PUSH2 0x1FD5 JUMPI PUSH1 0x40 DUP1 MLOAD PUSH3 0x461BCD PUSH1 0xE5 SHL DUP2 MSTORE PUSH1 0x20 PUSH1 0x4 DUP3 ADD MSTORE PUSH1 0x18 PUSH1 0x24 DUP3 ADD MSTORE PUSH1 0x0 DUP1 MLOAD PUSH1 0x20 PUSH2 0x450D DUP4 CODECOPY DUP2 MLOAD SWAP2 MSTORE PUSH1 0x44 DUP3 ADD MSTORE SWAP1 MLOAD SWAP1 DUP2 SWAP1 SUB PUSH1 0x64 ADD SWAP1 REVERT JUMPDEST PUSH2 0x2004 DUP9 PUSH32 0x0 DUP10 DUP10 DUP10 ADDRESS DUP10 PUSH2 0x2486 JUMP JUMPDEST SWAP1 POP DUP1 SWAP3 POP POP PUSH2 0x208D DUP9 DUP6 DUP11 PUSH1 0x1 PUSH1 0x1 PUSH1 0xA0 SHL SUB AND PUSH4 0x70A08231 ADDRESS PUSH1 0x40 MLOAD DUP3 PUSH4 0xFFFFFFFF AND PUSH1 0xE0 SHL DUP2 MSTORE PUSH1 0x4 ADD DUP1 DUP3 PUSH1 0x1 PUSH1 0x1 PUSH1 0xA0 SHL SUB AND DUP2 MSTORE PUSH1 0x20 ADD SWAP2 POP POP PUSH1 0x20 PUSH1 0x40 MLOAD DUP1 DUP4 SUB DUP2 DUP7 DUP1 EXTCODESIZE ISZERO DUP1 ISZERO PUSH2 0x205C JUMPI PUSH1 0x0 DUP1 REVERT JUMPDEST POP GAS STATICCALL ISZERO DUP1 ISZERO PUSH2 0x2070 JUMPI RETURNDATASIZE PUSH1 0x0 DUP1 RETURNDATACOPY RETURNDATASIZE PUSH1 0x0 REVERT JUMPDEST POP POP POP POP PUSH1 0x40 MLOAD RETURNDATASIZE PUSH1 0x20 DUP2 LT ISZERO PUSH2 0x2086 JUMPI PUSH1 0x0 DUP1 REVERT JUMPDEST POP MLOAD PUSH2 0x2F6E JUMP JUMPDEST PUSH32 0x0 PUSH1 0x1 PUSH1 0x1 PUSH1 0xA0 SHL SUB AND PUSH4 0x2E1A7D4D DUP4 PUSH1 0x40 MLOAD DUP3 PUSH4 0xFFFFFFFF AND PUSH1 0xE0 SHL DUP2 MSTORE PUSH1 0x4 ADD DUP1 DUP3 DUP2 MSTORE PUSH1 0x20 ADD SWAP2 POP POP PUSH1 0x0 PUSH1 0x40 MLOAD DUP1 DUP4 SUB DUP2 PUSH1 0x0 DUP8 DUP1 EXTCODESIZE ISZERO DUP1 ISZERO PUSH2 0x20F3 JUMPI PUSH1 0x0 DUP1 REVERT JUMPDEST POP GAS CALL ISZERO DUP1 ISZERO PUSH2 0x2107 JUMPI RETURNDATASIZE PUSH1 0x0 DUP1 RETURNDATACOPY RETURNDATASIZE PUSH1 0x0 REVERT JUMPDEST POP POP POP POP PUSH2 0x10E8 DUP5 DUP4 PUSH2 0x30D8 JUMP JUMPDEST DUP1 TIMESTAMP DUP2 LT ISZERO PUSH2 0x2159 JUMPI PUSH1 0x40 DUP1 MLOAD PUSH3 0x461BCD PUSH1 0xE5 SHL DUP2 MSTORE PUSH1 0x20 PUSH1 0x4 DUP3 ADD MSTORE PUSH1 0x18 PUSH1 0x24 DUP3 ADD MSTORE PUSH1 0x0 DUP1 MLOAD PUSH1 0x20 PUSH2 0x450D DUP4 CODECOPY DUP2 MLOAD SWAP2 MSTORE PUSH1 0x44 DUP3 ADD MSTORE SWAP1 MLOAD SWAP1 DUP2 SWAP1 SUB PUSH1 0x64 ADD SWAP1 REVERT JUMPDEST PUSH32 0x0 PUSH1 0x1 PUSH1 0x1 PUSH1 0xA0 SHL SUB AND DUP6 DUP6 PUSH1 0x0 DUP2 DUP2 LT PUSH2 0x2190 JUMPI INVALID JUMPDEST SWAP1 POP PUSH1 0x20 MUL ADD CALLDATALOAD PUSH1 0x1 PUSH1 0x1 PUSH1 0xA0 SHL SUB AND PUSH1 0x1 PUSH1 0x1 PUSH1 0xA0 SHL SUB AND EQ PUSH2 0x21E9 JUMPI PUSH1 0x40 DUP1 MLOAD PUSH3 0x461BCD PUSH1 0xE5 SHL DUP2 MSTORE PUSH1 0x20 PUSH1 0x4 DUP3 ADD MSTORE PUSH1 0x1D PUSH1 0x24 DUP3 ADD MSTORE PUSH1 0x0 DUP1 MLOAD PUSH1 0x20 PUSH2 0x442A DUP4 CODECOPY DUP2 MLOAD SWAP2 MSTORE PUSH1 0x44 DUP3 ADD MSTORE SWAP1 MLOAD SWAP1 DUP2 SWAP1 SUB PUSH1 0x64 ADD SWAP1 REVERT JUMPDEST PUSH1 0x0 CALLVALUE SWAP1 POP PUSH32 0x0 PUSH1 0x1 PUSH1 0x1 PUSH1 0xA0 SHL SUB AND PUSH4 0xD0E30DB0 DUP3 PUSH1 0x40 MLOAD DUP3 PUSH4 0xFFFFFFFF AND PUSH1 0xE0 SHL DUP2 MSTORE PUSH1 0x4 ADD PUSH1 0x0 PUSH1 0x40 MLOAD DUP1 DUP4 SUB DUP2 DUP6 DUP9 DUP1 EXTCODESIZE ISZERO DUP1 ISZERO PUSH2 0x2249 JUMPI PUSH1 0x0 DUP1 REVERT JUMPDEST POP GAS CALL ISZERO DUP1 ISZERO PUSH2 0x225D JUMPI RETURNDATASIZE PUSH1 0x0 DUP1 RETURNDATACOPY RETURNDATASIZE PUSH1 0x0 REVERT JUMPDEST POP POP POP POP POP PUSH32 0x0 PUSH1 0x1 PUSH1 0x1 PUSH1 0xA0 SHL SUB AND PUSH4 0xA9059CBB PUSH2 0x22C2 PUSH32 0x0 DUP10 DUP10 PUSH1 0x0 DUP2 DUP2 LT PUSH2 0x169E JUMPI INVALID JUMPDEST DUP4 PUSH1 0x40 MLOAD DUP4 PUSH4 0xFFFFFFFF AND PUSH1 0xE0 SHL DUP2 MSTORE PUSH1 0x4 ADD DUP1 DUP4 PUSH1 0x1 PUSH1 0x1 PUSH1 0xA0 SHL SUB AND DUP2 MSTORE PUSH1 0x20 ADD DUP3 DUP2 MSTORE PUSH1 0x20 ADD SWAP3 POP POP POP PUSH1 0x20 PUSH1 0x40 MLOAD DUP1 DUP4 SUB DUP2 PUSH1 0x0 DUP8 DUP1 EXTCODESIZE ISZERO DUP1 ISZERO PUSH2 0x2309 JUMPI PUSH1 0x0 DUP1 REVERT JUMPDEST POP GAS CALL ISZERO DUP1 ISZERO PUSH2 0x231D JUMPI RETURNDATASIZE PUSH1 0x0 DUP1 RETURNDATACOPY RETURNDATASIZE PUSH1 0x0 REVERT JUMPDEST POP POP POP POP PUSH1 0x40 MLOAD RETURNDATASIZE PUSH1 0x20 DUP2 LT ISZERO PUSH2 0x2333 JUMPI PUSH1 0x0 DUP1 REVERT JUMPDEST POP MLOAD PUSH2 0x233B JUMPI INVALID JUMPDEST PUSH1 0x0 DUP7 DUP7 PUSH1 0x0 NOT DUP2 ADD DUP2 DUP2 LT PUSH2 0x234D JUMPI INVALID JUMPDEST SWAP1 POP PUSH1 0x20 MUL ADD CALLDATALOAD PUSH1 0x1 PUSH1 0x1 PUSH1 0xA0 SHL SUB AND PUSH1 0x1 PUSH1 0x1 PUSH1 0xA0 SHL SUB AND PUSH4 0x70A08231 DUP7 PUSH1 0x40 MLOAD DUP3 PUSH4 0xFFFFFFFF AND PUSH1 0xE0 SHL DUP2 MSTORE PUSH1 0x4 ADD DUP1 DUP3 PUSH1 0x1 PUSH1 0x1 PUSH1 0xA0 SHL SUB AND DUP2 MSTORE PUSH1 0x20 ADD SWAP2 POP POP PUSH1 0x20 PUSH1 0x40 MLOAD DUP1 DUP4 SUB DUP2 DUP7 DUP1 EXTCODESIZE ISZERO DUP1 ISZERO PUSH2 0x23A9 JUMPI PUSH1 0x0 DUP1 REVERT JUMPDEST POP GAS STATICCALL ISZERO DUP1 ISZERO PUSH2 0x23BD JUMPI RETURNDATASIZE PUSH1 0x0 DUP1 RETURNDATACOPY RETURNDATASIZE PUSH1 0x0 REVERT JUMPDEST POP POP POP POP PUSH1 0x40 MLOAD RETURNDATASIZE PUSH1 0x20 DUP2 LT ISZERO PUSH2 0x23D3 JUMPI PUSH1 0x0 DUP1 REVERT JUMPDEST POP MLOAD PUSH1 0x40 DUP1 MLOAD PUSH1 0x20 DUP10 DUP2 MUL DUP3 DUP2 ADD DUP3 ADD SWAP1 SWAP4 MSTORE DUP10 DUP3 MSTORE SWAP3 SWAP4 POP PUSH2 0x2415 SWAP3 SWAP1 SWAP2 DUP11 SWAP2 DUP11 SWAP2 DUP3 SWAP2 DUP6 ADD SWAP1 DUP5 SWAP1 DUP1 DUP3 DUP5 CALLDATACOPY PUSH1 0x0 SWAP3 ADD SWAP2 SWAP1 SWAP2 MSTORE POP DUP10 SWAP3 POP PUSH2 0x3986 SWAP2 POP POP JUMP JUMPDEST DUP8 PUSH2 0x183E DUP3 DUP10 DUP10 PUSH1 0x0 NOT DUP2 ADD DUP2 DUP2 LT PUSH2 0x242A JUMPI INVALID JUMPDEST SWAP1 POP PUSH1 0x20 MUL ADD CALLDATALOAD PUSH1 0x1 PUSH1 0x1 PUSH1 0xA0 SHL SUB AND PUSH1 0x1 PUSH1 0x1 PUSH1 0xA0 SHL SUB AND PUSH4 0x70A08231 DUP10 PUSH1 0x40 MLOAD DUP3 PUSH4 0xFFFFFFFF AND PUSH1 0xE0 SHL DUP2 MSTORE PUSH1 0x4 ADD DUP1 DUP3 PUSH1 0x1 PUSH1 0x1 PUSH1 0xA0 SHL SUB AND DUP2 MSTORE PUSH1 0x20 ADD SWAP2 POP POP PUSH1 0x20 PUSH1 0x40 MLOAD DUP1 DUP4 SUB DUP2 DUP7 DUP1 EXTCODESIZE ISZERO DUP1 ISZERO PUSH2 0x180C JUMPI PUSH1 0x0 DUP1 REVERT JUMPDEST PUSH1 0x0 DUP1 DUP3 TIMESTAMP DUP2 LT ISZERO PUSH2 0x24CD JUMPI PUSH1 0x40 DUP1 MLOAD PUSH3 0x461BCD PUSH1 0xE5 SHL DUP2 MSTORE PUSH1 0x20 PUSH1 0x4 DUP3 ADD MSTORE PUSH1 0x18 PUSH1 0x24 DUP3 ADD MSTORE PUSH1 0x0 DUP1 MLOAD PUSH1 0x20 PUSH2 0x450D DUP4 CODECOPY DUP2 MLOAD SWAP2 MSTORE PUSH1 0x44 DUP3 ADD MSTORE SWAP1 MLOAD SWAP1 DUP2 SWAP1 SUB PUSH1 0x64 ADD SWAP1 REVERT JUMPDEST PUSH1 0x0 PUSH2 0x24FA PUSH32 0x0 DUP13 DUP13 PUSH2 0x33F4 JUMP JUMPDEST PUSH1 0x40 DUP1 MLOAD PUSH4 0x23B872DD PUSH1 0xE0 SHL DUP2 MSTORE CALLER PUSH1 0x4 DUP3 ADD MSTORE PUSH1 0x1 PUSH1 0x1 PUSH1 0xA0 SHL SUB DUP4 AND PUSH1 0x24 DUP3 ADD DUP2 SWAP1 MSTORE PUSH1 0x44 DUP3 ADD DUP14 SWAP1 MSTORE SWAP2 MLOAD SWAP3 SWAP4 POP SWAP1 SWAP2 PUSH4 0x23B872DD SWAP2 PUSH1 0x64 DUP1 DUP3 ADD SWAP3 PUSH1 0x20 SWAP3 SWAP1 SWAP2 SWAP1 DUP3 SWAP1 SUB ADD DUP2 PUSH1 0x0 DUP8 DUP1 EXTCODESIZE ISZERO DUP1 ISZERO PUSH2 0x2555 JUMPI PUSH1 0x0 DUP1 REVERT JUMPDEST POP GAS CALL ISZERO DUP1 ISZERO PUSH2 0x2569 JUMPI RETURNDATASIZE PUSH1 0x0 DUP1 RETURNDATACOPY RETURNDATASIZE PUSH1 0x0 REVERT JUMPDEST POP POP POP POP PUSH1 0x40 MLOAD RETURNDATASIZE PUSH1 0x20 DUP2 LT ISZERO PUSH2 0x257F JUMPI PUSH1 0x0 DUP1 REVERT JUMPDEST POP POP PUSH1 0x40 DUP1 MLOAD PUSH4 0x226BF2D1 PUSH1 0xE2 SHL DUP2 MSTORE PUSH1 0x1 PUSH1 0x1 PUSH1 0xA0 SHL SUB DUP9 DUP2 AND PUSH1 0x4 DUP4 ADD MSTORE DUP3 MLOAD PUSH1 0x0 SWAP4 DUP5 SWAP4 SWAP3 DUP7 AND SWAP3 PUSH4 0x89AFCB44 SWAP3 PUSH1 0x24 DUP1 DUP4 ADD SWAP4 SWAP3 DUP3 SWAP1 SUB ADD DUP2 DUP8 DUP8 DUP1 EXTCODESIZE ISZERO DUP1 ISZERO PUSH2 0x25CC JUMPI PUSH1 0x0 DUP1 REVERT JUMPDEST POP GAS CALL ISZERO DUP1 ISZERO PUSH2 0x25E0 JUMPI RETURNDATASIZE PUSH1 0x0 DUP1 RETURNDATACOPY RETURNDATASIZE PUSH1 0x0 REVERT JUMPDEST POP POP POP POP PUSH1 0x40 MLOAD RETURNDATASIZE PUSH1 0x40 DUP2 LT ISZERO PUSH2 0x25F6 JUMPI PUSH1 0x0 DUP1 REVERT JUMPDEST POP DUP1 MLOAD PUSH1 0x20 SWAP1 SWAP2 ADD MLOAD SWAP1 SWAP3 POP SWAP1 POP PUSH1 0x0 PUSH2 0x2610 DUP15 DUP15 PUSH2 0x3E56 JUMP JUMPDEST POP SWAP1 POP DUP1 PUSH1 0x1 PUSH1 0x1 PUSH1 0xA0 SHL SUB AND DUP15 PUSH1 0x1 PUSH1 0x1 PUSH1 0xA0 SHL SUB AND EQ PUSH2 0x2633 JUMPI DUP2 DUP4 PUSH2 0x2636 JUMP JUMPDEST DUP3 DUP3 JUMPDEST SWAP1 SWAP8 POP SWAP6 POP DUP11 DUP8 LT ISZERO PUSH2 0x267A JUMPI PUSH1 0x40 MLOAD PUSH3 0x461BCD PUSH1 0xE5 SHL DUP2 MSTORE PUSH1 0x4 ADD DUP1 DUP1 PUSH1 0x20 ADD DUP3 DUP2 SUB DUP3 MSTORE PUSH1 0x26 DUP2 MSTORE PUSH1 0x20 ADD DUP1 PUSH2 0x444A PUSH1 0x26 SWAP2 CODECOPY PUSH1 0x40 ADD SWAP2 POP POP PUSH1 0x40 MLOAD DUP1 SWAP2 SUB SWAP1 REVERT JUMPDEST DUP10 DUP7 LT ISZERO PUSH2 0x26B9 JUMPI PUSH1 0x40 MLOAD PUSH3 0x461BCD PUSH1 0xE5 SHL DUP2 MSTORE PUSH1 0x4 ADD DUP1 DUP1 PUSH1 0x20 ADD DUP3 DUP2 SUB DUP3 MSTORE PUSH1 0x26 DUP2 MSTORE PUSH1 0x20 ADD DUP1 PUSH2 0x4390 PUSH1 0x26 SWAP2 CODECOPY PUSH1 0x40 ADD SWAP2 POP POP PUSH1 0x40 MLOAD DUP1 SWAP2 SUB SWAP1 REVERT JUMPDEST POP POP POP POP POP SWAP8 POP SWAP8 SWAP6 POP POP POP POP POP POP JUMP JUMPDEST PUSH32 0x0 DUP2 JUMP JUMPDEST PUSH1 0x60 PUSH2 0x1120 PUSH32 0x0 DUP5 DUP5 PUSH2 0x32A8 JUMP JUMPDEST PUSH1 0x0 DUP1 PUSH1 0x0 PUSH2 0x276B PUSH32 0x0 DUP15 PUSH32 0x0 PUSH2 0x33F4 JUMP JUMPDEST SWAP1 POP PUSH1 0x0 DUP8 PUSH2 0x277A JUMPI DUP13 PUSH2 0x277E JUMP JUMPDEST PUSH1 0x0 NOT JUMPDEST PUSH1 0x40 DUP1 MLOAD PUSH4 0xD505ACCF PUSH1 0xE0 SHL DUP2 MSTORE CALLER PUSH1 0x4 DUP3 ADD MSTORE ADDRESS PUSH1 0x24 DUP3 ADD MSTORE PUSH1 0x44 DUP2 ADD DUP4 SWAP1 MSTORE PUSH1 0x64 DUP2 ADD DUP13 SWAP1 MSTORE PUSH1 0xFF DUP11 AND PUSH1 0x84 DUP3 ADD MSTORE PUSH1 0xA4 DUP2 ADD DUP10 SWAP1 MSTORE PUSH1 0xC4 DUP2 ADD DUP9 SWAP1 MSTORE SWAP1 MLOAD SWAP2 SWAP3 POP PUSH1 0x1 PUSH1 0x1 PUSH1 0xA0 SHL SUB DUP5 AND SWAP2 PUSH4 0xD505ACCF SWAP2 PUSH1 0xE4 DUP1 DUP3 ADD SWAP3 PUSH1 0x0 SWAP3 SWAP1 SWAP2 SWAP1 DUP3 SWAP1 SUB ADD DUP2 DUP4 DUP8 DUP1 EXTCODESIZE ISZERO DUP1 ISZERO PUSH2 0x27F4 JUMPI PUSH1 0x0 DUP1 REVERT JUMPDEST POP GAS CALL ISZERO DUP1 ISZERO PUSH2 0x2808 JUMPI RETURNDATASIZE PUSH1 0x0 DUP1 RETURNDATACOPY RETURNDATASIZE PUSH1 0x0 REVERT JUMPDEST POP POP POP POP PUSH2 0x281A DUP15 DUP15 DUP15 DUP15 DUP15 DUP15 PUSH2 0xC97 JUMP JUMPDEST SWAP1 SWAP16 SWAP1 SWAP15 POP SWAP13 POP POP POP POP POP POP POP POP POP POP POP POP POP JUMP JUMPDEST PUSH1 0x0 DUP1 PUSH1 0x0 DUP4 TIMESTAMP DUP2 LT ISZERO PUSH2 0x2878 JUMPI PUSH1 0x40 DUP1 MLOAD PUSH3 0x461BCD PUSH1 0xE5 SHL DUP2 MSTORE PUSH1 0x20 PUSH1 0x4 DUP3 ADD MSTORE PUSH1 0x18 PUSH1 0x24 DUP3 ADD MSTORE PUSH1 0x0 DUP1 MLOAD PUSH1 0x20 PUSH2 0x450D DUP4 CODECOPY DUP2 MLOAD SWAP2 MSTORE PUSH1 0x44 DUP3 ADD MSTORE SWAP1 MLOAD SWAP1 DUP2 SWAP1 SUB PUSH1 0x64 ADD SWAP1 REVERT JUMPDEST PUSH2 0x2886 DUP13 DUP13 DUP13 DUP13 DUP13 DUP13 PUSH2 0x3F34 JUMP JUMPDEST SWAP1 SWAP5 POP SWAP3 POP PUSH1 0x0 PUSH2 0x28B8 PUSH32 0x0 DUP15 DUP15 PUSH2 0x33F4 JUMP JUMPDEST SWAP1 POP PUSH2 0x28C6 DUP14 CALLER DUP4 DUP9 PUSH2 0x34B4 JUMP JUMPDEST PUSH2 0x28D2 DUP13 CALLER DUP4 DUP8 PUSH2 0x34B4 JUMP JUMPDEST DUP1 PUSH1 0x1 PUSH1 0x1 PUSH1 0xA0 SHL SUB AND PUSH4 0x6A627842 DUP9 PUSH1 0x40 MLOAD DUP3 PUSH4 0xFFFFFFFF AND PUSH1 0xE0 SHL DUP2 MSTORE PUSH1 0x4 ADD DUP1 DUP3 PUSH1 0x1 PUSH1 0x1 PUSH1 0xA0 SHL SUB AND DUP2 MSTORE PUSH1 0x20 ADD SWAP2 POP POP PUSH1 0x20 PUSH1 0x40 MLOAD DUP1 DUP4 SUB DUP2 PUSH1 0x0 DUP8 DUP1 EXTCODESIZE ISZERO DUP1 ISZERO PUSH2 0x2921 JUMPI PUSH1 0x0 DUP1 REVERT JUMPDEST POP GAS CALL ISZERO DUP1 ISZERO PUSH2 0x2935 JUMPI RETURNDATASIZE PUSH1 0x0 DUP1 RETURNDATACOPY RETURNDATASIZE PUSH1 0x0 REVERT JUMPDEST POP POP POP POP PUSH1 0x40 MLOAD RETURNDATASIZE PUSH1 0x20 DUP2 LT ISZERO PUSH2 0x294B JUMPI PUSH1 0x0 DUP1 REVERT JUMPDEST POP MLOAD SWAP5 SWAP14 SWAP4 SWAP13 POP SWAP4 SWAP11 POP SWAP2 SWAP9 POP POP POP POP POP POP POP POP POP JUMP JUMPDEST PUSH1 0x0 DUP1 PUSH1 0x0 DUP4 TIMESTAMP DUP2 LT ISZERO PUSH2 0x29AB JUMPI PUSH1 0x40 DUP1 MLOAD PUSH3 0x461BCD PUSH1 0xE5 SHL DUP2 MSTORE PUSH1 0x20 PUSH1 0x4 DUP3 ADD MSTORE PUSH1 0x18 PUSH1 0x24 DUP3 ADD MSTORE PUSH1 0x0 DUP1 MLOAD PUSH1 0x20 PUSH2 0x450D DUP4 CODECOPY DUP2 MLOAD SWAP2 MSTORE PUSH1 0x44 DUP3 ADD MSTORE SWAP1 MLOAD SWAP1 DUP2 SWAP1 SUB PUSH1 0x64 ADD SWAP1 REVERT JUMPDEST PUSH2 0x29D9 DUP11 PUSH32 0x0 DUP12 CALLVALUE DUP13 DUP13 PUSH2 0x3F34 JUMP JUMPDEST SWAP1 SWAP5 POP SWAP3 POP PUSH1 0x0 PUSH2 0x2A2B PUSH32 0x0 DUP13 PUSH32 0x0 PUSH2 0x33F4 JUMP JUMPDEST SWAP1 POP PUSH2 0x2A39 DUP12 CALLER DUP4 DUP9 PUSH2 0x34B4 JUMP JUMPDEST PUSH32 0x0 PUSH1 0x1 PUSH1 0x1 PUSH1 0xA0 SHL SUB AND PUSH4 0xD0E30DB0 DUP6 PUSH1 0x40 MLOAD DUP3 PUSH4 0xFFFFFFFF AND PUSH1 0xE0 SHL DUP2 MSTORE PUSH1 0x4 ADD PUSH1 0x0 PUSH1 0x40 MLOAD DUP1 DUP4 SUB DUP2 DUP6 DUP9 DUP1 EXTCODESIZE ISZERO DUP1 ISZERO PUSH2 0x2A94 JUMPI PUSH1 0x0 DUP1 REVERT JUMPDEST POP GAS CALL ISZERO DUP1 ISZERO PUSH2 0x2AA8 JUMPI RETURNDATASIZE PUSH1 0x0 DUP1 RETURNDATACOPY RETURNDATASIZE PUSH1 0x0 REVERT JUMPDEST POP POP POP POP POP PUSH32 0x0 PUSH1 0x1 PUSH1 0x1 PUSH1 0xA0 SHL SUB AND PUSH4 0xA9059CBB DUP3 DUP7 PUSH1 0x40 MLOAD DUP4 PUSH4 0xFFFFFFFF AND PUSH1 0xE0 SHL DUP2 MSTORE PUSH1 0x4 ADD DUP1 DUP4 PUSH1 0x1 PUSH1 0x1 PUSH1 0xA0 SHL SUB AND DUP2 MSTORE PUSH1 0x20 ADD DUP3 DUP2 MSTORE PUSH1 0x20 ADD SWAP3 POP POP POP PUSH1 0x20 PUSH1 0x40 MLOAD DUP1 DUP4 SUB DUP2 PUSH1 0x0 DUP8 DUP1 EXTCODESIZE ISZERO DUP1 ISZERO PUSH2 0x2B24 JUMPI PUSH1 0x0 DUP1 REVERT JUMPDEST POP GAS CALL ISZERO DUP1 ISZERO PUSH2 0x2B38 JUMPI RETURNDATASIZE PUSH1 0x0 DUP1 RETURNDATACOPY RETURNDATASIZE PUSH1 0x0 REVERT JUMPDEST POP POP POP POP PUSH1 0x40 MLOAD RETURNDATASIZE PUSH1 0x20 DUP2 LT ISZERO PUSH2 0x2B4E JUMPI PUSH1 0x0 DUP1 REVERT JUMPDEST POP MLOAD PUSH2 0x2B56 JUMPI INVALID JUMPDEST DUP1 PUSH1 0x1 PUSH1 0x1 PUSH1 0xA0 SHL SUB AND PUSH4 0x6A627842 DUP9 PUSH1 0x40 MLOAD DUP3 PUSH4 0xFFFFFFFF AND PUSH1 0xE0 SHL DUP2 MSTORE PUSH1 0x4 ADD DUP1 DUP3 PUSH1 0x1 PUSH1 0x1 PUSH1 0xA0 SHL SUB AND DUP2 MSTORE PUSH1 0x20 ADD SWAP2 POP POP PUSH1 0x20 PUSH1 0x40 MLOAD DUP1 DUP4 SUB DUP2 PUSH1 0x0 DUP8 DUP1 EXTCODESIZE ISZERO DUP1 ISZERO PUSH2 0x2BA5 JUMPI PUSH1 0x0 DUP1 REVERT JUMPDEST POP GAS CALL ISZERO DUP1 ISZERO PUSH2 0x2BB9 JUMPI RETURNDATASIZE PUSH1 0x0 DUP1 RETURNDATACOPY RETURNDATASIZE PUSH1 0x0 REVERT JUMPDEST POP POP POP POP PUSH1 0x40 MLOAD RETURNDATASIZE PUSH1 0x20 DUP2 LT ISZERO PUSH2 0x2BCF JUMPI PUSH1 0x0 DUP1 REVERT JUMPDEST POP MLOAD SWAP3 POP CALLVALUE DUP5 LT ISZERO PUSH2 0x2BE7 JUMPI PUSH2 0x2BE7 CALLER DUP6 CALLVALUE SUB PUSH2 0x30D8 JUMP JUMPDEST POP POP SWAP7 POP SWAP7 POP SWAP7 SWAP4 POP POP POP POP JUMP JUMPDEST PUSH1 0x60 DUP2 TIMESTAMP DUP2 LT ISZERO PUSH2 0x2C3B JUMPI PUSH1 0x40 DUP1 MLOAD PUSH3 0x461BCD PUSH1 0xE5 SHL DUP2 MSTORE PUSH1 0x20 PUSH1 0x4 DUP3 ADD MSTORE PUSH1 0x18 PUSH1 0x24 DUP3 ADD MSTORE PUSH1 0x0 DUP1 MLOAD PUSH1 0x20 PUSH2 0x450D DUP4 CODECOPY DUP2 MLOAD SWAP2 MSTORE PUSH1 0x44 DUP3 ADD MSTORE SWAP1 MLOAD SWAP1 DUP2 SWAP1 SUB PUSH1 0x64 ADD SWAP1 REVERT JUMPDEST PUSH32 0x0 PUSH1 0x1 PUSH1 0x1 PUSH1 0xA0 SHL SUB AND DUP7 DUP7 PUSH1 0x0 DUP2 DUP2 LT PUSH2 0x2C72 JUMPI INVALID JUMPDEST SWAP1 POP PUSH1 0x20 MUL ADD CALLDATALOAD PUSH1 0x1 PUSH1 0x1 PUSH1 0xA0 SHL SUB AND PUSH1 0x1 PUSH1 0x1 PUSH1 0xA0 SHL SUB AND EQ PUSH2 0x2CCB JUMPI PUSH1 0x40 DUP1 MLOAD PUSH3 0x461BCD PUSH1 0xE5 SHL DUP2 MSTORE PUSH1 0x20 PUSH1 0x4 DUP3 ADD MSTORE PUSH1 0x1D PUSH1 0x24 DUP3 ADD MSTORE PUSH1 0x0 DUP1 MLOAD PUSH1 0x20 PUSH2 0x442A DUP4 CODECOPY DUP2 MLOAD SWAP2 MSTORE PUSH1 0x44 DUP3 ADD MSTORE SWAP1 MLOAD SWAP1 DUP2 SWAP1 SUB PUSH1 0x64 ADD SWAP1 REVERT JUMPDEST PUSH2 0x2D29 PUSH32 0x0 DUP9 DUP9 DUP9 DUP1 DUP1 PUSH1 0x20 MUL PUSH1 0x20 ADD PUSH1 0x40 MLOAD SWAP1 DUP2 ADD PUSH1 0x40 MSTORE DUP1 SWAP4 SWAP3 SWAP2 SWAP1 DUP2 DUP2 MSTORE PUSH1 0x20 ADD DUP4 DUP4 PUSH1 0x20 MUL DUP1 DUP3 DUP5 CALLDATACOPY PUSH1 0x0 SWAP3 ADD SWAP2 SWAP1 SWAP2 MSTORE POP PUSH2 0x384E SWAP3 POP POP POP JUMP JUMPDEST SWAP2 POP CALLVALUE DUP3 PUSH1 0x0 DUP2 MLOAD DUP2 LT PUSH2 0x2D39 JUMPI INVALID JUMPDEST PUSH1 0x20 MUL PUSH1 0x20 ADD ADD MLOAD GT ISZERO PUSH2 0x2D7E JUMPI PUSH1 0x40 MLOAD PUSH3 0x461BCD PUSH1 0xE5 SHL DUP2 MSTORE PUSH1 0x4 ADD DUP1 DUP1 PUSH1 0x20 ADD DUP3 DUP2 SUB DUP3 MSTORE PUSH1 0x27 DUP2 MSTORE PUSH1 0x20 ADD DUP1 PUSH2 0x4403 PUSH1 0x27 SWAP2 CODECOPY PUSH1 0x40 ADD SWAP2 POP POP PUSH1 0x40 MLOAD DUP1 SWAP2 SUB SWAP1 REVERT JUMPDEST PUSH32 0x0 PUSH1 0x1 PUSH1 0x1 PUSH1 0xA0 SHL SUB AND PUSH4 0xD0E30DB0 DUP4 PUSH1 0x0 DUP2 MLOAD DUP2 LT PUSH2 0x2DBA JUMPI INVALID JUMPDEST PUSH1 0x20 MUL PUSH1 0x20 ADD ADD MLOAD PUSH1 0x40 MLOAD DUP3 PUSH4 0xFFFFFFFF AND PUSH1 0xE0 SHL DUP2 MSTORE PUSH1 0x4 ADD PUSH1 0x0 PUSH1 0x40 MLOAD DUP1 DUP4 SUB DUP2 DUP6 DUP9 DUP1 EXTCODESIZE ISZERO DUP1 ISZERO PUSH2 0x2DED JUMPI PUSH1 0x0 DUP1 REVERT JUMPDEST POP GAS CALL ISZERO DUP1 ISZERO PUSH2 0x2E01 JUMPI RETURNDATASIZE PUSH1 0x0 DUP1 RETURNDATACOPY RETURNDATASIZE PUSH1 0x0 REVERT JUMPDEST POP POP POP POP POP PUSH32 0x0 PUSH1 0x1 PUSH1 0x1 PUSH1 0xA0 SHL SUB AND PUSH4 0xA9059CBB PUSH2 0x2E66 PUSH32 0x0 DUP10 DUP10 PUSH1 0x0 DUP2 DUP2 LT PUSH2 0x169E JUMPI INVALID JUMPDEST DUP5 PUSH1 0x0 DUP2 MLOAD DUP2 LT PUSH2 0x2E73 JUMPI INVALID JUMPDEST PUSH1 0x20 MUL PUSH1 0x20 ADD ADD MLOAD PUSH1 0x40 MLOAD DUP4 PUSH4 0xFFFFFFFF AND PUSH1 0xE0 SHL DUP2 MSTORE PUSH1 0x4 ADD DUP1 DUP4 PUSH1 0x1 PUSH1 0x1 PUSH1 0xA0 SHL SUB AND DUP2 MSTORE PUSH1 0x20 ADD DUP3 DUP2 MSTORE PUSH1 0x20 ADD SWAP3 POP POP POP PUSH1 0x20 PUSH1 0x40 MLOAD DUP1 DUP4 SUB DUP2 PUSH1 0x0 DUP8 DUP1 EXTCODESIZE ISZERO DUP1 ISZERO PUSH2 0x2EC1 JUMPI PUSH1 0x0 DUP1 REVERT JUMPDEST POP GAS CALL ISZERO DUP1 ISZERO PUSH2 0x2ED5 JUMPI RETURNDATASIZE PUSH1 0x0 DUP1 RETURNDATACOPY RETURNDATASIZE PUSH1 0x0 REVERT JUMPDEST POP POP POP POP PUSH1 0x40 MLOAD RETURNDATASIZE PUSH1 0x20 DUP2 LT ISZERO PUSH2 0x2EEB JUMPI PUSH1 0x0 DUP1 REVERT JUMPDEST POP MLOAD PUSH2 0x2EF3 JUMPI INVALID JUMPDEST PUSH2 0x2F32 DUP3 DUP8 DUP8 DUP1 DUP1 PUSH1 0x20 MUL PUSH1 0x20 ADD PUSH1 0x40 MLOAD SWAP1 DUP2 ADD PUSH1 0x40 MSTORE DUP1 SWAP4 SWAP3 SWAP2 SWAP1 DUP2 DUP2 MSTORE PUSH1 0x20 ADD DUP4 DUP4 PUSH1 0x20 MUL DUP1 DUP3 DUP5 CALLDATACOPY PUSH1 0x0 SWAP3 ADD SWAP2 SWAP1 SWAP2 MSTORE POP DUP10 SWAP3 POP PUSH2 0x3611 SWAP2 POP POP JUMP JUMPDEST DUP2 PUSH1 0x0 DUP2 MLOAD DUP2 LT PUSH2 0x2F3F JUMPI INVALID JUMPDEST PUSH1 0x20 MUL PUSH1 0x20 ADD ADD MLOAD CALLVALUE GT ISZERO PUSH2 0x1E4E JUMPI PUSH2 0x1E4E CALLER DUP4 PUSH1 0x0 DUP2 MLOAD DUP2 LT PUSH2 0x2F5F JUMPI INVALID JUMPDEST PUSH1 0x20 MUL PUSH1 0x20 ADD ADD MLOAD CALLVALUE SUB PUSH2 0x30D8 JUMP JUMPDEST PUSH1 0x40 DUP1 MLOAD PUSH1 0x1 PUSH1 0x1 PUSH1 0xA0 SHL SUB DUP5 DUP2 AND PUSH1 0x24 DUP4 ADD MSTORE PUSH1 0x44 DUP1 DUP4 ADD DUP6 SWAP1 MSTORE DUP4 MLOAD DUP1 DUP5 SUB SWAP1 SWAP2 ADD DUP2 MSTORE PUSH1 0x64 SWAP1 SWAP3 ADD DUP4 MSTORE PUSH1 0x20 DUP3 ADD DUP1 MLOAD PUSH1 0x1 PUSH1 0x1 PUSH1 0xE0 SHL SUB AND PUSH4 0xA9059CBB PUSH1 0xE0 SHL OR DUP2 MSTORE SWAP3 MLOAD DUP3 MLOAD PUSH1 0x0 SWAP5 PUSH1 0x60 SWAP5 SWAP4 DUP10 AND SWAP4 SWAP3 SWAP2 DUP3 SWAP2 SWAP1 DUP1 DUP4 DUP4 JUMPDEST PUSH1 0x20 DUP4 LT PUSH2 0x2FEB JUMPI DUP1 MLOAD DUP3 MSTORE PUSH1 0x1F NOT SWAP1 SWAP3 ADD SWAP2 PUSH1 0x20 SWAP2 DUP3 ADD SWAP2 ADD PUSH2 0x2FCC JUMP JUMPDEST PUSH1 0x1 DUP4 PUSH1 0x20 SUB PUSH2 0x100 EXP SUB DUP1 NOT DUP3 MLOAD AND DUP2 DUP5 MLOAD AND DUP1 DUP3 OR DUP6 MSTORE POP POP POP POP POP POP SWAP1 POP ADD SWAP2 POP POP PUSH1 0x0 PUSH1 0x40 MLOAD DUP1 DUP4 SUB DUP2 PUSH1 0x0 DUP7 GAS CALL SWAP2 POP POP RETURNDATASIZE DUP1 PUSH1 0x0 DUP2 EQ PUSH2 0x304D JUMPI PUSH1 0x40 MLOAD SWAP2 POP PUSH1 0x1F NOT PUSH1 0x3F RETURNDATASIZE ADD AND DUP3 ADD PUSH1 0x40 MSTORE RETURNDATASIZE DUP3 MSTORE RETURNDATASIZE PUSH1 0x0 PUSH1 0x20 DUP5 ADD RETURNDATACOPY PUSH2 0x3052 JUMP JUMPDEST PUSH1 0x60 SWAP2 POP JUMPDEST POP SWAP2 POP SWAP2 POP DUP2 DUP1 ISZERO PUSH2 0x3080 JUMPI POP DUP1 MLOAD ISZERO DUP1 PUSH2 0x3080 JUMPI POP DUP1 DUP1 PUSH1 0x20 ADD SWAP1 MLOAD PUSH1 0x20 DUP2 LT ISZERO PUSH2 0x307D JUMPI PUSH1 0x0 DUP1 REVERT JUMPDEST POP MLOAD JUMPDEST PUSH2 0x30D1 JUMPI PUSH1 0x40 DUP1 MLOAD PUSH3 0x461BCD PUSH1 0xE5 SHL DUP2 MSTORE PUSH1 0x20 PUSH1 0x4 DUP3 ADD MSTORE PUSH1 0x1F PUSH1 0x24 DUP3 ADD MSTORE PUSH32 0x5472616E7366657248656C7065723A205452414E534645525F4641494C454400 PUSH1 0x44 DUP3 ADD MSTORE SWAP1 MLOAD SWAP1 DUP2 SWAP1 SUB PUSH1 0x64 ADD SWAP1 REVERT JUMPDEST POP POP POP POP POP JUMP JUMPDEST PUSH1 0x40 DUP1 MLOAD PUSH1 0x0 DUP1 DUP3 MSTORE PUSH1 0x20 DUP3 ADD SWAP1 SWAP3 MSTORE PUSH1 0x1 PUSH1 0x1 PUSH1 0xA0 SHL SUB DUP5 AND SWAP1 DUP4 SWAP1 PUSH1 0x40 MLOAD DUP1 DUP3 DUP1 MLOAD SWAP1 PUSH1 0x20 ADD SWAP1 DUP1 DUP4 DUP4 JUMPDEST PUSH1 0x20 DUP4 LT PUSH2 0x3124 JUMPI DUP1 MLOAD DUP3 MSTORE PUSH1 0x1F NOT SWAP1 SWAP3 ADD SWAP2 PUSH1 0x20 SWAP2 DUP3 ADD SWAP2 ADD PUSH2 0x3105 JUMP JUMPDEST PUSH1 0x1 DUP4 PUSH1 0x20 SUB PUSH2 0x100 EXP SUB DUP1 NOT DUP3 MLOAD AND DUP2 DUP5 MLOAD AND DUP1 DUP3 OR DUP6 MSTORE POP POP POP POP POP POP SWAP1 POP ADD SWAP2 POP POP PUSH1 0x0 PUSH1 0x40 MLOAD DUP1 DUP4 SUB DUP2 DUP6 DUP8 GAS CALL SWAP3 POP POP POP RETURNDATASIZE DUP1 PUSH1 0x0 DUP2 EQ PUSH2 0x3186 JUMPI PUSH1 0x40 MLOAD SWAP2 POP PUSH1 0x1F NOT PUSH1 0x3F RETURNDATASIZE ADD AND DUP3 ADD PUSH1 0x40 MSTORE RETURNDATASIZE DUP3 MSTORE RETURNDATASIZE PUSH1 0x0 PUSH1 0x20 DUP5 ADD RETURNDATACOPY PUSH2 0x318B JUMP JUMPDEST PUSH1 0x60 SWAP2 POP JUMPDEST POP POP SWAP1 POP DUP1 PUSH2 0x31CB JUMPI PUSH1 0x40 MLOAD PUSH3 0x461BCD PUSH1 0xE5 SHL DUP2 MSTORE PUSH1 0x4 ADD DUP1 DUP1 PUSH1 0x20 ADD DUP3 DUP2 SUB DUP3 MSTORE PUSH1 0x23 DUP2 MSTORE PUSH1 0x20 ADD DUP1 PUSH2 0x4470 PUSH1 0x23 SWAP2 CODECOPY PUSH1 0x40 ADD SWAP2 POP POP PUSH1 0x40 MLOAD DUP1 SWAP2 SUB SWAP1 REVERT JUMPDEST POP POP POP JUMP JUMPDEST PUSH1 0x0 DUP1 DUP5 GT PUSH2 0x3210 JUMPI PUSH1 0x40 MLOAD PUSH3 0x461BCD PUSH1 0xE5 SHL DUP2 MSTORE PUSH1 0x4 ADD DUP1 DUP1 PUSH1 0x20 ADD DUP3 DUP2 SUB DUP3 MSTORE PUSH1 0x2B DUP2 MSTORE PUSH1 0x20 ADD DUP1 PUSH2 0x44E2 PUSH1 0x2B SWAP2 CODECOPY PUSH1 0x40 ADD SWAP2 POP POP PUSH1 0x40 MLOAD DUP1 SWAP2 SUB SWAP1 REVERT JUMPDEST PUSH1 0x0 DUP4 GT DUP1 ISZERO PUSH2 0x3220 JUMPI POP PUSH1 0x0 DUP3 GT JUMPDEST PUSH2 0x325B JUMPI PUSH1 0x40 MLOAD PUSH3 0x461BCD PUSH1 0xE5 SHL DUP2 MSTORE PUSH1 0x4 ADD DUP1 DUP1 PUSH1 0x20 ADD DUP3 DUP2 SUB DUP3 MSTORE PUSH1 0x28 DUP2 MSTORE PUSH1 0x20 ADD DUP1 PUSH2 0x43B6 PUSH1 0x28 SWAP2 CODECOPY PUSH1 0x40 ADD SWAP2 POP POP PUSH1 0x40 MLOAD DUP1 SWAP2 SUB SWAP1 REVERT JUMPDEST PUSH1 0x0 PUSH2 0x3269 DUP6 PUSH2 0x3E5 PUSH2 0x41C5 JUMP JUMPDEST SWAP1 POP PUSH1 0x0 PUSH2 0x3277 DUP3 DUP6 PUSH2 0x41C5 JUMP JUMPDEST SWAP1 POP PUSH1 0x0 PUSH2 0x3291 DUP4 PUSH2 0x328B DUP9 PUSH2 0x3E8 PUSH2 0x41C5 JUMP JUMPDEST SWAP1 PUSH2 0x4228 JUMP JUMPDEST SWAP1 POP DUP1 DUP3 DUP2 PUSH2 0x329C JUMPI INVALID JUMPDEST DIV SWAP8 SWAP7 POP POP POP POP POP POP POP JUMP JUMPDEST PUSH1 0x60 PUSH1 0x2 DUP3 MLOAD LT ISZERO PUSH2 0x3301 JUMPI PUSH1 0x40 DUP1 MLOAD PUSH3 0x461BCD PUSH1 0xE5 SHL DUP2 MSTORE PUSH1 0x20 PUSH1 0x4 DUP3 ADD MSTORE PUSH1 0x1E PUSH1 0x24 DUP3 ADD MSTORE PUSH32 0x556E697377617056324C6962726172793A20494E56414C49445F504154480000 PUSH1 0x44 DUP3 ADD MSTORE SWAP1 MLOAD SWAP1 DUP2 SWAP1 SUB PUSH1 0x64 ADD SWAP1 REVERT JUMPDEST DUP2 MLOAD PUSH8 0xFFFFFFFFFFFFFFFF DUP2 GT DUP1 ISZERO PUSH2 0x3319 JUMPI PUSH1 0x0 DUP1 REVERT JUMPDEST POP PUSH1 0x40 MLOAD SWAP1 DUP1 DUP3 MSTORE DUP1 PUSH1 0x20 MUL PUSH1 0x20 ADD DUP3 ADD PUSH1 0x40 MSTORE DUP1 ISZERO PUSH2 0x3343 JUMPI DUP2 PUSH1 0x20 ADD PUSH1 0x20 DUP3 MUL DUP1 CALLDATASIZE DUP4 CALLDATACOPY ADD SWAP1 POP JUMPDEST POP SWAP1 POP DUP3 DUP2 PUSH1 0x0 DUP2 MLOAD DUP2 LT PUSH2 0x3354 JUMPI INVALID JUMPDEST PUSH1 0x20 MUL PUSH1 0x20 ADD ADD DUP2 DUP2 MSTORE POP POP PUSH1 0x0 JUMPDEST PUSH1 0x1 DUP4 MLOAD SUB DUP2 LT ISZERO PUSH2 0x33EC JUMPI PUSH1 0x0 DUP1 PUSH2 0x33A6 DUP8 DUP7 DUP6 DUP2 MLOAD DUP2 LT PUSH2 0x3382 JUMPI INVALID JUMPDEST PUSH1 0x20 MUL PUSH1 0x20 ADD ADD MLOAD DUP8 DUP7 PUSH1 0x1 ADD DUP2 MLOAD DUP2 LT PUSH2 0x3399 JUMPI INVALID JUMPDEST PUSH1 0x20 MUL PUSH1 0x20 ADD ADD MLOAD PUSH2 0x4277 JUMP JUMPDEST SWAP2 POP SWAP2 POP PUSH2 0x33C8 DUP5 DUP5 DUP2 MLOAD DUP2 LT PUSH2 0x33B9 JUMPI INVALID JUMPDEST PUSH1 0x20 MUL PUSH1 0x20 ADD ADD MLOAD DUP4 DUP4 PUSH2 0x31D0 JUMP JUMPDEST DUP5 DUP5 PUSH1 0x1 ADD DUP2 MLOAD DUP2 LT PUSH2 0x33D7 JUMPI INVALID JUMPDEST PUSH1 0x20 SWAP1 DUP2 MUL SWAP2 SWAP1 SWAP2 ADD ADD MSTORE POP POP PUSH1 0x1 ADD PUSH2 0x3363 JUMP JUMPDEST POP SWAP4 SWAP3 POP POP POP JUMP JUMPDEST PUSH1 0x0 DUP1 PUSH1 0x0 PUSH2 0x3403 DUP6 DUP6 PUSH2 0x3E56 JUMP JUMPDEST PUSH1 0x40 DUP1 MLOAD PUSH12 0xFFFFFFFFFFFFFFFFFFFFFFFF NOT PUSH1 0x60 SWAP5 DUP6 SHL DUP2 AND PUSH1 0x20 DUP1 DUP5 ADD SWAP2 SWAP1 SWAP2 MSTORE SWAP4 DUP6 SHL DUP2 AND PUSH1 0x34 DUP4 ADD MSTORE DUP3 MLOAD PUSH1 0x28 DUP2 DUP5 SUB ADD DUP2 MSTORE PUSH1 0x48 DUP4 ADD DUP5 MSTORE DUP1 MLOAD SWAP1 DUP6 ADD KECCAK256 PUSH1 0x1 PUSH1 0x1 PUSH1 0xF8 SHL SUB NOT PUSH1 0x68 DUP5 ADD MSTORE SWAP11 SWAP1 SWAP5 SHL SWAP1 SWAP4 AND PUSH1 0x69 DUP5 ADD MSTORE PUSH1 0x7D DUP4 ADD SWAP9 SWAP1 SWAP9 MSTORE PUSH32 0xBD84901879E0FCAC8760DA6C2CD60F3650843A1C7A14D07DAD27E14E0868FEB2 PUSH1 0x9D DUP1 DUP5 ADD SWAP2 SWAP1 SWAP2 MSTORE DUP9 MLOAD DUP1 DUP5 SUB SWAP1 SWAP2 ADD DUP2 MSTORE PUSH1 0xBD SWAP1 SWAP3 ADD SWAP1 SWAP8 MSTORE DUP1 MLOAD SWAP7 ADD SWAP6 SWAP1 SWAP6 KECCAK256 SWAP6 SWAP5 POP POP POP POP POP JUMP JUMPDEST PUSH1 0x40 DUP1 MLOAD PUSH1 0x1 PUSH1 0x1 PUSH1 0xA0 SHL SUB DUP6 DUP2 AND PUSH1 0x24 DUP4 ADD MSTORE DUP5 DUP2 AND PUSH1 0x44 DUP4 ADD MSTORE PUSH1 0x64 DUP1 DUP4 ADD DUP6 SWAP1 MSTORE DUP4 MLOAD DUP1 DUP5 SUB SWAP1 SWAP2 ADD DUP2 MSTORE PUSH1 0x84 SWAP1 SWAP3 ADD DUP4 MSTORE PUSH1 0x20 DUP3 ADD DUP1 MLOAD PUSH1 0x1 PUSH1 0x1 PUSH1 0xE0 SHL SUB AND PUSH4 0x23B872DD PUSH1 0xE0 SHL OR DUP2 MSTORE SWAP3 MLOAD DUP3 MLOAD PUSH1 0x0 SWAP5 PUSH1 0x60 SWAP5 SWAP4 DUP11 AND SWAP4 SWAP3 SWAP2 DUP3 SWAP2 SWAP1 DUP1 DUP4 DUP4 JUMPDEST PUSH1 0x20 DUP4 LT PUSH2 0x3539 JUMPI DUP1 MLOAD DUP3 MSTORE PUSH1 0x1F NOT SWAP1 SWAP3 ADD SWAP2 PUSH1 0x20 SWAP2 DUP3 ADD SWAP2 ADD PUSH2 0x351A JUMP JUMPDEST PUSH1 0x1 DUP4 PUSH1 0x20 SUB PUSH2 0x100 EXP SUB DUP1 NOT DUP3 MLOAD AND DUP2 DUP5 MLOAD AND DUP1 DUP3 OR DUP6 MSTORE POP POP POP POP POP POP SWAP1 POP ADD SWAP2 POP POP PUSH1 0x0 PUSH1 0x40 MLOAD DUP1 DUP4 SUB DUP2 PUSH1 0x0 DUP7 GAS CALL SWAP2 POP POP RETURNDATASIZE DUP1 PUSH1 0x0 DUP2 EQ PUSH2 0x359B JUMPI PUSH1 0x40 MLOAD SWAP2 POP PUSH1 0x1F NOT PUSH1 0x3F RETURNDATASIZE ADD AND DUP3 ADD PUSH1 0x40 MSTORE RETURNDATASIZE DUP3 MSTORE RETURNDATASIZE PUSH1 0x0 PUSH1 0x20 DUP5 ADD RETURNDATACOPY PUSH2 0x35A0 JUMP JUMPDEST PUSH1 0x60 SWAP2 POP JUMPDEST POP SWAP2 POP SWAP2 POP DUP2 DUP1 ISZERO PUSH2 0x35CE JUMPI POP DUP1 MLOAD ISZERO DUP1 PUSH2 0x35CE JUMPI POP DUP1 DUP1 PUSH1 0x20 ADD SWAP1 MLOAD PUSH1 0x20 DUP2 LT ISZERO PUSH2 0x35CB JUMPI PUSH1 0x0 DUP1 REVERT JUMPDEST POP MLOAD JUMPDEST PUSH2 0x3609 JUMPI PUSH1 0x40 MLOAD PUSH3 0x461BCD PUSH1 0xE5 SHL DUP2 MSTORE PUSH1 0x4 ADD DUP1 DUP1 PUSH1 0x20 ADD DUP3 DUP2 SUB DUP3 MSTORE PUSH1 0x24 DUP2 MSTORE PUSH1 0x20 ADD DUP1 PUSH2 0x44BE PUSH1 0x24 SWAP2 CODECOPY PUSH1 0x40 ADD SWAP2 POP POP PUSH1 0x40 MLOAD DUP1 SWAP2 SUB SWAP1 REVERT JUMPDEST POP POP POP POP POP POP JUMP JUMPDEST PUSH1 0x0 JUMPDEST PUSH1 0x1 DUP4 MLOAD SUB DUP2 LT ISZERO PUSH2 0x3848 JUMPI PUSH1 0x0 DUP1 DUP5 DUP4 DUP2 MLOAD DUP2 LT PUSH2 0x362F JUMPI INVALID JUMPDEST PUSH1 0x20 MUL PUSH1 0x20 ADD ADD MLOAD DUP6 DUP5 PUSH1 0x1 ADD DUP2 MLOAD DUP2 LT PUSH2 0x3646 JUMPI INVALID JUMPDEST PUSH1 0x20 MUL PUSH1 0x20 ADD ADD MLOAD SWAP2 POP SWAP2 POP PUSH1 0x0 PUSH2 0x365E DUP4 DUP4 PUSH2 0x3E56 JUMP JUMPDEST POP SWAP1 POP PUSH1 0x0 DUP8 DUP6 PUSH1 0x1 ADD DUP2 MLOAD DUP2 LT PUSH2 0x3672 JUMPI INVALID JUMPDEST PUSH1 0x20 MUL PUSH1 0x20 ADD ADD MLOAD SWAP1 POP PUSH1 0x0 DUP1 DUP4 PUSH1 0x1 PUSH1 0x1 PUSH1 0xA0 SHL SUB AND DUP7 PUSH1 0x1 PUSH1 0x1 PUSH1 0xA0 SHL SUB AND EQ PUSH2 0x36A0 JUMPI DUP3 PUSH1 0x0 PUSH2 0x36A4 JUMP JUMPDEST PUSH1 0x0 DUP4 JUMPDEST SWAP2 POP SWAP2 POP PUSH1 0x0 PUSH1 0x2 DUP11 MLOAD SUB DUP9 LT PUSH2 0x36BB JUMPI DUP9 PUSH2 0x36FC JUMP JUMPDEST PUSH2 0x36FC PUSH32 0x0 DUP8 DUP13 DUP12 PUSH1 0x2 ADD DUP2 MLOAD DUP2 LT PUSH2 0x36EF JUMPI INVALID JUMPDEST PUSH1 0x20 MUL PUSH1 0x20 ADD ADD MLOAD PUSH2 0x33F4 JUMP JUMPDEST SWAP1 POP PUSH2 0x3729 PUSH32 0x0 DUP9 DUP9 PUSH2 0x33F4 JUMP JUMPDEST PUSH1 0x1 PUSH1 0x1 PUSH1 0xA0 SHL SUB AND PUSH4 0x22C0D9F DUP5 DUP5 DUP5 PUSH1 0x0 PUSH1 0x40 MLOAD SWAP1 DUP1 DUP3 MSTORE DUP1 PUSH1 0x1F ADD PUSH1 0x1F NOT AND PUSH1 0x20 ADD DUP3 ADD PUSH1 0x40 MSTORE DUP1 ISZERO PUSH2 0x3766 JUMPI PUSH1 0x20 DUP3 ADD DUP2 DUP1 CALLDATASIZE DUP4 CALLDATACOPY ADD SWAP1 POP JUMPDEST POP PUSH1 0x40 MLOAD DUP6 PUSH4 0xFFFFFFFF AND PUSH1 0xE0 SHL DUP2 MSTORE PUSH1 0x4 ADD DUP1 DUP6 DUP2 MSTORE PUSH1 0x20 ADD DUP5 DUP2 MSTORE PUSH1 0x20 ADD DUP4 PUSH1 0x1 PUSH1 0x1 PUSH1 0xA0 SHL SUB AND DUP2 MSTORE PUSH1 0x20 ADD DUP1 PUSH1 0x20 ADD DUP3 DUP2 SUB DUP3 MSTORE DUP4 DUP2 DUP2 MLOAD DUP2 MSTORE PUSH1 0x20 ADD SWAP2 POP DUP1 MLOAD SWAP1 PUSH1 0x20 ADD SWAP1 DUP1 DUP4 DUP4 PUSH1 0x0 JUMPDEST DUP4 DUP2 LT ISZERO PUSH2 0x37CE JUMPI DUP2 DUP2 ADD MLOAD DUP4 DUP3 ADD MSTORE PUSH1 0x20 ADD PUSH2 0x37B6 JUMP JUMPDEST POP POP POP POP SWAP1 POP SWAP1 DUP2 ADD SWAP1 PUSH1 0x1F AND DUP1 ISZERO PUSH2 0x37FB JUMPI DUP1 DUP3 SUB DUP1 MLOAD PUSH1 0x1 DUP4 PUSH1 0x20 SUB PUSH2 0x100 EXP SUB NOT AND DUP2 MSTORE PUSH1 0x20 ADD SWAP2 POP JUMPDEST POP SWAP6 POP POP POP POP POP POP PUSH1 0x0 PUSH1 0x40 MLOAD DUP1 DUP4 SUB DUP2 PUSH1 0x0 DUP8 DUP1 EXTCODESIZE ISZERO DUP1 ISZERO PUSH2 0x381D JUMPI PUSH1 0x0 DUP1 REVERT JUMPDEST POP GAS CALL ISZERO DUP1 ISZERO PUSH2 0x3831 JUMPI RETURNDATASIZE PUSH1 0x0 DUP1 RETURNDATACOPY RETURNDATASIZE PUSH1 0x0 REVERT JUMPDEST POP POP PUSH1 0x1 SWAP1 SWAP10 ADD SWAP9 POP PUSH2 0x3614 SWAP8 POP POP POP POP POP POP POP POP JUMP JUMPDEST POP POP POP POP JUMP JUMPDEST PUSH1 0x60 PUSH1 0x2 DUP3 MLOAD LT ISZERO PUSH2 0x38A7 JUMPI PUSH1 0x40 DUP1 MLOAD PUSH3 0x461BCD PUSH1 0xE5 SHL DUP2 MSTORE PUSH1 0x20 PUSH1 0x4 DUP3 ADD MSTORE PUSH1 0x1E PUSH1 0x24 DUP3 ADD MSTORE PUSH32 0x556E697377617056324C6962726172793A20494E56414C49445F504154480000 PUSH1 0x44 DUP3 ADD MSTORE SWAP1 MLOAD SWAP1 DUP2 SWAP1 SUB PUSH1 0x64 ADD SWAP1 REVERT JUMPDEST DUP2 MLOAD PUSH8 0xFFFFFFFFFFFFFFFF DUP2 GT DUP1 ISZERO PUSH2 0x38BF JUMPI PUSH1 0x0 DUP1 REVERT JUMPDEST POP PUSH1 0x40 MLOAD SWAP1 DUP1 DUP3 MSTORE DUP1 PUSH1 0x20 MUL PUSH1 0x20 ADD DUP3 ADD PUSH1 0x40 MSTORE DUP1 ISZERO PUSH2 0x38E9 JUMPI DUP2 PUSH1 0x20 ADD PUSH1 0x20 DUP3 MUL DUP1 CALLDATASIZE DUP4 CALLDATACOPY ADD SWAP1 POP JUMPDEST POP SWAP1 POP DUP3 DUP2 PUSH1 0x1 DUP4 MLOAD SUB DUP2 MLOAD DUP2 LT PUSH2 0x38FD JUMPI INVALID JUMPDEST PUSH1 0x20 SWAP1 DUP2 MUL SWAP2 SWAP1 SWAP2 ADD ADD MSTORE DUP2 MLOAD PUSH1 0x0 NOT ADD JUMPDEST DUP1 ISZERO PUSH2 0x33EC JUMPI PUSH1 0x0 DUP1 PUSH2 0x393F DUP8 DUP7 PUSH1 0x1 DUP7 SUB DUP2 MLOAD DUP2 LT PUSH2 0x392B JUMPI INVALID JUMPDEST PUSH1 0x20 MUL PUSH1 0x20 ADD ADD MLOAD DUP8 DUP7 DUP2 MLOAD DUP2 LT PUSH2 0x3399 JUMPI INVALID JUMPDEST SWAP2 POP SWAP2 POP PUSH2 0x3961 DUP5 DUP5 DUP2 MLOAD DUP2 LT PUSH2 0x3952 JUMPI INVALID JUMPDEST PUSH1 0x20 MUL PUSH1 0x20 ADD ADD MLOAD DUP4 DUP4 PUSH2 0x3CD8 JUMP JUMPDEST DUP5 PUSH1 0x1 DUP6 SUB DUP2 MLOAD DUP2 LT PUSH2 0x3970 JUMPI INVALID JUMPDEST PUSH1 0x20 SWAP1 DUP2 MUL SWAP2 SWAP1 SWAP2 ADD ADD MSTORE POP POP PUSH1 0x0 NOT ADD PUSH2 0x390F JUMP JUMPDEST PUSH1 0x0 JUMPDEST PUSH1 0x1 DUP4 MLOAD SUB DUP2 LT ISZERO PUSH2 0x31CB JUMPI PUSH1 0x0 DUP1 DUP5 DUP4 DUP2 MLOAD DUP2 LT PUSH2 0x39A4 JUMPI INVALID JUMPDEST PUSH1 0x20 MUL PUSH1 0x20 ADD ADD MLOAD DUP6 DUP5 PUSH1 0x1 ADD DUP2 MLOAD DUP2 LT PUSH2 0x39BB JUMPI INVALID JUMPDEST PUSH1 0x20 MUL PUSH1 0x20 ADD ADD MLOAD SWAP2 POP SWAP2 POP PUSH1 0x0 PUSH2 0x39D3 DUP4 DUP4 PUSH2 0x3E56 JUMP JUMPDEST POP SWAP1 POP PUSH1 0x0 PUSH2 0x3A03 PUSH32 0x0 DUP6 DUP6 PUSH2 0x33F4 JUMP JUMPDEST SWAP1 POP PUSH1 0x0 DUP1 PUSH1 0x0 DUP1 DUP5 PUSH1 0x1 PUSH1 0x1 PUSH1 0xA0 SHL SUB AND PUSH4 0x902F1AC PUSH1 0x40 MLOAD DUP2 PUSH4 0xFFFFFFFF AND PUSH1 0xE0 SHL DUP2 MSTORE PUSH1 0x4 ADD PUSH1 0x60 PUSH1 0x40 MLOAD DUP1 DUP4 SUB DUP2 DUP7 DUP1 EXTCODESIZE ISZERO DUP1 ISZERO PUSH2 0x3A44 JUMPI PUSH1 0x0 DUP1 REVERT JUMPDEST POP GAS STATICCALL ISZERO DUP1 ISZERO PUSH2 0x3A58 JUMPI RETURNDATASIZE PUSH1 0x0 DUP1 RETURNDATACOPY RETURNDATASIZE PUSH1 0x0 REVERT JUMPDEST POP POP POP POP PUSH1 0x40 MLOAD RETURNDATASIZE PUSH1 0x60 DUP2 LT ISZERO PUSH2 0x3A6E JUMPI PUSH1 0x0 DUP1 REVERT JUMPDEST POP DUP1 MLOAD PUSH1 0x20 SWAP1 SWAP2 ADD MLOAD PUSH1 0x1 PUSH1 0x1 PUSH1 0x70 SHL SUB SWAP2 DUP3 AND SWAP4 POP AND SWAP1 POP PUSH1 0x0 DUP1 PUSH1 0x1 PUSH1 0x1 PUSH1 0xA0 SHL SUB DUP11 DUP2 AND SWAP1 DUP10 AND EQ PUSH2 0x3AA4 JUMPI DUP3 DUP5 PUSH2 0x3AA7 JUMP JUMPDEST DUP4 DUP4 JUMPDEST SWAP2 POP SWAP2 POP PUSH2 0x3AFC DUP3 DUP12 PUSH1 0x1 PUSH1 0x1 PUSH1 0xA0 SHL SUB AND PUSH4 0x70A08231 DUP11 PUSH1 0x40 MLOAD DUP3 PUSH4 0xFFFFFFFF AND PUSH1 0xE0 SHL DUP2 MSTORE PUSH1 0x4 ADD DUP1 DUP3 PUSH1 0x1 PUSH1 0x1 PUSH1 0xA0 SHL SUB AND DUP2 MSTORE PUSH1 0x20 ADD SWAP2 POP POP PUSH1 0x20 PUSH1 0x40 MLOAD DUP1 DUP4 SUB DUP2 DUP7 DUP1 EXTCODESIZE ISZERO DUP1 ISZERO PUSH2 0x180C JUMPI PUSH1 0x0 DUP1 REVERT JUMPDEST SWAP6 POP PUSH2 0x3B09 DUP7 DUP4 DUP4 PUSH2 0x31D0 JUMP JUMPDEST SWAP5 POP POP POP POP POP PUSH1 0x0 DUP1 DUP6 PUSH1 0x1 PUSH1 0x1 PUSH1 0xA0 SHL SUB AND DUP9 PUSH1 0x1 PUSH1 0x1 PUSH1 0xA0 SHL SUB AND EQ PUSH2 0x3B33 JUMPI DUP3 PUSH1 0x0 PUSH2 0x3B37 JUMP JUMPDEST PUSH1 0x0 DUP4 JUMPDEST SWAP2 POP SWAP2 POP PUSH1 0x0 PUSH1 0x2 DUP13 MLOAD SUB DUP11 LT PUSH2 0x3B4E JUMPI DUP11 PUSH2 0x3B82 JUMP JUMPDEST PUSH2 0x3B82 PUSH32 0x0 DUP10 DUP15 DUP14 PUSH1 0x2 ADD DUP2 MLOAD DUP2 LT PUSH2 0x36EF JUMPI INVALID JUMPDEST PUSH1 0x40 DUP1 MLOAD PUSH1 0x0 DUP1 DUP3 MSTORE PUSH1 0x20 DUP3 ADD SWAP3 DUP4 SWAP1 MSTORE PUSH4 0x22C0D9F PUSH1 0xE0 SHL DUP4 MSTORE PUSH1 0x24 DUP3 ADD DUP8 DUP2 MSTORE PUSH1 0x44 DUP4 ADD DUP8 SWAP1 MSTORE PUSH1 0x1 PUSH1 0x1 PUSH1 0xA0 SHL SUB DUP1 DUP7 AND PUSH1 0x64 DUP6 ADD MSTORE PUSH1 0x80 PUSH1 0x84 DUP6 ADD SWAP1 DUP2 MSTORE DUP5 MLOAD PUSH1 0xA4 DUP7 ADD DUP2 SWAP1 MSTORE SWAP7 SWAP8 POP SWAP1 DUP13 AND SWAP6 PUSH4 0x22C0D9F SWAP6 DUP11 SWAP6 DUP11 SWAP6 DUP11 SWAP6 SWAP2 SWAP5 SWAP2 SWAP4 SWAP2 SWAP3 PUSH1 0xC4 DUP7 ADD SWAP3 SWAP1 SWAP2 DUP2 SWAP1 DUP5 SWAP1 DUP5 SWAP1 JUMPDEST DUP4 DUP2 LT ISZERO PUSH2 0x3C0C JUMPI DUP2 DUP2 ADD MLOAD DUP4 DUP3 ADD MSTORE PUSH1 0x20 ADD PUSH2 0x3BF4 JUMP JUMPDEST POP POP POP POP SWAP1 POP SWAP1 DUP2 ADD SWAP1 PUSH1 0x1F AND DUP1 ISZERO PUSH2 0x3C39 JUMPI DUP1 DUP3 SUB DUP1 MLOAD PUSH1 0x1 DUP4 PUSH1 0x20 SUB PUSH2 0x100 EXP SUB NOT AND DUP2 MSTORE PUSH1 0x20 ADD SWAP2 POP JUMPDEST POP SWAP6 POP POP POP POP POP POP PUSH1 0x0 PUSH1 0x40 MLOAD DUP1 DUP4 SUB DUP2 PUSH1 0x0 DUP8 DUP1 EXTCODESIZE ISZERO DUP1 ISZERO PUSH2 0x3C5B JUMPI PUSH1 0x0 DUP1 REVERT JUMPDEST POP GAS CALL ISZERO DUP1 ISZERO PUSH2 0x3C6F JUMPI RETURNDATASIZE PUSH1 0x0 DUP1 RETURNDATACOPY RETURNDATASIZE PUSH1 0x0 REVERT JUMPDEST POP POP PUSH1 0x1 SWAP1 SWAP12 ADD SWAP11 POP PUSH2 0x3989 SWAP10 POP POP POP POP POP POP POP POP POP POP JUMP JUMPDEST DUP1 DUP3 SUB DUP3 DUP2 GT ISZERO PUSH2 0x1123 JUMPI PUSH1 0x40 DUP1 MLOAD PUSH3 0x461BCD PUSH1 0xE5 SHL DUP2 MSTORE PUSH1 0x20 PUSH1 0x4 DUP3 ADD MSTORE PUSH1 0x15 PUSH1 0x24 DUP3 ADD MSTORE PUSH21 0x64732D6D6174682D7375622D756E646572666C6F77 PUSH1 0x58 SHL PUSH1 0x44 DUP3 ADD MSTORE SWAP1 MLOAD SWAP1 DUP2 SWAP1 SUB PUSH1 0x64 ADD SWAP1 REVERT JUMPDEST PUSH1 0x0 DUP1 DUP5 GT PUSH2 0x3D18 JUMPI PUSH1 0x40 MLOAD PUSH3 0x461BCD PUSH1 0xE5 SHL DUP2 MSTORE PUSH1 0x4 ADD DUP1 DUP1 PUSH1 0x20 ADD DUP3 DUP2 SUB DUP3 MSTORE PUSH1 0x2C DUP2 MSTORE PUSH1 0x20 ADD DUP1 PUSH2 0x433F PUSH1 0x2C SWAP2 CODECOPY PUSH1 0x40 ADD SWAP2 POP POP PUSH1 0x40 MLOAD DUP1 SWAP2 SUB SWAP1 REVERT JUMPDEST PUSH1 0x0 DUP4 GT DUP1 ISZERO PUSH2 0x3D28 JUMPI POP PUSH1 0x0 DUP3 GT JUMPDEST PUSH2 0x3D63 JUMPI PUSH1 0x40 MLOAD PUSH3 0x461BCD PUSH1 0xE5 SHL DUP2 MSTORE PUSH1 0x4 ADD DUP1 DUP1 PUSH1 0x20 ADD DUP3 DUP2 SUB DUP3 MSTORE PUSH1 0x28 DUP2 MSTORE PUSH1 0x20 ADD DUP1 PUSH2 0x43B6 PUSH1 0x28 SWAP2 CODECOPY PUSH1 0x40 ADD SWAP2 POP POP PUSH1 0x40 MLOAD DUP1 SWAP2 SUB SWAP1 REVERT JUMPDEST PUSH1 0x0 PUSH2 0x3D7B PUSH2 0x3E8 PUSH2 0x3D75 DUP7 DUP9 PUSH2 0x41C5 JUMP JUMPDEST SWAP1 PUSH2 0x41C5 JUMP JUMPDEST SWAP1 POP PUSH1 0x0 PUSH2 0x3D8F PUSH2 0x3E5 PUSH2 0x3D75 DUP7 DUP10 PUSH2 0x3C88 JUMP JUMPDEST SWAP1 POP PUSH2 0x3DA6 PUSH1 0x1 DUP3 DUP5 DUP2 PUSH2 0x3D9F JUMPI INVALID JUMPDEST DIV SWAP1 PUSH2 0x4228 JUMP JUMPDEST SWAP7 SWAP6 POP POP POP POP POP POP JUMP JUMPDEST PUSH1 0x0 DUP1 DUP5 GT PUSH2 0x3DF0 JUMPI PUSH1 0x40 MLOAD PUSH3 0x461BCD PUSH1 0xE5 SHL DUP2 MSTORE PUSH1 0x4 ADD DUP1 DUP1 PUSH1 0x20 ADD DUP3 DUP2 SUB DUP3 MSTORE PUSH1 0x25 DUP2 MSTORE PUSH1 0x20 ADD DUP1 PUSH2 0x43DE PUSH1 0x25 SWAP2 CODECOPY PUSH1 0x40 ADD SWAP2 POP POP PUSH1 0x40 MLOAD DUP1 SWAP2 SUB SWAP1 REVERT JUMPDEST PUSH1 0x0 DUP4 GT DUP1 ISZERO PUSH2 0x3E00 JUMPI POP PUSH1 0x0 DUP3 GT JUMPDEST PUSH2 0x3E3B JUMPI PUSH1 0x40 MLOAD PUSH3 0x461BCD PUSH1 0xE5 SHL DUP2 MSTORE PUSH1 0x4 ADD DUP1 DUP1 PUSH1 0x20 ADD DUP3 DUP2 SUB DUP3 MSTORE PUSH1 0x28 DUP2 MSTORE PUSH1 0x20 ADD DUP1 PUSH2 0x43B6 PUSH1 0x28 SWAP2 CODECOPY PUSH1 0x40 ADD SWAP2 POP POP PUSH1 0x40 MLOAD DUP1 SWAP2 SUB SWAP1 REVERT JUMPDEST DUP3 PUSH2 0x3E46 DUP6 DUP5 PUSH2 0x41C5 JUMP JUMPDEST DUP2 PUSH2 0x3E4D JUMPI INVALID JUMPDEST DIV SWAP5 SWAP4 POP POP POP POP JUMP JUMPDEST PUSH1 0x0 DUP1 DUP3 PUSH1 0x1 PUSH1 0x1 PUSH1 0xA0 SHL SUB AND DUP5 PUSH1 0x1 PUSH1 0x1 PUSH1 0xA0 SHL SUB AND EQ ISZERO PUSH2 0x3EAA JUMPI PUSH1 0x40 MLOAD PUSH3 0x461BCD PUSH1 0xE5 SHL DUP2 MSTORE PUSH1 0x4 ADD DUP1 DUP1 PUSH1 0x20 ADD DUP3 DUP2 SUB DUP3 MSTORE PUSH1 0x25 DUP2 MSTORE PUSH1 0x20 ADD DUP1 PUSH2 0x436B PUSH1 0x25 SWAP2 CODECOPY PUSH1 0x40 ADD SWAP2 POP POP PUSH1 0x40 MLOAD DUP1 SWAP2 SUB SWAP1 REVERT JUMPDEST DUP3 PUSH1 0x1 PUSH1 0x1 PUSH1 0xA0 SHL SUB AND DUP5 PUSH1 0x1 PUSH1 0x1 PUSH1 0xA0 SHL SUB AND LT PUSH2 0x3ECA JUMPI DUP3 DUP5 PUSH2 0x3ECD JUMP JUMPDEST DUP4 DUP4 JUMPDEST SWAP1 SWAP3 POP SWAP1 POP PUSH1 0x1 PUSH1 0x1 PUSH1 0xA0 SHL SUB DUP3 AND PUSH2 0x3F2D JUMPI PUSH1 0x40 DUP1 MLOAD PUSH3 0x461BCD PUSH1 0xE5 SHL DUP2 MSTORE PUSH1 0x20 PUSH1 0x4 DUP3 ADD MSTORE PUSH1 0x1E PUSH1 0x24 DUP3 ADD MSTORE PUSH32 0x556E697377617056324C6962726172793A205A45524F5F414444524553530000 PUSH1 0x44 DUP3 ADD MSTORE SWAP1 MLOAD SWAP1 DUP2 SWAP1 SUB PUSH1 0x64 ADD SWAP1 REVERT JUMPDEST SWAP3 POP SWAP3 SWAP1 POP JUMP JUMPDEST PUSH1 0x0 DUP1 PUSH1 0x0 PUSH1 0x1 PUSH1 0x1 PUSH1 0xA0 SHL SUB AND PUSH32 0x0 PUSH1 0x1 PUSH1 0x1 PUSH1 0xA0 SHL SUB AND PUSH4 0xE6A43905 DUP11 DUP11 PUSH1 0x40 MLOAD DUP4 PUSH4 0xFFFFFFFF AND PUSH1 0xE0 SHL DUP2 MSTORE PUSH1 0x4 ADD DUP1 DUP4 PUSH1 0x1 PUSH1 0x1 PUSH1 0xA0 SHL SUB AND DUP2 MSTORE PUSH1 0x20 ADD DUP3 PUSH1 0x1 PUSH1 0x1 PUSH1 0xA0 SHL SUB AND DUP2 MSTORE PUSH1 0x20 ADD SWAP3 POP POP POP PUSH1 0x20 PUSH1 0x40 MLOAD DUP1 DUP4 SUB DUP2 DUP7 DUP1 EXTCODESIZE ISZERO DUP1 ISZERO PUSH2 0x3FC0 JUMPI PUSH1 0x0 DUP1 REVERT JUMPDEST POP GAS STATICCALL ISZERO DUP1 ISZERO PUSH2 0x3FD4 JUMPI RETURNDATASIZE PUSH1 0x0 DUP1 RETURNDATACOPY RETURNDATASIZE PUSH1 0x0 REVERT JUMPDEST POP POP POP POP PUSH1 0x40 MLOAD RETURNDATASIZE PUSH1 0x20 DUP2 LT ISZERO PUSH2 0x3FEA JUMPI PUSH1 0x0 DUP1 REVERT JUMPDEST POP MLOAD PUSH1 0x1 PUSH1 0x1 PUSH1 0xA0 SHL SUB AND EQ ISZERO PUSH2 0x40A8 JUMPI PUSH32 0x0 PUSH1 0x1 PUSH1 0x1 PUSH1 0xA0 SHL SUB AND PUSH4 0xC9C65396 DUP10 DUP10 PUSH1 0x40 MLOAD DUP4 PUSH4 0xFFFFFFFF AND PUSH1 0xE0 SHL DUP2 MSTORE PUSH1 0x4 ADD DUP1 DUP4 PUSH1 0x1 PUSH1 0x1 PUSH1 0xA0 SHL SUB AND DUP2 MSTORE PUSH1 0x20 ADD DUP3 PUSH1 0x1 PUSH1 0x1 PUSH1 0xA0 SHL SUB AND DUP2 MSTORE PUSH1 0x20 ADD SWAP3 POP POP POP PUSH1 0x20 PUSH1 0x40 MLOAD DUP1 DUP4 SUB DUP2 PUSH1 0x0 DUP8 DUP1 EXTCODESIZE ISZERO DUP1 ISZERO PUSH2 0x407B JUMPI PUSH1 0x0 DUP1 REVERT JUMPDEST POP GAS CALL ISZERO DUP1 ISZERO PUSH2 0x408F JUMPI RETURNDATASIZE PUSH1 0x0 DUP1 RETURNDATACOPY RETURNDATASIZE PUSH1 0x0 REVERT JUMPDEST POP POP POP POP PUSH1 0x40 MLOAD RETURNDATASIZE PUSH1 0x20 DUP2 LT ISZERO PUSH2 0x40A5 JUMPI PUSH1 0x0 DUP1 REVERT JUMPDEST POP POP JUMPDEST PUSH1 0x0 DUP1 PUSH2 0x40D6 PUSH32 0x0 DUP12 DUP12 PUSH2 0x4277 JUMP JUMPDEST SWAP2 POP SWAP2 POP DUP2 PUSH1 0x0 EQ DUP1 ISZERO PUSH2 0x40E8 JUMPI POP DUP1 ISZERO JUMPDEST ISZERO PUSH2 0x40F8 JUMPI DUP8 SWAP4 POP DUP7 SWAP3 POP PUSH2 0x41B8 JUMP JUMPDEST PUSH1 0x0 PUSH2 0x4105 DUP10 DUP5 DUP5 PUSH2 0x3DB0 JUMP JUMPDEST SWAP1 POP DUP8 DUP2 GT PUSH2 0x4158 JUMPI DUP6 DUP2 LT ISZERO PUSH2 0x414D JUMPI PUSH1 0x40 MLOAD PUSH3 0x461BCD PUSH1 0xE5 SHL DUP2 MSTORE PUSH1 0x4 ADD DUP1 DUP1 PUSH1 0x20 ADD DUP3 DUP2 SUB DUP3 MSTORE PUSH1 0x26 DUP2 MSTORE PUSH1 0x20 ADD DUP1 PUSH2 0x4390 PUSH1 0x26 SWAP2 CODECOPY PUSH1 0x40 ADD SWAP2 POP POP PUSH1 0x40 MLOAD DUP1 SWAP2 SUB SWAP1 REVERT JUMPDEST DUP9 SWAP5 POP SWAP3 POP DUP3 PUSH2 0x41B6 JUMP JUMPDEST PUSH1 0x0 PUSH2 0x4165 DUP10 DUP5 DUP7 PUSH2 0x3DB0 JUMP JUMPDEST SWAP1 POP DUP10 DUP2 GT ISZERO PUSH2 0x4171 JUMPI INVALID JUMPDEST DUP8 DUP2 LT ISZERO PUSH2 0x41B0 JUMPI PUSH1 0x40 MLOAD PUSH3 0x461BCD PUSH1 0xE5 SHL DUP2 MSTORE PUSH1 0x4 ADD DUP1 DUP1 PUSH1 0x20 ADD DUP3 DUP2 SUB DUP3 MSTORE PUSH1 0x26 DUP2 MSTORE PUSH1 0x20 ADD DUP1 PUSH2 0x444A PUSH1 0x26 SWAP2 CODECOPY PUSH1 0x40 ADD SWAP2 POP POP PUSH1 0x40 MLOAD DUP1 SWAP2 SUB SWAP1 REVERT JUMPDEST SWAP5 POP DUP8 SWAP4 POP JUMPDEST POP JUMPDEST POP POP SWAP7 POP SWAP7 SWAP5 POP POP POP POP POP JUMP JUMPDEST PUSH1 0x0 DUP2 ISZERO DUP1 PUSH2 0x41E0 JUMPI POP POP DUP1 DUP3 MUL DUP3 DUP3 DUP3 DUP2 PUSH2 0x41DD JUMPI INVALID JUMPDEST DIV EQ JUMPDEST PUSH2 0x1123 JUMPI PUSH1 0x40 DUP1 MLOAD PUSH3 0x461BCD PUSH1 0xE5 SHL DUP2 MSTORE PUSH1 0x20 PUSH1 0x4 DUP3 ADD MSTORE PUSH1 0x14 PUSH1 0x24 DUP3 ADD MSTORE PUSH20 0x64732D6D6174682D6D756C2D6F766572666C6F77 PUSH1 0x60 SHL PUSH1 0x44 DUP3 ADD MSTORE SWAP1 MLOAD SWAP1 DUP2 SWAP1 SUB PUSH1 0x64 ADD SWAP1 REVERT JUMPDEST DUP1 DUP3 ADD DUP3 DUP2 LT ISZERO PUSH2 0x1123 JUMPI PUSH1 0x40 DUP1 MLOAD PUSH3 0x461BCD PUSH1 0xE5 SHL DUP2 MSTORE PUSH1 0x20 PUSH1 0x4 DUP3 ADD MSTORE PUSH1 0x14 PUSH1 0x24 DUP3 ADD MSTORE PUSH20 0x64732D6D6174682D6164642D6F766572666C6F77 PUSH1 0x60 SHL PUSH1 0x44 DUP3 ADD MSTORE SWAP1 MLOAD SWAP1 DUP2 SWAP1 SUB PUSH1 0x64 ADD SWAP1 REVERT JUMPDEST PUSH1 0x0 DUP1 PUSH1 0x0 PUSH2 0x4286 DUP6 DUP6 PUSH2 0x3E56 JUMP JUMPDEST POP SWAP1 POP PUSH1 0x0 DUP1 PUSH2 0x4297 DUP9 DUP9 DUP9 PUSH2 0x33F4 JUMP JUMPDEST PUSH1 0x1 PUSH1 0x1 PUSH1 0xA0 SHL SUB AND PUSH4 0x902F1AC PUSH1 0x40 MLOAD DUP2 PUSH4 0xFFFFFFFF AND PUSH1 0xE0 SHL DUP2 MSTORE PUSH1 0x4 ADD PUSH1 0x60 PUSH1 0x40 MLOAD DUP1 DUP4 SUB DUP2 DUP7 DUP1 EXTCODESIZE ISZERO DUP1 ISZERO PUSH2 0x42CF JUMPI PUSH1 0x0 DUP1 REVERT JUMPDEST POP GAS STATICCALL ISZERO DUP1 ISZERO PUSH2 0x42E3 JUMPI RETURNDATASIZE PUSH1 0x0 DUP1 RETURNDATACOPY RETURNDATASIZE PUSH1 0x0 REVERT JUMPDEST POP POP POP POP PUSH1 0x40 MLOAD RETURNDATASIZE PUSH1 0x60 DUP2 LT ISZERO PUSH2 0x42F9 JUMPI PUSH1 0x0 DUP1 REVERT JUMPDEST POP DUP1 MLOAD PUSH1 0x20 SWAP1 SWAP2 ADD MLOAD PUSH1 0x1 PUSH1 0x1 PUSH1 0x70 SHL SUB SWAP2 DUP3 AND SWAP4 POP AND SWAP1 POP PUSH1 0x1 PUSH1 0x1 PUSH1 0xA0 SHL SUB DUP8 DUP2 AND SWAP1 DUP5 AND EQ PUSH2 0x432C JUMPI DUP1 DUP3 PUSH2 0x432F JUMP JUMPDEST DUP2 DUP2 JUMPDEST SWAP1 SWAP10 SWAP1 SWAP9 POP SWAP7 POP POP POP POP POP POP POP JUMP INVALID SSTORE PUSH15 0x697377617056324C6962726172793A KECCAK256 0x49 0x4E MSTORE8 SSTORE CHAINID CHAINID 0x49 NUMBER 0x49 GASLIMIT 0x4E SLOAD 0x5F 0x4F SSTORE SLOAD POP SSTORE SLOAD 0x5F COINBASE 0x4D 0x4F SSTORE 0x4E SLOAD SSTORE PUSH15 0x697377617056324C6962726172793A KECCAK256 0x49 DIFFICULTY GASLIMIT 0x4E SLOAD 0x49 NUMBER COINBASE 0x4C 0x5F COINBASE DIFFICULTY DIFFICULTY MSTORE GASLIMIT MSTORE8 MSTORE8 GASLIMIT MSTORE8 SSTORE PUSH15 0x69737761705632526F757465723A20 0x49 0x4E MSTORE8 SSTORE CHAINID CHAINID 0x49 NUMBER 0x49 GASLIMIT 0x4E SLOAD 0x5F TIMESTAMP 0x5F COINBASE 0x4D 0x4F SSTORE 0x4E SLOAD SSTORE PUSH15 0x697377617056324C6962726172793A KECCAK256 0x49 0x4E MSTORE8 SSTORE CHAINID CHAINID 0x49 NUMBER 0x49 GASLIMIT 0x4E SLOAD 0x5F 0x4C 0x49 MLOAD SSTORE 0x49 DIFFICULTY 0x49 SLOAD MSIZE SSTORE PUSH15 0x697377617056324C6962726172793A KECCAK256 0x49 0x4E MSTORE8 SSTORE CHAINID CHAINID 0x49 NUMBER 0x49 GASLIMIT 0x4E SLOAD 0x5F COINBASE 0x4D 0x4F SSTORE 0x4E SLOAD SSTORE PUSH15 0x69737761705632526F757465723A20 GASLIMIT PC NUMBER GASLIMIT MSTORE8 MSTORE8 0x49 JUMP GASLIMIT 0x5F 0x49 0x4E POP SSTORE SLOAD 0x5F COINBASE 0x4D 0x4F SSTORE 0x4E SLOAD SSTORE PUSH15 0x69737761705632526F757465723A20 0x49 0x4E JUMP COINBASE 0x4C 0x49 DIFFICULTY 0x5F POP COINBASE SLOAD 0x48 STOP STOP STOP SSTORE PUSH15 0x69737761705632526F757465723A20 0x49 0x4E MSTORE8 SSTORE CHAINID CHAINID 0x49 NUMBER 0x49 GASLIMIT 0x4E SLOAD 0x5F COINBASE 0x5F COINBASE 0x4D 0x4F SSTORE 0x4E SLOAD SLOAD PUSH19 0x616E7366657248656C7065723A204554485F54 MSTORE COINBASE 0x4E MSTORE8 CHAINID GASLIMIT MSTORE 0x5F CHAINID COINBASE 0x49 0x4C GASLIMIT DIFFICULTY SSTORE PUSH15 0x69737761705632526F757465723A20 0x49 0x4E MSTORE8 SSTORE CHAINID CHAINID 0x49 NUMBER 0x49 GASLIMIT 0x4E SLOAD 0x5F 0x4F SSTORE SLOAD POP SSTORE SLOAD 0x5F COINBASE 0x4D 0x4F SSTORE 0x4E SLOAD SLOAD PUSH19 0x616E7366657248656C7065723A205452414E53 CHAINID GASLIMIT MSTORE 0x5F CHAINID MSTORE 0x4F 0x4D 0x5F CHAINID COINBASE 0x49 0x4C GASLIMIT DIFFICULTY SSTORE PUSH15 0x697377617056324C6962726172793A KECCAK256 0x49 0x4E MSTORE8 SSTORE CHAINID CHAINID 0x49 NUMBER 0x49 GASLIMIT 0x4E SLOAD 0x5F 0x49 0x4E POP SSTORE SLOAD 0x5F COINBASE 0x4D 0x4F SSTORE 0x4E SLOAD SSTORE PUSH15 0x69737761705632526F757465723A20 GASLIMIT PC POP 0x49 MSTORE GASLIMIT DIFFICULTY STOP STOP STOP STOP STOP STOP STOP STOP LOG2 PUSH5 0x6970667358 0x22 SLT KECCAK256 LOG4 PUSH15 0x6E0ED77A711F31A9B6443FC94DFB88 CALLDATALOAD DIFFICULTY 0xC6 0xEF 0xB2 DUP13 STATICCALL SWAP13 0x2E BALANCE JUMPDEST 0x5D 0xB9 EXTCODEHASH SWAP11 PUSH5 0x736F6C6343 STOP MOD 0xC STOP CALLER "
				},
				"gasEstimates": {
					"creation": {
						"codeDepositCost": "3552400",
						"executionCost": "infinite",
						"totalCost": "infinite"
					},
					"external": {
						"WETH()": "infinite",
						"addLiquidity(address,address,uint256,uint256,uint256,uint256,address,uint256)": "infinite",
						"addLiquidityETH(address,uint256,uint256,uint256,address,uint256)": "infinite",
						"factory()": "infinite",
						"getAmountIn(uint256,uint256,uint256)": "infinite",
						"getAmountOut(uint256,uint256,uint256)": "infinite",
						"getAmountsIn(uint256,address[])": "infinite",
						"getAmountsOut(uint256,address[])": "infinite",
						"quote(uint256,uint256,uint256)": "infinite",
						"removeLiquidity(address,address,uint256,uint256,uint256,address,uint256)": "infinite",
						"removeLiquidityETH(address,uint256,uint256,uint256,address,uint256)": "infinite",
						"removeLiquidityETHSupportingFeeOnTransferTokens(address,uint256,uint256,uint256,address,uint256)": "infinite",
						"removeLiquidityETHWithPermit(address,uint256,uint256,uint256,address,uint256,bool,uint8,bytes32,bytes32)": "infinite",
						"removeLiquidityETHWithPermitSupportingFeeOnTransferTokens(address,uint256,uint256,uint256,address,uint256,bool,uint8,bytes32,bytes32)": "infinite",
						"removeLiquidityWithPermit(address,address,uint256,uint256,uint256,address,uint256,bool,uint8,bytes32,bytes32)": "infinite",
						"swapETHForExactTokens(uint256,address[],address,uint256)": "infinite",
						"swapExactETHForTokens(uint256,address[],address,uint256)": "infinite",
						"swapExactETHForTokensSupportingFeeOnTransferTokens(uint256,address[],address,uint256)": "infinite",
						"swapExactTokensForETH(uint256,uint256,address[],address,uint256)": "infinite",
						"swapExactTokensForETHSupportingFeeOnTransferTokens(uint256,uint256,address[],address,uint256)": "infinite",
						"swapExactTokensForTokens(uint256,uint256,address[],address,uint256)": "infinite",
						"swapExactTokensForTokensSupportingFeeOnTransferTokens(uint256,uint256,address[],address,uint256)": "infinite",
						"swapTokensForExactETH(uint256,uint256,address[],address,uint256)": "infinite",
						"swapTokensForExactTokens(uint256,uint256,address[],address,uint256)": "infinite"
					},
					"internal": {
						"_addLiquidity(address,address,uint256,uint256,uint256,uint256)": "infinite",
						"_swap(uint256[] memory,address[] memory,address)": "infinite",
						"_swapSupportingFeeOnTransferTokens(address[] memory,address)": "infinite"
					}
				},
				"methodIdentifiers": {
					"WETH()": "ad5c4648",
					"addLiquidity(address,address,uint256,uint256,uint256,uint256,address,uint256)": "e8e33700",
					"addLiquidityETH(address,uint256,uint256,uint256,address,uint256)": "f305d719",
					"factory()": "c45a0155",
					"getAmountIn(uint256,uint256,uint256)": "85f8c259",
					"getAmountOut(uint256,uint256,uint256)": "054d50d4",
					"getAmountsIn(uint256,address[])": "1f00ca74",
					"getAmountsOut(uint256,address[])": "d06ca61f",
					"quote(uint256,uint256,uint256)": "ad615dec",
					"removeLiquidity(address,address,uint256,uint256,uint256,address,uint256)": "baa2abde",
					"removeLiquidityETH(address,uint256,uint256,uint256,address,uint256)": "02751cec",
					"removeLiquidityETHSupportingFeeOnTransferTokens(address,uint256,uint256,uint256,address,uint256)": "af2979eb",
					"removeLiquidityETHWithPermit(address,uint256,uint256,uint256,address,uint256,bool,uint8,bytes32,bytes32)": "ded9382a",
					"removeLiquidityETHWithPermitSupportingFeeOnTransferTokens(address,uint256,uint256,uint256,address,uint256,bool,uint8,bytes32,bytes32)": "5b0d5984",
					"removeLiquidityWithPermit(address,address,uint256,uint256,uint256,address,uint256,bool,uint8,bytes32,bytes32)": "2195995c",
					"swapETHForExactTokens(uint256,address[],address,uint256)": "fb3bdb41",
					"swapExactETHForTokens(uint256,address[],address,uint256)": "7ff36ab5",
					"swapExactETHForTokensSupportingFeeOnTransferTokens(uint256,address[],address,uint256)": "b6f9de95",
					"swapExactTokensForETH(uint256,uint256,address[],address,uint256)": "18cbafe5",
					"swapExactTokensForETHSupportingFeeOnTransferTokens(uint256,uint256,address[],address,uint256)": "791ac947",
					"swapExactTokensForTokens(uint256,uint256,address[],address,uint256)": "38ed1739",
					"swapExactTokensForTokensSupportingFeeOnTransferTokens(uint256,uint256,address[],address,uint256)": "5c11d795",
					"swapTokensForExactETH(uint256,uint256,address[],address,uint256)": "4a25d94a",
					"swapTokensForExactTokens(uint256,uint256,address[],address,uint256)": "8803dbee"
				}
			},
			"storageLayout": {
				"storage": [],
				"types": null
			},
			"userdoc": {
				"kind": "user",
				"methods": {},
				"version": 1
			}
		}
	}
}