{
	"swap/UniswapV2Pair.sol": {
		"UniswapV2Pair": {
			"abi": [
				{
					"inputs": [],
					"stateMutability": "nonpayable",
					"type": "constructor"
				},
				{
					"anonymous": false,
					"inputs": [
						{
							"indexed": true,
							"internalType": "address",
							"name": "owner",
							"type": "address"
						},
						{
							"indexed": true,
							"internalType": "address",
							"name": "spender",
							"type": "address"
						},
						{
							"indexed": false,
							"internalType": "uint256",
							"name": "value",
							"type": "uint256"
						}
					],
					"name": "Approval",
					"type": "event"
				},
				{
					"anonymous": false,
					"inputs": [
						{
							"indexed": true,
							"internalType": "address",
							"name": "sender",
							"type": "address"
						},
						{
							"indexed": false,
							"internalType": "uint256",
							"name": "amount0",
							"type": "uint256"
						},
						{
							"indexed": false,
							"internalType": "uint256",
							"name": "amount1",
							"type": "uint256"
						},
						{
							"indexed": true,
							"internalType": "address",
							"name": "to",
							"type": "address"
						}
					],
					"name": "Burn",
					"type": "event"
				},
				{
					"anonymous": false,
					"inputs": [
						{
							"indexed": true,
							"internalType": "address",
							"name": "sender",
							"type": "address"
						},
						{
							"indexed": false,
							"internalType": "uint256",
							"name": "amount0",
							"type": "uint256"
						},
						{
							"indexed": false,
							"internalType": "uint256",
							"name": "amount1",
							"type": "uint256"
						}
					],
					"name": "Mint",
					"type": "event"
				},
				{
					"anonymous": false,
					"inputs": [
						{
							"indexed": true,
							"internalType": "address",
							"name": "sender",
							"type": "address"
						},
						{
							"indexed": false,
							"internalType": "uint256",
							"name": "amount0In",
							"type": "uint256"
						},
						{
							"indexed": false,
							"internalType": "uint256",
							"name": "amount1In",
							"type": "uint256"
						},
						{
							"indexed": false,
							"internalType": "uint256",
							"name": "amount0Out",
							"type": "uint256"
						},
						{
							"indexed": false,
							"internalType": "uint256",
							"name": "amount1Out",
							"type": "uint256"
						},
						{
							"indexed": true,
							"internalType": "address",
							"name": "to",
							"type": "address"
						}
					],
					"name": "Swap",
					"type": "event"
				},
				{
					"anonymous": false,
					"inputs": [
						{
							"indexed": false,
							"internalType": "uint112",
							"name": "reserve0",
							"type": "uint112"
						},
						{
							"indexed": false,
							"internalType": "uint112",
							"name": "reserve1",
							"type": "uint112"
						}
					],
					"name": "Sync",
					"type": "event"
				},
				{
					"anonymous": false,
					"inputs": [
						{
							"indexed": true,
							"internalType": "address",
							"name": "from",
							"type": "address"
						},
						{
							"indexed": true,
							"internalType": "address",
							"name": "to",
							"type": "address"
						},
						{
							"indexed": false,
							"internalType": "uint256",
							"name": "value",
							"type": "uint256"
						}
					],
					"name": "Transfer",
					"type": "event"
				},
				{
					"inputs": [],
					"name": "DOMAIN_SEPARATOR",
					"outputs": [
						{
							"internalType": "bytes32",
							"name": "",
							"type": "bytes32"
						}
					],
					"stateMutability": "view",
					"type": "function"
				},
				{
					"inputs": [],
					"name": "MINIMUM_LIQUIDITY",
					"outputs": [
						{
							"internalType": "uint256",
							"name": "",
							"type": "uint256"
						}
					],
					"stateMutability": "view",
					"type": "function"
				},
				{
					"inputs": [],
					"name": "PERMIT_TYPEHASH",
					"outputs": [
						{
							"internalType": "bytes32",
							"name": "",
							"type": "bytes32"
						}
					],
					"stateMutability": "view",
					"type": "function"
				},
				{
					"inputs": [
						{
							"internalType": "address",
							"name": "",
							"type": "address"
						},
						{
							"internalType": "address",
							"name": "",
							"type": "address"
						}
					],
					"name": "allowance",
					"outputs": [
						{
							"internalType": "uint256",
							"name": "",
							"type": "uint256"
						}
					],
					"stateMutability": "view",
					"type": "function"
				},
				{
					"inputs": [
						{
							"internalType": "address",
							"name": "spender",
							"type": "address"
						},
						{
							"internalType": "uint256",
							"name": "value",
							"type": "uint256"
						}
					],
					"name": "approve",
					"outputs": [
						{
							"internalType": "bool",
							"name": "",
							"type": "bool"
						}
					],
					"stateMutability": "nonpayable",
					"type": "function"
				},
				{
					"inputs": [
						{
							"internalType": "address",
							"name": "",
							"type": "address"
						}
					],
					"name": "balanceOf",
					"outputs": [
						{
							"internalType": "uint256",
							"name": "",
							"type": "uint256"
						}
					],
					"stateMutability": "view",
					"type": "function"
				},
				{
					"inputs": [
						{
							"internalType": "address",
							"name": "to",
							"type": "address"
						}
					],
					"name": "burn",
					"outputs": [
						{
							"internalType": "uint256",
							"name": "amount0",
							"type": "uint256"
						},
						{
							"internalType": "uint256",
							"name": "amount1",
							"type": "uint256"
						}
					],
					"stateMutability": "nonpayable",
					"type": "function"
				},
				{
					"inputs": [],
					"name": "decimals",
					"outputs": [
						{
							"internalType": "uint8",
							"name": "",
							"type": "uint8"
						}
					],
					"stateMutability": "view",
					"type": "function"
				},
				{
					"inputs": [],
					"name": "factory",
					"outputs": [
						{
							"internalType": "address",
							"name": "",
							"type": "address"
						}
					],
					"stateMutability": "view",
					"type": "function"
				},
				{
					"inputs": [],
					"name": "getReserves",
					"outputs": [
						{
							"internalType": "uint112",
							"name": "_reserve0",
							"type": "uint112"
						},
						{
							"internalType": "uint112",
							"name": "_reserve1",
							"type": "uint112"
						},
						{
							"internalType": "uint32",
							"name": "_blockTimestampLast",
							"type": "uint32"
						}
					],
					"stateMutability": "view",
					"type": "function"
				},
				{
					"inputs": [
						{
							"internalType": "address",
							"name": "_token0",
							"type": "address"
						},
						{
							"internalType": "address",
							"name": "_token1",
							"type": "address"
						}
					],
					"name": "initialize",
					"outputs": [],
					"stateMutability": "nonpayable",
					"type": "function"
				},
				{
					"inputs": [],
					"name": "kLast",
					"outputs": [
						{
							"internalType": "uint256",
							"name": "",
							"type": "uint256"
						}
					],
					"stateMutability": "view",
					"type": "function"
				},
				{
					"inputs": [
						{
							"internalType": "address",
							"name": "to",
							"type": "address"
						}
					],
					"name": "mint",
					"outputs": [
						{
							"internalType": "uint256",
							"name": "liquidity",
							"type": "uint256"
						}
					],
					"stateMutability": "nonpayable",
					"type": "function"
				},
				{
					"inputs": [],
					"name": "name",
					"outputs": [
						{
							"internalType": "string",
							"name": "",
							"type": "string"
						}
					],
					"stateMutability": "view",
					"type": "function"
				},
				{
					"inputs": [
						{
							"internalType": "address",
							"name": "",
							"type": "address"
						}
					],
					"name": "nonces",
					"outputs": [
						{
							"internalType": "uint256",
							"name": "",
							"type": "uint256"
						}
					],
					"stateMutability": "view",
					"type": "function"
				},
				{
					"inputs": [
						{
							"internalType": "address",
							"name": "owner",
							"type": "address"
						},
						{
							"internalType": "address",
							"name": "spender",
							"type": "address"
						},
						{
							"internalType": "uint256",
							"name": "value",
							"type": "uint256"
						},
						{
							"internalType": "uint256",
							"name": "deadline",
							"type": "uint256"
						},
						{
							"internalType": "uint8",
							"name": "v",
							"type": "uint8"
						},
						{
							"internalType": "bytes32",
							"name": "r",
							"type": "bytes32"
						},
						{
							"internalType": "bytes32",
							"name": "s",
							"type": "bytes32"
						}
					],
					"name": "permit",
					"outputs": [],
					"stateMutability": "nonpayable",
					"type": "function"
				},
				{
					"inputs": [],
					"name": "price0CumulativeLast",
					"outputs": [
						{
							"internalType": "uint256",
							"name": "",
							"type": "uint256"
						}
					],
					"stateMutability": "view",
					"type": "function"
				},
				{
					"inputs": [],
					"name": "price1CumulativeLast",
					"outputs": [
						{
							"internalType": "uint256",
							"name": "",
							"type": "uint256"
						}
					],
					"stateMutability": "view",
					"type": "function"
				},
				{
					"inputs": [
						{
							"internalType": "uint32",
							"name": "_swapFee",
							"type": "uint32"
						}
					],
					"name": "setSwapFee",
					"outputs": [],
					"stateMutability": "nonpayable",
					"type": "function"
				},
				{
					"inputs": [
						{
							"internalType": "address",
							"name": "to",
							"type": "address"
						}
					],
					"name": "skim",
					"outputs": [],
					"stateMutability": "nonpayable",
					"type": "function"
				},
				{
					"inputs": [
						{
							"internalType": "uint256",
							"name": "amount0Out",
							"type": "uint256"
						},
						{
							"internalType": "uint256",
							"name": "amount1Out",
							"type": "uint256"
						},
						{
							"internalType": "address",
							"name": "to",
							"type": "address"
						},
						{
							"internalType": "bytes",
							"name": "data",
							"type": "bytes"
						}
					],
					"name": "swap",
					"outputs": [],
					"stateMutability": "nonpayable",
					"type": "function"
				},
				{
					"inputs": [],
					"name": "swapFee",
					"outputs": [
						{
							"internalType": "uint32",
							"name": "",
							"type": "uint32"
						}
					],
					"stateMutability": "view",
					"type": "function"
				},
				{
					"inputs": [],
					"name": "symbol",
					"outputs": [
						{
							"internalType": "string",
							"name": "",
							"type": "string"
						}
					],
					"stateMutability": "view",
					"type": "function"
				},
				{
					"inputs": [],
					"name": "sync",
					"outputs": [],
					"stateMutability": "nonpayable",
					"type": "function"
				},
				{
					"inputs": [],
					"name": "token0",
					"outputs": [
						{
							"internalType": "address",
							"name": "",
							"type": "address"
						}
					],
					"stateMutability": "view",
					"type": "function"
				},
				{
					"inputs": [],
					"name": "token1",
					"outputs": [
						{
							"internalType": "address",
							"name": "",
							"type": "address"
						}
					],
					"stateMutability": "view",
					"type": "function"
				},
				{
					"inputs": [],
					"name": "totalSupply",
					"outputs": [
						{
							"internalType": "uint256",
							"name": "",
							"type": "uint256"
						}
					],
					"stateMutability": "view",
					"type": "function"
				},
				{
					"inputs": [
						{
							"internalType": "address",
							"name": "to",
							"type": "address"
						},
						{
							"internalType": "uint256",
							"name": "value",
							"type": "uint256"
						}
					],
					"name": "transfer",
					"outputs": [
						{
							"internalType": "bool",
							"name": "",
							"type": "bool"
						}
					],
					"stateMutability": "nonpayable",
					"type": "function"
				},
				{
					"inputs": [
						{
							"internalType": "address",
							"name": "from",
							"type": "address"
						},
						{
							"internalType": "address",
							"name": "to",
							"type": "address"
						},
						{
							"internalType": "uint256",
							"name": "value",
							"type": "uint256"
						}
					],
					"name": "transferFrom",
					"outputs": [
						{
							"internalType": "bool",
							"name": "",
							"type": "bool"
						}
					],
					"stateMutability": "nonpayable",
					"type": "function"
				}
			],
			"devdoc": {
				"kind": "dev",
				"methods": {},
				"version": 1
			},
			"evm": {
				"assembly": "    /* \"swap/UniswapV2Pair.sol\":296:10386  contract UniswapV2Pair is UniswapV2ERC20 {\r... */\n  mstore(0x40, 0x80)\n    /* \"swap/UniswapV2Pair.sol\":1130:1156  uint32 public swapFee = 17 */\n  0x0c\n  dup1\n  sload\n  not(0xffffffff)\n  and\n    /* \"swap/UniswapV2Pair.sol\":1154:1156  17 */\n  0x11\n    /* \"swap/UniswapV2Pair.sol\":1130:1156  uint32 public swapFee = 17 */\n  or\n  swap1\n  sstore\n  0x01\n    /* \"swap/UniswapV2Pair.sol\":1187:1212  uint private unlocked = 1 */\n  0x0d\n  sstore\n    /* \"swap/UniswapV2Pair.sol\":2298:2358  constructor() public {\r... */\n  callvalue\n  dup1\n  iszero\n  tag_1\n  jumpi\n  0x00\n  dup1\n  revert\ntag_1:\n  pop\n    /* \"swap/UniswapV2ERC20.sol\":1245:1249  name */\n  0x40\n  dup1\n  mload\n  dup1\n  dup3\n  add\n  dup3\n  mstore\n  0x09\n  dup2\n  mstore\n  shl(0xbc, 0x054687265655377617)\n  0x20\n  swap2\n  dup3\n  add\n  mstore\n    /* \"swap/UniswapV2ERC20.sol\":1280:1290  bytes('1') */\n  dup2\n  mload\n  dup1\n  dup4\n  add\n  dup4\n  mstore\n  0x01\n  dup2\n  mstore\n  shl(0xf8, 0x31)\n  swap1\n  dup3\n  add\n  mstore\n    /* \"swap/UniswapV2ERC20.sol\":1086:1364  abi.encode(\r... */\n  dup2\n  mload\n    /* \"swap/UniswapV2ERC20.sol\":1115:1210  keccak256('EIP712Domain(string name,string version,uint256 chainId,address verifyingContract)') */\n  0x8b73c3c69bb8fe3d512ecc4cf759cc79239f7b179b0ffacaa9a75d522b39400f\n    /* \"swap/UniswapV2ERC20.sol\":1086:1364  abi.encode(\r... */\n  dup2\n  dup4\n  add\n  mstore\n    /* \"swap/UniswapV2ERC20.sol\":1229:1251  keccak256(bytes(name)) */\n  0x7ff6dc3ff61f96a32b39743c8f45ccbadf74f1c2b457b4abedc63ee79897a6d1\n    /* \"swap/UniswapV2ERC20.sol\":1086:1364  abi.encode(\r... */\n  dup2\n  dup5\n  add\n  mstore\n    /* \"swap/UniswapV2ERC20.sol\":1270:1291  keccak256(bytes('1')) */\n  0xc89efdaa54c0f20c7adf612882df0950f5a951637e0307cdcb4c672f298b8bc6\n    /* \"swap/UniswapV2ERC20.sol\":1086:1364  abi.encode(\r... */\n  0x60\n  dup3\n  add\n  mstore\n    /* \"swap/UniswapV2ERC20.sol\":1013:1022  chainid() */\n  chainid\n    /* \"swap/UniswapV2ERC20.sol\":1086:1364  abi.encode(\r... */\n  0x80\n  dup3\n  add\n  mstore\n    /* \"swap/UniswapV2ERC20.sol\":1344:1348  this */\n  address\n    /* \"swap/UniswapV2ERC20.sol\":1086:1364  abi.encode(\r... */\n  0xa0\n  dup1\n  dup4\n  add\n  swap2\n  swap1\n  swap2\n  mstore\n  dup4\n  mload\n  dup1\n  dup4\n  sub\n  swap1\n  swap2\n  add\n  dup2\n  mstore\n  0xc0\n  swap1\n  swap2\n  add\n  swap1\n  swap3\n  mstore\n    /* \"swap/UniswapV2ERC20.sol\":1062:1375  keccak256(\r... */\n  dup2\n  mload\n  swap2\n  add\n  keccak256\n    /* \"swap/UniswapV2ERC20.sol\":1043:1059  DOMAIN_SEPARATOR */\n  0x03\n    /* \"swap/UniswapV2ERC20.sol\":1043:1375  DOMAIN_SEPARATOR = keccak256(\r... */\n  sstore\n    /* \"swap/UniswapV2Pair.sol\":2330:2337  factory */\n  0x05\n    /* \"swap/UniswapV2Pair.sol\":2330:2350  factory = msg.sender */\n  dup1\n  sload\n  not(sub(shl(0xa0, 0x01), 0x01))\n  and\n    /* \"swap/UniswapV2Pair.sol\":2340:2350  msg.sender */\n  caller\n    /* \"swap/UniswapV2Pair.sol\":2330:2350  factory = msg.sender */\n  or\n  swap1\n  sstore\n    /* \"swap/UniswapV2Pair.sol\":296:10386  contract UniswapV2Pair is UniswapV2ERC20 {\r... */\n  dataSize(sub_0)\n  dup1\n  dataOffset(sub_0)\n  0x00\n  codecopy\n  0x00\n  return\nstop\n\nsub_0: assembly {\n        /* \"swap/UniswapV2Pair.sol\":296:10386  contract UniswapV2Pair is UniswapV2ERC20 {\r... */\n      mstore(0x40, 0x80)\n      callvalue\n      dup1\n      iszero\n      tag_1\n      jumpi\n      0x00\n      dup1\n      revert\n    tag_1:\n      pop\n      jumpi(tag_2, lt(calldatasize, 0x04))\n      shr(0xe0, calldataload(0x00))\n      dup1\n      0x6a627842\n      gt\n      tag_32\n      jumpi\n      dup1\n      0xba9a7a56\n      gt\n      tag_33\n      jumpi\n      dup1\n      0xd505accf\n      gt\n      tag_34\n      jumpi\n      dup1\n      0xd505accf\n      eq\n      tag_28\n      jumpi\n      dup1\n      0xd6d788c3\n      eq\n      tag_29\n      jumpi\n      dup1\n      0xdd62ed3e\n      eq\n      tag_30\n      jumpi\n      dup1\n      0xfff6cae9\n      eq\n      tag_31\n      jumpi\n      jump(tag_2)\n    tag_34:\n      dup1\n      0xba9a7a56\n      eq\n      tag_24\n      jumpi\n      dup1\n      0xbc25cf77\n      eq\n      tag_25\n      jumpi\n      dup1\n      0xc45a0155\n      eq\n      tag_26\n      jumpi\n      dup1\n      0xd21220a7\n      eq\n      tag_27\n      jumpi\n      jump(tag_2)\n    tag_33:\n      dup1\n      0x7ecebe00\n      gt\n      tag_35\n      jumpi\n      dup1\n      0x7ecebe00\n      eq\n      tag_20\n      jumpi\n      dup1\n      0x89afcb44\n      eq\n      tag_21\n      jumpi\n      dup1\n      0x95d89b41\n      eq\n      tag_22\n      jumpi\n      dup1\n      0xa9059cbb\n      eq\n      tag_23\n      jumpi\n      jump(tag_2)\n    tag_35:\n      dup1\n      0x6a627842\n      eq\n      tag_17\n      jumpi\n      dup1\n      0x70a08231\n      eq\n      tag_18\n      jumpi\n      dup1\n      0x7464fc3d\n      eq\n      tag_19\n      jumpi\n      jump(tag_2)\n    tag_32:\n      dup1\n      0x30adf81f\n      gt\n      tag_36\n      jumpi\n      dup1\n      0x485cc955\n      gt\n      tag_37\n      jumpi\n      dup1\n      0x485cc955\n      eq\n      tag_13\n      jumpi\n      dup1\n      0x54cf2aeb\n      eq\n      tag_14\n      jumpi\n      dup1\n      0x5909c0d5\n      eq\n      tag_15\n      jumpi\n      dup1\n      0x5a3d5493\n      eq\n      tag_16\n      jumpi\n      jump(tag_2)\n    tag_37:\n      dup1\n      0x30adf81f\n      eq\n      tag_10\n      jumpi\n      dup1\n      0x313ce567\n      eq\n      tag_11\n      jumpi\n      dup1\n      0x3644e515\n      eq\n      tag_12\n      jumpi\n      jump(tag_2)\n    tag_36:\n      dup1\n      0x095ea7b3\n      gt\n      tag_38\n      jumpi\n      dup1\n      0x095ea7b3\n      eq\n      tag_6\n      jumpi\n      dup1\n      0x0dfe1681\n      eq\n      tag_7\n      jumpi\n      dup1\n      0x18160ddd\n      eq\n      tag_8\n      jumpi\n      dup1\n      0x23b872dd\n      eq\n      tag_9\n      jumpi\n      jump(tag_2)\n    tag_38:\n      dup1\n      0x022c0d9f\n      eq\n      tag_3\n      jumpi\n      dup1\n      0x06fdde03\n      eq\n      tag_4\n      jumpi\n      dup1\n      0x0902f1ac\n      eq\n      tag_5\n      jumpi\n    tag_2:\n      0x00\n      dup1\n      revert\n        /* \"swap/UniswapV2Pair.sol\":7807:9765  function swap(uint amount0Out, uint amount1Out, address to, bytes calldata data) external lock {\r... */\n    tag_3:\n      tag_39\n      0x04\n      dup1\n      calldatasize\n      sub\n      0x80\n      dup2\n      lt\n      iszero\n      tag_40\n      jumpi\n      0x00\n      dup1\n      revert\n    tag_40:\n      dup2\n      calldataload\n      swap2\n      0x20\n      dup2\n      add\n      calldataload\n      swap2\n      sub(shl(0xa0, 0x01), 0x01)\n      0x40\n      dup4\n      add\n      calldataload\n      and\n      swap2\n      swap1\n      dup2\n      add\n      swap1\n      0x80\n      dup2\n      add\n      0x60\n      dup3\n      add\n      calldataload\n      0x0100000000\n      dup2\n      gt\n      iszero\n      tag_41\n      jumpi\n      0x00\n      dup1\n      revert\n    tag_41:\n      dup3\n      add\n      dup4\n      0x20\n      dup3\n      add\n      gt\n      iszero\n      tag_42\n      jumpi\n      0x00\n      dup1\n      revert\n    tag_42:\n      dup1\n      calldataload\n      swap1\n      0x20\n      add\n      swap2\n      dup5\n      0x01\n      dup4\n      mul\n      dup5\n      add\n      gt\n      0x0100000000\n      dup4\n      gt\n      or\n      iszero\n      tag_43\n      jumpi\n      0x00\n      dup1\n      revert\n    tag_43:\n      pop\n      swap1\n      swap3\n      pop\n      swap1\n      pop\n      tag_44\n      jump\t// in\n    tag_39:\n      stop\n        /* \"swap/UniswapV2ERC20.sol\":175:216  string public constant name = 'ThreeSwap' */\n    tag_4:\n      tag_45\n      tag_46\n      jump\t// in\n    tag_45:\n      0x40\n      dup1\n      mload\n      0x20\n      dup1\n      dup3\n      mstore\n      dup4\n      mload\n      dup2\n      dup4\n      add\n      mstore\n      dup4\n      mload\n      swap2\n      swap3\n      dup4\n      swap3\n      swap1\n      dup4\n      add\n      swap2\n      dup6\n      add\n      swap1\n      dup1\n      dup4\n      dup4\n      0x00\n    tag_47:\n      dup4\n      dup2\n      lt\n      iszero\n      tag_49\n      jumpi\n      dup2\n      dup2\n      add\n      mload\n      dup4\n      dup3\n      add\n      mstore\n      0x20\n      add\n      jump(tag_47)\n    tag_49:\n      pop\n      pop\n      pop\n      pop\n      swap1\n      pop\n      swap1\n      dup2\n      add\n      swap1\n      0x1f\n      and\n      dup1\n      iszero\n      tag_50\n      jumpi\n      dup1\n      dup3\n      sub\n      dup1\n      mload\n      0x01\n      dup4\n      0x20\n      sub\n      0x0100\n      exp\n      sub\n      not\n      and\n      dup2\n      mstore\n      0x20\n      add\n      swap2\n      pop\n    tag_50:\n      pop\n      swap3\n      pop\n      pop\n      pop\n      mload(0x40)\n      dup1\n      swap2\n      sub\n      swap1\n      return\n        /* \"swap/UniswapV2Pair.sol\":1363:1594  function getReserves() public view returns (uint112 _reserve0, uint112 _reserve1, uint32 _blockTimestampLast) {\r... */\n    tag_5:\n      tag_51\n      tag_52\n      jump\t// in\n    tag_51:\n      0x40\n      dup1\n      mload\n      sub(shl(0x70, 0x01), 0x01)\n      swap5\n      dup6\n      and\n      dup2\n      mstore\n      swap3\n      swap1\n      swap4\n      and\n      0x20\n      dup4\n      add\n      mstore\n      0xffffffff\n      and\n      dup2\n      dup4\n      add\n      mstore\n      swap1\n      mload\n      swap1\n      dup2\n      swap1\n      sub\n      0x60\n      add\n      swap1\n      return\n        /* \"swap/UniswapV2ERC20.sol\":2222:2369  function approve(address spender, uint value) external returns (bool) {\r... */\n    tag_6:\n      tag_53\n      0x04\n      dup1\n      calldatasize\n      sub\n      0x40\n      dup2\n      lt\n      iszero\n      tag_54\n      jumpi\n      0x00\n      dup1\n      revert\n    tag_54:\n      pop\n      sub(shl(0xa0, 0x01), 0x01)\n      dup2\n      calldataload\n      and\n      swap1\n      0x20\n      add\n      calldataload\n      tag_55\n      jump\t// in\n    tag_53:\n      0x40\n      dup1\n      mload\n      swap2\n      iszero\n      iszero\n      dup3\n      mstore\n      mload\n      swap1\n      dup2\n      swap1\n      sub\n      0x20\n      add\n      swap1\n      return\n        /* \"swap/UniswapV2Pair.sol\":597:618  address public token0 */\n    tag_7:\n      tag_56\n      tag_57\n      jump\t// in\n    tag_56:\n      0x40\n      dup1\n      mload\n      sub(shl(0xa0, 0x01), 0x01)\n      swap1\n      swap3\n      and\n      dup3\n      mstore\n      mload\n      swap1\n      dup2\n      swap1\n      sub\n      0x20\n      add\n      swap1\n      return\n        /* \"swap/UniswapV2ERC20.sol\":311:335  uint  public totalSupply */\n    tag_8:\n      tag_58\n      tag_59\n      jump\t// in\n    tag_58:\n      0x40\n      dup1\n      mload\n      swap2\n      dup3\n      mstore\n      mload\n      swap1\n      dup2\n      swap1\n      sub\n      0x20\n      add\n      swap1\n      return\n        /* \"swap/UniswapV2ERC20.sol\":2524:2825  function transferFrom(address from, address to, uint value) external returns (bool) {\r... */\n    tag_9:\n      tag_53\n      0x04\n      dup1\n      calldatasize\n      sub\n      0x60\n      dup2\n      lt\n      iszero\n      tag_61\n      jumpi\n      0x00\n      dup1\n      revert\n    tag_61:\n      pop\n      sub(shl(0xa0, 0x01), 0x01)\n      dup2\n      calldataload\n      dup2\n      and\n      swap2\n      0x20\n      dup2\n      add\n      calldataload\n      swap1\n      swap2\n      and\n      swap1\n      0x40\n      add\n      calldataload\n      tag_62\n      jump\t// in\n        /* \"swap/UniswapV2ERC20.sol\":603:711  bytes32 public constant PERMIT_TYPEHASH = 0x6e71edae12b1b97f4d1f60370fef10105fa2faae0126114a169c64845d6126c9 */\n    tag_10:\n      tag_58\n      tag_64\n      jump\t// in\n        /* \"swap/UniswapV2ERC20.sol\":269:304  uint8 public constant decimals = 18 */\n    tag_11:\n      tag_65\n      tag_66\n      jump\t// in\n    tag_65:\n      0x40\n      dup1\n      mload\n      0xff\n      swap1\n      swap3\n      and\n      dup3\n      mstore\n      mload\n      swap1\n      dup2\n      swap1\n      sub\n      0x20\n      add\n      swap1\n      return\n        /* \"swap/UniswapV2ERC20.sol\":460:491  bytes32 public DOMAIN_SEPARATOR */\n    tag_12:\n      tag_58\n      tag_68\n      jump\t// in\n        /* \"swap/UniswapV2Pair.sol\":2423:2633  function initialize(address _token0, address _token1) external {\r... */\n    tag_13:\n      tag_39\n      0x04\n      dup1\n      calldatasize\n      sub\n      0x40\n      dup2\n      lt\n      iszero\n      tag_70\n      jumpi\n      0x00\n      dup1\n      revert\n    tag_70:\n      pop\n      sub(shl(0xa0, 0x01), 0x01)\n      dup2\n      calldataload\n      dup2\n      and\n      swap2\n      0x20\n      add\n      calldataload\n      and\n      tag_71\n      jump\t// in\n        /* \"swap/UniswapV2Pair.sol\":1130:1156  uint32 public swapFee = 17 */\n    tag_14:\n      tag_72\n      tag_73\n      jump\t// in\n    tag_72:\n      0x40\n      dup1\n      mload\n      0xffffffff\n      swap1\n      swap3\n      and\n      dup3\n      mstore\n      mload\n      swap1\n      dup2\n      swap1\n      sub\n      0x20\n      add\n      swap1\n      return\n        /* \"swap/UniswapV2Pair.sol\":948:980  uint public price0CumulativeLast */\n    tag_15:\n      tag_58\n      tag_75\n      jump\t// in\n        /* \"swap/UniswapV2Pair.sol\":987:1019  uint public price1CumulativeLast */\n    tag_16:\n      tag_58\n      tag_77\n      jump\t// in\n        /* \"swap/UniswapV2Pair.sol\":4834:6089  function mint(address to) external lock returns (uint liquidity) {\r... */\n    tag_17:\n      tag_58\n      0x04\n      dup1\n      calldatasize\n      sub\n      0x20\n      dup2\n      lt\n      iszero\n      tag_79\n      jumpi\n      0x00\n      dup1\n      revert\n    tag_79:\n      pop\n      calldataload\n      sub(shl(0xa0, 0x01), 0x01)\n      and\n      tag_80\n      jump\t// in\n        /* \"swap/UniswapV2ERC20.sol\":342:383  mapping(address => uint) public balanceOf */\n    tag_18:\n      tag_58\n      0x04\n      dup1\n      calldatasize\n      sub\n      0x20\n      dup2\n      lt\n      iszero\n      tag_82\n      jumpi\n      0x00\n      dup1\n      revert\n    tag_82:\n      pop\n      calldataload\n      sub(shl(0xa0, 0x01), 0x01)\n      and\n      tag_83\n      jump\t// in\n        /* \"swap/UniswapV2Pair.sol\":1026:1043  uint public kLast */\n    tag_19:\n      tag_58\n      tag_85\n      jump\t// in\n        /* \"swap/UniswapV2ERC20.sol\":718:756  mapping(address => uint) public nonces */\n    tag_20:\n      tag_58\n      0x04\n      dup1\n      calldatasize\n      sub\n      0x20\n      dup2\n      lt\n      iszero\n      tag_87\n      jumpi\n      0x00\n      dup1\n      revert\n    tag_87:\n      pop\n      calldataload\n      sub(shl(0xa0, 0x01), 0x01)\n      and\n      tag_88\n      jump\t// in\n        /* \"swap/UniswapV2Pair.sol\":6201:7695  function burn(address to) external lock returns (uint amount0, uint amount1) {\r... */\n    tag_21:\n      tag_89\n      0x04\n      dup1\n      calldatasize\n      sub\n      0x20\n      dup2\n      lt\n      iszero\n      tag_90\n      jumpi\n      0x00\n      dup1\n      revert\n    tag_90:\n      pop\n      calldataload\n      sub(shl(0xa0, 0x01), 0x01)\n      and\n      tag_91\n      jump\t// in\n    tag_89:\n      0x40\n      dup1\n      mload\n      swap3\n      dup4\n      mstore\n      0x20\n      dup4\n      add\n      swap2\n      swap1\n      swap2\n      mstore\n      dup1\n      mload\n      swap2\n      dup3\n      swap1\n      sub\n      add\n      swap1\n      return\n        /* \"swap/UniswapV2ERC20.sol\":223:262  string public constant symbol = 'TSWAP' */\n    tag_22:\n      tag_45\n      tag_93\n      jump\t// in\n        /* \"swap/UniswapV2ERC20.sol\":2377:2516  function transfer(address to, uint value) external returns (bool) {\r... */\n    tag_23:\n      tag_53\n      0x04\n      dup1\n      calldatasize\n      sub\n      0x40\n      dup2\n      lt\n      iszero\n      tag_99\n      jumpi\n      0x00\n      dup1\n      revert\n    tag_99:\n      pop\n      sub(shl(0xa0, 0x01), 0x01)\n      dup2\n      calldataload\n      and\n      swap1\n      0x20\n      add\n      calldataload\n      tag_100\n      jump\t// in\n        /* \"swap/UniswapV2Pair.sol\":418:464  uint public constant MINIMUM_LIQUIDITY = 10**3 */\n    tag_24:\n      tag_58\n      tag_102\n      jump\t// in\n        /* \"swap/UniswapV2Pair.sol\":9814:10162  function skim(address to) external lock {\r... */\n    tag_25:\n      tag_39\n      0x04\n      dup1\n      calldatasize\n      sub\n      0x20\n      dup2\n      lt\n      iszero\n      tag_104\n      jumpi\n      0x00\n      dup1\n      revert\n    tag_104:\n      pop\n      calldataload\n      sub(shl(0xa0, 0x01), 0x01)\n      and\n      tag_105\n      jump\t// in\n        /* \"swap/UniswapV2Pair.sol\":568:590  address public factory */\n    tag_26:\n      tag_56\n      tag_107\n      jump\t// in\n        /* \"swap/UniswapV2Pair.sol\":625:646  address public token1 */\n    tag_27:\n      tag_56\n      tag_109\n      jump\t// in\n        /* \"swap/UniswapV2ERC20.sol\":2833:3507  function permit(address owner, address spender, uint value, uint deadline, uint8 v, bytes32 r, bytes32 s) external {\r... */\n    tag_28:\n      tag_39\n      0x04\n      dup1\n      calldatasize\n      sub\n      0xe0\n      dup2\n      lt\n      iszero\n      tag_111\n      jumpi\n      0x00\n      dup1\n      revert\n    tag_111:\n      pop\n      sub(shl(0xa0, 0x01), 0x01)\n      dup2\n      calldataload\n      dup2\n      and\n      swap2\n      0x20\n      dup2\n      add\n      calldataload\n      swap1\n      swap2\n      and\n      swap1\n      0x40\n      dup2\n      add\n      calldataload\n      swap1\n      0x60\n      dup2\n      add\n      calldataload\n      swap1\n      0xff\n      0x80\n      dup3\n      add\n      calldataload\n      and\n      swap1\n      0xa0\n      dup2\n      add\n      calldataload\n      swap1\n      0xc0\n      add\n      calldataload\n      tag_112\n      jump\t// in\n        /* \"swap/UniswapV2Pair.sol\":2641:2918  function setSwapFee(uint32 _swapFee) external {\r... */\n    tag_29:\n      tag_39\n      0x04\n      dup1\n      calldatasize\n      sub\n      0x20\n      dup2\n      lt\n      iszero\n      tag_114\n      jumpi\n      0x00\n      dup1\n      revert\n    tag_114:\n      pop\n      calldataload\n      0xffffffff\n      and\n      tag_115\n      jump\t// in\n        /* \"swap/UniswapV2ERC20.sol\":390:451  mapping(address => mapping(address => uint)) public allowance */\n    tag_30:\n      tag_58\n      0x04\n      dup1\n      calldatasize\n      sub\n      0x40\n      dup2\n      lt\n      iszero\n      tag_117\n      jumpi\n      0x00\n      dup1\n      revert\n    tag_117:\n      pop\n      sub(shl(0xa0, 0x01), 0x01)\n      dup2\n      calldataload\n      dup2\n      and\n      swap2\n      0x20\n      add\n      calldataload\n      and\n      tag_118\n      jump\t// in\n        /* \"swap/UniswapV2Pair.sol\":10211:10383  function sync() external lock {\r... */\n    tag_31:\n      tag_39\n      tag_120\n      jump\t// in\n        /* \"swap/UniswapV2Pair.sol\":7807:9765  function swap(uint amount0Out, uint amount1Out, address to, bytes calldata data) external lock {\r... */\n    tag_44:\n        /* \"swap/UniswapV2Pair.sol\":1254:1262  unlocked */\n      sload(0x0d)\n        /* \"swap/UniswapV2Pair.sol\":1266:1267  1 */\n      0x01\n        /* \"swap/UniswapV2Pair.sol\":1254:1267  unlocked == 1 */\n      eq\n        /* \"swap/UniswapV2Pair.sol\":1246:1289  require(unlocked == 1, 'UniswapV2: LOCKED') */\n      tag_122\n      jumpi\n      0x40\n      dup1\n      mload\n      shl(0xe5, 0x461bcd)\n      dup2\n      mstore\n      0x20\n      0x04\n      dup3\n      add\n      mstore\n      0x11\n      0x24\n      dup3\n      add\n      mstore\n      shl(0x7a, 0x155b9a5cddd85c158c8e881313d0d2d151)\n      0x44\n      dup3\n      add\n      mstore\n      swap1\n      mload\n      swap1\n      dup2\n      swap1\n      sub\n      0x64\n      add\n      swap1\n      revert\n    tag_122:\n        /* \"swap/UniswapV2Pair.sol\":1311:1312  0 */\n      0x00\n        /* \"swap/UniswapV2Pair.sol\":1300:1308  unlocked */\n      0x0d\n        /* \"swap/UniswapV2Pair.sol\":1300:1312  unlocked = 0 */\n      sstore\n        /* \"swap/UniswapV2Pair.sol\":7921:7935  amount0Out > 0 */\n      dup5\n      iszero\n      iszero\n      dup1\n        /* \"swap/UniswapV2Pair.sol\":7921:7953  amount0Out > 0 || amount1Out > 0 */\n      tag_124\n      jumpi\n      pop\n        /* \"swap/UniswapV2Pair.sol\":7952:7953  0 */\n      0x00\n        /* \"swap/UniswapV2Pair.sol\":7939:7949  amount1Out */\n      dup5\n        /* \"swap/UniswapV2Pair.sol\":7939:7953  amount1Out > 0 */\n      gt\n        /* \"swap/UniswapV2Pair.sol\":7921:7953  amount0Out > 0 || amount1Out > 0 */\n    tag_124:\n        /* \"swap/UniswapV2Pair.sol\":7913:7995  require(amount0Out > 0 || amount1Out > 0, 'UniswapV2: INSUFFICIENT_OUTPUT_AMOUNT') */\n      tag_125\n      jumpi\n      mload(0x40)\n      shl(0xe5, 0x461bcd)\n      dup2\n      mstore\n      0x04\n      add\n      dup1\n      dup1\n      0x20\n      add\n      dup3\n      dup2\n      sub\n      dup3\n      mstore\n      0x25\n      dup2\n      mstore\n      0x20\n      add\n      dup1\n      data_05339493da7e2cbe77e17beadf6b91132eb307939495f5f1797bf88d95539e83\n      0x25\n      swap2\n      codecopy\n      0x40\n      add\n      swap2\n      pop\n      pop\n      mload(0x40)\n      dup1\n      swap2\n      sub\n      swap1\n      revert\n    tag_125:\n        /* \"swap/UniswapV2Pair.sol\":8007:8024  uint112 _reserve0 */\n      0x00\n        /* \"swap/UniswapV2Pair.sol\":8026:8043  uint112 _reserve1 */\n      dup1\n        /* \"swap/UniswapV2Pair.sol\":8048:8061  getReserves() */\n      tag_126\n        /* \"swap/UniswapV2Pair.sol\":8048:8059  getReserves */\n      tag_52\n        /* \"swap/UniswapV2Pair.sol\":8048:8061  getReserves() */\n      jump\t// in\n    tag_126:\n        /* \"swap/UniswapV2Pair.sol\":8006:8061  (uint112 _reserve0, uint112 _reserve1,) = getReserves() */\n      pop\n      swap2\n      pop\n      swap2\n      pop\n        /* \"swap/UniswapV2Pair.sol\":8108:8117  _reserve0 */\n      dup2\n      sub(shl(0x70, 0x01), 0x01)\n        /* \"swap/UniswapV2Pair.sol\":8095:8117  amount0Out < _reserve0 */\n      and\n        /* \"swap/UniswapV2Pair.sol\":8095:8105  amount0Out */\n      dup8\n        /* \"swap/UniswapV2Pair.sol\":8095:8117  amount0Out < _reserve0 */\n      lt\n        /* \"swap/UniswapV2Pair.sol\":8095:8143  amount0Out < _reserve0 && amount1Out < _reserve1 */\n      dup1\n      iszero\n      tag_127\n      jumpi\n      pop\n        /* \"swap/UniswapV2Pair.sol\":8134:8143  _reserve1 */\n      dup1\n      sub(shl(0x70, 0x01), 0x01)\n        /* \"swap/UniswapV2Pair.sol\":8121:8143  amount1Out < _reserve1 */\n      and\n        /* \"swap/UniswapV2Pair.sol\":8121:8131  amount1Out */\n      dup7\n        /* \"swap/UniswapV2Pair.sol\":8121:8143  amount1Out < _reserve1 */\n      lt\n        /* \"swap/UniswapV2Pair.sol\":8095:8143  amount0Out < _reserve0 && amount1Out < _reserve1 */\n    tag_127:\n        /* \"swap/UniswapV2Pair.sol\":8087:8181  require(amount0Out < _reserve0 && amount1Out < _reserve1, 'UniswapV2: INSUFFICIENT_LIQUIDITY') */\n      tag_128\n      jumpi\n      mload(0x40)\n      shl(0xe5, 0x461bcd)\n      dup2\n      mstore\n      0x04\n      add\n      dup1\n      dup1\n      0x20\n      add\n      dup3\n      dup2\n      sub\n      dup3\n      mstore\n      0x21\n      dup2\n      mstore\n      0x20\n      add\n      dup1\n      data_3f354ef449b2a9b081220ce21f57691008110b653edc191d8288e60cef58bb5f\n      0x21\n      swap2\n      codecopy\n      0x40\n      add\n      swap2\n      pop\n      pop\n      mload(0x40)\n      dup1\n      swap2\n      sub\n      swap1\n      revert\n    tag_128:\n        /* \"swap/UniswapV2Pair.sol\":8326:8332  token0 */\n      sload(0x06)\n        /* \"swap/UniswapV2Pair.sol\":8361:8367  token1 */\n      sload(0x07)\n        /* \"swap/UniswapV2Pair.sol\":8194:8207  uint balance0 */\n      0x00\n      swap2\n      dup3\n      swap2\n      sub(shl(0xa0, 0x01), 0x01)\n        /* \"swap/UniswapV2Pair.sol\":8326:8332  token0 */\n      swap2\n      dup3\n      and\n      swap2\n        /* \"swap/UniswapV2Pair.sol\":8361:8367  token1 */\n      swap1\n      dup2\n      and\n      swap1\n        /* \"swap/UniswapV2Pair.sol\":8386:8399  to != _token0 */\n      dup10\n      and\n      dup3\n      eq\n      dup1\n      iszero\n      swap1\n        /* \"swap/UniswapV2Pair.sol\":8386:8416  to != _token0 && to != _token1 */\n      tag_129\n      jumpi\n      pop\n        /* \"swap/UniswapV2Pair.sol\":8409:8416  _token1 */\n      dup1\n      sub(shl(0xa0, 0x01), 0x01)\n        /* \"swap/UniswapV2Pair.sol\":8403:8416  to != _token1 */\n      and\n        /* \"swap/UniswapV2Pair.sol\":8403:8405  to */\n      dup10\n      sub(shl(0xa0, 0x01), 0x01)\n        /* \"swap/UniswapV2Pair.sol\":8403:8416  to != _token1 */\n      and\n      eq\n      iszero\n        /* \"swap/UniswapV2Pair.sol\":8386:8416  to != _token0 && to != _token1 */\n    tag_129:\n        /* \"swap/UniswapV2Pair.sol\":8378:8442  require(to != _token0 && to != _token1, 'UniswapV2: INVALID_TO') */\n      tag_130\n      jumpi\n      0x40\n      dup1\n      mload\n      shl(0xe5, 0x461bcd)\n      dup2\n      mstore\n      0x20\n      0x04\n      dup3\n      add\n      mstore\n      0x15\n      0x24\n      dup3\n      add\n      mstore\n      shl(0x58, 0x556e697377617056323a20494e56414c49445f544f)\n      0x44\n      dup3\n      add\n      mstore\n      swap1\n      mload\n      swap1\n      dup2\n      swap1\n      sub\n      0x64\n      add\n      swap1\n      revert\n    tag_130:\n        /* \"swap/UniswapV2Pair.sol\":8457:8471  amount0Out > 0 */\n      dup11\n      iszero\n        /* \"swap/UniswapV2Pair.sol\":8453:8511  if (amount0Out > 0) _safeTransfer(_token0, to, amount0Out) */\n      tag_132\n      jumpi\n        /* \"swap/UniswapV2Pair.sol\":8473:8511  _safeTransfer(_token0, to, amount0Out) */\n      tag_132\n        /* \"swap/UniswapV2Pair.sol\":8487:8494  _token0 */\n      dup3\n        /* \"swap/UniswapV2Pair.sol\":8496:8498  to */\n      dup11\n        /* \"swap/UniswapV2Pair.sol\":8500:8510  amount0Out */\n      dup14\n        /* \"swap/UniswapV2Pair.sol\":8473:8486  _safeTransfer */\n      tag_133\n        /* \"swap/UniswapV2Pair.sol\":8473:8511  _safeTransfer(_token0, to, amount0Out) */\n      jump\t// in\n    tag_132:\n        /* \"swap/UniswapV2Pair.sol\":8560:8574  amount1Out > 0 */\n      dup10\n      iszero\n        /* \"swap/UniswapV2Pair.sol\":8556:8614  if (amount1Out > 0) _safeTransfer(_token1, to, amount1Out) */\n      tag_135\n      jumpi\n        /* \"swap/UniswapV2Pair.sol\":8576:8614  _safeTransfer(_token1, to, amount1Out) */\n      tag_135\n        /* \"swap/UniswapV2Pair.sol\":8590:8597  _token1 */\n      dup2\n        /* \"swap/UniswapV2Pair.sol\":8599:8601  to */\n      dup11\n        /* \"swap/UniswapV2Pair.sol\":8603:8613  amount1Out */\n      dup13\n        /* \"swap/UniswapV2Pair.sol\":8576:8589  _safeTransfer */\n      tag_133\n        /* \"swap/UniswapV2Pair.sol\":8576:8614  _safeTransfer(_token1, to, amount1Out) */\n      jump\t// in\n    tag_135:\n        /* \"swap/UniswapV2Pair.sol\":8663:8678  data.length > 0 */\n      dup7\n      iszero\n        /* \"swap/UniswapV2Pair.sol\":8659:8756  if (data.length > 0) IUniswapV2Callee(to).uniswapV2Call(msg.sender, amount0Out, amount1Out, data) */\n      tag_136\n      jumpi\n        /* \"swap/UniswapV2Pair.sol\":8697:8699  to */\n      dup9\n      sub(shl(0xa0, 0x01), 0x01)\n        /* \"swap/UniswapV2Pair.sol\":8680:8714  IUniswapV2Callee(to).uniswapV2Call */\n      and\n      0x10d1e85c\n        /* \"swap/UniswapV2Pair.sol\":8715:8725  msg.sender */\n      caller\n        /* \"swap/UniswapV2Pair.sol\":8727:8737  amount0Out */\n      dup14\n        /* \"swap/UniswapV2Pair.sol\":8739:8749  amount1Out */\n      dup14\n        /* \"swap/UniswapV2Pair.sol\":8751:8755  data */\n      dup13\n      dup13\n        /* \"swap/UniswapV2Pair.sol\":8680:8756  IUniswapV2Callee(to).uniswapV2Call(msg.sender, amount0Out, amount1Out, data) */\n      mload(0x40)\n      dup7\n      0xffffffff\n      and\n      0xe0\n      shl\n      dup2\n      mstore\n      0x04\n      add\n      dup1\n      dup7\n      sub(shl(0xa0, 0x01), 0x01)\n      and\n      dup2\n      mstore\n      0x20\n      add\n      dup6\n      dup2\n      mstore\n      0x20\n      add\n      dup5\n      dup2\n      mstore\n      0x20\n      add\n      dup1\n      0x20\n      add\n      dup3\n      dup2\n      sub\n      dup3\n      mstore\n      dup5\n      dup5\n      dup3\n      dup2\n      dup2\n      mstore\n      0x20\n      add\n      swap3\n      pop\n      dup1\n      dup3\n      dup5\n      calldatacopy\n      0x00\n      dup2\n      dup5\n      add\n      mstore\n      not(0x1f)\n      0x1f\n      dup3\n      add\n      and\n      swap1\n      pop\n      dup1\n      dup4\n      add\n      swap3\n      pop\n      pop\n      pop\n      swap7\n      pop\n      pop\n      pop\n      pop\n      pop\n      pop\n      pop\n      0x00\n      mload(0x40)\n      dup1\n      dup4\n      sub\n      dup2\n      0x00\n      dup8\n      dup1\n      extcodesize\n      iszero\n      dup1\n      iszero\n      tag_137\n      jumpi\n      0x00\n      dup1\n      revert\n    tag_137:\n      pop\n      gas\n      call\n      iszero\n      dup1\n      iszero\n      tag_139\n      jumpi\n      returndatasize\n      0x00\n      dup1\n      returndatacopy\n      revert(0x00, returndatasize)\n    tag_139:\n      pop\n      pop\n      pop\n      pop\n        /* \"swap/UniswapV2Pair.sol\":8659:8756  if (data.length > 0) IUniswapV2Callee(to).uniswapV2Call(msg.sender, amount0Out, amount1Out, data) */\n    tag_136:\n        /* \"swap/UniswapV2Pair.sol\":8778:8825  IERC20Uniswap(_token0).balanceOf(address(this)) */\n      0x40\n      dup1\n      mload\n      shl(0xe0, 0x70a08231)\n      dup2\n      mstore\n        /* \"swap/UniswapV2Pair.sol\":8819:8823  this */\n      address\n        /* \"swap/UniswapV2Pair.sol\":8778:8825  IERC20Uniswap(_token0).balanceOf(address(this)) */\n      0x04\n      dup3\n      add\n      mstore\n      swap1\n      mload\n      sub(shl(0xa0, 0x01), 0x01)\n        /* \"swap/UniswapV2Pair.sol\":8778:8810  IERC20Uniswap(_token0).balanceOf */\n      dup5\n      and\n      swap2\n      0x70a08231\n      swap2\n        /* \"swap/UniswapV2Pair.sol\":8778:8825  IERC20Uniswap(_token0).balanceOf(address(this)) */\n      0x24\n      dup1\n      dup4\n      add\n      swap3\n      0x20\n      swap3\n      swap2\n      swap1\n      dup3\n      swap1\n      sub\n      add\n      dup2\n        /* \"swap/UniswapV2Pair.sol\":8778:8810  IERC20Uniswap(_token0).balanceOf */\n      dup7\n        /* \"swap/UniswapV2Pair.sol\":8778:8825  IERC20Uniswap(_token0).balanceOf(address(this)) */\n      dup1\n      extcodesize\n      iszero\n      dup1\n      iszero\n      tag_140\n      jumpi\n      0x00\n      dup1\n      revert\n    tag_140:\n      pop\n      gas\n      staticcall\n      iszero\n      dup1\n      iszero\n      tag_142\n      jumpi\n      returndatasize\n      0x00\n      dup1\n      returndatacopy\n      revert(0x00, returndatasize)\n    tag_142:\n      pop\n      pop\n      pop\n      pop\n      mload(0x40)\n      returndatasize\n      0x20\n      dup2\n      lt\n      iszero\n      tag_143\n      jumpi\n      0x00\n      dup1\n      revert\n    tag_143:\n      pop\n      mload\n        /* \"swap/UniswapV2Pair.sol\":8847:8894  IERC20Uniswap(_token1).balanceOf(address(this)) */\n      0x40\n      dup1\n      mload\n      shl(0xe0, 0x70a08231)\n      dup2\n      mstore\n        /* \"swap/UniswapV2Pair.sol\":8888:8892  this */\n      address\n        /* \"swap/UniswapV2Pair.sol\":8847:8894  IERC20Uniswap(_token1).balanceOf(address(this)) */\n      0x04\n      dup3\n      add\n      mstore\n      swap1\n      mload\n        /* \"swap/UniswapV2Pair.sol\":8778:8825  IERC20Uniswap(_token0).balanceOf(address(this)) */\n      swap2\n      swap6\n      pop\n      sub(shl(0xa0, 0x01), 0x01)\n        /* \"swap/UniswapV2Pair.sol\":8847:8879  IERC20Uniswap(_token1).balanceOf */\n      dup4\n      and\n      swap2\n      0x70a08231\n      swap2\n        /* \"swap/UniswapV2Pair.sol\":8847:8894  IERC20Uniswap(_token1).balanceOf(address(this)) */\n      0x24\n      dup1\n      dup3\n      add\n      swap3\n        /* \"swap/UniswapV2Pair.sol\":8778:8825  IERC20Uniswap(_token0).balanceOf(address(this)) */\n      0x20\n      swap3\n        /* \"swap/UniswapV2Pair.sol\":8847:8894  IERC20Uniswap(_token1).balanceOf(address(this)) */\n      swap1\n      swap2\n      swap1\n      dup3\n      swap1\n      sub\n      add\n      dup2\n        /* \"swap/UniswapV2Pair.sol\":8847:8879  IERC20Uniswap(_token1).balanceOf */\n      dup7\n        /* \"swap/UniswapV2Pair.sol\":8847:8894  IERC20Uniswap(_token1).balanceOf(address(this)) */\n      dup1\n      extcodesize\n      iszero\n      dup1\n      iszero\n      tag_144\n      jumpi\n      0x00\n      dup1\n      revert\n    tag_144:\n      pop\n      gas\n      staticcall\n      iszero\n      dup1\n      iszero\n      tag_146\n      jumpi\n      returndatasize\n      0x00\n      dup1\n      returndatacopy\n      revert(0x00, returndatasize)\n    tag_146:\n      pop\n      pop\n      pop\n      pop\n      mload(0x40)\n      returndatasize\n      0x20\n      dup2\n      lt\n      iszero\n      tag_147\n      jumpi\n      0x00\n      dup1\n      revert\n    tag_147:\n      pop\n      mload\n      swap3\n      pop\n        /* \"swap/UniswapV2Pair.sol\":8916:8930  uint amount0In */\n      0x00\n      swap2\n      pop\n      pop\n      sub(shl(0x70, 0x01), 0x01)\n        /* \"swap/UniswapV2Pair.sol\":8944:8966  _reserve0 - amount0Out */\n      dup6\n      and\n      dup11\n      swap1\n      sub\n        /* \"swap/UniswapV2Pair.sol\":8933:8966  balance0 > _reserve0 - amount0Out */\n      dup4\n      gt\n        /* \"swap/UniswapV2Pair.sol\":8933:9008  balance0 > _reserve0 - amount0Out ? balance0 - (_reserve0 - amount0Out) : 0 */\n      tag_148\n      jumpi\n        /* \"swap/UniswapV2Pair.sol\":9007:9008  0 */\n      0x00\n        /* \"swap/UniswapV2Pair.sol\":8933:9008  balance0 > _reserve0 - amount0Out ? balance0 - (_reserve0 - amount0Out) : 0 */\n      jump(tag_149)\n    tag_148:\n        /* \"swap/UniswapV2Pair.sol\":8993:9003  amount0Out */\n      dup10\n        /* \"swap/UniswapV2Pair.sol\":8981:8990  _reserve0 */\n      dup6\n      sub(shl(0x70, 0x01), 0x01)\n        /* \"swap/UniswapV2Pair.sol\":8981:9003  _reserve0 - amount0Out */\n      and\n      sub\n        /* \"swap/UniswapV2Pair.sol\":8969:8977  balance0 */\n      dup4\n        /* \"swap/UniswapV2Pair.sol\":8969:9004  balance0 - (_reserve0 - amount0Out) */\n      sub\n        /* \"swap/UniswapV2Pair.sol\":8933:9008  balance0 > _reserve0 - amount0Out ? balance0 - (_reserve0 - amount0Out) : 0 */\n    tag_149:\n        /* \"swap/UniswapV2Pair.sol\":8916:9008  uint amount0In = balance0 > _reserve0 - amount0Out ? balance0 - (_reserve0 - amount0Out) : 0 */\n      swap1\n      pop\n        /* \"swap/UniswapV2Pair.sol\":9019:9033  uint amount1In */\n      0x00\n        /* \"swap/UniswapV2Pair.sol\":9059:9069  amount1Out */\n      dup10\n        /* \"swap/UniswapV2Pair.sol\":9047:9056  _reserve1 */\n      dup6\n      sub(shl(0x70, 0x01), 0x01)\n        /* \"swap/UniswapV2Pair.sol\":9047:9069  _reserve1 - amount1Out */\n      and\n      sub\n        /* \"swap/UniswapV2Pair.sol\":9036:9044  balance1 */\n      dup4\n        /* \"swap/UniswapV2Pair.sol\":9036:9069  balance1 > _reserve1 - amount1Out */\n      gt\n        /* \"swap/UniswapV2Pair.sol\":9036:9111  balance1 > _reserve1 - amount1Out ? balance1 - (_reserve1 - amount1Out) : 0 */\n      tag_150\n      jumpi\n        /* \"swap/UniswapV2Pair.sol\":9110:9111  0 */\n      0x00\n        /* \"swap/UniswapV2Pair.sol\":9036:9111  balance1 > _reserve1 - amount1Out ? balance1 - (_reserve1 - amount1Out) : 0 */\n      jump(tag_151)\n    tag_150:\n        /* \"swap/UniswapV2Pair.sol\":9096:9106  amount1Out */\n      dup10\n        /* \"swap/UniswapV2Pair.sol\":9084:9093  _reserve1 */\n      dup6\n      sub(shl(0x70, 0x01), 0x01)\n        /* \"swap/UniswapV2Pair.sol\":9084:9106  _reserve1 - amount1Out */\n      and\n      sub\n        /* \"swap/UniswapV2Pair.sol\":9072:9080  balance1 */\n      dup4\n        /* \"swap/UniswapV2Pair.sol\":9072:9107  balance1 - (_reserve1 - amount1Out) */\n      sub\n        /* \"swap/UniswapV2Pair.sol\":9036:9111  balance1 > _reserve1 - amount1Out ? balance1 - (_reserve1 - amount1Out) : 0 */\n    tag_151:\n        /* \"swap/UniswapV2Pair.sol\":9019:9111  uint amount1In = balance1 > _reserve1 - amount1Out ? balance1 - (_reserve1 - amount1Out) : 0 */\n      swap1\n      pop\n        /* \"swap/UniswapV2Pair.sol\":9142:9143  0 */\n      0x00\n        /* \"swap/UniswapV2Pair.sol\":9130:9139  amount0In */\n      dup3\n        /* \"swap/UniswapV2Pair.sol\":9130:9143  amount0In > 0 */\n      gt\n        /* \"swap/UniswapV2Pair.sol\":9130:9160  amount0In > 0 || amount1In > 0 */\n      dup1\n      tag_152\n      jumpi\n      pop\n        /* \"swap/UniswapV2Pair.sol\":9159:9160  0 */\n      0x00\n        /* \"swap/UniswapV2Pair.sol\":9147:9156  amount1In */\n      dup2\n        /* \"swap/UniswapV2Pair.sol\":9147:9160  amount1In > 0 */\n      gt\n        /* \"swap/UniswapV2Pair.sol\":9130:9160  amount0In > 0 || amount1In > 0 */\n    tag_152:\n        /* \"swap/UniswapV2Pair.sol\":9122:9201  require(amount0In > 0 || amount1In > 0, 'UniswapV2: INSUFFICIENT_INPUT_AMOUNT') */\n      tag_153\n      jumpi\n      mload(0x40)\n      shl(0xe5, 0x461bcd)\n      dup2\n      mstore\n      0x04\n      add\n      dup1\n      dup1\n      0x20\n      add\n      dup3\n      dup2\n      sub\n      dup3\n      mstore\n      0x24\n      dup2\n      mstore\n      0x20\n      add\n      dup1\n      data_10e2efc32d8a31d3b2c11a545b3ed09c2dbabc58ef6de4033929d0002e425b67\n      0x24\n      swap2\n      codecopy\n      0x40\n      add\n      swap2\n      pop\n      pop\n      mload(0x40)\n      dup1\n      swap2\n      sub\n      swap1\n      revert\n    tag_153:\n        /* \"swap/UniswapV2Pair.sol\":9303:9310  swapFee */\n      sload(0x0c)\n      0xffffffff\n      swap1\n      dup2\n      and\n      swap1\n        /* \"swap/UniswapV2Pair.sol\":9287:9300  uint _swapFee */\n      0x00\n      swap1\n        /* \"swap/UniswapV2Pair.sol\":9346:9394  balance0.mul(10000).sub(amount0In.mul(_swapFee)) */\n      tag_154\n      swap1\n        /* \"swap/UniswapV2Pair.sol\":9370:9393  amount0In.mul(_swapFee) */\n      tag_155\n      swap1\n        /* \"swap/UniswapV2Pair.sol\":9370:9379  amount0In */\n      dup7\n      swap1\n        /* \"swap/UniswapV2Pair.sol\":9303:9310  swapFee */\n      dup6\n      swap1\n        /* \"swap/UniswapV2Pair.sol\":9370:9383  amount0In.mul */\n      tag_156\n        /* \"swap/UniswapV2Pair.sol\":9370:9393  amount0In.mul(_swapFee) */\n      and\n      jump\t// in\n    tag_155:\n        /* \"swap/UniswapV2Pair.sol\":9346:9365  balance0.mul(10000) */\n      tag_157\n        /* \"swap/UniswapV2Pair.sol\":9346:9354  balance0 */\n      dup9\n        /* \"swap/UniswapV2Pair.sol\":9359:9364  10000 */\n      0x2710\n        /* \"swap/UniswapV2Pair.sol\":9346:9358  balance0.mul */\n      tag_156\n        /* \"swap/UniswapV2Pair.sol\":9346:9365  balance0.mul(10000) */\n      jump\t// in\n    tag_157:\n        /* \"swap/UniswapV2Pair.sol\":9346:9369  balance0.mul(10000).sub */\n      swap1\n      tag_158\n        /* \"swap/UniswapV2Pair.sol\":9346:9394  balance0.mul(10000).sub(amount0In.mul(_swapFee)) */\n      jump\t// in\n    tag_154:\n        /* \"swap/UniswapV2Pair.sol\":9321:9395  uint balance0Adjusted = (balance0.mul(10000).sub(amount0In.mul(_swapFee))) */\n      swap1\n      pop\n        /* \"swap/UniswapV2Pair.sol\":9406:9427  uint balance1Adjusted */\n      0x00\n        /* \"swap/UniswapV2Pair.sol\":9431:9479  balance1.mul(10000).sub(amount1In.mul(_swapFee)) */\n      tag_159\n        /* \"swap/UniswapV2Pair.sol\":9455:9478  amount1In.mul(_swapFee) */\n      tag_155\n        /* \"swap/UniswapV2Pair.sol\":9455:9464  amount1In */\n      dup6\n        /* \"swap/UniswapV2Pair.sol\":9469:9477  _swapFee */\n      dup6\n        /* \"swap/UniswapV2Pair.sol\":9455:9468  amount1In.mul */\n      tag_156\n        /* \"swap/UniswapV2Pair.sol\":9455:9478  amount1In.mul(_swapFee) */\n      jump\t// in\n        /* \"swap/UniswapV2Pair.sol\":9431:9479  balance1.mul(10000).sub(amount1In.mul(_swapFee)) */\n    tag_159:\n        /* \"swap/UniswapV2Pair.sol\":9406:9480  uint balance1Adjusted = (balance1.mul(10000).sub(amount1In.mul(_swapFee))) */\n      swap1\n      pop\n        /* \"swap/UniswapV2Pair.sol\":9541:9585  uint(_reserve0).mul(_reserve1).mul(10000**2) */\n      tag_162\n        /* \"swap/UniswapV2Pair.sol\":9576:9584  10000**2 */\n      0x05f5e100\n        /* \"swap/UniswapV2Pair.sol\":9541:9571  uint(_reserve0).mul(_reserve1) */\n      tag_163\n      sub(shl(0x70, 0x01), 0x01)\n        /* \"swap/UniswapV2Pair.sol\":9541:9556  uint(_reserve0) */\n      dup13\n      dup2\n      and\n      swap1\n        /* \"swap/UniswapV2Pair.sol\":9541:9571  uint(_reserve0).mul(_reserve1) */\n      dup13\n      and\n        /* \"swap/UniswapV2Pair.sol\":9541:9560  uint(_reserve0).mul */\n      tag_156\n        /* \"swap/UniswapV2Pair.sol\":9541:9571  uint(_reserve0).mul(_reserve1) */\n      jump\t// in\n    tag_163:\n        /* \"swap/UniswapV2Pair.sol\":9541:9575  uint(_reserve0).mul(_reserve1).mul */\n      swap1\n      tag_156\n        /* \"swap/UniswapV2Pair.sol\":9541:9585  uint(_reserve0).mul(_reserve1).mul(10000**2) */\n      jump\t// in\n    tag_162:\n        /* \"swap/UniswapV2Pair.sol\":9499:9537  balance0Adjusted.mul(balance1Adjusted) */\n      tag_164\n        /* \"swap/UniswapV2Pair.sol\":9499:9515  balance0Adjusted */\n      dup4\n        /* \"swap/UniswapV2Pair.sol\":9520:9536  balance1Adjusted */\n      dup4\n        /* \"swap/UniswapV2Pair.sol\":9499:9519  balance0Adjusted.mul */\n      tag_156\n        /* \"swap/UniswapV2Pair.sol\":9499:9537  balance0Adjusted.mul(balance1Adjusted) */\n      jump\t// in\n    tag_164:\n        /* \"swap/UniswapV2Pair.sol\":9499:9585  balance0Adjusted.mul(balance1Adjusted) >= uint(_reserve0).mul(_reserve1).mul(10000**2) */\n      lt\n      iszero\n        /* \"swap/UniswapV2Pair.sol\":9491:9602  require(balance0Adjusted.mul(balance1Adjusted) >= uint(_reserve0).mul(_reserve1).mul(10000**2), 'UniswapV2: K') */\n      tag_165\n      jumpi\n      0x40\n      dup1\n      mload\n      shl(0xe5, 0x461bcd)\n      dup2\n      mstore\n      0x20\n      0x04\n      dup3\n      add\n      mstore\n      0x0c\n      0x24\n      dup3\n      add\n      mstore\n      shl(0xa0, 0x556e697377617056323a204b)\n      0x44\n      dup3\n      add\n      mstore\n      swap1\n      mload\n      swap1\n      dup2\n      swap1\n      sub\n      0x64\n      add\n      swap1\n      revert\n    tag_165:\n        /* \"swap/UniswapV2Pair.sol\":1323:1324  _ */\n      pop\n      pop\n      pop\n        /* \"swap/UniswapV2Pair.sol\":9626:9675  _update(balance0, balance1, _reserve0, _reserve1) */\n      tag_166\n        /* \"swap/UniswapV2Pair.sol\":9634:9642  balance0 */\n      dup5\n        /* \"swap/UniswapV2Pair.sol\":9644:9652  balance1 */\n      dup5\n        /* \"swap/UniswapV2Pair.sol\":9654:9663  _reserve0 */\n      dup9\n        /* \"swap/UniswapV2Pair.sol\":9665:9674  _reserve1 */\n      dup9\n        /* \"swap/UniswapV2Pair.sol\":9626:9633  _update */\n      tag_167\n        /* \"swap/UniswapV2Pair.sol\":9626:9675  _update(balance0, balance1, _reserve0, _reserve1) */\n      jump\t// in\n    tag_166:\n        /* \"swap/UniswapV2Pair.sol\":9691:9757  Swap(msg.sender, amount0In, amount1In, amount0Out, amount1Out, to) */\n      0x40\n      dup1\n      mload\n      dup4\n      dup2\n      mstore\n      0x20\n      dup2\n      add\n      dup4\n      swap1\n      mstore\n      dup1\n      dup3\n      add\n      dup14\n      swap1\n      mstore\n      0x60\n      dup2\n      add\n      dup13\n      swap1\n      mstore\n      swap1\n      mload\n      sub(shl(0xa0, 0x01), 0x01)\n      dup12\n      and\n      swap2\n        /* \"swap/UniswapV2Pair.sol\":9696:9706  msg.sender */\n      caller\n      swap2\n        /* \"swap/UniswapV2Pair.sol\":9691:9757  Swap(msg.sender, amount0In, amount1In, amount0Out, amount1Out, to) */\n      0xd78ad95fa46c994b6551d0da85fc275fe613ce37657fb8d5e3d130840159d822\n      swap2\n      dup2\n      swap1\n      sub\n      0x80\n      add\n      swap1\n      log3\n      pop\n      pop\n        /* \"swap/UniswapV2Pair.sol\":1346:1347  1 */\n      0x01\n        /* \"swap/UniswapV2Pair.sol\":1335:1343  unlocked */\n      0x0d\n        /* \"swap/UniswapV2Pair.sol\":1335:1347  unlocked = 1 */\n      sstore\n      pop\n      pop\n      pop\n      pop\n      pop\n      pop\n      pop\n      pop\n      pop\n        /* \"swap/UniswapV2Pair.sol\":7807:9765  function swap(uint amount0Out, uint amount1Out, address to, bytes calldata data) external lock {\r... */\n      jump\t// out\n        /* \"swap/UniswapV2ERC20.sol\":175:216  string public constant name = 'ThreeSwap' */\n    tag_46:\n      mload(0x40)\n      dup1\n      0x40\n      add\n      0x40\n      mstore\n      dup1\n      0x09\n      dup2\n      mstore\n      0x20\n      add\n      shl(0xbc, 0x054687265655377617)\n      dup2\n      mstore\n      pop\n      dup2\n      jump\t// out\n        /* \"swap/UniswapV2Pair.sol\":1363:1594  function getReserves() public view returns (uint112 _reserve0, uint112 _reserve1, uint32 _blockTimestampLast) {\r... */\n    tag_52:\n        /* \"swap/UniswapV2Pair.sol\":1496:1504  reserve0 */\n      sload(0x08)\n      sub(shl(0x70, 0x01), 0x01)\n      dup1\n      dup3\n      and\n      swap3\n      shl(0x70, 0x01)\n        /* \"swap/UniswapV2Pair.sol\":1527:1535  reserve1 */\n      dup4\n      div\n      swap1\n      swap2\n      and\n      swap2\n      shl(0xe0, 0x01)\n        /* \"swap/UniswapV2Pair.sol\":1568:1586  blockTimestampLast */\n      swap1\n      div\n      0xffffffff\n      and\n      swap1\n        /* \"swap/UniswapV2Pair.sol\":1363:1594  function getReserves() public view returns (uint112 _reserve0, uint112 _reserve1, uint32 _blockTimestampLast) {\r... */\n      jump\t// out\n        /* \"swap/UniswapV2ERC20.sol\":2222:2369  function approve(address spender, uint value) external returns (bool) {\r... */\n    tag_55:\n        /* \"swap/UniswapV2ERC20.sol\":2286:2290  bool */\n      0x00\n        /* \"swap/UniswapV2ERC20.sol\":2303:2339  _approve(msg.sender, spender, value) */\n      tag_170\n        /* \"swap/UniswapV2ERC20.sol\":2312:2322  msg.sender */\n      caller\n        /* \"swap/UniswapV2ERC20.sol\":2324:2331  spender */\n      dup5\n        /* \"swap/UniswapV2ERC20.sol\":2333:2338  value */\n      dup5\n        /* \"swap/UniswapV2ERC20.sol\":2303:2311  _approve */\n      tag_171\n        /* \"swap/UniswapV2ERC20.sol\":2303:2339  _approve(msg.sender, spender, value) */\n      jump\t// in\n    tag_170:\n      pop\n        /* \"swap/UniswapV2ERC20.sol\":2357:2361  true */\n      0x01\n        /* \"swap/UniswapV2ERC20.sol\":2222:2369  function approve(address spender, uint value) external returns (bool) {\r... */\n    tag_169:\n      swap3\n      swap2\n      pop\n      pop\n      jump\t// out\n        /* \"swap/UniswapV2Pair.sol\":597:618  address public token0 */\n    tag_57:\n      and(sub(shl(0xa0, 0x01), 0x01), sload(0x06))\n      dup2\n      jump\t// out\n        /* \"swap/UniswapV2ERC20.sol\":311:335  uint  public totalSupply */\n    tag_59:\n      sload(0x00)\n      dup2\n      jump\t// out\n        /* \"swap/UniswapV2ERC20.sol\":2524:2825  function transferFrom(address from, address to, uint value) external returns (bool) {\r... */\n    tag_62:\n      sub(shl(0xa0, 0x01), 0x01)\n        /* \"swap/UniswapV2ERC20.sol\":2623:2638  allowance[from] */\n      dup4\n      and\n        /* \"swap/UniswapV2ERC20.sol\":2602:2606  bool */\n      0x00\n        /* \"swap/UniswapV2ERC20.sol\":2623:2638  allowance[from] */\n      swap1\n      dup2\n      mstore\n        /* \"swap/UniswapV2ERC20.sol\":2623:2632  allowance */\n      0x02\n        /* \"swap/UniswapV2ERC20.sol\":2623:2638  allowance[from] */\n      0x20\n      swap1\n      dup2\n      mstore\n      0x40\n      dup1\n      dup4\n      keccak256\n        /* \"swap/UniswapV2ERC20.sol\":2639:2649  msg.sender */\n      caller\n        /* \"swap/UniswapV2ERC20.sol\":2623:2650  allowance[from][msg.sender] */\n      dup5\n      mstore\n      swap1\n      swap2\n      mstore\n      dup2\n      keccak256\n      sload\n      not(0x00)\n        /* \"swap/UniswapV2ERC20.sol\":2623:2662  allowance[from][msg.sender] != uint(-1) */\n      eq\n        /* \"swap/UniswapV2ERC20.sol\":2619:2759  if (allowance[from][msg.sender] != uint(-1)) {\r... */\n      tag_173\n      jumpi\n      sub(shl(0xa0, 0x01), 0x01)\n        /* \"swap/UniswapV2ERC20.sol\":2709:2724  allowance[from] */\n      dup5\n      and\n      0x00\n      swap1\n      dup2\n      mstore\n        /* \"swap/UniswapV2ERC20.sol\":2709:2718  allowance */\n      0x02\n        /* \"swap/UniswapV2ERC20.sol\":2709:2724  allowance[from] */\n      0x20\n      swap1\n      dup2\n      mstore\n      0x40\n      dup1\n      dup4\n      keccak256\n        /* \"swap/UniswapV2ERC20.sol\":2725:2735  msg.sender */\n      caller\n        /* \"swap/UniswapV2ERC20.sol\":2709:2736  allowance[from][msg.sender] */\n      dup5\n      mstore\n      swap1\n      swap2\n      mstore\n      swap1\n      keccak256\n      sload\n        /* \"swap/UniswapV2ERC20.sol\":2709:2747  allowance[from][msg.sender].sub(value) */\n      tag_174\n      swap1\n        /* \"swap/UniswapV2ERC20.sol\":2741:2746  value */\n      dup4\n        /* \"swap/UniswapV2ERC20.sol\":2709:2740  allowance[from][msg.sender].sub */\n      tag_158\n        /* \"swap/UniswapV2ERC20.sol\":2709:2747  allowance[from][msg.sender].sub(value) */\n      jump\t// in\n    tag_174:\n      sub(shl(0xa0, 0x01), 0x01)\n        /* \"swap/UniswapV2ERC20.sol\":2679:2694  allowance[from] */\n      dup6\n      and\n      0x00\n      swap1\n      dup2\n      mstore\n        /* \"swap/UniswapV2ERC20.sol\":2679:2688  allowance */\n      0x02\n        /* \"swap/UniswapV2ERC20.sol\":2679:2694  allowance[from] */\n      0x20\n      swap1\n      dup2\n      mstore\n      0x40\n      dup1\n      dup4\n      keccak256\n        /* \"swap/UniswapV2ERC20.sol\":2695:2705  msg.sender */\n      caller\n        /* \"swap/UniswapV2ERC20.sol\":2679:2706  allowance[from][msg.sender] */\n      dup5\n      mstore\n      swap1\n      swap2\n      mstore\n      swap1\n      keccak256\n        /* \"swap/UniswapV2ERC20.sol\":2679:2747  allowance[from][msg.sender] = allowance[from][msg.sender].sub(value) */\n      sstore\n        /* \"swap/UniswapV2ERC20.sol\":2619:2759  if (allowance[from][msg.sender] != uint(-1)) {\r... */\n    tag_173:\n        /* \"swap/UniswapV2ERC20.sol\":2769:2795  _transfer(from, to, value) */\n      tag_175\n        /* \"swap/UniswapV2ERC20.sol\":2779:2783  from */\n      dup5\n        /* \"swap/UniswapV2ERC20.sol\":2785:2787  to */\n      dup5\n        /* \"swap/UniswapV2ERC20.sol\":2789:2794  value */\n      dup5\n        /* \"swap/UniswapV2ERC20.sol\":2769:2778  _transfer */\n      tag_176\n        /* \"swap/UniswapV2ERC20.sol\":2769:2795  _transfer(from, to, value) */\n      jump\t// in\n    tag_175:\n      pop\n        /* \"swap/UniswapV2ERC20.sol\":2813:2817  true */\n      0x01\n        /* \"swap/UniswapV2ERC20.sol\":2524:2825  function transferFrom(address from, address to, uint value) external returns (bool) {\r... */\n      swap4\n      swap3\n      pop\n      pop\n      pop\n      jump\t// out\n        /* \"swap/UniswapV2ERC20.sol\":603:711  bytes32 public constant PERMIT_TYPEHASH = 0x6e71edae12b1b97f4d1f60370fef10105fa2faae0126114a169c64845d6126c9 */\n    tag_64:\n        /* \"swap/UniswapV2ERC20.sol\":645:711  0x6e71edae12b1b97f4d1f60370fef10105fa2faae0126114a169c64845d6126c9 */\n      0x6e71edae12b1b97f4d1f60370fef10105fa2faae0126114a169c64845d6126c9\n        /* \"swap/UniswapV2ERC20.sol\":603:711  bytes32 public constant PERMIT_TYPEHASH = 0x6e71edae12b1b97f4d1f60370fef10105fa2faae0126114a169c64845d6126c9 */\n      dup2\n      jump\t// out\n        /* \"swap/UniswapV2ERC20.sol\":269:304  uint8 public constant decimals = 18 */\n    tag_66:\n        /* \"swap/UniswapV2ERC20.sol\":302:304  18 */\n      0x12\n        /* \"swap/UniswapV2ERC20.sol\":269:304  uint8 public constant decimals = 18 */\n      dup2\n      jump\t// out\n        /* \"swap/UniswapV2ERC20.sol\":460:491  bytes32 public DOMAIN_SEPARATOR */\n    tag_68:\n      sload(0x03)\n      dup2\n      jump\t// out\n        /* \"swap/UniswapV2Pair.sol\":2423:2633  function initialize(address _token0, address _token1) external {\r... */\n    tag_71:\n        /* \"swap/UniswapV2Pair.sol\":2519:2526  factory */\n      and(sub(shl(0xa0, 0x01), 0x01), sload(0x05))\n        /* \"swap/UniswapV2Pair.sol\":2505:2515  msg.sender */\n      caller\n        /* \"swap/UniswapV2Pair.sol\":2505:2526  msg.sender == factory */\n      eq\n        /* \"swap/UniswapV2Pair.sol\":2497:2551  require(msg.sender == factory, 'UniswapV2: FORBIDDEN') */\n      tag_178\n      jumpi\n      0x40\n      dup1\n      mload\n      shl(0xe5, 0x461bcd)\n      dup2\n      mstore\n      0x20\n      0x04\n      dup3\n      add\n      mstore\n      0x14\n      0x24\n      dup3\n      add\n      mstore\n      shl(0x61, 0x2ab734b9bbb0b82b191d102327a92124a22222a7)\n      0x44\n      dup3\n      add\n      mstore\n      swap1\n      mload\n      swap1\n      dup2\n      swap1\n      sub\n      0x64\n      add\n      swap1\n      revert\n    tag_178:\n        /* \"swap/UniswapV2Pair.sol\":2582:2588  token0 */\n      0x06\n        /* \"swap/UniswapV2Pair.sol\":2582:2598  token0 = _token0 */\n      dup1\n      sload\n      sub(shl(0xa0, 0x01), 0x01)\n      swap4\n      dup5\n      and\n      not(sub(shl(0xa0, 0x01), 0x01))\n      swap2\n      dup3\n      and\n      or\n      swap1\n      swap2\n      sstore\n        /* \"swap/UniswapV2Pair.sol\":2609:2615  token1 */\n      0x07\n        /* \"swap/UniswapV2Pair.sol\":2609:2625  token1 = _token1 */\n      dup1\n      sload\n      swap3\n      swap1\n      swap4\n      and\n      swap2\n      and\n      or\n      swap1\n      sstore\n        /* \"swap/UniswapV2Pair.sol\":2423:2633  function initialize(address _token0, address _token1) external {\r... */\n      jump\t// out\n        /* \"swap/UniswapV2Pair.sol\":1130:1156  uint32 public swapFee = 17 */\n    tag_73:\n      and(0xffffffff, sload(0x0c))\n      dup2\n      jump\t// out\n        /* \"swap/UniswapV2Pair.sol\":948:980  uint public price0CumulativeLast */\n    tag_75:\n      sload(0x09)\n      dup2\n      jump\t// out\n        /* \"swap/UniswapV2Pair.sol\":987:1019  uint public price1CumulativeLast */\n    tag_77:\n      sload(0x0a)\n      dup2\n      jump\t// out\n        /* \"swap/UniswapV2Pair.sol\":4834:6089  function mint(address to) external lock returns (uint liquidity) {\r... */\n    tag_80:\n        /* \"swap/UniswapV2Pair.sol\":4883:4897  uint liquidity */\n      0x00\n        /* \"swap/UniswapV2Pair.sol\":1254:1262  unlocked */\n      sload(0x0d)\n        /* \"swap/UniswapV2Pair.sol\":1266:1267  1 */\n      0x01\n        /* \"swap/UniswapV2Pair.sol\":1254:1267  unlocked == 1 */\n      eq\n        /* \"swap/UniswapV2Pair.sol\":1246:1289  require(unlocked == 1, 'UniswapV2: LOCKED') */\n      tag_180\n      jumpi\n      0x40\n      dup1\n      mload\n      shl(0xe5, 0x461bcd)\n      dup2\n      mstore\n      0x20\n      0x04\n      dup3\n      add\n      mstore\n      0x11\n      0x24\n      dup3\n      add\n      mstore\n      shl(0x7a, 0x155b9a5cddd85c158c8e881313d0d2d151)\n      0x44\n      dup3\n      add\n      mstore\n      swap1\n      mload\n      swap1\n      dup2\n      swap1\n      sub\n      0x64\n      add\n      swap1\n      revert\n    tag_180:\n        /* \"swap/UniswapV2Pair.sol\":1311:1312  0 */\n      0x00\n        /* \"swap/UniswapV2Pair.sol\":1300:1308  unlocked */\n      0x0d\n        /* \"swap/UniswapV2Pair.sol\":1300:1312  unlocked = 0 */\n      dup2\n      swap1\n      sstore\n        /* \"swap/UniswapV2Pair.sol\":1311:1312  0 */\n      dup1\n        /* \"swap/UniswapV2Pair.sol\":4952:4965  getReserves() */\n      tag_182\n        /* \"swap/UniswapV2Pair.sol\":4952:4963  getReserves */\n      tag_52\n        /* \"swap/UniswapV2Pair.sol\":4952:4965  getReserves() */\n      jump\t// in\n    tag_182:\n      pop\n        /* \"swap/UniswapV2Pair.sol\":5021:5027  token0 */\n      sload(0x06)\n        /* \"swap/UniswapV2Pair.sol\":5007:5053  IERC20Uniswap(token0).balanceOf(address(this)) */\n      0x40\n      dup1\n      mload\n      shl(0xe0, 0x70a08231)\n      dup2\n      mstore\n        /* \"swap/UniswapV2Pair.sol\":5047:5051  this */\n      address\n        /* \"swap/UniswapV2Pair.sol\":5007:5053  IERC20Uniswap(token0).balanceOf(address(this)) */\n      0x04\n      dup3\n      add\n      mstore\n      swap1\n      mload\n        /* \"swap/UniswapV2Pair.sol\":4910:4965  (uint112 _reserve0, uint112 _reserve1,) = getReserves() */\n      swap4\n      swap6\n      pop\n      swap2\n      swap4\n      pop\n        /* \"swap/UniswapV2Pair.sol\":4991:5004  uint balance0 */\n      0x00\n      swap3\n      sub(shl(0xa0, 0x01), 0x01)\n        /* \"swap/UniswapV2Pair.sol\":5021:5027  token0 */\n      swap1\n      swap2\n      and\n      swap2\n        /* \"swap/UniswapV2Pair.sol\":5007:5038  IERC20Uniswap(token0).balanceOf */\n      0x70a08231\n      swap2\n        /* \"swap/UniswapV2Pair.sol\":5007:5053  IERC20Uniswap(token0).balanceOf(address(this)) */\n      0x24\n      dup1\n      dup4\n      add\n      swap3\n      0x20\n      swap3\n      swap2\n      swap1\n      dup3\n      swap1\n      sub\n      add\n      dup2\n        /* \"swap/UniswapV2Pair.sol\":5021:5027  token0 */\n      dup7\n        /* \"swap/UniswapV2Pair.sol\":5007:5053  IERC20Uniswap(token0).balanceOf(address(this)) */\n      dup1\n      extcodesize\n      iszero\n      dup1\n      iszero\n      tag_183\n      jumpi\n      0x00\n      dup1\n      revert\n    tag_183:\n      pop\n      gas\n      staticcall\n      iszero\n      dup1\n      iszero\n      tag_185\n      jumpi\n      returndatasize\n      0x00\n      dup1\n      returndatacopy\n      revert(0x00, returndatasize)\n    tag_185:\n      pop\n      pop\n      pop\n      pop\n      mload(0x40)\n      returndatasize\n      0x20\n      dup2\n      lt\n      iszero\n      tag_186\n      jumpi\n      0x00\n      dup1\n      revert\n    tag_186:\n      pop\n      mload\n        /* \"swap/UniswapV2Pair.sol\":5094:5100  token1 */\n      sload(0x07)\n        /* \"swap/UniswapV2Pair.sol\":5080:5126  IERC20Uniswap(token1).balanceOf(address(this)) */\n      0x40\n      dup1\n      mload\n      shl(0xe0, 0x70a08231)\n      dup2\n      mstore\n        /* \"swap/UniswapV2Pair.sol\":5120:5124  this */\n      address\n        /* \"swap/UniswapV2Pair.sol\":5080:5126  IERC20Uniswap(token1).balanceOf(address(this)) */\n      0x04\n      dup3\n      add\n      mstore\n      swap1\n      mload\n        /* \"swap/UniswapV2Pair.sol\":5007:5053  IERC20Uniswap(token0).balanceOf(address(this)) */\n      swap3\n      swap4\n      pop\n        /* \"swap/UniswapV2Pair.sol\":5064:5077  uint balance1 */\n      0x00\n      swap3\n      sub(shl(0xa0, 0x01), 0x01)\n        /* \"swap/UniswapV2Pair.sol\":5094:5100  token1 */\n      swap1\n      swap3\n      and\n      swap2\n        /* \"swap/UniswapV2Pair.sol\":5080:5111  IERC20Uniswap(token1).balanceOf */\n      0x70a08231\n      swap2\n        /* \"swap/UniswapV2Pair.sol\":5080:5126  IERC20Uniswap(token1).balanceOf(address(this)) */\n      0x24\n      dup1\n      dup3\n      add\n      swap3\n        /* \"swap/UniswapV2Pair.sol\":5007:5053  IERC20Uniswap(token0).balanceOf(address(this)) */\n      0x20\n      swap3\n        /* \"swap/UniswapV2Pair.sol\":5080:5126  IERC20Uniswap(token1).balanceOf(address(this)) */\n      swap1\n      swap2\n      swap1\n      dup3\n      swap1\n      sub\n      add\n      dup2\n        /* \"swap/UniswapV2Pair.sol\":5094:5100  token1 */\n      dup7\n        /* \"swap/UniswapV2Pair.sol\":5080:5126  IERC20Uniswap(token1).balanceOf(address(this)) */\n      dup1\n      extcodesize\n      iszero\n      dup1\n      iszero\n      tag_187\n      jumpi\n      0x00\n      dup1\n      revert\n    tag_187:\n      pop\n      gas\n      staticcall\n      iszero\n      dup1\n      iszero\n      tag_189\n      jumpi\n      returndatasize\n      0x00\n      dup1\n      returndatacopy\n      revert(0x00, returndatasize)\n    tag_189:\n      pop\n      pop\n      pop\n      pop\n      mload(0x40)\n      returndatasize\n      0x20\n      dup2\n      lt\n      iszero\n      tag_190\n      jumpi\n      0x00\n      dup1\n      revert\n    tag_190:\n      pop\n      mload\n      swap1\n      pop\n        /* \"swap/UniswapV2Pair.sol\":5137:5149  uint amount0 */\n      0x00\n        /* \"swap/UniswapV2Pair.sol\":5152:5175  balance0.sub(_reserve0) */\n      tag_191\n        /* \"swap/UniswapV2Pair.sol\":5152:5160  balance0 */\n      dup4\n      sub(shl(0x70, 0x01), 0x01)\n        /* \"swap/UniswapV2Pair.sol\":5152:5175  balance0.sub(_reserve0) */\n      dup8\n      and\n        /* \"swap/UniswapV2Pair.sol\":5152:5164  balance0.sub */\n      tag_158\n        /* \"swap/UniswapV2Pair.sol\":5152:5175  balance0.sub(_reserve0) */\n      jump\t// in\n    tag_191:\n        /* \"swap/UniswapV2Pair.sol\":5137:5175  uint amount0 = balance0.sub(_reserve0) */\n      swap1\n      pop\n        /* \"swap/UniswapV2Pair.sol\":5186:5198  uint amount1 */\n      0x00\n        /* \"swap/UniswapV2Pair.sol\":5201:5224  balance1.sub(_reserve1) */\n      tag_192\n        /* \"swap/UniswapV2Pair.sol\":5201:5209  balance1 */\n      dup4\n      sub(shl(0x70, 0x01), 0x01)\n        /* \"swap/UniswapV2Pair.sol\":5201:5224  balance1.sub(_reserve1) */\n      dup8\n      and\n        /* \"swap/UniswapV2Pair.sol\":5201:5213  balance1.sub */\n      tag_158\n        /* \"swap/UniswapV2Pair.sol\":5201:5224  balance1.sub(_reserve1) */\n      jump\t// in\n    tag_192:\n        /* \"swap/UniswapV2Pair.sol\":5186:5224  uint amount1 = balance1.sub(_reserve1) */\n      swap1\n      pop\n        /* \"swap/UniswapV2Pair.sol\":5237:5247  bool feeOn */\n      0x00\n        /* \"swap/UniswapV2Pair.sol\":5250:5280  _mintFee(_reserve0, _reserve1) */\n      tag_193\n        /* \"swap/UniswapV2Pair.sol\":5259:5268  _reserve0 */\n      dup8\n        /* \"swap/UniswapV2Pair.sol\":5270:5279  _reserve1 */\n      dup8\n        /* \"swap/UniswapV2Pair.sol\":5250:5258  _mintFee */\n      tag_194\n        /* \"swap/UniswapV2Pair.sol\":5250:5280  _mintFee(_reserve0, _reserve1) */\n      jump\t// in\n    tag_193:\n        /* \"swap/UniswapV2Pair.sol\":5291:5308  uint _totalSupply */\n      0x00\n        /* \"swap/UniswapV2Pair.sol\":5311:5322  totalSupply */\n      sload\n        /* \"swap/UniswapV2Pair.sol\":5237:5280  bool feeOn = _mintFee(_reserve0, _reserve1) */\n      swap1\n      swap2\n      pop\n        /* \"swap/UniswapV2Pair.sol\":5415:5432  _totalSupply == 0 */\n      dup1\n        /* \"swap/UniswapV2Pair.sol\":5411:5764  if (_totalSupply == 0) {\r... */\n      tag_195\n      jumpi\n        /* \"swap/UniswapV2Pair.sol\":5461:5515  Math.sqrt(amount0.mul(amount1)).sub(MINIMUM_LIQUIDITY) */\n      tag_196\n        /* \"swap/UniswapV2Pair.sol\":459:464  10**3 */\n      0x03e8\n        /* \"swap/UniswapV2Pair.sol\":5461:5492  Math.sqrt(amount0.mul(amount1)) */\n      tag_157\n        /* \"swap/UniswapV2Pair.sol\":5471:5491  amount0.mul(amount1) */\n      tag_198\n        /* \"swap/UniswapV2Pair.sol\":5471:5478  amount0 */\n      dup8\n        /* \"swap/UniswapV2Pair.sol\":5483:5490  amount1 */\n      dup8\n        /* \"swap/UniswapV2Pair.sol\":5471:5482  amount0.mul */\n      tag_156\n        /* \"swap/UniswapV2Pair.sol\":5471:5491  amount0.mul(amount1) */\n      jump\t// in\n    tag_198:\n        /* \"swap/UniswapV2Pair.sol\":5461:5470  Math.sqrt */\n      tag_199\n        /* \"swap/UniswapV2Pair.sol\":5461:5492  Math.sqrt(amount0.mul(amount1)) */\n      jump\t// in\n        /* \"swap/UniswapV2Pair.sol\":5461:5515  Math.sqrt(amount0.mul(amount1)).sub(MINIMUM_LIQUIDITY) */\n    tag_196:\n        /* \"swap/UniswapV2Pair.sol\":5449:5515  liquidity = Math.sqrt(amount0.mul(amount1)).sub(MINIMUM_LIQUIDITY) */\n      swap9\n      pop\n        /* \"swap/UniswapV2Pair.sol\":5530:5566  _mint(address(0), MINIMUM_LIQUIDITY) */\n      tag_200\n        /* \"swap/UniswapV2Pair.sol\":5544:5545  0 */\n      0x00\n        /* \"swap/UniswapV2Pair.sol\":459:464  10**3 */\n      0x03e8\n        /* \"swap/UniswapV2Pair.sol\":5530:5535  _mint */\n      tag_201\n        /* \"swap/UniswapV2Pair.sol\":5530:5566  _mint(address(0), MINIMUM_LIQUIDITY) */\n      jump\t// in\n    tag_200:\n        /* \"swap/UniswapV2Pair.sol\":5411:5764  if (_totalSupply == 0) {\r... */\n      jump(tag_202)\n    tag_195:\n        /* \"swap/UniswapV2Pair.sol\":5666:5752  Math.min(amount0.mul(_totalSupply) / _reserve0, amount1.mul(_totalSupply) / _reserve1) */\n      tag_203\n      sub(shl(0x70, 0x01), 0x01)\n        /* \"swap/UniswapV2Pair.sol\":5675:5712  amount0.mul(_totalSupply) / _reserve0 */\n      dup10\n      and\n        /* \"swap/UniswapV2Pair.sol\":5675:5700  amount0.mul(_totalSupply) */\n      tag_204\n        /* \"swap/UniswapV2Pair.sol\":5675:5682  amount0 */\n      dup7\n        /* \"swap/UniswapV2Pair.sol\":5687:5699  _totalSupply */\n      dup5\n        /* \"swap/UniswapV2Pair.sol\":5675:5686  amount0.mul */\n      tag_156\n        /* \"swap/UniswapV2Pair.sol\":5675:5700  amount0.mul(_totalSupply) */\n      jump\t// in\n    tag_204:\n        /* \"swap/UniswapV2Pair.sol\":5675:5712  amount0.mul(_totalSupply) / _reserve0 */\n      dup2\n      tag_205\n      jumpi\n      invalid\n    tag_205:\n      div\n      sub(shl(0x70, 0x01), 0x01)\n        /* \"swap/UniswapV2Pair.sol\":5714:5751  amount1.mul(_totalSupply) / _reserve1 */\n      dup10\n      and\n        /* \"swap/UniswapV2Pair.sol\":5714:5739  amount1.mul(_totalSupply) */\n      tag_206\n        /* \"swap/UniswapV2Pair.sol\":5714:5721  amount1 */\n      dup7\n        /* \"swap/UniswapV2Pair.sol\":5726:5738  _totalSupply */\n      dup6\n        /* \"swap/UniswapV2Pair.sol\":5714:5725  amount1.mul */\n      tag_156\n        /* \"swap/UniswapV2Pair.sol\":5714:5739  amount1.mul(_totalSupply) */\n      jump\t// in\n    tag_206:\n        /* \"swap/UniswapV2Pair.sol\":5714:5751  amount1.mul(_totalSupply) / _reserve1 */\n      dup2\n      tag_207\n      jumpi\n      invalid\n    tag_207:\n      div\n        /* \"swap/UniswapV2Pair.sol\":5666:5674  Math.min */\n      tag_208\n        /* \"swap/UniswapV2Pair.sol\":5666:5752  Math.min(amount0.mul(_totalSupply) / _reserve0, amount1.mul(_totalSupply) / _reserve1) */\n      jump\t// in\n    tag_203:\n        /* \"swap/UniswapV2Pair.sol\":5654:5752  liquidity = Math.min(amount0.mul(_totalSupply) / _reserve0, amount1.mul(_totalSupply) / _reserve1) */\n      swap9\n      pop\n        /* \"swap/UniswapV2Pair.sol\":5411:5764  if (_totalSupply == 0) {\r... */\n    tag_202:\n        /* \"swap/UniswapV2Pair.sol\":5794:5795  0 */\n      0x00\n        /* \"swap/UniswapV2Pair.sol\":5782:5791  liquidity */\n      dup10\n        /* \"swap/UniswapV2Pair.sol\":5782:5795  liquidity > 0 */\n      gt\n        /* \"swap/UniswapV2Pair.sol\":5774:5840  require(liquidity > 0, 'UniswapV2: INSUFFICIENT_LIQUIDITY_MINTED') */\n      tag_209\n      jumpi\n      mload(0x40)\n      shl(0xe5, 0x461bcd)\n      dup2\n      mstore\n      0x04\n      add\n      dup1\n      dup1\n      0x20\n      add\n      dup3\n      dup2\n      sub\n      dup3\n      mstore\n      0x28\n      dup2\n      mstore\n      0x20\n      add\n      dup1\n      data_6591c9f5bf1fefaad109b76a20e25c857b696080c952191f86220f001a83663e\n      0x28\n      swap2\n      codecopy\n      0x40\n      add\n      swap2\n      pop\n      pop\n      mload(0x40)\n      dup1\n      swap2\n      sub\n      swap1\n      revert\n    tag_209:\n        /* \"swap/UniswapV2Pair.sol\":5851:5871  _mint(to, liquidity) */\n      tag_210\n        /* \"swap/UniswapV2Pair.sol\":5857:5859  to */\n      dup11\n        /* \"swap/UniswapV2Pair.sol\":5861:5870  liquidity */\n      dup11\n        /* \"swap/UniswapV2Pair.sol\":5851:5856  _mint */\n      tag_201\n        /* \"swap/UniswapV2Pair.sol\":5851:5871  _mint(to, liquidity) */\n      jump\t// in\n    tag_210:\n        /* \"swap/UniswapV2Pair.sol\":5884:5933  _update(balance0, balance1, _reserve0, _reserve1) */\n      tag_211\n        /* \"swap/UniswapV2Pair.sol\":5892:5900  balance0 */\n      dup7\n        /* \"swap/UniswapV2Pair.sol\":5902:5910  balance1 */\n      dup7\n        /* \"swap/UniswapV2Pair.sol\":5912:5921  _reserve0 */\n      dup11\n        /* \"swap/UniswapV2Pair.sol\":5923:5932  _reserve1 */\n      dup11\n        /* \"swap/UniswapV2Pair.sol\":5884:5891  _update */\n      tag_167\n        /* \"swap/UniswapV2Pair.sol\":5884:5933  _update(balance0, balance1, _reserve0, _reserve1) */\n      jump\t// in\n    tag_211:\n        /* \"swap/UniswapV2Pair.sol\":5948:5953  feeOn */\n      dup2\n        /* \"swap/UniswapV2Pair.sol\":5944:5991  if (feeOn) kLast = uint(reserve0).mul(reserve1) */\n      iszero\n      tag_212\n      jumpi\n        /* \"swap/UniswapV2Pair.sol\":5982:5990  reserve1 */\n      sload(0x08)\n        /* \"swap/UniswapV2Pair.sol\":5963:5991  uint(reserve0).mul(reserve1) */\n      tag_213\n      swap1\n      sub(shl(0x70, 0x01), 0x01)\n        /* \"swap/UniswapV2Pair.sol\":5968:5976  reserve0 */\n      dup1\n      dup3\n      and\n      swap2\n      shl(0x70, 0x01)\n        /* \"swap/UniswapV2Pair.sol\":5982:5990  reserve1 */\n      swap1\n      div\n      and\n        /* \"swap/UniswapV2Pair.sol\":5963:5981  uint(reserve0).mul */\n      tag_156\n        /* \"swap/UniswapV2Pair.sol\":5963:5991  uint(reserve0).mul(reserve1) */\n      jump\t// in\n    tag_213:\n        /* \"swap/UniswapV2Pair.sol\":5955:5960  kLast */\n      0x0b\n        /* \"swap/UniswapV2Pair.sol\":5955:5991  kLast = uint(reserve0).mul(reserve1) */\n      sstore\n        /* \"swap/UniswapV2Pair.sol\":5944:5991  if (feeOn) kLast = uint(reserve0).mul(reserve1) */\n    tag_212:\n        /* \"swap/UniswapV2Pair.sol\":6047:6081  Mint(msg.sender, amount0, amount1) */\n      0x40\n      dup1\n      mload\n      dup6\n      dup2\n      mstore\n      0x20\n      dup2\n      add\n      dup6\n      swap1\n      mstore\n      dup2\n      mload\n        /* \"swap/UniswapV2Pair.sol\":6052:6062  msg.sender */\n      caller\n      swap3\n        /* \"swap/UniswapV2Pair.sol\":6047:6081  Mint(msg.sender, amount0, amount1) */\n      0x4c209b5fc8ad50758f13e2e1088ba56a560dff690a1c6fef26394f4c03821c4f\n      swap3\n      dup3\n      swap1\n      sub\n      add\n      swap1\n      log2\n      pop\n      pop\n        /* \"swap/UniswapV2Pair.sol\":1346:1347  1 */\n      0x01\n        /* \"swap/UniswapV2Pair.sol\":1335:1343  unlocked */\n      0x0d\n        /* \"swap/UniswapV2Pair.sol\":1335:1347  unlocked = 1 */\n      sstore\n      pop\n        /* \"swap/UniswapV2Pair.sol\":4834:6089  function mint(address to) external lock returns (uint liquidity) {\r... */\n      swap5\n      swap7\n      swap6\n      pop\n      pop\n      pop\n      pop\n      pop\n      pop\n      jump\t// out\n        /* \"swap/UniswapV2ERC20.sol\":342:383  mapping(address => uint) public balanceOf */\n    tag_83:\n      mstore(0x20, 0x01)\n      0x00\n      swap1\n      dup2\n      mstore\n      0x40\n      swap1\n      keccak256\n      sload\n      dup2\n      jump\t// out\n        /* \"swap/UniswapV2Pair.sol\":1026:1043  uint public kLast */\n    tag_85:\n      sload(0x0b)\n      dup2\n      jump\t// out\n        /* \"swap/UniswapV2ERC20.sol\":718:756  mapping(address => uint) public nonces */\n    tag_88:\n      mstore(0x20, 0x04)\n      0x00\n      swap1\n      dup2\n      mstore\n      0x40\n      swap1\n      keccak256\n      sload\n      dup2\n      jump\t// out\n        /* \"swap/UniswapV2Pair.sol\":6201:7695  function burn(address to) external lock returns (uint amount0, uint amount1) {\r... */\n    tag_91:\n        /* \"swap/UniswapV2Pair.sol\":6250:6262  uint amount0 */\n      0x00\n        /* \"swap/UniswapV2Pair.sol\":6264:6276  uint amount1 */\n      dup1\n        /* \"swap/UniswapV2Pair.sol\":1254:1262  unlocked */\n      sload(0x0d)\n        /* \"swap/UniswapV2Pair.sol\":1266:1267  1 */\n      0x01\n        /* \"swap/UniswapV2Pair.sol\":1254:1267  unlocked == 1 */\n      eq\n        /* \"swap/UniswapV2Pair.sol\":1246:1289  require(unlocked == 1, 'UniswapV2: LOCKED') */\n      tag_215\n      jumpi\n      0x40\n      dup1\n      mload\n      shl(0xe5, 0x461bcd)\n      dup2\n      mstore\n      0x20\n      0x04\n      dup3\n      add\n      mstore\n      0x11\n      0x24\n      dup3\n      add\n      mstore\n      shl(0x7a, 0x155b9a5cddd85c158c8e881313d0d2d151)\n      0x44\n      dup3\n      add\n      mstore\n      swap1\n      mload\n      swap1\n      dup2\n      swap1\n      sub\n      0x64\n      add\n      swap1\n      revert\n    tag_215:\n        /* \"swap/UniswapV2Pair.sol\":1311:1312  0 */\n      0x00\n        /* \"swap/UniswapV2Pair.sol\":1300:1308  unlocked */\n      0x0d\n        /* \"swap/UniswapV2Pair.sol\":1300:1312  unlocked = 0 */\n      dup2\n      swap1\n      sstore\n        /* \"swap/UniswapV2Pair.sol\":1311:1312  0 */\n      dup1\n        /* \"swap/UniswapV2Pair.sol\":6331:6344  getReserves() */\n      tag_217\n        /* \"swap/UniswapV2Pair.sol\":6331:6342  getReserves */\n      tag_52\n        /* \"swap/UniswapV2Pair.sol\":6331:6344  getReserves() */\n      jump\t// in\n    tag_217:\n      pop\n        /* \"swap/UniswapV2Pair.sol\":6388:6394  token0 */\n      sload(0x06)\n        /* \"swap/UniswapV2Pair.sol\":6469:6475  token1 */\n      sload(0x07)\n        /* \"swap/UniswapV2Pair.sol\":6548:6595  IERC20Uniswap(_token0).balanceOf(address(this)) */\n      0x40\n      dup1\n      mload\n      shl(0xe0, 0x70a08231)\n      dup2\n      mstore\n        /* \"swap/UniswapV2Pair.sol\":6589:6593  this */\n      address\n        /* \"swap/UniswapV2Pair.sol\":6548:6595  IERC20Uniswap(_token0).balanceOf(address(this)) */\n      0x04\n      dup3\n      add\n      mstore\n      swap1\n      mload\n        /* \"swap/UniswapV2Pair.sol\":6289:6344  (uint112 _reserve0, uint112 _reserve1,) = getReserves() */\n      swap5\n      swap7\n      pop\n      swap3\n      swap5\n      pop\n      sub(shl(0xa0, 0x01), 0x01)\n        /* \"swap/UniswapV2Pair.sol\":6388:6394  token0 */\n      swap2\n      dup3\n      and\n      swap4\n        /* \"swap/UniswapV2Pair.sol\":6469:6475  token1 */\n      swap2\n      and\n      swap2\n        /* \"swap/UniswapV2Pair.sol\":6370:6385  address _token0 */\n      0x00\n      swap2\n        /* \"swap/UniswapV2Pair.sol\":6388:6394  token0 */\n      dup5\n      swap2\n        /* \"swap/UniswapV2Pair.sol\":6548:6580  IERC20Uniswap(_token0).balanceOf */\n      0x70a08231\n      swap2\n        /* \"swap/UniswapV2Pair.sol\":6548:6595  IERC20Uniswap(_token0).balanceOf(address(this)) */\n      0x24\n      dup1\n      dup4\n      add\n      swap3\n      0x20\n      swap3\n      swap2\n      swap1\n      dup3\n      swap1\n      sub\n      add\n      dup2\n        /* \"swap/UniswapV2Pair.sol\":6388:6394  token0 */\n      dup7\n        /* \"swap/UniswapV2Pair.sol\":6548:6595  IERC20Uniswap(_token0).balanceOf(address(this)) */\n      dup1\n      extcodesize\n      iszero\n      dup1\n      iszero\n      tag_218\n      jumpi\n      0x00\n      dup1\n      revert\n    tag_218:\n      pop\n      gas\n      staticcall\n      iszero\n      dup1\n      iszero\n      tag_220\n      jumpi\n      returndatasize\n      0x00\n      dup1\n      returndatacopy\n      revert(0x00, returndatasize)\n    tag_220:\n      pop\n      pop\n      pop\n      pop\n      mload(0x40)\n      returndatasize\n      0x20\n      dup2\n      lt\n      iszero\n      tag_221\n      jumpi\n      0x00\n      dup1\n      revert\n    tag_221:\n      pop\n      mload\n        /* \"swap/UniswapV2Pair.sol\":6622:6669  IERC20Uniswap(_token1).balanceOf(address(this)) */\n      0x40\n      dup1\n      mload\n      shl(0xe0, 0x70a08231)\n      dup2\n      mstore\n        /* \"swap/UniswapV2Pair.sol\":6663:6667  this */\n      address\n        /* \"swap/UniswapV2Pair.sol\":6622:6669  IERC20Uniswap(_token1).balanceOf(address(this)) */\n      0x04\n      dup3\n      add\n      mstore\n      swap1\n      mload\n        /* \"swap/UniswapV2Pair.sol\":6548:6595  IERC20Uniswap(_token0).balanceOf(address(this)) */\n      swap2\n      swap3\n      pop\n        /* \"swap/UniswapV2Pair.sol\":6606:6619  uint balance1 */\n      0x00\n      swap2\n      sub(shl(0xa0, 0x01), 0x01)\n        /* \"swap/UniswapV2Pair.sol\":6622:6654  IERC20Uniswap(_token1).balanceOf */\n      dup6\n      and\n      swap2\n      0x70a08231\n      swap2\n        /* \"swap/UniswapV2Pair.sol\":6622:6669  IERC20Uniswap(_token1).balanceOf(address(this)) */\n      0x24\n      dup1\n      dup4\n      add\n      swap3\n        /* \"swap/UniswapV2Pair.sol\":6548:6595  IERC20Uniswap(_token0).balanceOf(address(this)) */\n      0x20\n      swap3\n        /* \"swap/UniswapV2Pair.sol\":6622:6669  IERC20Uniswap(_token1).balanceOf(address(this)) */\n      swap2\n      swap1\n      dup3\n      swap1\n      sub\n      add\n      dup2\n        /* \"swap/UniswapV2Pair.sol\":6622:6654  IERC20Uniswap(_token1).balanceOf */\n      dup7\n        /* \"swap/UniswapV2Pair.sol\":6622:6669  IERC20Uniswap(_token1).balanceOf(address(this)) */\n      dup1\n      extcodesize\n      iszero\n      dup1\n      iszero\n      tag_222\n      jumpi\n      0x00\n      dup1\n      revert\n    tag_222:\n      pop\n      gas\n      staticcall\n      iszero\n      dup1\n      iszero\n      tag_224\n      jumpi\n      returndatasize\n      0x00\n      dup1\n      returndatacopy\n      revert(0x00, returndatasize)\n    tag_224:\n      pop\n      pop\n      pop\n      pop\n      mload(0x40)\n      returndatasize\n      0x20\n      dup2\n      lt\n      iszero\n      tag_225\n      jumpi\n      0x00\n      dup1\n      revert\n    tag_225:\n      pop\n      mload\n        /* \"swap/UniswapV2Pair.sol\":6715:6719  this */\n      address\n        /* \"swap/UniswapV2Pair.sol\":6680:6694  uint liquidity */\n      0x00\n        /* \"swap/UniswapV2Pair.sol\":6697:6721  balanceOf[address(this)] */\n      swap1\n      dup2\n      mstore\n        /* \"swap/UniswapV2Pair.sol\":6697:6706  balanceOf */\n      0x01\n        /* \"swap/UniswapV2Pair.sol\":6622:6669  IERC20Uniswap(_token1).balanceOf(address(this)) */\n      0x20\n        /* \"swap/UniswapV2Pair.sol\":6697:6721  balanceOf[address(this)] */\n      mstore\n      0x40\n      dup2\n      keccak256\n      sload\n        /* \"swap/UniswapV2Pair.sol\":6622:6669  IERC20Uniswap(_token1).balanceOf(address(this)) */\n      swap2\n      swap3\n      pop\n        /* \"swap/UniswapV2Pair.sol\":6747:6777  _mintFee(_reserve0, _reserve1) */\n      tag_226\n        /* \"swap/UniswapV2Pair.sol\":6756:6765  _reserve0 */\n      dup9\n        /* \"swap/UniswapV2Pair.sol\":6767:6776  _reserve1 */\n      dup9\n        /* \"swap/UniswapV2Pair.sol\":6747:6755  _mintFee */\n      tag_194\n        /* \"swap/UniswapV2Pair.sol\":6747:6777  _mintFee(_reserve0, _reserve1) */\n      jump\t// in\n    tag_226:\n        /* \"swap/UniswapV2Pair.sol\":6788:6805  uint _totalSupply */\n      0x00\n        /* \"swap/UniswapV2Pair.sol\":6808:6819  totalSupply */\n      sload\n        /* \"swap/UniswapV2Pair.sol\":6734:6777  bool feeOn = _mintFee(_reserve0, _reserve1) */\n      swap1\n      swap2\n      pop\n        /* \"swap/UniswapV2Pair.sol\":6808:6819  totalSupply */\n      dup1\n        /* \"swap/UniswapV2Pair.sol\":6918:6941  liquidity.mul(balance0) */\n      tag_227\n        /* \"swap/UniswapV2Pair.sol\":6918:6927  liquidity */\n      dup5\n        /* \"swap/UniswapV2Pair.sol\":6932:6940  balance0 */\n      dup8\n        /* \"swap/UniswapV2Pair.sol\":6918:6931  liquidity.mul */\n      tag_156\n        /* \"swap/UniswapV2Pair.sol\":6918:6941  liquidity.mul(balance0) */\n      jump\t// in\n    tag_227:\n        /* \"swap/UniswapV2Pair.sol\":6918:6956  liquidity.mul(balance0) / _totalSupply */\n      dup2\n      tag_228\n      jumpi\n      invalid\n    tag_228:\n      div\n      swap11\n      pop\n        /* \"swap/UniswapV2Pair.sol\":7051:7063  _totalSupply */\n      dup1\n        /* \"swap/UniswapV2Pair.sol\":7025:7048  liquidity.mul(balance1) */\n      tag_229\n        /* \"swap/UniswapV2Pair.sol\":7025:7034  liquidity */\n      dup5\n        /* \"swap/UniswapV2Pair.sol\":7039:7047  balance1 */\n      dup7\n        /* \"swap/UniswapV2Pair.sol\":7025:7038  liquidity.mul */\n      tag_156\n        /* \"swap/UniswapV2Pair.sol\":7025:7048  liquidity.mul(balance1) */\n      jump\t// in\n    tag_229:\n        /* \"swap/UniswapV2Pair.sol\":7025:7063  liquidity.mul(balance1) / _totalSupply */\n      dup2\n      tag_230\n      jumpi\n      invalid\n    tag_230:\n      div\n        /* \"swap/UniswapV2Pair.sol\":7015:7063  amount1 = liquidity.mul(balance1) / _totalSupply */\n      swap10\n      pop\n        /* \"swap/UniswapV2Pair.sol\":7140:7141  0 */\n      0x00\n        /* \"swap/UniswapV2Pair.sol\":7130:7137  amount0 */\n      dup12\n        /* \"swap/UniswapV2Pair.sol\":7130:7141  amount0 > 0 */\n      gt\n        /* \"swap/UniswapV2Pair.sol\":7130:7156  amount0 > 0 && amount1 > 0 */\n      dup1\n      iszero\n      tag_231\n      jumpi\n      pop\n        /* \"swap/UniswapV2Pair.sol\":7155:7156  0 */\n      0x00\n        /* \"swap/UniswapV2Pair.sol\":7145:7152  amount1 */\n      dup11\n        /* \"swap/UniswapV2Pair.sol\":7145:7156  amount1 > 0 */\n      gt\n        /* \"swap/UniswapV2Pair.sol\":7130:7156  amount0 > 0 && amount1 > 0 */\n    tag_231:\n        /* \"swap/UniswapV2Pair.sol\":7122:7201  require(amount0 > 0 && amount1 > 0, 'UniswapV2: INSUFFICIENT_LIQUIDITY_BURNED') */\n      tag_232\n      jumpi\n      mload(0x40)\n      shl(0xe5, 0x461bcd)\n      dup2\n      mstore\n      0x04\n      add\n      dup1\n      dup1\n      0x20\n      add\n      dup3\n      dup2\n      sub\n      dup3\n      mstore\n      0x28\n      dup2\n      mstore\n      0x20\n      add\n      dup1\n      data_57ebfb4dd8b5082cdba0f23c17077e3b0ecb9782a51e0e9a15e9bc8c4b30c562\n      0x28\n      swap2\n      codecopy\n      0x40\n      add\n      swap2\n      pop\n      pop\n      mload(0x40)\n      dup1\n      swap2\n      sub\n      swap1\n      revert\n    tag_232:\n        /* \"swap/UniswapV2Pair.sol\":7212:7243  _burn(address(this), liquidity) */\n      tag_233\n        /* \"swap/UniswapV2Pair.sol\":7226:7230  this */\n      address\n        /* \"swap/UniswapV2Pair.sol\":7233:7242  liquidity */\n      dup5\n        /* \"swap/UniswapV2Pair.sol\":7212:7217  _burn */\n      tag_234\n        /* \"swap/UniswapV2Pair.sol\":7212:7243  _burn(address(this), liquidity) */\n      jump\t// in\n    tag_233:\n        /* \"swap/UniswapV2Pair.sol\":7254:7289  _safeTransfer(_token0, to, amount0) */\n      tag_235\n        /* \"swap/UniswapV2Pair.sol\":7268:7275  _token0 */\n      dup8\n        /* \"swap/UniswapV2Pair.sol\":7277:7279  to */\n      dup14\n        /* \"swap/UniswapV2Pair.sol\":7281:7288  amount0 */\n      dup14\n        /* \"swap/UniswapV2Pair.sol\":7254:7267  _safeTransfer */\n      tag_133\n        /* \"swap/UniswapV2Pair.sol\":7254:7289  _safeTransfer(_token0, to, amount0) */\n      jump\t// in\n    tag_235:\n        /* \"swap/UniswapV2Pair.sol\":7300:7335  _safeTransfer(_token1, to, amount1) */\n      tag_236\n        /* \"swap/UniswapV2Pair.sol\":7314:7321  _token1 */\n      dup7\n        /* \"swap/UniswapV2Pair.sol\":7323:7325  to */\n      dup14\n        /* \"swap/UniswapV2Pair.sol\":7327:7334  amount1 */\n      dup13\n        /* \"swap/UniswapV2Pair.sol\":7300:7313  _safeTransfer */\n      tag_133\n        /* \"swap/UniswapV2Pair.sol\":7300:7335  _safeTransfer(_token1, to, amount1) */\n      jump\t// in\n    tag_236:\n        /* \"swap/UniswapV2Pair.sol\":7357:7404  IERC20Uniswap(_token0).balanceOf(address(this)) */\n      0x40\n      dup1\n      mload\n      shl(0xe0, 0x70a08231)\n      dup2\n      mstore\n        /* \"swap/UniswapV2Pair.sol\":7398:7402  this */\n      address\n        /* \"swap/UniswapV2Pair.sol\":7357:7404  IERC20Uniswap(_token0).balanceOf(address(this)) */\n      0x04\n      dup3\n      add\n      mstore\n      swap1\n      mload\n      sub(shl(0xa0, 0x01), 0x01)\n        /* \"swap/UniswapV2Pair.sol\":7357:7389  IERC20Uniswap(_token0).balanceOf */\n      dup10\n      and\n      swap2\n      0x70a08231\n      swap2\n        /* \"swap/UniswapV2Pair.sol\":7357:7404  IERC20Uniswap(_token0).balanceOf(address(this)) */\n      0x24\n      dup1\n      dup4\n      add\n      swap3\n      0x20\n      swap3\n      swap2\n      swap1\n      dup3\n      swap1\n      sub\n      add\n      dup2\n        /* \"swap/UniswapV2Pair.sol\":7357:7389  IERC20Uniswap(_token0).balanceOf */\n      dup7\n        /* \"swap/UniswapV2Pair.sol\":7357:7404  IERC20Uniswap(_token0).balanceOf(address(this)) */\n      dup1\n      extcodesize\n      iszero\n      dup1\n      iszero\n      tag_237\n      jumpi\n      0x00\n      dup1\n      revert\n    tag_237:\n      pop\n      gas\n      staticcall\n      iszero\n      dup1\n      iszero\n      tag_239\n      jumpi\n      returndatasize\n      0x00\n      dup1\n      returndatacopy\n      revert(0x00, returndatasize)\n    tag_239:\n      pop\n      pop\n      pop\n      pop\n      mload(0x40)\n      returndatasize\n      0x20\n      dup2\n      lt\n      iszero\n      tag_240\n      jumpi\n      0x00\n      dup1\n      revert\n    tag_240:\n      pop\n      mload\n        /* \"swap/UniswapV2Pair.sol\":7426:7473  IERC20Uniswap(_token1).balanceOf(address(this)) */\n      0x40\n      dup1\n      mload\n      shl(0xe0, 0x70a08231)\n      dup2\n      mstore\n        /* \"swap/UniswapV2Pair.sol\":7467:7471  this */\n      address\n        /* \"swap/UniswapV2Pair.sol\":7426:7473  IERC20Uniswap(_token1).balanceOf(address(this)) */\n      0x04\n      dup3\n      add\n      mstore\n      swap1\n      mload\n        /* \"swap/UniswapV2Pair.sol\":7357:7404  IERC20Uniswap(_token0).balanceOf(address(this)) */\n      swap2\n      swap7\n      pop\n      sub(shl(0xa0, 0x01), 0x01)\n        /* \"swap/UniswapV2Pair.sol\":7426:7458  IERC20Uniswap(_token1).balanceOf */\n      dup9\n      and\n      swap2\n      0x70a08231\n      swap2\n        /* \"swap/UniswapV2Pair.sol\":7426:7473  IERC20Uniswap(_token1).balanceOf(address(this)) */\n      0x24\n      dup1\n      dup3\n      add\n      swap3\n        /* \"swap/UniswapV2Pair.sol\":7357:7404  IERC20Uniswap(_token0).balanceOf(address(this)) */\n      0x20\n      swap3\n        /* \"swap/UniswapV2Pair.sol\":7426:7473  IERC20Uniswap(_token1).balanceOf(address(this)) */\n      swap1\n      swap2\n      swap1\n      dup3\n      swap1\n      sub\n      add\n      dup2\n        /* \"swap/UniswapV2Pair.sol\":7426:7458  IERC20Uniswap(_token1).balanceOf */\n      dup7\n        /* \"swap/UniswapV2Pair.sol\":7426:7473  IERC20Uniswap(_token1).balanceOf(address(this)) */\n      dup1\n      extcodesize\n      iszero\n      dup1\n      iszero\n      tag_241\n      jumpi\n      0x00\n      dup1\n      revert\n    tag_241:\n      pop\n      gas\n      staticcall\n      iszero\n      dup1\n      iszero\n      tag_243\n      jumpi\n      returndatasize\n      0x00\n      dup1\n      returndatacopy\n      revert(0x00, returndatasize)\n    tag_243:\n      pop\n      pop\n      pop\n      pop\n      mload(0x40)\n      returndatasize\n      0x20\n      dup2\n      lt\n      iszero\n      tag_244\n      jumpi\n      0x00\n      dup1\n      revert\n    tag_244:\n      pop\n      mload\n      swap4\n      pop\n        /* \"swap/UniswapV2Pair.sol\":7486:7535  _update(balance0, balance1, _reserve0, _reserve1) */\n      tag_245\n        /* \"swap/UniswapV2Pair.sol\":7494:7502  balance0 */\n      dup6\n        /* \"swap/UniswapV2Pair.sol\":7426:7473  IERC20Uniswap(_token1).balanceOf(address(this)) */\n      dup6\n        /* \"swap/UniswapV2Pair.sol\":7514:7523  _reserve0 */\n      dup12\n        /* \"swap/UniswapV2Pair.sol\":7525:7534  _reserve1 */\n      dup12\n        /* \"swap/UniswapV2Pair.sol\":7486:7493  _update */\n      tag_167\n        /* \"swap/UniswapV2Pair.sol\":7486:7535  _update(balance0, balance1, _reserve0, _reserve1) */\n      jump\t// in\n    tag_245:\n        /* \"swap/UniswapV2Pair.sol\":7550:7555  feeOn */\n      dup2\n        /* \"swap/UniswapV2Pair.sol\":7546:7593  if (feeOn) kLast = uint(reserve0).mul(reserve1) */\n      iszero\n      tag_246\n      jumpi\n        /* \"swap/UniswapV2Pair.sol\":7584:7592  reserve1 */\n      sload(0x08)\n        /* \"swap/UniswapV2Pair.sol\":7565:7593  uint(reserve0).mul(reserve1) */\n      tag_247\n      swap1\n      sub(shl(0x70, 0x01), 0x01)\n        /* \"swap/UniswapV2Pair.sol\":7570:7578  reserve0 */\n      dup1\n      dup3\n      and\n      swap2\n      shl(0x70, 0x01)\n        /* \"swap/UniswapV2Pair.sol\":7584:7592  reserve1 */\n      swap1\n      div\n      and\n        /* \"swap/UniswapV2Pair.sol\":7565:7583  uint(reserve0).mul */\n      tag_156\n        /* \"swap/UniswapV2Pair.sol\":7565:7593  uint(reserve0).mul(reserve1) */\n      jump\t// in\n    tag_247:\n        /* \"swap/UniswapV2Pair.sol\":7557:7562  kLast */\n      0x0b\n        /* \"swap/UniswapV2Pair.sol\":7557:7593  kLast = uint(reserve0).mul(reserve1) */\n      sstore\n        /* \"swap/UniswapV2Pair.sol\":7546:7593  if (feeOn) kLast = uint(reserve0).mul(reserve1) */\n    tag_246:\n        /* \"swap/UniswapV2Pair.sol\":7649:7687  Burn(msg.sender, amount0, amount1, to) */\n      0x40\n      dup1\n      mload\n      dup13\n      dup2\n      mstore\n      0x20\n      dup2\n      add\n      dup13\n      swap1\n      mstore\n      dup2\n      mload\n      sub(shl(0xa0, 0x01), 0x01)\n      dup16\n      and\n      swap3\n        /* \"swap/UniswapV2Pair.sol\":7654:7664  msg.sender */\n      caller\n      swap3\n        /* \"swap/UniswapV2Pair.sol\":7649:7687  Burn(msg.sender, amount0, amount1, to) */\n      0xdccd412f0b1252819cb1fd330b93224ca42612892bb3f4f789976e6d81936496\n      swap3\n      swap1\n      dup2\n      swap1\n      sub\n      swap1\n      swap2\n      add\n      swap1\n      log3\n        /* \"swap/UniswapV2Pair.sol\":1323:1324  _ */\n      pop\n      pop\n      pop\n      pop\n      pop\n      pop\n      pop\n      pop\n      pop\n        /* \"swap/UniswapV2Pair.sol\":1346:1347  1 */\n      0x01\n        /* \"swap/UniswapV2Pair.sol\":1335:1343  unlocked */\n      0x0d\n        /* \"swap/UniswapV2Pair.sol\":1335:1347  unlocked = 1 */\n      dup2\n      swap1\n      sstore\n      pop\n        /* \"swap/UniswapV2Pair.sol\":6201:7695  function burn(address to) external lock returns (uint amount0, uint amount1) {\r... */\n      swap2\n      pop\n      swap2\n      jump\t// out\n        /* \"swap/UniswapV2ERC20.sol\":223:262  string public constant symbol = 'TSWAP' */\n    tag_93:\n      mload(0x40)\n      dup1\n      0x40\n      add\n      0x40\n      mstore\n      dup1\n      0x05\n      dup2\n      mstore\n      0x20\n      add\n      shl(0xdc, 0x0545357415)\n      dup2\n      mstore\n      pop\n      dup2\n      jump\t// out\n        /* \"swap/UniswapV2ERC20.sol\":2377:2516  function transfer(address to, uint value) external returns (bool) {\r... */\n    tag_100:\n        /* \"swap/UniswapV2ERC20.sol\":2437:2441  bool */\n      0x00\n        /* \"swap/UniswapV2ERC20.sol\":2454:2486  _transfer(msg.sender, to, value) */\n      tag_170\n        /* \"swap/UniswapV2ERC20.sol\":2464:2474  msg.sender */\n      caller\n        /* \"swap/UniswapV2ERC20.sol\":2476:2478  to */\n      dup5\n        /* \"swap/UniswapV2ERC20.sol\":2480:2485  value */\n      dup5\n        /* \"swap/UniswapV2ERC20.sol\":2454:2463  _transfer */\n      tag_176\n        /* \"swap/UniswapV2ERC20.sol\":2454:2486  _transfer(msg.sender, to, value) */\n      jump\t// in\n        /* \"swap/UniswapV2Pair.sol\":418:464  uint public constant MINIMUM_LIQUIDITY = 10**3 */\n    tag_102:\n        /* \"swap/UniswapV2Pair.sol\":459:464  10**3 */\n      0x03e8\n        /* \"swap/UniswapV2Pair.sol\":418:464  uint public constant MINIMUM_LIQUIDITY = 10**3 */\n      dup2\n      jump\t// out\n        /* \"swap/UniswapV2Pair.sol\":9814:10162  function skim(address to) external lock {\r... */\n    tag_105:\n        /* \"swap/UniswapV2Pair.sol\":1254:1262  unlocked */\n      sload(0x0d)\n        /* \"swap/UniswapV2Pair.sol\":1266:1267  1 */\n      0x01\n        /* \"swap/UniswapV2Pair.sol\":1254:1267  unlocked == 1 */\n      eq\n        /* \"swap/UniswapV2Pair.sol\":1246:1289  require(unlocked == 1, 'UniswapV2: LOCKED') */\n      tag_251\n      jumpi\n      0x40\n      dup1\n      mload\n      shl(0xe5, 0x461bcd)\n      dup2\n      mstore\n      0x20\n      0x04\n      dup3\n      add\n      mstore\n      0x11\n      0x24\n      dup3\n      add\n      mstore\n      shl(0x7a, 0x155b9a5cddd85c158c8e881313d0d2d151)\n      0x44\n      dup3\n      add\n      mstore\n      swap1\n      mload\n      swap1\n      dup2\n      swap1\n      sub\n      0x64\n      add\n      swap1\n      revert\n    tag_251:\n        /* \"swap/UniswapV2Pair.sol\":1311:1312  0 */\n      0x00\n        /* \"swap/UniswapV2Pair.sol\":1300:1308  unlocked */\n      0x0d\n        /* \"swap/UniswapV2Pair.sol\":1300:1312  unlocked = 0 */\n      sstore\n        /* \"swap/UniswapV2Pair.sol\":9883:9889  token0 */\n      sload(0x06)\n        /* \"swap/UniswapV2Pair.sol\":9933:9939  token1 */\n      sload(0x07)\n        /* \"swap/UniswapV2Pair.sol\":10044:10052  reserve0 */\n      sload(0x08)\n        /* \"swap/UniswapV2Pair.sol\":9992:10039  IERC20Uniswap(_token0).balanceOf(address(this)) */\n      0x40\n      dup1\n      mload\n      shl(0xe0, 0x70a08231)\n      dup2\n      mstore\n        /* \"swap/UniswapV2Pair.sol\":10033:10037  this */\n      address\n        /* \"swap/UniswapV2Pair.sol\":9992:10039  IERC20Uniswap(_token0).balanceOf(address(this)) */\n      0x04\n      dup3\n      add\n      mstore\n      swap1\n      mload\n      sub(shl(0xa0, 0x01), 0x01)\n        /* \"swap/UniswapV2Pair.sol\":9883:9889  token0 */\n      swap5\n      dup6\n      and\n      swap5\n        /* \"swap/UniswapV2Pair.sol\":9933:9939  token1 */\n      swap1\n      swap4\n      and\n      swap3\n        /* \"swap/UniswapV2Pair.sol\":9965:10054  _safeTransfer(_token0, to, IERC20Uniswap(_token0).balanceOf(address(this)).sub(reserve0)) */\n      tag_253\n      swap3\n        /* \"swap/UniswapV2Pair.sol\":9883:9889  token0 */\n      dup6\n      swap3\n        /* \"swap/UniswapV2Pair.sol\":9988:9990  to */\n      dup8\n      swap3\n        /* \"swap/UniswapV2Pair.sol\":9992:10053  IERC20Uniswap(_token0).balanceOf(address(this)).sub(reserve0) */\n      tag_254\n      swap3\n      sub(shl(0x70, 0x01), 0x01)\n        /* \"swap/UniswapV2Pair.sol\":10044:10052  reserve0 */\n      and\n      swap2\n        /* \"swap/UniswapV2Pair.sol\":9883:9889  token0 */\n      dup6\n      swap2\n        /* \"swap/UniswapV2Pair.sol\":9992:10024  IERC20Uniswap(_token0).balanceOf */\n      0x70a08231\n      swap2\n        /* \"swap/UniswapV2Pair.sol\":9992:10039  IERC20Uniswap(_token0).balanceOf(address(this)) */\n      0x24\n      dup1\n      dup3\n      add\n      swap3\n      0x20\n      swap3\n      swap1\n      swap2\n      swap1\n      dup3\n      swap1\n      sub\n      add\n      dup2\n        /* \"swap/UniswapV2Pair.sol\":9883:9889  token0 */\n      dup7\n        /* \"swap/UniswapV2Pair.sol\":9992:10039  IERC20Uniswap(_token0).balanceOf(address(this)) */\n      dup1\n      extcodesize\n      iszero\n      dup1\n      iszero\n      tag_255\n      jumpi\n      0x00\n      dup1\n      revert\n    tag_255:\n      pop\n      gas\n      staticcall\n      iszero\n      dup1\n      iszero\n      tag_257\n      jumpi\n      returndatasize\n      0x00\n      dup1\n      returndatacopy\n      revert(0x00, returndatasize)\n    tag_257:\n      pop\n      pop\n      pop\n      pop\n      mload(0x40)\n      returndatasize\n      0x20\n      dup2\n      lt\n      iszero\n      tag_258\n      jumpi\n      0x00\n      dup1\n      revert\n    tag_258:\n      pop\n      mload\n      swap1\n        /* \"swap/UniswapV2Pair.sol\":9992:10043  IERC20Uniswap(_token0).balanceOf(address(this)).sub */\n      tag_158\n        /* \"swap/UniswapV2Pair.sol\":9992:10053  IERC20Uniswap(_token0).balanceOf(address(this)).sub(reserve0) */\n      jump\t// in\n    tag_254:\n        /* \"swap/UniswapV2Pair.sol\":9965:9978  _safeTransfer */\n      tag_133\n        /* \"swap/UniswapV2Pair.sol\":9965:10054  _safeTransfer(_token0, to, IERC20Uniswap(_token0).balanceOf(address(this)).sub(reserve0)) */\n      jump\t// in\n    tag_253:\n        /* \"swap/UniswapV2Pair.sol\":10065:10154  _safeTransfer(_token1, to, IERC20Uniswap(_token1).balanceOf(address(this)).sub(reserve1)) */\n      tag_259\n        /* \"swap/UniswapV2Pair.sol\":10079:10086  _token1 */\n      dup2\n        /* \"swap/UniswapV2Pair.sol\":10088:10090  to */\n      dup5\n        /* \"swap/UniswapV2Pair.sol\":10092:10153  IERC20Uniswap(_token1).balanceOf(address(this)).sub(reserve1) */\n      tag_254\n        /* \"swap/UniswapV2Pair.sol\":10144:10152  reserve1 */\n      0x08\n      0x0e\n      swap1\n      sload\n      swap1\n      0x0100\n      exp\n      swap1\n      div\n      sub(shl(0x70, 0x01), 0x01)\n      and\n      sub(shl(0x70, 0x01), 0x01)\n        /* \"swap/UniswapV2Pair.sol\":10092:10153  IERC20Uniswap(_token1).balanceOf(address(this)).sub(reserve1) */\n      and\n        /* \"swap/UniswapV2Pair.sol\":10106:10113  _token1 */\n      dup6\n      sub(shl(0xa0, 0x01), 0x01)\n        /* \"swap/UniswapV2Pair.sol\":10092:10124  IERC20Uniswap(_token1).balanceOf */\n      and\n      0x70a08231\n        /* \"swap/UniswapV2Pair.sol\":10133:10137  this */\n      address\n        /* \"swap/UniswapV2Pair.sol\":10092:10139  IERC20Uniswap(_token1).balanceOf(address(this)) */\n      mload(0x40)\n      dup3\n      0xffffffff\n      and\n      0xe0\n      shl\n      dup2\n      mstore\n      0x04\n      add\n      dup1\n      dup3\n      sub(shl(0xa0, 0x01), 0x01)\n      and\n      dup2\n      mstore\n      0x20\n      add\n      swap2\n      pop\n      pop\n      0x20\n      mload(0x40)\n      dup1\n      dup4\n      sub\n      dup2\n      dup7\n      dup1\n      extcodesize\n      iszero\n      dup1\n      iszero\n      tag_255\n      jumpi\n      0x00\n      dup1\n      revert\n        /* \"swap/UniswapV2Pair.sol\":10065:10154  _safeTransfer(_token1, to, IERC20Uniswap(_token1).balanceOf(address(this)).sub(reserve1)) */\n    tag_259:\n      pop\n      pop\n        /* \"swap/UniswapV2Pair.sol\":1346:1347  1 */\n      0x01\n        /* \"swap/UniswapV2Pair.sol\":1335:1343  unlocked */\n      0x0d\n        /* \"swap/UniswapV2Pair.sol\":1335:1347  unlocked = 1 */\n      sstore\n      pop\n        /* \"swap/UniswapV2Pair.sol\":9814:10162  function skim(address to) external lock {\r... */\n      jump\t// out\n        /* \"swap/UniswapV2Pair.sol\":568:590  address public factory */\n    tag_107:\n      and(sub(shl(0xa0, 0x01), 0x01), sload(0x05))\n      dup2\n      jump\t// out\n        /* \"swap/UniswapV2Pair.sol\":625:646  address public token1 */\n    tag_109:\n      and(sub(shl(0xa0, 0x01), 0x01), sload(0x07))\n      dup2\n      jump\t// out\n        /* \"swap/UniswapV2ERC20.sol\":2833:3507  function permit(address owner, address spender, uint value, uint deadline, uint8 v, bytes32 r, bytes32 s) external {\r... */\n    tag_112:\n        /* \"swap/UniswapV2ERC20.sol\":2979:2994  block.timestamp */\n      timestamp\n        /* \"swap/UniswapV2ERC20.sol\":2967:2975  deadline */\n      dup5\n        /* \"swap/UniswapV2ERC20.sol\":2967:2994  deadline >= block.timestamp */\n      lt\n      iszero\n        /* \"swap/UniswapV2ERC20.sol\":2959:3017  require(deadline >= block.timestamp, 'UniswapV2: EXPIRED') */\n      tag_266\n      jumpi\n      0x40\n      dup1\n      mload\n      shl(0xe5, 0x461bcd)\n      dup2\n      mstore\n      0x20\n      0x04\n      dup3\n      add\n      mstore\n      0x12\n      0x24\n      dup3\n      add\n      mstore\n      shl(0x72, 0x155b9a5cddd85c158c8e8811561412549151)\n      0x44\n      dup3\n      add\n      mstore\n      swap1\n      mload\n      swap1\n      dup2\n      swap1\n      sub\n      0x64\n      add\n      swap1\n      revert\n    tag_266:\n        /* \"swap/UniswapV2ERC20.sol\":3133:3149  DOMAIN_SEPARATOR */\n      sload(0x03)\n      sub(shl(0xa0, 0x01), 0x01)\n        /* \"swap/UniswapV2ERC20.sol\":3229:3242  nonces[owner] */\n      dup1\n      dup10\n      and\n        /* \"swap/UniswapV2ERC20.sol\":3028:3042  bytes32 digest */\n      0x00\n        /* \"swap/UniswapV2ERC20.sol\":3229:3242  nonces[owner] */\n      dup2\n      dup2\n      mstore\n        /* \"swap/UniswapV2ERC20.sol\":3229:3235  nonces */\n      0x04\n        /* \"swap/UniswapV2ERC20.sol\":3229:3242  nonces[owner] */\n      0x20\n      swap1\n      dup2\n      mstore\n      0x40\n      dup1\n      dup4\n      keccak256\n        /* \"swap/UniswapV2ERC20.sol\":3229:3244  nonces[owner]++ */\n      dup1\n      sload\n      0x01\n      dup1\n      dup3\n      add\n      swap1\n      swap3\n      sstore\n        /* \"swap/UniswapV2ERC20.sol\":3178:3255  abi.encode(PERMIT_TYPEHASH, owner, spender, value, nonces[owner]++, deadline) */\n      dup3\n      mload\n        /* \"swap/UniswapV2ERC20.sol\":645:711  0x6e71edae12b1b97f4d1f60370fef10105fa2faae0126114a169c64845d6126c9 */\n      0x6e71edae12b1b97f4d1f60370fef10105fa2faae0126114a169c64845d6126c9\n        /* \"swap/UniswapV2ERC20.sol\":3178:3255  abi.encode(PERMIT_TYPEHASH, owner, spender, value, nonces[owner]++, deadline) */\n      dup2\n      dup7\n      add\n      mstore\n      dup1\n      dup5\n      add\n      swap7\n      swap1\n      swap7\n      mstore\n      swap6\n      dup14\n      and\n      0x60\n      dup7\n      add\n      mstore\n      0x80\n      dup6\n      add\n      dup13\n      swap1\n      mstore\n      0xa0\n      dup6\n      add\n      swap6\n      swap1\n      swap6\n      mstore\n      0xc0\n      dup1\n      dup6\n      add\n      dup12\n      swap1\n      mstore\n      dup2\n      mload\n      dup1\n      dup7\n      sub\n      swap1\n      swap2\n      add\n      dup2\n      mstore\n      0xe0\n      dup6\n      add\n      dup3\n      mstore\n        /* \"swap/UniswapV2ERC20.sol\":3168:3256  keccak256(abi.encode(PERMIT_TYPEHASH, owner, spender, value, nonces[owner]++, deadline)) */\n      dup1\n      mload\n      swap1\n      dup4\n      add\n      keccak256\n      shl(0xf0, 0x1901)\n        /* \"swap/UniswapV2ERC20.sol\":3069:3271  abi.encodePacked(\r... */\n      0x0100\n      dup7\n      add\n      mstore\n      0x0102\n      dup6\n      add\n      swap7\n      swap1\n      swap7\n      mstore\n      0x0122\n      dup1\n      dup6\n      add\n      swap7\n      swap1\n      swap7\n      mstore\n      dup1\n      mload\n      dup1\n      dup6\n      sub\n      swap1\n      swap7\n      add\n      dup7\n      mstore\n      0x0142\n      dup5\n      add\n      dup1\n      dup3\n      mstore\n        /* \"swap/UniswapV2ERC20.sol\":3045:3282  keccak256(\r... */\n      dup7\n      mload\n      swap7\n      dup4\n      add\n      swap7\n      swap1\n      swap7\n      keccak256\n        /* \"swap/UniswapV2ERC20.sol\":3320:3346  ecrecover(digest, v, r, s) */\n      swap6\n      dup4\n      swap1\n      mstore\n      0x0162\n      dup5\n      add\n      dup1\n      dup3\n      mstore\n      dup7\n      swap1\n      mstore\n      0xff\n      dup10\n      and\n      0x0182\n      dup6\n      add\n      mstore\n      0x01a2\n      dup5\n      add\n      dup9\n      swap1\n      mstore\n      0x01c2\n      dup5\n      add\n      dup8\n      swap1\n      mstore\n      mload\n        /* \"swap/UniswapV2ERC20.sol\":3028:3042  bytes32 digest */\n      swap2\n      swap4\n        /* \"swap/UniswapV2ERC20.sol\":3229:3244  nonces[owner]++ */\n      swap3\n        /* \"swap/UniswapV2ERC20.sol\":3320:3346  ecrecover(digest, v, r, s) */\n      0x01e2\n      dup1\n      dup3\n      add\n      swap4\n      not(0x1f)\n      dup2\n      add\n      swap3\n      dup2\n      swap1\n      sub\n      swap1\n      swap2\n      add\n      swap1\n        /* \"swap/UniswapV2ERC20.sol\":3229:3244  nonces[owner]++ */\n      dup6\n        /* \"swap/UniswapV2ERC20.sol\":3320:3346  ecrecover(digest, v, r, s) */\n      gas\n      staticcall\n      iszero\n      dup1\n      iszero\n      tag_268\n      jumpi\n      returndatasize\n      0x00\n      dup1\n      returndatacopy\n      revert(0x00, returndatasize)\n    tag_268:\n      pop\n      pop\n      mload(add(not(0x1f), mload(0x40)))\n      swap2\n      pop\n      pop\n      sub(shl(0xa0, 0x01), 0x01)\n        /* \"swap/UniswapV2ERC20.sol\":3365:3395  recoveredAddress != address(0) */\n      dup2\n      and\n      iszero\n      dup1\n      iszero\n      swap1\n        /* \"swap/UniswapV2ERC20.sol\":3365:3424  recoveredAddress != address(0) && recoveredAddress == owner */\n      tag_269\n      jumpi\n      pop\n        /* \"swap/UniswapV2ERC20.sol\":3419:3424  owner */\n      dup9\n      sub(shl(0xa0, 0x01), 0x01)\n        /* \"swap/UniswapV2ERC20.sol\":3399:3424  recoveredAddress == owner */\n      and\n        /* \"swap/UniswapV2ERC20.sol\":3399:3415  recoveredAddress */\n      dup2\n      sub(shl(0xa0, 0x01), 0x01)\n        /* \"swap/UniswapV2ERC20.sol\":3399:3424  recoveredAddress == owner */\n      and\n      eq\n        /* \"swap/UniswapV2ERC20.sol\":3365:3424  recoveredAddress != address(0) && recoveredAddress == owner */\n    tag_269:\n        /* \"swap/UniswapV2ERC20.sol\":3357:3457  require(recoveredAddress != address(0) && recoveredAddress == owner, 'UniswapV2: INVALID_SIGNATURE') */\n      tag_270\n      jumpi\n      0x40\n      dup1\n      mload\n      shl(0xe5, 0x461bcd)\n      dup2\n      mstore\n      0x20\n      0x04\n      dup3\n      add\n      mstore\n      0x1c\n      0x24\n      dup3\n      add\n      mstore\n      0x556e697377617056323a20494e56414c49445f5349474e415455524500000000\n      0x44\n      dup3\n      add\n      mstore\n      swap1\n      mload\n      swap1\n      dup2\n      swap1\n      sub\n      0x64\n      add\n      swap1\n      revert\n    tag_270:\n        /* \"swap/UniswapV2ERC20.sol\":3468:3499  _approve(owner, spender, value) */\n      tag_271\n        /* \"swap/UniswapV2ERC20.sol\":3477:3482  owner */\n      dup10\n        /* \"swap/UniswapV2ERC20.sol\":3484:3491  spender */\n      dup10\n        /* \"swap/UniswapV2ERC20.sol\":3493:3498  value */\n      dup10\n        /* \"swap/UniswapV2ERC20.sol\":3468:3476  _approve */\n      tag_171\n        /* \"swap/UniswapV2ERC20.sol\":3468:3499  _approve(owner, spender, value) */\n      jump\t// in\n    tag_271:\n        /* \"swap/UniswapV2ERC20.sol\":2833:3507  function permit(address owner, address spender, uint value, uint deadline, uint8 v, bytes32 r, bytes32 s) external {\r... */\n      pop\n      pop\n      pop\n      pop\n      pop\n      pop\n      pop\n      pop\n      pop\n      jump\t// out\n        /* \"swap/UniswapV2Pair.sol\":2641:2918  function setSwapFee(uint32 _swapFee) external {\r... */\n    tag_115:\n        /* \"swap/UniswapV2Pair.sol\":2717:2718  0 */\n      0x00\n        /* \"swap/UniswapV2Pair.sol\":2706:2714  _swapFee */\n      dup2\n        /* \"swap/UniswapV2Pair.sol\":2706:2718  _swapFee > 0 */\n      0xffffffff\n      and\n      gt\n        /* \"swap/UniswapV2Pair.sol\":2698:2748  require(_swapFee > 0, \"UniswapPair: lower then 0\") */\n      tag_273\n      jumpi\n      0x40\n      dup1\n      mload\n      shl(0xe5, 0x461bcd)\n      dup2\n      mstore\n      0x20\n      0x04\n      dup3\n      add\n      mstore\n      0x19\n      0x24\n      dup3\n      add\n      mstore\n      0x556e6973776170506169723a206c6f776572207468656e203000000000000000\n      0x44\n      dup3\n      add\n      mstore\n      swap1\n      mload\n      swap1\n      dup2\n      swap1\n      sub\n      0x64\n      add\n      swap1\n      revert\n    tag_273:\n        /* \"swap/UniswapV2Pair.sol\":2781:2788  factory */\n      and(sub(shl(0xa0, 0x01), 0x01), sload(0x05))\n        /* \"swap/UniswapV2Pair.sol\":2767:2777  msg.sender */\n      caller\n        /* \"swap/UniswapV2Pair.sol\":2767:2788  msg.sender == factory */\n      eq\n        /* \"swap/UniswapV2Pair.sol\":2759:2815  require(msg.sender == factory, 'UniswapPair: FORBIDDEN') */\n      tag_274\n      jumpi\n      0x40\n      dup1\n      mload\n      shl(0xe5, 0x461bcd)\n      dup2\n      mstore\n      0x20\n      0x04\n      dup3\n      add\n      mstore\n      0x16\n      0x24\n      dup3\n      add\n      mstore\n      shl(0x51, 0x2ab734b9bbb0b82830b4b91d102327a92124a22222a7)\n      0x44\n      dup3\n      add\n      mstore\n      swap1\n      mload\n      swap1\n      dup2\n      swap1\n      sub\n      0x64\n      add\n      swap1\n      revert\n    tag_274:\n        /* \"swap/UniswapV2Pair.sol\":2846:2850  1000 */\n      0x03e8\n        /* \"swap/UniswapV2Pair.sol\":2834:2842  _swapFee */\n      dup2\n        /* \"swap/UniswapV2Pair.sol\":2834:2850  _swapFee <= 1000 */\n      0xffffffff\n      and\n      gt\n      iszero\n        /* \"swap/UniswapV2Pair.sol\":2826:2881  require(_swapFee <= 1000, 'UniswapPair: FORBIDDEN_FEE') */\n      tag_275\n      jumpi\n      0x40\n      dup1\n      mload\n      shl(0xe5, 0x461bcd)\n      dup2\n      mstore\n      0x20\n      0x04\n      dup3\n      add\n      mstore\n      0x1a\n      0x24\n      dup3\n      add\n      mstore\n      0x556e6973776170506169723a20464f5242494444454e5f464545000000000000\n      0x44\n      dup3\n      add\n      mstore\n      swap1\n      mload\n      swap1\n      dup2\n      swap1\n      sub\n      0x64\n      add\n      swap1\n      revert\n    tag_275:\n        /* \"swap/UniswapV2Pair.sol\":2892:2899  swapFee */\n      0x0c\n        /* \"swap/UniswapV2Pair.sol\":2892:2910  swapFee = _swapFee */\n      dup1\n      sload\n      not(0xffffffff)\n      and\n      0xffffffff\n      swap3\n      swap1\n      swap3\n      and\n      swap2\n      swap1\n      swap2\n      or\n      swap1\n      sstore\n        /* \"swap/UniswapV2Pair.sol\":2641:2918  function setSwapFee(uint32 _swapFee) external {\r... */\n      jump\t// out\n        /* \"swap/UniswapV2ERC20.sol\":390:451  mapping(address => mapping(address => uint)) public allowance */\n    tag_118:\n      0x02\n      0x20\n      swap1\n      dup2\n      mstore\n      0x00\n      swap3\n      dup4\n      mstore\n      0x40\n      dup1\n      dup5\n      keccak256\n      swap1\n      swap2\n      mstore\n      swap1\n      dup3\n      mstore\n      swap1\n      keccak256\n      sload\n      dup2\n      jump\t// out\n        /* \"swap/UniswapV2Pair.sol\":10211:10383  function sync() external lock {\r... */\n    tag_120:\n        /* \"swap/UniswapV2Pair.sol\":1254:1262  unlocked */\n      sload(0x0d)\n        /* \"swap/UniswapV2Pair.sol\":1266:1267  1 */\n      0x01\n        /* \"swap/UniswapV2Pair.sol\":1254:1267  unlocked == 1 */\n      eq\n        /* \"swap/UniswapV2Pair.sol\":1246:1289  require(unlocked == 1, 'UniswapV2: LOCKED') */\n      tag_277\n      jumpi\n      0x40\n      dup1\n      mload\n      shl(0xe5, 0x461bcd)\n      dup2\n      mstore\n      0x20\n      0x04\n      dup3\n      add\n      mstore\n      0x11\n      0x24\n      dup3\n      add\n      mstore\n      shl(0x7a, 0x155b9a5cddd85c158c8e881313d0d2d151)\n      0x44\n      dup3\n      add\n      mstore\n      swap1\n      mload\n      swap1\n      dup2\n      swap1\n      sub\n      0x64\n      add\n      swap1\n      revert\n    tag_277:\n        /* \"swap/UniswapV2Pair.sol\":1311:1312  0 */\n      0x00\n        /* \"swap/UniswapV2Pair.sol\":1300:1308  unlocked */\n      0x0d\n        /* \"swap/UniswapV2Pair.sol\":1300:1312  unlocked = 0 */\n      sstore\n        /* \"swap/UniswapV2Pair.sol\":10274:10280  token0 */\n      sload(0x06)\n        /* \"swap/UniswapV2Pair.sol\":10260:10306  IERC20Uniswap(token0).balanceOf(address(this)) */\n      0x40\n      dup1\n      mload\n      shl(0xe0, 0x70a08231)\n      dup2\n      mstore\n        /* \"swap/UniswapV2Pair.sol\":10300:10304  this */\n      address\n        /* \"swap/UniswapV2Pair.sol\":10260:10306  IERC20Uniswap(token0).balanceOf(address(this)) */\n      0x04\n      dup3\n      add\n      mstore\n      swap1\n      mload\n        /* \"swap/UniswapV2Pair.sol\":10252:10375  _update(IERC20Uniswap(token0).balanceOf(address(this)), IERC20Uniswap(token1).balanceOf(address(this)), reserve0, reserve1) */\n      tag_279\n      swap3\n      sub(shl(0xa0, 0x01), 0x01)\n        /* \"swap/UniswapV2Pair.sol\":10274:10280  token0 */\n      and\n      swap2\n        /* \"swap/UniswapV2Pair.sol\":10260:10291  IERC20Uniswap(token0).balanceOf */\n      0x70a08231\n      swap2\n        /* \"swap/UniswapV2Pair.sol\":10260:10306  IERC20Uniswap(token0).balanceOf(address(this)) */\n      0x24\n      dup1\n      dup4\n      add\n      swap3\n      0x20\n      swap3\n      swap2\n      swap1\n      dup3\n      swap1\n      sub\n      add\n      dup2\n        /* \"swap/UniswapV2Pair.sol\":10274:10280  token0 */\n      dup7\n        /* \"swap/UniswapV2Pair.sol\":10260:10306  IERC20Uniswap(token0).balanceOf(address(this)) */\n      dup1\n      extcodesize\n      iszero\n      dup1\n      iszero\n      tag_280\n      jumpi\n      0x00\n      dup1\n      revert\n    tag_280:\n      pop\n      gas\n      staticcall\n      iszero\n      dup1\n      iszero\n      tag_282\n      jumpi\n      returndatasize\n      0x00\n      dup1\n      returndatacopy\n      revert(0x00, returndatasize)\n    tag_282:\n      pop\n      pop\n      pop\n      pop\n      mload(0x40)\n      returndatasize\n      0x20\n      dup2\n      lt\n      iszero\n      tag_283\n      jumpi\n      0x00\n      dup1\n      revert\n    tag_283:\n      pop\n      mload\n        /* \"swap/UniswapV2Pair.sol\":10322:10328  token1 */\n      sload(0x07)\n        /* \"swap/UniswapV2Pair.sol\":10308:10354  IERC20Uniswap(token1).balanceOf(address(this)) */\n      0x40\n      dup1\n      mload\n      shl(0xe0, 0x70a08231)\n      dup2\n      mstore\n        /* \"swap/UniswapV2Pair.sol\":10348:10352  this */\n      address\n        /* \"swap/UniswapV2Pair.sol\":10308:10354  IERC20Uniswap(token1).balanceOf(address(this)) */\n      0x04\n      dup3\n      add\n      mstore\n      swap1\n      mload\n      sub(shl(0xa0, 0x01), 0x01)\n        /* \"swap/UniswapV2Pair.sol\":10322:10328  token1 */\n      swap1\n      swap3\n      and\n      swap2\n        /* \"swap/UniswapV2Pair.sol\":10308:10339  IERC20Uniswap(token1).balanceOf */\n      0x70a08231\n      swap2\n        /* \"swap/UniswapV2Pair.sol\":10308:10354  IERC20Uniswap(token1).balanceOf(address(this)) */\n      0x24\n      dup1\n      dup3\n      add\n      swap3\n        /* \"swap/UniswapV2Pair.sol\":10260:10306  IERC20Uniswap(token0).balanceOf(address(this)) */\n      0x20\n      swap3\n        /* \"swap/UniswapV2Pair.sol\":10308:10354  IERC20Uniswap(token1).balanceOf(address(this)) */\n      swap1\n      swap2\n      swap1\n      dup3\n      swap1\n      sub\n      add\n      dup2\n        /* \"swap/UniswapV2Pair.sol\":10322:10328  token1 */\n      dup7\n        /* \"swap/UniswapV2Pair.sol\":10308:10354  IERC20Uniswap(token1).balanceOf(address(this)) */\n      dup1\n      extcodesize\n      iszero\n      dup1\n      iszero\n      tag_284\n      jumpi\n      0x00\n      dup1\n      revert\n    tag_284:\n      pop\n      gas\n      staticcall\n      iszero\n      dup1\n      iszero\n      tag_286\n      jumpi\n      returndatasize\n      0x00\n      dup1\n      returndatacopy\n      revert(0x00, returndatasize)\n    tag_286:\n      pop\n      pop\n      pop\n      pop\n      mload(0x40)\n      returndatasize\n      0x20\n      dup2\n      lt\n      iszero\n      tag_287\n      jumpi\n      0x00\n      dup1\n      revert\n    tag_287:\n      pop\n      mload\n        /* \"swap/UniswapV2Pair.sol\":10356:10364  reserve0 */\n      sload(0x08)\n      sub(shl(0x70, 0x01), 0x01)\n      dup1\n      dup3\n      and\n      swap2\n      shl(0x70, 0x01)\n        /* \"swap/UniswapV2Pair.sol\":10366:10374  reserve1 */\n      swap1\n      div\n      and\n        /* \"swap/UniswapV2Pair.sol\":10252:10259  _update */\n      tag_167\n        /* \"swap/UniswapV2Pair.sol\":10252:10375  _update(IERC20Uniswap(token0).balanceOf(address(this)), IERC20Uniswap(token1).balanceOf(address(this)), reserve0, reserve1) */\n      jump\t// in\n    tag_279:\n        /* \"swap/UniswapV2Pair.sol\":1346:1347  1 */\n      0x01\n        /* \"swap/UniswapV2Pair.sol\":1335:1343  unlocked */\n      0x0d\n        /* \"swap/UniswapV2Pair.sol\":1335:1347  unlocked = 1 */\n      sstore\n        /* \"swap/UniswapV2Pair.sol\":10211:10383  function sync() external lock {\r... */\n      jump\t// out\n        /* \"swap/UniswapV2Pair.sol\":1602:1889  function _safeTransfer(address token, address to, uint value) private {\r... */\n    tag_133:\n        /* \"swap/UniswapV2Pair.sol\":523:557  bytes('transfer(address,uint256)') */\n      0x40\n      dup1\n      mload\n      dup1\n      dup3\n      add\n      dup3\n      mstore\n      0x19\n      dup2\n      mstore\n      0x7472616e7366657228616464726573732c75696e743235362900000000000000\n      0x20\n      swap2\n      dup3\n      add\n      mstore\n        /* \"swap/UniswapV2Pair.sol\":1730:1773  abi.encodeWithSelector(SELECTOR, to, value) */\n      dup2\n      mload\n      sub(shl(0xa0, 0x01), 0x01)\n      dup6\n      dup2\n      and\n      0x24\n      dup4\n      add\n      mstore\n      0x44\n      dup1\n      dup4\n      add\n      dup7\n      swap1\n      mstore\n      dup5\n      mload\n      dup1\n      dup5\n      sub\n      swap1\n      swap2\n      add\n      dup2\n      mstore\n      0x64\n      swap1\n      swap3\n      add\n      dup5\n      mstore\n      swap2\n      dup2\n      add\n      dup1\n      mload\n      sub(shl(0xe0, 0x01), 0x01)\n      and\n      shl(0xe0, 0xa9059cbb)\n      or\n      dup2\n      mstore\n        /* \"swap/UniswapV2Pair.sol\":1719:1774  token.call(abi.encodeWithSelector(SELECTOR, to, value)) */\n      swap3\n      mload\n      dup2\n      mload\n        /* \"swap/UniswapV2Pair.sol\":1684:1696  bool success */\n      0x00\n      swap5\n        /* \"swap/UniswapV2Pair.sol\":1698:1715  bytes memory data */\n      0x60\n      swap5\n        /* \"swap/UniswapV2Pair.sol\":1719:1729  token.call */\n      dup10\n      and\n      swap4\n        /* \"swap/UniswapV2Pair.sol\":1730:1773  abi.encodeWithSelector(SELECTOR, to, value) */\n      swap3\n        /* \"swap/UniswapV2Pair.sol\":1719:1774  token.call(abi.encodeWithSelector(SELECTOR, to, value)) */\n      swap2\n      dup3\n      swap2\n        /* \"swap/UniswapV2Pair.sol\":1730:1773  abi.encodeWithSelector(SELECTOR, to, value) */\n      swap1\n        /* \"swap/UniswapV2Pair.sol\":1719:1774  token.call(abi.encodeWithSelector(SELECTOR, to, value)) */\n      dup1\n      dup4\n        /* \"swap/UniswapV2Pair.sol\":1730:1773  abi.encodeWithSelector(SELECTOR, to, value) */\n      dup4\n        /* \"swap/UniswapV2Pair.sol\":1719:1774  token.call(abi.encodeWithSelector(SELECTOR, to, value)) */\n    tag_289:\n      0x20\n      dup4\n      lt\n      tag_291\n      jumpi\n      dup1\n      mload\n      dup3\n      mstore\n      not(0x1f)\n      swap1\n      swap3\n      add\n      swap2\n      0x20\n      swap2\n      dup3\n      add\n      swap2\n      add\n      jump(tag_289)\n    tag_291:\n      0x01\n      dup4\n      0x20\n      sub\n      0x0100\n      exp\n      sub\n      dup1\n      not\n      dup3\n      mload\n      and\n      dup2\n      dup5\n      mload\n      and\n      dup1\n      dup3\n      or\n      dup6\n      mstore\n      pop\n      pop\n      pop\n      pop\n      pop\n      pop\n      swap1\n      pop\n      add\n      swap2\n      pop\n      pop\n      0x00\n      mload(0x40)\n      dup1\n      dup4\n      sub\n      dup2\n      0x00\n      dup7\n      gas\n      call\n      swap2\n      pop\n      pop\n      returndatasize\n      dup1\n      0x00\n      dup2\n      eq\n      tag_294\n      jumpi\n      mload(0x40)\n      swap2\n      pop\n      and(add(returndatasize, 0x3f), not(0x1f))\n      dup3\n      add\n      0x40\n      mstore\n      returndatasize\n      dup3\n      mstore\n      returndatasize\n      0x00\n      0x20\n      dup5\n      add\n      returndatacopy\n      jump(tag_293)\n    tag_294:\n      0x60\n      swap2\n      pop\n    tag_293:\n      pop\n        /* \"swap/UniswapV2Pair.sol\":1683:1774  (bool success, bytes memory data) = token.call(abi.encodeWithSelector(SELECTOR, to, value)) */\n      swap2\n      pop\n      swap2\n      pop\n        /* \"swap/UniswapV2Pair.sol\":1793:1800  success */\n      dup2\n        /* \"swap/UniswapV2Pair.sol\":1793:1850  success && (data.length == 0 || abi.decode(data, (bool))) */\n      dup1\n      iszero\n      tag_296\n      jumpi\n      pop\n        /* \"swap/UniswapV2Pair.sol\":1805:1816  data.length */\n      dup1\n      mload\n        /* \"swap/UniswapV2Pair.sol\":1805:1821  data.length == 0 */\n      iszero\n      dup1\n        /* \"swap/UniswapV2Pair.sol\":1805:1849  data.length == 0 || abi.decode(data, (bool)) */\n      tag_296\n      jumpi\n      pop\n        /* \"swap/UniswapV2Pair.sol\":1836:1840  data */\n      dup1\n        /* \"swap/UniswapV2Pair.sol\":1825:1849  abi.decode(data, (bool)) */\n      dup1\n      0x20\n      add\n      swap1\n      mload\n      0x20\n      dup2\n      lt\n      iszero\n      tag_297\n      jumpi\n      0x00\n      dup1\n      revert\n    tag_297:\n      pop\n      mload\n        /* \"swap/UniswapV2Pair.sol\":1805:1849  data.length == 0 || abi.decode(data, (bool)) */\n    tag_296:\n        /* \"swap/UniswapV2Pair.sol\":1785:1881  require(success && (data.length == 0 || abi.decode(data, (bool))), 'UniswapV2: TRANSFER_FAILED') */\n      tag_298\n      jumpi\n      0x40\n      dup1\n      mload\n      shl(0xe5, 0x461bcd)\n      dup2\n      mstore\n      0x20\n      0x04\n      dup3\n      add\n      mstore\n      0x1a\n      0x24\n      dup3\n      add\n      mstore\n      0x556e697377617056323a205452414e534645525f4641494c4544000000000000\n      0x44\n      dup3\n      add\n      mstore\n      swap1\n      mload\n      swap1\n      dup2\n      swap1\n      sub\n      0x64\n      add\n      swap1\n      revert\n    tag_298:\n        /* \"swap/UniswapV2Pair.sol\":1602:1889  function _safeTransfer(address token, address to, uint value) private {\r... */\n      pop\n      pop\n      pop\n      pop\n      pop\n      jump\t// out\n        /* \"swap/libraries/SafeMath.sol\":479:621  function mul(uint x, uint y) internal pure returns (uint z) {\r... */\n    tag_156:\n        /* \"swap/libraries/SafeMath.sol\":531:537  uint z */\n      0x00\n        /* \"swap/libraries/SafeMath.sol\":558:564  y == 0 */\n      dup2\n      iszero\n      dup1\n        /* \"swap/libraries/SafeMath.sol\":558:588  y == 0 || (z = x * y) / y == x */\n      tag_300\n      jumpi\n      pop\n      pop\n        /* \"swap/libraries/SafeMath.sol\":573:578  x * y */\n      dup1\n      dup3\n      mul\n        /* \"swap/libraries/SafeMath.sol\":587:588  x */\n      dup3\n        /* \"swap/libraries/SafeMath.sol\":582:583  y */\n      dup3\n        /* \"swap/libraries/SafeMath.sol\":573:578  x * y */\n      dup3\n        /* \"swap/libraries/SafeMath.sol\":582:583  y */\n      dup2\n        /* \"swap/libraries/SafeMath.sol\":568:583  (z = x * y) / y */\n      tag_301\n      jumpi\n      invalid\n    tag_301:\n      div\n        /* \"swap/libraries/SafeMath.sol\":568:588  (z = x * y) / y == x */\n      eq\n        /* \"swap/libraries/SafeMath.sol\":558:588  y == 0 || (z = x * y) / y == x */\n    tag_300:\n        /* \"swap/libraries/SafeMath.sol\":550:613  require(y == 0 || (z = x * y) / y == x, 'ds-math-mul-overflow') */\n      tag_169\n      jumpi\n      0x40\n      dup1\n      mload\n      shl(0xe5, 0x461bcd)\n      dup2\n      mstore\n      0x20\n      0x04\n      dup3\n      add\n      mstore\n      0x14\n      0x24\n      dup3\n      add\n      mstore\n      shl(0x60, 0x64732d6d6174682d6d756c2d6f766572666c6f77)\n      0x44\n      dup3\n      add\n      mstore\n      swap1\n      mload\n      swap1\n      dup2\n      swap1\n      sub\n      0x64\n      add\n      swap1\n      revert\n        /* \"swap/libraries/SafeMath.sol\":342:471  function sub(uint x, uint y) internal pure returns (uint z) {\r... */\n    tag_158:\n        /* \"swap/libraries/SafeMath.sol\":426:431  x - y */\n      dup1\n      dup3\n      sub\n        /* \"swap/libraries/SafeMath.sol\":421:437  (z = x - y) <= x */\n      dup3\n      dup2\n      gt\n      iszero\n        /* \"swap/libraries/SafeMath.sol\":413:463  require((z = x - y) <= x, 'ds-math-sub-underflow') */\n      tag_169\n      jumpi\n      0x40\n      dup1\n      mload\n      shl(0xe5, 0x461bcd)\n      dup2\n      mstore\n      0x20\n      0x04\n      dup3\n      add\n      mstore\n      0x15\n      0x24\n      dup3\n      add\n      mstore\n      shl(0x58, 0x64732d6d6174682d7375622d756e646572666c6f77)\n      0x44\n      dup3\n      add\n      mstore\n      swap1\n      mload\n      swap1\n      dup2\n      swap1\n      sub\n      0x64\n      add\n      swap1\n      revert\n        /* \"swap/UniswapV2Pair.sol\":3003:3863  function _update(uint balance0, uint balance1, uint112 _reserve0, uint112 _reserve1) private {\r... */\n    tag_167:\n      sub(shl(0x70, 0x01), 0x01)\n        /* \"swap/UniswapV2Pair.sol\":3115:3138  balance0 <= uint112(-1) */\n      dup5\n      gt\n      dup1\n      iszero\n      swap1\n        /* \"swap/UniswapV2Pair.sol\":3115:3165  balance0 <= uint112(-1) && balance1 <= uint112(-1) */\n      tag_306\n      jumpi\n      pop\n      sub(shl(0x70, 0x01), 0x01)\n        /* \"swap/UniswapV2Pair.sol\":3142:3165  balance1 <= uint112(-1) */\n      dup4\n      gt\n      iszero\n        /* \"swap/UniswapV2Pair.sol\":3115:3165  balance0 <= uint112(-1) && balance1 <= uint112(-1) */\n    tag_306:\n        /* \"swap/UniswapV2Pair.sol\":3107:3189  require(balance0 <= uint112(-1) && balance1 <= uint112(-1), 'UniswapV2: OVERFLOW') */\n      tag_307\n      jumpi\n      0x40\n      dup1\n      mload\n      shl(0xe5, 0x461bcd)\n      dup2\n      mstore\n      0x20\n      0x04\n      dup3\n      add\n      mstore\n      0x13\n      0x24\n      dup3\n      add\n      mstore\n      shl(0x68, 0x556e697377617056323a204f564552464c4f57)\n      0x44\n      dup3\n      add\n      mstore\n      swap1\n      mload\n      swap1\n      dup2\n      swap1\n      sub\n      0x64\n      add\n      swap1\n      revert\n    tag_307:\n        /* \"swap/UniswapV2Pair.sol\":3304:3322  blockTimestampLast */\n      sload(0x08)\n        /* \"swap/UniswapV2Pair.sol\":3231:3254  block.timestamp % 2**32 */\n      0xffffffff\n        /* \"swap/UniswapV2Pair.sol\":3231:3246  block.timestamp */\n      timestamp\n        /* \"swap/UniswapV2Pair.sol\":3231:3254  block.timestamp % 2**32 */\n      dup2\n      and\n      swap2\n      shl(0xe0, 0x01)\n        /* \"swap/UniswapV2Pair.sol\":3304:3322  blockTimestampLast */\n      swap1\n      div\n      dup2\n      and\n        /* \"swap/UniswapV2Pair.sol\":3287:3322  blockTimestamp - blockTimestampLast */\n      dup3\n      sub\n      swap1\n        /* \"swap/UniswapV2Pair.sol\":3360:3375  timeElapsed > 0 */\n      dup2\n      and\n      iszero\n      dup1\n      iszero\n      swap1\n        /* \"swap/UniswapV2Pair.sol\":3360:3393  timeElapsed > 0 && _reserve0 != 0 */\n      tag_309\n      jumpi\n      pop\n      sub(shl(0x70, 0x01), 0x01)\n        /* \"swap/UniswapV2Pair.sol\":3379:3393  _reserve0 != 0 */\n      dup5\n      and\n      iszero\n      iszero\n        /* \"swap/UniswapV2Pair.sol\":3360:3393  timeElapsed > 0 && _reserve0 != 0 */\n    tag_309:\n        /* \"swap/UniswapV2Pair.sol\":3360:3411  timeElapsed > 0 && _reserve0 != 0 && _reserve1 != 0 */\n      dup1\n      iszero\n      tag_310\n      jumpi\n      pop\n      sub(shl(0x70, 0x01), 0x01)\n        /* \"swap/UniswapV2Pair.sol\":3397:3411  _reserve1 != 0 */\n      dup4\n      and\n      iszero\n      iszero\n        /* \"swap/UniswapV2Pair.sol\":3360:3411  timeElapsed > 0 && _reserve0 != 0 && _reserve1 != 0 */\n    tag_310:\n        /* \"swap/UniswapV2Pair.sol\":3356:3692  if (timeElapsed > 0 && _reserve0 != 0 && _reserve1 != 0) {\r... */\n      iszero\n      tag_311\n      jumpi\n        /* \"swap/UniswapV2Pair.sol\":3566:3577  timeElapsed */\n      dup1\n        /* \"swap/UniswapV2Pair.sol\":3513:3577  uint(UQ112x112.encode(_reserve1).uqdiv(_reserve0)) * timeElapsed */\n      0xffffffff\n      and\n        /* \"swap/UniswapV2Pair.sol\":3518:3562  UQ112x112.encode(_reserve1).uqdiv(_reserve0) */\n      tag_312\n        /* \"swap/UniswapV2Pair.sol\":3552:3561  _reserve0 */\n      dup6\n        /* \"swap/UniswapV2Pair.sol\":3518:3545  UQ112x112.encode(_reserve1) */\n      tag_313\n        /* \"swap/UniswapV2Pair.sol\":3535:3544  _reserve1 */\n      dup7\n        /* \"swap/UniswapV2Pair.sol\":3518:3534  UQ112x112.encode */\n      tag_314\n        /* \"swap/UniswapV2Pair.sol\":3518:3545  UQ112x112.encode(_reserve1) */\n      jump\t// in\n    tag_313:\n      sub(shl(0xe0, 0x01), 0x01)\n        /* \"swap/UniswapV2Pair.sol\":3518:3551  UQ112x112.encode(_reserve1).uqdiv */\n      and\n      swap1\n      tag_315\n        /* \"swap/UniswapV2Pair.sol\":3518:3562  UQ112x112.encode(_reserve1).uqdiv(_reserve0) */\n      jump\t// in\n    tag_312:\n        /* \"swap/UniswapV2Pair.sol\":3489:3509  price0CumulativeLast */\n      0x09\n        /* \"swap/UniswapV2Pair.sol\":3489:3577  price0CumulativeLast += uint(UQ112x112.encode(_reserve1).uqdiv(_reserve0)) * timeElapsed */\n      dup1\n      sload\n      sub(shl(0xe0, 0x01), 0x01)\n        /* \"swap/UniswapV2Pair.sol\":3513:3563  uint(UQ112x112.encode(_reserve1).uqdiv(_reserve0)) */\n      swap3\n      swap1\n      swap3\n      and\n        /* \"swap/UniswapV2Pair.sol\":3513:3577  uint(UQ112x112.encode(_reserve1).uqdiv(_reserve0)) * timeElapsed */\n      swap3\n      swap1\n      swap3\n      mul\n        /* \"swap/UniswapV2Pair.sol\":3489:3577  price0CumulativeLast += uint(UQ112x112.encode(_reserve1).uqdiv(_reserve0)) * timeElapsed */\n      add\n      swap1\n      sstore\n        /* \"swap/UniswapV2Pair.sol\":3616:3680  uint(UQ112x112.encode(_reserve0).uqdiv(_reserve1)) * timeElapsed */\n      0xffffffff\n      dup2\n      and\n        /* \"swap/UniswapV2Pair.sol\":3621:3665  UQ112x112.encode(_reserve0).uqdiv(_reserve1) */\n      tag_316\n        /* \"swap/UniswapV2Pair.sol\":3655:3664  _reserve1 */\n      dup5\n        /* \"swap/UniswapV2Pair.sol\":3621:3648  UQ112x112.encode(_reserve0) */\n      tag_313\n        /* \"swap/UniswapV2Pair.sol\":3638:3647  _reserve0 */\n      dup8\n        /* \"swap/UniswapV2Pair.sol\":3621:3637  UQ112x112.encode */\n      tag_314\n        /* \"swap/UniswapV2Pair.sol\":3621:3648  UQ112x112.encode(_reserve0) */\n      jump\t// in\n        /* \"swap/UniswapV2Pair.sol\":3621:3665  UQ112x112.encode(_reserve0).uqdiv(_reserve1) */\n    tag_316:\n        /* \"swap/UniswapV2Pair.sol\":3592:3612  price1CumulativeLast */\n      0x0a\n        /* \"swap/UniswapV2Pair.sol\":3592:3680  price1CumulativeLast += uint(UQ112x112.encode(_reserve0).uqdiv(_reserve1)) * timeElapsed */\n      dup1\n      sload\n      sub(shl(0xe0, 0x01), 0x01)\n        /* \"swap/UniswapV2Pair.sol\":3616:3666  uint(UQ112x112.encode(_reserve0).uqdiv(_reserve1)) */\n      swap3\n      swap1\n      swap3\n      and\n        /* \"swap/UniswapV2Pair.sol\":3616:3680  uint(UQ112x112.encode(_reserve0).uqdiv(_reserve1)) * timeElapsed */\n      swap3\n      swap1\n      swap3\n      mul\n        /* \"swap/UniswapV2Pair.sol\":3592:3680  price1CumulativeLast += uint(UQ112x112.encode(_reserve0).uqdiv(_reserve1)) * timeElapsed */\n      add\n      swap1\n      sstore\n        /* \"swap/UniswapV2Pair.sol\":3356:3692  if (timeElapsed > 0 && _reserve0 != 0 && _reserve1 != 0) {\r... */\n    tag_311:\n        /* \"swap/UniswapV2Pair.sol\":3702:3710  reserve0 */\n      0x08\n        /* \"swap/UniswapV2Pair.sol\":3702:3730  reserve0 = uint112(balance0) */\n      dup1\n      sload\n      not(0xffffffffffffffffffffffffffff)\n      and\n      sub(shl(0x70, 0x01), 0x01)\n      dup9\n      dup2\n      and\n      swap2\n      swap1\n      swap2\n      or\n      not(shl(0x70, 0xffffffffffffffffffffffffffff))\n        /* \"swap/UniswapV2Pair.sol\":3741:3769  reserve1 = uint112(balance1) */\n      and\n      shl(0x70, 0x01)\n      dup9\n      dup4\n      and\n      dup2\n      mul\n      swap2\n      swap1\n      swap2\n      or\n      sub(shl(0xe0, 0x01), 0x01)\n        /* \"swap/UniswapV2Pair.sol\":3780:3815  blockTimestampLast = blockTimestamp */\n      and\n      shl(0xe0, 0x01)\n      0xffffffff\n      dup8\n      and\n      mul\n      or\n      swap3\n      dup4\n      swap1\n      sstore\n        /* \"swap/UniswapV2Pair.sol\":3831:3855  Sync(reserve0, reserve1) */\n      0x40\n      dup1\n      mload\n        /* \"swap/UniswapV2Pair.sol\":3836:3844  reserve0 */\n      dup5\n      dup5\n      and\n        /* \"swap/UniswapV2Pair.sol\":3831:3855  Sync(reserve0, reserve1) */\n      dup2\n      mstore\n        /* \"swap/UniswapV2Pair.sol\":3846:3854  reserve1 */\n      swap2\n      swap1\n      swap4\n      div\n      swap1\n      swap2\n      and\n        /* \"swap/UniswapV2Pair.sol\":3831:3855  Sync(reserve0, reserve1) */\n      0x20\n      dup3\n      add\n      mstore\n      dup2\n      mload\n      0x1c411e9a96e071241c2f21f7726b17ae89e3cab4c78be50e062b03a9fffbbad1\n      swap3\n      swap2\n      dup2\n      swap1\n      sub\n      swap1\n      swap2\n      add\n      swap1\n      log1\n        /* \"swap/UniswapV2Pair.sol\":3003:3863  function _update(uint balance0, uint balance1, uint112 _reserve0, uint112 _reserve1) private {\r... */\n      pop\n      pop\n      pop\n      pop\n      pop\n      pop\n      jump\t// out\n        /* \"swap/UniswapV2ERC20.sol\":1817:1986  function _approve(address owner, address spender, uint value) private {\r... */\n    tag_171:\n      sub(shl(0xa0, 0x01), 0x01)\n        /* \"swap/UniswapV2ERC20.sol\":1898:1914  allowance[owner] */\n      dup1\n      dup5\n      and\n      0x00\n      dup2\n      dup2\n      mstore\n        /* \"swap/UniswapV2ERC20.sol\":1898:1907  allowance */\n      0x02\n        /* \"swap/UniswapV2ERC20.sol\":1898:1914  allowance[owner] */\n      0x20\n      swap1\n      dup2\n      mstore\n      0x40\n      dup1\n      dup4\n      keccak256\n        /* \"swap/UniswapV2ERC20.sol\":1898:1923  allowance[owner][spender] */\n      swap5\n      dup8\n      and\n      dup1\n      dup5\n      mstore\n      swap5\n      dup3\n      mstore\n      swap2\n      dup3\n      swap1\n      keccak256\n        /* \"swap/UniswapV2ERC20.sol\":1898:1931  allowance[owner][spender] = value */\n      dup6\n      swap1\n      sstore\n        /* \"swap/UniswapV2ERC20.sol\":1947:1978  Approval(owner, spender, value) */\n      dup2\n      mload\n      dup6\n      dup2\n      mstore\n      swap2\n      mload\n      0x8c5be1e5ebec7d5bd14f71427d1e84f3dd0314c0f7b2291e5b200ac8c7c3b925\n      swap3\n      dup2\n      swap1\n      sub\n      swap1\n      swap2\n      add\n      swap1\n      log3\n        /* \"swap/UniswapV2ERC20.sol\":1817:1986  function _approve(address owner, address spender, uint value) private {\r... */\n      pop\n      pop\n      pop\n      jump\t// out\n        /* \"swap/UniswapV2ERC20.sol\":1994:2214  function _transfer(address from, address to, uint value) private {\r... */\n    tag_176:\n      sub(shl(0xa0, 0x01), 0x01)\n        /* \"swap/UniswapV2ERC20.sol\":2088:2103  balanceOf[from] */\n      dup4\n      and\n      0x00\n      swap1\n      dup2\n      mstore\n        /* \"swap/UniswapV2ERC20.sol\":2088:2097  balanceOf */\n      0x01\n        /* \"swap/UniswapV2ERC20.sol\":2088:2103  balanceOf[from] */\n      0x20\n      mstore\n      0x40\n      swap1\n      keccak256\n      sload\n        /* \"swap/UniswapV2ERC20.sol\":2088:2114  balanceOf[from].sub(value) */\n      tag_320\n      swap1\n        /* \"swap/UniswapV2ERC20.sol\":2108:2113  value */\n      dup3\n        /* \"swap/UniswapV2ERC20.sol\":2088:2107  balanceOf[from].sub */\n      tag_158\n        /* \"swap/UniswapV2ERC20.sol\":2088:2114  balanceOf[from].sub(value) */\n      jump\t// in\n    tag_320:\n      sub(shl(0xa0, 0x01), 0x01)\n        /* \"swap/UniswapV2ERC20.sol\":2070:2085  balanceOf[from] */\n      dup1\n      dup6\n      and\n      0x00\n      swap1\n      dup2\n      mstore\n        /* \"swap/UniswapV2ERC20.sol\":2070:2079  balanceOf */\n      0x01\n        /* \"swap/UniswapV2ERC20.sol\":2070:2085  balanceOf[from] */\n      0x20\n      mstore\n      0x40\n      dup1\n      dup3\n      keccak256\n        /* \"swap/UniswapV2ERC20.sol\":2070:2114  balanceOf[from] = balanceOf[from].sub(value) */\n      swap4\n      swap1\n      swap4\n      sstore\n        /* \"swap/UniswapV2ERC20.sol\":2141:2154  balanceOf[to] */\n      swap1\n      dup5\n      and\n      dup2\n      mstore\n      keccak256\n      sload\n        /* \"swap/UniswapV2ERC20.sol\":2141:2165  balanceOf[to].add(value) */\n      tag_321\n      swap1\n        /* \"swap/UniswapV2ERC20.sol\":2159:2164  value */\n      dup3\n        /* \"swap/UniswapV2ERC20.sol\":2141:2158  balanceOf[to].add */\n      tag_322\n        /* \"swap/UniswapV2ERC20.sol\":2141:2165  balanceOf[to].add(value) */\n      jump\t// in\n    tag_321:\n      sub(shl(0xa0, 0x01), 0x01)\n        /* \"swap/UniswapV2ERC20.sol\":2125:2138  balanceOf[to] */\n      dup1\n      dup5\n      and\n      0x00\n      dup2\n      dup2\n      mstore\n        /* \"swap/UniswapV2ERC20.sol\":2125:2134  balanceOf */\n      0x01\n        /* \"swap/UniswapV2ERC20.sol\":2125:2138  balanceOf[to] */\n      0x20\n      swap1\n      dup2\n      mstore\n      0x40\n      swap2\n      dup3\n      swap1\n      keccak256\n        /* \"swap/UniswapV2ERC20.sol\":2125:2165  balanceOf[to] = balanceOf[to].add(value) */\n      swap5\n      swap1\n      swap5\n      sstore\n        /* \"swap/UniswapV2ERC20.sol\":2181:2206  Transfer(from, to, value) */\n      dup1\n      mload\n      dup6\n      dup2\n      mstore\n      swap1\n      mload\n        /* \"swap/UniswapV2ERC20.sol\":2125:2138  balanceOf[to] */\n      swap2\n      swap4\n        /* \"swap/UniswapV2ERC20.sol\":2181:2206  Transfer(from, to, value) */\n      swap3\n      dup8\n      and\n      swap3\n      0xddf252ad1be2c89b69c2b068fc378daa952ba7f163c4a11628f55a4df523b3ef\n      swap3\n      swap2\n      dup3\n      swap1\n      sub\n      add\n      swap1\n      log3\n        /* \"swap/UniswapV2ERC20.sol\":1994:2214  function _transfer(address from, address to, uint value) private {\r... */\n      pop\n      pop\n      pop\n      jump\t// out\n        /* \"swap/UniswapV2Pair.sol\":3871:4722  function _mintFee(uint112 _reserve0, uint112 _reserve1) private returns (bool feeOn) {\r... */\n    tag_194:\n        /* \"swap/UniswapV2Pair.sol\":3944:3954  bool feeOn */\n      0x00\n        /* \"swap/UniswapV2Pair.sol\":3967:3980  address feeTo */\n      dup1\n        /* \"swap/UniswapV2Pair.sol\":4001:4008  factory */\n      0x05\n      0x00\n      swap1\n      sload\n      swap1\n      0x0100\n      exp\n      swap1\n      div\n      sub(shl(0xa0, 0x01), 0x01)\n      and\n      sub(shl(0xa0, 0x01), 0x01)\n        /* \"swap/UniswapV2Pair.sol\":3983:4015  IUniswapV2Factory(factory).feeTo */\n      and\n      0x017e7e58\n        /* \"swap/UniswapV2Pair.sol\":3983:4017  IUniswapV2Factory(factory).feeTo() */\n      mload(0x40)\n      dup2\n      0xffffffff\n      and\n      0xe0\n      shl\n      dup2\n      mstore\n      0x04\n      add\n      0x20\n      mload(0x40)\n      dup1\n      dup4\n      sub\n      dup2\n      dup7\n      dup1\n      extcodesize\n      iszero\n      dup1\n      iszero\n      tag_324\n      jumpi\n      0x00\n      dup1\n      revert\n    tag_324:\n      pop\n      gas\n      staticcall\n      iszero\n      dup1\n      iszero\n      tag_326\n      jumpi\n      returndatasize\n      0x00\n      dup1\n      returndatacopy\n      revert(0x00, returndatasize)\n    tag_326:\n      pop\n      pop\n      pop\n      pop\n      mload(0x40)\n      returndatasize\n      0x20\n      dup2\n      lt\n      iszero\n      tag_327\n      jumpi\n      0x00\n      dup1\n      revert\n    tag_327:\n      pop\n      mload\n        /* \"swap/UniswapV2Pair.sol\":4080:4085  kLast */\n      sload(0x0b)\n      sub(shl(0xa0, 0x01), 0x01)\n        /* \"swap/UniswapV2Pair.sol\":4036:4055  feeTo != address(0) */\n      dup3\n      and\n      iszero\n      dup1\n      iszero\n      swap5\n      pop\n        /* \"swap/UniswapV2Pair.sol\":3983:4017  IUniswapV2Factory(factory).feeTo() */\n      swap2\n      swap3\n      pop\n        /* \"swap/UniswapV2Pair.sol\":4080:4085  kLast */\n      swap1\n        /* \"swap/UniswapV2Pair.sol\":4111:4715  if (feeOn) {\r... */\n      tag_328\n      jumpi\n        /* \"swap/UniswapV2Pair.sol\":4141:4152  _kLast != 0 */\n      dup1\n      iszero\n        /* \"swap/UniswapV2Pair.sol\":4137:4645  if (_kLast != 0) {\r... */\n      tag_329\n      jumpi\n        /* \"swap/UniswapV2Pair.sol\":4173:4183  uint rootK */\n      0x00\n        /* \"swap/UniswapV2Pair.sol\":4186:4227  Math.sqrt(uint(_reserve0).mul(_reserve1)) */\n      tag_330\n        /* \"swap/UniswapV2Pair.sol\":4196:4226  uint(_reserve0).mul(_reserve1) */\n      tag_198\n      sub(shl(0x70, 0x01), 0x01)\n        /* \"swap/UniswapV2Pair.sol\":4196:4211  uint(_reserve0) */\n      dup9\n      dup2\n      and\n      swap1\n        /* \"swap/UniswapV2Pair.sol\":4196:4226  uint(_reserve0).mul(_reserve1) */\n      dup9\n      and\n        /* \"swap/UniswapV2Pair.sol\":4196:4215  uint(_reserve0).mul */\n      tag_156\n        /* \"swap/UniswapV2Pair.sol\":4196:4226  uint(_reserve0).mul(_reserve1) */\n      jump\t// in\n        /* \"swap/UniswapV2Pair.sol\":4186:4227  Math.sqrt(uint(_reserve0).mul(_reserve1)) */\n    tag_330:\n        /* \"swap/UniswapV2Pair.sol\":4173:4227  uint rootK = Math.sqrt(uint(_reserve0).mul(_reserve1)) */\n      swap1\n      pop\n        /* \"swap/UniswapV2Pair.sol\":4246:4260  uint rootKLast */\n      0x00\n        /* \"swap/UniswapV2Pair.sol\":4263:4280  Math.sqrt(_kLast) */\n      tag_332\n        /* \"swap/UniswapV2Pair.sol\":4273:4279  _kLast */\n      dup4\n        /* \"swap/UniswapV2Pair.sol\":4263:4272  Math.sqrt */\n      tag_199\n        /* \"swap/UniswapV2Pair.sol\":4263:4280  Math.sqrt(_kLast) */\n      jump\t// in\n    tag_332:\n        /* \"swap/UniswapV2Pair.sol\":4246:4280  uint rootKLast = Math.sqrt(_kLast) */\n      swap1\n      pop\n        /* \"swap/UniswapV2Pair.sol\":4311:4320  rootKLast */\n      dup1\n        /* \"swap/UniswapV2Pair.sol\":4303:4308  rootK */\n      dup3\n        /* \"swap/UniswapV2Pair.sol\":4303:4320  rootK > rootKLast */\n      gt\n        /* \"swap/UniswapV2Pair.sol\":4299:4630  if (rootK > rootKLast) {\r... */\n      iszero\n      tag_333\n      jumpi\n        /* \"swap/UniswapV2Pair.sol\":4345:4359  uint numerator */\n      0x00\n        /* \"swap/UniswapV2Pair.sol\":4362:4406  totalSupply.mul(rootK.sub(rootKLast)).mul(2) */\n      tag_334\n        /* \"swap/UniswapV2Pair.sol\":4404:4405  2 */\n      0x02\n        /* \"swap/UniswapV2Pair.sol\":4362:4399  totalSupply.mul(rootK.sub(rootKLast)) */\n      tag_163\n        /* \"swap/UniswapV2Pair.sol\":4378:4398  rootK.sub(rootKLast) */\n      tag_336\n        /* \"swap/UniswapV2Pair.sol\":4378:4383  rootK */\n      dup7\n        /* \"swap/UniswapV2Pair.sol\":4388:4397  rootKLast */\n      dup7\n        /* \"swap/UniswapV2Pair.sol\":4378:4387  rootK.sub */\n      tag_158\n        /* \"swap/UniswapV2Pair.sol\":4378:4398  rootK.sub(rootKLast) */\n      jump\t// in\n    tag_336:\n        /* \"swap/UniswapV2Pair.sol\":4362:4373  totalSupply */\n      sload(0x00)\n      swap1\n        /* \"swap/UniswapV2Pair.sol\":4362:4377  totalSupply.mul */\n      tag_156\n        /* \"swap/UniswapV2Pair.sol\":4362:4399  totalSupply.mul(rootK.sub(rootKLast)) */\n      jump\t// in\n        /* \"swap/UniswapV2Pair.sol\":4362:4406  totalSupply.mul(rootK.sub(rootKLast)).mul(2) */\n    tag_334:\n        /* \"swap/UniswapV2Pair.sol\":4345:4406  uint numerator = totalSupply.mul(rootK.sub(rootKLast)).mul(2) */\n      swap1\n      pop\n        /* \"swap/UniswapV2Pair.sol\":4429:4445  uint denominator */\n      0x00\n        /* \"swap/UniswapV2Pair.sol\":4448:4482  rootK.mul(3).add(rootKLast.mul(2)) */\n      tag_337\n        /* \"swap/UniswapV2Pair.sol\":4465:4481  rootKLast.mul(2) */\n      tag_338\n        /* \"swap/UniswapV2Pair.sol\":4465:4474  rootKLast */\n      dup5\n        /* \"swap/UniswapV2Pair.sol\":4479:4480  2 */\n      0x02\n        /* \"swap/UniswapV2Pair.sol\":4465:4478  rootKLast.mul */\n      tag_156\n        /* \"swap/UniswapV2Pair.sol\":4465:4481  rootKLast.mul(2) */\n      jump\t// in\n    tag_338:\n        /* \"swap/UniswapV2Pair.sol\":4448:4460  rootK.mul(3) */\n      tag_339\n        /* \"swap/UniswapV2Pair.sol\":4448:4453  rootK */\n      dup7\n        /* \"swap/UniswapV2Pair.sol\":4458:4459  3 */\n      0x03\n        /* \"swap/UniswapV2Pair.sol\":4448:4457  rootK.mul */\n      tag_156\n        /* \"swap/UniswapV2Pair.sol\":4448:4460  rootK.mul(3) */\n      jump\t// in\n    tag_339:\n        /* \"swap/UniswapV2Pair.sol\":4448:4464  rootK.mul(3).add */\n      swap1\n      tag_322\n        /* \"swap/UniswapV2Pair.sol\":4448:4482  rootK.mul(3).add(rootKLast.mul(2)) */\n      jump\t// in\n    tag_337:\n        /* \"swap/UniswapV2Pair.sol\":4429:4482  uint denominator = rootK.mul(3).add(rootKLast.mul(2)) */\n      swap1\n      pop\n        /* \"swap/UniswapV2Pair.sol\":4505:4519  uint liquidity */\n      0x00\n        /* \"swap/UniswapV2Pair.sol\":4534:4545  denominator */\n      dup2\n        /* \"swap/UniswapV2Pair.sol\":4522:4531  numerator */\n      dup4\n        /* \"swap/UniswapV2Pair.sol\":4522:4545  numerator / denominator */\n      dup2\n      tag_340\n      jumpi\n      invalid\n    tag_340:\n      div\n      swap1\n      pop\n        /* \"swap/UniswapV2Pair.sol\":4572:4585  liquidity > 0 */\n      dup1\n      iszero\n        /* \"swap/UniswapV2Pair.sol\":4568:4610  if (liquidity > 0) _mint(feeTo, liquidity) */\n      tag_342\n      jumpi\n        /* \"swap/UniswapV2Pair.sol\":4587:4610  _mint(feeTo, liquidity) */\n      tag_342\n        /* \"swap/UniswapV2Pair.sol\":4593:4598  feeTo */\n      dup8\n        /* \"swap/UniswapV2Pair.sol\":4600:4609  liquidity */\n      dup3\n        /* \"swap/UniswapV2Pair.sol\":4587:4592  _mint */\n      tag_201\n        /* \"swap/UniswapV2Pair.sol\":4587:4610  _mint(feeTo, liquidity) */\n      jump\t// in\n    tag_342:\n        /* \"swap/UniswapV2Pair.sol\":4299:4630  if (rootK > rootKLast) {\r... */\n      pop\n      pop\n      pop\n    tag_333:\n        /* \"swap/UniswapV2Pair.sol\":4137:4645  if (_kLast != 0) {\r... */\n      pop\n      pop\n    tag_329:\n        /* \"swap/UniswapV2Pair.sol\":4111:4715  if (feeOn) {\r... */\n      jump(tag_344)\n    tag_328:\n        /* \"swap/UniswapV2Pair.sol\":4666:4677  _kLast != 0 */\n      dup1\n      iszero\n        /* \"swap/UniswapV2Pair.sol\":4662:4715  if (_kLast != 0) {\r... */\n      tag_344\n      jumpi\n        /* \"swap/UniswapV2Pair.sol\":4702:4703  0 */\n      0x00\n        /* \"swap/UniswapV2Pair.sol\":4694:4699  kLast */\n      0x0b\n        /* \"swap/UniswapV2Pair.sol\":4694:4703  kLast = 0 */\n      sstore\n        /* \"swap/UniswapV2Pair.sol\":4662:4715  if (_kLast != 0) {\r... */\n    tag_344:\n        /* \"swap/UniswapV2Pair.sol\":3871:4722  function _mintFee(uint112 _reserve0, uint112 _reserve1) private returns (bool feeOn) {\r... */\n      pop\n      pop\n      swap3\n      swap2\n      pop\n      pop\n      jump\t// out\n        /* \"swap/libraries/Math.sol\":356:659  function sqrt(uint y) internal pure returns (uint z) {\r... */\n    tag_199:\n        /* \"swap/libraries/Math.sol\":401:407  uint z */\n      0x00\n        /* \"swap/libraries/Math.sol\":428:429  3 */\n      0x03\n        /* \"swap/libraries/Math.sol\":424:425  y */\n      dup3\n        /* \"swap/libraries/Math.sol\":424:429  y > 3 */\n      gt\n        /* \"swap/libraries/Math.sol\":420:652  if (y > 3) {\r... */\n      iszero\n      tag_346\n      jumpi\n      pop\n        /* \"swap/libraries/Math.sol\":450:451  y */\n      dup1\n        /* \"swap/libraries/Math.sol\":483:484  1 */\n      0x01\n        /* \"swap/libraries/Math.sol\":479:480  2 */\n      0x02\n        /* \"swap/libraries/Math.sol\":475:480  y / 2 */\n      dup3\n      div\n        /* \"swap/libraries/Math.sol\":475:484  y / 2 + 1 */\n      add\n        /* \"swap/libraries/Math.sol\":499:591  while (x < z) {\r... */\n    tag_348:\n        /* \"swap/libraries/Math.sol\":510:511  z */\n      dup2\n        /* \"swap/libraries/Math.sol\":506:507  x */\n      dup2\n        /* \"swap/libraries/Math.sol\":506:511  x < z */\n      lt\n        /* \"swap/libraries/Math.sol\":499:591  while (x < z) {\r... */\n      iszero\n      tag_349\n      jumpi\n        /* \"swap/libraries/Math.sol\":536:537  x */\n      dup1\n        /* \"swap/libraries/Math.sol\":532:537  z = x */\n      swap2\n      pop\n        /* \"swap/libraries/Math.sol\":574:575  2 */\n      0x02\n        /* \"swap/libraries/Math.sol\":569:570  x */\n      dup2\n        /* \"swap/libraries/Math.sol\":565:566  x */\n      dup3\n        /* \"swap/libraries/Math.sol\":561:562  y */\n      dup6\n        /* \"swap/libraries/Math.sol\":561:566  y / x */\n      dup2\n      tag_350\n      jumpi\n      invalid\n    tag_350:\n      div\n        /* \"swap/libraries/Math.sol\":561:570  y / x + x */\n      add\n        /* \"swap/libraries/Math.sol\":560:575  (y / x + x) / 2 */\n      dup2\n      tag_351\n      jumpi\n      invalid\n    tag_351:\n      div\n        /* \"swap/libraries/Math.sol\":556:575  x = (y / x + x) / 2 */\n      swap1\n      pop\n        /* \"swap/libraries/Math.sol\":499:591  while (x < z) {\r... */\n      jump(tag_348)\n    tag_349:\n        /* \"swap/libraries/Math.sol\":420:652  if (y > 3) {\r... */\n      pop\n      jump(tag_353)\n    tag_346:\n        /* \"swap/libraries/Math.sol\":612:618  y != 0 */\n      dup2\n      iszero\n        /* \"swap/libraries/Math.sol\":608:652  if (y != 0) {\r... */\n      tag_353\n      jumpi\n      pop\n        /* \"swap/libraries/Math.sol\":639:640  1 */\n      0x01\n        /* \"swap/libraries/Math.sol\":608:652  if (y != 0) {\r... */\n    tag_353:\n        /* \"swap/libraries/Math.sol\":356:659  function sqrt(uint y) internal pure returns (uint z) {\r... */\n      swap2\n      swap1\n      pop\n      jump\t// out\n        /* \"swap/UniswapV2ERC20.sol\":1391:1592  function _mint(address to, uint value) internal {\r... */\n    tag_201:\n        /* \"swap/UniswapV2ERC20.sol\":1464:1475  totalSupply */\n      sload(0x00)\n        /* \"swap/UniswapV2ERC20.sol\":1464:1486  totalSupply.add(value) */\n      tag_355\n      swap1\n        /* \"swap/UniswapV2ERC20.sol\":1480:1485  value */\n      dup3\n        /* \"swap/UniswapV2ERC20.sol\":1464:1479  totalSupply.add */\n      tag_322\n        /* \"swap/UniswapV2ERC20.sol\":1464:1486  totalSupply.add(value) */\n      jump\t// in\n    tag_355:\n        /* \"swap/UniswapV2ERC20.sol\":1450:1461  totalSupply */\n      0x00\n        /* \"swap/UniswapV2ERC20.sol\":1450:1486  totalSupply = totalSupply.add(value) */\n      swap1\n      dup2\n      sstore\n      sub(shl(0xa0, 0x01), 0x01)\n        /* \"swap/UniswapV2ERC20.sol\":1513:1526  balanceOf[to] */\n      dup4\n      and\n      dup2\n      mstore\n        /* \"swap/UniswapV2ERC20.sol\":1513:1522  balanceOf */\n      0x01\n        /* \"swap/UniswapV2ERC20.sol\":1513:1526  balanceOf[to] */\n      0x20\n      mstore\n      0x40\n      swap1\n      keccak256\n      sload\n        /* \"swap/UniswapV2ERC20.sol\":1513:1537  balanceOf[to].add(value) */\n      tag_356\n      swap1\n        /* \"swap/UniswapV2ERC20.sol\":1531:1536  value */\n      dup3\n        /* \"swap/UniswapV2ERC20.sol\":1513:1530  balanceOf[to].add */\n      tag_322\n        /* \"swap/UniswapV2ERC20.sol\":1513:1537  balanceOf[to].add(value) */\n      jump\t// in\n    tag_356:\n      sub(shl(0xa0, 0x01), 0x01)\n        /* \"swap/UniswapV2ERC20.sol\":1497:1510  balanceOf[to] */\n      dup4\n      and\n      0x00\n      dup2\n      dup2\n      mstore\n        /* \"swap/UniswapV2ERC20.sol\":1497:1506  balanceOf */\n      0x01\n        /* \"swap/UniswapV2ERC20.sol\":1497:1510  balanceOf[to] */\n      0x20\n      swap1\n      dup2\n      mstore\n      0x40\n      dup1\n      dup4\n      keccak256\n        /* \"swap/UniswapV2ERC20.sol\":1497:1537  balanceOf[to] = balanceOf[to].add(value) */\n      swap5\n      swap1\n      swap5\n      sstore\n        /* \"swap/UniswapV2ERC20.sol\":1553:1584  Transfer(address(0), to, value) */\n      dup4\n      mload\n      dup6\n      dup2\n      mstore\n      swap4\n      mload\n        /* \"swap/UniswapV2ERC20.sol\":1497:1510  balanceOf[to] */\n      swap3\n      swap4\n      swap2\n      swap3\n        /* \"swap/UniswapV2ERC20.sol\":1553:1584  Transfer(address(0), to, value) */\n      0xddf252ad1be2c89b69c2b068fc378daa952ba7f163c4a11628f55a4df523b3ef\n      swap3\n      dup2\n      swap1\n      sub\n      swap1\n      swap2\n      add\n      swap1\n      log3\n        /* \"swap/UniswapV2ERC20.sol\":1391:1592  function _mint(address to, uint value) internal {\r... */\n      pop\n      pop\n      jump\t// out\n        /* \"swap/libraries/Math.sol\":142:238  function min(uint x, uint y) internal pure returns (uint z) {\r... */\n    tag_208:\n        /* \"swap/libraries/Math.sol\":194:200  uint z */\n      0x00\n        /* \"swap/libraries/Math.sol\":221:222  y */\n      dup2\n        /* \"swap/libraries/Math.sol\":217:218  x */\n      dup4\n        /* \"swap/libraries/Math.sol\":217:222  x < y */\n      lt\n        /* \"swap/libraries/Math.sol\":217:230  x < y ? x : y */\n      tag_358\n      jumpi\n        /* \"swap/libraries/Math.sol\":229:230  y */\n      dup2\n        /* \"swap/libraries/Math.sol\":217:230  x < y ? x : y */\n      jump(tag_359)\n    tag_358:\n        /* \"swap/libraries/Math.sol\":225:226  x */\n      dup3\n        /* \"swap/libraries/Math.sol\":217:230  x < y ? x : y */\n    tag_359:\n        /* \"swap/libraries/Math.sol\":213:230  z = x < y ? x : y */\n      swap4\n        /* \"swap/libraries/Math.sol\":142:238  function min(uint x, uint y) internal pure returns (uint z) {\r... */\n      swap3\n      pop\n      pop\n      pop\n      jump\t// out\n        /* \"swap/UniswapV2ERC20.sol\":1600:1809  function _burn(address from, uint value) internal {\r... */\n    tag_234:\n      sub(shl(0xa0, 0x01), 0x01)\n        /* \"swap/UniswapV2ERC20.sol\":1679:1694  balanceOf[from] */\n      dup3\n      and\n      0x00\n      swap1\n      dup2\n      mstore\n        /* \"swap/UniswapV2ERC20.sol\":1679:1688  balanceOf */\n      0x01\n        /* \"swap/UniswapV2ERC20.sol\":1679:1694  balanceOf[from] */\n      0x20\n      mstore\n      0x40\n      swap1\n      keccak256\n      sload\n        /* \"swap/UniswapV2ERC20.sol\":1679:1705  balanceOf[from].sub(value) */\n      tag_361\n      swap1\n        /* \"swap/UniswapV2ERC20.sol\":1699:1704  value */\n      dup3\n        /* \"swap/UniswapV2ERC20.sol\":1679:1698  balanceOf[from].sub */\n      tag_158\n        /* \"swap/UniswapV2ERC20.sol\":1679:1705  balanceOf[from].sub(value) */\n      jump\t// in\n    tag_361:\n      sub(shl(0xa0, 0x01), 0x01)\n        /* \"swap/UniswapV2ERC20.sol\":1661:1676  balanceOf[from] */\n      dup4\n      and\n      0x00\n      swap1\n      dup2\n      mstore\n        /* \"swap/UniswapV2ERC20.sol\":1661:1670  balanceOf */\n      0x01\n        /* \"swap/UniswapV2ERC20.sol\":1661:1676  balanceOf[from] */\n      0x20\n      mstore\n      0x40\n      dup2\n      keccak256\n        /* \"swap/UniswapV2ERC20.sol\":1661:1705  balanceOf[from] = balanceOf[from].sub(value) */\n      swap2\n      swap1\n      swap2\n      sstore\n        /* \"swap/UniswapV2ERC20.sol\":1730:1741  totalSupply */\n      sload\n        /* \"swap/UniswapV2ERC20.sol\":1730:1752  totalSupply.sub(value) */\n      tag_362\n      swap1\n        /* \"swap/UniswapV2ERC20.sol\":1746:1751  value */\n      dup3\n        /* \"swap/UniswapV2ERC20.sol\":1730:1745  totalSupply.sub */\n      tag_158\n        /* \"swap/UniswapV2ERC20.sol\":1730:1752  totalSupply.sub(value) */\n      jump\t// in\n    tag_362:\n        /* \"swap/UniswapV2ERC20.sol\":1716:1727  totalSupply */\n      0x00\n        /* \"swap/UniswapV2ERC20.sol\":1716:1752  totalSupply = totalSupply.sub(value) */\n      swap1\n      dup2\n      sstore\n        /* \"swap/UniswapV2ERC20.sol\":1768:1801  Transfer(from, address(0), value) */\n      0x40\n      dup1\n      mload\n      dup4\n      dup2\n      mstore\n      swap1\n      mload\n      sub(shl(0xa0, 0x01), 0x01)\n      dup6\n      and\n      swap2\n      0xddf252ad1be2c89b69c2b068fc378daa952ba7f163c4a11628f55a4df523b3ef\n      swap2\n      swap1\n      dup2\n      swap1\n      sub\n      0x20\n      add\n      swap1\n      log3\n        /* \"swap/UniswapV2ERC20.sol\":1600:1809  function _burn(address from, uint value) internal {\r... */\n      pop\n      pop\n      jump\t// out\n        /* \"swap/libraries/UQ112x112.sol\":333:453  function encode(uint112 y) internal pure returns (uint224 z) {\r... */\n    tag_314:\n      sub(shl(0x70, 0x01), 0x01)\n        /* \"swap/libraries/UQ112x112.sol\":409:419  uint224(y) */\n      and\n      shl(0x70, 0x01)\n        /* \"swap/libraries/UQ112x112.sol\":409:426  uint224(y) * Q112 */\n      mul\n      swap1\n        /* \"swap/libraries/UQ112x112.sol\":333:453  function encode(uint112 y) internal pure returns (uint224 z) {\r... */\n      jump\t// out\n        /* \"swap/libraries/UQ112x112.sol\":524:632  function uqdiv(uint224 x, uint112 y) internal pure returns (uint224 z) {\r... */\n    tag_315:\n        /* \"swap/libraries/UQ112x112.sol\":584:593  uint224 z */\n      0x00\n      sub(shl(0x70, 0x01), 0x01)\n        /* \"swap/libraries/UQ112x112.sol\":614:624  uint224(y) */\n      dup3\n      and\n      sub(shl(0xe0, 0x01), 0x01)\n        /* \"swap/libraries/UQ112x112.sol\":610:624  x / uint224(y) */\n      dup5\n      and\n        /* \"swap/libraries/UQ112x112.sol\":614:624  uint224(y) */\n      dup2\n        /* \"swap/libraries/UQ112x112.sol\":610:624  x / uint224(y) */\n      tag_365\n      jumpi\n      invalid\n    tag_365:\n      div\n      swap4\n        /* \"swap/libraries/UQ112x112.sol\":524:632  function uqdiv(uint224 x, uint112 y) internal pure returns (uint224 z) {\r... */\n      swap3\n      pop\n      pop\n      pop\n      jump\t// out\n        /* \"swap/libraries/SafeMath.sol\":206:334  function add(uint x, uint y) internal pure returns (uint z) {\r... */\n    tag_322:\n        /* \"swap/libraries/SafeMath.sol\":290:295  x + y */\n      dup1\n      dup3\n      add\n        /* \"swap/libraries/SafeMath.sol\":285:301  (z = x + y) >= x */\n      dup3\n      dup2\n      lt\n      iszero\n        /* \"swap/libraries/SafeMath.sol\":277:326  require((z = x + y) >= x, 'ds-math-add-overflow') */\n      tag_169\n      jumpi\n      0x40\n      dup1\n      mload\n      shl(0xe5, 0x461bcd)\n      dup2\n      mstore\n      0x20\n      0x04\n      dup3\n      add\n      mstore\n      0x14\n      0x24\n      dup3\n      add\n      mstore\n      shl(0x60, 0x64732d6d6174682d6164642d6f766572666c6f77)\n      0x44\n      dup3\n      add\n      mstore\n      swap1\n      mload\n      swap1\n      dup2\n      swap1\n      sub\n      0x64\n      add\n      swap1\n      revert\n    stop\n    data_05339493da7e2cbe77e17beadf6b91132eb307939495f5f1797bf88d95539e83 556e697377617056323a20494e53554646494349454e545f4f55545055545f414d4f554e54\n    data_10e2efc32d8a31d3b2c11a545b3ed09c2dbabc58ef6de4033929d0002e425b67 556e697377617056323a20494e53554646494349454e545f494e5055545f414d4f554e54\n    data_3f354ef449b2a9b081220ce21f57691008110b653edc191d8288e60cef58bb5f 556e697377617056323a20494e53554646494349454e545f4c4951554944495459\n    data_57ebfb4dd8b5082cdba0f23c17077e3b0ecb9782a51e0e9a15e9bc8c4b30c562 556e697377617056323a20494e53554646494349454e545f4c49515549444954595f4255524e4544\n    data_6591c9f5bf1fefaad109b76a20e25c857b696080c952191f86220f001a83663e 556e697377617056323a20494e53554646494349454e545f4c49515549444954595f4d494e544544\n\n    auxdata: 0xa26469706673582212203231a1d525f49e47f704ae4f55e0dcfc447cd482b14869a04ba68ea5ee9afb4e64736f6c634300060c0033\n}\n",
				"bytecode": {
					"linkReferences": {},
					"object": "6080604052600c805463ffffffff191660111790556001600d5534801561002557600080fd5b50604080518082018252600981526805468726565537761760bc1b6020918201528151808301835260018152603160f81b9082015281517f8b73c3c69bb8fe3d512ecc4cf759cc79239f7b179b0ffacaa9a75d522b39400f818301527f7ff6dc3ff61f96a32b39743c8f45ccbadf74f1c2b457b4abedc63ee79897a6d1818401527fc89efdaa54c0f20c7adf612882df0950f5a951637e0307cdcb4c672f298b8bc660608201524660808201523060a0808301919091528351808303909101815260c09091019092528151910120600355600580546001600160a01b03191633179055612393806101176000396000f3fe608060405234801561001057600080fd5b50600436106101cf5760003560e01c80636a62784211610104578063ba9a7a56116100a2578063d505accf11610071578063d505accf14610583578063d6d788c3146105d4578063dd62ed3e146105f7578063fff6cae914610625576101cf565b8063ba9a7a5614610545578063bc25cf771461054d578063c45a015514610573578063d21220a71461057b576101cf565b80637ecebe00116100de5780637ecebe00146104ac57806389afcb44146104d257806395d89b4114610511578063a9059cbb14610519576101cf565b80636a6278421461045857806370a082311461047e5780637464fc3d146104a4576101cf565b806330adf81f11610171578063485cc9551161014b578063485cc955146103f957806354cf2aeb146104275780635909c0d5146104485780635a3d549314610450576101cf565b806330adf81f146103cb578063313ce567146103d35780633644e515146103f1576101cf565b8063095ea7b3116101ad578063095ea7b3146103175780630dfe16811461035757806318160ddd1461037b57806323b872dd14610395576101cf565b8063022c0d9f146101d457806306fdde03146102625780630902f1ac146102df575b600080fd5b610260600480360360808110156101ea57600080fd5b8135916020810135916001600160a01b03604083013516919081019060808101606082013564010000000081111561022157600080fd5b82018360208201111561023357600080fd5b8035906020019184600183028401116401000000008311171561025557600080fd5b50909250905061062d565b005b61026a610b47565b6040805160208082528351818301528351919283929083019185019080838360005b838110156102a457818101518382015260200161028c565b50505050905090810190601f1680156102d15780820380516001836020036101000a031916815260200191505b509250505060405180910390f35b6102e7610b6c565b604080516001600160701b03948516815292909316602083015263ffffffff168183015290519081900360600190f35b6103436004803603604081101561032d57600080fd5b506001600160a01b038135169060200135610b96565b604080519115158252519081900360200190f35b61035f610bad565b604080516001600160a01b039092168252519081900360200190f35b610383610bbc565b60408051918252519081900360200190f35b610343600480360360608110156103ab57600080fd5b506001600160a01b03813581169160208101359091169060400135610bc2565b610383610c56565b6103db610c7a565b6040805160ff9092168252519081900360200190f35b610383610c7f565b6102606004803603604081101561040f57600080fd5b506001600160a01b0381358116916020013516610c85565b61042f610d09565b6040805163ffffffff9092168252519081900360200190f35b610383610d15565b610383610d1b565b6103836004803603602081101561046e57600080fd5b50356001600160a01b0316610d21565b6103836004803603602081101561049457600080fd5b50356001600160a01b0316610ffd565b61038361100f565b610383600480360360208110156104c257600080fd5b50356001600160a01b0316611015565b6104f8600480360360208110156104e857600080fd5b50356001600160a01b0316611027565b6040805192835260208301919091528051918290030190f35b61026a6113bb565b6103436004803603604081101561052f57600080fd5b506001600160a01b0381351690602001356113dc565b6103836113e9565b6102606004803603602081101561056357600080fd5b50356001600160a01b03166113ef565b61035f611561565b61035f611570565b610260600480360360e081101561059957600080fd5b506001600160a01b03813581169160208101359091169060408101359060608101359060ff6080820135169060a08101359060c0013561157f565b610260600480360360208110156105ea57600080fd5b503563ffffffff16611781565b6103836004803603604081101561060d57600080fd5b506001600160a01b03813581169160200135166118ad565b6102606118ca565b600d54600114610678576040805162461bcd60e51b8152602060048201526011602482015270155b9a5cddd85c158c8e881313d0d2d151607a1b604482015290519081900360640190fd5b6000600d558415158061068b5750600084115b6106c65760405162461bcd60e51b81526004018080602001828103825260258152602001806122a46025913960400191505060405180910390fd5b6000806106d1610b6c565b5091509150816001600160701b0316871080156106f65750806001600160701b031686105b6107315760405162461bcd60e51b81526004018080602001828103825260218152602001806122ed6021913960400191505060405180910390fd5b60065460075460009182916001600160a01b0391821691908116908916821480159061076f5750806001600160a01b0316896001600160a01b031614155b6107b8576040805162461bcd60e51b8152602060048201526015602482015274556e697377617056323a20494e56414c49445f544f60581b604482015290519081900360640190fd5b8a156107c9576107c9828a8d611a2c565b89156107da576107da818a8c611a2c565b861561088c57886001600160a01b03166310d1e85c338d8d8c8c6040518663ffffffff1660e01b815260040180866001600160a01b03168152602001858152602001848152602001806020018281038252848482818152602001925080828437600081840152601f19601f8201169050808301925050509650505050505050600060405180830381600087803b15801561087357600080fd5b505af1158015610887573d6000803e3d6000fd5b505050505b604080516370a0823160e01b815230600482015290516001600160a01b038416916370a08231916024808301926020929190829003018186803b1580156108d257600080fd5b505afa1580156108e6573d6000803e3d6000fd5b505050506040513d60208110156108fc57600080fd5b5051604080516370a0823160e01b815230600482015290519195506001600160a01b038316916370a0823191602480820192602092909190829003018186803b15801561094857600080fd5b505afa15801561095c573d6000803e3d6000fd5b505050506040513d602081101561097257600080fd5b5051925060009150506001600160701b0385168a900383116109955760006109a4565b89856001600160701b03160383035b9050600089856001600160701b03160383116109c15760006109d0565b89856001600160701b03160383035b905060008211806109e15750600081115b610a1c5760405162461bcd60e51b81526004018080602001828103825260248152602001806122c96024913960400191505060405180910390fd5b600c5463ffffffff90811690600090610a4f90610a3d9086908590611bc616565b610a4988612710611bc6565b90611c29565b90506000610a60610a3d8585611bc6565b9050610a866305f5e100610a806001600160701b038c8116908c16611bc6565b90611bc6565b610a908383611bc6565b1015610ad2576040805162461bcd60e51b815260206004820152600c60248201526b556e697377617056323a204b60a01b604482015290519081900360640190fd5b505050610ae184848888611c79565b60408051838152602081018390528082018d9052606081018c905290516001600160a01b038b169133917fd78ad95fa46c994b6551d0da85fc275fe613ce37657fb8d5e3d130840159d8229181900360800190a350506001600d55505050505050505050565b6040518060400160405280600981526020016805468726565537761760bc1b81525081565b6008546001600160701b0380821692600160701b830490911691600160e01b900463ffffffff1690565b6000610ba3338484611e38565b5060015b92915050565b6006546001600160a01b031681565b60005481565b6001600160a01b038316600090815260026020908152604080832033845290915281205460001914610c41576001600160a01b0384166000908152600260209081526040808320338452909152902054610c1c9083611c29565b6001600160a01b03851660009081526002602090815260408083203384529091529020555b610c4c848484611e9a565b5060019392505050565b7f6e71edae12b1b97f4d1f60370fef10105fa2faae0126114a169c64845d6126c981565b601281565b60035481565b6005546001600160a01b03163314610cdb576040805162461bcd60e51b81526020600482015260146024820152732ab734b9bbb0b82b191d102327a92124a22222a760611b604482015290519081900360640190fd5b600680546001600160a01b039384166001600160a01b03199182161790915560078054929093169116179055565b600c5463ffffffff1681565b60095481565b600a5481565b6000600d54600114610d6e576040805162461bcd60e51b8152602060048201526011602482015270155b9a5cddd85c158c8e881313d0d2d151607a1b604482015290519081900360640190fd5b6000600d81905580610d7e610b6c565b50600654604080516370a0823160e01b815230600482015290519395509193506000926001600160a01b03909116916370a08231916024808301926020929190829003018186803b158015610dd257600080fd5b505afa158015610de6573d6000803e3d6000fd5b505050506040513d6020811015610dfc57600080fd5b5051600754604080516370a0823160e01b815230600482015290519293506000926001600160a01b03909216916370a0823191602480820192602092909190829003018186803b158015610e4f57600080fd5b505afa158015610e63573d6000803e3d6000fd5b505050506040513d6020811015610e7957600080fd5b505190506000610e92836001600160701b038716611c29565b90506000610ea9836001600160701b038716611c29565b90506000610eb78787611f48565b60005490915080610eee57610eda6103e8610a49610ed58787611bc6565b612097565b9850610ee960006103e86120e9565b610f31565b610f2e6001600160701b038916610f058684611bc6565b81610f0c57fe5b046001600160701b038916610f218685611bc6565b81610f2857fe5b04612173565b98505b60008911610f705760405162461bcd60e51b81526004018080602001828103825260288152602001806123366028913960400191505060405180910390fd5b610f7a8a8a6120e9565b610f8686868a8a611c79565b8115610fb057600854610fac906001600160701b0380821691600160701b900416611bc6565b600b555b6040805185815260208101859052815133927f4c209b5fc8ad50758f13e2e1088ba56a560dff690a1c6fef26394f4c03821c4f928290030190a250506001600d5550949695505050505050565b60016020526000908152604090205481565b600b5481565b60046020526000908152604090205481565b600080600d54600114611075576040805162461bcd60e51b8152602060048201526011602482015270155b9a5cddd85c158c8e881313d0d2d151607a1b604482015290519081900360640190fd5b6000600d81905580611085610b6c565b50600654600754604080516370a0823160e01b815230600482015290519496509294506001600160a01b039182169391169160009184916370a08231916024808301926020929190829003018186803b1580156110e157600080fd5b505afa1580156110f5573d6000803e3d6000fd5b505050506040513d602081101561110b57600080fd5b5051604080516370a0823160e01b815230600482015290519192506000916001600160a01b038516916370a08231916024808301926020929190829003018186803b15801561115957600080fd5b505afa15801561116d573d6000803e3d6000fd5b505050506040513d602081101561118357600080fd5b5051306000908152600160205260408120549192506111a28888611f48565b600054909150806111b38487611bc6565b816111ba57fe5b049a50806111c88486611bc6565b816111cf57fe5b04995060008b1180156111e2575060008a115b61121d5760405162461bcd60e51b815260040180806020018281038252602881526020018061230e6028913960400191505060405180910390fd5b611227308461218b565b611232878d8d611a2c565b61123d868d8c611a2c565b604080516370a0823160e01b815230600482015290516001600160a01b038916916370a08231916024808301926020929190829003018186803b15801561128357600080fd5b505afa158015611297573d6000803e3d6000fd5b505050506040513d60208110156112ad57600080fd5b5051604080516370a0823160e01b815230600482015290519196506001600160a01b038816916370a0823191602480820192602092909190829003018186803b1580156112f957600080fd5b505afa15801561130d573d6000803e3d6000fd5b505050506040513d602081101561132357600080fd5b5051935061133385858b8b611c79565b811561135d57600854611359906001600160701b0380821691600160701b900416611bc6565b600b555b604080518c8152602081018c905281516001600160a01b038f169233927fdccd412f0b1252819cb1fd330b93224ca42612892bb3f4f789976e6d81936496929081900390910190a35050505050505050506001600d81905550915091565b60405180604001604052806005815260200164054535741560dc1b81525081565b6000610ba3338484611e9a565b6103e881565b600d5460011461143a576040805162461bcd60e51b8152602060048201526011602482015270155b9a5cddd85c158c8e881313d0d2d151607a1b604482015290519081900360640190fd5b6000600d55600654600754600854604080516370a0823160e01b815230600482015290516001600160a01b0394851694909316926114e392859287926114de926001600160701b03169185916370a0823191602480820192602092909190829003018186803b1580156114ac57600080fd5b505afa1580156114c0573d6000803e3d6000fd5b505050506040513d60208110156114d657600080fd5b505190611c29565b611a2c565b61155781846114de6008600e9054906101000a90046001600160701b03166001600160701b0316856001600160a01b03166370a08231306040518263ffffffff1660e01b815260040180826001600160a01b0316815260200191505060206040518083038186803b1580156114ac57600080fd5b50506001600d5550565b6005546001600160a01b031681565b6007546001600160a01b031681565b428410156115c9576040805162461bcd60e51b8152602060048201526012602482015271155b9a5cddd85c158c8e881156141254915160721b604482015290519081900360640190fd5b6003546001600160a01b0380891660008181526004602090815260408083208054600180820190925582517f6e71edae12b1b97f4d1f60370fef10105fa2faae0126114a169c64845d6126c98186015280840196909652958d166060860152608085018c905260a085019590955260c08085018b90528151808603909101815260e08501825280519083012061190160f01b6101008601526101028501969096526101228085019690965280518085039096018652610142840180825286519683019690962095839052610162840180825286905260ff89166101828501526101a284018890526101c28401879052519193926101e280820193601f1981019281900390910190855afa1580156116e4573d6000803e3d6000fd5b5050604051601f1901519150506001600160a01b0381161580159061171a5750886001600160a01b0316816001600160a01b0316145b61176b576040805162461bcd60e51b815260206004820152601c60248201527f556e697377617056323a20494e56414c49445f5349474e415455524500000000604482015290519081900360640190fd5b611776898989611e38565b505050505050505050565b60008163ffffffff16116117dc576040805162461bcd60e51b815260206004820152601960248201527f556e6973776170506169723a206c6f776572207468656e203000000000000000604482015290519081900360640190fd5b6005546001600160a01b03163314611834576040805162461bcd60e51b81526020600482015260166024820152752ab734b9bbb0b82830b4b91d102327a92124a22222a760511b604482015290519081900360640190fd5b6103e88163ffffffff161115611891576040805162461bcd60e51b815260206004820152601a60248201527f556e6973776170506169723a20464f5242494444454e5f464545000000000000604482015290519081900360640190fd5b600c805463ffffffff191663ffffffff92909216919091179055565b600260209081526000928352604080842090915290825290205481565b600d54600114611915576040805162461bcd60e51b8152602060048201526011602482015270155b9a5cddd85c158c8e881313d0d2d151607a1b604482015290519081900360640190fd5b6000600d55600654604080516370a0823160e01b81523060048201529051611a25926001600160a01b0316916370a08231916024808301926020929190829003018186803b15801561196657600080fd5b505afa15801561197a573d6000803e3d6000fd5b505050506040513d602081101561199057600080fd5b5051600754604080516370a0823160e01b815230600482015290516001600160a01b03909216916370a0823191602480820192602092909190829003018186803b1580156119dd57600080fd5b505afa1580156119f1573d6000803e3d6000fd5b505050506040513d6020811015611a0757600080fd5b50516008546001600160701b0380821691600160701b900416611c79565b6001600d55565b604080518082018252601981527f7472616e7366657228616464726573732c75696e74323536290000000000000060209182015281516001600160a01b0385811660248301526044808301869052845180840390910181526064909201845291810180516001600160e01b031663a9059cbb60e01b1781529251815160009460609489169392918291908083835b60208310611ad95780518252601f199092019160209182019101611aba565b6001836020036101000a0380198251168184511680821785525050505050509050019150506000604051808303816000865af19150503d8060008114611b3b576040519150601f19603f3d011682016040523d82523d6000602084013e611b40565b606091505b5091509150818015611b6e575080511580611b6e5750808060200190516020811015611b6b57600080fd5b50515b611bbf576040805162461bcd60e51b815260206004820152601a60248201527f556e697377617056323a205452414e534645525f4641494c4544000000000000604482015290519081900360640190fd5b5050505050565b6000811580611be157505080820282828281611bde57fe5b04145b610ba7576040805162461bcd60e51b815260206004820152601460248201527364732d6d6174682d6d756c2d6f766572666c6f7760601b604482015290519081900360640190fd5b80820382811115610ba7576040805162461bcd60e51b815260206004820152601560248201527464732d6d6174682d7375622d756e646572666c6f7760581b604482015290519081900360640190fd5b6001600160701b038411801590611c9757506001600160701b038311155b611cde576040805162461bcd60e51b8152602060048201526013602482015272556e697377617056323a204f564552464c4f5760681b604482015290519081900360640190fd5b60085463ffffffff42811691600160e01b90048116820390811615801590611d0e57506001600160701b03841615155b8015611d2257506001600160701b03831615155b15611d8d578063ffffffff16611d4a85611d3b8661221d565b6001600160e01b03169061222f565b600980546001600160e01b03929092169290920201905563ffffffff8116611d7584611d3b8761221d565b600a80546001600160e01b0392909216929092020190555b600880546dffffffffffffffffffffffffffff19166001600160701b03888116919091176dffffffffffffffffffffffffffff60701b1916600160701b8883168102919091176001600160e01b0316600160e01b63ffffffff871602179283905560408051848416815291909304909116602082015281517f1c411e9a96e071241c2f21f7726b17ae89e3cab4c78be50e062b03a9fffbbad1929181900390910190a1505050505050565b6001600160a01b03808416600081815260026020908152604080832094871680845294825291829020859055815185815291517f8c5be1e5ebec7d5bd14f71427d1e84f3dd0314c0f7b2291e5b200ac8c7c3b9259281900390910190a3505050565b6001600160a01b038316600090815260016020526040902054611ebd9082611c29565b6001600160a01b038085166000908152600160205260408082209390935590841681522054611eec9082612254565b6001600160a01b0380841660008181526001602090815260409182902094909455805185815290519193928716927fddf252ad1be2c89b69c2b068fc378daa952ba7f163c4a11628f55a4df523b3ef92918290030190a3505050565b600080600560009054906101000a90046001600160a01b03166001600160a01b031663017e7e586040518163ffffffff1660e01b815260040160206040518083038186803b158015611f9957600080fd5b505afa158015611fad573d6000803e3d6000fd5b505050506040513d6020811015611fc357600080fd5b5051600b546001600160a01b03821615801594509192509061208357801561207e576000612000610ed56001600160701b03888116908816611bc6565b9050600061200d83612097565b90508082111561207b5760006120346002610a8061202b8686611c29565b60005490611bc6565b90506000612057612046846002611bc6565b612051866003611bc6565b90612254565b9050600081838161206457fe5b04905080156120775761207787826120e9565b5050505b50505b61208f565b801561208f576000600b555b505092915050565b600060038211156120da575080600160028204015b818110156120d4578091506002818285816120c357fe5b0401816120cc57fe5b0490506120ac565b506120e4565b81156120e4575060015b919050565b6000546120f69082612254565b60009081556001600160a01b03831681526001602052604090205461211b9082612254565b6001600160a01b03831660008181526001602090815260408083209490945583518581529351929391927fddf252ad1be2c89b69c2b068fc378daa952ba7f163c4a11628f55a4df523b3ef9281900390910190a35050565b60008183106121825781612184565b825b9392505050565b6001600160a01b0382166000908152600160205260409020546121ae9082611c29565b6001600160a01b038316600090815260016020526040812091909155546121d59082611c29565b60009081556040805183815290516001600160a01b038516917fddf252ad1be2c89b69c2b068fc378daa952ba7f163c4a11628f55a4df523b3ef919081900360200190a35050565b6001600160701b0316600160701b0290565b60006001600160701b0382166001600160e01b0384168161224c57fe5b049392505050565b80820182811015610ba7576040805162461bcd60e51b815260206004820152601460248201527364732d6d6174682d6164642d6f766572666c6f7760601b604482015290519081900360640190fdfe556e697377617056323a20494e53554646494349454e545f4f55545055545f414d4f554e54556e697377617056323a20494e53554646494349454e545f494e5055545f414d4f554e54556e697377617056323a20494e53554646494349454e545f4c4951554944495459556e697377617056323a20494e53554646494349454e545f4c49515549444954595f4255524e4544556e697377617056323a20494e53554646494349454e545f4c49515549444954595f4d494e544544a26469706673582212203231a1d525f49e47f704ae4f55e0dcfc447cd482b14869a04ba68ea5ee9afb4e64736f6c634300060c0033",
					"opcodes": "PUSH1 0x80 PUSH1 0x40 MSTORE PUSH1 0xC DUP1 SLOAD PUSH4 0xFFFFFFFF NOT AND PUSH1 0x11 OR SWAP1 SSTORE PUSH1 0x1 PUSH1 0xD SSTORE CALLVALUE DUP1 ISZERO PUSH2 0x25 JUMPI PUSH1 0x0 DUP1 REVERT JUMPDEST POP PUSH1 0x40 DUP1 MLOAD DUP1 DUP3 ADD DUP3 MSTORE PUSH1 0x9 DUP2 MSTORE PUSH9 0x54687265655377617 PUSH1 0xBC SHL PUSH1 0x20 SWAP2 DUP3 ADD MSTORE DUP2 MLOAD DUP1 DUP4 ADD DUP4 MSTORE PUSH1 0x1 DUP2 MSTORE PUSH1 0x31 PUSH1 0xF8 SHL SWAP1 DUP3 ADD MSTORE DUP2 MLOAD PUSH32 0x8B73C3C69BB8FE3D512ECC4CF759CC79239F7B179B0FFACAA9A75D522B39400F DUP2 DUP4 ADD MSTORE PUSH32 0x7FF6DC3FF61F96A32B39743C8F45CCBADF74F1C2B457B4ABEDC63EE79897A6D1 DUP2 DUP5 ADD MSTORE PUSH32 0xC89EFDAA54C0F20C7ADF612882DF0950F5A951637E0307CDCB4C672F298B8BC6 PUSH1 0x60 DUP3 ADD MSTORE CHAINID PUSH1 0x80 DUP3 ADD MSTORE ADDRESS PUSH1 0xA0 DUP1 DUP4 ADD SWAP2 SWAP1 SWAP2 MSTORE DUP4 MLOAD DUP1 DUP4 SUB SWAP1 SWAP2 ADD DUP2 MSTORE PUSH1 0xC0 SWAP1 SWAP2 ADD SWAP1 SWAP3 MSTORE DUP2 MLOAD SWAP2 ADD KECCAK256 PUSH1 0x3 SSTORE PUSH1 0x5 DUP1 SLOAD PUSH1 0x1 PUSH1 0x1 PUSH1 0xA0 SHL SUB NOT AND CALLER OR SWAP1 SSTORE PUSH2 0x2393 DUP1 PUSH2 0x117 PUSH1 0x0 CODECOPY PUSH1 0x0 RETURN INVALID PUSH1 0x80 PUSH1 0x40 MSTORE CALLVALUE DUP1 ISZERO PUSH2 0x10 JUMPI PUSH1 0x0 DUP1 REVERT JUMPDEST POP PUSH1 0x4 CALLDATASIZE LT PUSH2 0x1CF JUMPI PUSH1 0x0 CALLDATALOAD PUSH1 0xE0 SHR DUP1 PUSH4 0x6A627842 GT PUSH2 0x104 JUMPI DUP1 PUSH4 0xBA9A7A56 GT PUSH2 0xA2 JUMPI DUP1 PUSH4 0xD505ACCF GT PUSH2 0x71 JUMPI DUP1 PUSH4 0xD505ACCF EQ PUSH2 0x583 JUMPI DUP1 PUSH4 0xD6D788C3 EQ PUSH2 0x5D4 JUMPI DUP1 PUSH4 0xDD62ED3E EQ PUSH2 0x5F7 JUMPI DUP1 PUSH4 0xFFF6CAE9 EQ PUSH2 0x625 JUMPI PUSH2 0x1CF JUMP JUMPDEST DUP1 PUSH4 0xBA9A7A56 EQ PUSH2 0x545 JUMPI DUP1 PUSH4 0xBC25CF77 EQ PUSH2 0x54D JUMPI DUP1 PUSH4 0xC45A0155 EQ PUSH2 0x573 JUMPI DUP1 PUSH4 0xD21220A7 EQ PUSH2 0x57B JUMPI PUSH2 0x1CF JUMP JUMPDEST DUP1 PUSH4 0x7ECEBE00 GT PUSH2 0xDE JUMPI DUP1 PUSH4 0x7ECEBE00 EQ PUSH2 0x4AC JUMPI DUP1 PUSH4 0x89AFCB44 EQ PUSH2 0x4D2 JUMPI DUP1 PUSH4 0x95D89B41 EQ PUSH2 0x511 JUMPI DUP1 PUSH4 0xA9059CBB EQ PUSH2 0x519 JUMPI PUSH2 0x1CF JUMP JUMPDEST DUP1 PUSH4 0x6A627842 EQ PUSH2 0x458 JUMPI DUP1 PUSH4 0x70A08231 EQ PUSH2 0x47E JUMPI DUP1 PUSH4 0x7464FC3D EQ PUSH2 0x4A4 JUMPI PUSH2 0x1CF JUMP JUMPDEST DUP1 PUSH4 0x30ADF81F GT PUSH2 0x171 JUMPI DUP1 PUSH4 0x485CC955 GT PUSH2 0x14B JUMPI DUP1 PUSH4 0x485CC955 EQ PUSH2 0x3F9 JUMPI DUP1 PUSH4 0x54CF2AEB EQ PUSH2 0x427 JUMPI DUP1 PUSH4 0x5909C0D5 EQ PUSH2 0x448 JUMPI DUP1 PUSH4 0x5A3D5493 EQ PUSH2 0x450 JUMPI PUSH2 0x1CF JUMP JUMPDEST DUP1 PUSH4 0x30ADF81F EQ PUSH2 0x3CB JUMPI DUP1 PUSH4 0x313CE567 EQ PUSH2 0x3D3 JUMPI DUP1 PUSH4 0x3644E515 EQ PUSH2 0x3F1 JUMPI PUSH2 0x1CF JUMP JUMPDEST DUP1 PUSH4 0x95EA7B3 GT PUSH2 0x1AD JUMPI DUP1 PUSH4 0x95EA7B3 EQ PUSH2 0x317 JUMPI DUP1 PUSH4 0xDFE1681 EQ PUSH2 0x357 JUMPI DUP1 PUSH4 0x18160DDD EQ PUSH2 0x37B JUMPI DUP1 PUSH4 0x23B872DD EQ PUSH2 0x395 JUMPI PUSH2 0x1CF JUMP JUMPDEST DUP1 PUSH4 0x22C0D9F EQ PUSH2 0x1D4 JUMPI DUP1 PUSH4 0x6FDDE03 EQ PUSH2 0x262 JUMPI DUP1 PUSH4 0x902F1AC EQ PUSH2 0x2DF JUMPI JUMPDEST PUSH1 0x0 DUP1 REVERT JUMPDEST PUSH2 0x260 PUSH1 0x4 DUP1 CALLDATASIZE SUB PUSH1 0x80 DUP2 LT ISZERO PUSH2 0x1EA JUMPI PUSH1 0x0 DUP1 REVERT JUMPDEST DUP2 CALLDATALOAD SWAP2 PUSH1 0x20 DUP2 ADD CALLDATALOAD SWAP2 PUSH1 0x1 PUSH1 0x1 PUSH1 0xA0 SHL SUB PUSH1 0x40 DUP4 ADD CALLDATALOAD AND SWAP2 SWAP1 DUP2 ADD SWAP1 PUSH1 0x80 DUP2 ADD PUSH1 0x60 DUP3 ADD CALLDATALOAD PUSH5 0x100000000 DUP2 GT ISZERO PUSH2 0x221 JUMPI PUSH1 0x0 DUP1 REVERT JUMPDEST DUP3 ADD DUP4 PUSH1 0x20 DUP3 ADD GT ISZERO PUSH2 0x233 JUMPI PUSH1 0x0 DUP1 REVERT JUMPDEST DUP1 CALLDATALOAD SWAP1 PUSH1 0x20 ADD SWAP2 DUP5 PUSH1 0x1 DUP4 MUL DUP5 ADD GT PUSH5 0x100000000 DUP4 GT OR ISZERO PUSH2 0x255 JUMPI PUSH1 0x0 DUP1 REVERT JUMPDEST POP SWAP1 SWAP3 POP SWAP1 POP PUSH2 0x62D JUMP JUMPDEST STOP JUMPDEST PUSH2 0x26A PUSH2 0xB47 JUMP JUMPDEST PUSH1 0x40 DUP1 MLOAD PUSH1 0x20 DUP1 DUP3 MSTORE DUP4 MLOAD DUP2 DUP4 ADD MSTORE DUP4 MLOAD SWAP2 SWAP3 DUP4 SWAP3 SWAP1 DUP4 ADD SWAP2 DUP6 ADD SWAP1 DUP1 DUP4 DUP4 PUSH1 0x0 JUMPDEST DUP4 DUP2 LT ISZERO PUSH2 0x2A4 JUMPI DUP2 DUP2 ADD MLOAD DUP4 DUP3 ADD MSTORE PUSH1 0x20 ADD PUSH2 0x28C JUMP JUMPDEST POP POP POP POP SWAP1 POP SWAP1 DUP2 ADD SWAP1 PUSH1 0x1F AND DUP1 ISZERO PUSH2 0x2D1 JUMPI DUP1 DUP3 SUB DUP1 MLOAD PUSH1 0x1 DUP4 PUSH1 0x20 SUB PUSH2 0x100 EXP SUB NOT AND DUP2 MSTORE PUSH1 0x20 ADD SWAP2 POP JUMPDEST POP SWAP3 POP POP POP PUSH1 0x40 MLOAD DUP1 SWAP2 SUB SWAP1 RETURN JUMPDEST PUSH2 0x2E7 PUSH2 0xB6C JUMP JUMPDEST PUSH1 0x40 DUP1 MLOAD PUSH1 0x1 PUSH1 0x1 PUSH1 0x70 SHL SUB SWAP5 DUP6 AND DUP2 MSTORE SWAP3 SWAP1 SWAP4 AND PUSH1 0x20 DUP4 ADD MSTORE PUSH4 0xFFFFFFFF AND DUP2 DUP4 ADD MSTORE SWAP1 MLOAD SWAP1 DUP2 SWAP1 SUB PUSH1 0x60 ADD SWAP1 RETURN JUMPDEST PUSH2 0x343 PUSH1 0x4 DUP1 CALLDATASIZE SUB PUSH1 0x40 DUP2 LT ISZERO PUSH2 0x32D JUMPI PUSH1 0x0 DUP1 REVERT JUMPDEST POP PUSH1 0x1 PUSH1 0x1 PUSH1 0xA0 SHL SUB DUP2 CALLDATALOAD AND SWAP1 PUSH1 0x20 ADD CALLDATALOAD PUSH2 0xB96 JUMP JUMPDEST PUSH1 0x40 DUP1 MLOAD SWAP2 ISZERO ISZERO DUP3 MSTORE MLOAD SWAP1 DUP2 SWAP1 SUB PUSH1 0x20 ADD SWAP1 RETURN JUMPDEST PUSH2 0x35F PUSH2 0xBAD JUMP JUMPDEST PUSH1 0x40 DUP1 MLOAD PUSH1 0x1 PUSH1 0x1 PUSH1 0xA0 SHL SUB SWAP1 SWAP3 AND DUP3 MSTORE MLOAD SWAP1 DUP2 SWAP1 SUB PUSH1 0x20 ADD SWAP1 RETURN JUMPDEST PUSH2 0x383 PUSH2 0xBBC JUMP JUMPDEST PUSH1 0x40 DUP1 MLOAD SWAP2 DUP3 MSTORE MLOAD SWAP1 DUP2 SWAP1 SUB PUSH1 0x20 ADD SWAP1 RETURN JUMPDEST PUSH2 0x343 PUSH1 0x4 DUP1 CALLDATASIZE SUB PUSH1 0x60 DUP2 LT ISZERO PUSH2 0x3AB JUMPI PUSH1 0x0 DUP1 REVERT JUMPDEST POP PUSH1 0x1 PUSH1 0x1 PUSH1 0xA0 SHL SUB DUP2 CALLDATALOAD DUP2 AND SWAP2 PUSH1 0x20 DUP2 ADD CALLDATALOAD SWAP1 SWAP2 AND SWAP1 PUSH1 0x40 ADD CALLDATALOAD PUSH2 0xBC2 JUMP JUMPDEST PUSH2 0x383 PUSH2 0xC56 JUMP JUMPDEST PUSH2 0x3DB PUSH2 0xC7A JUMP JUMPDEST PUSH1 0x40 DUP1 MLOAD PUSH1 0xFF SWAP1 SWAP3 AND DUP3 MSTORE MLOAD SWAP1 DUP2 SWAP1 SUB PUSH1 0x20 ADD SWAP1 RETURN JUMPDEST PUSH2 0x383 PUSH2 0xC7F JUMP JUMPDEST PUSH2 0x260 PUSH1 0x4 DUP1 CALLDATASIZE SUB PUSH1 0x40 DUP2 LT ISZERO PUSH2 0x40F JUMPI PUSH1 0x0 DUP1 REVERT JUMPDEST POP PUSH1 0x1 PUSH1 0x1 PUSH1 0xA0 SHL SUB DUP2 CALLDATALOAD DUP2 AND SWAP2 PUSH1 0x20 ADD CALLDATALOAD AND PUSH2 0xC85 JUMP JUMPDEST PUSH2 0x42F PUSH2 0xD09 JUMP JUMPDEST PUSH1 0x40 DUP1 MLOAD PUSH4 0xFFFFFFFF SWAP1 SWAP3 AND DUP3 MSTORE MLOAD SWAP1 DUP2 SWAP1 SUB PUSH1 0x20 ADD SWAP1 RETURN JUMPDEST PUSH2 0x383 PUSH2 0xD15 JUMP JUMPDEST PUSH2 0x383 PUSH2 0xD1B JUMP JUMPDEST PUSH2 0x383 PUSH1 0x4 DUP1 CALLDATASIZE SUB PUSH1 0x20 DUP2 LT ISZERO PUSH2 0x46E JUMPI PUSH1 0x0 DUP1 REVERT JUMPDEST POP CALLDATALOAD PUSH1 0x1 PUSH1 0x1 PUSH1 0xA0 SHL SUB AND PUSH2 0xD21 JUMP JUMPDEST PUSH2 0x383 PUSH1 0x4 DUP1 CALLDATASIZE SUB PUSH1 0x20 DUP2 LT ISZERO PUSH2 0x494 JUMPI PUSH1 0x0 DUP1 REVERT JUMPDEST POP CALLDATALOAD PUSH1 0x1 PUSH1 0x1 PUSH1 0xA0 SHL SUB AND PUSH2 0xFFD JUMP JUMPDEST PUSH2 0x383 PUSH2 0x100F JUMP JUMPDEST PUSH2 0x383 PUSH1 0x4 DUP1 CALLDATASIZE SUB PUSH1 0x20 DUP2 LT ISZERO PUSH2 0x4C2 JUMPI PUSH1 0x0 DUP1 REVERT JUMPDEST POP CALLDATALOAD PUSH1 0x1 PUSH1 0x1 PUSH1 0xA0 SHL SUB AND PUSH2 0x1015 JUMP JUMPDEST PUSH2 0x4F8 PUSH1 0x4 DUP1 CALLDATASIZE SUB PUSH1 0x20 DUP2 LT ISZERO PUSH2 0x4E8 JUMPI PUSH1 0x0 DUP1 REVERT JUMPDEST POP CALLDATALOAD PUSH1 0x1 PUSH1 0x1 PUSH1 0xA0 SHL SUB AND PUSH2 0x1027 JUMP JUMPDEST PUSH1 0x40 DUP1 MLOAD SWAP3 DUP4 MSTORE PUSH1 0x20 DUP4 ADD SWAP2 SWAP1 SWAP2 MSTORE DUP1 MLOAD SWAP2 DUP3 SWAP1 SUB ADD SWAP1 RETURN JUMPDEST PUSH2 0x26A PUSH2 0x13BB JUMP JUMPDEST PUSH2 0x343 PUSH1 0x4 DUP1 CALLDATASIZE SUB PUSH1 0x40 DUP2 LT ISZERO PUSH2 0x52F JUMPI PUSH1 0x0 DUP1 REVERT JUMPDEST POP PUSH1 0x1 PUSH1 0x1 PUSH1 0xA0 SHL SUB DUP2 CALLDATALOAD AND SWAP1 PUSH1 0x20 ADD CALLDATALOAD PUSH2 0x13DC JUMP JUMPDEST PUSH2 0x383 PUSH2 0x13E9 JUMP JUMPDEST PUSH2 0x260 PUSH1 0x4 DUP1 CALLDATASIZE SUB PUSH1 0x20 DUP2 LT ISZERO PUSH2 0x563 JUMPI PUSH1 0x0 DUP1 REVERT JUMPDEST POP CALLDATALOAD PUSH1 0x1 PUSH1 0x1 PUSH1 0xA0 SHL SUB AND PUSH2 0x13EF JUMP JUMPDEST PUSH2 0x35F PUSH2 0x1561 JUMP JUMPDEST PUSH2 0x35F PUSH2 0x1570 JUMP JUMPDEST PUSH2 0x260 PUSH1 0x4 DUP1 CALLDATASIZE SUB PUSH1 0xE0 DUP2 LT ISZERO PUSH2 0x599 JUMPI PUSH1 0x0 DUP1 REVERT JUMPDEST POP PUSH1 0x1 PUSH1 0x1 PUSH1 0xA0 SHL SUB DUP2 CALLDATALOAD DUP2 AND SWAP2 PUSH1 0x20 DUP2 ADD CALLDATALOAD SWAP1 SWAP2 AND SWAP1 PUSH1 0x40 DUP2 ADD CALLDATALOAD SWAP1 PUSH1 0x60 DUP2 ADD CALLDATALOAD SWAP1 PUSH1 0xFF PUSH1 0x80 DUP3 ADD CALLDATALOAD AND SWAP1 PUSH1 0xA0 DUP2 ADD CALLDATALOAD SWAP1 PUSH1 0xC0 ADD CALLDATALOAD PUSH2 0x157F JUMP JUMPDEST PUSH2 0x260 PUSH1 0x4 DUP1 CALLDATASIZE SUB PUSH1 0x20 DUP2 LT ISZERO PUSH2 0x5EA JUMPI PUSH1 0x0 DUP1 REVERT JUMPDEST POP CALLDATALOAD PUSH4 0xFFFFFFFF AND PUSH2 0x1781 JUMP JUMPDEST PUSH2 0x383 PUSH1 0x4 DUP1 CALLDATASIZE SUB PUSH1 0x40 DUP2 LT ISZERO PUSH2 0x60D JUMPI PUSH1 0x0 DUP1 REVERT JUMPDEST POP PUSH1 0x1 PUSH1 0x1 PUSH1 0xA0 SHL SUB DUP2 CALLDATALOAD DUP2 AND SWAP2 PUSH1 0x20 ADD CALLDATALOAD AND PUSH2 0x18AD JUMP JUMPDEST PUSH2 0x260 PUSH2 0x18CA JUMP JUMPDEST PUSH1 0xD SLOAD PUSH1 0x1 EQ PUSH2 0x678 JUMPI PUSH1 0x40 DUP1 MLOAD PUSH3 0x461BCD PUSH1 0xE5 SHL DUP2 MSTORE PUSH1 0x20 PUSH1 0x4 DUP3 ADD MSTORE PUSH1 0x11 PUSH1 0x24 DUP3 ADD MSTORE PUSH17 0x155B9A5CDDD85C158C8E881313D0D2D151 PUSH1 0x7A SHL PUSH1 0x44 DUP3 ADD MSTORE SWAP1 MLOAD SWAP1 DUP2 SWAP1 SUB PUSH1 0x64 ADD SWAP1 REVERT JUMPDEST PUSH1 0x0 PUSH1 0xD SSTORE DUP5 ISZERO ISZERO DUP1 PUSH2 0x68B JUMPI POP PUSH1 0x0 DUP5 GT JUMPDEST PUSH2 0x6C6 JUMPI PUSH1 0x40 MLOAD PUSH3 0x461BCD PUSH1 0xE5 SHL DUP2 MSTORE PUSH1 0x4 ADD DUP1 DUP1 PUSH1 0x20 ADD DUP3 DUP2 SUB DUP3 MSTORE PUSH1 0x25 DUP2 MSTORE PUSH1 0x20 ADD DUP1 PUSH2 0x22A4 PUSH1 0x25 SWAP2 CODECOPY PUSH1 0x40 ADD SWAP2 POP POP PUSH1 0x40 MLOAD DUP1 SWAP2 SUB SWAP1 REVERT JUMPDEST PUSH1 0x0 DUP1 PUSH2 0x6D1 PUSH2 0xB6C JUMP JUMPDEST POP SWAP2 POP SWAP2 POP DUP2 PUSH1 0x1 PUSH1 0x1 PUSH1 0x70 SHL SUB AND DUP8 LT DUP1 ISZERO PUSH2 0x6F6 JUMPI POP DUP1 PUSH1 0x1 PUSH1 0x1 PUSH1 0x70 SHL SUB AND DUP7 LT JUMPDEST PUSH2 0x731 JUMPI PUSH1 0x40 MLOAD PUSH3 0x461BCD PUSH1 0xE5 SHL DUP2 MSTORE PUSH1 0x4 ADD DUP1 DUP1 PUSH1 0x20 ADD DUP3 DUP2 SUB DUP3 MSTORE PUSH1 0x21 DUP2 MSTORE PUSH1 0x20 ADD DUP1 PUSH2 0x22ED PUSH1 0x21 SWAP2 CODECOPY PUSH1 0x40 ADD SWAP2 POP POP PUSH1 0x40 MLOAD DUP1 SWAP2 SUB SWAP1 REVERT JUMPDEST PUSH1 0x6 SLOAD PUSH1 0x7 SLOAD PUSH1 0x0 SWAP2 DUP3 SWAP2 PUSH1 0x1 PUSH1 0x1 PUSH1 0xA0 SHL SUB SWAP2 DUP3 AND SWAP2 SWAP1 DUP2 AND SWAP1 DUP10 AND DUP3 EQ DUP1 ISZERO SWAP1 PUSH2 0x76F JUMPI POP DUP1 PUSH1 0x1 PUSH1 0x1 PUSH1 0xA0 SHL SUB AND DUP10 PUSH1 0x1 PUSH1 0x1 PUSH1 0xA0 SHL SUB AND EQ ISZERO JUMPDEST PUSH2 0x7B8 JUMPI PUSH1 0x40 DUP1 MLOAD PUSH3 0x461BCD PUSH1 0xE5 SHL DUP2 MSTORE PUSH1 0x20 PUSH1 0x4 DUP3 ADD MSTORE PUSH1 0x15 PUSH1 0x24 DUP3 ADD MSTORE PUSH21 0x556E697377617056323A20494E56414C49445F544F PUSH1 0x58 SHL PUSH1 0x44 DUP3 ADD MSTORE SWAP1 MLOAD SWAP1 DUP2 SWAP1 SUB PUSH1 0x64 ADD SWAP1 REVERT JUMPDEST DUP11 ISZERO PUSH2 0x7C9 JUMPI PUSH2 0x7C9 DUP3 DUP11 DUP14 PUSH2 0x1A2C JUMP JUMPDEST DUP10 ISZERO PUSH2 0x7DA JUMPI PUSH2 0x7DA DUP2 DUP11 DUP13 PUSH2 0x1A2C JUMP JUMPDEST DUP7 ISZERO PUSH2 0x88C JUMPI DUP9 PUSH1 0x1 PUSH1 0x1 PUSH1 0xA0 SHL SUB AND PUSH4 0x10D1E85C CALLER DUP14 DUP14 DUP13 DUP13 PUSH1 0x40 MLOAD DUP7 PUSH4 0xFFFFFFFF AND PUSH1 0xE0 SHL DUP2 MSTORE PUSH1 0x4 ADD DUP1 DUP7 PUSH1 0x1 PUSH1 0x1 PUSH1 0xA0 SHL SUB AND DUP2 MSTORE PUSH1 0x20 ADD DUP6 DUP2 MSTORE PUSH1 0x20 ADD DUP5 DUP2 MSTORE PUSH1 0x20 ADD DUP1 PUSH1 0x20 ADD DUP3 DUP2 SUB DUP3 MSTORE DUP5 DUP5 DUP3 DUP2 DUP2 MSTORE PUSH1 0x20 ADD SWAP3 POP DUP1 DUP3 DUP5 CALLDATACOPY PUSH1 0x0 DUP2 DUP5 ADD MSTORE PUSH1 0x1F NOT PUSH1 0x1F DUP3 ADD AND SWAP1 POP DUP1 DUP4 ADD SWAP3 POP POP POP SWAP7 POP POP POP POP POP POP POP PUSH1 0x0 PUSH1 0x40 MLOAD DUP1 DUP4 SUB DUP2 PUSH1 0x0 DUP8 DUP1 EXTCODESIZE ISZERO DUP1 ISZERO PUSH2 0x873 JUMPI PUSH1 0x0 DUP1 REVERT JUMPDEST POP GAS CALL ISZERO DUP1 ISZERO PUSH2 0x887 JUMPI RETURNDATASIZE PUSH1 0x0 DUP1 RETURNDATACOPY RETURNDATASIZE PUSH1 0x0 REVERT JUMPDEST POP POP POP POP JUMPDEST PUSH1 0x40 DUP1 MLOAD PUSH4 0x70A08231 PUSH1 0xE0 SHL DUP2 MSTORE ADDRESS PUSH1 0x4 DUP3 ADD MSTORE SWAP1 MLOAD PUSH1 0x1 PUSH1 0x1 PUSH1 0xA0 SHL SUB DUP5 AND SWAP2 PUSH4 0x70A08231 SWAP2 PUSH1 0x24 DUP1 DUP4 ADD SWAP3 PUSH1 0x20 SWAP3 SWAP2 SWAP1 DUP3 SWAP1 SUB ADD DUP2 DUP7 DUP1 EXTCODESIZE ISZERO DUP1 ISZERO PUSH2 0x8D2 JUMPI PUSH1 0x0 DUP1 REVERT JUMPDEST POP GAS STATICCALL ISZERO DUP1 ISZERO PUSH2 0x8E6 JUMPI RETURNDATASIZE PUSH1 0x0 DUP1 RETURNDATACOPY RETURNDATASIZE PUSH1 0x0 REVERT JUMPDEST POP POP POP POP PUSH1 0x40 MLOAD RETURNDATASIZE PUSH1 0x20 DUP2 LT ISZERO PUSH2 0x8FC JUMPI PUSH1 0x0 DUP1 REVERT JUMPDEST POP MLOAD PUSH1 0x40 DUP1 MLOAD PUSH4 0x70A08231 PUSH1 0xE0 SHL DUP2 MSTORE ADDRESS PUSH1 0x4 DUP3 ADD MSTORE SWAP1 MLOAD SWAP2 SWAP6 POP PUSH1 0x1 PUSH1 0x1 PUSH1 0xA0 SHL SUB DUP4 AND SWAP2 PUSH4 0x70A08231 SWAP2 PUSH1 0x24 DUP1 DUP3 ADD SWAP3 PUSH1 0x20 SWAP3 SWAP1 SWAP2 SWAP1 DUP3 SWAP1 SUB ADD DUP2 DUP7 DUP1 EXTCODESIZE ISZERO DUP1 ISZERO PUSH2 0x948 JUMPI PUSH1 0x0 DUP1 REVERT JUMPDEST POP GAS STATICCALL ISZERO DUP1 ISZERO PUSH2 0x95C JUMPI RETURNDATASIZE PUSH1 0x0 DUP1 RETURNDATACOPY RETURNDATASIZE PUSH1 0x0 REVERT JUMPDEST POP POP POP POP PUSH1 0x40 MLOAD RETURNDATASIZE PUSH1 0x20 DUP2 LT ISZERO PUSH2 0x972 JUMPI PUSH1 0x0 DUP1 REVERT JUMPDEST POP MLOAD SWAP3 POP PUSH1 0x0 SWAP2 POP POP PUSH1 0x1 PUSH1 0x1 PUSH1 0x70 SHL SUB DUP6 AND DUP11 SWAP1 SUB DUP4 GT PUSH2 0x995 JUMPI PUSH1 0x0 PUSH2 0x9A4 JUMP JUMPDEST DUP10 DUP6 PUSH1 0x1 PUSH1 0x1 PUSH1 0x70 SHL SUB AND SUB DUP4 SUB JUMPDEST SWAP1 POP PUSH1 0x0 DUP10 DUP6 PUSH1 0x1 PUSH1 0x1 PUSH1 0x70 SHL SUB AND SUB DUP4 GT PUSH2 0x9C1 JUMPI PUSH1 0x0 PUSH2 0x9D0 JUMP JUMPDEST DUP10 DUP6 PUSH1 0x1 PUSH1 0x1 PUSH1 0x70 SHL SUB AND SUB DUP4 SUB JUMPDEST SWAP1 POP PUSH1 0x0 DUP3 GT DUP1 PUSH2 0x9E1 JUMPI POP PUSH1 0x0 DUP2 GT JUMPDEST PUSH2 0xA1C JUMPI PUSH1 0x40 MLOAD PUSH3 0x461BCD PUSH1 0xE5 SHL DUP2 MSTORE PUSH1 0x4 ADD DUP1 DUP1 PUSH1 0x20 ADD DUP3 DUP2 SUB DUP3 MSTORE PUSH1 0x24 DUP2 MSTORE PUSH1 0x20 ADD DUP1 PUSH2 0x22C9 PUSH1 0x24 SWAP2 CODECOPY PUSH1 0x40 ADD SWAP2 POP POP PUSH1 0x40 MLOAD DUP1 SWAP2 SUB SWAP1 REVERT JUMPDEST PUSH1 0xC SLOAD PUSH4 0xFFFFFFFF SWAP1 DUP2 AND SWAP1 PUSH1 0x0 SWAP1 PUSH2 0xA4F SWAP1 PUSH2 0xA3D SWAP1 DUP7 SWAP1 DUP6 SWAP1 PUSH2 0x1BC6 AND JUMP JUMPDEST PUSH2 0xA49 DUP9 PUSH2 0x2710 PUSH2 0x1BC6 JUMP JUMPDEST SWAP1 PUSH2 0x1C29 JUMP JUMPDEST SWAP1 POP PUSH1 0x0 PUSH2 0xA60 PUSH2 0xA3D DUP6 DUP6 PUSH2 0x1BC6 JUMP JUMPDEST SWAP1 POP PUSH2 0xA86 PUSH4 0x5F5E100 PUSH2 0xA80 PUSH1 0x1 PUSH1 0x1 PUSH1 0x70 SHL SUB DUP13 DUP2 AND SWAP1 DUP13 AND PUSH2 0x1BC6 JUMP JUMPDEST SWAP1 PUSH2 0x1BC6 JUMP JUMPDEST PUSH2 0xA90 DUP4 DUP4 PUSH2 0x1BC6 JUMP JUMPDEST LT ISZERO PUSH2 0xAD2 JUMPI PUSH1 0x40 DUP1 MLOAD PUSH3 0x461BCD PUSH1 0xE5 SHL DUP2 MSTORE PUSH1 0x20 PUSH1 0x4 DUP3 ADD MSTORE PUSH1 0xC PUSH1 0x24 DUP3 ADD MSTORE PUSH12 0x556E697377617056323A204B PUSH1 0xA0 SHL PUSH1 0x44 DUP3 ADD MSTORE SWAP1 MLOAD SWAP1 DUP2 SWAP1 SUB PUSH1 0x64 ADD SWAP1 REVERT JUMPDEST POP POP POP PUSH2 0xAE1 DUP5 DUP5 DUP9 DUP9 PUSH2 0x1C79 JUMP JUMPDEST PUSH1 0x40 DUP1 MLOAD DUP4 DUP2 MSTORE PUSH1 0x20 DUP2 ADD DUP4 SWAP1 MSTORE DUP1 DUP3 ADD DUP14 SWAP1 MSTORE PUSH1 0x60 DUP2 ADD DUP13 SWAP1 MSTORE SWAP1 MLOAD PUSH1 0x1 PUSH1 0x1 PUSH1 0xA0 SHL SUB DUP12 AND SWAP2 CALLER SWAP2 PUSH32 0xD78AD95FA46C994B6551D0DA85FC275FE613CE37657FB8D5E3D130840159D822 SWAP2 DUP2 SWAP1 SUB PUSH1 0x80 ADD SWAP1 LOG3 POP POP PUSH1 0x1 PUSH1 0xD SSTORE POP POP POP POP POP POP POP POP POP JUMP JUMPDEST PUSH1 0x40 MLOAD DUP1 PUSH1 0x40 ADD PUSH1 0x40 MSTORE DUP1 PUSH1 0x9 DUP2 MSTORE PUSH1 0x20 ADD PUSH9 0x54687265655377617 PUSH1 0xBC SHL DUP2 MSTORE POP DUP2 JUMP JUMPDEST PUSH1 0x8 SLOAD PUSH1 0x1 PUSH1 0x1 PUSH1 0x70 SHL SUB DUP1 DUP3 AND SWAP3 PUSH1 0x1 PUSH1 0x70 SHL DUP4 DIV SWAP1 SWAP2 AND SWAP2 PUSH1 0x1 PUSH1 0xE0 SHL SWAP1 DIV PUSH4 0xFFFFFFFF AND SWAP1 JUMP JUMPDEST PUSH1 0x0 PUSH2 0xBA3 CALLER DUP5 DUP5 PUSH2 0x1E38 JUMP JUMPDEST POP PUSH1 0x1 JUMPDEST SWAP3 SWAP2 POP POP JUMP JUMPDEST PUSH1 0x6 SLOAD PUSH1 0x1 PUSH1 0x1 PUSH1 0xA0 SHL SUB AND DUP2 JUMP JUMPDEST PUSH1 0x0 SLOAD DUP2 JUMP JUMPDEST PUSH1 0x1 PUSH1 0x1 PUSH1 0xA0 SHL SUB DUP4 AND PUSH1 0x0 SWAP1 DUP2 MSTORE PUSH1 0x2 PUSH1 0x20 SWAP1 DUP2 MSTORE PUSH1 0x40 DUP1 DUP4 KECCAK256 CALLER DUP5 MSTORE SWAP1 SWAP2 MSTORE DUP2 KECCAK256 SLOAD PUSH1 0x0 NOT EQ PUSH2 0xC41 JUMPI PUSH1 0x1 PUSH1 0x1 PUSH1 0xA0 SHL SUB DUP5 AND PUSH1 0x0 SWAP1 DUP2 MSTORE PUSH1 0x2 PUSH1 0x20 SWAP1 DUP2 MSTORE PUSH1 0x40 DUP1 DUP4 KECCAK256 CALLER DUP5 MSTORE SWAP1 SWAP2 MSTORE SWAP1 KECCAK256 SLOAD PUSH2 0xC1C SWAP1 DUP4 PUSH2 0x1C29 JUMP JUMPDEST PUSH1 0x1 PUSH1 0x1 PUSH1 0xA0 SHL SUB DUP6 AND PUSH1 0x0 SWAP1 DUP2 MSTORE PUSH1 0x2 PUSH1 0x20 SWAP1 DUP2 MSTORE PUSH1 0x40 DUP1 DUP4 KECCAK256 CALLER DUP5 MSTORE SWAP1 SWAP2 MSTORE SWAP1 KECCAK256 SSTORE JUMPDEST PUSH2 0xC4C DUP5 DUP5 DUP5 PUSH2 0x1E9A JUMP JUMPDEST POP PUSH1 0x1 SWAP4 SWAP3 POP POP POP JUMP JUMPDEST PUSH32 0x6E71EDAE12B1B97F4D1F60370FEF10105FA2FAAE0126114A169C64845D6126C9 DUP2 JUMP JUMPDEST PUSH1 0x12 DUP2 JUMP JUMPDEST PUSH1 0x3 SLOAD DUP2 JUMP JUMPDEST PUSH1 0x5 SLOAD PUSH1 0x1 PUSH1 0x1 PUSH1 0xA0 SHL SUB AND CALLER EQ PUSH2 0xCDB JUMPI PUSH1 0x40 DUP1 MLOAD PUSH3 0x461BCD PUSH1 0xE5 SHL DUP2 MSTORE PUSH1 0x20 PUSH1 0x4 DUP3 ADD MSTORE PUSH1 0x14 PUSH1 0x24 DUP3 ADD MSTORE PUSH20 0x2AB734B9BBB0B82B191D102327A92124A22222A7 PUSH1 0x61 SHL PUSH1 0x44 DUP3 ADD MSTORE SWAP1 MLOAD SWAP1 DUP2 SWAP1 SUB PUSH1 0x64 ADD SWAP1 REVERT JUMPDEST PUSH1 0x6 DUP1 SLOAD PUSH1 0x1 PUSH1 0x1 PUSH1 0xA0 SHL SUB SWAP4 DUP5 AND PUSH1 0x1 PUSH1 0x1 PUSH1 0xA0 SHL SUB NOT SWAP2 DUP3 AND OR SWAP1 SWAP2 SSTORE PUSH1 0x7 DUP1 SLOAD SWAP3 SWAP1 SWAP4 AND SWAP2 AND OR SWAP1 SSTORE JUMP JUMPDEST PUSH1 0xC SLOAD PUSH4 0xFFFFFFFF AND DUP2 JUMP JUMPDEST PUSH1 0x9 SLOAD DUP2 JUMP JUMPDEST PUSH1 0xA SLOAD DUP2 JUMP JUMPDEST PUSH1 0x0 PUSH1 0xD SLOAD PUSH1 0x1 EQ PUSH2 0xD6E JUMPI PUSH1 0x40 DUP1 MLOAD PUSH3 0x461BCD PUSH1 0xE5 SHL DUP2 MSTORE PUSH1 0x20 PUSH1 0x4 DUP3 ADD MSTORE PUSH1 0x11 PUSH1 0x24 DUP3 ADD MSTORE PUSH17 0x155B9A5CDDD85C158C8E881313D0D2D151 PUSH1 0x7A SHL PUSH1 0x44 DUP3 ADD MSTORE SWAP1 MLOAD SWAP1 DUP2 SWAP1 SUB PUSH1 0x64 ADD SWAP1 REVERT JUMPDEST PUSH1 0x0 PUSH1 0xD DUP2 SWAP1 SSTORE DUP1 PUSH2 0xD7E PUSH2 0xB6C JUMP JUMPDEST POP PUSH1 0x6 SLOAD PUSH1 0x40 DUP1 MLOAD PUSH4 0x70A08231 PUSH1 0xE0 SHL DUP2 MSTORE ADDRESS PUSH1 0x4 DUP3 ADD MSTORE SWAP1 MLOAD SWAP4 SWAP6 POP SWAP2 SWAP4 POP PUSH1 0x0 SWAP3 PUSH1 0x1 PUSH1 0x1 PUSH1 0xA0 SHL SUB SWAP1 SWAP2 AND SWAP2 PUSH4 0x70A08231 SWAP2 PUSH1 0x24 DUP1 DUP4 ADD SWAP3 PUSH1 0x20 SWAP3 SWAP2 SWAP1 DUP3 SWAP1 SUB ADD DUP2 DUP7 DUP1 EXTCODESIZE ISZERO DUP1 ISZERO PUSH2 0xDD2 JUMPI PUSH1 0x0 DUP1 REVERT JUMPDEST POP GAS STATICCALL ISZERO DUP1 ISZERO PUSH2 0xDE6 JUMPI RETURNDATASIZE PUSH1 0x0 DUP1 RETURNDATACOPY RETURNDATASIZE PUSH1 0x0 REVERT JUMPDEST POP POP POP POP PUSH1 0x40 MLOAD RETURNDATASIZE PUSH1 0x20 DUP2 LT ISZERO PUSH2 0xDFC JUMPI PUSH1 0x0 DUP1 REVERT JUMPDEST POP MLOAD PUSH1 0x7 SLOAD PUSH1 0x40 DUP1 MLOAD PUSH4 0x70A08231 PUSH1 0xE0 SHL DUP2 MSTORE ADDRESS PUSH1 0x4 DUP3 ADD MSTORE SWAP1 MLOAD SWAP3 SWAP4 POP PUSH1 0x0 SWAP3 PUSH1 0x1 PUSH1 0x1 PUSH1 0xA0 SHL SUB SWAP1 SWAP3 AND SWAP2 PUSH4 0x70A08231 SWAP2 PUSH1 0x24 DUP1 DUP3 ADD SWAP3 PUSH1 0x20 SWAP3 SWAP1 SWAP2 SWAP1 DUP3 SWAP1 SUB ADD DUP2 DUP7 DUP1 EXTCODESIZE ISZERO DUP1 ISZERO PUSH2 0xE4F JUMPI PUSH1 0x0 DUP1 REVERT JUMPDEST POP GAS STATICCALL ISZERO DUP1 ISZERO PUSH2 0xE63 JUMPI RETURNDATASIZE PUSH1 0x0 DUP1 RETURNDATACOPY RETURNDATASIZE PUSH1 0x0 REVERT JUMPDEST POP POP POP POP PUSH1 0x40 MLOAD RETURNDATASIZE PUSH1 0x20 DUP2 LT ISZERO PUSH2 0xE79 JUMPI PUSH1 0x0 DUP1 REVERT JUMPDEST POP MLOAD SWAP1 POP PUSH1 0x0 PUSH2 0xE92 DUP4 PUSH1 0x1 PUSH1 0x1 PUSH1 0x70 SHL SUB DUP8 AND PUSH2 0x1C29 JUMP JUMPDEST SWAP1 POP PUSH1 0x0 PUSH2 0xEA9 DUP4 PUSH1 0x1 PUSH1 0x1 PUSH1 0x70 SHL SUB DUP8 AND PUSH2 0x1C29 JUMP JUMPDEST SWAP1 POP PUSH1 0x0 PUSH2 0xEB7 DUP8 DUP8 PUSH2 0x1F48 JUMP JUMPDEST PUSH1 0x0 SLOAD SWAP1 SWAP2 POP DUP1 PUSH2 0xEEE JUMPI PUSH2 0xEDA PUSH2 0x3E8 PUSH2 0xA49 PUSH2 0xED5 DUP8 DUP8 PUSH2 0x1BC6 JUMP JUMPDEST PUSH2 0x2097 JUMP JUMPDEST SWAP9 POP PUSH2 0xEE9 PUSH1 0x0 PUSH2 0x3E8 PUSH2 0x20E9 JUMP JUMPDEST PUSH2 0xF31 JUMP JUMPDEST PUSH2 0xF2E PUSH1 0x1 PUSH1 0x1 PUSH1 0x70 SHL SUB DUP10 AND PUSH2 0xF05 DUP7 DUP5 PUSH2 0x1BC6 JUMP JUMPDEST DUP2 PUSH2 0xF0C JUMPI INVALID JUMPDEST DIV PUSH1 0x1 PUSH1 0x1 PUSH1 0x70 SHL SUB DUP10 AND PUSH2 0xF21 DUP7 DUP6 PUSH2 0x1BC6 JUMP JUMPDEST DUP2 PUSH2 0xF28 JUMPI INVALID JUMPDEST DIV PUSH2 0x2173 JUMP JUMPDEST SWAP9 POP JUMPDEST PUSH1 0x0 DUP10 GT PUSH2 0xF70 JUMPI PUSH1 0x40 MLOAD PUSH3 0x461BCD PUSH1 0xE5 SHL DUP2 MSTORE PUSH1 0x4 ADD DUP1 DUP1 PUSH1 0x20 ADD DUP3 DUP2 SUB DUP3 MSTORE PUSH1 0x28 DUP2 MSTORE PUSH1 0x20 ADD DUP1 PUSH2 0x2336 PUSH1 0x28 SWAP2 CODECOPY PUSH1 0x40 ADD SWAP2 POP POP PUSH1 0x40 MLOAD DUP1 SWAP2 SUB SWAP1 REVERT JUMPDEST PUSH2 0xF7A DUP11 DUP11 PUSH2 0x20E9 JUMP JUMPDEST PUSH2 0xF86 DUP7 DUP7 DUP11 DUP11 PUSH2 0x1C79 JUMP JUMPDEST DUP2 ISZERO PUSH2 0xFB0 JUMPI PUSH1 0x8 SLOAD PUSH2 0xFAC SWAP1 PUSH1 0x1 PUSH1 0x1 PUSH1 0x70 SHL SUB DUP1 DUP3 AND SWAP2 PUSH1 0x1 PUSH1 0x70 SHL SWAP1 DIV AND PUSH2 0x1BC6 JUMP JUMPDEST PUSH1 0xB SSTORE JUMPDEST PUSH1 0x40 DUP1 MLOAD DUP6 DUP2 MSTORE PUSH1 0x20 DUP2 ADD DUP6 SWAP1 MSTORE DUP2 MLOAD CALLER SWAP3 PUSH32 0x4C209B5FC8AD50758F13E2E1088BA56A560DFF690A1C6FEF26394F4C03821C4F SWAP3 DUP3 SWAP1 SUB ADD SWAP1 LOG2 POP POP PUSH1 0x1 PUSH1 0xD SSTORE POP SWAP5 SWAP7 SWAP6 POP POP POP POP POP POP JUMP JUMPDEST PUSH1 0x1 PUSH1 0x20 MSTORE PUSH1 0x0 SWAP1 DUP2 MSTORE PUSH1 0x40 SWAP1 KECCAK256 SLOAD DUP2 JUMP JUMPDEST PUSH1 0xB SLOAD DUP2 JUMP JUMPDEST PUSH1 0x4 PUSH1 0x20 MSTORE PUSH1 0x0 SWAP1 DUP2 MSTORE PUSH1 0x40 SWAP1 KECCAK256 SLOAD DUP2 JUMP JUMPDEST PUSH1 0x0 DUP1 PUSH1 0xD SLOAD PUSH1 0x1 EQ PUSH2 0x1075 JUMPI PUSH1 0x40 DUP1 MLOAD PUSH3 0x461BCD PUSH1 0xE5 SHL DUP2 MSTORE PUSH1 0x20 PUSH1 0x4 DUP3 ADD MSTORE PUSH1 0x11 PUSH1 0x24 DUP3 ADD MSTORE PUSH17 0x155B9A5CDDD85C158C8E881313D0D2D151 PUSH1 0x7A SHL PUSH1 0x44 DUP3 ADD MSTORE SWAP1 MLOAD SWAP1 DUP2 SWAP1 SUB PUSH1 0x64 ADD SWAP1 REVERT JUMPDEST PUSH1 0x0 PUSH1 0xD DUP2 SWAP1 SSTORE DUP1 PUSH2 0x1085 PUSH2 0xB6C JUMP JUMPDEST POP PUSH1 0x6 SLOAD PUSH1 0x7 SLOAD PUSH1 0x40 DUP1 MLOAD PUSH4 0x70A08231 PUSH1 0xE0 SHL DUP2 MSTORE ADDRESS PUSH1 0x4 DUP3 ADD MSTORE SWAP1 MLOAD SWAP5 SWAP7 POP SWAP3 SWAP5 POP PUSH1 0x1 PUSH1 0x1 PUSH1 0xA0 SHL SUB SWAP2 DUP3 AND SWAP4 SWAP2 AND SWAP2 PUSH1 0x0 SWAP2 DUP5 SWAP2 PUSH4 0x70A08231 SWAP2 PUSH1 0x24 DUP1 DUP4 ADD SWAP3 PUSH1 0x20 SWAP3 SWAP2 SWAP1 DUP3 SWAP1 SUB ADD DUP2 DUP7 DUP1 EXTCODESIZE ISZERO DUP1 ISZERO PUSH2 0x10E1 JUMPI PUSH1 0x0 DUP1 REVERT JUMPDEST POP GAS STATICCALL ISZERO DUP1 ISZERO PUSH2 0x10F5 JUMPI RETURNDATASIZE PUSH1 0x0 DUP1 RETURNDATACOPY RETURNDATASIZE PUSH1 0x0 REVERT JUMPDEST POP POP POP POP PUSH1 0x40 MLOAD RETURNDATASIZE PUSH1 0x20 DUP2 LT ISZERO PUSH2 0x110B JUMPI PUSH1 0x0 DUP1 REVERT JUMPDEST POP MLOAD PUSH1 0x40 DUP1 MLOAD PUSH4 0x70A08231 PUSH1 0xE0 SHL DUP2 MSTORE ADDRESS PUSH1 0x4 DUP3 ADD MSTORE SWAP1 MLOAD SWAP2 SWAP3 POP PUSH1 0x0 SWAP2 PUSH1 0x1 PUSH1 0x1 PUSH1 0xA0 SHL SUB DUP6 AND SWAP2 PUSH4 0x70A08231 SWAP2 PUSH1 0x24 DUP1 DUP4 ADD SWAP3 PUSH1 0x20 SWAP3 SWAP2 SWAP1 DUP3 SWAP1 SUB ADD DUP2 DUP7 DUP1 EXTCODESIZE ISZERO DUP1 ISZERO PUSH2 0x1159 JUMPI PUSH1 0x0 DUP1 REVERT JUMPDEST POP GAS STATICCALL ISZERO DUP1 ISZERO PUSH2 0x116D JUMPI RETURNDATASIZE PUSH1 0x0 DUP1 RETURNDATACOPY RETURNDATASIZE PUSH1 0x0 REVERT JUMPDEST POP POP POP POP PUSH1 0x40 MLOAD RETURNDATASIZE PUSH1 0x20 DUP2 LT ISZERO PUSH2 0x1183 JUMPI PUSH1 0x0 DUP1 REVERT JUMPDEST POP MLOAD ADDRESS PUSH1 0x0 SWAP1 DUP2 MSTORE PUSH1 0x1 PUSH1 0x20 MSTORE PUSH1 0x40 DUP2 KECCAK256 SLOAD SWAP2 SWAP3 POP PUSH2 0x11A2 DUP9 DUP9 PUSH2 0x1F48 JUMP JUMPDEST PUSH1 0x0 SLOAD SWAP1 SWAP2 POP DUP1 PUSH2 0x11B3 DUP5 DUP8 PUSH2 0x1BC6 JUMP JUMPDEST DUP2 PUSH2 0x11BA JUMPI INVALID JUMPDEST DIV SWAP11 POP DUP1 PUSH2 0x11C8 DUP5 DUP7 PUSH2 0x1BC6 JUMP JUMPDEST DUP2 PUSH2 0x11CF JUMPI INVALID JUMPDEST DIV SWAP10 POP PUSH1 0x0 DUP12 GT DUP1 ISZERO PUSH2 0x11E2 JUMPI POP PUSH1 0x0 DUP11 GT JUMPDEST PUSH2 0x121D JUMPI PUSH1 0x40 MLOAD PUSH3 0x461BCD PUSH1 0xE5 SHL DUP2 MSTORE PUSH1 0x4 ADD DUP1 DUP1 PUSH1 0x20 ADD DUP3 DUP2 SUB DUP3 MSTORE PUSH1 0x28 DUP2 MSTORE PUSH1 0x20 ADD DUP1 PUSH2 0x230E PUSH1 0x28 SWAP2 CODECOPY PUSH1 0x40 ADD SWAP2 POP POP PUSH1 0x40 MLOAD DUP1 SWAP2 SUB SWAP1 REVERT JUMPDEST PUSH2 0x1227 ADDRESS DUP5 PUSH2 0x218B JUMP JUMPDEST PUSH2 0x1232 DUP8 DUP14 DUP14 PUSH2 0x1A2C JUMP JUMPDEST PUSH2 0x123D DUP7 DUP14 DUP13 PUSH2 0x1A2C JUMP JUMPDEST PUSH1 0x40 DUP1 MLOAD PUSH4 0x70A08231 PUSH1 0xE0 SHL DUP2 MSTORE ADDRESS PUSH1 0x4 DUP3 ADD MSTORE SWAP1 MLOAD PUSH1 0x1 PUSH1 0x1 PUSH1 0xA0 SHL SUB DUP10 AND SWAP2 PUSH4 0x70A08231 SWAP2 PUSH1 0x24 DUP1 DUP4 ADD SWAP3 PUSH1 0x20 SWAP3 SWAP2 SWAP1 DUP3 SWAP1 SUB ADD DUP2 DUP7 DUP1 EXTCODESIZE ISZERO DUP1 ISZERO PUSH2 0x1283 JUMPI PUSH1 0x0 DUP1 REVERT JUMPDEST POP GAS STATICCALL ISZERO DUP1 ISZERO PUSH2 0x1297 JUMPI RETURNDATASIZE PUSH1 0x0 DUP1 RETURNDATACOPY RETURNDATASIZE PUSH1 0x0 REVERT JUMPDEST POP POP POP POP PUSH1 0x40 MLOAD RETURNDATASIZE PUSH1 0x20 DUP2 LT ISZERO PUSH2 0x12AD JUMPI PUSH1 0x0 DUP1 REVERT JUMPDEST POP MLOAD PUSH1 0x40 DUP1 MLOAD PUSH4 0x70A08231 PUSH1 0xE0 SHL DUP2 MSTORE ADDRESS PUSH1 0x4 DUP3 ADD MSTORE SWAP1 MLOAD SWAP2 SWAP7 POP PUSH1 0x1 PUSH1 0x1 PUSH1 0xA0 SHL SUB DUP9 AND SWAP2 PUSH4 0x70A08231 SWAP2 PUSH1 0x24 DUP1 DUP3 ADD SWAP3 PUSH1 0x20 SWAP3 SWAP1 SWAP2 SWAP1 DUP3 SWAP1 SUB ADD DUP2 DUP7 DUP1 EXTCODESIZE ISZERO DUP1 ISZERO PUSH2 0x12F9 JUMPI PUSH1 0x0 DUP1 REVERT JUMPDEST POP GAS STATICCALL ISZERO DUP1 ISZERO PUSH2 0x130D JUMPI RETURNDATASIZE PUSH1 0x0 DUP1 RETURNDATACOPY RETURNDATASIZE PUSH1 0x0 REVERT JUMPDEST POP POP POP POP PUSH1 0x40 MLOAD RETURNDATASIZE PUSH1 0x20 DUP2 LT ISZERO PUSH2 0x1323 JUMPI PUSH1 0x0 DUP1 REVERT JUMPDEST POP MLOAD SWAP4 POP PUSH2 0x1333 DUP6 DUP6 DUP12 DUP12 PUSH2 0x1C79 JUMP JUMPDEST DUP2 ISZERO PUSH2 0x135D JUMPI PUSH1 0x8 SLOAD PUSH2 0x1359 SWAP1 PUSH1 0x1 PUSH1 0x1 PUSH1 0x70 SHL SUB DUP1 DUP3 AND SWAP2 PUSH1 0x1 PUSH1 0x70 SHL SWAP1 DIV AND PUSH2 0x1BC6 JUMP JUMPDEST PUSH1 0xB SSTORE JUMPDEST PUSH1 0x40 DUP1 MLOAD DUP13 DUP2 MSTORE PUSH1 0x20 DUP2 ADD DUP13 SWAP1 MSTORE DUP2 MLOAD PUSH1 0x1 PUSH1 0x1 PUSH1 0xA0 SHL SUB DUP16 AND SWAP3 CALLER SWAP3 PUSH32 0xDCCD412F0B1252819CB1FD330B93224CA42612892BB3F4F789976E6D81936496 SWAP3 SWAP1 DUP2 SWAP1 SUB SWAP1 SWAP2 ADD SWAP1 LOG3 POP POP POP POP POP POP POP POP POP PUSH1 0x1 PUSH1 0xD DUP2 SWAP1 SSTORE POP SWAP2 POP SWAP2 JUMP JUMPDEST PUSH1 0x40 MLOAD DUP1 PUSH1 0x40 ADD PUSH1 0x40 MSTORE DUP1 PUSH1 0x5 DUP2 MSTORE PUSH1 0x20 ADD PUSH5 0x545357415 PUSH1 0xDC SHL DUP2 MSTORE POP DUP2 JUMP JUMPDEST PUSH1 0x0 PUSH2 0xBA3 CALLER DUP5 DUP5 PUSH2 0x1E9A JUMP JUMPDEST PUSH2 0x3E8 DUP2 JUMP JUMPDEST PUSH1 0xD SLOAD PUSH1 0x1 EQ PUSH2 0x143A JUMPI PUSH1 0x40 DUP1 MLOAD PUSH3 0x461BCD PUSH1 0xE5 SHL DUP2 MSTORE PUSH1 0x20 PUSH1 0x4 DUP3 ADD MSTORE PUSH1 0x11 PUSH1 0x24 DUP3 ADD MSTORE PUSH17 0x155B9A5CDDD85C158C8E881313D0D2D151 PUSH1 0x7A SHL PUSH1 0x44 DUP3 ADD MSTORE SWAP1 MLOAD SWAP1 DUP2 SWAP1 SUB PUSH1 0x64 ADD SWAP1 REVERT JUMPDEST PUSH1 0x0 PUSH1 0xD SSTORE PUSH1 0x6 SLOAD PUSH1 0x7 SLOAD PUSH1 0x8 SLOAD PUSH1 0x40 DUP1 MLOAD PUSH4 0x70A08231 PUSH1 0xE0 SHL DUP2 MSTORE ADDRESS PUSH1 0x4 DUP3 ADD MSTORE SWAP1 MLOAD PUSH1 0x1 PUSH1 0x1 PUSH1 0xA0 SHL SUB SWAP5 DUP6 AND SWAP5 SWAP1 SWAP4 AND SWAP3 PUSH2 0x14E3 SWAP3 DUP6 SWAP3 DUP8 SWAP3 PUSH2 0x14DE SWAP3 PUSH1 0x1 PUSH1 0x1 PUSH1 0x70 SHL SUB AND SWAP2 DUP6 SWAP2 PUSH4 0x70A08231 SWAP2 PUSH1 0x24 DUP1 DUP3 ADD SWAP3 PUSH1 0x20 SWAP3 SWAP1 SWAP2 SWAP1 DUP3 SWAP1 SUB ADD DUP2 DUP7 DUP1 EXTCODESIZE ISZERO DUP1 ISZERO PUSH2 0x14AC JUMPI PUSH1 0x0 DUP1 REVERT JUMPDEST POP GAS STATICCALL ISZERO DUP1 ISZERO PUSH2 0x14C0 JUMPI RETURNDATASIZE PUSH1 0x0 DUP1 RETURNDATACOPY RETURNDATASIZE PUSH1 0x0 REVERT JUMPDEST POP POP POP POP PUSH1 0x40 MLOAD RETURNDATASIZE PUSH1 0x20 DUP2 LT ISZERO PUSH2 0x14D6 JUMPI PUSH1 0x0 DUP1 REVERT JUMPDEST POP MLOAD SWAP1 PUSH2 0x1C29 JUMP JUMPDEST PUSH2 0x1A2C JUMP JUMPDEST PUSH2 0x1557 DUP2 DUP5 PUSH2 0x14DE PUSH1 0x8 PUSH1 0xE SWAP1 SLOAD SWAP1 PUSH2 0x100 EXP SWAP1 DIV PUSH1 0x1 PUSH1 0x1 PUSH1 0x70 SHL SUB AND PUSH1 0x1 PUSH1 0x1 PUSH1 0x70 SHL SUB AND DUP6 PUSH1 0x1 PUSH1 0x1 PUSH1 0xA0 SHL SUB AND PUSH4 0x70A08231 ADDRESS PUSH1 0x40 MLOAD DUP3 PUSH4 0xFFFFFFFF AND PUSH1 0xE0 SHL DUP2 MSTORE PUSH1 0x4 ADD DUP1 DUP3 PUSH1 0x1 PUSH1 0x1 PUSH1 0xA0 SHL SUB AND DUP2 MSTORE PUSH1 0x20 ADD SWAP2 POP POP PUSH1 0x20 PUSH1 0x40 MLOAD DUP1 DUP4 SUB DUP2 DUP7 DUP1 EXTCODESIZE ISZERO DUP1 ISZERO PUSH2 0x14AC JUMPI PUSH1 0x0 DUP1 REVERT JUMPDEST POP POP PUSH1 0x1 PUSH1 0xD SSTORE POP JUMP JUMPDEST PUSH1 0x5 SLOAD PUSH1 0x1 PUSH1 0x1 PUSH1 0xA0 SHL SUB AND DUP2 JUMP JUMPDEST PUSH1 0x7 SLOAD PUSH1 0x1 PUSH1 0x1 PUSH1 0xA0 SHL SUB AND DUP2 JUMP JUMPDEST TIMESTAMP DUP5 LT ISZERO PUSH2 0x15C9 JUMPI PUSH1 0x40 DUP1 MLOAD PUSH3 0x461BCD PUSH1 0xE5 SHL DUP2 MSTORE PUSH1 0x20 PUSH1 0x4 DUP3 ADD MSTORE PUSH1 0x12 PUSH1 0x24 DUP3 ADD MSTORE PUSH18 0x155B9A5CDDD85C158C8E8811561412549151 PUSH1 0x72 SHL PUSH1 0x44 DUP3 ADD MSTORE SWAP1 MLOAD SWAP1 DUP2 SWAP1 SUB PUSH1 0x64 ADD SWAP1 REVERT JUMPDEST PUSH1 0x3 SLOAD PUSH1 0x1 PUSH1 0x1 PUSH1 0xA0 SHL SUB DUP1 DUP10 AND PUSH1 0x0 DUP2 DUP2 MSTORE PUSH1 0x4 PUSH1 0x20 SWAP1 DUP2 MSTORE PUSH1 0x40 DUP1 DUP4 KECCAK256 DUP1 SLOAD PUSH1 0x1 DUP1 DUP3 ADD SWAP1 SWAP3 SSTORE DUP3 MLOAD PUSH32 0x6E71EDAE12B1B97F4D1F60370FEF10105FA2FAAE0126114A169C64845D6126C9 DUP2 DUP7 ADD MSTORE DUP1 DUP5 ADD SWAP7 SWAP1 SWAP7 MSTORE SWAP6 DUP14 AND PUSH1 0x60 DUP7 ADD MSTORE PUSH1 0x80 DUP6 ADD DUP13 SWAP1 MSTORE PUSH1 0xA0 DUP6 ADD SWAP6 SWAP1 SWAP6 MSTORE PUSH1 0xC0 DUP1 DUP6 ADD DUP12 SWAP1 MSTORE DUP2 MLOAD DUP1 DUP7 SUB SWAP1 SWAP2 ADD DUP2 MSTORE PUSH1 0xE0 DUP6 ADD DUP3 MSTORE DUP1 MLOAD SWAP1 DUP4 ADD KECCAK256 PUSH2 0x1901 PUSH1 0xF0 SHL PUSH2 0x100 DUP7 ADD MSTORE PUSH2 0x102 DUP6 ADD SWAP7 SWAP1 SWAP7 MSTORE PUSH2 0x122 DUP1 DUP6 ADD SWAP7 SWAP1 SWAP7 MSTORE DUP1 MLOAD DUP1 DUP6 SUB SWAP1 SWAP7 ADD DUP7 MSTORE PUSH2 0x142 DUP5 ADD DUP1 DUP3 MSTORE DUP7 MLOAD SWAP7 DUP4 ADD SWAP7 SWAP1 SWAP7 KECCAK256 SWAP6 DUP4 SWAP1 MSTORE PUSH2 0x162 DUP5 ADD DUP1 DUP3 MSTORE DUP7 SWAP1 MSTORE PUSH1 0xFF DUP10 AND PUSH2 0x182 DUP6 ADD MSTORE PUSH2 0x1A2 DUP5 ADD DUP9 SWAP1 MSTORE PUSH2 0x1C2 DUP5 ADD DUP8 SWAP1 MSTORE MLOAD SWAP2 SWAP4 SWAP3 PUSH2 0x1E2 DUP1 DUP3 ADD SWAP4 PUSH1 0x1F NOT DUP2 ADD SWAP3 DUP2 SWAP1 SUB SWAP1 SWAP2 ADD SWAP1 DUP6 GAS STATICCALL ISZERO DUP1 ISZERO PUSH2 0x16E4 JUMPI RETURNDATASIZE PUSH1 0x0 DUP1 RETURNDATACOPY RETURNDATASIZE PUSH1 0x0 REVERT JUMPDEST POP POP PUSH1 0x40 MLOAD PUSH1 0x1F NOT ADD MLOAD SWAP2 POP POP PUSH1 0x1 PUSH1 0x1 PUSH1 0xA0 SHL SUB DUP2 AND ISZERO DUP1 ISZERO SWAP1 PUSH2 0x171A JUMPI POP DUP9 PUSH1 0x1 PUSH1 0x1 PUSH1 0xA0 SHL SUB AND DUP2 PUSH1 0x1 PUSH1 0x1 PUSH1 0xA0 SHL SUB AND EQ JUMPDEST PUSH2 0x176B JUMPI PUSH1 0x40 DUP1 MLOAD PUSH3 0x461BCD PUSH1 0xE5 SHL DUP2 MSTORE PUSH1 0x20 PUSH1 0x4 DUP3 ADD MSTORE PUSH1 0x1C PUSH1 0x24 DUP3 ADD MSTORE PUSH32 0x556E697377617056323A20494E56414C49445F5349474E415455524500000000 PUSH1 0x44 DUP3 ADD MSTORE SWAP1 MLOAD SWAP1 DUP2 SWAP1 SUB PUSH1 0x64 ADD SWAP1 REVERT JUMPDEST PUSH2 0x1776 DUP10 DUP10 DUP10 PUSH2 0x1E38 JUMP JUMPDEST POP POP POP POP POP POP POP POP POP JUMP JUMPDEST PUSH1 0x0 DUP2 PUSH4 0xFFFFFFFF AND GT PUSH2 0x17DC JUMPI PUSH1 0x40 DUP1 MLOAD PUSH3 0x461BCD PUSH1 0xE5 SHL DUP2 MSTORE PUSH1 0x20 PUSH1 0x4 DUP3 ADD MSTORE PUSH1 0x19 PUSH1 0x24 DUP3 ADD MSTORE PUSH32 0x556E6973776170506169723A206C6F776572207468656E203000000000000000 PUSH1 0x44 DUP3 ADD MSTORE SWAP1 MLOAD SWAP1 DUP2 SWAP1 SUB PUSH1 0x64 ADD SWAP1 REVERT JUMPDEST PUSH1 0x5 SLOAD PUSH1 0x1 PUSH1 0x1 PUSH1 0xA0 SHL SUB AND CALLER EQ PUSH2 0x1834 JUMPI PUSH1 0x40 DUP1 MLOAD PUSH3 0x461BCD PUSH1 0xE5 SHL DUP2 MSTORE PUSH1 0x20 PUSH1 0x4 DUP3 ADD MSTORE PUSH1 0x16 PUSH1 0x24 DUP3 ADD MSTORE PUSH22 0x2AB734B9BBB0B82830B4B91D102327A92124A22222A7 PUSH1 0x51 SHL PUSH1 0x44 DUP3 ADD MSTORE SWAP1 MLOAD SWAP1 DUP2 SWAP1 SUB PUSH1 0x64 ADD SWAP1 REVERT JUMPDEST PUSH2 0x3E8 DUP2 PUSH4 0xFFFFFFFF AND GT ISZERO PUSH2 0x1891 JUMPI PUSH1 0x40 DUP1 MLOAD PUSH3 0x461BCD PUSH1 0xE5 SHL DUP2 MSTORE PUSH1 0x20 PUSH1 0x4 DUP3 ADD MSTORE PUSH1 0x1A PUSH1 0x24 DUP3 ADD MSTORE PUSH32 0x556E6973776170506169723A20464F5242494444454E5F464545000000000000 PUSH1 0x44 DUP3 ADD MSTORE SWAP1 MLOAD SWAP1 DUP2 SWAP1 SUB PUSH1 0x64 ADD SWAP1 REVERT JUMPDEST PUSH1 0xC DUP1 SLOAD PUSH4 0xFFFFFFFF NOT AND PUSH4 0xFFFFFFFF SWAP3 SWAP1 SWAP3 AND SWAP2 SWAP1 SWAP2 OR SWAP1 SSTORE JUMP JUMPDEST PUSH1 0x2 PUSH1 0x20 SWAP1 DUP2 MSTORE PUSH1 0x0 SWAP3 DUP4 MSTORE PUSH1 0x40 DUP1 DUP5 KECCAK256 SWAP1 SWAP2 MSTORE SWAP1 DUP3 MSTORE SWAP1 KECCAK256 SLOAD DUP2 JUMP JUMPDEST PUSH1 0xD SLOAD PUSH1 0x1 EQ PUSH2 0x1915 JUMPI PUSH1 0x40 DUP1 MLOAD PUSH3 0x461BCD PUSH1 0xE5 SHL DUP2 MSTORE PUSH1 0x20 PUSH1 0x4 DUP3 ADD MSTORE PUSH1 0x11 PUSH1 0x24 DUP3 ADD MSTORE PUSH17 0x155B9A5CDDD85C158C8E881313D0D2D151 PUSH1 0x7A SHL PUSH1 0x44 DUP3 ADD MSTORE SWAP1 MLOAD SWAP1 DUP2 SWAP1 SUB PUSH1 0x64 ADD SWAP1 REVERT JUMPDEST PUSH1 0x0 PUSH1 0xD SSTORE PUSH1 0x6 SLOAD PUSH1 0x40 DUP1 MLOAD PUSH4 0x70A08231 PUSH1 0xE0 SHL DUP2 MSTORE ADDRESS PUSH1 0x4 DUP3 ADD MSTORE SWAP1 MLOAD PUSH2 0x1A25 SWAP3 PUSH1 0x1 PUSH1 0x1 PUSH1 0xA0 SHL SUB AND SWAP2 PUSH4 0x70A08231 SWAP2 PUSH1 0x24 DUP1 DUP4 ADD SWAP3 PUSH1 0x20 SWAP3 SWAP2 SWAP1 DUP3 SWAP1 SUB ADD DUP2 DUP7 DUP1 EXTCODESIZE ISZERO DUP1 ISZERO PUSH2 0x1966 JUMPI PUSH1 0x0 DUP1 REVERT JUMPDEST POP GAS STATICCALL ISZERO DUP1 ISZERO PUSH2 0x197A JUMPI RETURNDATASIZE PUSH1 0x0 DUP1 RETURNDATACOPY RETURNDATASIZE PUSH1 0x0 REVERT JUMPDEST POP POP POP POP PUSH1 0x40 MLOAD RETURNDATASIZE PUSH1 0x20 DUP2 LT ISZERO PUSH2 0x1990 JUMPI PUSH1 0x0 DUP1 REVERT JUMPDEST POP MLOAD PUSH1 0x7 SLOAD PUSH1 0x40 DUP1 MLOAD PUSH4 0x70A08231 PUSH1 0xE0 SHL DUP2 MSTORE ADDRESS PUSH1 0x4 DUP3 ADD MSTORE SWAP1 MLOAD PUSH1 0x1 PUSH1 0x1 PUSH1 0xA0 SHL SUB SWAP1 SWAP3 AND SWAP2 PUSH4 0x70A08231 SWAP2 PUSH1 0x24 DUP1 DUP3 ADD SWAP3 PUSH1 0x20 SWAP3 SWAP1 SWAP2 SWAP1 DUP3 SWAP1 SUB ADD DUP2 DUP7 DUP1 EXTCODESIZE ISZERO DUP1 ISZERO PUSH2 0x19DD JUMPI PUSH1 0x0 DUP1 REVERT JUMPDEST POP GAS STATICCALL ISZERO DUP1 ISZERO PUSH2 0x19F1 JUMPI RETURNDATASIZE PUSH1 0x0 DUP1 RETURNDATACOPY RETURNDATASIZE PUSH1 0x0 REVERT JUMPDEST POP POP POP POP PUSH1 0x40 MLOAD RETURNDATASIZE PUSH1 0x20 DUP2 LT ISZERO PUSH2 0x1A07 JUMPI PUSH1 0x0 DUP1 REVERT JUMPDEST POP MLOAD PUSH1 0x8 SLOAD PUSH1 0x1 PUSH1 0x1 PUSH1 0x70 SHL SUB DUP1 DUP3 AND SWAP2 PUSH1 0x1 PUSH1 0x70 SHL SWAP1 DIV AND PUSH2 0x1C79 JUMP JUMPDEST PUSH1 0x1 PUSH1 0xD SSTORE JUMP JUMPDEST PUSH1 0x40 DUP1 MLOAD DUP1 DUP3 ADD DUP3 MSTORE PUSH1 0x19 DUP2 MSTORE PUSH32 0x7472616E7366657228616464726573732C75696E743235362900000000000000 PUSH1 0x20 SWAP2 DUP3 ADD MSTORE DUP2 MLOAD PUSH1 0x1 PUSH1 0x1 PUSH1 0xA0 SHL SUB DUP6 DUP2 AND PUSH1 0x24 DUP4 ADD MSTORE PUSH1 0x44 DUP1 DUP4 ADD DUP7 SWAP1 MSTORE DUP5 MLOAD DUP1 DUP5 SUB SWAP1 SWAP2 ADD DUP2 MSTORE PUSH1 0x64 SWAP1 SWAP3 ADD DUP5 MSTORE SWAP2 DUP2 ADD DUP1 MLOAD PUSH1 0x1 PUSH1 0x1 PUSH1 0xE0 SHL SUB AND PUSH4 0xA9059CBB PUSH1 0xE0 SHL OR DUP2 MSTORE SWAP3 MLOAD DUP2 MLOAD PUSH1 0x0 SWAP5 PUSH1 0x60 SWAP5 DUP10 AND SWAP4 SWAP3 SWAP2 DUP3 SWAP2 SWAP1 DUP1 DUP4 DUP4 JUMPDEST PUSH1 0x20 DUP4 LT PUSH2 0x1AD9 JUMPI DUP1 MLOAD DUP3 MSTORE PUSH1 0x1F NOT SWAP1 SWAP3 ADD SWAP2 PUSH1 0x20 SWAP2 DUP3 ADD SWAP2 ADD PUSH2 0x1ABA JUMP JUMPDEST PUSH1 0x1 DUP4 PUSH1 0x20 SUB PUSH2 0x100 EXP SUB DUP1 NOT DUP3 MLOAD AND DUP2 DUP5 MLOAD AND DUP1 DUP3 OR DUP6 MSTORE POP POP POP POP POP POP SWAP1 POP ADD SWAP2 POP POP PUSH1 0x0 PUSH1 0x40 MLOAD DUP1 DUP4 SUB DUP2 PUSH1 0x0 DUP7 GAS CALL SWAP2 POP POP RETURNDATASIZE DUP1 PUSH1 0x0 DUP2 EQ PUSH2 0x1B3B JUMPI PUSH1 0x40 MLOAD SWAP2 POP PUSH1 0x1F NOT PUSH1 0x3F RETURNDATASIZE ADD AND DUP3 ADD PUSH1 0x40 MSTORE RETURNDATASIZE DUP3 MSTORE RETURNDATASIZE PUSH1 0x0 PUSH1 0x20 DUP5 ADD RETURNDATACOPY PUSH2 0x1B40 JUMP JUMPDEST PUSH1 0x60 SWAP2 POP JUMPDEST POP SWAP2 POP SWAP2 POP DUP2 DUP1 ISZERO PUSH2 0x1B6E JUMPI POP DUP1 MLOAD ISZERO DUP1 PUSH2 0x1B6E JUMPI POP DUP1 DUP1 PUSH1 0x20 ADD SWAP1 MLOAD PUSH1 0x20 DUP2 LT ISZERO PUSH2 0x1B6B JUMPI PUSH1 0x0 DUP1 REVERT JUMPDEST POP MLOAD JUMPDEST PUSH2 0x1BBF JUMPI PUSH1 0x40 DUP1 MLOAD PUSH3 0x461BCD PUSH1 0xE5 SHL DUP2 MSTORE PUSH1 0x20 PUSH1 0x4 DUP3 ADD MSTORE PUSH1 0x1A PUSH1 0x24 DUP3 ADD MSTORE PUSH32 0x556E697377617056323A205452414E534645525F4641494C4544000000000000 PUSH1 0x44 DUP3 ADD MSTORE SWAP1 MLOAD SWAP1 DUP2 SWAP1 SUB PUSH1 0x64 ADD SWAP1 REVERT JUMPDEST POP POP POP POP POP JUMP JUMPDEST PUSH1 0x0 DUP2 ISZERO DUP1 PUSH2 0x1BE1 JUMPI POP POP DUP1 DUP3 MUL DUP3 DUP3 DUP3 DUP2 PUSH2 0x1BDE JUMPI INVALID JUMPDEST DIV EQ JUMPDEST PUSH2 0xBA7 JUMPI PUSH1 0x40 DUP1 MLOAD PUSH3 0x461BCD PUSH1 0xE5 SHL DUP2 MSTORE PUSH1 0x20 PUSH1 0x4 DUP3 ADD MSTORE PUSH1 0x14 PUSH1 0x24 DUP3 ADD MSTORE PUSH20 0x64732D6D6174682D6D756C2D6F766572666C6F77 PUSH1 0x60 SHL PUSH1 0x44 DUP3 ADD MSTORE SWAP1 MLOAD SWAP1 DUP2 SWAP1 SUB PUSH1 0x64 ADD SWAP1 REVERT JUMPDEST DUP1 DUP3 SUB DUP3 DUP2 GT ISZERO PUSH2 0xBA7 JUMPI PUSH1 0x40 DUP1 MLOAD PUSH3 0x461BCD PUSH1 0xE5 SHL DUP2 MSTORE PUSH1 0x20 PUSH1 0x4 DUP3 ADD MSTORE PUSH1 0x15 PUSH1 0x24 DUP3 ADD MSTORE PUSH21 0x64732D6D6174682D7375622D756E646572666C6F77 PUSH1 0x58 SHL PUSH1 0x44 DUP3 ADD MSTORE SWAP1 MLOAD SWAP1 DUP2 SWAP1 SUB PUSH1 0x64 ADD SWAP1 REVERT JUMPDEST PUSH1 0x1 PUSH1 0x1 PUSH1 0x70 SHL SUB DUP5 GT DUP1 ISZERO SWAP1 PUSH2 0x1C97 JUMPI POP PUSH1 0x1 PUSH1 0x1 PUSH1 0x70 SHL SUB DUP4 GT ISZERO JUMPDEST PUSH2 0x1CDE JUMPI PUSH1 0x40 DUP1 MLOAD PUSH3 0x461BCD PUSH1 0xE5 SHL DUP2 MSTORE PUSH1 0x20 PUSH1 0x4 DUP3 ADD MSTORE PUSH1 0x13 PUSH1 0x24 DUP3 ADD MSTORE PUSH19 0x556E697377617056323A204F564552464C4F57 PUSH1 0x68 SHL PUSH1 0x44 DUP3 ADD MSTORE SWAP1 MLOAD SWAP1 DUP2 SWAP1 SUB PUSH1 0x64 ADD SWAP1 REVERT JUMPDEST PUSH1 0x8 SLOAD PUSH4 0xFFFFFFFF TIMESTAMP DUP2 AND SWAP2 PUSH1 0x1 PUSH1 0xE0 SHL SWAP1 DIV DUP2 AND DUP3 SUB SWAP1 DUP2 AND ISZERO DUP1 ISZERO SWAP1 PUSH2 0x1D0E JUMPI POP PUSH1 0x1 PUSH1 0x1 PUSH1 0x70 SHL SUB DUP5 AND ISZERO ISZERO JUMPDEST DUP1 ISZERO PUSH2 0x1D22 JUMPI POP PUSH1 0x1 PUSH1 0x1 PUSH1 0x70 SHL SUB DUP4 AND ISZERO ISZERO JUMPDEST ISZERO PUSH2 0x1D8D JUMPI DUP1 PUSH4 0xFFFFFFFF AND PUSH2 0x1D4A DUP6 PUSH2 0x1D3B DUP7 PUSH2 0x221D JUMP JUMPDEST PUSH1 0x1 PUSH1 0x1 PUSH1 0xE0 SHL SUB AND SWAP1 PUSH2 0x222F JUMP JUMPDEST PUSH1 0x9 DUP1 SLOAD PUSH1 0x1 PUSH1 0x1 PUSH1 0xE0 SHL SUB SWAP3 SWAP1 SWAP3 AND SWAP3 SWAP1 SWAP3 MUL ADD SWAP1 SSTORE PUSH4 0xFFFFFFFF DUP2 AND PUSH2 0x1D75 DUP5 PUSH2 0x1D3B DUP8 PUSH2 0x221D JUMP JUMPDEST PUSH1 0xA DUP1 SLOAD PUSH1 0x1 PUSH1 0x1 PUSH1 0xE0 SHL SUB SWAP3 SWAP1 SWAP3 AND SWAP3 SWAP1 SWAP3 MUL ADD SWAP1 SSTORE JUMPDEST PUSH1 0x8 DUP1 SLOAD PUSH14 0xFFFFFFFFFFFFFFFFFFFFFFFFFFFF NOT AND PUSH1 0x1 PUSH1 0x1 PUSH1 0x70 SHL SUB DUP9 DUP2 AND SWAP2 SWAP1 SWAP2 OR PUSH14 0xFFFFFFFFFFFFFFFFFFFFFFFFFFFF PUSH1 0x70 SHL NOT AND PUSH1 0x1 PUSH1 0x70 SHL DUP9 DUP4 AND DUP2 MUL SWAP2 SWAP1 SWAP2 OR PUSH1 0x1 PUSH1 0x1 PUSH1 0xE0 SHL SUB AND PUSH1 0x1 PUSH1 0xE0 SHL PUSH4 0xFFFFFFFF DUP8 AND MUL OR SWAP3 DUP4 SWAP1 SSTORE PUSH1 0x40 DUP1 MLOAD DUP5 DUP5 AND DUP2 MSTORE SWAP2 SWAP1 SWAP4 DIV SWAP1 SWAP2 AND PUSH1 0x20 DUP3 ADD MSTORE DUP2 MLOAD PUSH32 0x1C411E9A96E071241C2F21F7726B17AE89E3CAB4C78BE50E062B03A9FFFBBAD1 SWAP3 SWAP2 DUP2 SWAP1 SUB SWAP1 SWAP2 ADD SWAP1 LOG1 POP POP POP POP POP POP JUMP JUMPDEST PUSH1 0x1 PUSH1 0x1 PUSH1 0xA0 SHL SUB DUP1 DUP5 AND PUSH1 0x0 DUP2 DUP2 MSTORE PUSH1 0x2 PUSH1 0x20 SWAP1 DUP2 MSTORE PUSH1 0x40 DUP1 DUP4 KECCAK256 SWAP5 DUP8 AND DUP1 DUP5 MSTORE SWAP5 DUP3 MSTORE SWAP2 DUP3 SWAP1 KECCAK256 DUP6 SWAP1 SSTORE DUP2 MLOAD DUP6 DUP2 MSTORE SWAP2 MLOAD PUSH32 0x8C5BE1E5EBEC7D5BD14F71427D1E84F3DD0314C0F7B2291E5B200AC8C7C3B925 SWAP3 DUP2 SWAP1 SUB SWAP1 SWAP2 ADD SWAP1 LOG3 POP POP POP JUMP JUMPDEST PUSH1 0x1 PUSH1 0x1 PUSH1 0xA0 SHL SUB DUP4 AND PUSH1 0x0 SWAP1 DUP2 MSTORE PUSH1 0x1 PUSH1 0x20 MSTORE PUSH1 0x40 SWAP1 KECCAK256 SLOAD PUSH2 0x1EBD SWAP1 DUP3 PUSH2 0x1C29 JUMP JUMPDEST PUSH1 0x1 PUSH1 0x1 PUSH1 0xA0 SHL SUB DUP1 DUP6 AND PUSH1 0x0 SWAP1 DUP2 MSTORE PUSH1 0x1 PUSH1 0x20 MSTORE PUSH1 0x40 DUP1 DUP3 KECCAK256 SWAP4 SWAP1 SWAP4 SSTORE SWAP1 DUP5 AND DUP2 MSTORE KECCAK256 SLOAD PUSH2 0x1EEC SWAP1 DUP3 PUSH2 0x2254 JUMP JUMPDEST PUSH1 0x1 PUSH1 0x1 PUSH1 0xA0 SHL SUB DUP1 DUP5 AND PUSH1 0x0 DUP2 DUP2 MSTORE PUSH1 0x1 PUSH1 0x20 SWAP1 DUP2 MSTORE PUSH1 0x40 SWAP2 DUP3 SWAP1 KECCAK256 SWAP5 SWAP1 SWAP5 SSTORE DUP1 MLOAD DUP6 DUP2 MSTORE SWAP1 MLOAD SWAP2 SWAP4 SWAP3 DUP8 AND SWAP3 PUSH32 0xDDF252AD1BE2C89B69C2B068FC378DAA952BA7F163C4A11628F55A4DF523B3EF SWAP3 SWAP2 DUP3 SWAP1 SUB ADD SWAP1 LOG3 POP POP POP JUMP JUMPDEST PUSH1 0x0 DUP1 PUSH1 0x5 PUSH1 0x0 SWAP1 SLOAD SWAP1 PUSH2 0x100 EXP SWAP1 DIV PUSH1 0x1 PUSH1 0x1 PUSH1 0xA0 SHL SUB AND PUSH1 0x1 PUSH1 0x1 PUSH1 0xA0 SHL SUB AND PUSH4 0x17E7E58 PUSH1 0x40 MLOAD DUP2 PUSH4 0xFFFFFFFF AND PUSH1 0xE0 SHL DUP2 MSTORE PUSH1 0x4 ADD PUSH1 0x20 PUSH1 0x40 MLOAD DUP1 DUP4 SUB DUP2 DUP7 DUP1 EXTCODESIZE ISZERO DUP1 ISZERO PUSH2 0x1F99 JUMPI PUSH1 0x0 DUP1 REVERT JUMPDEST POP GAS STATICCALL ISZERO DUP1 ISZERO PUSH2 0x1FAD JUMPI RETURNDATASIZE PUSH1 0x0 DUP1 RETURNDATACOPY RETURNDATASIZE PUSH1 0x0 REVERT JUMPDEST POP POP POP POP PUSH1 0x40 MLOAD RETURNDATASIZE PUSH1 0x20 DUP2 LT ISZERO PUSH2 0x1FC3 JUMPI PUSH1 0x0 DUP1 REVERT JUMPDEST POP MLOAD PUSH1 0xB SLOAD PUSH1 0x1 PUSH1 0x1 PUSH1 0xA0 SHL SUB DUP3 AND ISZERO DUP1 ISZERO SWAP5 POP SWAP2 SWAP3 POP SWAP1 PUSH2 0x2083 JUMPI DUP1 ISZERO PUSH2 0x207E JUMPI PUSH1 0x0 PUSH2 0x2000 PUSH2 0xED5 PUSH1 0x1 PUSH1 0x1 PUSH1 0x70 SHL SUB DUP9 DUP2 AND SWAP1 DUP9 AND PUSH2 0x1BC6 JUMP JUMPDEST SWAP1 POP PUSH1 0x0 PUSH2 0x200D DUP4 PUSH2 0x2097 JUMP JUMPDEST SWAP1 POP DUP1 DUP3 GT ISZERO PUSH2 0x207B JUMPI PUSH1 0x0 PUSH2 0x2034 PUSH1 0x2 PUSH2 0xA80 PUSH2 0x202B DUP7 DUP7 PUSH2 0x1C29 JUMP JUMPDEST PUSH1 0x0 SLOAD SWAP1 PUSH2 0x1BC6 JUMP JUMPDEST SWAP1 POP PUSH1 0x0 PUSH2 0x2057 PUSH2 0x2046 DUP5 PUSH1 0x2 PUSH2 0x1BC6 JUMP JUMPDEST PUSH2 0x2051 DUP7 PUSH1 0x3 PUSH2 0x1BC6 JUMP JUMPDEST SWAP1 PUSH2 0x2254 JUMP JUMPDEST SWAP1 POP PUSH1 0x0 DUP2 DUP4 DUP2 PUSH2 0x2064 JUMPI INVALID JUMPDEST DIV SWAP1 POP DUP1 ISZERO PUSH2 0x2077 JUMPI PUSH2 0x2077 DUP8 DUP3 PUSH2 0x20E9 JUMP JUMPDEST POP POP POP JUMPDEST POP POP JUMPDEST PUSH2 0x208F JUMP JUMPDEST DUP1 ISZERO PUSH2 0x208F JUMPI PUSH1 0x0 PUSH1 0xB SSTORE JUMPDEST POP POP SWAP3 SWAP2 POP POP JUMP JUMPDEST PUSH1 0x0 PUSH1 0x3 DUP3 GT ISZERO PUSH2 0x20DA JUMPI POP DUP1 PUSH1 0x1 PUSH1 0x2 DUP3 DIV ADD JUMPDEST DUP2 DUP2 LT ISZERO PUSH2 0x20D4 JUMPI DUP1 SWAP2 POP PUSH1 0x2 DUP2 DUP3 DUP6 DUP2 PUSH2 0x20C3 JUMPI INVALID JUMPDEST DIV ADD DUP2 PUSH2 0x20CC JUMPI INVALID JUMPDEST DIV SWAP1 POP PUSH2 0x20AC JUMP JUMPDEST POP PUSH2 0x20E4 JUMP JUMPDEST DUP2 ISZERO PUSH2 0x20E4 JUMPI POP PUSH1 0x1 JUMPDEST SWAP2 SWAP1 POP JUMP JUMPDEST PUSH1 0x0 SLOAD PUSH2 0x20F6 SWAP1 DUP3 PUSH2 0x2254 JUMP JUMPDEST PUSH1 0x0 SWAP1 DUP2 SSTORE PUSH1 0x1 PUSH1 0x1 PUSH1 0xA0 SHL SUB DUP4 AND DUP2 MSTORE PUSH1 0x1 PUSH1 0x20 MSTORE PUSH1 0x40 SWAP1 KECCAK256 SLOAD PUSH2 0x211B SWAP1 DUP3 PUSH2 0x2254 JUMP JUMPDEST PUSH1 0x1 PUSH1 0x1 PUSH1 0xA0 SHL SUB DUP4 AND PUSH1 0x0 DUP2 DUP2 MSTORE PUSH1 0x1 PUSH1 0x20 SWAP1 DUP2 MSTORE PUSH1 0x40 DUP1 DUP4 KECCAK256 SWAP5 SWAP1 SWAP5 SSTORE DUP4 MLOAD DUP6 DUP2 MSTORE SWAP4 MLOAD SWAP3 SWAP4 SWAP2 SWAP3 PUSH32 0xDDF252AD1BE2C89B69C2B068FC378DAA952BA7F163C4A11628F55A4DF523B3EF SWAP3 DUP2 SWAP1 SUB SWAP1 SWAP2 ADD SWAP1 LOG3 POP POP JUMP JUMPDEST PUSH1 0x0 DUP2 DUP4 LT PUSH2 0x2182 JUMPI DUP2 PUSH2 0x2184 JUMP JUMPDEST DUP3 JUMPDEST SWAP4 SWAP3 POP POP POP JUMP JUMPDEST PUSH1 0x1 PUSH1 0x1 PUSH1 0xA0 SHL SUB DUP3 AND PUSH1 0x0 SWAP1 DUP2 MSTORE PUSH1 0x1 PUSH1 0x20 MSTORE PUSH1 0x40 SWAP1 KECCAK256 SLOAD PUSH2 0x21AE SWAP1 DUP3 PUSH2 0x1C29 JUMP JUMPDEST PUSH1 0x1 PUSH1 0x1 PUSH1 0xA0 SHL SUB DUP4 AND PUSH1 0x0 SWAP1 DUP2 MSTORE PUSH1 0x1 PUSH1 0x20 MSTORE PUSH1 0x40 DUP2 KECCAK256 SWAP2 SWAP1 SWAP2 SSTORE SLOAD PUSH2 0x21D5 SWAP1 DUP3 PUSH2 0x1C29 JUMP JUMPDEST PUSH1 0x0 SWAP1 DUP2 SSTORE PUSH1 0x40 DUP1 MLOAD DUP4 DUP2 MSTORE SWAP1 MLOAD PUSH1 0x1 PUSH1 0x1 PUSH1 0xA0 SHL SUB DUP6 AND SWAP2 PUSH32 0xDDF252AD1BE2C89B69C2B068FC378DAA952BA7F163C4A11628F55A4DF523B3EF SWAP2 SWAP1 DUP2 SWAP1 SUB PUSH1 0x20 ADD SWAP1 LOG3 POP POP JUMP JUMPDEST PUSH1 0x1 PUSH1 0x1 PUSH1 0x70 SHL SUB AND PUSH1 0x1 PUSH1 0x70 SHL MUL SWAP1 JUMP JUMPDEST PUSH1 0x0 PUSH1 0x1 PUSH1 0x1 PUSH1 0x70 SHL SUB DUP3 AND PUSH1 0x1 PUSH1 0x1 PUSH1 0xE0 SHL SUB DUP5 AND DUP2 PUSH2 0x224C JUMPI INVALID JUMPDEST DIV SWAP4 SWAP3 POP POP POP JUMP JUMPDEST DUP1 DUP3 ADD DUP3 DUP2 LT ISZERO PUSH2 0xBA7 JUMPI PUSH1 0x40 DUP1 MLOAD PUSH3 0x461BCD PUSH1 0xE5 SHL DUP2 MSTORE PUSH1 0x20 PUSH1 0x4 DUP3 ADD MSTORE PUSH1 0x14 PUSH1 0x24 DUP3 ADD MSTORE PUSH20 0x64732D6D6174682D6164642D6F766572666C6F77 PUSH1 0x60 SHL PUSH1 0x44 DUP3 ADD MSTORE SWAP1 MLOAD SWAP1 DUP2 SWAP1 SUB PUSH1 0x64 ADD SWAP1 REVERT INVALID SSTORE PUSH15 0x697377617056323A20494E53554646 0x49 NUMBER 0x49 GASLIMIT 0x4E SLOAD 0x5F 0x4F SSTORE SLOAD POP SSTORE SLOAD 0x5F COINBASE 0x4D 0x4F SSTORE 0x4E SLOAD SSTORE PUSH15 0x697377617056323A20494E53554646 0x49 NUMBER 0x49 GASLIMIT 0x4E SLOAD 0x5F 0x49 0x4E POP SSTORE SLOAD 0x5F COINBASE 0x4D 0x4F SSTORE 0x4E SLOAD SSTORE PUSH15 0x697377617056323A20494E53554646 0x49 NUMBER 0x49 GASLIMIT 0x4E SLOAD 0x5F 0x4C 0x49 MLOAD SSTORE 0x49 DIFFICULTY 0x49 SLOAD MSIZE SSTORE PUSH15 0x697377617056323A20494E53554646 0x49 NUMBER 0x49 GASLIMIT 0x4E SLOAD 0x5F 0x4C 0x49 MLOAD SSTORE 0x49 DIFFICULTY 0x49 SLOAD MSIZE 0x5F TIMESTAMP SSTORE MSTORE 0x4E GASLIMIT DIFFICULTY SSTORE PUSH15 0x697377617056323A20494E53554646 0x49 NUMBER 0x49 GASLIMIT 0x4E SLOAD 0x5F 0x4C 0x49 MLOAD SSTORE 0x49 DIFFICULTY 0x49 SLOAD MSIZE 0x5F 0x4D 0x49 0x4E SLOAD GASLIMIT DIFFICULTY LOG2 PUSH5 0x6970667358 0x22 SLT KECCAK256 ORIGIN BALANCE LOG1 0xD5 0x25 DELEGATECALL SWAP15 SELFBALANCE 0xF7 DIV 0xAE 0x4F SSTORE 0xE0 0xDC 0xFC DIFFICULTY PUSH29 0xD482B14869A04BA68EA5EE9AFB4E64736F6C634300060C003300000000 "
				},
				"gasEstimates": {
					"creation": {
						"codeDepositCost": "1821400",
						"executionCost": "83909",
						"totalCost": "1905309"
					},
					"external": {
						"DOMAIN_SEPARATOR()": "1088",
						"MINIMUM_LIQUIDITY()": "243",
						"PERMIT_TYPEHASH()": "244",
						"allowance(address,address)": "1305",
						"approve(address,uint256)": "22366",
						"balanceOf(address)": "1192",
						"burn(address)": "infinite",
						"decimals()": "275",
						"factory()": "1126",
						"getReserves()": "1240",
						"initialize(address,address)": "42806",
						"kLast()": "1088",
						"mint(address)": "infinite",
						"name()": "infinite",
						"nonces(address)": "1169",
						"permit(address,address,uint256,uint256,uint8,bytes32,bytes32)": "infinite",
						"price0CumulativeLast()": "1087",
						"price1CumulativeLast()": "1109",
						"setSwapFee(uint32)": "22004",
						"skim(address)": "infinite",
						"swap(uint256,uint256,address,bytes)": "infinite",
						"swapFee()": "1080",
						"symbol()": "infinite",
						"sync()": "infinite",
						"token0()": "1105",
						"token1()": "1148",
						"totalSupply()": "1088",
						"transfer(address,uint256)": "infinite",
						"transferFrom(address,address,uint256)": "infinite"
					},
					"internal": {
						"_mintFee(uint112,uint112)": "infinite",
						"_safeTransfer(address,address,uint256)": "infinite",
						"_update(uint256,uint256,uint112,uint112)": "infinite"
					}
				},
				"methodIdentifiers": {
					"DOMAIN_SEPARATOR()": "3644e515",
					"MINIMUM_LIQUIDITY()": "ba9a7a56",
					"PERMIT_TYPEHASH()": "30adf81f",
					"allowance(address,address)": "dd62ed3e",
					"approve(address,uint256)": "095ea7b3",
					"balanceOf(address)": "70a08231",
					"burn(address)": "89afcb44",
					"decimals()": "313ce567",
					"factory()": "c45a0155",
					"getReserves()": "0902f1ac",
					"initialize(address,address)": "485cc955",
					"kLast()": "7464fc3d",
					"mint(address)": "6a627842",
					"name()": "06fdde03",
					"nonces(address)": "7ecebe00",
					"permit(address,address,uint256,uint256,uint8,bytes32,bytes32)": "d505accf",
					"price0CumulativeLast()": "5909c0d5",
					"price1CumulativeLast()": "5a3d5493",
					"setSwapFee(uint32)": "d6d788c3",
					"skim(address)": "bc25cf77",
					"swap(uint256,uint256,address,bytes)": "022c0d9f",
					"swapFee()": "54cf2aeb",
					"symbol()": "95d89b41",
					"sync()": "fff6cae9",
					"token0()": "0dfe1681",
					"token1()": "d21220a7",
					"totalSupply()": "18160ddd",
					"transfer(address,uint256)": "a9059cbb",
					"transferFrom(address,address,uint256)": "23b872dd"
				}
			},
			"storageLayout": {
				"storage": [
					{
						"astId": 16,
						"contract": "swap/UniswapV2Pair.sol:UniswapV2Pair",
						"label": "totalSupply",
						"offset": 0,
						"slot": "0",
						"type": "t_uint256"
					},
					{
						"astId": 20,
						"contract": "swap/UniswapV2Pair.sol:UniswapV2Pair",
						"label": "balanceOf",
						"offset": 0,
						"slot": "1",
						"type": "t_mapping(t_address,t_uint256)"
					},
					{
						"astId": 26,
						"contract": "swap/UniswapV2Pair.sol:UniswapV2Pair",
						"label": "allowance",
						"offset": 0,
						"slot": "2",
						"type": "t_mapping(t_address,t_mapping(t_address,t_uint256))"
					},
					{
						"astId": 28,
						"contract": "swap/UniswapV2Pair.sol:UniswapV2Pair",
						"label": "DOMAIN_SEPARATOR",
						"offset": 0,
						"slot": "3",
						"type": "t_bytes32"
					},
					{
						"astId": 35,
						"contract": "swap/UniswapV2Pair.sol:UniswapV2Pair",
						"label": "nonces",
						"offset": 0,
						"slot": "4",
						"type": "t_mapping(t_address,t_uint256)"
					},
					{
						"astId": 422,
						"contract": "swap/UniswapV2Pair.sol:UniswapV2Pair",
						"label": "factory",
						"offset": 0,
						"slot": "5",
						"type": "t_address"
					},
					{
						"astId": 424,
						"contract": "swap/UniswapV2Pair.sol:UniswapV2Pair",
						"label": "token0",
						"offset": 0,
						"slot": "6",
						"type": "t_address"
					},
					{
						"astId": 426,
						"contract": "swap/UniswapV2Pair.sol:UniswapV2Pair",
						"label": "token1",
						"offset": 0,
						"slot": "7",
						"type": "t_address"
					},
					{
						"astId": 428,
						"contract": "swap/UniswapV2Pair.sol:UniswapV2Pair",
						"label": "reserve0",
						"offset": 0,
						"slot": "8",
						"type": "t_uint112"
					},
					{
						"astId": 430,
						"contract": "swap/UniswapV2Pair.sol:UniswapV2Pair",
						"label": "reserve1",
						"offset": 14,
						"slot": "8",
						"type": "t_uint112"
					},
					{
						"astId": 432,
						"contract": "swap/UniswapV2Pair.sol:UniswapV2Pair",
						"label": "blockTimestampLast",
						"offset": 28,
						"slot": "8",
						"type": "t_uint32"
					},
					{
						"astId": 434,
						"contract": "swap/UniswapV2Pair.sol:UniswapV2Pair",
						"label": "price0CumulativeLast",
						"offset": 0,
						"slot": "9",
						"type": "t_uint256"
					},
					{
						"astId": 436,
						"contract": "swap/UniswapV2Pair.sol:UniswapV2Pair",
						"label": "price1CumulativeLast",
						"offset": 0,
						"slot": "10",
						"type": "t_uint256"
					},
					{
						"astId": 438,
						"contract": "swap/UniswapV2Pair.sol:UniswapV2Pair",
						"label": "kLast",
						"offset": 0,
						"slot": "11",
						"type": "t_uint256"
					},
					{
						"astId": 441,
						"contract": "swap/UniswapV2Pair.sol:UniswapV2Pair",
						"label": "swapFee",
						"offset": 0,
						"slot": "12",
						"type": "t_uint32"
					},
					{
						"astId": 444,
						"contract": "swap/UniswapV2Pair.sol:UniswapV2Pair",
						"label": "unlocked",
						"offset": 0,
						"slot": "13",
						"type": "t_uint256"
					}
				],
				"types": {
					"t_address": {
						"encoding": "inplace",
						"label": "address",
						"numberOfBytes": "20"
					},
					"t_bytes32": {
						"encoding": "inplace",
						"label": "bytes32",
						"numberOfBytes": "32"
					},
					"t_mapping(t_address,t_mapping(t_address,t_uint256))": {
						"encoding": "mapping",
						"key": "t_address",
						"label": "mapping(address => mapping(address => uint256))",
						"numberOfBytes": "32",
						"value": "t_mapping(t_address,t_uint256)"
					},
					"t_mapping(t_address,t_uint256)": {
						"encoding": "mapping",
						"key": "t_address",
						"label": "mapping(address => uint256)",
						"numberOfBytes": "32",
						"value": "t_uint256"
					},
					"t_uint112": {
						"encoding": "inplace",
						"label": "uint112",
						"numberOfBytes": "14"
					},
					"t_uint256": {
						"encoding": "inplace",
						"label": "uint256",
						"numberOfBytes": "32"
					},
					"t_uint32": {
						"encoding": "inplace",
						"label": "uint32",
						"numberOfBytes": "4"
					}
				}
			},
			"userdoc": {
				"kind": "user",
				"methods": {},
				"version": 1
			}
		}
	}
}